:02000002D0002C
:1040000000400D0018A10D00000006000D00050184
:084010000401DB0700000000C1
:04401800508F0D00B8
:1040200009480A49884208B505D0094A824202D0A7
:10403000121A04F06BFE0748074A0021121A04F016
:104040008DFE014808BD00BFCCE20320AC9F0D00EF
:1040500010E4032010E40320F0E7032070B5074EBE
:10406000074C03F06FFDA41BA4080025A54200D156
:1040700070BD56F8043B98470135F7E768970D0087
:1040800094970D0000F0C6BC08B500F0CBFBBDE86E
:10409000084003F019BD02F061BA02F05FBA02F005
:1040A00065BA000008B5034A00210C2002F038F977
:1040B000FEE700BF51600D000078B0FA80F04009C3
:1040C0007047012303707047014B01221A7070473B
:1040D000C9E5032003681847012A03D0022A03D048
:1040E000002070470160FBE70B680360F8E7000001
:1040F00008B5044903F0B9F918B1034B03221A704B
:10410000012008BD9F8F0D009CE50320436913B17A
:1041100083690C301847704710B5034B03600446A1
:1041200001F0C6FC204610BD80910D0010B504467C
:10413000FFF7F2FF2046382103F0FBFD204610BDBB
:1041400010B5034B0360044600F0CAFE204610BDC4
:10415000A8910D0010B50446FFF7F2FF204610218C
:1041600003F0E7FD204610BD13B5002104460846C4
:1041700001F0F6FE0023204601A9019301F008FF9B
:10418000019C0CB1012323710021012001F0E8FE04
:104190002CB1236820469B6898470023237102B006
:1041A00010BD10B50446006808B102F0DFF92046E2
:1041B00010BD00001FB5104B104A1B781278104933
:1041C00013438DF8003000223C2302A802F030FC9B
:1041D000039C7CB16368013B63605BB92368204644
:1041E0009B689847A368013BA3601BB923682046DE
:1041F000DB68984704B010BD60E4032061E403204D
:10420000A18F0D0010B58368044613B10322014647
:104210009847204610BD000037B5134B0360044695
:104220008068C8B100256FF00043CDE90035022158
:104230002B462A4601F0B4FEA068294601F0E8FEAC
:10424000237903F0FF0513B101F082FEF8E7A068BF
:10425000294601F095FEA56004F10C00FFF7D2FF9E
:10426000204603B030BD00BF6C910D0010B5044670
:10427000FFF7D2FF20461C2103F05BFD204610BD56
:1042800007B508220023ADF800204FF47A7101220F
:10429000019241436A461846ADF8023002F0FEF83A
:1042A00003B05DF804FB07B580680B46002140B100
:1042B000CDE900210A46032101F072FEB0FA80F038
:1042C000400903B05DF804FB37B504689DF8185049
:1042D0008DF800308DF80450E4683C23A04703B00B
:1042E00030BD000037B5174D0C4659B96B7AF3B1A4
:1042F000154B8DF800101B78144A15491548FFF727
:10430000E3FF14E0084604F0DDFCC83801286B7AAE
:104310000FD84BB100238DF800300B4B0E4A1B78A1
:104320000E490C48FFF7D0FF0D4B00221A7003B066
:1043300030BD002BFBD000238DF80030024B22460D
:104340001B78DAE7A0E5032061E40320A38F0D00CA
:10435000AB8F0D00D0E40320B88F0D00CA8F0D0085
:1043600090E4032037B51649054603F07EF804466D
:1043700088B1144B144A1549154801245C72002376
:104380008DF80030134B1B78FFF79EFF124B204631
:104390001C7003B030BD1149284603F066F80028B0
:1043A000F7D0084B0E4A5C720A4B8DF800401B7820
:1043B00006490748FFF788FF074B01201870E8E718
:1043C0009F8F0D00A0E50320D08F0D00F38F0D000F
:1043D000D0E4032061E40320C8E50320E18F0D0051
:1043E000E38F0D0037B51C49054603F03EF804463F
:1043F00000B31A4C012360686370FFF741FF6368E4
:1044000017484FF47A716FF000425943FFF74BFFA2
:1044100002F00CF848B100238DF80030114B124A1D
:104420001B7812491248FFF74FFF124B01201870FA
:1044300003B030BD1049284603F017F80028F7D024
:10444000064B5C7001F0F2FF0028EED0054B8DF8B2
:1044500000401B78094AE4E79F8F0D00A0E5032088
:10446000A4E4032061E40320F88F0D00F38F0D0016
:10447000D0E40320C8E50320E18F0D000D900D006E
:1044800010B5C4B000680A2203A904F057FDB0F5C6
:10449000966F22D8124C6060FFF7F2FE63681148F5
:1044A0004FF47A7159436FF00042FFF7FCFE6368E6
:1044B0000D4A4FF4807104A802F070F800238DF8C3
:1044C00000300A4B0A491B780A4804AAFFF7FCFE91
:1044D000094B0120187044B010BD0020FBE700BF5D
:1044E000A0E50320A4E4032021900D0061E4032053
:1044F0003A900D00D0E40320C8E5032007B501F091
:1045000095FF48B100238DF800300B4B0B4A1B7808
:104510000B490C48FFF7D8FE0B4A0C487823536030
:1045200000230121537293722823118003B05DF898
:1045300004EB00F090BD00BF61E4032045900D0046
:10454000F38F0D00D0E40320A0E5032094E40320C2
:1045500010B5124C237A012B04D901F067FFD8B1B2
:10456000012323726368B3F5966F84BF4FF416730B
:104570006360637A012B84BF00236372A37A012BEB
:1045800084BF0023A3726369FF2B84BF0023636190
:10459000034B01221A7010BD2072E3E7A0E503204F
:1045A000C8E5032007B50121052003F04CFB0021DD
:1045B000052003F048FB094A00231370084A527A89
:1045C00042B18DF80030074B074A1B78074908486D
:1045D000FFF77AFE03B05DF804FB00BFC9E50320D6
:1045E000A0E5032061E403205D900D0064900D00C0
:1045F000D0E4032000B5104B9DB0186803F02AFEEC
:104600000E4ACDE90001642103A801F0C7FF002391
:104610008DF800300A4B0B491B780B4803AAFFF7B3
:1046200053FE0A4B01221A7001F01AFD084B186064
:104630001DB05DF804FB00BF58E503206D900D0030
:1046400061E4032081900D00D0E4032090E4032076
:10465000CCE5032010B588B004AC84E80F0008ABAB
:1046600013E903008DE80300104894E80C0000F003
:10467000C3FB53EC102B10EE100A1946CDE90223B0
:1046800004F010F90A9908600949086803F0E2FD8E
:10469000DDE9022303F036FE064B002203F05CFF47
:1046A00004F000F90B9B186008B010BD18E403205B
:1046B000D0E2032000408F4030B5114D114C12491B
:1046C0002A7820788DB01A2303FB0212009203FB94
:1046D00000130E4A282102A801F060FF2B782370F6
:1046E00001F0A4FE48B100238DF80030084B0949C1
:1046F0001B78094802AAFFF7E7FD0DB030BD00BFE7
:104700009CE50320C0E40320D4E2032096900D0032
:1047100061E40320A4900D00D0E4032030B50D4DDA
:104720000FCD89B001AC0FC495E807000A4B84E8AF
:1047300007001B7C094808AA02EB8303102153F8E9
:104740001C3C074A01F02AFF064B01221A7009B0EF
:1047500030BD00BFBC910D00A0E5032062E4032042
:1047600098920D00C8E503202DE9F041234C244D1B
:1047700086B0002384F82030FFF7D0FF214A224B77
:10478000CDE900420FCBFFF765FF204BD5E90001D3
:10479000D3E9002303F0FEFB0022002306460F4668
:1047A00004F040F8A84610B907F100431F46184B23
:1047B00000223046394604F035F8D0B1012584F89E
:1047C000205002F0EEFF134BA06198ED000B062184
:1047D00002A81D7002F009FE00238DF800300E4B78
:1047E000029A1B780D490E48FFF76EFD02A802F0F1
:1047F00071FD012006B0BDE8F08100BF58E503203F
:1048000088E4032050E4032080E50320C8E403206B
:104810000000E03F7CE5032061E40320B5900D003B
:10482000D0E4032037B5674C2378013B042B2ED806
:10483000DFE803F0A203174D7000634B5B7A2BB1E6
:10484000624B1B78022B01D0FFF736FF02F0A9FF65
:104850000A2390FBF3F202FB1303C3B90423237072
:1048600015E0594B5B7A2BB1584B1B78032B01D0C9
:10487000FFF722FFFFF778FF08B90223EFE70423D1
:104880002370534BD3E90001524BC3E90001524856
:1048900000F0BEFF514B1B780BB1FFF783FE504C6D
:1048A00023783BB12823484A4E48012100F0D3FB2E
:1048B000002323704C4C23783BB124234B4A4948B6
:1048C000A02100F0C8FB0023237003B030BD3E4B95
:1048D0005B7A2BB13D4B1B78042B01D0FFF7ECFE2C
:1048E00001F0A4FD78B102F06DFF0C2805D101F0B4
:1048F0009DFD10B1002001F0B9FDFFF735FFFFF776
:1049000079FE0523ABE70123237001F0A9FB384BA7
:104910001860BCE72C4B5B7A2BB12C4B1B78052B1A
:1049200001D0FFF7C9FE334B1B7843B902F039FFC2
:104930000A2390FBF3F202FB1303002B9DD101F03D
:104940008FFB2D4B1B68C01A4AF6C87398429ED93C
:1049500001F086FB00238DF80030254D274B284AB7
:104960001B78284928602848FFF7AEFC01232370F4
:1049700001F076FB28608AE7144B1B78012B01D0ED
:10498000FFF79AFE01F06CFB194B1B6803F59223AD
:1049900003F578738342BFF47AAF01F047FD48B165
:1049A00000238DF80030154B184A1B78184916481B
:1049B000FFF78AFC4FF4FA6001F038FE02F077FD51
:1049C00065E700BF9CE50320A0E50320C0E40320C9
:1049D00088E40320C8E403200CE50320C9E5032094
:1049E000C8E5032094E403207CE5032058E5032078
:1049F00008E5032090E40320CCE5032061E40320D4
:104A00002C960D00C1900D00D0E40320DA900D002B
:104A1000CA8F0D002DE9F04700219AB0082003F05D
:104A200001F90121052003F0FDF8FFF7BBFD00238C
:104A3000009301224FF0FF336E49082002F038FA4C
:104A40006D4B0AAA03F110051746186859681446F9
:104A500003C40833AB422246F7D119889B78A37070
:104A60002D2221800DF13B000021644C644D002675
:104A700004F074F902A8267001F0E0FC02A906A86F
:104A800002F096FC5F4906A802F0DAFCCDE9006668
:104A90005D4900683346324601F0E0FC06A802F0AA
:104AA00019FC02A802F016FC584959483346042262
:104AB00001F0A4FC574958483346042201F09EFCFB
:104AC000564957483346042201F098FC5549564848
:104AD0003346022201F092FC3346544954480122E5
:104AE00001F08CFC534A5449544801F09CFE544A4E
:104AF0005449524801F097FE534A54494F4801F037
:104B000092FE4B4A52494D4801F08DFE514800F04B
:104B100079FD31464F4800F0B2FE4F4800F00EFAE2
:104B200001234D4806AA314600F04AFA9DF8183094
:104B3000022B35D0484800F00BFA484A4648042377
:104B4000314600F088FA0123434806AA314600F0B6
:104B500037FA9DF81830022B1FD001232370FFF77E
:104B6000F7FC6B788BB3002001F08AFA4FF0000A53
:104B70000646002001F084FAB0EB060861EB0A0952
:104B8000002347F22F524B4508BF42450FD301F097
:104B90004DFC60B901F042FCEBE7FFF7AFFCDEE74C
:104BA00028232A4601212C4800F00AFAD7E701F011
:104BB0003DFC6868FFF764FB6B6829484FF47A7125
:104BC0006FF000425943FFF76EFBFFF7CDFD6B7AA4
:104BD0004BB100238DF80030224B23491B7823482A
:104BE0003A46FFF771FB23780BB9022323701AB002
:104BF000BDE8F087C9400D00D8910D009CE5032069
:104C0000A0E50320EE900D00E5420D0018920D0086
:104C100013910D0072E403201B910D0062E4032048
:104C200023910D00A4E5032032910D00A1E503209E
:104C3000FF8F0D0041910D00F1400D00FB670D004D
:104C40004D910D0065430D003A900D0081440D001B
:104C5000E5430D000CE5032094E4032020920D00B1
:104C6000A4E4032061E403205A910D00D0E4032062
:104C7000F0B5474B474C484E01271F70474B022267
:104C800000251A70464BA36089B02560A580A571E8
:104C9000384601F05DFB32464249204603F044F8B5
:104CA0002946384601F064FB3946042001F0B8F982
:104CB0003D483E4C01F042F903F00EF82B46014608
:104CC0004FF40052204600F02FF9394B2360324652
:104CD0003849204603F028F802F0FEFF364C014622
:104CE000204600F097FB2046344C3549324603F00D
:104CF0001BF834494FF40062204601F001F8324BB2
:104D0000236032463149204603F00EF8304B0493BD
:104D100004AF304C304B236097E8030002AA04F143
:104D20000C0382E8030093E8030087E8030092E89D
:104D3000030083E80300294B6361A3690793284BB1
:104D4000A361284A25712346A5604FF47A71CDE905
:104D5000005504F10800069501F00AF93846FFF7FE
:104D600051FA32462049204602F0DEFF06A1D1E981
:104D700000011E4B1E4AC3E9000112781D4BC3E916
:104D800002011A6009B0F0BD0AD7A3703DBA5640BF
:104D900061E4032054E4032010E4032060E40320D2
:104DA0000000FFFFA3410D0090E5032094E40320E1
:104DB000A8910D0041410D000CE50320D0E4032033
:104DC0009F510D0000F4032080910D0019410D004A
:104DD000B5410D00A4E403206C910D00D9400D00F5
:104DE000D5400D0069410D0019420D0028E5032052
:104DF000CCE2032080E5032082B02DE9F84F0AA918
:104E000081E80C00344BDFF8D4B00022C0E9042361
:104E1000044640F27E654FF0000ABDF8280002F01B
:104E20002BFFD4E90489206003F002FA42464B4686
:104E300006460F4603F0AEF852465B4603F062FAB0
:104E400042464B4603F0A8F802460B46C4E9042349
:104E50003046394603F09EF802460B46C4E9022369
:104E600003F050FA02460B46C4E90623D4E90823AE
:104E700003F092F8013D06460F46C4E90867CCD11D
:104E8000DDE90C0110A3D3E9002303F03BFA10A3E2
:104E9000D3E90023804689463046394603F05CFB5F
:104EA00041EC100B02F04EFF00220023C4E908235E
:104EB00051EC100B42464B4603F024FABDE8F84F84
:104EC00041EC100B02B070476666666666664A3F44
:104ED0000000000000F899400000A0400000503F92
:104EE000704710B51021044602F023FF204610BD84
:104EF0000368C9B29B6818470EB410B58DB00FAAED
:104F0000016852F8044B039200232020CDE90403EA
:104F1000CDE900421E2004AA01F00AFA0DB0BDE856
:104F2000104003B07047000030B5034DC0E90223C4
:104F3000C0E9005130BD00BF58920D00406801F03B
:104F400069BF10B50446006801F0A7FF204610BDF8
:104F50002DE9F0418AB004464068019001F094FFC9
:104F60001E22002102A8A76803F0F8FE0026EFB178
:104F700023681E2FB84628BF4FF01E08DD6802AA1E
:104F8000434631462046A847054658B90A480B49CA
:104F90003246FFF7B1FF01A8FFF7D3FF28460AB05A
:104FA000BDE8F081A7EB08074644E0E701A8FFF75A
:104FB000C8FF0125F2E700BF14E6032024920D008C
:104FC0002DE9F7430446406801900D4616461F46FA
:104FD00001F05AFFA7B1E168606841F0500101F0AB
:104FE0004CFF290A6068FFF783FF29466068FFF7D6
:104FF0007FFF6068002101F043FF48B1002400E01A
:10500000012401A8FFF79DFF204603B0BDE8F0830F
:10501000202F217B6068B84628BF4FF0200801236D
:10502000424641F0500101F012FF02F055FE0368C4
:105030001B6998474045E1DB06EB080902F04CFE8E
:1050400003685B69984706F8010B4E45F6D1454465
:10505000A7EB0807BEE72DE9F74F0446406801902B
:105060000E4690461D4601F00FFF4FF00109B9F1C1
:10507000000F2AD04DB3E168606841F0500101F0A3
:10508000FCFE310A6068FFF733FF60683146FFF7C6
:105090002FFFA5F11E0A4746A6EB080B606817F81C
:1050A000011B0368013D9B68984755450BEB0706BC
:1050B000B84601D0002DF1D16068012101F0E0FE79
:1050C0000028D7D04FF00009D1E701A8FFF739FF3A
:1050D000484603B0BDE8F08F2DE9F0438BB00E4693
:1050E00015468046406801901C4601F0CDFEAE4258
:1050F00029D2264425448CB11E2C2746D8F80030EE
:1051000028BF1E27F61BD3F8089002AA3B4631465B
:105110004046ED1BC84748B9002400E0012401A81F
:10512000FFF70FFF20460BB0BDE8F083D8F8003042
:1051300002AAD3F80C9029463B464046C8470028AF
:10514000EAD0E41BD7E7E9D9002CE7D0D8F8003043
:105150001E2C274628BF1E27D3F8089002AA3B46DC
:1051600031464046C8470028D6D0D8F8003002AAB9
:10517000D3F80C9029463B464046C8470028CBD080
:105180003E443D44E41BDFE7402070470020704769
:1051900080207047FF207047704770477047704706
:1051A00010B51421044602F0C4FD204610BD10B510
:1051B0000821044602F0BDFD204610BD10B50821AF
:1051C000044602F0B6FD204610BD10B51C21044671
:1051D00002F0AFFD204610BD2DE9FF410368DB68FA
:1051E0000446984710220146684603F0B7FD23683D
:1051F00020469B689847002507462846BD420ED2A8
:105200007E1B2368102E28BF1026D3F818806A460C
:10521000334629462046C04708B13544EEE704B07E
:10522000BDE8F0814FF48073438140F20113C36005
:10523000002303827047000008B5064B0360064B4D
:10524000436040F20473038100234374FFF7EAFFD5
:1052500008BD00BF38930D000001020303090A22B4
:1052600000F00F0002FB0300704708B5807AFFF7DB
:10527000F5FF00F5FA6008BDC07A00F01F00FFF7E7
:10528000EDBF007B00F03F00FFF7E8BF08B5817B72
:105290004A060DD501F01F00FFF7E0FF8B0603D58E
:1052A0000C2800D00C3008BD0C2808BF0020FAE7FD
:1052B000BDE8084001F03F00FFF7D0BFC07B00F021
:1052C0007F00FFF7CBBF007C00F07F00FFF7C6BF79
:1052D00010B58AB024220446002101A803F03EFD47
:1052E0002046FFF7C2FFA0F26C7006902046FFF741
:1052F000C3FF013805902046FFF7C3FF0490204606
:10530000FFF7C4FF03902046FFF7D8FF0290204626
:10531000FFF7D9FF019001A801F080F90AB010BD94
:105320000A2190FBF1F292FBF1F301FB13231B0125
:10533000DBB201FB12001843C0B27047642310B502
:10534000044691FBF3F000FB1310FFF7E9FFA07296
:1053500010BD10B504460846FFF7E2FFE07210BD2D
:1053600010B504460846FFF7DBFF237B23F03F031D
:105370001843207310BD10B50446481CFFF7D0FF3A
:10538000637B23F007031843607310BD10B5044618
:105390000846FFF7C5FFA07310BD10B504460846C8
:1053A000FFF7BEFFE07310BD10B504460846FFF7D7
:1053B000B7FF237C23F07F031843207410BD37B55B
:1053C00004466846CDE9002303F08EFC054641699A
:1053D0002046FFF7B3FF296920460131FFF7B9FFE7
:1053E000E9682046FFF7BCFFA9692046FFF7C3FF25
:1053F000A9682046FFF7CAFF69682046FFF7CDFF7E
:1054000029683B29A8BF3B212046FFF7CDFF03B009
:1054100030BD0000054A0061C0E90021044A8260F5
:10542000044AC260044A8061426170476C930D0077
:105430000000010314930D0048930D002DE9F84F6F
:1054400004460F469046994600260A9B9E4231D25A
:105450006068394601F00DFD08EB06016068FFF752
:1054600047FD6068002101F00BFD0546D0B90A9B9D
:1054700060689A1B202A4FF0010328BF202239467A
:1054800001F0E5FC09EB060B05460BEB000ADA45DB
:1054900006D0606803685B6998470BF8010BF6E774
:1054A0002E44D2E7024604490448FFF725FD28466A
:1054B000BDE8F88F0025FAE76C920D00D0E50320D7
:1054C0002DE9F34101EB03081E4603689B6805467E
:1054D0000C461746984780450DD8203468680096DA
:1054E0003B46E2B26F21FFF7A9FFB0FA80F0400916
:1054F00002B0BDE8F0810020FAE72DE9F34101EBAD
:1055000003081E4603689B6804460D4617469847E5
:1055100080450CD8606800963B46EAB25721FFF7F9
:105520008DFFB0FA80F0400902B0BDE8F0810020A4
:10553000FAE77FB51E1E0CBF07230623009314460F
:1055400002AB0A466F21FFF779FF0546A8B99DF81F
:10555000083023749DF80930E3739DF80A30A37373
:105560009DF80B3063739DF80C3023739DF80D305C
:10557000E3722EB99DF80E30A372284604B070BDB8
:1055800002F02CF9FFF7CCFEA072F6E71FB501235D
:105590000A4600936F2103ABFFF750FF20B99DF837
:1055A0000C0005B05DF804FB0020FAE708B5032104
:1055B000FFF7ECFFC0F3401008BD38B500230C46E0
:1055C0000A4619460546FFF7B4FF30B9A37A23B15E
:1055D0002846BDE83840FFF7E9BF002038BD7FB559
:1055E000024601A8FFF728FE01A91046FFF7E5FFD4
:1055F00028B101A8FFF76CFE07B05DF804FB00209E
:105600000146F9E7D0B5044686B0406801F002FCD7
:1056100002F0AAF8E8B9E37A9B071AD52046FFF70B
:10562000DEFF06460F4656EA070312D001F0A3FF3D
:105630000A4B0B491B68009332463B4602A802F016
:1056400051F80848029A0849FFF756FC02A801F0F1
:1056500041FE0123237206B0D0BD00BFA4E30320A6
:1056600040E60320D0E5032086920D002DE9F84F97
:105670000646884691469A4600250A9B9D4229D2B5
:105680007068414601F0F5FB706809EB0501FFF712
:105690002FFC0A9B5F1B1F2F28BF1F270AEB050447
:1056A00007EB040B706814F8011B026892689047BE
:1056B000A345F7D17068012101F0E2FB044638B13F
:1056C000024605490548FFF717FC2046BDE8F88F5C
:1056D0003D44D2E70024F8E79B920D00D0E503207B
:1056E0002DE9F34101EB03081E4603689B6805465C
:1056F0000C461746984780450DD8203468680096B8
:105700003B46E2B26F21FFF7B1FFB0FA80F04009EB
:1057100002B0BDE8F0810020FAE71FB5137C8DF8D8
:105720000830D37B8DF80930937B8DF80A30537B9A
:105730008DF80B30137B8DF80C30D37A8DF80D304B
:10574000937A8DF80E30072300930A4602AB6F213F
:10575000FFF78CFF05B05DF804FB10B588B0044678
:1057600003A80193FFF768FD019B03A8FFF727FE3D
:105770009DF81C30A27A63F07F038DF81C309DF8F1
:1057800019306AB143F0080303AA002120468DF8BE
:105790001930FFF7C2FFB0FA80F0400908B010BD21
:1057A00003F0F703F0E70000F0B587B0054601F01D
:1057B000DBFF0446E8B101F0F4FFC71702460646D6
:1057C0003B462846FFF7C9FF0C4B0D491B68009369
:1057D00032463B46044602A801F084FF0948029A7B
:1057E0000949FFF789FB02A801F074FD204607B0C4
:1057F000F0BD06490348FFF77FFBF7E7A4E303206A
:1058000040E60320D0E50320B6920D00CC920D00B7
:1058100037B5457A04469DB901F0A6FF80B1002254
:10582000002369462846CDE9002300F02FFE38B159
:10583000E37ADB0702D52046FFF7B6FF0123637248
:1058400003B030BD1FB501238DF80C2000930A462C
:1058500003AB6F21FFF70AFF05B05DF804FBF8B555
:1058600004460D4617461E46FFF790FE00EA070263
:10587000324329462046BDE8F840FFF7E3BF01293F
:1058800008B50CD800294FF0000314BFDF22EF2227
:105890000721FFF7E4FFB0FA80F0400908BD0020BF
:1058A000FCE738B5044632256068572101F0E1FA7B
:1058B0006068012101F0E4FA08B1013DF4D138BD7E
:1058C0002DE9F04104460F46164602EB0308B045A9
:1058D00020D06068572101F0CCFA39466068FFF7A4
:1058E00007FB606816F8011B03689B6898476068AF
:1058F000012101F0C5FA0137054638B102460649D3
:105900000648FFF7F9FA2846BDE8F0812046FFF780
:10591000C8FFDCE70025F6E7E1920D00D0E50320A3
:10592000F7B5CF181E46036801929B6804460D46E2
:10593000984787420AD8019A60683346E9B2FFF770
:10594000BFFFB0FA80F0400903B0F0BD0020FBE7D4
:10595000014B024A1A607047D0E5032002930D0004
:10596000012A034602D1016000207047022A04BFC9
:10597000D1E90001C3E90001F6E710B50123037482
:105980008368044643B1C0689847012363740020CC
:10599000BDE8104000F034BB00680028F5D08368F3
:1059A0000BB902F0CCF9C368EEE710B442680346C5
:1059B000541001EB6200D20748BF0A591B685DF81A
:1059C000044B48BFD35818470123F7B580F8293056
:1059D0000646083000F0ECFA0420FEF75CFB0546B2
:1059E00098B31B49142002F0A6F930B10023C0E996
:1059F0000033C0E90233037443742860A0B1154B2F
:105A00001549C0E902364FF40063CDE900030222D4
:105A1000124B043000F094FA30B92B681B7CA3B908
:105A2000012000F00DFBF8E72C6800232B6064B127
:105A3000276837B13846FEF7E5FB1021384602F0FB
:105A400078F91421204602F074F9756003B0F0BDB6
:105A500004960D00675C0D0074930D007B590D00DA
:105A600047F23051084AC160084902600022C0E98B
:105A700004120749C16107494260C0E908228161F7
:105A8000028580F82A20704738940D00D15D0D0002
:105A9000AB590D0061590D0010B5044B044640F898
:105AA000103BFEF7AFFB204610BD00BF38940D0041
:105AB00010B5034B03600446FFF7EEFF204610BD10
:105AC00060940D0010B50446FFF7F2FF2046382120
:105AD00002F02FF9204610BD806800F071BA80688E
:105AE00000F076BA10B504460068FFF7F8FF2046CC
:105AF00010BD13B504460190FFF7EEFFE36ADC88A2
:105B0000A4B20CB103F1080401A8FFF7EBFF204693
:105B100002B010BD13B504460190FFF7DDFF94F805
:105B2000283043B9E26A0124D38001A8FFF7DAFFE5
:105B3000204602B010BD0024F7E713B504460190DB
:105B4000FFF7CAFFE36A01A8DC88FFF7CBFF204616
:105B500002B010BD2DE9F047994686B090F8293083
:105B60009DF838A09DF83C8004460F46164613B9B0
:105B700003689B689847314B3846002E08BF1E4685
:105B800003F047F90546304603F043F9284400F195
:105B90000A05AB071CBF25F0030504353346CDE9E4
:105BA0000285CDE9009A264926483A46FFF7A4F92E
:105BB000238E083BAB4212D20024204606B0BDE83B
:105BC000F087CB88012B36D005A8FFF78BFF236821
:105BD00094F828109B69204698470028ECD020466E
:105BE0000594FFF779FFE16A228E636B0A44D21AAB
:105BF000AA42E6D348EA0A0883F80480C3F8009072
:105C0000636B03F108083946404603F0DDF840466F
:105C100003F0FFF801303146404403F0D5F8636BE0
:105C2000E26A1D446563D3880133D380012405A84B
:105C3000FFF758FFC1E70024F9E700BF2C960D00DD
:105C400086930D00D4E5032008B5044600F1100545
:105C5000A3690BB902F073F8E36921462846984717
:105C600000F076F9F4E708B5FFF7EEFF68B501F14B
:105C700008050646284603F0CCF8013005442846BE
:105C800003F0C7F8F36A01302844C31A13F0030382
:105C90001CBFC3F10403C01868BDF7B504460E4627
:105CA0000190FFF719FFE76AFB8807F10805E6B1E5
:105CB000012B22D929462046FFF7D8FF0546294661
:105CC0002046FFF7D3FF228E3A44121A0146A0EB7A
:105CD000050602D0284603F027F8636B9B1B63631D
:105CE000FB88013BFB80012601E0002BE7D101A8E6
:105CF000FFF7F8FE304603B0F0BD0026F7E70000DE
:105D00002DE9F0470D4604462F461646FFF7A8FE3C
:105D1000154B57F8082B2360144BE5629A422686F0
:105D2000984617D1AB889BB2B34213D105EB060A54
:105D300067634FF00009EB881FFA89F29BB29A4221
:105D40000ED2616B2046FFF791FF5045606309F169
:105D50000109F0D90023C5F800806763AE80EB80AD
:105D60002046BDE8F08700BF60940D0061AB9CD178
:105D700010B5D1E9002386B00021044604910AB988
:105D8000D90705D5CDE902230F4B05930F4B04939B
:105D900002AB93E803006A4682E8030094E803003C
:105DA00083E8030092E80300049A84E80300A168F2
:105DB000A260059A04911846E168E2600591FEF739
:105DC00021FA204606B010BDAB590D0061590D00F7
:105DD00007B5054B00936946002310300193FFF788
:105DE000C7FF03B05DF804FB195E0D0013B5044650
:105DF00000F036F9636AC01AE368984208D3054B8D
:105E000000936946002304F110000193FFF7B0FFEF
:105E100002B010BD195E0D002DE9F04190F82A3056
:105E200086B00446002B64D100F000FB002860D04F
:105E300000F016F9636AC01A40F2F133984258D95B
:105E4000236820465B6998470546002851D000F139
:105E50000807012384F82830384602F0DAFF95F865
:105E60000480CDF8048001302B682B4900933E1844
:105E700033462A483A46FFF73FF82B688DF80080F2
:105E80003246394602A800F0D3FD029D6B781BB95B
:105E9000012000F0CBFBF8E7002000F071FA20B100
:105EA0006B7813B900F0BAFAFAE72B78012B23D1FB
:105EB0001B491A48FFF720F8236800219B692046F8
:105EC0009847002384F8283000F0CAF86062039CE9
:105ED0007CB16368013B63605BB9236820469B68C3
:105EE0009847A368013BA3601BB923682046DB6881
:105EF000984706B0BDE8F081E2680A490748FEF716
:105F0000FBFF094B049304A9002304F1100005933F
:105F1000FFF72EFFD5E700BFC7930D00D4E50320A0
:105F2000E8930D00FF930D00ED5D0D00014B024A5B
:105F30001A607047D4E5032026940D0070470000D6
:105F400008B5024B1B685B68019308BD480203005B
:105F500008B5024B1B68DB68019308BD48020300CB
:105F600008B5024B1B68DB69019308BD48020300BA
:105F700008B5024B1B681B6A019308BD4802030069
:105F800008B5024B1B685B6A019308BD4802030019
:105F900008B5024B1B689B6A019308BD48020300C9
:105FA00008B5024B1B68DB6A019308BD4802030079
:105FB00008B5024B1B681B6B019308BD4802030028
:105FC00008B5024B1B689B6B019308BD4802030098
:105FD00008B5024B1B681B6C019308BD4802030007
:105FE00008B5024B1B685B6C019308BD48020300B7
:105FF00008B5024B1B689B6C019308BD4802030067
:1060000008B5024B1B68DB6E019308BD4802030014
:1060100008B5024B1B681B6F019308BD48020300C3
:1060200008B5024B1B685B6E019308BD3402030088
:1060300008B5024B1B685B68019308BD180203009A
:1060400008B5024B1B689B68019308BD180203004A
:1060500008B5024B1B68DB68019308BD18020300FA
:1060600008B5024B1B685B69019308BD1802030069
:1060700008B5024B1B689B6D019308BD1802030015
:1060800008B5024B1B68DB6D019308BD18020300C5
:1060900008B5024B1B685B6E019308BD1802030034
:1060A00008B5024B1B689B6E019308BD18020300E4
:1060B00008B5024B1B685B68019308BD2C02030006
:1060C00008B5024B1B689B68019308BD2C020300B6
:1060D00008B5024B1B68DB68019308BD2C02030066
:1060E00008B5024B1B681B69019308BD2C02030015
:1060F00008B5024B1B689B69019308BD2C02030085
:1061000008B5024B1B68DB69019308BD2C02030034
:1061100008B5024B1B681B6B019308BD2C020300E2
:1061200008B5024B1B68DB68019308BD2802030019
:1061300008B5024B1B689B69019308BD2802030048
:1061400008B5024B1B68DB69019308BD28020300F8
:1061500008B5024B1B681B6A019308BD28020300A7
:1061600008B5024B1B685B6A019308BD2802030057
:1061700008B5024B1B689B6A019308BD2802030007
:1061800008B5024B1B68DB6A019308BD28020300B7
:1061900008B5024B1B681B6B019308BD2802030066
:1061A00008B5024B1B685B6B019308BD2802030016
:1061B00008B5024B1B681B6C019308BD2802030045
:1061C00008B5024B1B689B6C019308BD28020300B5
:1061D00008B5024B1B68DB6C019308BD2802030065
:1061E00008B5024B1B681B6D019308BD2802030014
:1061F00008B5024B1B685B69019308BD640203008C
:1062000008B5024B1B689B68019308BD6802030038
:1062100008B5024B1B68DB68019308BD68020300E8
:1062200008B5024B1B68DB69019308BD300203000F
:1062300008B5024B1B681B6A019308BD30020300BE
:1062400008B5024B1B681B68019308BD3C020300A4
:1062500008B5024B1B68DB68019308BD3C020300D4
:1062600008B5024B1B681B69019308BD3C02030083
:1062700008B5024B1B685B69019308BD3C02030033
:1062800008B5024B1B689B69019308BD3C020300E3
:1062900008B5024B1B68DB69019308BD3C02030093
:1062A00008B5024B1B681B6A019308BD3C02030042
:1062B00008B5024B1B689B6A019308BD3C020300B2
:1062C00008B5024B1B681B68019308BD4C02030014
:1062D00008B5024B1B681B69019308BD4C02030003
:1062E00008B5024B1B685B69019308BD4C020300B3
:1062F00008B5024B1B689B69019308BD4C02030063
:1063000008B5024B1B68DB69019308BD4C02030012
:1063100008B5024B1B681B6A019308BD4C020300C1
:1063200008B5024B1B685B6B019308BD600203005C
:1063300008B5024B1B685B6D019308BD600203004A
:1063400008B5024B1B681B68019308BD20020300BF
:1063500008B5024B1B685B68019308BD200203006F
:1063600008B5024B1B685B69019308BD200203005E
:1063700008B5024B1B68DB6A019308BD20020300CD
:1063800008B5024B1B68DB6C019308BD20020300BB
:1063900008B5024B1B685B6D019308BD200203002A
:1063A00008B5024B1B689B6D019308BD20020300DA
:1063B00008B5024B1B68DB6D019308BD200203008A
:1063C00008B5034B1B68D3F88830019308BD000063
:1063D0002002030008B5034B1B68D3F894300193E7
:1063E00008BD00002002030008B5034B1B68D3F86A
:1063F000B030019308BD00002002030008B5024B35
:106400001B681B68019308BD4402030008B5024BDA
:106410001B685B68019308BD4402030008B5024B8A
:106420001B689B68019308BD4402030008B5024B3A
:106430001B685B69019308BD4402030008B5024B69
:106440001B68DB69019308BD4402030008B5024BD9
:106450001B681B6A019308BD4402030008B5024B88
:106460001B685B6A019308BD4402030008B5024B38
:106470001B68DB6A019308BD4402030008B5024BA8
:106480001B681B6B019308BD4402030008B5024B57
:106490001B685B6B019308BD4402030008B5024B07
:1064A0001B689B6B019308BD4402030008B5024BB7
:1064B0001B68DB6B019308BD4402030008B5024B67
:1064C0001B685B68019308BD4002030008B5024BDE
:1064D0001B689B68019308BD4002030008B5024B8E
:1064E0001B68DB68019308BD4002030008B5024B3E
:1064F0001B681B69019308BD4002030008B5024BED
:106500001B685B69019308BD4002030008B5024B9C
:106510001B689B69019308BD4002030008B5024B4C
:106520001B68DB69019308BD4002030008B5024BFC
:106530001B681B6A019308BD4002030008B5024BAB
:106540001B681B6B019308BD4002030008B5024B9A
:106550001B685B6B019308BD4002030008B5024B4A
:106560001B681B68019308BD1C02030008B5024BA1
:106570001B685B68019308BD1C02030008B5024B51
:106580001B689B68019308BD1C02030008B5024B01
:106590001B681B69019308BD1C02030008B5024B70
:1065A0001B68DB69019308BD1C02030008B5024BA0
:1065B0001B68DB6A019308BD1C02030008B5024B8F
:1065C0001B681B6B019308BD1C02030008B5024B3E
:1065D0001B68DB6B019308BD1C02030008B5024B6E
:1065E0001B685B6C019308BD1C02030008B5024BDD
:1065F0001B689B6C019308BD1C02030008B5024B8D
:106600001B68DB6C019308BD1C02030008B5024B3C
:106610001B681B6D019308BD1C02030008B5024BEB
:106620001B685B6D019308BD1C0203000021FFF78E
:1066300097BE10B5836804460BB901F080FBC368B0
:106640009847A3681BB1032221462046984720465D
:106650001021BDE8104001F06CBB10B50368044682
:106660009B689847A368013BA3602BB92368204629
:10667000DB68BDE81040184710BD10B5044600683F
:1066800008B1FFF7B5FC204610BD0B68036013B1DD
:106690005A6801325A60704710B50446006828B144
:1066A0004368013B43600BB9FFF7D7FF204610BD9D
:1066B00010B5064C002320462360FFF791FC2046CE
:1066C000034A0449BDE8104001F02EBBD8E5032081
:1066D00010E403207B660D00002240681146FFF79E
:1066E00005BF002240681146FFF720BF0022406826
:1066F0001146FFF72BBF40680022FFF71FBF40681D
:10670000002281F00101FFF709BF002340681A460B
:106710001946FFF7FBBE002340681A461946FFF7EB
:10672000EDBE002240681146FFF7D0BE406800224F
:106730000221FFF7D3BE002340681A46FFF7BEBE12
:10674000084B10B5282422461846002102F006FB0B
:10675000054B04804FF0FF32426004225A60034A26
:106760001A6010BDE4E50320DCE5032088940D00E9
:1067700070470020704710B51021044601F0D9FA87
:10678000204610BD08B5FFF7F6FF08BD30B5002262
:106790004FF69C74026084808D888C800C688580A4
:1067A00004600A6030BD10B504460068FFF7DEFEE5
:1067B000204610BD38B5C468F4B12378022B03D14C
:1067C00004F10C00FFF7EFFF656835B12846FDF7CF
:1067D00019FD1021284601F0ACFAA56835B128460C
:1067E000FDF710FD1021284601F0A3FA20461421E0
:1067F000BDE8384001F09DBA38BD10B588B00446F8
:10680000684600F0B2FD694604A800F0D1FD04A876
:10681000A047044604A800F05DFD684600F05AFD5C
:10682000204608B010BD1FB50023CDE9020101923A
:1068300010241A4669461846ADF80230ADF80040FB
:10684000FFF7E4FD04B010BD73B50E46044656F8DC
:10685000043B00930D4601A83146FFF716FF019A4D
:10686000009B6260236001A8002301930093FFF75F
:1068700013FF3046FFF710FF2846082101F059FAB0
:10688000204602B070BD13B50B460246D0E90001A8
:106890006C4684E8030093E8030082E8030094E870
:1068A000030083E8030002B010BD826810B50AB986
:1068B00001F045FABDE81040C368184708B5006804
:1068C00000F11001FFF7F1FF08BD826810B50AB9A9
:1068D00001F035FABDE81040C368184708B50068F4
:1068E00000F11001FFF7F1FF08BD000038B50023EB
:1068F0000446036010200D46FDF7CDFB28B10123AF
:10690000C0E90133024B0360C5602060204638BDFA
:10691000BC940D0038B5002383608B6804460D4697
:106920002BB102229847EB68E360AB68A360204676
:1069300038BD0000F0B589B004686846FFF726FF4F
:106940004FF00203D4E84F2F002A03D1C4E8413F9F
:106950000029F7D125D104F10C0569462846FFF737
:1069600015FFBFF35B8F01236370002004F1080360
:10697000BFF35B8F53E8006F43E80002002AF9D1B0
:10698000BFF35B8F6EB1FFF7FBFC78B12946304651
:10699000FFF78BFF3046FDF735FC1021304601F044
:1069A000C8F96846FFF7FFFE09B0F0BD314602A8FE
:1069B000FFF7B0FFE068B4F9105008B102F00CFA2C
:1069C00006901020ADF81C50FDF765FB0546E8B1B8
:1069D000002787601820FDF75EFB044688B101465A
:1069E000876002A8FFF74FFF049BA268A360059B86
:1069F000049206A9E268E36004F110000592FFF733
:106A0000C5FE084BEB60084B2C60AB6006A8FFF797
:106A1000CAFE02A8FDF7F6FB002229460348FFF74D
:106A2000B7FCB7E7BD680D00556B0D0033660D0070
:106A30002DE9F0478AB005469DF848900C46174668
:106A40009846FFF7F3FC07AE824638BB4FF62E732D
:106A5000059005A93046ADF81830FFF797FE1420D1
:106A6000FDF719FB044648B1022303700123C0E976
:106A700001AA437031460C30FFF788FE28462146B4
:106A800040F8044BFFF732FF3046FFF78CFE05A8B5
:106A9000FFF789FE28460AB0BDE8F0870C234FF0C7
:106AA000000A1420CDE908AA0793FDF7F4FA01467D
:106AB00028B1C0E901AA80F800A080F801A004A8CC
:106AC0000391FFF713FF224B08930820FDF7E3FA29
:106AD000824628B1039B40F8043B04A9FFF7D5FD8B
:106AE00000965FFA89F3424639462046CDF824A045
:106AF000FFF7ACFCB8B9039B5B7803F0FF0293B9D6
:106B00004FF69C7305A903A80592ADF81830FFF75E
:106B100011FF05A8FFF747FE05A80999FFF794FEA6
:106B200006A8FFF7B9FD039B059304A906A8FFF784
:106B3000ACFD059B069A2B606A60002306A80693AD
:106B40000593FFF7A9FD04A8FFF7A6FDA2E700BF84
:106B5000196C0D00022AF8B5054607D0032A18D093
:106B6000012A01D10B6803600020F8BD18200E68CF
:106B7000FDF791FA044650B13146FFF7CBFE30697C
:106B8000B6F9147008B102F027F92061A7822C60D1
:106B9000EAE70468002CE7D004F11000FFF703FED9
:106BA0002046FDF72FFB1821204601F0C2F8DBE755
:106BB00038B5002383608B6804460D462BB1022252
:106BC0009847EB68E360AB68A360204638BD022AB3
:106BD00070B5044607D0032A12D0012A01D10B68F0
:106BE0000360002070BD14200E68FDF754FA0546BE
:106BF00020B13146FFF7DCFF337C2B742560F0E7D2
:106C00000468002CEDD02046FDF7FCFA1421204644
:106C100001F08FF8E5E70000F0B589B004460D46B5
:106C200001A81146FFF710FEA4B124B21DB12846F9
:106C300002F0D2F8054601A803A90395ADF810406B
:106C4000FFF778FE03A8FFF7AEFD02A8FFF724FDCB
:106C500009B0F0BD019D0123D5E84F2F002A03D1D3
:106C6000C5E8413F0029F7D1EFD12B73BFF35B8F0C
:106C70006B702B1DBFF35B8F53E8006F43E800423E
:106C8000002AF9D1BFF35B8F002EDED02046FFF73C
:106C900077FB074660B105F10C013046FFF715FEA2
:106CA0003046FDF7AFFA1021304601F042F8CCE74C
:106CB000314603A8FFF77CFF2B7B8DF81C3010209A
:106CC000FDF7E9F90546D0B187601420FDF7E3F937
:106CD000044678B18760014603A8FFF7D4FD059B01
:106CE000A268A360069B0592E268E3609DF81C30F1
:106CF00006922374064BEB60064B2C60AB6003A836
:106D0000FDF780FA002229460348FFF741FBC7E759
:106D1000DD680D00CF6B0D0033660D00002240686A
:106D20001146FFF703BC002240681146FFF70EBC76
:106D300040680022FFF702BC4068002281F0010198
:106D4000FFF7ECBB002340681A461946FFF7DEBB8D
:106D5000002340681A461946FFF7D0BB002240685E
:106D60001146FFF7C3BB002240681146FFF7AEBBD8
:106D7000406800220221FFF7B1BB002340681A4699
:106D8000FFF79CBB024B03225A60024A1A6070470D
:106D90000CE60320D8940D007047F8B5064615465A
:106DA0000C468F18BC4206D0336814F8011B9B6850
:106DB00030469847F6E72846F8BD007C0022FFF7EA
:106DC000C7B9007C0021FFF7CBB9007C0021FFF799
:106DD000CFB9007C0021FFF7D3B9007C0021FFF779
:106DE000D7B910B51421044600F0A3FF204610BD0A
:106DF00010B54FF47A73044608460021C4E9011324
:106E0000034B236020741146FFF7D2F9204610BDD2
:106E10000C950D000023007C1A461946FFF780B937
:106E20007FB500221423CDE90122ADF804300B78A0
:106E30008DF808304B680393CB680493007C0B7A81
:106E4000059301A9FFF7CCF907B05DF804FB1FB566
:106E5000003B8DF800104FF06401039118BF01232F
:106E6000694601928DF80830FFF7DAFF05B05DF84A
:106E700004FB007C0022FFF75BB9C9B2FFF7F9BF42
:106E8000007C0022FFF75CB908B50021007CFFF709
:106E900097F9B0FA80F0400908BD08B50021007CE0
:106EA000FFF796F9B0FA80F0400908BD00470000EE
:106EB0002DE9FF4100241D460F4690460646FFF788
:106EC0001FF9A5424FF00403ADF80D408DF80C30CA
:106ED0008DF80F40A2BF9DF828308DF80E3003AC1E
:106EE0000749009443463A463046A8BF8DF80D50F6
:106EF000FFF7FEF8B0FA80F0400904B0BDE8F08179
:106F0000AD6E0D00704710B51821044600F011FF5A
:106F1000204610BDF0B5037D062B8DB00E4600F166
:106F200004074FF0000412D000F1080515F8011D08
:106F30000A22304600F033F9AF42044419D0002C45
:106F4000F4D02E21304600F027F90444EEE72F2339
:106F50006A4639460A208DF80040FFF749F968462D
:106F600001F057FF33680246DB68694630469847B0
:106F7000044620460DB0F0BD10B5054B0446112265
:106F800040F8043B002101F0E9FE204610BD00BF9F
:106F900034950D000346074A10B543F8042B01F160
:106FA000100251F8044B43F8044B9142F9D10A788E
:106FB0001A7010BD34950D0010B59DF8084044EAD4
:106FC000032343EA024242EA01610423416003755C
:106FD00010BD13B5CB7800938B784A780978FFF70A
:106FE000EBFF02B010BD0000014B024A1A6070476F
:106FF00014E6032040950D00002340681A46FFF771
:107000005DBA406800220221FFF768BA002240689A
:107010001146FFF75BBA002240681146FFF766BAD7
:10702000002340681A461946FFF768BA00234068F3
:107030001A461946FFF76ABA4068002281F001013A
:10704000FFF76CBA40680022FFF778BA0022406868
:107050001146FFF77BBA002240681146FFF766BA77
:107060002DE9F043002495B016460D460746FFF77C
:1070700083FF214618220EA8009401F06FFE4023E2
:10708000CDE90C3421466B460CAA3046FFF7C0F818
:107090000446002846D1024601216868FFF726FA17
:1070A0000221804622466868FFF720FA009E81464A
:1070B0002146002E36D0002934D17368022B03D02C
:1070C0000A2B0BD0F669F4E7B8F1000F04D0716910
:1070D00038460431FFF77DFF4146F3E7B9F1000F71
:1070E00001D14946EEE77469102201A801F036FE8D
:1070F00006238DF8143001AD04F108031834186824
:1071000059682A4603C20833A3421546F7D101A99C
:1071100006A807ADFFF73EFF0FCD3C1D0FC42B683F
:107120002370DEE70098FFF76BF8384615B0BDE82E
:10713000F0830000024B034A1A6000225A60704735
:1071400018E603204C950D00F8B506460D468F183D
:107150000024BD420CD0336815F8011B9B683046F3
:107160009847031E01DB1C44F3E7002C08BF1C46B4
:107170002046F8BD13B50446084659B1019101F007
:1071800048FE23680199DB680246204602B0BDE84C
:107190001040184702B010BD03689B68184730B50F
:1071A0008BB000238DF82430012A98BF0A2209AC45
:1071B0000D46B1FBF2F101FB125303F0FF03092B63
:1071C00094BF30333733DBB2AA4204F8013DEFD924
:1071D0002146FFF7CFFF0BB030BD10B50446FDF7D9
:1071E00011F8204610BD00000348044A044900235A
:1071F000836000F099BD00BF20E6032010E4032067
:10720000DB710D0010B5044608462170FFF708F841
:1072100000236360204610BD2DE9F04757EC106B4A
:1072200080460C4610EE100A00220023394601F079
:10723000DBFA28B107F100431F462D2304F8013B78
:1072400000234FF001090A22D9B2884503D902FB75
:1072500009F90133F8E7484600F0EAFF32463B46B9
:1072600001F050F806460F4601F084FB05468A46B9
:1072700001F012F802460B463046394600F08AFE0D
:10728000134B002201F0C4FA10B101354AF1000A93
:107290004A462846D317514601F054FB01231546B0
:1072A00021460A2200F0C3FBB8F1000F0DD02046A2
:1072B00001F0AFFD2E23211823540A22434628460D
:1072C0000131BDE8F04700F0B2BBBDE8F08700BF78
:1072D0000000E03F10B504460068FFF747F920467C
:1072E00010BD10B50446006808B1FFF73FF9002350
:1072F000C4E90133236010BD38B504460D4600686B
:107300000131FFF73BF910B1C4E90005012038BD98
:1073100010B50368044623B143688B4201D30120B2
:1073200010BD2046FFF7E8FF0028F9D0A368002B26
:10733000F5D122681370F2E737B50D461146019278
:107340000446FFF7E5FF019A28B92046FFF7C9FF79
:10735000204603B030BDA2602946206801F0D6FC6B
:107360002268A3680021D154F2E7002313B5C0E9D5
:10737000003304468360037341B10846019101F074
:1073800048FD019902462046FFF7D6FF204602B08D
:1073900010BD884210B5044605D00B682BB18A6831
:1073A0001946FFF7C9FF204610BDFFF79AFFFAE71D
:1073B00010B500230446C0E9003383600373FFF770
:1073C000E8FF204610BD13B5044659B108460191A7
:1073D00001F01FFD019902462046FFF7ADFF204650
:1073E00002B010BDFFF77DFFF9E710B504468AB083
:1073F00000230846C4E90033A360237301A9C0B287
:10740000FFF70AFF01A92046FFF7DDFF20460AB07B
:1074100010BD70B505460E4609B9002070BD6AB1B1
:10742000846814442146FFF773FF0028F5D02868CC
:10743000AB683146184401F0C7FCAC600120EDE7B1
:1074400013B5044629B92046FFF74BFF204602B08A
:1074500010BD0846019101F0DCFC0199024620466E
:10746000FFF7D7FF0028EED0F0E708B582683AB9F9
:1074700021B10878B0FA80F0400900E0012008BD91
:10748000006809B90078F5E701F094FCF2E707B568
:107490000B4600210246009101208C21FEF7A4FF3B
:1074A00003B05DF804FB01460020FFF7F0BF0020A9
:1074B000FFF7F9BF10B5094B094C022200201A60F2
:1074C000084B2060A080A071A360FEF741FF20461A
:1074D000054A0649BDE8104000F026BC3CE6032002
:1074E00030E603200000FFFF10E40320A3410D005D
:1074F0002DE9F041154ADFF86080D2E90032C0186A
:1075000042EB0101124AD2E90032C61841EB0207F0
:10751000D8E90023BB4208BFB2428CB013D003A904
:107520006846CDE90067FFF769F8089B094D03F24B
:107530006C7303AC08930FCC0FC50FCC0FC5C8E913
:10754000006723682B600CB0BDE8F08178E603206B
:1075500070E6032048E6032080E6032008B50020FB
:10756000FEF78CFF28B1FEF761FF80F00100C0B28A
:1075700008BD0120FCE71FB502460B466846002106
:10758000CDE90023CDE90211FEF78AFD024610B9CC
:107590000146FEF70DFF05B05DF804FB30B504466B
:1075A0001848D0E90010521840EB03031648D0E900
:1075B0000010521893B040EB0303CDE900232422BE
:1075C0000DEB0200002101F0C9FB002509A9684666
:1075D000FFF714F81622294603A8029501F0BEFB16
:1075E00002A909A801F048FB02A801F012FC12ABA5
:1075F000184402A900F8415C2046FFF7B6FE204679
:1076000013B030BD78E6032070E603202DE9F04F7B
:10761000A5B00746884614A811463F221D4601F032
:1076200000FC002314A88DF88F3001F0F2FB044613
:107630005DBB2A4903A801F0C7FB14AE002504F185
:10764000FF3BAB4536D9B14605F1010A19F8013BBC
:10765000252B17D173787A2B14D103A801F0D9FB0D
:1076600014AB044628181844ABEB0502B11C01F01A
:107670004DFB224603A9304601F048FB14A801F057
:10768000C8FB04464E465546D9E73C2195FBF1F32D
:10769000002BB8BF5B42B3FBF1F201FB1233009346
:1076A0000F4A4FF46163102103A895FBF3F3FEF733
:1076B00075FFC2E700212E2208A8079101F04EFBBA
:1076C000434614AA322107A8FEF790FF07A93846BF
:1076D000FFF74BFE384625B0BDE8F08F78950D00DA
:1076E0007A950D00F0B58DB0CDE90023129D0446CA
:1076F00015B9194B1D682DB1184B2846196801F0B2
:1077000059FB38B9DDE900232046FFF747FF204643
:107710000DB0F0BD124E0099124FD6E900325B1841
:10772000019941EB0202D7E900011B1841EB02026B
:10773000CDE900320021242203A801F00FFB03A9A8
:107740006846FEF75BFF32683B6803A91344204696
:107750002A46FFF75BFFDAE744E60320A4E30320B1
:1077600078E6032070E6032010B50020FEF780FCC9
:107770000446A0B9FEF7E4FD012810D12046FEF72B
:107780000FFE60B9FFF7EAFE10B9FEF747FEF9E712
:10779000FFF7E4FEBDE810400020FEF769BC20467C
:1077A00010BD1FB5FFF7E0FF10220021684601F071
:1077B000D5FA00216846FEF76BFC009805B05DF82D
:1077C00004FB000008B5FFF7ECFFC117FFF790FEC0
:1077D000014B986808BD00BF48E6032008B5FFF7D5
:1077E000E0FFC117FFF784FE014B586908BD00BFD9
:1077F00048E60320024B1A68024B1A60704700BF2C
:10780000A4E3032044E6032070474174704708B5A1
:10781000007CFEF74DFD20EAE07008BD08B5007C55
:10782000FEF71EFD20EAE07008BD08B5007CFEF7FB
:1078300027FD40EAE07008BD08B5007CFEF718FDA2
:1078400040EAE07008BD007CFEF722BD37B5457CFC
:1078500004462DB1207C03B0BDE83040FEF7F8BCF3
:10786000007C0191FEF724FD00280199F2DC2846F6
:1078700003B030BD10B51421044600F05AFA20467A
:1078800010BD000010B54FF0000C0446084611462C
:107890004FF47A72C4E901C2044A226001222074C2
:1078A00062741A46FEF7CCFC204610BDAC950D0064
:1078B00013B50E4C2178BFF35B8F11F0010112D18B
:1078C00020460191FCF7F8FB019960B1084A094B89
:1078D0000948FFF7D7FF2046FCF7F3FB074A0849A2
:1078E000054800F021FA044802B010BD88E60320E4
:1078F0008CE6032010E7032094E7032010E4032024
:1079000009780D0041747047704708B50021007C6C
:10791000FEF7EEFC40EAE07008BD08B50121007CEE
:10792000FEF7E6FC40EAE07008BD08B5007CFEF713
:10793000D7FC20EAE07008BD08B5007CFEF7C8FC63
:1079400020EAE07008BD13B50446007C0191FEF703
:10795000C7FC0028019901DC607C20B1207CFEF787
:10796000CFFC20EAE07002B010BD007CFEF7D0BC76
:1079700010B51421044600F0DCF9204610BD0000CB
:1079800010B54FF47A73044608460021C4E9011388
:10799000044B23600123207463741146FEF790FCAE
:1079A000204610BDDC950D0010B5142204460021C0
:1079B00001F0D4F9204610BD10B5104C88B003A8D2
:1079C000FFF7F2FF2178BFF35B8F11F0010111D1B6
:1079D00020460191FCF770FB019958B103AA0848B1
:1079E000FFF7CEFF2046FCF76CFB064A0649044829
:1079F00000F09AF9024808B010BD00BFA8E70320C4
:107A0000ACE7032010E4032009790D0010B504460B
:107A100001F0FFF9013823182046834206D9027885
:107A2000197800F8011B03F80129F6E710BD70B5BD
:107A30000C46911E2229054622D820466DB1B5FB81
:107A4000F2F602FB1655E9B2092D94BF30315731D9
:107A5000C9B200F8011B3546F0E702462344302145
:107A6000934202D902F8011BFAE71A1A834238BF7F
:107A70000022002383542046FFF7C8FF204670BD34
:107A80000020FCE7014B1860704700BFACE3032007
:107A900008B50B4B43B1FFF78FFF03681B6998478D
:107AA000002801DDAFF30080064B43B1FFF700FF74
:107AB00003681B699847002801DDAFF3008008BD0B
:107AC000000000000000000008B5FFF7E1FFFEF72E
:107AD000C7FA014B186008BDD4E703200248034AE7
:107AE0000349121A01F012B900F4032004FC032028
:107AF000A8970D0007B5002300931A466FF0770191
:107B0000FEF768FC03B05DF804FB000007B543888E
:107B10000A2B08D0502B0BD1094B1B684BB103B07B
:107B20005DF804EB1847FFF7E5FF03B05DF804FBD1
:107B3000002300931A466FF07701FEF74BFCF4E741
:107B4000C4E7032038B5124C1248134D0021FEF74C
:107B500045FD2368AB42114B0CBF012200221A7075
:107B600002D0FFF7BBFF2560FEF762FA044601F082
:107B7000FDF80B4B13B12046AFF3008000210848FD
:107B8000FEF794FCBDE8384006480021FEF718BC1B
:107B900000FC0320857A0D001E1C279AC0E70320F5
:107BA000000000000D7B0D00232813B502D9002032
:107BB00002B010BDA0F10B03022B1AD8174C21788C
:107BC000BFF35B8F11F001010BD120460191FCF74F
:107BD00073FA019928B11248FFF714FB2046FCF70D
:107BE00070FA0F4B1878FEF723FB0028DFD1012035
:107BF000DEE7012809D800F06FF80021007CFEF7CD
:107C0000CFFA80F00100C0B2D2E709380128EED8DF
:107C1000FFF74EFE007CFEF743FBF2E7C8E70320C8
:107C2000CCE70320232838B504460D460AD8FF299F
:107C300008D0FFF7B9FF28B129462046BDE83840F3
:107C4000FEF73EBA38BD38B504460D46FEF740FA99
:107C5000FF2810D0062804D84D2323FA00F0C307CC
:107C600009D42046FFF7A0FF28B129462046BDE8E9
:107C70003840FEF735BA38BD0D2810B504469CBF14
:107C80000E34A4B22046FFF78FFF50B103212046E7
:107C9000FEF70EFA032804D12046BDE81040FEF797
:107CA00037BA002010BD000038B5002320254380DE
:107CB000142304460380856005610649284600F0C8
:107CC0003CF804496060284600F037F8E060204640
:107CD00038BD00BF04960D0030B50F4D2978BFF3B5
:107CE0005B8F11F0010487B013D12846FCF7E4F94B
:107CF00078B101A8FFF7D8FF01AA21460748FFF78E
:107D000077F82846FCF7DDF9054A0649034800F0F4
:107D10000BF8024807B030BDD8E70320DCE70320AA
:107D200010E40320996D0D000B460146184600F043
:107D3000CDBFFCF7B4B9FCF7AEB9FCF7AEB908B5E6
:107D4000FEF734FC2DE9F0432DED028B8BB055ECA2
:107D5000104B00F055F8284BB0EE408AF0EE608AE8
:107D600093F900707B1C12D022462B4620462946F0
:107D700000F062FD064650B94FF000084FF00009D0
:107D80002046294642464B4600F02EFD40B9B0EE53
:107D9000480AF0EE680A0BB0BDEC028BBDE8F08338
:107DA000164B08960122CDE90445CDE90245009223
:107DB000019397B142464B464046494600F0CCFB02
:107DC000022FCDE906010AD1FEF700FC2123036052
:107DD000089B63B99DED068BD9E7CDE90689684616
:107DE00000F0D2F80028EFD0089B002BF2D0FEF76D
:107DF000EDFB089B0360EDE7A8E3032008960D0068
:107E00002DE9F0415F4A57EC106BBA4300F09880BF
:107E1000002F10EE104A3B464EDD39155BD0C3F300
:107E20001303CA0743F48013A1F2FF3E03D45B009F
:107E300003EBD4736400E20F4FF0000C02EB43033A
:107E40004FEA6E0E6400664616254FF40012B11814
:107E5000994202DC5B1A8E1894445B00013D03EBEF
:107E6000D4734FEA52024FEA4404F0D12F46202047
:107E70004FF0004209E03ED0E10F01384FEA5202D4
:107E800001EB43034FEA44043ED0B34202EB050149
:107E9000F1DD002901EB020509DBB0469B1BA14285
:107EA00088BF03F1FF33641A17444646E4E7002D08
:107EB000F3DB06F10108F1E727F00042324336D048
:107EC000002F4DD13946E20A153964051346002AC0
:107ED000F9D0D70251D400205B00DE02054600F144
:107EE0000100F9D51A4623468440C0F12000C34062
:107EF0001343491B93E7A142BED8002901EB0205B9
:107F0000D5DB98460023CEE7234312D178084FEA09
:107F10006C0101F17F511CF0010F01F5001118BF38
:107F200040F0004001EB0E53024643EC102BBDE83D
:107F3000F0817B1C16BF781C0CF1010C4008E6E7B1
:107F400010EE102A10EE100A3B46394600F0DAF91E
:107F500032463B4600F020F841EC100BBDE8F081C2
:107F600010EE102A3046394600F014F802460B464F
:107F700000F0F2FA41EC100BD9E7234620204FF035
:107F8000FF35B4E70000F07F0020704781F000412A
:107F900002E000BF83F0004330B54FEA41044FEAEE
:107FA000430594EA050F08BF90EA020F1FBF54EA89
:107FB000000C55EA020C7FEA645C7FEA655C00F025
:107FC000E2804FEA5454D4EB5555B8BF6D420CDDF6
:107FD0002C4480EA020281EA030382EA000083EA79
:107FE000010180EA020281EA0303362D88BF30BD19
:107FF00011F0004F4FEA01314FF4801C4CEA11316F
:1080000002D0404261EB410113F0004F4FEA0333CD
:108010004CEA133302D0524263EB430394EA050F58
:1080200000F0A780A4F10104D5F1200E0DDB02FAC7
:108030000EFC22FA05F2801841F1000103FA0EF25B
:10804000801843FA05F359410EE0A5F120050EF121
:10805000200E012A03FA0EFC28BF4CF0020C43FA52
:1080600005F3C01851EBE37101F0004507D54FF05F
:10807000000EDCF1000C7EEB00006EEB0101B1F5AF
:10808000801F1BD3B1F5001F0CD349085FEA3000F5
:108090004FEA3C0C04F101044FEA445212F5800F00
:1080A00080F09A80BCF1004F08BF5FEA500C50F19D
:1080B000000041EB045141EA050130BD5FEA4C0C80
:1080C000404141EB0101013C28BFB1F5801FE9D2DD
:1080D00091F0000F04BF01460020B1FA81F308BF00
:1080E0002033A3F10B03B3F120020CDA0C3208DDCC
:1080F00002F1140CC2F10C0201FA0CF021FA02F1A7
:108100000CE002F11402D8BFC2F1200C01FA02F116
:1081100020FA0CFCDCBF41EA0C019040E41AA2BF3B
:1081200001EB0451294330BD6FEA04041F3C1CDA03
:108130000C340EDC04F11404C4F1200220FA04F023
:1081400001FA02F340EA030021FA04F345EA0301CD
:1081500030BDC4F10C04C4F1200220FA02F001FA8F
:1081600004F340EA0300294630BD21FA04F0294611
:1081700030BD94F0000F83F4801306BF81F48011AA
:108180000134013D4EE77FEA645C18BF7FEA655C1D
:1081900029D094EA050F08BF90EA020F05D054EAEF
:1081A000000C04BF1946104630BD91EA030F1EBFF4
:1081B0000021002030BD5FEA545C05D140004941F8
:1081C00028BF41F0004130BD14F580043CBF01F5EB
:1081D000801130BD01F0004545F0FE4141F47001D1
:1081E0004FF0000030BD7FEA645C1ABF19461046AC
:1081F0007FEA655C1CBF0B46024650EA013406BFAD
:1082000052EA033591EA030F41F4002130BD00BF6B
:1082100090F0000F04BF0021704730B54FF4806428
:1082200004F132044FF000054FF0000150E700BFA9
:1082300090F0000F04BF0021704730B54FF4806408
:1082400004F1320410F0004548BF40424FF00001F5
:108250003EE700BF42004FEAE2014FEA31014FEA38
:1082600002701FBF12F07F4393F07F4F81F0605187
:10827000704732F07F4208BF704793F07F4F04BFD2
:1082800041F40021704730B54FF4607401F00045AF
:1082900021F000411CE700BF50EA010208BF70470F
:1082A00030B54FF000050AE050EA010208BF704700
:1082B00030B511F0004502D5404261EB41014FF469
:1082C000806404F132045FEA915C3FF4D8AE4FF071
:1082D00003025FEADC0C18BF03325FEADC0C18BF54
:1082E000033202EBDC02C2F1200300FA03FC20FAA5
:1082F00002F001FA03FE40EA0E0021FA02F11444F2
:10830000BDE600BF70B54FF0FF0C4CF4E06C1CEA0A
:1083100011541DBF1CEA135594EA0C0F95EA0C0F7B
:1083200000F0DEF82C4481EA030621EA4C5123EAEE
:108330004C5350EA013518BF52EA033541F480111D
:1083400043F4801338D0A0FB02CE4FF00005E1FBD0
:1083500002E506F00042E0FB03E54FF00006E1FB1A
:1083600003569CF0000F18BF4EF0010EA4F1FF045D
:10837000B6F5007F64F5407404D25FEA4E0E6D419D
:1083800046EB060642EAC62141EA55514FEAC520AE
:1083900040EA5E504FEACE2EB4F1FD0C88BFBCF52A
:1083A000E06F1ED8BEF1004F08BF5FEA500E50F1DB
:1083B000000041EB045170BD06F0004646EA0101A1
:1083C00040EA020081EA0301B4EB5C04C2BFD4EBD3
:1083D0000C0541EA045170BD41F480114FF0000ECC
:1083E000013C00F3AB8014F1360FDEBF002001F03A
:1083F000004170BDC4F10004203C35DA0C341BDCB4
:1084000004F11404C4F1200500FA05F320FA04F085
:1084100001FA05F240EA020001F0004221F00041B9
:1084200010EBD37021FA04F642EB06015EEA430E2C
:1084300008BF20EAD37070BDC4F10C04C4F120055C
:1084400000FA04F320FA05F001FA04F240EA02000F
:1084500001F0004110EBD37041F100015EEA430EE0
:1084600008BF20EAD37070BDC4F1200500FA05F200
:108470004EEA020E20FA04F301FA05F243EA02037F
:1084800021FA04F001F0004121FA04F220EA02008E
:1084900000EBD3705EEA430E08BF20EAD37070BDD4
:1084A00094F0000F0FD101F00046400041EB0101B4
:1084B00011F4801F08BF013CF7D041EA060195F096
:1084C000000F18BF704703F00046520043EB030350
:1084D00013F4801F08BF013DF7D043EA060370473D
:1084E00094EA0C0F0CEA135518BF95EA0C0F0CD048
:1084F00050EA410618BF52EA4306D1D181EA03018E
:1085000001F000414FF0000070BD50EA410606BF87
:108510001046194652EA430619D094EA0C0F02D1CC
:1085200050EA013613D195EA0C0F05D152EA033611
:108530001CBF104619460AD181EA030101F000412F
:1085400041F0FE4141F470014FF0000070BD41F078
:10855000FE4141F4780170BD70B54FF0FF0C4CF452
:10856000E06C1CEA11541DBF1CEA135594EA0C0F71
:1085700095EA0C0F00F0A7F8A4EB050481EA030EBE
:1085800052EA03354FEA013100F088804FEA0333A5
:108590004FF0805545EA131343EA12634FEA022273
:1085A00045EA111545EA10654FEA00260EF0004134
:1085B0009D4208BF964244F1FD0404F5407402D286
:1085C0005B084FEA3202B61A65EB03055B084FEA17
:1085D00032024FF480104FF4002CB6EB020E75EB14
:1085E000030E22BFB61A754640EA0C005B084FEA3C
:1085F0003202B6EB020E75EB030E22BFB61A7546B9
:1086000040EA5C005B084FEA3202B6EB020E75EB03
:10861000030E22BFB61A754640EA9C005B084FEA7B
:108620003202B6EB020E75EB030E22BFB61A754688
:1086300040EADC0055EA060E18D04FEA051545EA77
:1086400016754FEA06164FEAC30343EA52734FEA20
:10865000C2025FEA1C1CC0D111F4801F0BD141EA99
:1086600000014FF000004FF0004CB6E711F4801FFE
:1086700004BF01430020B4F1FD0C88BFBCF5E06FDE
:108680003FF6AFAEB5EB030C04BFB6EB020C5FEAEE
:10869000500C50F1000041EB045170BD0EF0004E43
:1086A0004EEA113114EB5C04C2BFD4EB0C0541EA75
:1086B000045170BD41F480114FF0000E013C90E672
:1086C00045EA060E8DE60CEA135594EA0C0F08BF36
:1086D00095EA0C0F3FF43BAF94EA0C0F0AD150EA35
:1086E00001347FF434AF95EA0C0F7FF425AF1046C8
:1086F00019462CE795EA0C0F06D152EA03353FF4F0
:10870000FDAE1046194622E750EA410618BF52EA6C
:1087100043067FF4C5AE50EA41047FF40DAF52EA40
:1087200043057FF4EBAE12E74FF0FF3C06E000BFDD
:108730004FF0010C02E000BF4FF0010C4DF804CDEA
:108740004FEA410C7FEA6C5C4FEA430C18BF7FEAAA
:108750006C5C1BD001B050EA410C0CBF52EA430CD8
:1087600091EA030F02BF90EA020F0020704710F158
:10877000000F91EA030F58BF994208BF90422CBFE7
:10878000D8176FEAE37040F0010070474FEA410CE0
:108790007FEA6C5C02D150EA013C07D14FEA430CFE
:1087A0007FEA6C5CD6D152EA033CD3D05DF8040B6F
:1087B000704700BF8446104662468C4619466346A1
:1087C00000E000BF01B5FFF7B7FF002848BF10F178
:1087D000000F01BD4DF808EDFFF7F4FF0CBF0120BD
:1087E00000205DF808FB00BF4DF808EDFFF7EAFF39
:1087F00034BF012000205DF808FB00BF4DF808EDF4
:10880000FFF7E0FF94BF012000205DF808FB00BFE8
:108810004DF808EDFFF7CEFF94BF012000205DF872
:1088200008FB00BF4DF808EDFFF7C4FF34BF01207F
:1088300000205DF808FB00BF4FEA410C7FEA6C5C4A
:1088400002D150EA013C0AD14FEA430C7FEA6C5C4A
:1088500002D152EA033C02D14FF0000070474FF0C2
:10886000010070474A0011D212F5001211D20DD545
:108870006FF47873B3EB62520ED44FEAC12343F026
:10888000004343EA505323FA02F070474FF00000D0
:10889000704750EA013002D14FF0FF3070474FF07F
:1088A000000070474FEA4102B2F1E04324BFB3F544
:1088B000001CDCF1FE5C0DD901F0004C4FEAC00257
:1088C0004CEA5070B2F1004F40EB830008BF20F03B
:1088D0000100704711F0804F21D113F13872BCBFF5
:1088E00001F00040704741F480114FEA5252C2F14A
:1088F0001802C2F1200C10FA0CF320FA02F018BF93
:1089000040F001004FEAC1234FEAD32303FA0CFCE5
:1089100040EA0C0023FA02F34FEA4303CCE77FEA74
:10892000625307D150EA01331EBF4FF0FE4040F4BE
:108930004000704701F0004040F0FE4040F400006D
:10894000704700BF53B94AB9002908BF00281CBFAF
:108950004FF0FF314FF0FF3000F08CB9ADF1080C53
:108960006DE904CE00F024F8DDF804E0DDE902232F
:1089700004B07047D0B50C4B002206460F46FFF7F7
:10898000C1FCFFF76FFF0446FFF742FC074B0022D4
:10899000FFF7B8FC02460B4630463946FFF7FAFAB5
:1089A000FFF760FF2146D0BD0000F03D0000F04120
:1089B0002DE9F047089D04468C46002B40F083804B
:1089C0008A42174647D9B2FA82F242B1C2F1200078
:1089D00024FA00F09140974040EA010C94404FEA9D
:1089E0001748230CBCFBF8F61FFA87FE08FB16C1DC
:1089F00043EA014306FB0EF1994209D9FB1806F13F
:108A0000FF3080F01981994240F21681023E3B44CA
:108A10005B1AA4B2B3FBF8F008FB103344EA03443A
:108A200000FB0EFEA64509D93C1900F1FF3380F08A
:108A30000581A64540F2028102383C4440EA0640E6
:108A4000A4EB0E0400261DB1D4400023C5E9004369
:108A50003146BDE8F08702B9FFDEB2FA82F2002AA1
:108A600050D1CB1B4FEA174E1FFA87F80126B3FBF4
:108A7000FEFC210C0EFB1C3341EA034108FB0CF306
:108A80008B4207D979180CF1FF3002D28B4200F2E9
:108A9000E9808446C91AA3B2B1FBFEF00EFB1011A7
:108AA00043EA014408FB00F8A04507D93C1900F14E
:108AB000FF3302D2A04500F2D9801846A4EB080487
:108AC00040EA0C40BFE78B4209D9002D00F0B1808D
:108AD0000026C5E9000130463146BDE8F087B3FA0B
:108AE00083F6002E4AD18B4202D3824200F2B88034
:108AF000841A61EB030101208C46002DA8D0C5E942
:108B0000004CA5E7C2F1200320FA03F6974001FAD2
:108B100002F04FEA174ED9403043030CB1FBFEF68A
:108B20001FFA87F80EFB161143EA014306FB08F112
:108B3000994204FA02F409D9FB1806F1FF3C80F0CF
:108B40008D80994240F28A80023E3B445B1A81B29A
:108B5000B3FBFEF00EFB103341EA034100FB08F3C8
:108B60008B4207D9791800F1FF3C73D28B4271D93F
:108B700002383944CB1A40EA064678E7C6F1200CA1
:108B800003FA06F422FA0CF31C4320FA0CF701FA5C
:108B900006F34FEA144E21FA0CF11F433B0CB1FBD4
:108BA000FEF91FFA84F80EFB191143EA014109FB93
:108BB00008FA8A4502FA06F200FA06F308D96118A3
:108BC00009F1FF3048D28A4546D9A9F1020921446A
:108BD000A1EB0A01BFB2B1FBFEF00EFB101147EA98
:108BE000014700FB08F8B84507D9E71900F1FF3144
:108BF0002ED2B8452CD90238274440EA0940A7EBC9
:108C00000807A0FB02894F45C64649461AD317D02C
:108C10005DB1B3EB0E0267EB010707FA0CFCF24003
:108C20004CEA0202F740C5E9002700263146BDE8BC
:108C3000F0872E4628460BE70646E9E61846FDE68D
:108C40004345E5D2B8EB020E69EB04010138DFE7DA
:108C50000846D2E760468DE78146B9E7664675E784
:108C600030464AE7ACF1020C394413E702383C4481
:108C700024E700BF704700BF10B50C464169036987
:108C8000826986B001F26C710491016803914168B8
:108C9000029181680191C1680091074903EB430388
:108CA0000B44064902EB42020A4420460449FDF700
:108CB0006DFC204606B010BD42960D002D960D00AD
:108CC0000D960D000A22002100F038B910B5054CB0
:108CD00013462CB10A4601460220AFF3008010BDB6
:108CE0002046FCE70000000038B5074B1D68EB6B21
:108CF00004461BB92420FDF731FCE863E96B2046EC
:108D0000BDE83840FDF782BCACE303200A44914241
:108D100000F1FF3300D1704710B511F8014B03F893
:108D2000014F9142F9D110BD884210B501EB020408
:108D300002D98442234607D8431EA14208D011F825
:108D4000012B03F8012FF8E7024401468A4200D1C3
:108D500010BD13F8014D02F8014DF7E70244034638
:108D6000934200D1704703F8011BF9E738B50D4B6A
:108D70001D68AB6B04467BB91820FDF7EFFB0A4A70
:108D80000A4BA863C0E90023094B83600B2383814E
:108D900001220023C0E90423AB6B00221C615A614D
:108DA00038BD00BFACE303200E33CDAB34126DE60B
:108DB000ECDE050010F8012B11F8013B012A28BF59
:108DC0009A42F7D0D01A7047034611F8012B03F8E6
:108DD000012B002AF9D17047024B0146186800F0B8
:108DE00003B800BFACE3032037B5044608460D4680
:108DF00000F00FF8421C114620460192FDF7DEFB01
:108E0000044618B1019A2946FFF780FF204603B0B7
:108E100030BD034613F8012B002AFBD1181A013884
:108E2000704710B50139034632B111F8014F03F80C
:108E3000014B013A002CF7D11A440021934200D192
:108E400010BD03F8011BF9E72DE9F0473A4E8646BD
:108E50008C4660461CF8014BA55D15F00805F8D15D
:108E60002D2C33D19CF800404FF0010800F1020C8A
:108E7000002B5CD0102B0CD1302C0AD19CF80000B8
:108E800000F0DF0058284DD19CF8014010230CF170
:108E9000020C08F10047013F0026B7FBF3F930460A
:108EA00003FB197AA4F13005092D18D82C46A342EA
:108EB00024DD751C07D081451DD301D1A2451ADBE5
:108EC00000FB034001261CF8014BEBE72B2C08BFED
:108ED0009CF80040A84608BF00F1020CC8E7A4F1C6
:108EE0004105192D01D8373CE1E7A4F16105192DA1
:108EF00004D8573CDBE74FF0FF36E4E7731C06D19C
:108F00002223CEF80030384642B9BDE8F087B8F1E8
:108F1000000F00D04042002AF7D00EB10CF1FF3113
:108F20001160F2E73024002BB3D10823B1E7302CD5
:108F3000A4D00A23ADE700BF67960D0013460A468A
:108F4000014602480068FFF77FBF00BFACE3032083
:108F500021400D005D400D0085400D0089400D0051
:108F600000000000556E6B6E6F776E004E6F7420C0
:108F70004368617267696E67004368617267656420
:108F8000004469736368617267696E670046617562
:108F90006C74004469636F6E6E6563746564003160
:108FA000002A004E6F204461746100556269646F4D
:108FB000747320486F6F6B00526573706F6E7365CA
:108FC0002052656365697665640053746174650059
:108FD00053657420566572626F7365204D6F6465CA
:108FE000003000436C656172656420566572626F83
:108FF0007365204D6F64650053657420746F203372
:1090000072642050617274792053696D00536574E5
:1090100020746F205061727469636C652053696DB0
:10902000004B65657020416C69766520736574201E
:10903000746F20256920736563004B65657020415E
:109040006C697665004C6F6164696E672053797353
:1090500074656D2044656661756C74730050657449
:10906000746564005761746368646F67007B227382
:10907000656E736F724F6E65223A25342E31667DB0
:1090800000706F7765726D6F6E69746F72696E676D
:109090005F686F6F6B0046726F6D20257320746F71
:1090A000202573005374617465205472616E736976
:1090B00074696F6E0073656E736F725F6461746163
:1090C00000737061726B2F6465766963652F7365D9
:1090D0007373696F6E2F656E64004572726F7220D4
:1090E0005374617465202D205265736574002F6878
:1090F0006F6F6B2D726573706F6E73652F706F7706
:1091000065726D6F6E69746F72696E675F686F6F9D
:109110006B2F0052656C6561736500426174746504
:1091200072790042617474657279436F6E74657808
:1091300074004B65657020416C69766520536563EA
:10914000004D6561737572652D4E6F7700566572BF
:10915000626F73652D4D6F64650053746172747531
:1091600070000000000000000000000019420D0027
:109170006D420D000D410D000000000000000000D8
:1091800019410D002D410D00C9590D00555B0D0011
:10919000155B0D00F35A0D009B5C0D003B5B0D0051
:1091A000000000000000000041410D0055410D008D
:1091B000C14F0D0057500D00D9500D00648F0D00A8
:1091C0006C8F0D00708F0D00798F0D00818F0D0059
:1091D0008D8F0D00938F0D00537461727475702024
:1091E0005375636365737366756C0000000000005F
:1091F000000000000000000000000000000000006F
:10920000000000000000000000000000000000005E
:109210000000000000000000312E3030000000008F
:1092200002000000777269746544617461206661B0
:10923000696C656420647572696E6720657261731C
:1092400065206672616D416464723D2575000000A1
:109250000000000000000000E14E0D00E34E0D0094
:10926000C14F0D0057500D00D9500D00646576694F
:10927000636552656164206661696C65642073741E
:1092800061743D2564007365742054696D652066C2
:10929000726F6D20525443202573006465766963B4
:1092A000655772697465206661696C6564207374C2
:1092B00061743D25640073657420525443206672C6
:1092C0006F6D20636C6F756420257300636C6F7520
:1092D000642074696D65206E6F742076616C6964BA
:1092E00000646576696365577269746545455052D7
:1092F0004F4D206661696C656420737461743D250F
:1093000064006170702E7274630000000000000041
:109310000000000099510D00AF510D0089510D0062
:109320008D510D00D9510D00C1540D00E1560D00B5
:1093300000000000000000009D510D00A1510D0033
:1093400000000000000000009B510D00BD510D0009
:1093500091510D0095510D00D9510D00FB540D0098
:1093600021590D0000000000000000009F510D0079
:10937000CB510D005075626C6973685175657565E8
:109380004173796E63007175657565696E672065F7
:1093900076656E744E616D653D2573206461746100
:1093A0003D25732074746C3D256420666C61677381
:1093B000313D256420666C616773323D25642073FE
:1093C000697A653D2564007075626C697368696EC1
:1093D000672025732025732074746C3D25642066F6
:1093E0006C6167733D2578007075626C69736865A0
:1093F00064207375636365737366756C6C79007054
:1094000075626C6973686564206661696C65642C5B
:109410002077696C6C20726574727920696E2025E2
:109420006C75206D73006170702E70756271000034
:10943000000000000000000000000000000000002C
:10944000C9590D00A5400D00A5400D00A5400D0017
:10945000A5400D00A5400D00000000000000000028
:10946000B15A0D00C55A0D00C9590D00555B0D00CC
:10947000155B0D00F35A0D009B5C0D003B5B0D006E
:10948000000000000000000037670D002D670D0090
:1094900023670D00D9660D0017670D000B670D00DF
:1094A000FF660D00F7660D00ED660D00E3660D002A
:1094B00061700D00000000000000000071670D00E9
:1094C00077670D00B5670D0085670D0073670D00A8
:1094D00000000000000000007B6D0D00716D0D00AC
:1094E000676D0D005D6D0D00516D0D00456D0D003A
:1094F000396D0D00316D0D00276D0D001D6D0D00D6
:1095000061700D000000000000000000996D0D006A
:10951000E36D0D00BB6D0D009B6D0D00C36D0D0067
:10952000CB6D0D00D36D0D00DB6D0D000000000054
:1095300000000000156F0D00056F0D00076F0D0096
:10954000617070000000000000000000F96F0D0065
:1095500003700D000D700D0017700D0021700D00CF
:109560002D700D0039700D0045700D004D700D000F
:1095700057700D0061700D005A00252B3033643A8E
:10958000253032750025592D256D2D25645425482B
:109590003A254D3A2553257A0061736374696D65E8
:1095A00000000000000000000000000009780D002D
:1095B00075780D004D780D0049710D001D780D0076
:1095C00039780D002B780D0047780D000B780D00D1
:1095D0000F780D00000000000000000009790D0068
:1095E00071790D0047790D0049710D0039790D0031
:1095F0000B790D001B790D006B790D002B790D0097
:1096000005790D00000000007371727400252E337F
:109610007320252E337325336420252E32643A259A
:109620002E32643A252E32642025640A0053756E6A
:109630004D6F6E547565576564546875467269530D
:1096400061744A616E4665624D61724170724D612E
:10965000794A756E4A756C4175675365704F6374CE
:109660004E6F76446563002020202020202020209B
:1096700028282828282020202020202020202020C2
:1096800020202020202020881010101010101010F2
:109690001010101010101004040404040404040436
:1096A00004101010101010104141414141410101BE
:1096B000010101010101010101010101010101019A
:1096C00001011010101010104242424242420202A8
:1096D000020202020202020202020202020202026A
:1096E0000202101010102000000000000000000016
:1096F000000000000000000000000000000000006A
:109700000000000000000000000000000000000059
:109710000000000000000000000000000000000049
:109720000000000000000000000000000000000039
:109730000000000000000000000000000000000029
:109740000000000000000000000000000000000019
:109750000000000000000000000000000000000009
:109760000000000000000000714C0D0051590D0078
:109770002D5F0D00B1660D0041670D00856D0D0078
:10978000E96F0D0035710D00E9710D00B5740D0024
:10979000F5770D0000000000000000000000000050
:0897A00010F2FF7F0100000040
:1097A80000000000000000000000000000000000B1
:1097B80000000000000000000000000000000000A1
:1097C8000000000000000000000000000000000091
:1097D8000000000000000000000000000000000081
:049FA80000000000B5
:109FAC001300000000005C43496E697469616C69C0
:109FBC007A650000000000000000000000000000B6
:109FCC0000004572726F720000000000000000007B
:109FDC0000000000000000000000000049646C65F7
:109FEC000000000000000000000000000000000065
:109FFC000000000000004D6561737572696E6700AA
:10A00C000000000000000000000000000000000044
:10A01C005265706F7274696E67000000000000007A
:10A02C0000000000000000000000526573706F6EAD
:10A03C007365205761697400000000000000000087
:10A04C000000000000000000000000000000000004
:10A05C0000000000000000000000000000000000F4
:10A06C0000000000000000000000000000000000E4
:10A07C00000000000000000099950D000100000098
:10A08C00B0E303200000000000000000000000000E
:10A09C0000000000000000000000000000000000B4
:10A0AC0000000000000000000000000000000000A4
:10A0BC000000000000000000000000000000000094
:10A0CC000000000000000000000000000000000084
:10A0DC000000000000000000000000000000000074
:04A0EC000000000070
:10A0F000FFFFFFFF00000102030405060708090A2D
:10A100000B0C0D0E0F101112131415161718191A27
:08A110001B1C1D1E1F2028006E
:04A11800785634122F
:04000003D0004020C9
:00000001FF
