:02000002D0002C
:1040000000400D00B8CC0D00000006000D000501B9
:084010000401DB0700000000C1
:04401800BCB20D0029
:1040200009480A49884208B505D0094A824202D0A7
:10403000121A05F0EFF90748074A0021121A05F095
:1040400011FA014808BD00BF80DB0320A4C90D00A0
:104050006CDE032070DE0320F8E7032070B5074E06
:10406000074C04F06BFAA41BA4080025A54200D15C
:1040700070BD56F8043B98470135F7E76CC10D0059
:1040800098C10D0001F094B808B500F07BFFBDE8C1
:10409000084004F015BA03F009B803F007B803F0BC
:1040A0000DB8000008B5034A00210C2002F0D8FE2C
:1040B000FEE700BF916B0D000078B0FA80F0400978
:1040C0007047012303707047014B01221A7070473B
:1040D000D5E5032003681847012A03D0022A03D03C
:1040E000002070470160FBE70B680360F8E7000001
:1040F00008B5044903F0DDFE18B1034B03221A7022
:10410000012008BD0BB30D00A1E5032070B5C2B0BE
:1041100000680A2201A906F0DBF8431E062B0446BC
:104120002BD80128164B174E08D11877164902A82C
:1041300005F0CEF93470204642B070BD02284FF031
:10414000010507D111495D7702A805F0C1F92C4698
:104150003570F0E7032802D10D499D77F4E7042874
:1041600002D10C49DD77EFE705280BBF0A490B495F
:1041700083F8205083F82150E6E70024DBE700BFF6
:10418000A4E50320D4E503200DB30D0020B30D00FA
:1041900033B30D0048B30D005CB30D0070B30D00D8
:1041A00030B5C3B000680A2201A906F091F8431E99
:1041B000062B04464FF0000328D80128144A154D59
:1041C00008D11549137702A805F082F92C70204612
:1041D00043B030BD022806D11049537702A805F03C
:1041E00077F90124F2E7032802D10D499377F5E727
:1041F000042802D10B49D377F0E705280BBF0A4901
:104200000A4982F8203082F82130E7E71C46DEE7D1
:10421000A4E50320D4E5032083B30D0097B30D007C
:10422000ABB30D00C1B30D00D6B30D00EBB30D0061
:10423000436913B183690C301847704710B5034BBD
:104240000360044602F0D6F9204610BD14BA0D00F2
:1042500010B50446FFF7F2FF2046382104F065FA56
:10426000204610BD10B5034B0360044601F0DAFB95
:10427000204610BD3CBA0D0010B50446FFF7F2FF12
:104280002046102104F051FA204610BD13B500213C
:104290000446084602F004FC0023204601A90193CD
:1042A00002F016FC019C0CB10123237100210120B6
:1042B00002F0F6FB2CB1236820469B689847002348
:1042C000237102B010BD10B50446006808B102F0B9
:1042D000F5FE204610BD00001FB5104B104A1B789C
:1042E0001278104913438DF8003000223C2302A8B5
:1042F00003F046F9039C7CB16368013B63605BB9E2
:10430000236820469B689847A368013BA3601BB9BC
:1043100023682046DB68984704B010BD60DF0320A7
:1043200061DF0320FFB30D0010B58368044613B1AD
:10433000032201469847204610BD000037B5134BB5
:10434000036004468068C8B100256FF00043CDE9E2
:10435000003502212B462A4602F0C2FBA0682946FE
:1043600002F0F6FB237903F0FF0513B102F090FB96
:10437000F8E7A068294602F0A3FBA56004F10C0051
:10438000FFF7D2FF204603B030BD00BF00BA0D00DA
:1043900010B50446FFF7D2FF20461C2104F0C5F9F2
:1043A000204610BD0246014802F0E5BF4B730D00E8
:1043B00007B508220023ADF800204FF47A710122DE
:1043C000019241436A461846ADF8023002F00EFEF3
:1043D00003B05DF804FB07B580680B46002140B1CF
:1043E000CDE900210A46032102F07AFBB0FA80F001
:1043F000400903B05DF804FB37B504689DF8185018
:104400008DF800308DF80450E4683C23A04703B0D9
:1044100030BD000010B50B7892B00C467BB919493D
:1044200002A805F055F800238DF80030164B174907
:104430001B78174802AAFFF7DFFF12B010BD08462D
:1044400004F0C3FFC8280ED1124902A805F040F8B5
:1044500003F0DFFE104B9861104B01221A70104BD5
:1044600000221A70DFE7204604F0AFFFC928EBD026
:10447000204604F0AAFF0B4A0346402102A802F09E
:1044800035FED0E701B40D0061DF032038B40D0024
:1044900008E4032009B40D00A4E50320D4E50320BB
:1044A00083DF03201BB40D0037B51C49054603F01C
:1044B00000FD044600B31A4C012360686370FFF7E7
:1044C00077FF636817484FF47A716FF000425943E1
:1044D000FFF781FF02F052FD48B100238DF8003054
:1044E000114B124A1B7812491248FFF785FF124BF5
:1044F0000120187003B030BD1049284603F0D9FCE4
:104500000028F7D0064B5C7002F038FD0028EED092
:10451000054B8DF800401B78094AE4E70BB30D000A
:10452000A4E50320E8E3032061DF032045B40D0088
:10453000D7B40D0008E40320D4E503205AB40D00DD
:104540005CB40D0010B5C4B000680A2203A905F0E0
:10455000BFFEB0F5966F22D8124C6060FFF728FFBF
:10456000636811484FF47A7159436FF00042FFF7C6
:1045700032FF63680D4A4FF4807104A802F0B6FD63
:1045800000238DF800300A4B0A491B780A4804AA18
:10459000FFF732FF094B0120187044B010BD002016
:1045A000FBE700BFA4E50320E8E3032070B40D009F
:1045B00061DF032089B40D0008E40320D4E5032063
:1045C00000B589B0039003F087FC0E4B0399BDEE54
:1045D000C00A04A883ED090A03F034FC00238DF817
:1045E0000030094B049A1B7808490948FFF704FF7B
:1045F00004A803F0B9FB074B0120187009B05DF85F
:1046000004FB00BFA4E5032061DF032094B40D0088
:1046100008E40320D4E5032037B51649054603F026
:1046200048FC044688B1144B144A15491548012426
:104630005C7200238DF80030134B1B78FFF7DCFE13
:10464000124B20461C7003B030BD1149284603F0C0
:1046500030FC0028F7D0084B0E4A5C720A4B8DF8EC
:1046600000401B7806490748FFF7C6FE074B0120AC
:104670001870E8E70BB30D00A4E50320B6B40D00F5
:10468000D7B40D0008E4032061DF0320D4E5032044
:104690005AB40D00C7B40D0000B5C5B000680A22B9
:1046A00003A905F015FE042819D80E4B0E4A83F80D
:1046B00028004FF48071034604A802F017FD002380
:1046C0008DF80030094B0A491B780A4804AAFFF705
:1046D00093FE094B0120187045B05DF804FB0020E3
:1046E000FAE700BFA4E50320DCB40D0061DF03207E
:1046F000D7B40D0008E40320D4E5032007B502F089
:104700003DFC48B100238DF800300D4B0D4A1B785D
:104710000D490E48FFF770FE0D4A0E48782353608E
:104720000023537293724FF41673012153623023A6
:10473000118082F8281003B05DF804EB01F02DBA67
:1047400061DF0320EEB40D00D7B40D0008E40320B0
:10475000A4E50320D8E3032010B5124C237A012BE3
:1047600004D902F00BFCD8B1012323726368B3F5BE
:10477000966F84BF4FF416736360637A012B84BF16
:1047800001236372A37A012B84BF0023A3726369A0
:10479000FF2B84BF00236361034B01221A7010BDFD
:1047A0002072E3E7A4E50320D4E5032007B5012147
:1047B000052003F044FF0021052003F040FF094AD3
:1047C00000231370084A527A42B18DF80030074B2B
:1047D000074A1B7807490848FFF70EFE03B05DF84B
:1047E00004FB00BFD5E50320A4E5032061DF03201F
:1047F00006B50D000DB50D0008E4032010B5524BB1
:10480000524C93F82830012BADF50C7D43D16069F3
:1048100004F01CFACDE90A01206904F017FACDE989
:104820000801E06804F012FACDE90601A06804F07E
:104830000DFACDE90401606804F008FACDE902013F
:10484000206804F003FACDE90001414A4FF40071F9
:104850000CA802F04BFC00238DF800303D4B3E4984
:104860001B783E480CAAFFF7C7FD2368A361636865
:10487000E361A3682362E36863622369A3626369F7
:10488000E362374B01221A7002F08AF9354B186047
:104890000DF50C7D10BD022B19D1D4E91C23CDE9F7
:1048A0000A23D4E91A23CDE90823D4E91823CDE952
:1048B0000623D4E91023CDE90423D4E90E23CDE95E
:1048C0000223D4E90C23CDE90023274ABEE7032BBA
:1048D0001CD1606904F0BAF9CDE90A01206904F03D
:1048E000B5F9CDE90801E06804F0B0F9D4E9102386
:1048F000CDE90423D4E90E23CDE90223D4E90C2326
:10490000CDE90601CDE90023184A9FE7042BA2D187
:10491000606904F09BF9CDE90A01206904F096F979
:10492000D4E92A23CDE90623D4E92823CDE90423B9
:10493000D4E92623CDE90223D4E92423CDE90801D3
:10494000CDE900230A4A81E7A4E5032060E40320BF
:1049500016B50D0061DF032022B70D0008E4032027
:1049600083DF0320D8E5032098B50D001CB60D00A9
:104970009FB60D0030B5114D114C12492A782078A0
:104980008DB01A2303FB0212009203FB00130E4AA0
:10499000282102A802F0AAFB2B78237002F0EEFA7D
:1049A00048B100238DF80030084B09491B780948AD
:1049B00002AAFFF721FD0DB030BD00BFA1E5032025
:1049C00004E40320C0DB032037B70D0061DF0320C0
:1049D00045B70D0008E4032030B50D4D0FCD89B06B
:1049E00001AC0FC495E807000A4B84E807001B7C64
:1049F000094808AA02EB8303102153F81C3C074A1C
:104A000002F074FB064B01221A7009B030BD00BFE2
:104A100050BA0D00A4E5032062DF03202CBB0D007B
:104A2000D4E5032013B51E4C1E48D4E90023102101
:104A3000CDE900231C4A02F059FBD4E902231021DE
:104A4000CDE9002319481A4A02F050FBD4E90423A7
:104A50001021CDE900231748174A02F047FBD4E99B
:104A600006231021CDE900231448154A02F03EFB2D
:104A7000D4E908231021CDE900231248124A02F09C
:104A800035FBD4E90A231021CDE900230F48104A51
:104A900002F02CFB0F4B01221A7002B010BD00BFB8
:104AA00090DB032061E5032056B70D0091E503205C
:104AB00064B70D0081E5032071B70D0051E50320B7
:104AC00081B70D0041E503209EB70D0071E503207D
:104AD000BBB70D0082DF032010B586B0044603F09B
:104AE000FBF910EE100A04F0B1F80C4BC3E9000119
:104AF000214602A803F0A6F900238DF80030084BE8
:104B0000029A1B7807490848FFF776FC02A803F0D1
:104B10002BF9FFF787FF012006B010BD90DB0320C3
:104B200061DF0320D7B70D0008E4032010B586B07D
:104B3000044603F0D1F910EE100A04F087F80C4B8C
:104B4000C3E90201214602A803F07CF900238DF895
:104B50000030084B029A1B7807490848FFF74CFCC5
:104B600002A803F001F9FFF75DFF012006B010BDB8
:104B700090DB032061DF0320F2B70D0008E403207F
:104B800010B586B0044603F0A7F910EE100A04F041
:104B90005DF80C4BC3E90401214602A803F052F969
:104BA00000238DF80030084B029A1B78074908480B
:104BB000FFF722FC02A803F0D7F8FFF733FF01202C
:104BC00006B010BD90DB032061DF03200DB80D009F
:104BD00008E4032010B586B0044603F07DF910EE1A
:104BE000100A04F033F80C4BC3E90601214602A871
:104BF00003F028F900238DF80030084B029A1B7847
:104C000007490848FFF7F8FB02A803F0ADF8FFF7E3
:104C100009FF012006B010BD90DB032061DF0320F7
:104C20002AB80D0008E4032010B586B0044603F04E
:104C300053F910EE100A04F009F80C4BC3E908010F
:104C4000214602A803F0FEF800238DF80030084B3F
:104C5000029A1B7807490848FFF7CEFB02A803F029
:104C600083F8FFF7DFFE012006B010BD90DB0320C4
:104C700061DF032046B80D0008E4032010B586B0BC
:104C8000044603F029F910EE100A03F0DFFF0C4B85
:104C9000C3E90A01214602A803F0D4F800238DF8E5
:104CA0000030084B029A1B7807490848FFF7A4FB1D
:104CB00002A803F059F8FFF7B5FE012006B010BDB9
:104CC00090DB032061DF032062B80D0008E40320BD
:104CD0002DE9F04F83B06C46A4EBC00402AFA546AB
:104CE00002AD4FF0000A4FF0000BAC46ECE802AB0F
:104CF0004FEAC0090238002824DADFF85CB0DFF898
:104D00005CA00C4690461E46A9444D451ED0D4E9F1
:104D100002018DE80300584694E80C0000F098FD6D
:104D2000A8EC020BA5EC020BDAE9002351EC100B06
:104D300003F0E4FF074B002204F00AF91034E6E820
:104D40000201E2E7ECE802AB0138D4E70437BD46E4
:104D5000BDE8F08F00408F4078DE032088DB032021
:104D600038B57C4C7C4D002384F8D830FFF734FEF6
:104D700095F8280001284AD12B7F4BB177484FF492
:104D8000B96100F0E5FD51EC100B04F087FA2060EA
:104D90006B7F4BB172484FF4B96100F0D9FD51EC13
:104DA000100B04F07BFA6060AB7F4BB16D484FF4A1
:104DB000B96100F0CDFD51EC100B04F06FFAA0606A
:104DC000EB7F4BB168484FF4B96100F0C1FD51EC85
:104DD000100B04F063FAE06095F820304BB16348A3
:104DE0004FF4B96100F0B4FD51EC100B04F056FA29
:104DF000206195F82130EBB15D484FF4B96100F0C6
:104E0000A7FD51EC100B04F049FA606112E0022892
:104E100040F08980574904F1480304F1300203202F
:104E2000FFF756FF544904F1780304F160020320B0
:104E3000FFF74EFFD4ED007A94ED067AF5EEC07AD6
:104E4000F1EE10FAD8BFF1EE677A37EEC77AF6EED8
:104E5000007AB4EEE77AF1EE10FA59DA94ED017ABD
:104E6000D4ED076AB5EEC07AF1EE10FAD8BFB1EE14
:104E7000477A37EE667AB4EEE77AF1EE10FA47DA5F
:104E800094ED027AD4ED086AB5EEC07AF1EE10FA2C
:104E9000D8BFB1EE477A37EE667AB4EEE77AF1EE34
:104EA00010FA35DA94ED037AD4ED096AB5EEC07ADA
:104EB000F1EE10FAD8BFB1EE477A37EE667AB4EE6B
:104EC000E77AF1EE10FA23DA94ED047AD4ED0A6A67
:104ED000B5EEC07AF1EE10FAD8BFB1EE477A37EEF0
:104EE000667AB4EEE77AF1EE10FA11DA94ED057A0B
:104EF000D4ED0B6AB5EEC07AF1EE10FAD8BFB1EE80
:104F0000477A37EE667AB4EEE77AF1EE10FA1FDBF5
:104F1000012584F8D85003F07CF9184BC4F8D00070
:104F20001D70284638BD032807D1124904F14803F3
:104F300004F13002FFF7CCFE42E704287FF47AAF99
:104F40000F4904F1B00304F19002FFF7C1FE43E7FB
:104F50000020E7E760E40320A4E5032088DF0320C6
:104F600040E00320F8E00320B0E1032068E20320E2
:104F700020E3032000DF032030DF032040E503208F
:104F8000C0DE032037B5744C2378013B052B17D8BE
:104F9000DFE803F0BD035B67418A704B5B7A2BB19E
:104FA0006F4B1B78022B01D0FFF7E4FC03F031F9C3
:104FB0000A2390FBF3F202FB13030BB905232370C2
:104FC000684801F0C7F9684B1B780BB1FFF7EEFB9F
:104FD000664C23783BB13023604A6548012100F0DC
:104FE000DCFD00232370634C23783BB1E023624A4D
:104FF0005F48A02100F0D1FD002323705F4C23788F
:105000003BB130235E4A5A48F02100F0C6FD002330
:10501000237003B030BD514D6A7A2AB1504B1B78D2
:10502000052B01D0FFF7A6FCFFF79AFE08B1042379
:10503000C5E703F0EEF86B6A90FBF3F202FB130393
:105040000BB90323BBE70223B9E7444B5B7A2BB1CF
:10505000434B1B78032B01D0FFF78CFCFFF780FE3E
:10506000E5E73E4B5B7A2BB13D4B1B78042B01D01F
:10507000FFF780FC01F082FF68B103F0DBF80C2839
:1050800005D101F07BFF10B1002001F097FFFFF781
:10509000B5FB062393E701F069FF0223237001F0BB
:1050A0007FFD384B18608BE72C4B5B7A2BB12C4B78
:1050B0001B78062B01D0FFF75DFC334B1B7843B9FF
:1050C00003F0A7F80A2390FBF3F202FB1303002B73
:1050D000B9D001F065FD2D4B1B68C01A4AF6C873A4
:1050E00098427FF66DAF01F05BFD264D284A28609F
:1050F00000238DF80030274B27491B782748FFF7FE
:105100007BF90123237001F04BFD286058E7144B15
:105110001B78012B01D0FFF72DFC01F041FD194B4D
:105120001B6803F5922303F578738342BFF448AFFD
:1051300001F024FF48B100238DF80030154B184AC8
:105140001B7818491548FFF757F94FF4FA6002F039
:1051500015F802F0E3FE33E7A1E50320A4E5032000
:1051600004E4032044E40320D5E50320D4E5032030
:10517000D8E3032040E5032060E4032082DF03201E
:1051800090DB032040E4032083DF0320D8E50320E5
:10519000C0BE0D0061DF03207DB80D0008E40320D0
:1051A00096B80D00AAB80D000023092201F0C6BE72
:1051B0002DE9F04700219AB0082003F02FFA0121D1
:1051C000052003F02BFAFFF7F1FA002300930122E8
:1051D0004FF0FF33B149082002F012FCB04B0AAA8D
:1051E00003F11005174618685968144603C40833BC
:1051F000AB422246F7D119889B78A3702D222180DB
:10520000A84DA94C00210DF13B00002604F02AF91D
:1052100002A82E7001F0BAFE02A906A802F012FE42
:10522000A24906A802F030FECDE90066A049006858
:105230003346324601F0BAFE06A802F095FD02A8F8
:1052400002F092FD9B499C483346042201F076FE11
:105250009A499B483346042201F070FE99499A48C6
:105260003346042201F06AFE33460222211D97488C
:1052700001F064FE0122A1183346954801F05EFE5C
:1052800094499548FFF790FF94499548FFF78CFFA4
:10529000944995483346092201F050FE93499448B9
:1052A0003346092201F04AFE3346092291499248C9
:1052B00001F044FE91499248FFF776FF33460222FF
:1052C00004F124018F4801F039FE94F82830069348
:1052D0000222334606A98C4801F030FE8B498C48E7
:1052E000FFF760F88B498C48FFF75CF88B498C48D6
:1052F000FFF758F88B497648FFF754F88A498B48EE
:10530000FFF750F88A498B48FFF74CF88A498B48D9
:10531000FFF748F88A498B48FFF744F88A498B48D9
:10532000FFF740F88A498B48FFF73CF88A498B48D9
:10533000FFF738F88A498B48FFF734F88A498B48D9
:10534000FFF730F88A498B48FFF72CF88A4800F0BD
:10535000FBFE3146884801F034F8884800F090FBA5
:105360000123864806AA314600F0CCFB9DF8183090
:105370000C2B60D0814800F08DFB814A7F480423CC
:10538000314600F00AFC01237C4806AA314600F0B1
:10539000B9FB9DF818300C2B4AD001232B704D4ED1
:1053A000FFF7DAF9774B7848197896ED000B00F0A3
:1053B000C3FA764B7648197896ED020B00F0BCFAEA
:1053C000744B7548197896ED040B00F0B5FA734BE1
:1053D0007348197896ED060B00F0AEFA714B7248DF
:1053E000197896ED080B00F0A7FA704B7048197801
:1053F00096ED0A0B00F0A0FA63788BB3002001F061
:10540000DFFB4FF0000A0646002001F0D9FBB0EBAD
:10541000060861EB0A09002347F22F524B4508BFEB
:1054200042450FD301F0AAFD60B901F097FDEBE70B
:10543000FFF764F9B3E73023224601214F4800F01B
:1054400061FBACE701F09AFD6068FEF7B1FF6368AD
:1054500058484FF47A716FF000425943FEF7BBFF92
:10546000FFF77EFC637A4BB100238DF80030524B7E
:1054700052491B7852483A46FEF7BEFF01F07EFDC6
:1054800010B901F06BFDF9E701F078FD2B780BB94D
:1054900002232B701AB0BDE8F08700BFC9400D0091
:1054A0006CBA0D00A1E50320A4E50320B0B80D00FF
:1054B00015440D00ACBA0D00D5B80D0072DF032005
:1054C000DDB80D0062DF0320E5B80D00F4B80D0073
:1054D0004CB40D0090DB032042B90D0098DB032093
:1054E00053B90D00A0DB032064B90D00A8DB032035
:1054F00077B90D00B0DB032089B90D00B8DB0320BC
:105500009BB90D0003B90D0016B90D00F1400D0057
:1055100025B90D0019460D0031B90D0045450D00A6
:1055200089B40D00A9440D00D94A0D003EB90D0003
:105530002D4B0D004FB90D00814B0D0060B90D00D2
:10554000D54B0D0073B90D00294C0D0085B90D0028
:105550007D4C0D0097B90D000D410D00A8B90D004F
:10556000A1410D00B6B90D0099460D00C5B90D0059
:10557000C1450D00D4B90D0044E40320D8E3032055
:10558000B4BA0D0080DB032088DF032081DB032019
:1055900040E0032082DB0320F8E0032083DB0320CC
:1055A000B0E1032084DB032068E2032085DB0320D5
:1055B00020E30320E8E3032061DF0320F0B90D00BE
:1055C00008E403202DE9F04F7E4B7F4C7F4FDFF83E
:1055D00074A201261E707E4B022200251A707D4B9C
:1055E000A36089B02560A580A571304601F050FC0C
:1055F0003A467949204603F093F82946304601F0AF
:1056000057FC3146042001F0ABFA03F061F8734C0B
:1056100001462B464FF40052204600F027FA704B0B
:1056200023603A466F49204603F07AF803F050F8B9
:105630006D4C0146204600F08FFC20466B4C6C49B7
:105640003A4603F06DF86B494FF40062204601F0D2
:10565000F9F8694B23603A466849204603F060F840
:10566000674B04930DF11008664C674B236098E874
:10567000030002AA04F10C0382E8030093E803008C
:1056800088E8030092E8030083E803005F4B63614E
:10569000A36907935E4B2571A560A3615D4A0695DA
:1056A0002346CDE900554FF47A7104F1080001F06A
:1056B000FFF94046FEF738FE3A465749204603F0C8
:1056C0002FF8564B564CDE614FF416721D845A6209
:1056D00083F82860002323606360A360E360236194
:1056E0006361A361E36123626362A362E3622946AB
:1056F000182204F1300003F0B5FE2946182204F107
:10570000480003F0AFFE2946182204F1600003F0C0
:10571000A9FE2946182204F1780003F0A3FE2946C9
:10572000202204F1900003F09DFE2946202204F17E
:10573000B00003F097FE3B4A3B493C4B91F800C058
:105740003B4993F800E03B4B0D78C3F800E092ED45
:10575000007BD2E90289D2E9046783ED027BC3E9C9
:105760000689C3E90A67C3F810C01D62324B9AF874
:1057700000A01C78314BC3F810A0D2E908ABC3E9F4
:1057800006ABDFF8C4A01C609AF800A0C3F820A004
:10579000D2E90601D2E90AABC3E90201C3E90AABC7
:1057A000274B83ED027BC3E90689C3E90A67C3E996
:1057B0000E01C3F800E0C3F810C01D621C6309B0FD
:1057C000BDE8F08F61DF0320B0DE032070DE032030
:1057D00060DF03200000FFFFC7420D00D8E3032075
:1057E0003CBA0D0065420D0044E4032008E40320A8
:1057F000E35C0D0000F4032014BA0D003D420D00DF
:10580000D9420D00E8E3032000BA0D00D9400D0095
:10581000D5400D008D420D003D430D00A4E5032051
:1058200060E4032090DB032081DB032080DB032086
:1058300082DB032000DF032083DB032030DF032033
:10584000C0DE032084DB032085DB03200000000092
:1058500082B02DE9F84F0AA981E80C00344BDFF83B
:10586000D4B00022C0E90423044640F27E654FF024
:10587000000ABDF8280002F0FBFED4E9048920608C
:1058800003F0D2F942464B4606460F4603F07EF837
:1058900052465B4603F032FA42464B4603F078F834
:1058A00002460B46C4E904233046394603F06EF83D
:1058B00002460B46C4E9022303F020FA02460B46D7
:1058C000C4E90623D4E9082303F062F8013D064643
:1058D0000F46C4E90867CCD1DDE90C0110A3D3E978
:1058E000002303F00BFA10A3D3E900238046894676
:1058F0003046394603F02CFB41EC100B02F01EFF42
:1059000000220023C4E9082351EC100B42464B4609
:1059100003F0F4F9BDE8F84F41EC100B02B070470A
:105920006666666666664A3F0000000000F89940B9
:105930000000A0400000503F034BC162002280EDF8
:105940000E0BC0E91C2370470000A04000000000BF
:105950002DE9F74FDFF8C8B00191044600254FF05C
:10596000000A019B9D422FD0A08D02F081FED4E958
:105970001C89E06403F058F942464B4606460F4640
:1059800003F004F852465B4603F0B8F942464B4632
:1059900002F0FEFF02460B46C4E91C23304639469E
:1059A00002F0F4FF02460B46C4E9182303F0A6F9FF
:1059B00002460B46C4E92423D4E9260102F0E8FF9D
:1059C0000135C4E92601CCE713A3D3E90023D4E9C8
:1059D0000E0103F093F9064628460F4603F014F92A
:1059E00002460B46D4E9260103F0B2FA41EC100B53
:1059F00002F0A4FE32463B4651EC100B03F07EF958
:105A000041EC100B00220023C4E90801C4E926235D
:105A100003B0BDE8F08F00BF6666666666664A3F03
:105A20000000503F704710B51021044602F07DFE83
:105A3000204610BD0368C9B29B6818470EB410B564
:105A40008DB00FAA016852F8044B03920023202066
:105A5000CDE90403CDE900421E2004AA01F008FAB2
:105A60000DB0BDE8104003B07047000030B5034DE5
:105A7000C0E90223C0E9005130BD00BFECBA0D00FF
:105A8000406801F06FBF10B50446006801F0ADFF3B
:105A9000204610BD2DE9F0418AB0044640680190CF
:105AA00001F09AFF1E22002102A8A76803F0DAFC89
:105AB0000026EFB123681E2FB84628BF4FF01E08FE
:105AC000DD6802AA434631462046A847054658B934
:105AD0000A480B493246FFF7B1FF01A8FFF7D3FF91
:105AE00028460AB0BDE8F081A7EB08074644E0E786
:105AF00001A8FFF7C8FF0125F2E700BF20E6032059
:105B0000B8BA0D002DE9F7430446406801900D46F0
:105B100016461F4601F060FFA7B1E168606841F0DA
:105B2000500101F052FF290A6068FFF783FF294600
:105B30006068FFF77FFF6068002101F049FF48B10E
:105B4000002400E0012401A8FFF79DFF204603B0D8
:105B5000BDE8F083202F217B6068B84628BF4FF056
:105B600020080123424641F0500101F018FF02F0E5
:105B7000AFFD03681B6998474045E1DB06EB080968
:105B800002F0A6FD03685B69984706F8010B4E45D5
:105B9000F6D14544A7EB0807BEE72DE9F74F0446C9
:105BA000406801900E4690461D4601F015FF4FF0EB
:105BB0000109B9F1000F2AD04DB3E168606841F0E6
:105BC000500101F002FF310A6068FFF733FF60689F
:105BD0003146FFF72FFFA5F11E0A4746A6EB080B3B
:105BE000606817F8011B0368013D9B68984755459D
:105BF0000BEB0706B84601D0002DF1D160680121FA
:105C000001F0E6FE0028D7D04FF00009D1E701A847
:105C1000FFF739FF484603B0BDE8F08F2DE9F043A8
:105C20008BB00E4615468046406801901C4601F038
:105C3000D3FEAE4229D2264425448CB11E2C2746E1
:105C4000D8F8003028BF1E27F61BD3F8089002AA08
:105C50003B4631464046ED1BC84748B9002400E0AA
:105C6000012401A8FFF70FFF20460BB0BDE8F08329
:105C7000D8F8003002AAD3F80C9029463B4640469B
:105C8000C8470028EAD0E41BD7E7E9D9002CE7D0C1
:105C9000D8F800301E2C274628BF1E27D3F80890BE
:105CA00002AA3B4631464046C8470028D6D0D8F81D
:105CB000003002AAD3F80C9029463B464046C8471C
:105CC0000028CBD03E443D44E41BDFE74020704732
:105CD0000020704780207047FF2070477047704752
:105CE0007047704710B51421044602F01EFD20468F
:105CF00010BD10B50821044602F017FD204610BD66
:105D000010B50821044602F010FD204610BD10B564
:105D10001C21044602F009FD204610BD2DE9FF417B
:105D20000368DB680446984710220146684603F082
:105D300099FB236820469B6898470025074628461C
:105D4000BD420ED27E1B2368102E28BF1026D3F82A
:105D500018806A46334629462046C04708B1354474
:105D6000EEE704B0BDE8F0814FF48073438140F268
:105D70000113C360002303827047000008B5064B7F
:105D80000360064B436040F20473038100234374B5
:105D9000FFF7EAFF08BD00BFCCBB0D000001020306
:105DA00003090A2200F00F0002FB0300704708B548
:105DB000807AFFF7F5FF00F5FA6008BDC07A00F0C1
:105DC0001F00FFF7EDBF007B00F03F00FFF7E8BFCB
:105DD00008B5817B4A060DD501F01F00FFF7E0FFF3
:105DE0008B0603D50C2800D00C3008BD0C2808BF4A
:105DF0000020FAE7BDE8084001F03F00FFF7D0BF00
:105E0000C07B00F07F00FFF7CBBF007C00F07F007D
:105E1000FFF7C6BF10B58AB024220446002101A8AE
:105E200003F020FB2046FFF7C2FFA0F26C70069043
:105E30002046FFF7C3FF013805902046FFF7C3FF58
:105E400004902046FFF7C4FF03902046FFF7D8FFD9
:105E500002902046FFF7D9FF019001A801F086F9D2
:105E60000AB010BD0A2190FBF1F292FBF1F301FBA5
:105E700013231B01DBB201FB12001843C0B27047B1
:105E8000642310B5044691FBF3F000FB1310FFF7F9
:105E9000E9FFA07210BD10B504460846FFF7E2FF07
:105EA000E07210BD10B504460846FFF7DBFF237B08
:105EB00023F03F031843207310BD10B50446481C5F
:105EC000FFF7D0FF637B23F007031843607310BD17
:105ED00010B504460846FFF7C5FFA07310BD10B506
:105EE00004460846FFF7BEFFE07310BD10B5044638
:105EF0000846FFF7B7FF237C23F07F031843207485
:105F000010BD37B504466846CDE9002303F070FAAA
:105F1000054641692046FFF7B3FF29692046013154
:105F2000FFF7B9FFE9682046FFF7BCFFA9692046E3
:105F3000FFF7C3FFA9682046FFF7CAFF696820463C
:105F4000FFF7CDFF29683B29A8BF3B212046FFF77B
:105F5000CDFF03B030BD0000054A0061C0E900215B
:105F6000044A8260044AC260044A80614261704708
:105F700000BC0D0000000103A8BB0D00DCBB0D0040
:105F80002DE9F84F04460F469046994600260A9B95
:105F90009E4231D26068394601F013FD08EB0601DC
:105FA0006068FFF747FD6068002101F011FD0546BC
:105FB000D0B90A9B60689A1B202A4FF0010328BFC2
:105FC0002022394601F0EBFC09EB060B05460BEBF2
:105FD000000ADA4506D0606803685B6998470BF8E9
:105FE000010BF6E72E44D2E7024604490448FFF7C6
:105FF00025FD2846BDE8F88F0025FAE700BB0D0017
:10600000DCE503202DE9F34101EB03081E4603689C
:106010009B6805460C461746984780450DD82034A6
:10602000686800963B46E2B26F21FFF7A9FFB0FA1D
:1060300080F0400902B0BDE8F0810020FAE72DE9C8
:10604000F34101EB03081E4603689B6804460D46B6
:106050001746984780450CD8606800963B46EAB2E0
:106060005721FFF78DFFB0FA80F0400902B0BDE87C
:10607000F0810020FAE77FB51E1E0CBF0723062320
:106080000093144602AB0A466F21FFF779FF0546DD
:10609000A8B99DF8083023749DF80930E3739DF882
:1060A0000A30A3739DF80B3063739DF80C30237393
:1060B0009DF80D30E3722EB99DF80E30A37228467C
:1060C00004B070BD02F0C2F8FFF7CCFEA072F6E794
:1060D0001FB501230A4600936F2103ABFFF750FF62
:1060E00020B99DF80C0005B05DF804FB0020FAE72C
:1060F00008B50321FFF7ECFFC0F3401008BD38B529
:1061000000230C460A4619460546FFF7B4FF30B98E
:10611000A37A23B12846BDE83840FFF7E9BF002045
:1061200038BD7FB5024601A8FFF728FE01A9104639
:10613000FFF7E5FF28B101A8FFF76CFE07B05DF897
:1061400004FB00200146F9E7D0B5044686B040685C
:1061500001F008FC02F040F8E8B9E37A9B071AD591
:106160002046FFF7DEFF06460F4656EA070312D029
:1061700001F039FF0A4B0B491B68009332463B463E
:1061800002A801F0E7FF0848029A0849FFF756FC09
:1061900002A801F0E9FD0123237206B0D0BD00BFC3
:1061A00090DC03204CE60320DCE503201ABB0D0045
:1061B0002DE9F84F0646884691469A4600250A9BE7
:1061C0009D4229D27068414601F0FBFB706809EBE3
:1061D0000501FFF72FFC0A9B5F1B1F2F28BF1F27FE
:1061E0000AEB050407EB040B706814F8011B026846
:1061F00092689047A345F7D17068012101F0E8FB50
:10620000044638B1024605490548FFF717FC204609
:10621000BDE8F88F3D44D2E70024F8E72FBB0D001E
:10622000DCE503202DE9F34101EB03081E4603687A
:106230009B6805460C461746984780450DD8203484
:10624000686800963B46E2B26F21FFF7B1FFB0FAF3
:1062500080F0400902B0BDE8F0810020FAE71FB5E8
:10626000137C8DF80830D37B8DF80930937B8DF843
:106270000A30537B8DF80B30137B8DF80C30D37ABA
:106280008DF80D30937A8DF80E30072300930A466F
:1062900002AB6F21FFF78CFF05B05DF804FB10B572
:1062A00088B0044603A80193FFF768FD019B03A88B
:1062B000FFF727FE9DF81C30A27A63F07F038DF86C
:1062C0001C309DF819306AB143F0080303AA00217D
:1062D00020468DF81930FFF7C2FFB0FA80F0400970
:1062E00008B010BD03F0F703F0E70000F0B587B089
:1062F000054601F071FF0446E8B101F08AFFC717B7
:10630000024606463B462846FFF7C9FF0C4B0D499F
:106310001B68009332463B46044602A801F01AFF70
:106320000948029A0949FFF789FB02A801F01CFD00
:10633000204607B0F0BD06490348FFF77FFBF7E7AB
:1063400090DC03204CE60320DCE503204ABB0D0073
:1063500060BB0D0037B5457A04469DB901F03CFF9E
:1063600080B10022002369462846CDE9002300F0D1
:1063700035FE38B1E37ADB0702D52046FFF7B6FFDA
:106380000123637203B030BD1FB501238DF80C20CB
:1063900000930A4603AB6F21FFF70AFF05B05DF8D3
:1063A00004FBF8B504460D4617461E46FFF790FE5F
:1063B00000EA0702324329462046BDE8F840FFF7CD
:1063C000E3BF012908B50CD800294FF0000314BF22
:1063D000DF22EF220721FFF7E4FFB0FA80F0400947
:1063E00008BD0020FCE738B5044632256068572117
:1063F00001F0E7FA6068012101F0EAFA08B1013D15
:10640000F4D138BD2DE9F04104460F46164602EBA3
:106410000308B04520D06068572101F0D2FA394610
:106420006068FFF707FB606816F8011B03689B684C
:1064300098476068012101F0CBFA0137054638B171
:10644000024606490648FFF7F9FA2846BDE8F081FA
:106450002046FFF7C8FFDCE70025F6E775BB0D0017
:10646000DCE50320F7B5CF181E46036801929B6850
:1064700004460D46984787420AD8019A6068334619
:10648000E9B2FFF7BFFFB0FA80F0400903B0F0BDFA
:106490000020FBE7014B024A1A607047DCE503204D
:1064A00096BB0D00012A034602D10160002070470F
:1064B000022A04BFD1E90001C3E90001F6E710B5E3
:1064C000012303748368044643B1C06898470123DD
:1064D00063740020BDE8104000F032BB0068002863
:1064E000F5D083680BB902F026F9C368EEE710B463
:1064F00042680346541001EB6200D20748BF0A59B4
:106500001B685DF8044B48BFD35818470123F7B503
:1065100080F829300646083000F0EAFA0420FDF73A
:10652000BAFD054698B31B49142002F000F930B1BA
:106530000023C0E90033C0E90233037443742860C8
:10654000A0B1154B1549C0E902364FF40063CDE9FF
:1065500000030222124B043000F092FA30B92B688B
:106560001B7CA3B9012000F00BFBF8E72C6800238B
:106570002B6064B1276837B13846FDF7D5FE10218E
:10658000384602F0D2F81421204602F0CEF87560A9
:1065900003B0F0BD98BE0D00AB670D0008BC0D0048
:1065A000BF640D0047F23051084AC16008490260DB
:1065B0000022C0E904120749C16107494260C0E9ED
:1065C00008228161028580F82A207047CCBC0D002A
:1065D00015690D00EF640D00A5640D0010B5044BA6
:1065E000044640F8103BFDF79FFE204610BD00BF5B
:1065F000CCBC0D0010B5034B03600446FFF7EEFF63
:10660000204610BDF4BC0D0010B50446FFF7F2FFA4
:106610002046382102F089F8204610BD806800F03D
:106620006FBA806800F074BA10B504460068FFF7CE
:10663000F8FF204610BD13B504460190FFF7EEFFAA
:10664000E36ADC88A4B20CB103F1080401A8FFF7E7
:10665000EBFF204602B010BD13B504460190FFF7D2
:10666000DDFF94F8283043B9E26A0124D38001A801
:10667000FFF7DAFF204602B010BD0024F7E713B59C
:1066800004460190FFF7CAFFE36A01A8DC88FFF720
:10669000CBFF204602B010BD2DE9F047994686B0E9
:1066A00090F829309DF838A09DF83C8004460F46AC
:1066B000164613B903689B689847314B3846002E3D
:1066C00008BF1E4602F029FF0546304602F025FFAE
:1066D000284400F10A05AB071CBF25F0030504356B
:1066E0003346CDE90285CDE9009A264926483A4647
:1066F000FFF7A4F9238E083BAB4212D200242046B8
:1067000006B0BDE8F087CB88012B36D005A8FFF78F
:106710008BFF236894F828109B692046984700282F
:10672000ECD020460594FFF779FFE16A228E636B77
:106730000A44D21AAA42E6D348EA0A0883F8048037
:10674000C3F80090636B03F108083946404602F035
:10675000BFFE404602F0E1FE01303146404402F007
:10676000B7FE636BE26A1D446563D3880133D3804F
:10677000012405A8FFF758FFC1E70024F9E700BF8F
:10678000C0BE0D001ABC0D00E0E5032008B50446AC
:1067900000F11005A3690BB901F0CDFFE3692146B3
:1067A0002846984700F074F9F4E708B5FFF7EEFFC4
:1067B00068B501F108050646284602F0AEFE013034
:1067C0000544284602F0A9FEF36A01302844C31AA2
:1067D00013F003031CBFC3F10403C01868BDF7B571
:1067E00004460E460190FFF719FFE76AFB8807F1A0
:1067F0000805E6B1012B22D929462046FFF7D8FF2C
:10680000054629462046FFF7D3FF228E3A44121A46
:106810000146A0EB050602D0284602F009FE636B94
:106820009B1B6363FB88013BFB80012601E0002B7F
:10683000E7D101A8FFF7F8FE304603B0F0BD00260F
:10684000F7E700002DE9F0470D4604462F461646AF
:10685000FFF7A8FE154B57F8082B2360144BE56291
:106860009A422686984617D1AB889BB2B34213D181
:1068700005EB060A67634FF00009EB881FFA89F2FF
:106880009BB29A420ED2616B2046FFF791FF5045B2
:10689000606309F10109F0D90023C5F8008067633E
:1068A000AE80EB802046BDE8F08700BFF4BC0D0051
:1068B00061AB9CD110B5D1E9002386B0002104461C
:1068C00004910AB9D90705D5CDE902230F4B0593E9
:1068D0000F4B049302AB93E803006A4682E803007F
:1068E00094E8030083E8030092E80300049A84E834
:1068F0000300A168A260059A04911846E168E2606D
:106900000591FDF711FD204606B010BDEF640D00A6
:10691000A5640D0007B5054B0093694600231030B0
:106920000193FFF7C7FF03B05DF804FB5D690D003D
:1069300013B5044600F034F9636AC01AE36898425C
:1069400008D3054B00936946002304F1100001931E
:10695000FFF7B0FF02B010BD5D690D002DE9F041F9
:1069600090F82A3086B00446002B64D100F006FB74
:10697000002860D000F014F9636AC01A40F2F133C5
:10698000984258D9236820465B69984705460028F5
:1069900051D000F10807012384F82830384602F06E
:1069A000BCFD95F80480CDF8048001302B682B499C
:1069B00000933E1833462A483A46FFF73FF82B68C3
:1069C0008DF800803246394602A800F0D9FD029DBC
:1069D0006B781BB9012000F0D1FBF8E7002000F034
:1069E0006FFA20B16B7813B900F0B8FAFAE72B7898
:1069F000012B23D11B491A48FFF720F823680021F7
:106A00009B6920469847002384F8283000F0C8F896
:106A10006062039C7CB16368013B63605BB923687F
:106A200020469B689847A368013BA3601BB9236875
:106A30002046DB68984706B0BDE8F081E2680A4965
:106A40000748FEF7FBFF094B049304A9002304F158
:106A500010000593FFF72EFFD5E700BF5BBC0D00CC
:106A6000E0E503207CBC0D0093BC0D0031690D00F6
:106A7000014B024A1A607047E0E50320BABC0D00E2
:106A800008B5024B1B685B68019308BD4802030010
:106A900008B5024B1B68DB68019308BD4802030080
:106AA00008B5024B1B68DB69019308BD480203006F
:106AB00008B5024B1B681B6A019308BD480203001E
:106AC00008B5024B1B685B6A019308BD48020300CE
:106AD00008B5024B1B689B6A019308BD480203007E
:106AE00008B5024B1B68DB6A019308BD480203002E
:106AF00008B5024B1B681B6B019308BD48020300DD
:106B000008B5024B1B689B6B019308BD480203004C
:106B100008B5024B1B681B6C019308BD48020300BB
:106B200008B5024B1B685B6C019308BD480203006B
:106B300008B5024B1B689B6C019308BD480203001B
:106B400008B5024B1B68DB6E019308BD48020300C9
:106B500008B5024B1B681B6F019308BD4802030078
:106B600008B5024B1B685B6E019308BD340203003D
:106B700008B5024B1B685B68019308BD180203004F
:106B800008B5024B1B689B68019308BD18020300FF
:106B900008B5024B1B68DB68019308BD18020300AF
:106BA00008B5024B1B685B69019308BD180203001E
:106BB00008B5024B1B689B6D019308BD18020300CA
:106BC00008B5024B1B68DB6D019308BD180203007A
:106BD00008B5024B1B685B6E019308BD18020300E9
:106BE00008B5024B1B689B6E019308BD1802030099
:106BF00008B5024B1B685B68019308BD2C020300BB
:106C000008B5024B1B689B68019308BD2C0203006A
:106C100008B5024B1B68DB68019308BD2C0203001A
:106C200008B5024B1B681B69019308BD2C020300C9
:106C300008B5024B1B689B69019308BD2C02030039
:106C400008B5024B1B68DB69019308BD2C020300E9
:106C500008B5024B1B681B6B019308BD2C02030097
:106C600008B5024B1B68DB68019308BD28020300CE
:106C700008B5024B1B689B69019308BD28020300FD
:106C800008B5024B1B68DB69019308BD28020300AD
:106C900008B5024B1B681B6A019308BD280203005C
:106CA00008B5024B1B685B6A019308BD280203000C
:106CB00008B5024B1B689B6A019308BD28020300BC
:106CC00008B5024B1B68DB6A019308BD280203006C
:106CD00008B5024B1B681B6B019308BD280203001B
:106CE00008B5024B1B685B6B019308BD28020300CB
:106CF00008B5024B1B681B6C019308BD28020300FA
:106D000008B5024B1B689B6C019308BD2802030069
:106D100008B5024B1B68DB6C019308BD2802030019
:106D200008B5024B1B681B6D019308BD28020300C8
:106D300008B5024B1B685B69019308BD6402030040
:106D400008B5024B1B689B68019308BD68020300ED
:106D500008B5024B1B68DB68019308BD680203009D
:106D600008B5024B1B68DB69019308BD30020300C4
:106D700008B5024B1B681B6A019308BD3002030073
:106D800008B5024B1B681B68019308BD3C02030059
:106D900008B5024B1B68DB68019308BD3C02030089
:106DA00008B5024B1B681B69019308BD3C02030038
:106DB00008B5024B1B685B69019308BD3C020300E8
:106DC00008B5024B1B689B69019308BD3C02030098
:106DD00008B5024B1B68DB69019308BD3C02030048
:106DE00008B5024B1B681B6A019308BD3C020300F7
:106DF00008B5024B1B689B6A019308BD3C02030067
:106E000008B5024B1B681B68019308BD4C020300C8
:106E100008B5024B1B681B69019308BD4C020300B7
:106E200008B5024B1B685B69019308BD4C02030067
:106E300008B5024B1B689B69019308BD4C02030017
:106E400008B5024B1B68DB69019308BD4C020300C7
:106E500008B5024B1B681B6A019308BD4C02030076
:106E600008B5024B1B685B6B019308BD6002030011
:106E700008B5024B1B685B6D019308BD60020300FF
:106E800008B5024B1B681B68019308BD2002030074
:106E900008B5024B1B685B68019308BD2002030024
:106EA00008B5024B1B685B69019308BD2002030013
:106EB00008B5024B1B68DB6A019308BD2002030082
:106EC00008B5024B1B68DB6C019308BD2002030070
:106ED00008B5024B1B685B6D019308BD20020300DF
:106EE00008B5024B1B689B6D019308BD200203008F
:106EF00008B5024B1B68DB6D019308BD200203003F
:106F000008B5034B1B68D3F88830019308BD000017
:106F10002002030008B5034B1B68D3F8943001939B
:106F200008BD00002002030008B5034B1B68D3F81E
:106F3000B030019308BD00002002030008B5024BE9
:106F40001B681B68019308BD4402030008B5024B8F
:106F50001B685B68019308BD4402030008B5024B3F
:106F60001B689B68019308BD4402030008B5024BEF
:106F70001B68DB68019308BD4402030008B5024B9F
:106F80001B685B69019308BD4402030008B5024B0E
:106F90001B68DB69019308BD4402030008B5024B7E
:106FA0001B681B6A019308BD4402030008B5024B2D
:106FB0001B685B6A019308BD4402030008B5024BDD
:106FC0001B68DB6A019308BD4402030008B5024B4D
:106FD0001B681B6B019308BD4402030008B5024BFC
:106FE0001B685B6B019308BD4402030008B5024BAC
:106FF0001B689B6B019308BD4402030008B5024B5C
:107000001B68DB6B019308BD4402030008B5024B0B
:107010001B685B68019308BD4002030008B5024B82
:107020001B689B68019308BD4002030008B5024B32
:107030001B68DB68019308BD4002030008B5024BE2
:107040001B681B69019308BD4002030008B5024B91
:107050001B685B69019308BD4002030008B5024B41
:107060001B689B69019308BD4002030008B5024BF1
:107070001B68DB69019308BD4002030008B5024BA1
:107080001B681B6A019308BD4002030008B5024B50
:107090001B681B6B019308BD4002030008B5024B3F
:1070A0001B685B6B019308BD4002030008B5024BEF
:1070B0001B681B68019308BD1C02030008B5024B46
:1070C0001B685B68019308BD1C02030008B5024BF6
:1070D0001B689B68019308BD1C02030008B5024BA6
:1070E0001B681B69019308BD1C02030008B5024B15
:1070F0001B68DB69019308BD1C02030008B5024B45
:107100001B68DB6A019308BD1C02030008B5024B33
:107110001B681B6B019308BD1C02030008B5024BE2
:107120001B68DB6B019308BD1C02030008B5024B12
:107130001B685B6C019308BD1C02030008B5024B81
:107140001B689B6C019308BD1C02030008B5024B31
:107150001B68DB6C019308BD1C02030008B5024BE1
:107160001B681B6D019308BD1C02030008B5024B90
:107170001B685B6D019308BD1C0203000021FFF733
:107180008FBE10B5836804460BB901F0D4FAC3680A
:107190009847A3681BB10322214620469847204602
:1071A0001021BDE8104001F0C0BA10B503680446D4
:1071B0009B689847A368013BA3602BB923682046CE
:1071C000DB68BDE81040184710BD10B504460068E4
:1071D00008B1FFF7ADFC204610BD0B68036013B18A
:1071E0005A6801325A60704710B50446006828B1E9
:1071F0004368013B43600BB9FFF7D7FF204610BD42
:1072000010B5064C002320462360FFF789FC20467A
:10721000034A0449BDE8104001F082BAE4E50320C6
:1072200070DE0320CB710D00002240681146FFF78D
:1072300005BF002240681146FFF720BF00224068CA
:107240001146FFF72BBF40680022FFF71FBF4068C1
:10725000002281F00101FFF709BF002340681A46B0
:107260001946FFF7FBBE002340681A461946FFF790
:10727000EDBE002240681146FFF7D0BE40680022F4
:107280000221FFF7D3BE002340681A46FFF7BEBEB7
:10729000084B10B5282422461846002102F0E2F8D7
:1072A000054B04804FF0FF32426004225A60034ACB
:1072B0001A6010BDF0E50320E8E503201CBD0D00B9
:1072C00070470020704710B51021044601F02DFAD8
:1072D000204610BD08B5FFF7F6FF08BD30B5002207
:1072E0004FF69C74026084808D888C800C68858049
:1072F00004600A6030BD10B504460068FFF7DEFE8A
:10730000204610BD38B5C468F4B12378022B03D1F0
:1073100004F10C00FFF7EFFF656835B12846FDF773
:1073200003F81021284601F000FAA56835B1284677
:10733000FCF7FAFF1021284601F0F7F92046142146
:10734000BDE8384001F0F1B938BD10B588B0044649
:10735000684600F054FD694604A800F073FD04A8D7
:10736000A047044604A800F0FFFC684600F0FCFCBF
:10737000204608B010BD1FB50023CDE902010192DF
:1073800010241A4669461846ADF80230ADF80040A0
:10739000FFF7DCFD04B010BD73B50E46044656F889
:1073A000043B00930D4601A83146FFF716FF019AF2
:1073B000009B6260236001A8002301930093FFF704
:1073C00013FF3046FFF710FF2846082101F0ADF902
:1073D000204602B070BD13B50B460246D0E900014D
:1073E0006C4684E8030093E8030082E8030094E815
:1073F000030083E8030002B010BD826810B50AB92B
:1074000001F099F9BDE81040C368184708B5006855
:1074100000F11001FFF7F1FF08BD826810B50AB94D
:1074200001F089F9BDE81040C368184708B5006845
:1074300000F11001FFF7F1FF08BD000038B500238F
:107440000446036010200D46FCF725FE28B10123F9
:10745000C0E90133024B0360C5602060204638BD9F
:1074600050BD0D0038B5002383608B6804460D467F
:107470002BB102229847EB68E360AB68A36020461B
:1074800038BD0000F0B589B004686846FFF726FFF4
:107490004FF00203D4E84F2F002A03D1C4E8413F44
:1074A0000029F7D125D104F10C0569462846FFF7DC
:1074B00015FFBFF35B8F01236370002004F1080305
:1074C000BFF35B8F53E8006F43E80002002AF9D155
:1074D000BFF35B8F6EB1FFF7F3FC78B129463046FE
:1074E000FFF78BFF3046FCF71FFF1021304601F0FD
:1074F0001CF96846FFF7FFFE09B0F0BD314602A84F
:10750000FFF7B0FFE068B4F9105008B101F0E8FFF0
:1075100006901020ADF81C50FCF7BDFD0546E8B103
:10752000002787601820FCF7B6FD044688B10146A5
:10753000876002A8FFF74FFF049BA268A360059B2A
:10754000049206A9E268E36004F110000592FFF7D7
:10755000C5FE084BEB60084B2C60AB6006A8FFF73C
:10756000CAFE02A8FCF7E0FE002229460348FFF706
:10757000AFFCB7E70D740D00A5760D0083710D000B
:107580002DE9F0478AB005469DF848900C4617460D
:107590009846FFF7F3FC07AE824638BB4FF62E73D2
:1075A000059005A93046ADF81830FFF797FE142076
:1075B000FCF771FD044648B1022303700123C0E9C2
:1075C00001AA437031460C30FFF788FE2846214659
:1075D00040F8044BFFF732FF3046FFF78CFE05A85A
:1075E000FFF789FE28460AB0BDE8F0870C234FF06C
:1075F000000A1420CDE908AA0793FCF74CFD0146C8
:1076000028B1C0E901AA80F800A080F801A004A870
:107610000391FFF713FF224B08930820FCF73BFD73
:10762000824628B1039B40F8043B04A9FFF7D5FD2F
:1076300000965FFA89F3424639462046CDF824A0E9
:10764000FFF7ACFCB8B9039B5B7803F0FF0293B97A
:107650004FF69C7305A903A80592ADF81830FFF703
:1076600011FF05A8FFF747FE05A80999FFF794FE4B
:1076700006A8FFF7B9FD039B059304A906A8FFF729
:10768000ACFD059B069A2B606A60002306A8069352
:107690000593FFF7A9FD04A8FFF7A6FDA2E700BF29
:1076A00069770D00022AF8B5054607D0032A18D0DD
:1076B000012A01D10B6803600020F8BD18200E6874
:1076C000FCF7E9FC044650B13146FFF7CBFE3069C8
:1076D000B6F9147008B101F003FF2061A7822C6095
:1076E000EAE70468002CE7D004F11000FFF703FE7E
:1076F0002046FCF719FE1821204601F016F8DBE7BA
:1077000038B5002383608B6804460D462BB10222F6
:107710009847EB68E360AB68A360204638BD022A57
:1077200070B5044607D0032A12D0012A01D10B6894
:107730000360002070BD14200E68FCF7ACFC054609
:1077400020B13146FFF7DCFF337C2B742560F0E776
:107750000468002CEDD02046FCF7E6FD14212046FD
:1077600000F0E3FFE5E70000F0B589B004460D4600
:1077700001A81146FFF710FEA4B124B21DB128469E
:1077800001F0AEFE054601A803A90395ADF810402F
:10779000FFF778FE03A8FFF7AEFD02A8FFF724FD70
:1077A00009B0F0BD019D0123D5E84F2F002A03D178
:1077B000C5E8413F0029F7D1EFD12B73BFF35B8FB1
:1077C0006B702B1DBFF35B8F53E8006F43E80042E3
:1077D000002AF9D1BFF35B8F002EDED02046FFF7E1
:1077E0006FFB074660B105F10C013046FFF715FE4F
:1077F0003046FCF799FD1021304600F096FFCCE7AB
:10780000314603A8FFF77CFF2B7B8DF81C3010203E
:10781000FCF741FC0546D0B187601420FCF73BFC27
:10782000044678B18760014603A8FFF7D4FD059BA5
:10783000A268A360069B0592E268E3609DF81C3095
:1078400006922374064BEB60064B2C60AB6003A8DA
:10785000FCF76AFD002229460348FFF739FBC7E71A
:107860002D740D001F770D0083710D0000224068FC
:107870001146FFF703BC002240681146FFF70EBC1B
:1078800040680022FFF702BC4068002281F001013D
:10789000FFF7ECBB002340681A461946FFF7DEBB32
:1078A000002340681A461946FFF7D0BB0022406803
:1078B0001146FFF7C3BB002240681146FFF7AEBB7D
:1078C000406800220221FFF7B1BB002340681A463E
:1078D000FFF79CBB024B03225A60024A1A607047B2
:1078E00018E603206CBD0D007047F8B50646154636
:1078F0000C468F18BC4206D0336814F8011B9B68F5
:1079000030469847F6E72846F8BD007C0022FFF78E
:10791000BFB9007C0021FFF7C3B9007C0021FFF74D
:10792000C7B9007C0021FFF7CBB9007C0021FFF72D
:10793000CFB910B51421044600F0F7FE204610BD63
:1079400010B54FF47A73044608460021C4E90113C8
:10795000034B236020741146FFF7CAF9204610BD7F
:10796000A0BD0D000023007C1A461946FFF778B928
:107970007FB500221423CDE90122ADF804300B7845
:107980008DF808304B680393CB680493007C0B7A26
:10799000059301A9FFF7C4F907B05DF804FB1FB513
:1079A000003B8DF800104FF06401039118BF0123D4
:1079B000694601928DF80830FFF7DAFF05B05DF8EF
:1079C00004FB007C0022FFF753B9C9B2FFF7F9BFEF
:1079D000007C0022FFF754B908B50021007CFFF7B6
:1079E0008FF9B0FA80F0400908BD08B50021007C8D
:1079F000FFF78EF9B0FA80F0400908BD004700009B
:107A00002DE9FF4100241D460F4690460646FFF72C
:107A100017F9A5424FF00403ADF80D408DF80C3076
:107A20008DF80F40A2BF9DF828308DF80E3003ACC2
:107A30000749009443463A463046A8BF8DF80D509A
:107A4000FFF7F6F8B0FA80F0400904B0BDE8F08125
:107A5000FD790D00704710B51821044600F065FE51
:107A6000204610BDF0B5037D062B8DB00E4600F10B
:107A700004074FF0000412D000F1080515F8011DAD
:107A80000A22304600F033F9AF42044419D0002CEA
:107A9000F4D02E21304600F027F90444EEE72F23DE
:107AA0006A4639460A208DF80040FFF741F96846DA
:107AB00001F033FD33680246DB686946304698477B
:107AC000044620460DB0F0BD10B5054B044611220A
:107AD00040F8043B002101F0C5FC204610BD00BF6A
:107AE000C8BD0D000346074A10B543F8042B01F149
:107AF000100251F8044B43F8044B9142F9D10A7833
:107B00001A7010BDC8BD0D0010B59DF8084044EABC
:107B1000032343EA024242EA016104234160037500
:107B200010BD13B5CB7800938B784A780978FFF7AE
:107B3000EBFF02B010BD0000014B024A1A60704713
:107B400020E60320D4BD0D00002340681A46FFF74D
:107B50005DBA406800220221FFF768BA002240683F
:107B60001146FFF75BBA002240681146FFF766BA7C
:107B7000002340681A461946FFF768BA0023406898
:107B80001A461946FFF76ABA4068002281F00101DF
:107B9000FFF76CBA40680022FFF778BA002240680D
:107BA0001146FFF77BBA002240681146FFF766BA1C
:107BB0002DE9F043002495B016460D460746FFF721
:107BC00083FF214618220EA8009401F04BFC4023AD
:107BD000CDE90C3421466B460CAA3046FFF7B8F8C5
:107BE0000446002846D1024601216868FFF726FABC
:107BF0000221804622466868FFF720FA009E8146EF
:107C00002146002E36D0002934D17368022B03D0D0
:107C10000A2B0BD0F669F4E7B8F1000F04D07169B4
:107C200038460431FFF77DFF4146F3E7B9F1000F15
:107C300001D14946EEE77469102201A801F012FC57
:107C400006238DF8143001AD04F1080318341868C8
:107C500059682A4603C20833A3421546F7D101A941
:107C600006A807ADFFF73EFF0FCD3C1D0FC42B68E4
:107C70002370DEE70098FFF763F8384615B0BDE8DB
:107C8000F0830000024B034A1A6000225A607047DA
:107C900024E60320E0BD0D00F8B506460D468F181A
:107CA0000024BD420CD0336815F8011B9B68304698
:107CB0009847031E01DB1C44F3E7002C08BF1C4659
:107CC0002046F8BD13B50446084659B1019101F0AC
:107CD00024FC23680199DB680246204602B0BDE817
:107CE0001040184702B010BD03689B68184730B5B4
:107CF0008BB000238DF82430012A98BF0A2209ACEA
:107D00000D46B1FBF2F101FB125303F0FF03092B07
:107D100094BF30333733DBB2AA4204F8013DEFD9C8
:107D20002146FFF7CFFF0BB030BD10B50446FCF77E
:107D3000FBFA204610BD00000348044A0449002312
:107D4000836000F0EDBC00BF2CE6032070DE032052
:107D50002B7D0D0010B5044608462170FFF700F892
:107D600000236360204610BD10B504460068FFF78D
:107D7000A5F9204610BD10B50446006808B1FFF70C
:107D80009DF90023C4E90133236010BD38B50446D2
:107D90000D4600680131FFF799F910B1C4E90005FB
:107DA000012038BD10B50368044623B143688B42F7
:107DB00001D3012010BD2046FFF7E8FF0028F9D0CD
:107DC000A368002BF5D122681370F2E737B50D4692
:107DD000114601920446FFF7E5FF019A28B92046B3
:107DE000FFF7C9FF204603B030BDA26029462068D6
:107DF00001F010FB2268A3680021D154F2E70023B0
:107E000013B5C0E9003304468360037341B10846EB
:107E1000019101F082FB019902462046FFF7D6FF4F
:107E2000204602B010BD884210B5044605D00B684C
:107E30002BB18A681946FFF7C9FF204610BDFFF72E
:107E40009AFFFAE710B500230446C0E900338360C7
:107E50000373FFF7E8FF204610BD70B505460E46D8
:107E600009B9002070BD6AB1846814442146FFF747
:107E700099FF0028F5D02868AB683146184401F016
:107E800027FBAC600120EDE713B5044629B9204675
:107E9000FFF771FF204602B010BD0846019101F0C6
:107EA0003CFB019902462046FFF7D7FF0028EED0A1
:107EB000F0E708B582683AB921B10878B0FA80F0E5
:107EC000400900E0012008BD006809B90078F5E725
:107ED00001F0F4FAF2E7000008B5006840B101F0E3
:107EE00071FA51EC100B01F0D9F900EE100A08BD3F
:107EF0009FED010AFBE700BF0000000007B50B463D
:107F000000210246009101208C21FFF70DF803B0FB
:107F10005DF804FB01460020FFF7F0BF0020FFF7EB
:107F2000F9BF000010B5094B094C022200201A606D
:107F3000084B2060A080A071A360FEF7A9FF204637
:107F4000054A0649BDE8104000F0EABB48E60320B8
:107F50003CE603200000FFFF70DE0320C7420D0057
:107F60002DE9F041154ADFF86080D2E90032C018EF
:107F700042EB0101124AD2E90032C61841EB020776
:107F8000D8E90023BB4208BFB2428CB013D003A98A
:107F90006846CDE90067FFF7D9F8089B094D03F261
:107FA0006C7303AC08930FCC0FC50FCC0FC5C8E999
:107FB000006723682B600CB0BDE8F08180E60320E9
:107FC00078E6032054E6032088E6032008B5002065
:107FD000FEF7FCFF28B1FEF7D1FF80F00100C0B230
:107FE00008BD0120FCE71FB502460B46684600218C
:107FF000CDE90023CDE90211FEF7F2FD024610B9EA
:108000000146FEF775FF05B05DF804FB30B5044688
:108010001848D0E90010521840EB03031648D0E985
:108020000010521893B040EB0303CDE90023242243
:108030000DEB0200002101F015FA002509A96846A0
:10804000FFF784F81622294603A8029501F00AFAE0
:1080500002A909A801F090F902A801F05EFA12AB9A
:10806000184402A900F8415C2046FFF7C8FE2046EC
:1080700013B030BD80E6032078E603202DE9F04FF1
:10808000A5B00746884614A811463F221D4601F0B8
:108090005EFA002314A88DF88F3001F03EFA0446F2
:1080A0005DBB2A4903A801F013FA14AE002504F1C0
:1080B000FF3BAB4536D9B14605F1010A19F8013B42
:1080C000252B17D173787A2B14D103A801F025FA48
:1080D00014AB044628181844ABEB0502B11C01F0A0
:1080E00099F9224603A9304601F094F914A801F049
:1080F00014FA04464E465546D9E73C2195FBF1F368
:10810000002BB8BF5B42B3FBF1F201FB12330093CB
:108110000F4A4FF46163102103A895FBF3F3FEF7B8
:10812000E5FFC2E700212E2208A8079101F09AF985
:10813000434614AA322107A8FFF700F807A93846DA
:10814000FFF75DFE384625B0BDE8F08F0CBE0D0090
:108150000EBE0D00F0B58DB0CDE90023129D044692
:1081600015B9194B1D682DB1184B2846196801F037
:10817000A5F938B9DDE900232046FFF747FF20467F
:108180000DB0F0BD124E0099124FD6E900325B18C7
:10819000019941EB0202D7E900011B1841EB0202F1
:1081A000CDE900320021242203A801F05BF903A9E4
:1081B0006846FEF7CBFF32683B6803A913442046AC
:1081C0002A46FFF75BFFDAE750E6032090DC032046
:1081D00080E6032078E6032010B50020FEF7E8FCD7
:1081E0000446A0B9FEF74CFE012810D12046FEF748
:1081F00077FE60B9FFF7EAFE10B9FEF7AFFEF9E7C8
:10820000FFF7E4FEBDE810400020FEF7D1BC204699
:1082100010BD1FB5FFF7E0FF10220021684601F0F6
:1082200021F900216846FEF7D3FC009805B05DF8FF
:1082300004FB000008B5FFF7ECFFC117FFF790FE45
:10824000014B986808BD00BF54E6032008B5FFF74E
:10825000E0FFC117FFF784FE014B586908BD00BF5E
:1082600054E60320024B1A68024B1A60704700BFA5
:1082700090DC032050E6032070474174704708B536
:10828000007CFEF7B5FD20EAE07008BD08B5007C73
:10829000FEF786FD20EAE07008BD08B5007CFEF719
:1082A0008FFD40EAE07008BD08B5007CFEF780FD58
:1082B00040EAE07008BD007CFEF78ABD37B5457C1A
:1082C00004462DB1207C03B0BDE83040FEF760BD10
:1082D000007C0191FEF78CFD00280199F2DC284614
:1082E00003B030BD10B51421044600F01EFA20463C
:1082F00010BD000010B54FF0000C044608461146B2
:108300004FF47A72C4E901C2044A22600122207447
:1083100062741A46FEF734FD204610BD40BE0D00C3
:1083200013B50E4C2178BFF35B8F11F0010112D110
:1083300020460191FBF7C0FE019960B1084A094B44
:108340000948FFF7D7FF2046FBF7BBFE074A08495D
:10835000054800F0E5F9044802B010BD90E603209E
:1083600094E6032018E703209CE7032070DE032037
:1083700079820D0041747047704708B50021007C78
:10838000FEF756FD40EAE07008BD08B50121007C0B
:10839000FEF74EFD40EAE07008BD08B5007CFEF730
:1083A0003FFD20EAE07008BD08B5007CFEF730FD17
:1083B00020EAE07008BD13B50446007C0191FEF789
:1083C0002FFD0028019901DC607C20B1207CFEF7A4
:1083D00037FD20EAE07002B010BD007CFEF738BD2A
:1083E00010B51421044600F0A0F9204610BD00008D
:1083F00010B54FF47A73044608460021C4E901130E
:10840000044B23600123207463741146FEF7F8FCCB
:10841000204610BD70BE0D0010B514220446002188
:1084200001F020F8204610BD10B5104C88B003A80C
:10843000FFF7F2FF2178BFF35B8F11F0010111D13B
:1084400020460191FBF738FE019958B103AA08486C
:10845000FFF7CEFF2046FBF734FE064A06490448E4
:1084600000F05EF9024808B010BD00BFB0E703207D
:10847000B4E7032070DE032079830D00014B186000
:10848000704700BF98DC032008B50B4B43B1FFF7E2
:10849000CBFF03681B699847002801DDAFF300801C
:1084A000064B43B1FFF73CFF03681B699847002860
:1084B00001DDAFF3008008BD0000000000000000F7
:1084C00008B5FFF7E1FFFEF76BFB014B186008BD35
:1084D000DCE703200248034A0349121A00F09ABF5E
:1084E00000F4032004FC0320A0C10D0007B5002305
:1084F00000931A466FF07701FEF70CFD03B05DF8AC
:1085000004FB000007B543880A2B08D0502B0BD181
:10851000094B1B684BB103B05DF804EB1847FFF73C
:10852000E5FF03B05DF804FB002300931A466FF0EB
:108530007701FEF7EFFCF4E7CCE7032038B5124CE7
:108540001248134D0021FEF7F1FD2368AB42114B99
:108550000CBF012200221A7002D0FFF7BBFF25607A
:10856000FEF706FB044600F085FF0B4B13B12046D7
:10857000AFF3008000210848FEF740FDBDE8384019
:1085800006480021FEF7BCBC00FC03207D840D00E2
:108590001E1C279AC8E703200000000005850D0077
:1085A000232813B502D9002002B010BDA0F10B039F
:1085B000022B1AD8174C2178BFF35B8F11F0010101
:1085C0000BD120460191FBF777FD019928B11248A4
:1085D000FFF7C0FB2046FBF774FD0F4B1878FEF742
:1085E000C7FB0028DFD10120DEE7012809D800F011
:1085F0006FF80021007CFEF773FB80F00100C0B231
:10860000D2E709380128EED8FFF78AFE007CFEF792
:10861000E7FBF2E7D0E70320D4E70320232838B5AF
:1086200004460D460AD8FF2908D0FFF7B9FF28B144
:1086300029462046BDE83840FEF7E2BA38BD38B5D5
:1086400004460D46FEF7E4FAFF2810D0062804D8A9
:108650004D2323FA00F0C30709D42046FFF7A0FFFB
:1086600028B129462046BDE83840FEF7D9BA38BDC2
:108670000D2810B504469CBF0E34A4B22046FFF767
:108680008FFF50B103212046FEF7B2FA032804D130
:108690002046BDE81040FEF7DBBA002010BD000008
:1086A00038B50023202543801423044603808560C9
:1086B00005610649284600F03CF8044960602846F8
:1086C00000F037F8E060204638BD00BF98BE0D00CE
:1086D00030B50F4D2978BFF35B8F11F0010487B0DF
:1086E00013D12846FBF7E8FC78B101A8FFF7D8FFC3
:1086F00001AA21460748FFF723F92846FBF7E1FCCA
:10870000054A0649034800F00BF8024807B030BD9F
:10871000E0E70320E4E7032070DE0320E9780D00A2
:108720000B460146184600F055BEFBF7B8BCFBF7F8
:10873000B2BCFBF7B2BC08B5FEF7E0FC2DE9F04394
:108740002DED028B8BB055EC104B00F055F8284BFB
:10875000B0EE408AF0EE608A93F900707B1C12D074
:1087600022462B462046294600F062FD064650B9B7
:108770004FF000084FF000092046294642464B467C
:1087800000F02EFD40B9B0EE480AF0EE680A0BB0DA
:10879000BDEC028BBDE8F083164B08960122CDE9B3
:1087A0000445CDE902450092019397B142464B46FC
:1087B0004046494600F0CCFB022FCDE906010AD124
:1087C000FEF7ACFC21230360089B63B99DED068B8B
:1087D000D9E7CDE90689684600F0D2F80028EFD045
:1087E000089B002BF2D0FEF799FC089B0360EDE795
:1087F00094DC03209CBE0D002DE9F0415F4A57EC4C
:10880000106BBA4300F09880002F10EE104A3B46E0
:108810004EDD39155BD0C3F31303CA0743F480134D
:10882000A1F2FF3E03D45B0003EBD4736400E20FBC
:108830004FF0000C02EB43034FEA6E0E64006646F5
:1088400016254FF40012B118994202DC5B1A8E18FB
:1088500094445B00013D03EBD4734FEA52024FEAAC
:108860004404F0D12F4620204FF0004209E03ED0D2
:10887000E10F01384FEA520201EB43034FEA44048F
:108880003ED0B34202EB0501F1DD002901EB020508
:1088900009DBB0469B1BA14288BF03F1FF33641A7A
:1088A00017444646E4E7002DF3DB06F10108F1E743
:1088B00027F00042324336D0002F4DD13946E20A2C
:1088C000153964051346002AF9D0D70251D4002087
:1088D0005B00DE02054600F10100F9D51A46234689
:1088E0008440C0F12000C3401343491B93E7A142D9
:1088F000BED8002901EB0205D5DB98460023CEE760
:10890000234312D178084FEA6C0101F17F511CF02A
:10891000010F01F5001118BF40F0004001EB0E53AC
:10892000024643EC102BBDE8F0817B1C16BF781C7F
:108930000CF1010C4008E6E710EE102A10EE100AC8
:108940003B46394600F0DAF932463B4600F020F863
:1089500041EC100BBDE8F08110EE102A304639468C
:1089600000F014F802460B4600F0F2FA41EC100B4E
:10897000D9E7234620204FF0FF35B4E70000F07F11
:108980000020704781F0004102E000BF83F0004307
:1089900030B54FEA41044FEA430594EA050F08BF9A
:1089A00090EA020F1FBF54EA000C55EA020C7FEA5E
:1089B000645C7FEA655C00F0E2804FEA5454D4EBDB
:1089C0005555B8BF6D420CDD2C4480EA020281EAA5
:1089D000030382EA000083EA010180EA020281EADD
:1089E0000303362D88BF30BD11F0004F4FEA01312F
:1089F0004FF4801C4CEA113102D0404261EB41013E
:108A000013F0004F4FEA03334CEA133302D05242C3
:108A100063EB430394EA050F00F0A780A4F101047F
:108A2000D5F1200E0DDB02FA0EFC22FA05F28018B9
:108A300041F1000103FA0EF2801843FA05F359419F
:108A40000EE0A5F120050EF1200E012A03FA0EFC1E
:108A500028BF4CF0020C43FA05F3C01851EBE37148
:108A600001F0004507D54FF0000EDCF1000C7EEB65
:108A700000006EEB0101B1F5801F1BD3B1F5001FA3
:108A80000CD349085FEA30004FEA3C0C04F10104C2
:108A90004FEA445212F5800F80F09A80BCF1004FEB
:108AA00008BF5FEA500C50F1000041EB045141EA6D
:108AB000050130BD5FEA4C0C404141EB0101013C36
:108AC00028BFB1F5801FE9D291F0000F04BF014625
:108AD0000020B1FA81F308BF2033A3F10B03B3F1F7
:108AE00020020CDA0C3208DD02F1140CC2F10C0287
:108AF00001FA0CF021FA02F10CE002F11402D8BFE5
:108B0000C2F1200C01FA02F120FA0CFCDCBF41EAB0
:108B10000C019040E41AA2BF01EB0451294330BD7F
:108B20006FEA04041F3C1CDA0C340EDC04F114045C
:108B3000C4F1200220FA04F001FA02F340EA030033
:108B400021FA04F345EA030130BDC4F10C04C4F179
:108B5000200220FA02F001FA04F340EA0300294659
:108B600030BD21FA04F0294630BD94F0000F83F4A3
:108B7000801306BF81F480110134013D4EE77FEA86
:108B8000645C18BF7FEA655C29D094EA050F08BFD2
:108B900090EA020F05D054EA000C04BF19461046B3
:108BA00030BD91EA030F1EBF0021002030BD5FEAF7
:108BB000545C05D14000494128BF41F0004130BD1F
:108BC00014F580043CBF01F5801130BD01F0004573
:108BD00045F0FE4141F470014FF0000030BD7FEAE6
:108BE000645C1ABF194610467FEA655C1CBF0B46E1
:108BF000024650EA013406BF52EA033591EA030FF8
:108C000041F4002130BD00BF90F0000F04BF0021EF
:108C1000704730B54FF4806404F132044FF0000522
:108C20004FF0000150E700BF90F0000F04BF00219B
:108C3000704730B54FF4806404F1320410F0004501
:108C400048BF40424FF000013EE700BF42004FEAFC
:108C5000E2014FEA31014FEA02701FBF12F07F4379
:108C600093F07F4F81F06051704732F07F4208BF30
:108C7000704793F07F4F04BF41F40021704730B537
:108C80004FF4607401F0004521F000411CE700BF83
:108C900050EA010208BF704730B54FF000050AE006
:108CA00050EA010208BF704730B511F0004502D507
:108CB000404261EB41014FF4806404F132045FEA09
:108CC000915C3FF4D8AE4FF003025FEADC0C18BFB2
:108CD00003325FEADC0C18BF033202EBDC02C2F1A4
:108CE000200300FA03FC20FA02F001FA03FE40EA36
:108CF0000E0021FA02F11444BDE600BF70B54FF03A
:108D0000FF0C4CF4E06C1CEA11541DBF1CEA135517
:108D100094EA0C0F95EA0C0F00F0DEF82C4481EA7F
:108D2000030621EA4C5123EA4C5350EA013518BF9F
:108D300052EA033541F4801143F4801338D0A0FB8C
:108D400002CE4FF00005E1FB02E506F00042E0FB39
:108D500003E54FF00006E1FB03569CF0000F18BF3F
:108D60004EF0010EA4F1FF04B6F5007F64F54074E7
:108D700004D25FEA4E0E6D4146EB060642EAC6217A
:108D800041EA55514FEAC52040EA5E504FEACE2EE7
:108D9000B4F1FD0C88BFBCF5E06F1ED8BEF1004FEA
:108DA00008BF5FEA500E50F1000041EB045170BD66
:108DB00006F0004646EA010140EA020081EA0301AA
:108DC000B4EB5C04C2BFD4EB0C0541EA045170BDA6
:108DD00041F480114FF0000E013C00F3AB8014F120
:108DE000360FDEBF002001F0004170BDC4F1000469
:108DF000203C35DA0C341BDC04F11404C4F12005EA
:108E000000FA05F320FA04F001FA05F240EA020044
:108E100001F0004221F0004110EBD37021FA04F67A
:108E200042EB06015EEA430E08BF20EAD37070BD34
:108E3000C4F10C04C4F1200500FA04F320FA05F093
:108E400001FA04F240EA020001F0004110EBD37095
:108E500041F100015EEA430E08BF20EAD37070BD05
:108E6000C4F1200500FA05F24EEA020E20FA04F3DE
:108E700001FA05F243EA020321FA04F001F000418D
:108E800021FA04F220EA020000EBD3705EEA430EFE
:108E900008BF20EAD37070BD94F0000F0FD101F02D
:108EA0000046400041EB010111F4801F08BF013C66
:108EB000F7D041EA060195F0000F18BF704703F0A4
:108EC0000046520043EB030313F4801F08BF013D2B
:108ED000F7D043EA0603704794EA0C0F0CEA1355E7
:108EE00018BF95EA0C0F0CD050EA410618BF52EAA1
:108EF0004306D1D181EA030101F000414FF00000A7
:108F000070BD50EA410606BF1046194652EA4306B4
:108F100019D094EA0C0F02D150EA013613D195EA28
:108F20000C0F05D152EA03361CBF104619460AD170
:108F300081EA030101F0004141F0FE4141F470017A
:108F40004FF0000070BD41F0FE4141F4780170BD6A
:108F500070B54FF0FF0C4CF4E06C1CEA11541DBFCF
:108F60001CEA135594EA0C0F95EA0C0F00F0A7F8D1
:108F7000A4EB050481EA030E52EA03354FEA0131FE
:108F800000F088804FEA03334FF0805545EA131311
:108F900043EA12634FEA022245EA111545EA1065D9
:108FA0004FEA00260EF000419D4208BF964244F170
:108FB000FD0404F5407402D25B084FEA3202B61A8F
:108FC00065EB03055B084FEA32024FF480104FF463
:108FD000002CB6EB020E75EB030E22BFB61A7546D7
:108FE00040EA0C005B084FEA3202B6EB020E75EB6A
:108FF000030E22BFB61A754640EA5C005B084FEAD2
:109000003202B6EB020E75EB030E22BFB61A75469E
:1090100040EA9C005B084FEA3202B6EB020E75EBA9
:10902000030E22BFB61A754640EADC0055EA060E6A
:1090300018D04FEA051545EA16754FEA06164FEAAD
:10904000C30343EA52734FEAC2025FEA1C1CC0D159
:1090500011F4801F0BD141EA00014FF000004FF0E6
:10906000004CB6E711F4801F04BF01430020B4F1A7
:10907000FD0C88BFBCF5E06F3FF6AFAEB5EB030C5F
:1090800004BFB6EB020C5FEA500C50F1000041EB5C
:10909000045170BD0EF0004E4EEA113114EB5C0429
:1090A000C2BFD4EB0C0541EA045170BD41F48011FC
:1090B0004FF0000E013C90E645EA060E8DE60CEA04
:1090C000135594EA0C0F08BF95EA0C0F3FF43BAF21
:1090D00094EA0C0F0AD150EA01347FF434AF95EAD8
:1090E0000C0F7FF425AF104619462CE795EA0C0FBC
:1090F00006D152EA03353FF4FDAE1046194622E789
:1091000050EA410618BF52EA43067FF4C5AE50EA62
:1091100041047FF40DAF52EA43057FF4EBAE12E752
:109120004FF0FF3C06E000BF4FF0010C02E000BF33
:109130004FF0010C4DF804CD4FEA410C7FEA6C5C16
:109140004FEA430C18BF7FEA6C5C1BD001B050EAB9
:10915000410C0CBF52EA430C91EA030F02BF90EAA4
:10916000020F0020704710F1000F91EA030F58BF63
:10917000994208BF90422CBFD8176FEAE37040F0C5
:10918000010070474FEA410C7FEA6C5C02D150EA63
:10919000013C07D14FEA430C7FEA6C5CD6D152EA1E
:1091A000033CD3D05DF8040B704700BF84461046E3
:1091B00062468C461946634600E000BF01B5FFF7E2
:1091C000B7FF002848BF10F1000F01BD4DF808EDB2
:1091D000FFF7F4FF0CBF012000205DF808FB00BF83
:1091E0004DF808EDFFF7EAFF34BF012000205DF8DD
:1091F00008FB00BF4DF808EDFFF7E0FF94BF01202A
:1092000000205DF808FB00BF4DF808EDFFF7CEFF2A
:1092100094BF012000205DF808FB00BF4DF808ED69
:10922000FFF7C4FF34BF012000205DF808FB00BF3A
:109230004FEA410C7FEA6C5C02D150EA013C0AD152
:109240004FEA430C7FEA6C5C02D152EA033C02D144
:109250004FF0000070474FF0010070474A0011D2F4
:1092600012F5001211D20DD56FF47873B3EB625280
:109270000ED44FEAC12343F0004343EA505323FA8C
:1092800002F070474FF00000704750EA013002D101
:109290004FF0FF3070474FF0000070474FEA410237
:1092A000B2F1E04324BFB3F5001CDCF1FE5C0DD944
:1092B00001F0004C4FEAC0024CEA5070B2F1004F8E
:1092C00040EB830008BF20F00100704711F0804F91
:1092D00021D113F13872BCBF01F00040704741F456
:1092E00080114FEA5252C2F11802C2F1200C10FA5A
:1092F0000CF320FA02F018BF40F001004FEAC1233E
:109300004FEAD32303FA0CFC40EA0C0023FA02F3E1
:109310004FEA4303CCE77FEA625307D150EA0133B7
:109320001EBF4FF0FE4040F44000704701F0004087
:1093300040F0FE4040F40000704700BFD0B50C4B39
:10934000002206460F46FFF7D9FCFFF787FF0446C9
:10935000FFF75AFC074B0022FFF7D0FC02460B46F2
:1093600030463946FFF712FBFFF778FF2146D0BDA4
:109370000000F03D0000F04110B50C464169036962
:10938000826986B001F26C710491016803914168B1
:10939000029181680191C1680091074903EB430381
:1093A0000B44064902EB42020A4420460449FDF7F9
:1093B00095FE204606B010BDD6BE0D00C1BE0D0004
:1093C000A1BE0D00002100F0FDBE0A22002100F028
:1093D0007FBF000010B5054C13462CB10A4601466C
:1093E0000220AFF3008010BD2046FCE70000000023
:1093F00038B5074B1D68EB6B04461BB92420FDF7FD
:1094000055FEE863E96B2046BDE83840FDF7A6BE8F
:1094100098DC03200A44914200F1FF3300D17047E9
:1094200010B511F8014B03F8014F9142F9D110BD6D
:10943000884210B501EB020402D98442234607D8C2
:10944000431EA14208D011F8012B03F8012FF8E7C1
:10945000024401468A4200D110BD13F8014D02F8C2
:10946000014DF7E702440346934200D1704703F8E9
:10947000011BF9E738B50D4B1D68AB6B04467BB992
:109480001820FDF713FE0A4A0A4BA863C0E900231F
:10949000094B83600B23838101220023C0E904234D
:1094A000AB6B00221C615A6138BD00BF98DC032001
:1094B0000E33CDAB34126DE6ECDE050010F8012B57
:1094C00011F8013B012A28BF9A42F7D0D01A704701
:1094D000034611F8012B03F8012B002AF9D170473C
:1094E000024B0146186800F003B800BF98DC032067
:1094F00037B5044608460D4600F00FF8421C1146E9
:1095000020460192FDF702FE044618B1019A294651
:10951000FFF780FF204603B030BD034613F8012B50
:10952000002AFBD1181A0138704710B56AB1013909
:10953000841810F8013B11F8012F934203D1A04287
:1095400001D0002BF5D1981A10BD1046FCE710B5DC
:109550000139034632B111F8014F03F8014B013ACA
:10956000002CF7D11A440021934200D110BD03F81A
:10957000011BF9E770B504460D4645EC104B164645
:1095800001F01CFD51EC100B7EB1C5F30A53C3F181
:109590006B03002B09DD1B0503F17F55002405F546
:1095A000401522462B46FFF7A9FB70BD00000000C6
:1095B0002DE9F04FA3B01F4600231E93A44B199230
:1095C0001B680793044618468846FFF7A6FF4FF02E
:1095D000000A05464FF0000BCDF874801D9B1A78E9
:1095E0002B2A4CD039D80D2A32D8082A32D8002A52
:1095F0003CD000230E931D9E3378302B40F0B48076
:10960000737803F0DF03582B6CD10E9B01931EABD4
:10961000029700938F4A1FAB1DA9204600F0CAFE97
:1096200010F00707054605D0062F2AD10136002382
:109630001D960E93199B002B40F096850E9BDBB177
:1096400052460BF1004343EC102B23B0BDE8F08FE2
:10965000202ACED101331D93C0E72D2AC9D1012282
:109660000E925A1C1D925B78002BC4D1199BCDF829
:109670007480002B40F0768552465B46E3E700227B
:10968000EEE71E9A3AB1352120A801F096FD1E9909
:10969000204601F0CBF9013F052F07D8DFE807F09E
:1096A0000E0B181D0E034FF0000BDA462807C1D52C
:1096B0004BF0004BBEE7DDE920ABF7E7DDE920A387
:1096C0001F9A23F4801302F2334243EA025BEDE770
:1096D000DFF884B14FF0000AE8E76FF0004B4FF07D
:1096E000FF3AE3E71D9B5A1C1D925B78302BF9D0A3
:1096F000002B9FD001234FF0000904931D9B0A9378
:10970000CDF824904F460A221D980678A6F1300322
:10971000D9B209292AD907992A46FFF706FF98B333
:10972000002033463D4607900246652B01D0452B6D
:1097300018D11DB9049B034398D00025DDF874802F
:1097400008F101031D9398F801302B2B75D02D2BB8
:109750007BD04FF0000CA3F13001092940F2828048
:10976000CDF8748000269DE00023C4E7082FD8BF01
:10977000099900F10100DABF02FB0133099302FBF2
:10978000093901371D90BFE71D9B5A191D925B5D7A
:10979000002F37D007903D46A3F13002092A12D995
:1097A0000122C2E71D9B5A1C1D925B780130302BB1
:1097B000F8D0A3F13102082A00F2DB841D9A079049
:1097C00000200A920546303B00F1010214D00799AF
:1097D000114407912A4600EB050E0A21724513D168
:1097E0002A18082A05F1010505441CDC09990A22FA
:1097F00002FB0133099300221D9B591C1D915B78CC
:109800001046C9E73846D2E7082A04DC099E4E43D1
:1098100009960132E2E702F1010CBCF1100FD8BF4A
:1098200001FB09F9F5E7102DDCBF0A2202FB09391B
:10983000E1E70023079301227CE74FF0000C08F1D9
:1098400002031D9398F8023085E74FF0010CF6E70C
:109850005CC00D0008BF0D000000F07F1D9B591C6F
:109860001D915B78302BF9D0A3F1310108293FF627
:1098700079AFA3F1300E1D9B08931D9B591C1D91C0
:109880005B78A3F13006092E37D9089E891B082979
:1098900044F61F6602DC7645A8BF7646BCF1000F91
:1098A00000D07642002D4FD1049901437FF4C2AE1F
:1098B000002A7FF4DBAE692B27D024DC492B24D08F
:1098C0004E2B7FF4D3AE9E491DA800F0B9FF0028AF
:1098D0003FF4CCAE1D9B1B78282B2DD1994920AA93
:1098E0001DA800F0C1FF052826D1219BDDF880A02E
:1098F00043F0FF4B4BF4E00B9CE60A2101FB0E3ECC
:10990000AEF1300EB9E76E2BDBE78F491DA800F0F2
:1099100097FF00283FF4AAAE1D9B8C49013B1DA870
:109920001D9300F08DFF10B91D9B01331D93DFF8CF
:109930002CB24FF0000A7DE6854801F091FC8DEDD8
:10994000040BDDE904AB75E6079B0998F31A002FB9
:1099500008BF2F46102D0893A846A8BF4FF0100847
:10996000FFF752F9092D82468B4613DD794B03EB45
:10997000C80353E91223FFF7C1F9824648468B46D4
:10998000FFF742F902460B4650465946FFF700F8EA
:1099900082468B460F2D38DC089B002B3FF44AAEE5
:1099A00024DD162B0BDC6B4D05EBC305D5E900015F
:1099B00052465B46FFF7A2F982468B463AE6089A82
:1099C000C5F12503934220DB624CC5F10F0504EB82
:1099D000C50152465B46D1E90001FFF78FF9089BAC
:1099E0005D1B04EBC504D4E90023E3E7089B1633B1
:1099F0000BDB079B574A9E1B02EBC606D6E90023EA
:109A000050465946FFF7A4FAD6E7089BA5EB08088D
:109A10009844B8F1000F71DD18F00F030AD04D49DA
:109A200001EBC30152465B46D1E90001FFF766F93D
:109A300082468B4638F00F084DD0B8F59A7F22DD6C
:109A400000252E46099507952223DFF810B12360E3
:109A50004FF0000A099B002B3FF4ECAD1E99204605
:109A600000F0E4FF0799204600F0E0FF3146204671
:109A700000F0DCFF0999204600F0D8FF2946204677
:109A800000F0D4FFD6E500234FEA28185046594687
:109A90009946B8F1010F21DC0BB182468B462E4B63
:109AA000ABF1547B03EBC90952465B46D9E900018F
:109AB000FFF724F9294B0A460B4029498B4282467D
:109AC000BED8A1F580118B4286BFDFF898B04FF069
:109AD000FF3A02F1547B0023049381E018F0010F58
