:02000002D0002C
:1040000000400D0068CD0D00000006000C00050109
:084010000401DB0700000000C1
:044018005CB30D0088
:1040200009480A49884208B505D0094A824202D0A7
:10403000121A05F03FFA0748074A0021121A05F044
:1040400061FA014808BD00BFB0DB032054CA0D006F
:104050009CDE0320A0DE0320F8E7032070B5074EA6
:10406000074C04F0BBFAA41BA4080025A54200D10C
:1040700070BD56F8043B98470135F7E724C20D00A0
:1040800050C20D0001F08CB808B500F04BFFBDE840
:10409000084004F065BA02F0F1BF02F0EFBF02F091
:1040A000F5BF000008B5034A00210C2002F0C8FE4D
:1040B000FEE700BF716B0D000078B0FA80F0400998
:1040C0007047012303707047014B01221A7070473B
:1040D000FDE5032003681847012A03D0022A03D014
:1040E000002070470160FBE70B680360F8E7000001
:1040F00008B5044903F09EFE18B1034B03221A7061
:10410000012008BDABB30D00D1E5032070B5C2B0EE
:1041100000680A2201A906F02BF9431E062B04466B
:104120002BD80128164B174E08D11877164902A82C
:1041300005F01EFA3470204642B070BD02284FF0E0
:10414000010507D111495D7702A805F011FA2C4647
:104150003570F0E7032802D10D499D77F4E7042874
:1041600002D10C49DD77EFE705280BBF0A490B495F
:1041700083F8205083F82150E6E70024DBE700BFF6
:10418000D4E50320FCE50320ADB30D00C0B30D0062
:10419000D3B30D00E8B30D00FCB30D0010B40D0057
:1041A00030B5C3B000680A2201A906F0E1F8431E49
:1041B000062B04464FF0000328D80128144A154D59
:1041C00008D11549137702A805F0D2F92C702046C2
:1041D00043B030BD022806D11049537702A805F03C
:1041E000C7F90124F2E7032802D10D499377F5E7D7
:1041F000042802D10B49D377F0E705280BBF0A4901
:104200000A4982F8203082F82130E7E71C46DEE7D1
:10421000D4E50320FCE5032023B40D0037B40D00E2
:104220004BB40D0061B40D0076B40D008BB40D00DD
:10423000436913B183690C301847704710B5034BBD
:104240000360044602F0C6F9204610BDC8BA0D004E
:1042500010B50446FFF7F2FF2046382104F0B5FA06
:10426000204610BD10B5034B0360044601F0CAFBA5
:10427000204610BDF0BA0D0010B50446FFF7F2FF5E
:104280002046102104F0A1FA204610BD13B50021EC
:104290000446084602F0F4FB0023204601A90193DE
:1042A00002F006FC019C0CB10123237100210120C6
:1042B00002F0E6FB2CB1236820469B689847002358
:1042C000237102B010BD10B50446006808B102F0B9
:1042D000DDFE204610BD00001FB5104B104A1B78B4
:1042E0001278104913438DF8003000223C2302A8B5
:1042F00003F0E2F8039C7CB16368013B63605BB947
:10430000236820469B689847A368013BA3601BB9BC
:1043100023682046DB68984704B010BD90DF032077
:1043200091DF03209FB40D0010B58368044613B1DC
:10433000032201469847204610BD000037B5134BB5
:10434000036004468068C8B100256FF00043CDE9E2
:10435000003502212B462A4602F0B2FBA06829460E
:1043600002F0E6FB237903F0FF0513B102F080FBB6
:10437000F8E7A068294602F093FBA56004F10C0061
:10438000FFF7D2FF204603B030BD00BFB4BA0D0026
:1043900010B50446FFF7D2FF20461C2104F015FAA1
:1043A000204610BD0246014802F081BF83720D0015
:1043B00007B508220023ADF800204FF47A710122DE
:1043C000019241436A461846ADF8023002F0F6FD0C
:1043D00003B05DF804FB07B580680B46002140B1CF
:1043E000CDE900210A46032102F06AFBB0FA80F011
:1043F000400903B05DF804FB37B504689DF8185018
:104400008DF800308DF80450E4683C23A04703B0D9
:1044100030BD000010B50B7892B00C467BB919493D
:1044200002A805F0A5F800238DF80030164B1749B7
:104430001B78174802AAFFF7DFFF12B010BD08462D
:1044400005F013F8C8280ED1124902A805F090F81B
:1044500003F09FFE104B9861104B01221A70104B15
:1044600000221A70DFE7204604F0FFFFC928EBD0D6
:10447000204604F0FAFF0B4A0346402102A802F04E
:104480001DFED0E7A1B40D0091DF0320D8B40D00CC
:1044900038E40320A9B40D00D4E50320FCE5032093
:1044A000B3DF0320BBB40D0037B51C49054603F04C
:1044B000C1FC044600B31A4C012360686370FFF727
:1044C00077FF636817484FF47A716FF000425943E1
:1044D000FFF781FF02F03AFD48B100238DF800306C
:1044E000114B124A1B7812491248FFF785FF124BF5
:1044F0000120187003B030BD1049284603F09AFC23
:104500000028F7D0064B5C7002F020FD0028EED0AA
:10451000054B8DF800401B78094AE4E7ABB30D006A
:10452000D4E5032018E4032091DF0320E5B40D0057
:1045300055B50D0038E40320FCE50320FAB40D0066
:10454000FCB40D0010B5C4B000680A2203A905F040
:104550000FFFB0F5966F22D8124C6060FFF728FF6E
:10456000636811484FF47A7159436FF00042FFF7C6
:1045700032FF63680D4A4FF4807104A802F09EFD7B
:1045800000238DF800300A4B0A491B780A4804AA18
:10459000FFF732FF094B0120187044B010BD002016
:1045A000FBE700BFD4E5032018E4032010B50D009D
:1045B00091DF032029B50D0038E40320FCE503203A
:1045C00037B51649054603F035FC044688B1144B4F
:1045D000144A1549154801245C7200238DF80030F7
:1045E000134B1B78FFF708FF124B20461C7003B0DB
:1045F00030BD1149284603F01DFC0028F7D0084BB8
:104600000E4A5C720A4B8DF800401B780649074839
:10461000FFF7F2FE074B01201870E8E7ABB30D007F
:10462000D4E5032034B50D0055B50D0038E4032062
:1046300091DF0320FCE50320FAB40D0045B50D0021
:1046400000B5C5B000680A2203A905F091FE042850
:1046500019D80E4B0E4A83F822004FF4807103469E
:1046600004A802F02BFD00238DF80030094B0A4905
:104670001B780A4804AAFFF7BFFE094B01201870F7
:1046800045B05DF804FB0020FAE700BFD4E5032045
:104690005AB50D0091DF032055B50D0038E4032015
:1046A000FCE5032007B502F051FC48B100238DF86A
:1046B00000300B4B0B4A1B780B490C48FFF79CFE54
:1046C0000B4A0C48782353600023012153729372E4
:1046D0002823118003B05DF804EB01F04EBA00BF4F
:1046E00091DF03206CB50D0055B50D0038E40320B3
:1046F000D4E5032008E4032010B5124C237A012BE3
:1047000004D902F023FCD8B1012323726368B3F506
:10471000966F84BF4FF416736360637A012B84BF76
:1047200001236372A37A012B84BF0023A372636900
:10473000FF2B84BF00236361034B01221A7010BD5D
:104740002072E3E7D4E50320FCE5032007B501214F
:10475000052003F0C4FF0021052003F0C0FF094A33
:1047600000231370084A527A42B18DF80030074B8B
:10477000074A1B7807490848FFF73EFE03B05DF87B
:1047800004FB00BFFDE50320D4E5032091DF0320F7
:1047900084B50D008BB50D0038E4032010B5524BE5
:1047A000524C93F82230012BADF50C7D43D160695A
:1047B00004F09CFACDE90A01206904F097FACDE9EA
:1047C0000801E06804F092FACDE90601A06804F05F
:1047D0008DFACDE90401606804F088FACDE90201A0
:1047E000206804F083FACDE90001414A4FF40071DA
:1047F0000CA802F063FC00238DF800303D4B3E49CD
:104800001B783E480CAAFFF7F7FD2368A361636895
:10481000E361A3682362E36863622369A362636957
:10482000E362374B01221A7002F0AAF9354B186087
:104830000DF50C7D10BD022B19D1D4E91C23CDE957
:104840000A23D4E91A23CDE90823D4E91823CDE9B2
:104850000623D4E91023CDE90423D4E90E23CDE9BE
:104860000223D4E90C23CDE90023274ABEE7032B1A
:104870001CD1606904F03AFACDE90A01206904F01C
:1048800035FACDE90801E06804F030FAD4E91023E4
:10489000CDE90423D4E90E23CDE90223D4E90C2386
:1048A000CDE90601CDE90023184A9FE7042BA2D1E8
:1048B000606904F01BFACDE90A01206904F016FAD8
:1048C000D4E92A23CDE90623D4E92823CDE904231A
:1048D000D4E92623CDE90223D4E92423CDE9080134
:1048E000CDE900230A4A81E7D4E5032090E40320C0
:1048F00094B50D0091DF0320DCB70D0038E40320F0
:10490000B3DF032000E6032052B60D00D6B60D003B
:1049100059B70D0030B5114D114C12492A78207845
:104920008DB01A2303FB0212009203FB00130E4A00
:10493000282102A802F0C2FB2B78237002F006FBAC
:1049400048B100238DF80030084B09491B7809480D
:1049500002AAFFF751FD0DB030BD00BFD1E5032025
:1049600034E40320F0DB0320F1B70D0091DF0320D6
:10497000FFB70D0038E4032030B50D4D0FCD89B0E1
:1049800001AC0FC495E807000A4B84E807001B7CC4
:10499000094808AA02EB8303102153F81C3C074A7C
:1049A00002F08CFB064B01221A7009B030BD00BF2B
:1049B00004BB0D00D4E5032092DF0320E0BB0D0013
:1049C000FCE5032013B51E4C1E48D4E9002310213A
:1049D000CDE900231C4A02F071FBD4E90223102127
:1049E000CDE9002319481A4A02F068FBD4E90423F0
:1049F0001021CDE900231748174A02F05FFBD4E9E4
:104A000006231021CDE900231448154A02F056FB75
:104A1000D4E908231021CDE900231248124A02F0FC
:104A20004DFBD4E90A231021CDE900230F48104A99
:104A300002F044FB0F4B01221A7002B010BD00BF00
:104A4000C0DB032091E5032010B80D00C1E5032071
:104A50001EB80D00B1E503202BB80D0081E5032041
:104A60003BB80D0071E5032058B80D00A1E5032007
:104A700075B80D00B2DF032010B586B0044603F010
:104A8000EBF910EE100A04F031F90C4BC3E9000108
:104A9000214602A803F072F900238DF80030084B7C
:104AA000029A1B7807490848FFF7A6FC02A803F002
:104AB000F7F8FFF787FF012006B010BDC0DB032029
:104AC00091DF032091B80D0038E4032010B586B0C3
:104AD000044603F0C1F910EE100A04F007F90C4B7C
:104AE000C3E90201214602A803F048F900238DF82A
:104AF0000030084B029A1B7807490848FFF77CFCF6
:104B000002A803F0CDF8FFF75DFF012006B010BD4D
:104B1000C0DB032091DF0320ACB80D0038E4032094
:104B200010B586B0044603F097F910EE100A04F0B1
:104B3000DDF80C4BC3E90401214602A803F01EF97D
:104B400000238DF80030084B029A1B78074908486B
:104B5000FFF752FC02A803F0A3F8FFF733FF012090
:104B600006B010BDC0DB032091DF0320C7B80D00E5
:104B700038E4032010B586B0044603F06DF910EE5A
:104B8000100A04F0B3F80C4BC3E90601214602A851
:104B900003F0F4F800238DF80030084B029A1B78DC
:104BA00007490848FFF728FC02A803F079F8FFF747
:104BB00009FF012006B010BDC0DB032091DF0320F8
:104BC000E4B80D0038E4032010B586B0044603F0C5
:104BD00043F910EE100A04F089F80C4BC3E9080100
:104BE000214602A803F0CAF800238DF80030084BD4
:104BF000029A1B7807490848FFF7FEFB02A803F05A
:104C00004FF8FFF7DFFE012006B010BDC0DB032028
:104C100091DF032000B90D0038E4032010B586B001
:104C2000044603F019F910EE100A04F05FF80C4B7B
:104C3000C3E90A01214602A803F0A0F800238DF879
:104C40000030084B029A1B7807490848FFF7D4FB4D
:104C500002A803F025F8FFF7B5FE012006B010BD4D
:104C6000C0DB032091DF03201CB90D0038E40320D2
:104C70002DE9F04F83B06C46A4EBC00402AFA5460B
:104C800002AD4FF0000A4FF0000BAC46ECE802AB6F
:104C90004FEAC0090238002824DADFF85CB0DFF8F8
:104CA0005CA00C4690461E46A9444D451ED0D4E952
:104CB00002018DE80300584694E80C0000F0B8FDAE
:104CC000A8EC020BA5EC020BDAE9002351EC100B67
:104CD00004F064F8074B002204F08AF91034E6E887
:104CE0000201E2E7ECE802AB0138D4E70437BD4645
:104CF000BDE8F08F00408F40A8DE0320B8DB032022
:104D000038B57C4C7C4D002384F8D830FFF734FE56
:104D100095F8220001284AD12B7F4BB177484FF4F8
:104D2000B96100F005FE51EC100B04F007FB2060A8
:104D30006B7F4BB172484FF4B96100F0F9FD51EC53
:104D4000100B04F0FBFA6060AB7F4BB16D484FF481
:104D5000B96100F0EDFD51EC100B04F0EFFAA0602A
:104D6000EB7F4BB168484FF4B96100F0E1FD51ECC5
:104D7000100B04F0E3FAE06095F820304BB1634883
:104D80004FF4B96100F0D4FD51EC100B04F0D6FAE9
:104D9000206195F82130EBB15D484FF4B96100F026
:104DA000C7FD51EC100B04F0C9FA606112E0022853
:104DB00040F08980574904F1480304F13002032090
:104DC000FFF756FF544904F1780304F16002032011
:104DD000FFF74EFFD4ED007A94ED067AF5EEC07A37
:104DE000F1EE10FAD8BFF1EE677A37EEC77AF6EE39
:104DF000007AB4EEE77AF1EE10FA59DA94ED017A1E
:104E0000D4ED076AB5EEC07AF1EE10FAD8BFB1EE74
:104E1000477A37EE667AB4EEE77AF1EE10FA47DABF
:104E200094ED027AD4ED086AB5EEC07AF1EE10FA8C
:104E3000D8BFB1EE477A37EE667AB4EEE77AF1EE94
:104E400010FA35DA94ED037AD4ED096AB5EEC07A3A
:104E5000F1EE10FAD8BFB1EE477A37EE667AB4EECB
:104E6000E77AF1EE10FA23DA94ED047AD4ED0A6AC7
:104E7000B5EEC07AF1EE10FAD8BFB1EE477A37EE50
:104E8000667AB4EEE77AF1EE10FA11DA94ED057A6B
:104E9000D4ED0B6AB5EEC07AF1EE10FAD8BFB1EEE0
:104EA000477A37EE667AB4EEE77AF1EE10FA1FDB56
:104EB000012584F8D85003F06CF9184BC4F8D000E1
:104EC0001D70284638BD032807D1124904F1480354
:104ED00004F13002FFF7CCFE42E704287FF47AAFFA
:104EE0000F4904F1B00304F19002FFF7C1FE43E75C
:104EF0000020E7E790E40320D4E50320B8DF032097
:104F000070E0032028E10320E0E1032098E2032081
:104F100050E3032030DF032060DF032070E503202F
:104F2000F0DE032070B5854C2378013B86B0052B5D
:104F30001AD8DFE813F0DD0006005F006B004400C4
:104F4000AA007F4B5B7A2BB17E4B1B78022B01D0E2
:104F5000FFF7E0FC03F01DF90A2390FBF3F202FBDC
:104F600013030BB905232370774801F0E3F9774B5E
:104F70001B780BB1FFF7EAFB754C23783BB1282374
:104F80006F4A7448012100F0F8FD00232370724C31
:104F900023783BB1E023714A6E48A02100F0EDFD7B
:104FA000002323706E4C23783BB130236D4A69484F
:104FB000F02100F0E2FD0023237006B070BD604BCD
:104FC0005B7A2BB15F4B1B78052B01D0FFF7A2FC5E
:104FD000FFF796FE08B10423C5E703F0DAF84FF4B3
:104FE000167390FBF3F202FB13030BB90323BAE72A
:104FF0000223B8E7524B5B7A2BB1524B1B78032B41
:1050000001D0FFF787FCFFF77BFEE4E74C4B5B7AB0
:105010002BB14C4B1B78042B01D0FFF77BFC01F02C
:1050200095FF054678B103F0C5F80C2805D101F0CD
:105030008DFF10B1002001F0A9FFFFF761FEFFF71F
:10504000ADFB06238FE7484E484A337848498DF830
:1050500000004848FFF7D0F901F078FF0A22014626
:1050600002A802F0A8FE3378029A434941488DF81D
:105070000050FFF7C1F902A802F012FE01232370CD
:1050800001F07EFD3D4B18606EE72D4B5B7A2BB136
:105090002C4B1B78062B01D0FFF73CFC384B1B78C0
:1050A00043B903F076F80A2390FBF3F202FB1303F3
:1050B000002B9DD101F064FD324B1B68C01A4AF6EB
:1050C000C87398427FF650AF01F05AFD2B4D2E4A1F
:1050D000286000238DF80030234B2C491B7825488D
:1050E000FFF78AF90123237001F04AFD28603BE7AE
:1050F000144B1B78012B01D0FFF70CFC01F040FD95
:105100001E4B1B6803F5922303F578738342BFF4AB
:105110002BAF01F01BFF48B100238DF80030124B7C
:105120001B4A1B781B491348FFF766F94FF4FA60D6
:1051300002F00CF802F0B2FE16E700BFD1E5032042
:10514000D4E5032034E4032074E40320FDE50320C8
:10515000FCE5032008E4032070E5032090E403202D
:10516000B2DF0320C0DB032091DF032037B90D003D
:105170004CB90D0038E403205BB90D0070E4032046
:10518000B3DF032000E6032074BF0D0075B90D00E6
:105190008EB90D00A2B90D000023092201F0BEBE98
:1051A0002DE9F04700219AB0082003F087FA012189
:1051B000052003F083FAFFF7C9FA002300930122C8
:1051C0004FF0FF33AE49082002F0B6FBAD4B0AAA00
:1051D00003F11005174618685968144603C40833CC
:1051E000AB422246F7D119889B78A3702D222180EB
:1051F0000DF13B000021A44CA44D002604F082F9DF
:1052000002A8267001F0AAFE02A906A802F0B6FDC7
:105210009F4906A802F0F9FDCDE900669D490068A6
:105220003346324601F0AAFE06A802F039FD02A874
:1052300002F036FD984999483346042201F06EFE8B
:10524000974998483346042201F068FE96499748EA
:105250003346042201F062FE954996483346022205
:1052600001F05CFE334601229349944801F056FE5A
:1052700093499448FFF790FF93499448FFF78CFFB8
:10528000934994483346092201F048FE92499348D5
:105290003346092201F042FE3346092290499148E3
:1052A00001F03CFE90499148FFF776FF9049914804
:1052B000FFF778F890499148FFF774F890499148C2
:1052C000FFF770F890497D48FFF76CF88F499048D8
:1052D000FFF768F88F499048FFF764F88F499048C6
:1052E000FFF760F88F499048FFF75CF88F499048C6
:1052F000FFF758F88F499048FFF754F88F499048C6
:10530000FFF750F88F499048FFF74CF88F499048C5
:10531000FFF748F88F4800F007FF31468D4801F04D
:1053200040F88D4800F09CFB01238B4806AA3146CB
:1053300000F0D8FB9DF818300B2B60D0864800F0A9
:1053400099FB864A84480423314600F016FC012369
:10535000814806AA314600F0C5FB9DF818300B2B9A
:105360004AD001232370564EFFF7C6F97C4B7D4887
:10537000197896ED000B00F0CFFA7B4B7B4819783B
:1053800096ED020B00F0C8FA794B7A48197896ED41
:10539000040B00F0C1FA784B7848197896ED060BAB
:1053A00000F0BAFA764B7748197896ED080B00F0C2
:1053B000B3FA754B7548197896ED0A0B00F0ACFA04
:1053C0006B788BB3002001F0EBFB4FF0000A064630
:1053D000002001F0E5FBB0EB060861EB0A090023B1
:1053E00047F22F524B4508BF42450FD301F0AEFDA7
:1053F00060B901F0A3FDEBE7FFF754F9B3E7282309
:105400002A460121544800F06DFBACE701F09EFDF7
:105410006868FEF7CDFF6B685D484FF47A716FF0F6
:1054200000425943FEF7D7FFFFF76AFC6B7A4BB196
:1054300000238DF80030574B57491B7857483A46A0
:10544000FEF7DAFF01F082FD10B901F077FDF9E710
:1054500001F07CFD23780BB902232370002322780E
:105460004F498DF800304B4B1A2000FB02121B787D
:105470004C494A48FEF7C0FF1AB0BDE8F08700BFAC
:10548000C9400D0020BB0D00D1E50320D4E5032069
:10549000A8B90D0015440D0060BB0D00CDB90D007D
:1054A000A2DF0320D5B90D0092DF0320DDB90D0086
:1054B000D8E50320ECB90D00D5E50320ECB40D00D0
:1054C000C0DB032018BA0D00C8DB032029BA0D0089
:1054D000D0DB03203ABA0D00D8DB03204DBA0D0013
:1054E000E0DB03205FBA0D00E8DB032071BA0D009A
:1054F000F1400D00FBB90D00C1450D0007BA0D00CC
:1055000045450D0029B50D00A9440D00794A0D004F
:1055100014BA0D00CD4A0D0025BA0D00214B0D0027
:1055200036BA0D00754B0D0049BA0D00C94B0D0080
:105530005BBA0D001D4C0D006DBA0D000D410D0044
:105540007EBA0D00A1410D008CBA0D0041460D0040
:105550009BBA0D0074E4032008E4032068BB0D002F
:10556000B0DB0320B8DF0320B1DB032070E00320B1
:10557000B2DB032028E10320B3DB0320E0E10320BA
:10558000B4DB032098E20320B5DB032050E30320C3
:1055900018E4032091DF032053B90D0038E4032001
:1055A000F0DB03204CB90D002DE9F04F7D4B7E4C14
:1055B0007E4FDFF870A201261E707D4B022200256F
:1055C0001A707C4BA36089B02560A580A571304618
:1055D00001F04EFC3A467849204603F0F1F829469E
:1055E000304601F055FC3146042001F0A9FA03F0E1
:1055F000BFF8724C01462B464FF40052204600F093
:1056000025FA6F4B23603A466E49204603F0D8F8DE
:1056100003F0AEF86C4C0146204600F08DFC2046AD
:105620006A4C6B493A4603F0CBF86A494FF4006282
:10563000204601F0F7F8684B23603A466749204658
:1056400003F0BEF8664B04930DF11008654C664BF1
:10565000236098E8030002AA04F10C0382E8030027
:1056600093E8030088E8030092E8030083E803005E
:105670005E4B6361A36907935D4B2571A560A361D0
:105680005C4A06952346CDE900554FF47A7104F142
:10569000080001F0FDF94046FEF746FE3A4656493D
:1056A000204603F08DF8554B554CDE611D8483F880
:1056B0002260002323606360A360E3602361636171
:1056C000A361E36123626362A362E3622946182255
:1056D00004F1300003F016FF2946182204F14800B7
:1056E00003F010FF2946182204F1600003F00AFFBE
:1056F0002946182204F1780003F004FF29462022ED
:1057000004F1900003F0FEFE2946202204F1B000CF
:1057100003F0F8FE3B4A3C493C4B91F800C03C4941
:1057200093F800E03B4B0D78C3F800E092ED007B6E
:10573000D2E90289D2E9046783ED027BC3E90689D5
:10574000C3E90A67C3F810C01D62334B9AF800A082
:105750001C78324BC3F810A0D2E908ABC3E906AB02
:10576000DFF8C4A01C609AF800A0C3F820A0D2E91A
:105770000601D2E90AABC3E90201C3E90AAB284B2F
:1057800083ED027BC3E90689C3E90A67C3E90E0119
:10579000C3F800E0C3F810C01D621C6309B0BDE887
:1057A000F08F00BF91DF0320E0DE0320A0DE0320A6
:1057B00090DF03200000FFFFC7420D0008E4032034
:1057C000F0BA0D0065420D0074E4032038E40320B4
:1057D000C35C0D0000F40320C8BA0D003D420D006B
:1057E000D9420D0018E40320B4BA0D00D9400D00D1
:1057F000D5400D008D420D003D430D00D4E5032042
:1058000090E40320C0DB0320B1DB0320B0DB0320E6
:10581000B2DB032030DF0320B3DB032060DF032093
:10582000F0DE0320B4DB0320B5DB03200000000022
:1058300082B02DE9F84F0AA981E80C00344BDFF85B
:10584000D4B00022C0E90423044640F27E654FF044
:10585000000ABDF8280002F05BFFD4E9048920604B
:1058600003F032FA42464B4606460F4603F0DEF896
:1058700052465B4603F092FA42464B4603F0D8F894
:1058800002460B46C4E904233046394603F0CEF8FD
:1058900002460B46C4E9022303F080FA02460B4697
:1058A000C4E90623D4E9082303F0C2F8013D064603
:1058B0000F46C4E90867CCD1DDE90C0110A3D3E998
:1058C000002303F06BFA10A3D3E900238046894636
:1058D0003046394603F08CFB41EC100B02F07EFFA2
:1058E00000220023C4E9082351EC100B42464B462A
:1058F00003F054FABDE8F84F41EC100B02B07047CA
:105900006666666666664A3F0000000000F89940D9
:105910000000A0400000503F034BC162002280ED18
:105920000E0BC0E91C2370470000A04000000000DF
:105930002DE9F74FDFF8C8B00191044600254FF07C
:10594000000A019B9D422FD0A08D02F0E1FED4E918
:105950001C89E06403F0B8F942464B4606460F4600
:1059600003F064F852465B4603F018FA42464B4691
:1059700003F05EF802460B46C4E91C233046394664
:1059800003F054F802460B46C4E9182303F006FA64
:1059900002460B46C4E92423D4E9260103F048F863
:1059A0000135C4E92601CCE713A3D3E90023D4E9E8
:1059B0000E0103F0F3F9064628460F4603F074F98A
:1059C00002460B46D4E9260103F012FB41EC100B12
:1059D00002F004FF32463B4651EC100B03F0DEF9B7
:1059E00041EC100B00220023C4E90801C4E926237E
:1059F00003B0BDE8F08F00BF6666666666664A3F24
:105A00000000503F704710B51021044602F0DDFE43
:105A1000204610BD0368C9B29B6818470EB410B584
:105A20008DB00FAA016852F8044B03920023202086
:105A3000CDE90403CDE900421E2004AA01F008FAD2
:105A40000DB0BDE8104003B07047000030B5034D05
:105A5000C0E90223C0E9005130BD00BFA0BB0D006A
:105A6000406801F01BBF10B50446006801F059FF03
:105A7000204610BD2DE9F0418AB0044640680190EF
:105A800001F046FF1E22002102A8A76803F03AFD9C
:105A90000026EFB123681E2FB84628BF4FF01E081E
:105AA000DD6802AA434631462046A847054658B954
:105AB0000A480B493246FFF7B1FF01A8FFF7D3FFB1
:105AC00028460AB0BDE8F081A7EB08074644E0E7A6
:105AD00001A8FFF7C8FF0125F2E700BF18E6032081
:105AE0006CBB0D002DE9F7430446406801900D465C
:105AF00016461F4601F00CFFA7B1E168606841F04F
:105B0000500101F0FEFE290A6068FFF783FF294675
:105B10006068FFF77FFF6068002101F0F5FE48B183
:105B2000002400E0012401A8FFF79DFF204603B0F8
:105B3000BDE8F083202F217B6068B84628BF4FF076
:105B400020080123424641F0500101F0C4FE02F05A
:105B50000FFE03681B6998474045E1DB06EB080927
:105B600002F006FE03685B69984706F8010B4E4594
:105B7000F6D14544A7EB0807BEE72DE9F74F0446E9
:105B8000406801900E4690461D4601F0C1FE4FF060
:105B90000109B9F1000F2AD04DB3E168606841F006
:105BA000500101F0AEFE310A6068FFF733FF606814
:105BB0003146FFF72FFFA5F11E0A4746A6EB080B5B
:105BC000606817F8011B0368013D9B6898475545BD
:105BD0000BEB0706B84601D0002DF1D1606801211A
:105BE00001F092FE0028D7D04FF00009D1E701A8BC
:105BF000FFF739FF484603B0BDE8F08F2DE9F043C9
:105C00008BB00E4615468046406801901C4601F058
:105C10007FFEAE4229D2264425448CB11E2C274655
:105C2000D8F8003028BF1E27F61BD3F8089002AA28
:105C30003B4631464046ED1BC84748B9002400E0CA
:105C4000012401A8FFF70FFF20460BB0BDE8F08349
:105C5000D8F8003002AAD3F80C9029463B464046BB
:105C6000C8470028EAD0E41BD7E7E9D9002CE7D0E1
:105C7000D8F800301E2C274628BF1E27D3F80890DE
:105C800002AA3B4631464046C8470028D6D0D8F83D
:105C9000003002AAD3F80C9029463B464046C8473C
:105CA0000028CBD03E443D44E41BDFE74020704752
:105CB0000020704780207047FF2070477047704772
:105CC0007047704710B51421044602F07EFD20464F
:105CD00010BD10B50821044602F077FD204610BD26
:105CE00010B50821044602F070FD204610BD10B525
:105CF0001C21044602F069FD204610BD2DE9FF413C
:105D00000368DB680446984710220146684603F0A2
:105D1000F9FB236820469B689847002507462846DC
:105D2000BD420ED27E1B2368102E28BF1026D3F84A
:105D300018806A46334629462046C04708B1354494
:105D4000EEE704B0BDE8F0814FF48073438140F288
:105D50000113C360002303827047000008B5064B9F
:105D60000360064B436040F20473038100234374D5
:105D7000FFF7EAFF08BD00BF80BC0D000001020371
:105D800003090A2200F00F0002FB0300704708B568
:105D9000807AFFF7F5FF00F5FA6008BDC07A00F0E1
:105DA0001F00FFF7EDBF007B00F03F00FFF7E8BFEB
:105DB00008B5817B4A060DD501F01F00FFF7E0FF13
:105DC0008B0603D50C2800D00C3008BD0C2808BF6A
:105DD0000020FAE7BDE8084001F03F00FFF7D0BF20
:105DE000C07B00F07F00FFF7CBBF007C00F07F009E
:105DF000FFF7C6BF10B58AB024220446002101A8CF
:105E000003F080FB2046FFF7C2FFA0F26C70069003
:105E10002046FFF7C3FF013805902046FFF7C3FF78
:105E200004902046FFF7C4FF03902046FFF7D8FFF9
:105E300002902046FFF7D9FF019001A801F07EF9FA
:105E40000AB010BD0A2190FBF1F292FBF1F301FBC5
:105E500013231B01DBB201FB12001843C0B27047D1
:105E6000642310B5044691FBF3F000FB1310FFF719
:105E7000E9FFA07210BD10B504460846FFF7E2FF27
:105E8000E07210BD10B504460846FFF7DBFF237B28
:105E900023F03F031843207310BD10B50446481C7F
:105EA000FFF7D0FF637B23F007031843607310BD37
:105EB00010B504460846FFF7C5FFA07310BD10B526
:105EC00004460846FFF7BEFFE07310BD10B5044658
:105ED0000846FFF7B7FF237C23F07F0318432074A5
:105EE00010BD37B504466846CDE9002303F0D0FA6B
:105EF000054641692046FFF7B3FF29692046013175
:105F0000FFF7B9FFE9682046FFF7BCFFA969204603
:105F1000FFF7C3FFA9682046FFF7CAFF696820465C
:105F2000FFF7CDFF29683B29A8BF3B212046FFF79B
:105F3000CDFF03B030BD0000054A0061C0E900217B
:105F4000044A8260044AC260044A80614261704728
:105F5000B4BC0D00000001035CBC0D0090BC0D0042
:105F60002DE9F84F04460F469046994600260A9BB5
:105F70009E4231D26068394601F0BFFC08EB060151
:105F80006068FFF747FD6068002101F0BDFC054631
:105F9000D0B90A9B60689A1B202A4FF0010328BFE2
:105FA0002022394601F097FC09EB060B05460BEB66
:105FB000000ADA4506D0606803685B6998470BF809
:105FC000010BF6E72E44D2E7024604490448FFF7E6
:105FD00025FD2846BDE8F88F0025FAE7B4BB0D0083
:105FE00004E603202DE9F34101EB03081E46036894
:105FF0009B6805460C461746984780450DD82034C7
:10600000686800963B46E2B26F21FFF7A9FFB0FA3D
:1060100080F0400902B0BDE8F0810020FAE72DE9E8
:10602000F34101EB03081E4603689B6804460D46D6
:106030001746984780450CD8606800963B46EAB200
:106040005721FFF78DFFB0FA80F0400902B0BDE89C
:10605000F0810020FAE77FB51E1E0CBF0723062340
:106060000093144602AB0A466F21FFF779FF0546FD
:10607000A8B99DF8083023749DF80930E3739DF8A2
:106080000A30A3739DF80B3063739DF80C302373B3
:106090009DF80D30E3722EB99DF80E30A37228469C
:1060A00004B070BD02F092F8FFF7CCFEA072F6E7E4
:1060B0001FB501230A4600936F2103ABFFF750FF82
:1060C00020B99DF80C0005B05DF804FB0020FAE74C
:1060D00008B50321FFF7ECFFC0F3401008BD38B549
:1060E00000230C460A4619460546FFF7B4FF30B9AF
:1060F000A37A23B12846BDE83840FFF7E9BF002066
:1061000038BD7FB5024601A8FFF728FE01A9104659
:10611000FFF7E5FF28B101A8FFF76CFE07B05DF8B7
:1061200004FB00200146F9E7D0B5044686B040687C
:1061300001F0B4FB02F010F8E8B9E37A9B071AD536
:106140002046FFF7DEFF06460F4656EA070312D049
:1061500001F009FF0A4B0B491B68009332463B468E
:1061600002A801F0B7FF0848029A0849FFF756FC59
:1061700002A801F095FD0123237206B0D0BD00BF37
:10618000C0DC032044E6032004E60320CEBB0D0060
:106190002DE9F84F0646884691469A4600250A9B07
:1061A0009D4229D27068414601F0A7FB706809EB57
:1061B0000501FFF72FFC0A9B5F1B1F2F28BF1F271E
:1061C0000AEB050407EB040B706814F8011B026866
:1061D00092689047A345F7D17068012101F094FBC4
:1061E000044638B1024605490548FFF717FC20462A
:1061F000BDE8F88F3D44D2E70024F8E7E3BB0D008B
:1062000004E603202DE9F34101EB03081E46036871
:106210009B6805460C461746984780450DD82034A4
:10622000686800963B46E2B26F21FFF7B1FFB0FA13
:1062300080F0400902B0BDE8F0810020FAE71FB508
:10624000137C8DF80830D37B8DF80930937B8DF863
:106250000A30537B8DF80B30137B8DF80C30D37ADA
:106260008DF80D30937A8DF80E30072300930A468F
:1062700002AB6F21FFF78CFF05B05DF804FB10B592
:1062800088B0044603A80193FFF768FD019B03A8AB
:10629000FFF727FE9DF81C30A27A63F07F038DF88C
:1062A0001C309DF819306AB143F0080303AA00219D
:1062B00020468DF81930FFF7C2FFB0FA80F0400990
:1062C00008B010BD03F0F703F0E70000F0B587B0A9
:1062D000054601F041FF0446E8B101F05AFFC71737
:1062E000024606463B462846FFF7C9FF0C4B0D49C0
:1062F0001B68009332463B46044602A801F0EAFEC2
:106300000948029A0949FFF789FB02A801F0C8FC75
:10631000204607B0F0BD06490348FFF77FFBF7E7CB
:10632000C0DC032044E6032004E60320FEBB0D008E
:1063300014BC0D0037B5457A04469DB901F00CFF39
:1063400080B10022002369462846CDE9002300F0F1
:106350002DFE38B1E37ADB0702D52046FFF7B6FF02
:106360000123637203B030BD1FB501238DF80C20EB
:1063700000930A4603AB6F21FFF70AFF05B05DF8F3
:1063800004FBF8B504460D4617461E46FFF790FE7F
:1063900000EA0702324329462046BDE8F840FFF7ED
:1063A000E3BF012908B50CD800294FF0000314BF42
:1063B000DF22EF220721FFF7E4FFB0FA80F0400967
:1063C00008BD0020FCE738B5044632256068572137
:1063D00001F093FA6068012101F096FA08B1013DDD
:1063E000F4D138BD2DE9F04104460F46164602EBC4
:1063F0000308B04520D06068572101F07EFA394685
:106400006068FFF707FB606816F8011B03689B686C
:1064100098476068012101F077FA0137054638B1E5
:10642000024606490648FFF7F9FA2846BDE8F0811A
:106430002046FFF7C8FFDCE70025F6E729BC0D0082
:1064400004E60320F7B5CF181E46036801929B6847
:1064500004460D46984787420AD8019A6068334639
:10646000E9B2FFF7BFFFB0FA80F0400903B0F0BD1A
:106470000020FBE7014B024A1A60704704E6032044
:106480004ABC0D00012A034602D10160002070477A
:10649000022A04BFD1E90001C3E90001F6E710B503
:1064A000012303748368044643B1C06898470123FD
:1064B00063740020BDE8104000F032BB0068002883
:1064C000F5D083680BB902F086F9C368EEE710B423
:1064D00042680346541001EB6200D20748BF0A59D4
:1064E0001B685DF8044B48BFD35818470123F7B524
:1064F00080F829300646083000F0EAFA0420FDF75B
:10650000CAFD054698B31B49142002F060F930B16A
:106510000023C0E90033C0E90233037443742860E8
:10652000A0B1154B1549C0E902364FF40063CDE91F
:1065300000030222124B043000F092FA30B92B68AB
:106540001B7CA3B9012000F00BFBF8E72C680023AB
:106550002B6064B1276837B13846FDF7E5FE10219E
:10656000384602F032F91421204602F02EF9756007
:1065700003B0F0BD4CBF0D008B670D00BCBC0D001F
:106580009F640D0047F23051084AC160084902601B
:106590000022C0E904120749C16107494260C0E90D
:1065A00008228161028580F82A20704780BD0D0095
:1065B000F5680D00CF640D0085640D0010B5044B27
:1065C000044640F8103BFDF7AFFE204610BD00BF6B
:1065D00080BD0D0010B5034B03600446FFF7EEFFCE
:1065E000204610BDA8BD0D0010B50446FFF7F2FF10
:1065F0002046382102F0E9F8204610BD806800F0FE
:106600006FBA806800F074BA10B504460068FFF7EE
:10661000F8FF204610BD13B504460190FFF7EEFFCA
:10662000E36ADC88A4B20CB103F1080401A8FFF707
:10663000EBFF204602B010BD13B504460190FFF7F2
:10664000DDFF94F8283043B9E26A0124D38001A821
:10665000FFF7DAFF204602B010BD0024F7E713B5BC
:1066600004460190FFF7CAFFE36A01A8DC88FFF740
:10667000CBFF204602B010BD2DE9F047994686B009
:1066800090F829309DF838A09DF83C8004460F46CC
:10669000164613B903689B689847314B3846002E5D
:1066A00008BF1E4602F089FF0546304602F085FF0E
:1066B000284400F10A05AB071CBF25F0030504358B
:1066C0003346CDE90285CDE9009A264926483A4667
:1066D000FFF7A4F9238E083BAB4212D200242046D8
:1066E00006B0BDE8F087CB88012B36D005A8FFF7B0
:1066F0008BFF236894F828109B6920469847002850
:10670000ECD020460594FFF779FFE16A228E636B97
:106710000A44D21AAA42E6D348EA0A0883F8048057
:10672000C3F80090636B03F108083946404602F055
:106730001FFF404602F041FF01303146404402F065
:1067400017FF636BE26A1D446563D3880133D3800E
:10675000012405A8FFF758FFC1E70024F9E700BFAF
:1067600074BF0D00CEBC0D0008E6032008B504463A
:1067700000F11005A3690BB902F02DF8E369214679
:106780002846984700F074F9F4E708B5FFF7EEFFE4
:1067900068B501F108050646284602F00EFF0130F3
:1067A0000544284602F009FFF36A01302844C31A61
:1067B00013F003031CBFC3F10403C01868BDF7B591
:1067C00004460E460190FFF719FFE76AFB8807F1C0
:1067D0000805E6B1012B22D929462046FFF7D8FF4C
:1067E000054629462046FFF7D3FF228E3A44121A67
:1067F0000146A0EB050602D0284602F069FE636B55
:106800009B1B6363FB88013BFB80012601E0002B9F
:10681000E7D101A8FFF7F8FE304603B0F0BD00262F
:10682000F7E700002DE9F0470D4604462F461646CF
:10683000FFF7A8FE154B57F8082B2360144BE562B1
:106840009A422686984617D1AB889BB2B34213D1A1
:1068500005EB060A67634FF00009EB881FFA89F21F
:106860009BB29A420ED2616B2046FFF791FF5045D2
:10687000606309F10109F0D90023C5F8008067635E
:10688000AE80EB802046BDE8F08700BFA8BD0D00BC
:1068900061AB9CD110B5D1E9002386B0002104463C
:1068A00004910AB9D90705D5CDE902230F4B059309
:1068B0000F4B049302AB93E803006A4682E803009F
:1068C00094E8030083E8030092E80300049A84E854
:1068D0000300A168A260059A04911846E168E2608D
:1068E0000591FDF721FD204606B010BDCF640D00D7
:1068F00085640D0007B5054B0093694600231030F1
:106900000193FFF7C7FF03B05DF804FB3D690D007D
:1069100013B5044600F034F9636AC01AE36898427C
:1069200008D3054B00936946002304F1100001933E
:10693000FFF7B0FF02B010BD3D690D002DE9F04139
:1069400090F82A3086B00446002B64D100F0FEFA9D
:10695000002860D000F014F9636AC01A40F2F133E5
:10696000984258D9236820465B6998470546002815
:1069700051D000F10807012384F82830384602F08E
:106980001CFE95F80480CDF8048001302B682B495B
:1069900000933E1833462A483A46FFF73FF82B68E3
:1069A0008DF800803246394602A800F085FD029D30
:1069B0006B781BB9012000F0C9FBF8E7002000F05C
:1069C0006FFA20B16B7813B900F0B8FAFAE72B78B8
:1069D000012B23D11B491A48FFF720F82368002117
:1069E0009B6920469847002384F8283000F0C8F8B7
:1069F0006062039C7CB16368013B63605BB92368A0
:106A000020469B689847A368013BA3601BB9236895
:106A10002046DB68984706B0BDE8F081E2680A4985
:106A20000748FEF7FBFF094B049304A9002304F178
:106A300010000593FFF72EFFD5E700BF0FBD0D0037
:106A400008E6032030BD0D0047BD0D0011690D00A3
:106A5000014B024A1A60704708E603206EBD0D0024
:106A600008B5024B1B685B68019308BD4802030030
:106A700008B5024B1B68DB68019308BD48020300A0
:106A800008B5024B1B68DB69019308BD480203008F
:106A900008B5024B1B681B6A019308BD480203003E
:106AA00008B5024B1B685B6A019308BD48020300EE
:106AB00008B5024B1B689B6A019308BD480203009E
:106AC00008B5024B1B68DB6A019308BD480203004E
:106AD00008B5024B1B681B6B019308BD48020300FD
:106AE00008B5024B1B689B6B019308BD480203006D
:106AF00008B5024B1B681B6C019308BD48020300DC
:106B000008B5024B1B685B6C019308BD480203008B
:106B100008B5024B1B689B6C019308BD480203003B
:106B200008B5024B1B68DB6E019308BD48020300E9
:106B300008B5024B1B681B6F019308BD4802030098
:106B400008B5024B1B685B6E019308BD340203005D
:106B500008B5024B1B685B68019308BD180203006F
:106B600008B5024B1B689B68019308BD180203001F
:106B700008B5024B1B68DB68019308BD18020300CF
:106B800008B5024B1B685B69019308BD180203003E
:106B900008B5024B1B689B6D019308BD18020300EA
:106BA00008B5024B1B68DB6D019308BD180203009A
:106BB00008B5024B1B685B6E019308BD1802030009
:106BC00008B5024B1B689B6E019308BD18020300B9
:106BD00008B5024B1B685B68019308BD2C020300DB
:106BE00008B5024B1B689B68019308BD2C0203008B
:106BF00008B5024B1B68DB68019308BD2C0203003B
:106C000008B5024B1B681B69019308BD2C020300E9
:106C100008B5024B1B689B69019308BD2C02030059
:106C200008B5024B1B68DB69019308BD2C02030009
:106C300008B5024B1B681B6B019308BD2C020300B7
:106C400008B5024B1B68DB68019308BD28020300EE
:106C500008B5024B1B689B69019308BD280203001D
:106C600008B5024B1B68DB69019308BD28020300CD
:106C700008B5024B1B681B6A019308BD280203007C
:106C800008B5024B1B685B6A019308BD280203002C
:106C900008B5024B1B689B6A019308BD28020300DC
:106CA00008B5024B1B68DB6A019308BD280203008C
:106CB00008B5024B1B681B6B019308BD280203003B
:106CC00008B5024B1B685B6B019308BD28020300EB
:106CD00008B5024B1B681B6C019308BD280203001A
:106CE00008B5024B1B689B6C019308BD280203008A
:106CF00008B5024B1B68DB6C019308BD280203003A
:106D000008B5024B1B681B6D019308BD28020300E8
:106D100008B5024B1B685B69019308BD6402030060
:106D200008B5024B1B689B68019308BD680203000D
:106D300008B5024B1B68DB68019308BD68020300BD
:106D400008B5024B1B68DB69019308BD30020300E4
:106D500008B5024B1B681B6A019308BD3002030093
:106D600008B5024B1B681B68019308BD3C02030079
:106D700008B5024B1B68DB68019308BD3C020300A9
:106D800008B5024B1B681B69019308BD3C02030058
:106D900008B5024B1B685B69019308BD3C02030008
:106DA00008B5024B1B689B69019308BD3C020300B8
:106DB00008B5024B1B68DB69019308BD3C02030068
:106DC00008B5024B1B681B6A019308BD3C02030017
:106DD00008B5024B1B689B6A019308BD3C02030087
:106DE00008B5024B1B681B68019308BD4C020300E9
:106DF00008B5024B1B681B69019308BD4C020300D8
:106E000008B5024B1B685B69019308BD4C02030087
:106E100008B5024B1B689B69019308BD4C02030037
:106E200008B5024B1B68DB69019308BD4C020300E7
:106E300008B5024B1B681B6A019308BD4C02030096
:106E400008B5024B1B685B6B019308BD6002030031
:106E500008B5024B1B685B6D019308BD600203001F
:106E600008B5024B1B681B68019308BD2002030094
:106E700008B5024B1B685B68019308BD2002030044
:106E800008B5024B1B685B69019308BD2002030033
:106E900008B5024B1B68DB6A019308BD20020300A2
:106EA00008B5024B1B68DB6C019308BD2002030090
:106EB00008B5024B1B685B6D019308BD20020300FF
:106EC00008B5024B1B689B6D019308BD20020300AF
:106ED00008B5024B1B68DB6D019308BD200203005F
:106EE00008B5034B1B68D3F88830019308BD000038
:106EF0002002030008B5034B1B68D3F894300193BC
:106F000008BD00002002030008B5034B1B68D3F83E
:106F1000AC30019308BD00002002030008B5024B0D
:106F20001B681B68019308BD4402030008B5024BAF
:106F30001B685B68019308BD4402030008B5024B5F
:106F40001B689B68019308BD4402030008B5024B0F
:106F50001B685B69019308BD4402030008B5024B3E
:106F60001B68DB69019308BD4402030008B5024BAE
:106F70001B681B6A019308BD4402030008B5024B5D
:106F80001B685B6A019308BD4402030008B5024B0D
:106F90001B68DB6A019308BD4402030008B5024B7D
:106FA0001B681B6B019308BD4402030008B5024B2C
:106FB0001B685B6B019308BD4402030008B5024BDC
:106FC0001B689B6B019308BD4402030008B5024B8C
:106FD0001B68DB6B019308BD4402030008B5024B3C
:106FE0001B685B68019308BD4002030008B5024BB3
:106FF0001B689B68019308BD4002030008B5024B63
:107000001B68DB68019308BD4002030008B5024B12
:107010001B681B69019308BD4002030008B5024BC1
:107020001B685B69019308BD4002030008B5024B71
:107030001B689B69019308BD4002030008B5024B21
:107040001B68DB69019308BD4002030008B5024BD1
:107050001B681B6A019308BD4002030008B5024B80
:107060001B681B6B019308BD4002030008B5024B6F
:107070001B685B6B019308BD4002030008B5024B1F
:107080001B681B68019308BD1C02030008B5024B76
:107090001B685B68019308BD1C02030008B5024B26
:1070A0001B689B68019308BD1C02030008B5024BD6
:1070B0001B681B69019308BD1C02030008B5024B45
:1070C0001B68DB69019308BD1C02030008B5024B75
:1070D0001B68DB6A019308BD1C02030008B5024B64
:1070E0001B681B6B019308BD1C02030008B5024B13
:1070F0001B68DB6B019308BD1C02030008B5024B43
:107100001B685B6C019308BD1C02030008B5024BB1
:107110001B689B6C019308BD1C02030008B5024B61
:107120001B68DB6C019308BD1C02030008B5024B11
:107130001B681B6D019308BD1C02030008B5024BC0
:107140001B685B6D019308BD1C0203000021FFF763
:1071500097BE10B5836804460BB901F03CFBC368C9
:107160009847A3681BB10322214620469847204632
:107170001021BDE8104001F028BB10B5036804469B
:107180009B689847A368013BA3602BB923682046FE
:10719000DB68BDE81040184710BD10B50446006814
:1071A00008B1FFF7B5FC204610BD0B68036013B1B2
:1071B0005A6801325A60704710B50446006828B119
:1071C0004368013B43600BB9FFF7D7FF204610BD72
:1071D00010B5064C002320462360FFF791FC2046A3
:1071E000034A0449BDE8104001F0EABA0CE6032066
:1071F000A0DE03209B710D0070470020704710B582
:107200001021044601F0E1FA204610BD08B5FFF751
:10721000F6FF08BD30B500224FF69C7402608480F2
:107220008D888C800C68858004600A6030BD10B544
:1072300004460068FFF72AFF204610BD38B5C46831
:10724000F4B12378022B03D104F10C00FFF7EFFF18
:10725000656835B12846FDF767F81021284601F02A
:10726000B4FAA56835B12846FDF75EF81021284626
:1072700001F0ABFA20461421BDE8384001F0A5BA70
:1072800038BD10B588B00446684600F054FD694624
:1072900004A800F073FD04A8A047044604A800F069
:1072A000FFFC684600F0FCFC204608B010BD1FB58E
:1072B0000023CDE90201019210241A4669461846BE
:1072C000ADF80230ADF80040FFF730FE04B010BD5D
:1072D00073B50E46044656F8043B00930D4601A8CC
:1072E0003146FFF762FF019A009B6260236001A8AC
:1072F000002301930093FFF75FFF3046FFF75CFF29
:107300002846082101F061FA204602B070BD13B58D
:107310000B460246D0E900016C4684E8030093E87E
:10732000030082E8030094E8030083E8030002B04E
:1073300010BD826810B50AB901F04DFABDE81040E1
:10734000C368184708B5006800F11001FFF7F1FFA6
:1073500008BD826810B50AB901F03DFABDE81040D9
:10736000C368184708B5006800F11001FFF7F1FF86
:1073700008BD000038B500230446036010200D4608
:10738000FCF789FE28B10123C0E90133024B0360F9
:10739000C5602060204638BDD0BD0D0038B5002343
:1073A00083608B6804460D462BB102229847EB6838
:1073B000E360AB68A360204638BD0000F0B589B03B
:1073C00004686846FFF726FF4FF00203D4E84F2F0A
:1073D000002A03D1C4E8413F0029F7D125D104F1A7
:1073E0000C0569462846FFF715FFBFF35B8F0123A5
:1073F0006370002004F10803BFF35B8F53E8006F54
:1074000043E80002002AF9D1BFF35B8F6EB1FFF7AA
:1074100047FD78B129463046FFF78BFF3046FCF731
:1074200083FF1021304601F0D0F96846FFF7FFFED8
:1074300009B0F0BD314602A8FFF7B0FFE068B4F92B
:10744000105008B102F09CF806901020ADF81C50C6
:10745000FCF721FE0546E8B1002787601820FCF7FD
:107460001AFE044688B10146876002A8FFF74FFF65
:10747000049BA268A360059B049206A9E268E360EE
:1074800004F110000592FFF7C5FE084BEB60084BB6
:107490002C60AB6006A8FFF7CAFE02A8FCF744FF09
:1074A000002229460348FFF703FDB7E745730D00A7
:1074B000DD750D0053710D002DE9F0478AB00546CA
:1074C0009DF848900C4617469846FFF73FFD07AEDB
:1074D000824638BB4FF62E73059005A93046ADF8AD
:1074E0001830FFF797FE1420FCF7D5FD044648B18D
:1074F000022303700123C0E901AA437031460C3016
:10750000FFF788FE2846214640F8044BFFF732FF7C
:107510003046FFF78CFE05A8FFF789FE28460AB023
:10752000BDE8F0870C234FF0000A1420CDE908AA2B
:107530000793FCF7B0FD014628B1C0E901AA80F825
:1075400000A080F801A004A80391FFF713FF224BCD
:1075500008930820FCF79FFD824628B1039B40F862
:10756000043B04A9FFF721FE00965FFA89F3424627
:1075700039462046CDF824A0FFF7F8FCB8B9039BA4
:107580005B7803F0FF0293B94FF69C7305A903A83B
:107590000592ADF81830FFF711FF05A8FFF747FE79
:1075A00005A80999FFF794FE06A8FFF705FE039BBF
:1075B000059304A906A8FFF7F8FD059B069A2B6022
:1075C0006A60002306A806930593FFF7F5FD04A85B
:1075D000FFF7F2FDA2E700BFA1760D00022AF8B581
:1075E000054607D0032A18D0012A01D10B68036091
:1075F0000020F8BD18200E68FCF74DFD044650B180
:107600003146FFF7CBFE3069B6F9147008B101F0CE
:10761000B7FF2061A7822C60EAE70468002CE7D05E
:1076200004F11000FFF703FE2046FCF77DFE182151
:10763000204601F0CAF8DBE738B5002383608B6889
:1076400004460D462BB102229847EB68E360AB6815
:10765000A360204638BD022A70B5044607D0032A2D
:1076600012D0012A01D10B680360002070BD1420E4
:107670000E68FCF710FD054620B13146FFF7DCFF30
:10768000337C2B742560F0E70468002CEDD0204695
:10769000FCF74AFE1421204601F097F8E5E70000C8
:1076A000F0B589B004460D4601A81146FFF710FE5B
:1076B000A4B124B21DB1284601F062FF054601A81D
:1076C00003A90395ADF81040FFF778FE03A8FFF774
:1076D000AEFD02A8FFF770FD09B0F0BD019D0123CA
:1076E000D5E84F2F002A03D1C5E8413F0029F7D143
:1076F000EFD12B73BFF35B8F6B702B1DBFF35B8FD1
:1077000053E8006F43E80042002AF9D1BFF35B8FD2
:10771000002EDED02046FFF7C3FB074660B105F11F
:107720000C013046FFF715FE3046FCF7FDFD102139
:10773000304601F04AF8CCE7314603A8FFF77CFF5A
:107740002B7B8DF81C301020FCF7A5FC0546D0B132
:1077500087601420FCF79FFC044678B187600146DF
:1077600003A8FFF7D4FD059BA268A360069B0592C2
:10777000E268E3609DF81C3006922374064BEB60D0
:10778000064B2C60AB6003A8FCF7CEFD0022294617
:107790000348FFF78DFBC7E765730D0057760D00B3
:1077A00053710D00002240681146FFF74FBC0022C4
:1077B00040681146FFF75ABC40680022FFF74EBCF4
:1077C0004068002281F00101FFF738BC00234068C7
:1077D0001A461946FFF72ABC002340681A46194684
:1077E000FFF71CBC002240681146FFF70FBC0022C7
:1077F00040681146FFF7FABB406800220221FFF7FC
:10780000FDBB002340681A46FFF7E8BB024B03228A
:107810005A60024A1A60704710E60320ECBD0D0062
:107820007047F8B5064615460C468F18BC4206D080
:10783000336814F8011B9B6830469847F6E72846E2
:10784000F8BD007C0022FFF713BA007C0021FFF78F
:1078500017BA007C0021FFF71BBA007C0021FFF75C
:107860001FBA007C0021FFF723BA10B5142104468B
:1078700000F0ABFF204610BD10B54FF47A730446FC
:1078800008460021C4E90113034B2360207411460C
:10789000FFF71EFA204610BD20BE0D000023007C1D
:1078A0001A461946FFF7CCB97FB500221423CDE95B
:1078B0000122ADF804300B788DF808304B68039343
:1078C000CB680493007C0B7A059301A9FFF718FAA3
:1078D00007B05DF804FB1FB5003B8DF800104FF0BA
:1078E0006401039118BF0123694601928DF80830A5
:1078F000FFF7DAFF05B05DF804FB007C0022FFF71C
:10790000A7B9C9B2FFF7F9BF007C0022FFF7A8B9F9
:1079100008B50021007CFFF7E3F9B0FA80F04009D8
:1079200008BD08B50021007CFFF7E2F9B0FA80F04D
:10793000400908BD004700002DE9FF4100241D4615
:107940000F4690460646FFF76BF9A5424FF0040339
:10795000ADF80D408DF80C308DF80F40A2BF9DF8AA
:1079600028308DF80E3003AC0749009443463A4660
:107970003046A8BF8DF80D50FFF74AF9B0FA80F0F5
:10798000400904B0BDE8F08135790D00704710B5AD
:107990001821044600F019FF204610BDF0B5037D04
:1079A000062B8DB00E4600F104074FF0000412D0F4
:1079B00000F1080515F8011D0A22304600F033F9E0
:1079C000AF42044419D0002CF4D02E21304600F0F0
:1079D00027F90444EEE72F236A4639460A208DF83A
:1079E0000040FFF795F9684601F0E7FD336802466D
:1079F000DB68694630469847044620460DB0F0BD26
:107A000010B5054B0446112240F8043B002101F05B
:107A100079FD204610BD00BF48BE0D000346074A51
:107A200010B543F8042B01F1100251F8044B43F850
:107A3000044B9142F9D10A781A7010BD48BE0D006E
:107A400010B59DF8084044EA032343EA024242EAA3
:107A5000016104234160037510BD13B5CB78009319
:107A60008B784A780978FFF7EBFF02B010BD000071
:107A7000014B024A1A60704718E6032054BE0D00FD
:107A8000002340681A46FFF7A9BA40680022022185
:107A9000FFF7B4BA002240681146FFF7A7BA0022E8
:107AA00040681146FFF7B2BA002340681A461946EB
:107AB000FFF7B4BA002340681A461946FFF7B6BA72
:107AC0004068002281F00101FFF7B8BA4068002247
:107AD000FFF7C4BA002240681146FFF7C7BA002278
:107AE00040681146FFF7B2BA2DE9F043002495B083
:107AF00016460D460746FFF783FF214618220EA8BB
:107B0000009401F0FFFC4023CDE90C3421466B4684
:107B10000CAA3046FFF70CF90446002846D102466D
:107B200001216868FFF772FA0221804622466868E0
:107B3000FFF76CFA009E81462146002E36D00029C0
:107B400034D17368022B03D00A2B0BD0F669F4E70B
:107B5000B8F1000F04D0716938460431FFF77DFF9A
:107B60004146F3E7B9F1000F01D14946EEE77469E8
:107B7000102201A801F0C6FC06238DF8143001ADD7
:107B800004F108031834186859682A4603C20833F8
:107B9000A3421546F7D101A906A807ADFFF73EFF9E
:107BA0000FCD3C1D0FC42B682370DEE70098FFF754
:107BB000B7F8384615B0BDE8F0830000024B034A21
:107BC0001A6000225A6070471CE6032060BE0D0058
:107BD000F8B506460D468F180024BD420CD0336818
:107BE00015F8011B9B6830469847031E01DB1C44B7
:107BF000F3E7002C08BF1C462046F8BD13B5044629
:107C0000084659B1019101F0D8FC23680199DB685D
:107C10000246204602B0BDE81040184702B010BD31
:107C200003689B68184730B58BB000238DF824306B
:107C3000012A98BF0A2209AC0D46B1FBF2F101FB03
:107C4000125303F0FF03092B94BF30333733DBB2F9
:107C5000AA4204F8013DEFD92146FFF7CFFF0BB050
:107C600030BD10B50446FCF75FFB204610BD000098
:107C70000348044A04490023836000F0A1BD00BF0B
:107C800024E60320A0DE0320637C0D0010B504462B
:107C900008462170FFF754F800236360204610BDAA
:107CA00010B504460068FFF7F1F9204610BD10B585
:107CB0000446006808B1FFF7E9F90023C4E901337D
:107CC000236010BD38B504460D4600680131FFF74A
:107CD000E5F910B1C4E90005012038BD10B503680D
:107CE000044623B143688B4201D3012010BD2046D6
:107CF000FFF7E8FF0028F9D0A368002BF5D1226830
:107D00001370F2E737B50D46114601920446FFF7AE
:107D1000E5FF019A28B92046FFF7C9FF204603B0C6
:107D200030BDA2602946206801F0C4FB2268A36828
:107D30000021D154F2E7002313B5C0E90033044613
:107D40008360037341B10846019101F036FC01994B
:107D500002462046FFF7D6FF204602B010BD8842FB
:107D600010B5044605D00B682BB18A681946FFF799
:107D7000C9FF204610BDFFF79AFFFAE710B50023B0
:107D80000446C0E9003383600373FFF7E8FF204631
:107D900010BD13B5044659B10846019101F00DFC20
:107DA000019902462046FFF7ADFF204602B010BD04
:107DB000FFF77DFFF9E710B504468AB00023C4E958
:107DC0000033A3602373084601A900F091FB01A9C9
:107DD0002046FFF7DEFF20460AB010BD70B505460D
:107DE0000E4609B9002070BD6AB18468144421466A
:107DF000FFF774FF0028F5D02868AB6831461844B7
:107E000001F0B6FBAC600120EDE713B5044629B9DB
:107E10002046FFF74CFF204602B010BD08460191F6
:107E200001F0CBFB019902462046FFF7D7FF00285F
:107E3000EED0F0E708B582683AB921B10878B0FA17
:107E400080F0400900E0012008BD006809B9007811
:107E5000F5E701F083FBF2E708B5006840B101F0F7
:107E600001FB51EC100B01F069FA00EE100A08BD9D
:107E70009FED010AFBE700BF0000000007B50B46BD
:107E800000210246009101208C21FFF73DF803B04C
:107E90005DF804FB01460020FFF7F0BF0020FFF76C
:107EA000F9BF000010B5094B094C022200201A60EE
:107EB000084B2060A080A071A360FEF7D9FF204688
:107EC000054A0649BDE8104000F07ABC40E60320B0
:107ED00034E603200000FFFFA0DE0320C7420D00B0
:107EE0002DE9F041154ADFF86080D2E90032C01870
:107EF00042EB0101124AD2E90032C61841EB0207F7
:107F0000D8E90023BB4208BFB2428CB013D003A90A
:107F10006846CDE90067FFF701F9089B094D03F2B8
:107F20006C7303AC08930FCC0FC50FCC0FC5C8E919
:107F3000006723682B600CB0BDE8F08178E6032071
:107F400070E603204CE6032080E6032008B50020FD
:107F5000FFF724F828B1FEF7F9FF80F00100C0B266
:107F600008BD0120FCE71FB502460B46684600210C
:107F7000CDE90023CDE90211FEF722FE024610B939
:107F80000146FEF7A5FF05B05DF804FB30B50446D9
:107F90001848D0E90010521840EB03031648D0E906
:107FA0000010521893B040EB0303CDE900232422C4
:107FB0000DEB0200002101F0A5FA002509A9684691
:107FC000FFF7ACF81622294603A8029501F09AFAA9
:107FD00002A909A801F020FA02A801F0EEFA12ABFA
:107FE000184402A900F8415C2046FFF7A4FE204691
:107FF00013B030BD78E6032070E603202DE9F04F82
:10800000A5B00746884614A811463F221D4601F038
:10801000EEFA002314A88DF88F3001F0CEFA044652
:108020005DBB2A4903A801F0A3FA14AE002504F1B0
:10803000FF3BAB4536D9B14605F1010A19F8013BC2
:10804000252B17D173787A2B14D103A801F0B5FA38
:1080500014AB044628181844ABEB0502B11C01F020
:1080600029FA224603A9304601F024FA14A801F0A7
:10807000A4FA04464E465546D9E73C2195FBF1F358
:10808000002BB8BF5B42B3FBF1F201FB123300934C
:108090000F4A4FF46163102103A895FBF3F3FFF738
:1080A0000DF8C2E700212E2208A8079101F02AFA54
:1080B000434614AA322107A8FFF728F807A9384633
:1080C000FFF739FE384625B0BDE8F08F8CBE0D00B5
:1080D0008EBE0D00F0B58DB0CDE90023129D044693
:1080E00015B9194B1D682DB1184B2846196801F0B8
:1080F00035FA38B9DDE900232046FFF747FF20466F
:108100000DB0F0BD124E0099124FD6E900325B1847
:10811000019941EB0202D7E900011B1841EB020271
:10812000CDE900320021242203A801F0EBF903A9D4
:108130006846FEF7F3FF32683B6803A91344204604
:108140002A46FFF75BFFDAE748E60320C0DC03209E
:1081500078E6032070E6032010B50020FEF718FD36
:108160000446A0B9FEF77CFE012810D12046FEF798
:10817000A7FE60B9FFF7EAFE10B9FEF7DFFEF9E7E8
:10818000FFF7E4FEBDE810400020FEF701BD2046E9
:1081900010BD1FB5FFF7E0FF10220021684601F077
:1081A000B1F900216846FEF703FD009805B05DF8BF
:1081B00004FB000008B5FFF7ECFFC117FFF790FEC6
:1081C000014B986808BD00BF4CE6032008B5FFF7D7
:1081D000E0FFC117FFF784FE014B586908BD00BFDF
:1081E0004CE60320024B1A68024B1A60704700BF2E
:1081F000C0DC032048E6032070474174704708B58F
:10820000007CFEF7E5FD20EAE07008BD08B5007CC3
:10821000FEF7B6FD20EAE07008BD08B5007CFEF769
:10822000BFFD40EAE07008BD08B5007CFEF7B0FD78
:1082300040EAE07008BD007CFEF7BABD37B5457C6A
:1082400004462DB1207C03B0BDE83040FEF790BD60
:10825000007C0191FEF7BCFD00280199F2DC284664
:1082600003B030BD10B51421044600F0AEFA20462C
:1082700010BD000010B54FF0000C04460846114632
:108280004FF47A72C4E901C2044A226001222074C8
:1082900062741A46FEF764FD204610BDC0BE0D0094
:1082A00013B50E4C2178BFF35B8F11F0010112D191
:1082B00020460191FBF700FF019960B1084A094B84
:1082C0000948FFF7D7FF2046FBF7FBFE074A08499E
:1082D000054800F075FA044802B010BD88E6032096
:1082E0008CE6032010E7032094E70320A0DE0320A0
:1082F000F9810D0041747047704708B50021007C7A
:10830000FEF786FD40EAE07008BD08B50121007C5B
:10831000FEF77EFD40EAE07008BD08B5007CFEF780
:108320006FFD20EAE07008BD08B5007CFEF760FD37
:1083300020EAE07008BD13B50446007C0191FEF709
:108340005FFD0028019901DC607C20B1207CFEF7F4
:1083500067FD20EAE07002B010BD007CFEF768BD4A
:1083600010B51421044600F030FA204610BD00007C
:1083700010B54FF47A73044608460021C4E901138E
:10838000044B23600123207463741146FEF728FD1B
:10839000204610BDF0BE0D0010B514220446002189
:1083A00001F0B0F8204610BD10B5104C88B003A8FD
:1083B000FFF7F2FF2178BFF35B8F11F0010111D1BC
:1083C00020460191FBF778FE019958B103AA0848AD
:1083D000FFF7CEFF2046FBF774FE064A0649044825
:1083E00000F0EEF9024808B010BD00BFA8E7032076
:1083F000ACE70320A0DE0320F9820D0000224068D4
:108400001146FEF703BE002240681146FEF71EBE6D
:10841000002240681146FEF729BE40680022FEF7A0
:108420001DBE4068002281F00101FEF707BE002357
:1084300040681A461946FEF7F9BD002340681A46FF
:108440001946FEF7EBBD002240681146FEF7CEBD8F
:10845000406800220221FEF7D1BD002340681A4681
:10846000FEF7BCBD024B04225A60024A1A607047F4
:10847000C0E7032020BF0D0010B5044601F09DF8B1
:10848000013823182046834206D90278197800F86B
:10849000011B03F80129F6E710BD70B50C46911ECB
:1084A0002229054622D820466DB1B5FBF2F602FB23
:1084B0001655E9B2092D94BF30315731C9B200F8D1
:1084C000011B3546F0E7024623443021934202D98E
:1084D00002F8011BFAE71A1A834238BF0022002370
:1084E00083542046FFF7C8FF204670BD0020FCE7FC
:1084F00038B5031E0C4615460EDAB3F1004F4FF0A7
:108500002D0214BF5842184601230A702A46194406
:10851000FFF7C3FF204638BD0123F9E7014B186080
:10852000704700BFC8DC032008B50B4B43B1FFF711
:108530003BFF03681B699847002801DDAFF300800B
:10854000064B43B1FFF7ACFE03681B699847002850
:1085500001DDAFF3008008BD000000000000000056
:1085600008B5FFF7E1FFFEF70BFB014B186008BDF4
:10857000DCE703200248034A0349121A00F09ABFBD
:1085800000F4032004FC032050C20D0007B50023B3
:1085900000931A466FF07701FEF7ACFC03B05DF86C
:1085A00004FB000007B543880A2B08D0502B0BD1E1
:1085B000094B1B684BB103B05DF804EB1847FFF79C
:1085C000E5FF03B05DF804FB002300931A466FF04B
:1085D0007701FEF78FFCF4E7CCE7032038B5124CA7
:1085E0001248134D0021FEF789FD2368AB42114B61
:1085F0000CBF012200221A7002D0FFF7BBFF2560DA
:10860000FEF7A6FA044600F085FF0B4B13B1204697
:10861000AFF3008000210848FEF7D8FCBDE83840E1
:1086200006480021FEF75CBC00FC03201D850D0000
:108630001E1C279AC8E7032000000000A5850D0036
:10864000232813B502D9002002B010BDA0F10B03FE
:10865000022B1AD8174C2178BFF35B8F11F0010160
:108660000BD120460191FBF727FD019928B1124853
:10867000FFF70CFB2046FBF724FD0F4B1878FEF7A5
:1086800067FB0028DFD10120DEE7012809D800F0D0
:108690006FF80021007CFEF713FB80F00100C0B2F0
:1086A000D2E709380128EED8FFF7FAFD007CFEF783
:1086B00087FBF2E7D0E70320D4E70320232838B56F
:1086C00004460D460AD8FF2908D0FFF7B9FF28B1A4
:1086D00029462046BDE83840FEF782BA38BD38B595
:1086E00004460D46FEF784FAFF2810D0062804D869
:1086F0004D2323FA00F0C30709D42046FFF7A0FF5B
:1087000028B129462046BDE83840FEF779BA38BD81
:108710000D2810B504469CBF0E34A4B22046FFF7C6
:108720008FFF50B103212046FEF752FA032804D1EF
:108730002046BDE81040FEF77BBA002010BD0000C7
:1087400038B5002320254380142304460380856028
:1087500005610649284600F03CF804496060284657
:1087600000F037F8E060204638BD00BF4CBF0D0078
:1087700030B50F4D2978BFF35B8F11F0010487B03E
:1087800013D12846FBF798FC78B101A8FFF7D8FF72
:1087900001AA21460748FFF76FF82846FBF791FC2E
:1087A000054A0649034800F00BF8024807B030BDFF
:1087B000E0E70320E4E70320A0DE032021780D009A
:1087C0000B460146184600F055BEFBF768BCFBF7A8
:1087D00062BCFBF762BC08B5FEF778FC2DE9F043FC
:1087E0002DED028B8BB055EC104B00F055F8284B5B
:1087F000B0EE408AF0EE608A93F900707B1C12D0D4
:1088000022462B462046294600F062FD064650B916
:108810004FF000084FF000092046294642464B46DB
:1088200000F02EFD40B9B0EE480AF0EE680A0BB039
:10883000BDEC028BBDE8F083164B08960122CDE912
:108840000445CDE902450092019397B142464B465B
:108850004046494600F0CCFB022FCDE906010AD183
:10886000FEF744FC21230360089B63B99DED068B52
:10887000D9E7CDE90689684600F0D2F80028EFD0A4
:10888000089B002BF2D0FEF731FC089B0360EDE75C
:10889000C4DC032050BF0D002DE9F0415F4A57ECC6
:1088A000106BBA4300F09880002F10EE104A3B4640
:1088B0004EDD39155BD0C3F31303CA0743F48013AD
:1088C000A1F2FF3E03D45B0003EBD4736400E20F1C
:1088D0004FF0000C02EB43034FEA6E0E6400664655
:1088E00016254FF40012B118994202DC5B1A8E185B
:1088F00094445B00013D03EBD4734FEA52024FEA0C
:108900004404F0D12F4620204FF0004209E03ED031
:10891000E10F01384FEA520201EB43034FEA4404EE
:108920003ED0B34202EB0501F1DD002901EB020567
:1089300009DBB0469B1BA14288BF03F1FF33641AD9
:1089400017444646E4E7002DF3DB06F10108F1E7A2
:1089500027F00042324336D0002F4DD13946E20A8B
:10896000153964051346002AF9D0D70251D40020E6
:108970005B00DE02054600F10100F9D51A462346E8
:108980008440C0F12000C3401343491B93E7A14238
:10899000BED8002901EB0205D5DB98460023CEE7BF
:1089A000234312D178084FEA6C0101F17F511CF08A
:1089B000010F01F5001118BF40F0004001EB0E530C
:1089C000024643EC102BBDE8F0817B1C16BF781CDF
:1089D0000CF1010C4008E6E710EE102A10EE100A28
:1089E0003B46394600F0DAF932463B4600F020F8C3
:1089F00041EC100BBDE8F08110EE102A30463946EC
:108A000000F014F802460B4600F0F2FA41EC100BAD
:108A1000D9E7234620204FF0FF35B4E70000F07F70
:108A20000020704781F0004102E000BF83F0004366
:108A300030B54FEA41044FEA430594EA050F08BFF9
:108A400090EA020F1FBF54EA000C55EA020C7FEABD
:108A5000645C7FEA655C00F0E2804FEA5454D4EB3A
:108A60005555B8BF6D420CDD2C4480EA020281EA04
:108A7000030382EA000083EA010180EA020281EA3C
:108A80000303362D88BF30BD11F0004F4FEA01318E
:108A90004FF4801C4CEA113102D0404261EB41019D
:108AA00013F0004F4FEA03334CEA133302D0524223
:108AB00063EB430394EA050F00F0A780A4F10104DF
:108AC000D5F1200E0DDB02FA0EFC22FA05F2801819
:108AD00041F1000103FA0EF2801843FA05F35941FF
:108AE0000EE0A5F120050EF1200E012A03FA0EFC7E
:108AF00028BF4CF0020C43FA05F3C01851EBE371A8
:108B000001F0004507D54FF0000EDCF1000C7EEBC4
:108B100000006EEB0101B1F5801F1BD3B1F5001F02
:108B20000CD349085FEA30004FEA3C0C04F1010421
:108B30004FEA445212F5800F80F09A80BCF1004F4A
:108B400008BF5FEA500C50F1000041EB045141EACC
:108B5000050130BD5FEA4C0C404141EB0101013C95
:108B600028BFB1F5801FE9D291F0000F04BF014684
:108B70000020B1FA81F308BF2033A3F10B03B3F156
:108B800020020CDA0C3208DD02F1140CC2F10C02E6
:108B900001FA0CF021FA02F10CE002F11402D8BF44
:108BA000C2F1200C01FA02F120FA0CFCDCBF41EA10
:108BB0000C019040E41AA2BF01EB0451294330BDDF
:108BC0006FEA04041F3C1CDA0C340EDC04F11404BC
:108BD000C4F1200220FA04F001FA02F340EA030093
:108BE00021FA04F345EA030130BDC4F10C04C4F1D9
:108BF000200220FA02F001FA04F340EA03002946B9
:108C000030BD21FA04F0294630BD94F0000F83F402
:108C1000801306BF81F480110134013D4EE77FEAE5
:108C2000645C18BF7FEA655C29D094EA050F08BF31
:108C300090EA020F05D054EA000C04BF1946104612
:108C400030BD91EA030F1EBF0021002030BD5FEA56
:108C5000545C05D14000494128BF41F0004130BD7E
:108C600014F580043CBF01F5801130BD01F00045D2
:108C700045F0FE4141F470014FF0000030BD7FEA45
:108C8000645C1ABF194610467FEA655C1CBF0B4640
:108C9000024650EA013406BF52EA033591EA030F57
:108CA00041F4002130BD00BF90F0000F04BF00214F
:108CB000704730B54FF4806404F132044FF0000582
:108CC0004FF0000150E700BF90F0000F04BF0021FB
:108CD000704730B54FF4806404F1320410F0004561
:108CE00048BF40424FF000013EE700BF42004FEA5C
:108CF000E2014FEA31014FEA02701FBF12F07F43D9
:108D000093F07F4F81F06051704732F07F4208BF8F
:108D1000704793F07F4F04BF41F40021704730B596
:108D20004FF4607401F0004521F000411CE700BFE2
:108D300050EA010208BF704730B54FF000050AE065
:108D400050EA010208BF704730B511F0004502D566
:108D5000404261EB41014FF4806404F132045FEA68
:108D6000915C3FF4D8AE4FF003025FEADC0C18BF11
:108D700003325FEADC0C18BF033202EBDC02C2F103
:108D8000200300FA03FC20FA02F001FA03FE40EA95
:108D90000E0021FA02F11444BDE600BF70B54FF099
:108DA000FF0C4CF4E06C1CEA11541DBF1CEA135577
:108DB00094EA0C0F95EA0C0F00F0DEF82C4481EADF
:108DC000030621EA4C5123EA4C5350EA013518BFFF
:108DD00052EA033541F4801143F4801338D0A0FBEC
:108DE00002CE4FF00005E1FB02E506F00042E0FB99
:108DF00003E54FF00006E1FB03569CF0000F18BF9F
:108E00004EF0010EA4F1FF04B6F5007F64F5407446
:108E100004D25FEA4E0E6D4146EB060642EAC621D9
:108E200041EA55514FEAC52040EA5E504FEACE2E46
:108E3000B4F1FD0C88BFBCF5E06F1ED8BEF1004F49
:108E400008BF5FEA500E50F1000041EB045170BDC5
:108E500006F0004646EA010140EA020081EA030109
:108E6000B4EB5C04C2BFD4EB0C0541EA045170BD05
:108E700041F480114FF0000E013C00F3AB8014F17F
:108E8000360FDEBF002001F0004170BDC4F10004C8
:108E9000203C35DA0C341BDC04F11404C4F1200549
:108EA00000FA05F320FA04F001FA05F240EA0200A4
:108EB00001F0004221F0004110EBD37021FA04F6DA
:108EC00042EB06015EEA430E08BF20EAD37070BD94
:108ED000C4F10C04C4F1200500FA04F320FA05F0F3
:108EE00001FA04F240EA020001F0004110EBD370F5
:108EF00041F100015EEA430E08BF20EAD37070BD65
:108F0000C4F1200500FA05F24EEA020E20FA04F33D
:108F100001FA05F243EA020321FA04F001F00041EC
:108F200021FA04F220EA020000EBD3705EEA430E5D
:108F300008BF20EAD37070BD94F0000F0FD101F08C
:108F40000046400041EB010111F4801F08BF013CC5
:108F5000F7D041EA060195F0000F18BF704703F003
:108F60000046520043EB030313F4801F08BF013D8A
:108F7000F7D043EA0603704794EA0C0F0CEA135546
:108F800018BF95EA0C0F0CD050EA410618BF52EA00
:108F90004306D1D181EA030101F000414FF0000006
:108FA00070BD50EA410606BF1046194652EA430614
:108FB00019D094EA0C0F02D150EA013613D195EA88
:108FC0000C0F05D152EA03361CBF104619460AD1D0
:108FD00081EA030101F0004141F0FE4141F47001DA
:108FE0004FF0000070BD41F0FE4141F4780170BDCA
:108FF00070B54FF0FF0C4CF4E06C1CEA11541DBF2F
:109000001CEA135594EA0C0F95EA0C0F00F0A7F830
:10901000A4EB050481EA030E52EA03354FEA01315D
:1090200000F088804FEA03334FF0805545EA131370
:1090300043EA12634FEA022245EA111545EA106538
:109040004FEA00260EF000419D4208BF964244F1CF
:10905000FD0404F5407402D25B084FEA3202B61AEE
:1090600065EB03055B084FEA32024FF480104FF4C2
:10907000002CB6EB020E75EB030E22BFB61A754636
:1090800040EA0C005B084FEA3202B6EB020E75EBC9
:10909000030E22BFB61A754640EA5C005B084FEA31
:1090A0003202B6EB020E75EB030E22BFB61A7546FE
:1090B00040EA9C005B084FEA3202B6EB020E75EB09
:1090C000030E22BFB61A754640EADC0055EA060ECA
:1090D00018D04FEA051545EA16754FEA06164FEA0D
:1090E000C30343EA52734FEAC2025FEA1C1CC0D1B9
:1090F00011F4801F0BD141EA00014FF000004FF046
:10910000004CB6E711F4801F04BF01430020B4F106
:10911000FD0C88BFBCF5E06F3FF6AFAEB5EB030CBE
:1091200004BFB6EB020C5FEA500C50F1000041EBBB
:10913000045170BD0EF0004E4EEA113114EB5C0488
:10914000C2BFD4EB0C0541EA045170BD41F480115B
:109150004FF0000E013C90E645EA060E8DE60CEA63
:10916000135594EA0C0F08BF95EA0C0F3FF43BAF80
:1091700094EA0C0F0AD150EA01347FF434AF95EA37
:109180000C0F7FF425AF104619462CE795EA0C0F1B
:1091900006D152EA03353FF4FDAE1046194622E7E8
:1091A00050EA410618BF52EA43067FF4C5AE50EAC2
:1091B00041047FF40DAF52EA43057FF4EBAE12E7B2
:1091C0004FF0FF3C06E000BF4FF0010C02E000BF93
:1091D0004FF0010C4DF804CD4FEA410C7FEA6C5C76
:1091E0004FEA430C18BF7FEA6C5C1BD001B050EA19
:1091F000410C0CBF52EA430C91EA030F02BF90EA04
:10920000020F0020704710F1000F91EA030F58BFC2
:10921000994208BF90422CBFD8176FEAE37040F024
:10922000010070474FEA410C7FEA6C5C02D150EAC2
:10923000013C07D14FEA430C7FEA6C5CD6D152EA7D
:10924000033CD3D05DF8040B704700BF8446104642
:1092500062468C461946634600E000BF01B5FFF741
:10926000B7FF002848BF10F1000F01BD4DF808ED11
:10927000FFF7F4FF0CBF012000205DF808FB00BFE2
:109280004DF808EDFFF7EAFF34BF012000205DF83C
:1092900008FB00BF4DF808EDFFF7E0FF94BF012089
:1092A00000205DF808FB00BF4DF808EDFFF7CEFF8A
:1092B00094BF012000205DF808FB00BF4DF808EDC9
:1092C000FFF7C4FF34BF012000205DF808FB00BF9A
:1092D0004FEA410C7FEA6C5C02D150EA013C0AD1B2
:1092E0004FEA430C7FEA6C5C02D152EA033C02D1A4
:1092F0004FF0000070474FF0010070474A0011D254
:1093000012F5001211D20DD56FF47873B3EB6252DF
:109310000ED44FEAC12343F0004343EA505323FAEB
:1093200002F070474FF00000704750EA013002D160
:109330004FF0FF3070474FF0000070474FEA410296
:10934000B2F1E04324BFB3F5001CDCF1FE5C0DD9A3
:1093500001F0004C4FEAC0024CEA5070B2F1004FED
:1093600040EB830008BF20F00100704711F0804FF0
:1093700021D113F13872BCBF01F00040704741F4B5
:1093800080114FEA5252C2F11802C2F1200C10FAB9
:109390000CF320FA02F018BF40F001004FEAC1239D
:1093A0004FEAD32303FA0CFC40EA0C0023FA02F341
:1093B0004FEA4303CCE77FEA625307D150EA013317
:1093C0001EBF4FF0FE4040F44000704701F00040E7
:1093D00040F0FE4040F40000704700BFD0B50C4B99
:1093E000002206460F46FFF7D9FCFFF787FF044629
:1093F000FFF75AFC074B0022FFF7D0FC02460B4652
:1094000030463946FFF712FBFFF778FF2146D0BD03
:109410000000F03D0000F04110B50C4641690369C1
:10942000826986B001F26C71049101680391416810
:10943000029181680191C1680091074903EB4303E0
:109440000B44064902EB42020A4420460449FDF758
:109450002DFE204606B010BD8ABF0D0075BF0D0061
:1094600055BF0D00002100F0FDBE0A22002100F0D2
:109470007FBF000010B5054C13462CB10A460146CB
:109480000220AFF3008010BD2046FCE70000000082
:1094900038B5074B1D68EB6B04461BB92420FDF75C
:1094A000EDFDE863E96B2046BDE83840FDF73EBEC0
:1094B000C8DC03200A44914200F1FF3300D1704719
:1094C00010B511F8014B03F8014F9142F9D110BDCD
:1094D000884210B501EB020402D98442234607D822
:1094E000431EA14208D011F8012B03F8012FF8E721
:1094F000024401468A4200D110BD13F8014D02F822
:10950000014DF7E702440346934200D1704703F848
:10951000011BF9E738B50D4B1D68AB6B04467BB9F1
:109520001820FDF7ABFD0A4A0A4BA863C0E90023E7
:10953000094B83600B23838101220023C0E90423AC
:10954000AB6B00221C615A6138BD00BFC8DC032030
:109550000E33CDAB34126DE6ECDE050010F8012BB6
:1095600011F8013B012A28BF9A42F7D0D01A704760
:10957000034611F8012B03F8012B002AF9D170479B
:10958000024B0146186800F003B800BFC8DC032096
:1095900037B5044608460D4600F00FF8421C114648
:1095A00020460192FDF79AFD044618B1019A29461A
:1095B000FFF780FF204603B030BD034613F8012BB0
:1095C000002AFBD1181A0138704710B56AB1013969
:1095D000841810F8013B11F8012F934203D1A042E7
:1095E00001D0002BF5D1981A10BD1046FCE710B53C
:1095F0000139034632B111F8014F03F8014B013A2A
:10960000002CF7D11A440021934200D110BD03F879
:10961000011BF9E770B504460D4645EC104B1646A4
:1096200001F01CFD51EC100B7EB1C5F30A53C3F1E0
:109630006B03002B09DD1B0503F17F55002405F5A5
:10964000401522462B46FFF7A9FB70BD0000000025
:109650002DE9F04FA3B01F4600231E93A44B19928F
:109660001B680793044618468846FFF7A6FF4FF08D
:10967000000A05464FF0000BCDF874801D9B1A7848
:109680002B2A4CD039D80D2A32D8082A32D8002AB1
:109690003CD000230E931D9E3378302B40F0B480D5
:1096A000737803F0DF03582B6CD10E9B01931EAB34
:1096B000029700938F4A1FAB1DA9204600F0CAFEF7
:1096C00010F00707054605D0062F2AD101360023E2
:1096D0001D960E93199B002B40F096850E9BDBB1D7
:1096E00052460BF1004343EC102B23B0BDE8F08F42
:1096F000202ACED101331D93C0E72D2AC9D10122E2
:109700000E925A1C1D925B78002BC4D1199BCDF888
:109710007480002B40F0768552465B46E3E70022DA
:10972000EEE71E9A3AB1352120A801F096FD1E9968
:10973000204601F0CBF9013F052F07D8DFE807F0FD
:109740000E0B181D0E034FF0000BDA462807C1D58B
:109750004BF0004BBEE7DDE920ABF7E7DDE920A3E6
:109760001F9A23F4801302F2334243EA025BEDE7CF
:10977000DFF884B14FF0000AE8E76FF0004B4FF0DC
:10978000FF3AE3E71D9B5A1C1D925B78302BF9D002
:10979000002B9FD001234FF0000904931D9B0A93D7
:1097A000CDF824904F460A221D980678A6F1300382
:1097B000D9B209292AD907992A46FFF706FF98B393
:1097C000002033463D4607900246652B01D0452BCD
:1097D00018D11DB9049B034398D00025DDF874808F
:1097E00008F101031D9398F801302B2B75D02D2B18
:1097F0007BD04FF0000CA3F13001092940F28280A8
:10980000CDF8748000269DE00023C4E7082FD8BF60
:10981000099900F10100DABF02FB0133099302FB51
:10982000093901371D90BFE71D9B5A191D925B5DD9
:10983000002F37D007903D46A3F13002092A12D9F4
:109840000122C2E71D9B5A1C1D925B780130302B10
:10985000F8D0A3F13102082A00F2DB841D9A0790A8
:1098600000200A920546303B00F1010214D007990E
:10987000114407912A4600EB050E0A21724513D1C7
:109880002A18082A05F1010505441CDC09990A2259
:1098900002FB0133099300221D9B591C1D915B782B
:1098A0001046C9E73846D2E7082A04DC099E4E4331
:1098B00009960132E2E702F1010CBCF1100FD8BFAA
:1098C00001FB09F9F5E7102DDCBF0A2202FB09397B
:1098D000E1E70023079301227CE74FF0000C08F139
:1098E00002031D9398F8023085E74FF0010CF6E76C
:1098F00014C10D00BCBF0D000000F07F1D9B591C62
:109900001D915B78302BF9D0A3F1310108293FF686
:1099100079AFA3F1300E1D9B08931D9B591C1D911F
:109920005B78A3F13006092E37D9089E891B0829D8
:1099300044F61F6602DC7645A8BF7646BCF1000FF0
:1099400000D07642002D4FD1049901437FF4C2AE7E
:10995000002A7FF4DBAE692B27D024DC492B24D0EE
:109960004E2B7FF4D3AE9E491DA800F0B9FF00280E
:109970003FF4CCAE1D9B1B78282B2DD1994920AAF2
:109980001DA800F0C1FF052826D1219BDDF880A08D
:1099900043F0FF4B4BF4E00B9CE60A2101FB0E3E2B
:1099A000AEF1300EB9E76E2BDBE78F491DA800F052
:1099B00097FF00283FF4AAAE1D9B8C49013B1DA8D0
:1099C0001D9300F08DFF10B91D9B01331D93DFF82F
:1099D0002CB24FF0000A7DE6854801F091FC8DED38
:1099E000040BDDE904AB75E6079B0998F31A002F19
:1099F00008BF2F46102D0893A846A8BF4FF01008A7
:109A0000FFF752F9092D82468B4613DD794B03EBA4
:109A1000C80353E91223FFF7C1F9824648468B4633
:109A2000FFF742F902460B4650465946FFF700F849
:109A300082468B460F2D38DC089B002B3FF44AAE44
:109A400024DD162B0BDC6B4D05EBC305D5E90001BE
:109A500052465B46FFF7A2F982468B463AE6089AE1
:109A6000C5F12503934220DB624CC5F10F0504EBE1
:109A7000C50152465B46D1E90001FFF78FF9089B0B
:109A80005D1B04EBC504D4E90023E3E7089B163310
:109A90000BDB079B574A9E1B02EBC606D6E9002349
:109AA00050465946FFF7A4FAD6E7089BA5EB0808ED
:109AB0009844B8F1000F71DD18F00F030AD04D493A
:109AC00001EBC30152465B46D1E90001FFF766F99D
:109AD00082468B4638F00F084DD0B8F59A7F22DDCC
