:02000002D0002C
:1040000000400D00389C0D00000006000C0005016A
:084010000401DB0700000000C1
:04401800708A0D009D
:1040200009480A49884208B505D0094A824202D0A7
:10403000121A04F0FBFB0748074A0021121A04F089
:104040001DFC014808BD00BFD0E20320C49A0D004A
:104050001CE4032020E40320F8E7032070B5074E9A
:10406000074C03F0B9FCA41BA4080025A54200D10D
:1040700070BD56F8043B98470135F7E788920D006C
:10408000B4920D0000F0A4BC08B500F0B5FBBDE88B
:10409000084003F063BC02F08BBA02F089BA02F068
:1040A0008FBA000008B5034A00210C2002F062F923
:1040B000FEE700BFA5600D000078B0FA80F040096F
:1040C0007047012303707047014B01221A7070473B
:1040D000F9E5032003681847012A03D0022A03D018
:1040E000002070470160FBE70B680360F8E7000001
:1040F00008B5044903F0E9F818B1034B03221A701C
:10410000012008BDBF8A0D00BCE50320436913B13F
:1041100083690C301847704710B5034B03600446A1
:1041200001F0BEFC204610BDA08C0D0010B5044669
:10413000FFF7F2FF2046382103F045FD204610BD71
:1041400010B5034B0360044600F0C2FE204610BDCC
:10415000C88C0D0010B50446FFF7F2FF2046102171
:1041600003F031FD204610BD13B50021044608467A
:1041700001F020FF0023204601A9019301F032FF46
:10418000019C0CB1012323710021012001F012FFD9
:104190002CB1236820469B6898470023237102B006
:1041A00010BD10B50446006808B102F009FA2046B7
:1041B00010BD0023042202F04BB900001FB5104BC4
:1041C000104A1B781278104913438DF800300022F2
:1041D0003C2302A802F00AFC039C7CB16368013B0B
:1041E00063605BB9236820469B689847A368013BDE
:1041F000A3601BB923682046DB68984704B010BD54
:1042000080E4032081E40320C18A0D0010B5836897
:10421000044613B1032201469847204610BD000012
:1042200037B5134B036004468068C8B100256FF0B2
:104230000043CDE9003502212B462A4601F0DAFE83
:10424000A068294601F00EFF237903F0FF0513B1A2
:1042500001F0A8FEF8E7A068294601F0BBFEA560C2
:1042600004F10C00FFF7D2FF204603B030BD00BFC1
:104270008C8C0D0010B50446FFF7D2FF20461C21A0
:1042800003F0A1FC204610BD07B508220023ADF8BD
:1042900000204FF47A710122019241436A46184688
:1042A000ADF8023002F024F903B05DF804FB07B565
:1042B00080680B46002140B1CDE900210A46032168
:1042C00001F098FEB0FA80F0400903B05DF804FBFD
:1042D00037B504689DF818508DF800308DF80450FB
:1042E000E4683C23A04703B030BD000037B5174D4C
:1042F0000C4659B96B7AF3B1154B8DF800101B7849
:10430000144A15491548FFF7E3FF14E0084604F086
:1043100069FAC83801286B7A0FD84BB100238DF8A1
:1043200000300B4B0E4A1B780E490C48FFF7D0FFAC
:104330000D4B00221A7003B030BD002BFBD00023C0
:104340008DF80030024B22461B78DAE7C0E50320E7
:1043500081E40320C38A0D00CB8A0D0000E5032011
:10436000D88A0D00EA8A0D00B0E4032037B516495B
:10437000054602F0AAFF044688B1144B144A1549B9
:10438000154801245C7200238DF80030134B1B7814
:10439000FFF79EFF124B20461C7003B030BD114941
:1043A000284602F092FF0028F7D0084B0E4A5C72B4
:1043B0000A4B8DF800401B7806490748FFF788FF35
:1043C000074B01201870E8E7BF8A0D00C0E5032005
:1043D000F08A0D00138B0D0000E5032081E403201B
:1043E000E8E50320018B0D00038B0D0037B51C4958
:1043F000054602F06AFF044600B31A4C01236068C8
:104400006370FFF741FF636817484FF47A716FF0EC
:1044100000425943FFF74BFF02F032F848B1002346
:104420008DF80030114B124A1B7812491248FFF7E1
:104430004FFF124B0120187003B030BD10492846C1
:1044400002F043FF0028F7D0064B5C7002F018F82A
:104450000028EED0054B8DF800401B78094AE4E7B0
:10446000BF8A0D00C0E50320D4E4032081E40320CB
:10447000188B0D00138B0D0000E50320E8E50320E9
:10448000018B0D002D8B0D0010B5C4B000680A2201
:1044900003A904F0E3FAB0F5966F22D8124C6060DD
:1044A000FFF7F2FE636811484FF47A7159436FF0D9
:1044B0000042FFF7FCFE63680D4A4FF4807104A8C8
:1044C00002F096F800238DF800300A4B0A491B7859
:1044D0000A4804AAFFF7FCFE094B0120187044B0FB
:1044E00010BD0020FBE700BFC0E50320D4E403209B
:1044F000418B0D0081E403205A8B0D0000E5032061
:10450000E8E5032007B501F0BBFF48B100238DF8B3
:1045100000300B4B0B4A1B780B490C48FFF7D8FEB9
:104520000B4A0C48782353600023012193722823FF
:104530001180517203B05DF804EB00F084BD00BF40
:1045400081E40320658B0D00138B0D0000E5032033
:10455000C0E50320B4E4032010B5124C237A012BEC
:1045600004D901F08DFFD8B1012323726368B3F53C
:10457000966F84BF4FF416736360637A012B84BF18
:1045800000236372A37A012B84BF0023A3726369A3
:10459000FF2B84BF00236361034B01221A7010BDFF
:1045A0002072E3E7C0E50320E8E5032007B5012119
:1045B000052003F092FA0021052003F08EFA094A43
:1045C00000231370084A527A42B18DF80030074B2D
:1045D000074A1B7807490848FFF77AFE03B05DF8E1
:1045E00004FB00BFF9E50320C0E5032081E40320BC
:1045F0007D8B0D00848B0D0000E5032000B5104B72
:104600009DB0186803F070FD0E4ACDE900016421E9
:1046100003A801F0EDFF00238DF800300A4B0B4991
:104620001B780B4803AAFFF753FE0A4B01221A70AE
:1046300001F040FD084B18601DB05DF804FB00BFA1
:1046400088E503208D8B0D0081E40320A18B0D00F4
:1046500000E50320B0E40320FCE5032030B587B07B
:1046600002AC84E80F0006AB13E903008DE80300F9
:104670000F4894E80C0000F0B7FB55EC104B10EE1F
:10468000100A294604F038F80A9B1860094B2046A6
:10469000D3E90023294603F07FFD074B002203F0F6
:1046A000A5FE04F029F80B9B186007B030BD00BFD1
:1046B00028E40320D8E2032000408F4030B5114D9C
:1046C000114C12492A7820788DB01A2303FB02126C
:1046D000009203FB00130E4A282102A801F088FF74
:1046E0002B78237001F0CCFE48B100238DF8003008
:1046F000084B09491B78094802AAFFF7E9FD0DB0EC
:1047000030BD00BFBCE50320F0E40320E0E203205D
:10471000B68B0D0081E40320C48B0D0000E503205F
:1047200030B50D4D0FCD89B001AC0FC495E8070031
:104730000A4B84E807001B7C094808AA02EB8303A4
:10474000102153F81C3C074A01F052FF064B01228E
:104750001A7009B030BD00BFDC8C0D00C0E503202D
:1047600082E40320B88D0D00E8E50320F7B51B4D6A
:10477000002385F82030FFF7D3FF194A194BCDE904
:1047800000520FCBFFF76AFF286803F0ADFC164B11
:1047900006460F46C3E90067144BD3E9002303F034
:1047A00043FB0022002306460F4603F085FF10B9A5
:1047B00007F100431F460E4B00223046394603F0F6
:1047C0007BFF40B1012485F8204002F032FF094B05
:1047D000A8611C70204603B0F0BD00BF88E503202F
:1047E00070E4032060E40320A8E40320F8E403203D
:1047F0000000E03FACE5032037B5614C2378013B76
:10480000042B2AD8DFE803F0970313496A005D4BB5
:104810005B7A2BB15C4B1B78022B01D0FFF74EFF6C
:1048200002F007FFC20718D40323237015E0554B8D
:104830005B7A2BB1544B1B78032B01D0FFF73EFF63
:10484000FFF794FF08B90223EFE7042323704F4BCF
:10485000D3E900014E4BC3E900014E4800F0D0FF00
:104860004D4B1B780BB1FFF7A1FE4C4C23783BB1AD
:104870002823444A4A48012100F0E5FB0023237025
:10488000484C23783BB12423474A4548A02100F0F7
:10489000DAFB0023237003B030BD3A4B5B7A2BB1B7
:1048A000394B1B78042B01D0FFF708FF01F0E8FD1E
:1048B00068B102F0CFFE0C2805D101F0E1FD10B186
:1048C000002001F0FDFDFFF799FE0523ADE7012370
:1048D000237001F0EFFB354B1860BEE7294B5B7A84
:1048E0002BB1294B1B78052B01D0FFF7E7FE304B8E
:1048F0001B781BB902F09DFEC307A4D401F0DAFBBC
:104900002C4B1B68C01A4AF6C8739842A5D901F00F
:10491000D1FB00238DF80030244D274B274A1B780C
:10492000274928602748FFF7D3FC0123237001F0B3
:10493000C1FB286091E7144B1B78012B01D0FFF7D6
:10494000BDFE01F0B7FB194B1B6803F5922303F57D
:104950007873834281D201F093FD48B100238DF832
:104960000030154B184A1B7818491648FFF7B0FC61
:104970004FF4FA6001F084FE02F0E1FC6DE700BF45
:10498000BCE50320C0E50320F0E40320A8E40320F5
:10499000F8E403203CE50320F9E50320E8E50320E3
:1049A000B4E40320ACE5032088E5032038E50320C8
:1049B000B0E40320FCE5032081E403204C910D00CA
:1049C000D58B0D0000E50320EE8B0D00EA8A0D006B
:1049D0002DE9F0470021B8B0082003F06DF801215F
:1049E000052003F069F8FFF7E1FD002300930122A1
:1049F0004FF0FF337549082002F03AFA744B08AAC9
:104A000003F11005174618685968144603C40833A3
:104A1000AB422246F7D119889B78A37021802D22C2
:104A200000216C4C0DF13300002503F027FF04A892
:104A3000257001F02DFD2B467D2218A904A802F057
:104A400056FC2B462A466449CDE9005518A801F0CA
:104A50002FFD62496248FFF7ACFB62496248FFF7ED
:104A6000A8FB62496248FFF7A4FB62496248FFF76E
:104A7000A0FB62496248FFF79CFB624962482B46F3
:104A8000022201F0E5FC2B4660496148012201F059
:104A9000DFFC604A6049614801F0A3FE604A614959
:104AA0005E4801F09EFE604A60495C4801F099FE54
:104AB000574A5F49594801F094FE5E4800F09AFD5C
:104AC00029465C4800F0D3FE5B48442101F055FACA
:104AD00048B95A49384603F007FF0123237001F013
:104AE000E9FA574B1860574800F020FA012355485F
:104AF0000DF10F02002100F05BFA9DF80F30022B40
:104B000037D0504800F01CFA4F4A4E480423002189
:104B100000F099FA01234B480DF10F02002100F03B
:104B200047FA9DF80F30022B20D001232370474D08
:104B3000FFF712FD6B788BB3002001F0CBFA4FF03A
:104B4000000A0646002001F0C5FAB0EB060861EB4A
:104B50000A09002347F22F524B4508BF42450FD3A5
:104B600001F08EFC60B901F083FCEBE7FFF7CAFCB3
:104B7000DDE7364A33482823012100F019FAD6E749
:104B800001F07EFC6868FFF77FFB6B6830484FF4EC
:104B90007A716FF000425943FFF789FBFFF7E6FD9A
:104BA0006B7A4BB100238DF800302A4B2A491B78D1
:104BB0002A483A46FFF78CFB23780BB9022323706F
:104BC00004A802F009FB38B0BDE8F087C9400D0029
:104BD000F88C0D00BCE50320ED420D00388D0D0072
:104BE000028C0D00E9E503200A8C0D00C4E40320CB
:104BF000168C0D0092E403201F8C0D0082E403202C
:104C0000278C0D00C4E50320368C0D00C1E5032080
:104C10001F8B0D00458C0D00F1400D00B7670D0096
:104C2000518C0D006D430D005A8B0D0089440D0011
:104C3000ED430D003CE50320B0E503205E8C0D0044
:104C400038E50320B4E40320408D0D00C0E50320C7
:104C5000D4E4032081E403207B8C0D0000E50320D5
:104C6000454BF0B501271F70444B454C454E022281
:104C70001A70454B454A1A600025454BA36089B020
:104C80002560A580A571384601F08CFB324641496C
:104C9000204602F093FF2946384601F093FB39463F
:104CA000042001F0E7F93C483C4C01F043F902F0E4
:104CB0005DFF2B4601464FF40052204600F02CF9D0
:104CC000374B236032463749204602F077FF02F027
:104CD0004DFF354C0146204600F094FB2046334CF6
:104CE0003349324602F06AFF32494FF400622046EF
:104CF00000F0FEFF304B236032463049204602F080
:104D00005DFF2F4B049304AF2E4C2F4B236097E88D
:104D1000030002AA04F10C0382E8030093E80300F5
:104D200087E8030092E8030083E80300274B6361F0
:104D3000A3690793264BA361264A25712346A560E4
:104D40004FF47A71CDE9005504F10800069501F0A1
:104D500039F93846FFF75AFA32461F49204602F021
:104D60002DFF1E4A1E4B12781A601E4AD2E900011E
:104D7000C3E9020109B0F0BD81E4032080E403200F
:104D800074E4032020E4032088E50320ECD1B5423D
:104D90000000FFFFA3410D00B0E50320B4E40320B1
:104DA000C88C0D0041410D003CE5032000E50320C7
:104DB0008F510D0000F40320A08C0D0019410D004F
:104DC000BD410D00D4E403208C8C0D00D9400D00B2
:104DD000D5400D0069410D0021420D00D0E20320B5
:104DE00060E4032058E5032082B02DE9F84F0AA9BA
:104DF00081E80C00344BDFF8D4B00022C0E9042372
:104E0000044640F27E654FF0000ABDF8280002F02B
:104E10007DFED4E90489206003F054F942464B46F4
:104E200006460F4603F000F852465B4603F0B4F91D
:104E300042464B4602F0FAFF02460B46C4E9042301
:104E40003046394602F0F0FF02460B46C4E9022321
:104E500003F0A2F902460B46C4E90623D4E908236D
:104E600002F0E4FF013D06460F46C4E90867CCD1D5
:104E7000DDE90C0110A3D3E9002303F08DF910A3A1
:104E8000D3E90023804689463046394603F0AEFA1E
:104E900041EC100B02F0A0FE00220023C4E908231D
:104EA00051EC100B42464B4603F076F9BDE8F84F43
:104EB00041EC100B02B070476666666666664A3F54
:104EC0000000000000F899400000A0400000503FA2
:104ED000704710B51021044602F075FE204610BD43
:104EE0000368C9B29B6818470EB410B58DB00FAAFD
:104EF000016852F8044B039200232020CDE90403FB
:104F0000CDE900421E2004AA01F03CFA0DB0BDE834
:104F1000104003B07047000030B5034DC0E90223D4
:104F2000C0E9005130BD00BF788D0D00406801F030
:104F30004FBF10B50446006801F090FF204610BD39
:104F40002DE9F0418AB004464068019001F07DFFF0
:104F50001E22002102A8A76803F090FC0026EFB1F2
:104F600023681E2FB84628BF4FF01E08DD6802AA2E
:104F7000434631462046A847054658B90A480B49DA
:104F80003246FFF7B1FF01A8FFF7D3FF28460AB06A
:104F9000BDE8F081A7EB08074644E0E701A8FFF76A
:104FA000C8FF0125F2E700BF14E60320448D0D0081
:104FB0002DE9F7430446406801900D4616461F460A
:104FC00001F043FFA7B1E168606841F0500101F0D2
:104FD00032FF290A6068FFF783FF29466068FFF700
:104FE0007FFF6068002101F029FF48B1002400E044
:104FF000012401A8FFF79DFF204603B0BDE8F08320
:10500000202F217B6068B84628BF4FF0200801237D
:10501000424641F0500101F0F8FE02F0A7FD03689E
:105020001B6998474045E1DB06EB080902F09EFD4D
:1050300003685B69984706F8010B4E45F6D1454475
:10504000A7EB0807BEE72DE9F74F0446406801903B
:105050000E4690461D4601F0F8FE4FF00109B9F1E9
:10506000000F2AD04DB3E168606841F0500101F0B3
:10507000E2FE310A6068FFF733FF60683146FFF7F0
:105080002FFFA5F11E0A4746A6EB080B606817F82C
:10509000011B0368013D9B68984755450BEB0706CC
:1050A000B84601D0002DF1D16068012101F0C6FEA3
:1050B0000028D7D04FF00009D1E701A8FFF739FF4A
:1050C000484603B0BDE8F08F2DE9F0438BB00E46A3
:1050D00015468046406801901C4601F0B6FEAE427F
:1050E00029D2264425448CB11E2C2746D8F80030FE
:1050F00028BF1E27F61BD3F8089002AA3B4631466C
:105100004046ED1BC84748B9002400E0012401A82F
:10511000FFF70FFF20460BB0BDE8F083D8F8003052
:1051200002AAD3F80C9029463B464046C8470028BF
:10513000EAD0E41BD7E7E9D9002CE7D0D8F8003053
:105140001E2C274628BF1E27D3F8089002AA3B46EC
:1051500031464046C8470028D6D0D8F8003002AAC9
:10516000D3F80C9029463B464046C8470028CBD090
:105170003E443D44E41BDFE7402070470020704779
:1051800080207047FF207047704770477047704716
:1051900010B51421044602F016FD204610BD10B5CE
:1051A0000821044602F00FFD204610BD10B508216D
:1051B000044602F008FD204610BD10B51C2104462F
:1051C00002F001FD204610BD2DE9FF410368DB68B8
:1051D0000446984710220146684603F04FFB2368B7
:1051E00020469B689847002507462846BD420ED2B8
:1051F0007E1B2368102E28BF1026D3F818806A461D
:10520000334629462046C04708B13544EEE704B08E
:10521000BDE8F0814FF48073438140F20113C36015
:10522000002303827047000008B5064B0360064B5D
:10523000436040F20473038100234374FFF7EAFFE5
:1052400008BD00BF588E0D000001020303090A22A9
:1052500000F00F0002FB0300704708B5807AFFF7EB
:10526000F5FF00F5FA6008BDC07A00F01F00FFF7F7
:10527000EDBF007B00F03F00FFF7E8BF08B5817B82
:105280004A060DD501F01F00FFF7E0FF8B0603D59E
:105290000C2800D00C3008BD0C2808BF0020FAE70D
:1052A000BDE8084001F03F00FFF7D0BFC07B00F031
:1052B0007F00FFF7CBBF007C00F07F00FFF7C6BF89
:1052C00010B58AB024220446002101A803F0D6FAC2
:1052D0002046FFF7C2FFA0F26C7006902046FFF751
:1052E000C3FF013805902046FFF7C3FF0490204616
:1052F000FFF7C4FF03902046FFF7D8FF0290204637
:10530000FFF7D9FF019001A801F0B2F90AB010BD72
:105310000A2190FBF1F292FBF1F301FB13231B0135
:10532000DBB201FB12001843C0B27047642310B512
:10533000044691FBF3F000FB1310FFF7E9FFA072A6
:1053400010BD10B504460846FFF7E2FFE07210BD3D
:1053500010B504460846FFF7DBFF237B23F03F032D
:105360001843207310BD10B50446481CFFF7D0FF4A
:10537000637B23F007031843607310BD10B5044628
:105380000846FFF7C5FFA07310BD10B504460846D8
:10539000FFF7BEFFE07310BD10B504460846FFF7E7
:1053A000B7FF237C23F07F031843207410BD37B56B
:1053B00004466846CDE9002303F026FA0546416914
:1053C0002046FFF7B3FF296920460131FFF7B9FFF7
:1053D000E9682046FFF7BCFFA9692046FFF7C3FF35
:1053E000A9682046FFF7CAFF69682046FFF7CDFF8E
:1053F00029683B29A8BF3B212046FFF7CDFF03B01A
:1054000030BD0000054A0061C0E90021044A826005
:10541000044AC260044A8061426170478C8E0D006C
:1054200000000103348E0D00688E0D002DE9F84F49
:1054300004460F469046994600260A9B9E4231D26A
:105440006068394601F0F3FC08EB06016068FFF77D
:1054500047FD6068002101F0F1FC0546D0B90A9BC8
:1054600060689A1B202A4FF0010328BF202239468A
:1054700001F0CBFC09EB060B05460BEB000ADA4505
:1054800006D0606803685B6998470BF8010BF6E784
:105490002E44D2E7024604490448FFF725FD28467A
:1054A000BDE8F88F0025FAE78C8D0D0000E603209B
:1054B0002DE9F34101EB03081E4603689B6805468E
:1054C0000C461746984780450DD8203468680096EA
:1054D0003B46E2B26F21FFF7A9FFB0FA80F0400926
:1054E00002B0BDE8F0810020FAE72DE9F34101EBBD
:1054F00003081E4603689B6804460D4617469847F6
:1055000080450CD8606800963B46EAB25721FFF709
:105510008DFFB0FA80F0400902B0BDE8F0810020B4
:10552000FAE77FB51E1E0CBF07230623009314461F
:1055300002AB0A466F21FFF779FF0546A8B99DF82F
:10554000083023749DF80930E3739DF80A30A37383
:105550009DF80B3063739DF80C3023739DF80D306C
:10556000E3722EB99DF80E30A372284604B070BDC8
:1055700002F07CF8FFF7CCFEA072F6E71FB501231E
:105580000A4600936F2103ABFFF750FF20B99DF847
:105590000C0005B05DF804FB0020FAE708B5032114
:1055A000FFF7ECFFC0F3401008BD38B500230C46F0
:1055B0000A4619460546FFF7B4FF30B9A37A23B16E
:1055C0002846BDE83840FFF7E9BF002038BD7FB569
:1055D000024601A8FFF728FE01A91046FFF7E5FFE4
:1055E00028B101A8FFF76CFE07B05DF804FB0020AE
:1055F0000146F9E7D0B5044686B0406801F0E8FB03
:1056000001F0FAFFE8B9E37A9B071AD52046FFF7C5
:10561000DEFF06460F4656EA070312D001F0F3FEFE
:105620000A4B0B491B68009332463B4602A801F027
:10563000A1FF0848029A0849FFF756FC02A801F0AA
:10564000CBFD0123237206B0D0BD00BFB0E3032021
:1056500040E6032000E60320A68D0D002DE9F84F5B
:105660000646884691469A4600250A9B9D4229D2C5
:105670007068414601F0DBFB706809EB0501FFF73C
:105680002FFC0A9B5F1B1F2F28BF1F270AEB050457
:1056900007EB040B706814F8011B026892689047CE
:1056A000A345F7D17068012101F0C8FB044638B169
:1056B000024605490548FFF717FC2046BDE8F88F6C
:1056C0003D44D2E70024F8E7BB8D0D0000E603203F
:1056D0002DE9F34101EB03081E4603689B6805466C
:1056E0000C461746984780450DD8203468680096C8
:1056F0003B46E2B26F21FFF7B1FFB0FA80F04009FC
:1057000002B0BDE8F0810020FAE71FB5137C8DF8E8
:105710000830D37B8DF80930937B8DF80A30537BAA
:105720008DF80B30137B8DF80C30D37A8DF80D305B
:10573000937A8DF80E30072300930A4602AB6F214F
:10574000FFF78CFF05B05DF804FB10B588B0044688
:1057500003A80193FFF768FD019B03A8FFF727FE4D
:105760009DF81C30A27A63F07F038DF81C309DF801
:1057700019306AB143F0080303AA002120468DF8CE
:105780001930FFF7C2FFB0FA80F0400908B010BD31
:1057900003F0F703F0E70000F0B587B0054601F02D
:1057A0002BFF0446E8B101F044FFC7170246064646
:1057B0003B462846FFF7C9FF0C4B0D491B68009379
:1057C00032463B46044602A801F0D4FE0948029A3C
:1057D0000949FFF789FB02A801F0FEFC204607B04B
:1057E000F0BD06490348FFF77FFBF7E7B0E303206E
:1057F00040E6032000E60320D68D0D00EC8D0D0061
:1058000037B5457A04469DB901F0F6FE80B1002215
:10581000002369462846CDE9002300F061FE38B137
:10582000E37ADB0702D52046FFF7B6FF0123637258
:1058300003B030BD1FB501238DF80C2000930A463C
:1058400003AB6F21FFF70AFF05B05DF804FBF8B565
:1058500004460D4617461E46FFF790FE00EA070273
:10586000324329462046BDE8F840FFF7E3BF01294F
:1058700008B50CD800294FF0000314BFDF22EF2237
:105880000721FFF7E4FFB0FA80F0400908BD0020CF
:10589000FCE738B5044632256068572101F0C7FAA5
:1058A0006068012101F0CAFA08B1013DF4D138BDA8
:1058B0002DE9F04104460F46164602EB0308B045B9
:1058C00020D06068572101F0B2FA39466068FFF7CE
:1058D00007FB606816F8011B03689B6898476068BF
:1058E000012101F0ABFA0137054638B102460649FD
:1058F0000648FFF7F9FA2846BDE8F0812046FFF791
:10590000C8FFDCE70025F6E7018E0D0000E6032066
:10591000F7B5CF181E46036801929B6804460D46F2
:10592000984787420AD8019A60683346E9B2FFF780
:10593000BFFFB0FA80F0400903B0F0BD0020FBE7E4
:10594000014B024A1A60704700E60320228E0D00C8
:10595000012A034602D1016000207047022A04BFD9
:10596000D1E90001C3E90001F6E710B50123037492
:105970008368044643B1C0689847012363740020DC
:10598000BDE8104000F066BB00680028F5D08368D1
:105990000BB902F01EF9C368EEE710B44268034683
:1059A000541001EB6200D20748BF0A591B685DF82A
:1059B000044B48BFD35818470123F7B580F8293066
:1059C0000646083000F01EFB0420FEF764FB054687
:1059D00098B31B49142002F0F8F830B10023C0E955
:1059E0000033C0E90233037443742860A0B1154B3F
:1059F0001549C0E902364FF40063CDE900030222E5
:105A0000124B043000F0C6FA30B92B681B7CA3B9E6
:105A1000012000F03FFBF8E72C6800232B6064B105
:105A2000276837B13846FEF7F1FB1021384602F0FF
:105A3000CAF81421204602F0C6F8756003B0F0BD24
:105A400024910D00575C0D00948E0D006B590D00D4
:105A500047F23051084AC160084902600022C0E99B
:105A600004120749C16107494260C0E90822816107
:105A7000028580F82A207047588F0D00C15D0D0007
:105A80009B590D0051590D0010B5044B044640F8C8
:105A9000103BFEF7BBFB204610BD00BF588F0D002A
:105AA00010B5034B03600446FFF7EEFF204610BD20
:105AB000808F0D0010B50446FFF7F2FF2046382115
:105AC00002F081F8204610BD806800F0A3BA80681B
:105AD00000F0A8BA10B504460068FFF7F8FF2046AA
:105AE00010BD13B504460190FFF7EEFFE36ADC88B2
:105AF000A4B20CB103F1080401A8FFF7EBFF2046A4
:105B000002B010BD13B504460190FFF7DDFF94F815
:105B1000283043B9E26A0124D38001A8FFF7DAFFF5
:105B2000204602B010BD0024F7E713B504460190EB
:105B3000FFF7CAFFE36A01A8DC88FFF7CBFF204626
:105B400002B010BD2DE9F047994686B090F8293093
:105B50009DF838A09DF83C8004460F46164613B9C0
:105B600003689B689847314B3846002E08BF1E4695
:105B700002F0DFFE0546304602F0DBFE284400F16D
:105B80000A05AB071CBF25F0030504353346CDE9F4
:105B90000285CDE9009A264926483A46FFF7A4F93E
:105BA000238E083BAB4212D20024204606B0BDE84B
:105BB000F087CB88012B36D005A8FFF78BFF236831
:105BC00094F828109B69204698470028ECD020467E
:105BD0000594FFF779FFE16A228E636B0A44D21ABB
:105BE000AA42E6D348EA0A0883F80480C3F8009082
:105BF000636B03F108083946404602F075FE4046E3
:105C000002F097FE01303146404402F06DFE636BB6
:105C1000E26A1D446563D3880133D380012405A85B
:105C2000FFF758FFC1E70024F9E700BF4C910D00D2
:105C3000A68E0D0004E6032008B5044600F1100509
:105C4000A3690BB901F0C5FFE369214628469847CF
:105C500000F0A8F9F4E708B5FFF7EEFF68B501F129
:105C600008050646284602F064FE01300544284631
:105C700002F05FFEF36A01302844C31A13F00303F5
:105C80001CBFC3F10403C01868BDF7B504460E4637
:105C90000190FFF719FFE76AFB8807F10805E6B1F5
:105CA000012B22D929462046FFF7D8FF0546294671
:105CB0002046FFF7D3FF228E3A44121A0146A0EB8A
:105CC000050602D0284602F0BFFD636B9B1B636391
:105CD000FB88013BFB80012601E0002BE7D101A8F6
:105CE000FFF7F8FE304603B0F0BD0026F7E70000EE
:105CF0002DE9F0470D4604462F461646FFF7A8FE4D
:105D0000154B57F8082B2360144BE5629A42268600
:105D1000984617D1AB889BB2B34213D105EB060A64
:105D200067634FF00009EB881FFA89F29BB29A4231
:105D30000ED2616B2046FFF791FF5045606309F179
:105D40000109F0D90023C5F800806763AE80EB80BD
:105D50002046BDE8F08700BF808F0D0061AB9CD16D
:105D600010B5D1E9002386B00021044604910AB998
:105D7000D90705D5CDE902230F4B05930F4B0493AB
:105D800002AB93E803006A4682E8030094E803004C
:105D900083E8030092E80300049A84E80300A16802
:105DA000A260059A04911846E168E2600591FEF749
:105DB0002DFA204606B010BD9B590D0051590D001B
:105DC00007B5054B00936946002310300193FFF798
:105DD000C7FF03B05DF804FB095E0D0013B5044670
:105DE00000F068F9636AC01AE368984208D3054B6B
:105DF00000936946002304F110000193FFF7B0FF00
:105E000002B010BD095E0D002DE9F04190F82A3076
:105E100086B00446002B64D100F032FB002860D02D
:105E200000F048F9636AC01A40F2F133984258D939
:105E3000236820465B6998470546002851D000F149
:105E40000807012384F82830384602F072FD95F8DF
:105E50000480CDF8048001302B682B4900933E1854
:105E600033462A483A46FFF73FF82B688DF8008002
:105E70003246394602A800F0B9FD029D6B781BB985
:105E8000012000F0FDFBF8E7002000F0A3FA20B1AC
:105E90006B7813B900F0ECFAFAE72B78012B23D1D9
:105EA0001B491A48FFF720F8236800219B69204608
:105EB0009847002384F8283000F0FCF86062039CC7
:105EC0007CB16368013B63605BB9236820469B68D3
:105ED0009847A368013BA3601BB923682046DB6891
:105EE000984706B0BDE8F081E2680A490748FEF726
:105EF000FBFF094B049304A9002304F11000059350
:105F0000FFF72EFFD5E700BFE78E0D0004E6032064
:105F1000088F0D001F8F0D00DD5D0D00014B024A43
:105F20001A60704704E60320468F0D000368C9B26B
:105F30009B681847704738B505460C4601F016FEB9
:105F4000297800F074FF01F011FE210AFFF7EEFF3F
:105F500001F00CFEE1B2FFF7E9FF01F007FEBDE83A
:105F6000384000F06FBF08B543F2A201FFF7E3FF2E
:105F7000BDE808400A2000F083BB38B504460D4652
:105F800001F0F4FD00F024FF20462570FFF7EBFF41
:105F9000012038BD08B5024B1B685B68019308BD42
:105FA0004802030008B5024B1B68DB68019308BD7B
:105FB0004802030008B5024B1B68DB69019308BD6A
:105FC0004802030008B5024B1B681B6A019308BD19
:105FD0004802030008B5024B1B685B6A019308BDC9
:105FE0004802030008B5024B1B689B6A019308BD79
:105FF0004802030008B5024B1B68DB6A019308BD29
:106000004802030008B5024B1B681B6B019308BDD7
:106010004802030008B5024B1B689B6B019308BD47
:106020004802030008B5024B1B681B6C019308BDB6
:106030004802030008B5024B1B685B6C019308BD66
:106040004802030008B5024B1B689B6C019308BD16
:106050004802030008B5024B1B68DB6E019308BDC4
:106060004802030008B5024B1B681B6F019308BD73
:106070004802030008B5024B1B685B6E019308BD24
:106080003402030008B5024B1B685B68019308BD2E
:106090001802030008B5024B1B689B68019308BDFA
:1060A0001802030008B5024B1B68DB68019308BDAA
:1060B0001802030008B5024B1B685B69019308BD19
:1060C0001802030008B5024B1B689B6D019308BDC5
:1060D0001802030008B5024B1B68DB6D019308BD75
:1060E0001802030008B5024B1B685B6E019308BDE4
:1060F0001802030008B5024B1B689B6E019308BD94
:106100001802030008B5024B1B685B68019308BDC9
:106110002C02030008B5024B1B689B68019308BD65
:106120002C02030008B5024B1B68DB68019308BD15
:106130002C02030008B5024B1B681B69019308BDC4
:106140002C02030008B5024B1B689B69019308BD34
:106150002C02030008B5024B1B68DB69019308BDE4
:106160002C02030008B5024B1B681B6B019308BD92
:106170002C02030008B5024B1B68DB68019308BDC5
:106180002802030008B5024B1B689B69019308BDF8
:106190002802030008B5024B1B68DB69019308BDA8
:1061A0002802030008B5024B1B681B6A019308BD57
:1061B0002802030008B5024B1B685B6A019308BD07
:1061C0002802030008B5024B1B689B6A019308BDB7
:1061D0002802030008B5024B1B68DB6A019308BD67
:1061E0002802030008B5024B1B681B6B019308BD16
:1061F0002802030008B5024B1B685B6B019308BDC6
:106200002802030008B5024B1B681B6C019308BDF4
:106210002802030008B5024B1B689B6C019308BD64
:106220002802030008B5024B1B68DB6C019308BD14
:106230002802030008B5024B1B681B6D019308BDC3
:106240002802030008B5024B1B685B69019308BD77
:106250006402030008B5024B1B689B68019308BDEC
:106260006802030008B5024B1B68DB68019308BD98
:106270006802030008B5024B1B68DB69019308BD87
:106280003002030008B5024B1B681B6A019308BD6E
:106290003002030008B5024B1B681B68019308BD60
:1062A0003C02030008B5024B1B68DB68019308BD84
:1062B0003C02030008B5024B1B681B69019308BD33
:1062C0003C02030008B5024B1B685B69019308BDE3
:1062D0003C02030008B5024B1B689B69019308BD93
:1062E0003C02030008B5024B1B68DB69019308BD43
:1062F0003C02030008B5024B1B681B6A019308BDF2
:106300003C02030008B5024B1B689B6A019308BD61
:106310003C02030008B5024B1B681B68019308BDD3
:106320004C02030008B5024B1B681B69019308BDB2
:106330004C02030008B5024B1B685B69019308BD62
:106340004C02030008B5024B1B689B69019308BD12
:106350004C02030008B5024B1B68DB69019308BDC2
:106360004C02030008B5024B1B681B6A019308BD71
:106370004C02030008B5024B1B685B6B019308BD20
:106380006002030008B5024B1B685B6D019308BDFA
:106390006002030008B5024B1B681B68019308BD2F
:1063A0002002030008B5024B1B685B68019308BD1F
:1063B0002002030008B5024B1B685B69019308BD0E
:1063C0002002030008B5024B1B68DB6A019308BD7D
:1063D0002002030008B5024B1B68DB6C019308BD6B
:1063E0002002030008B5024B1B685B6D019308BDDA
:1063F0002002030008B5024B1B689B6D019308BD8A
:106400002002030008B5024B1B68DB6D019308BD39
:106410002002030008B5034B1B68D3F888300193B2
:1064200008BD00002002030008B5034B1B68D3F829
:106430009430019308BD00002002030008B5034B0F
:106440001B68D3F8AC30019308BD000020020300A4
:1064500008B5024B1B681B68019308BD440203008A
:1064600008B5024B1B685B68019308BD440203003A
:1064700008B5024B1B689B68019308BD44020300EA
:1064800008B5024B1B685B69019308BD4402030019
:1064900008B5024B1B68DB69019308BD4402030089
:1064A00008B5024B1B681B6A019308BD4402030038
:1064B00008B5024B1B685B6A019308BD44020300E8
:1064C00008B5024B1B68DB6A019308BD4402030058
:1064D00008B5024B1B681B6B019308BD4402030007
:1064E00008B5024B1B685B6B019308BD44020300B7
:1064F00008B5024B1B689B6B019308BD4402030067
:1065000008B5024B1B68DB6B019308BD4402030016
:1065100008B5024B1B685B68019308BD400203008D
:1065200008B5024B1B689B68019308BD400203003D
:1065300008B5024B1B68DB68019308BD40020300ED
:1065400008B5024B1B681B69019308BD400203009C
:1065500008B5024B1B685B69019308BD400203004C
:1065600008B5024B1B689B69019308BD40020300FC
:1065700008B5024B1B68DB69019308BD40020300AC
:1065800008B5024B1B681B6A019308BD400203005B
:1065900008B5024B1B681B6B019308BD400203004A
:1065A00008B5024B1B685B6B019308BD40020300FA
:1065B00008B5024B1B681B68019308BD1C02030051
:1065C00008B5024B1B685B68019308BD1C02030001
:1065D00008B5024B1B689B68019308BD1C020300B1
:1065E00008B5024B1B681B69019308BD1C02030020
:1065F00008B5024B1B68DB69019308BD1C02030050
:1066000008B5024B1B68DB6A019308BD1C0203003E
:1066100008B5024B1B681B6B019308BD1C020300ED
:1066200008B5024B1B68DB6B019308BD1C0203001D
:1066300008B5024B1B685B6C019308BD1C0203008C
:1066400008B5024B1B689B6C019308BD1C0203003C
:1066500008B5024B1B68DB6C019308BD1C020300EC
:1066600008B5024B1B681B6D019308BD1C0203009B
:1066700008B5024B1B685B6D019308BD1C0203004B
:106680000021FFF797BE10B5836804460BB901F0EF
:10669000A0FAC3689847A3681BB10322214620468D
:1066A000984720461021BDE8104001F08CBA10B583
:1066B000036804469B689847A368013BA3602BB915
:1066C00023682046DB68BDE81040184710BD10B5B0
:1066D0000446006808B1FFF7B5FC204610BD0B6802
:1066E000036013B15A6801325A60704710B504460E
:1066F000006828B14368013B43600BB9FFF7D7FF3F
:10670000204610BD10B5064C002320462360FFF73D
:1067100091FC2046034A0449BDE8104001F04EBAFE
:1067200008E6032020E40320CF660D007047002018
:10673000704710B51021044601F045FA204610BDFF
:1067400008B5FFF7F6FF08BD30B500224FF69C7480
:10675000026084808D888C800C68858004600A606B
:1067600030BD10B504460068FFF72AFF204610BD73
:1067700038B5C468F4B12378022B03D104F10C00BE
:10678000FFF7EFFF656835B12846FDF73FFD1021A3
:10679000284601F018FAA56835B12846FDF736FD00
:1067A0001021284601F00FFA20461421BDE8384098
:1067B00001F009BA38BD10B588B00446684600F04B
:1067C00056FD694604A800F075FD04A8A0470446DC
:1067D00004A800F001FD684600F0FEFC204608B069
:1067E00010BD1FB50023CDE90201019210241A4605
:1067F00069461846ADF80230ADF80040FFF730FEAC
:1068000004B010BD73B50E46044656F8043B009321
:106810000D4601A83146FFF762FF019A009B6260B6
:10682000236001A8002301930093FFF75FFF304628
:10683000FFF75CFF2846082101F0C5F9204602B0A9
:1068400070BD13B50B460246D0E900016C4684E8E2
:10685000030093E8030082E8030094E8030083E860
:10686000030002B010BD826810B50AB901F0B1F999
:10687000BDE81040C368184708B5006800F1100172
:10688000FFF7F1FF08BD826810B50AB901F0A1F960
:10689000BDE81040C368184708B5006800F1100152
:1068A000FFF7F1FF08BD000038B500230446036080
:1068B00010200D46FDF7EFFB28B10123C0E901339D
:1068C000024B0360C5602060204638BDA88F0D00D4
:1068D00038B5002383608B6804460D462BB1022235
:1068E0009847EB68E360AB68A360204638BD0000C2
:1068F000F0B589B004686846FFF726FF4FF0020341
:10690000D4E84F2F002A03D1C4E8413F0029F7D132
:1069100025D104F10C0569462846FFF715FFBFF3A2
:106920005B8F01236370002004F10803BFF35B8FCA
:1069300053E8006F43E80002002AF9D1BFF35B8FF0
:106940006EB1FFF747FD78B129463046FFF78BFF60
:106950003046FDF75BFC1021304601F034F9684603
:10696000FFF7FFFE09B0F0BD314602A8FFF7B0FF08
:10697000E068B4F9105008B101F0BEFF0690102095
:10698000ADF81C50FDF787FB0546E8B1002787608E
:106990001820FDF780FB044688B10146876002A8F5
:1069A000FFF74FFF049BA268A360059B049206A912
:1069B000E268E36004F110000592FFF7C5FE084BA2
:1069C000EB60084B2C60AB6006A8FFF7CAFE02A87C
:1069D000FDF71CFC002229460348FFF703FDB7E73B
:1069E00079680D00116B0D0087660D002DE9F047E9
:1069F0008AB005469DF848900C4617469846FFF722
:106A00003FFD07AE824638BB4FF62E73059005A9B1
:106A10003046ADF81830FFF797FE1420FDF73BFB2A
:106A2000044648B1022303700123C0E901AA437060
:106A300031460C30FFF788FE2846214640F8044BCB
:106A4000FFF732FF3046FFF78CFE05A8FFF789FEFF
:106A500028460AB0BDE8F0870C234FF0000A142046
:106A6000CDE908AA0793FDF716FB014628B1C0E956
:106A700001AA80F800A080F801A004A80391FFF704
:106A800013FF224B08930820FDF705FB824628B12F
:106A9000039B40F8043B04A9FFF721FE00965FFA30
:106AA00089F3424639462046CDF824A0FFF7F8FC8A
:106AB000B8B9039B5B7803F0FF0293B94FF69C7360
:106AC00005A903A80592ADF81830FFF711FF05A836
:106AD000FFF747FE05A80999FFF794FE06A8FFF700
:106AE00005FE039B059304A906A8FFF7F8FD059B87
:106AF000069A2B606A60002306A806930593FFF7A9
:106B0000F5FD04A8FFF7F2FDA2E700BFD56B0D006D
:106B1000022AF8B5054607D0032A18D0012A01D168
:106B20000B6803600020F8BD18200E68FDF7B3FA6B
:106B3000044650B13146FFF7CBFE3069B6F9147008
:106B400008B101F0D9FE2061A7822C60EAE7046851
:106B5000002CE7D004F11000FFF703FE2046FDF7FC
:106B600055FB1821204601F02EF8DBE738B500234D
:106B700083608B6804460D462BB102229847EB6870
:106B8000E360AB68A360204638BD022A70B50446B6
:106B900007D0032A12D0012A01D10B68036000201C
:106BA00070BD14200E68FDF776FA054620B1314617
:106BB000FFF7DCFF337C2B742560F0E70468002CC2
:106BC000EDD02046FDF722FB1421204600F0FBFF0C
:106BD000E5E70000F0B589B004460D4601A811466E
:106BE000FFF710FEA4B124B21DB1284601F084FEC7
:106BF000054601A803A90395ADF81040FFF778FEFC
:106C000003A8FFF7AEFD02A8FFF770FD09B0F0BDC5
:106C1000019D0123D5E84F2F002A03D1C5E8413F4C
:106C20000029F7D1EFD12B73BFF35B8F6B702B1D56
:106C3000BFF35B8F53E8006F43E80042002AF9D1AD
:106C4000BFF35B8F002EDED02046FFF7C3FB074665
:106C500060B105F10C013046FFF715FE3046FDF737
:106C6000D5FA1021304600F0AEFFCCE7314603A83C
:106C7000FFF77CFF2B7B8DF81C301020FDF70BFA03
:106C80000546D0B187601420FDF705FA044678B1B7
:106C90008760014603A8FFF7D4FD059BA268A360A7
:106CA000069B0592E268E3609DF81C30069223740F
:106CB000064BEB60064B2C60AB6003A8FDF7A6FA11
:106CC000002229460348FFF78DFBC7E799680D00AE
:106CD0008B6B0D0087660D00002240681146FFF7A0
:106CE0004FBC002240681146FFF75ABC40680022A2
:106CF000FFF74EBC4068002281F00101FFF738BC6D
:106D0000002340681A461946FFF72ABC0023406852
:106D10001A461946FFF71CBC002240681146FFF7CF
:106D20000FBC002240681146FFF7FABB4068002202
:106D30000221FFF7FDBB002340681A46FFF7E8BBBE
:106D4000024B03225A60024A1A6070470CE6032085
:106D5000C48F0D007047F8B5064615460C468F18CF
:106D6000BC4206D0336814F8011B9B683046984734
:106D7000F6E72846F8BD007C0022FFF713BA007C36
:106D80000021FFF717BA007C0021FFF71BBA007C37
:106D90000021FFF71FBA007C0021FFF723BA10B5CE
:106DA0001421044600F00FFF204610BD10B54FF42B
:106DB0007A73044608460021C4E90113034B23609B
:106DC00020741146FFF71EFA204610BDF88F0D0003
:106DD0000023007C1A461946FFF7CCB97FB5002284
:106DE0001423CDE90122ADF804300B788DF808307A
:106DF0004B680393CB680493007C0B7A059301A93D
:106E0000FFF718FA07B05DF804FB1FB5003B8DF8DB
:106E100000104FF06401039118BF012369460192ED
:106E20008DF80830FFF7DAFF05B05DF804FB007C51
:106E30000022FFF7A7B9C9B2FFF7F9BF007C002213
:106E4000FFF7A8B90121FFF7F9BF08B50021007CC1
:106E5000FFF7E0F9B0FA80F0400908BD08B500215D
:106E6000007CFFF7DFF9B0FA80F0400908BD004769
:106E70002DE9FF4100241D460F4690460646FFF7C8
:106E800069F9A5424FF00403ADF80D408DF80C30C0
:106E90008DF80F40A2BF9DF828308DF80E3003AC5E
:106EA0000749009443463A463046A8BF8DF80D5036
:106EB000FFF748F9B0FA80F0400904B0BDE8F0816E
:106EC0006F6E0D00704710B51821044600F07BFE70
:106ED000204610BDF0B5037D062B8DB00E4600F1A7
:106EE00004074FF0000412D000F1080515F8011D49
:106EF0000A22304600F033F9AF42044419D0002C86
:106F0000F4D02E21304600F027F90444EEE72F2379
:106F10006A4639460A208DF80040FFF793F9684623
:106F200001F007FD33680246DB6869463046984742
:106F3000044620460DB0F0BD10B5054B04461122A5
:106F400040F8043B002101F099FC204610BD00BF31
:106F500020900D000346074A10B543F8042B01F1B9
:106F6000100251F8044B43F8044B9142F9D10A78CE
:106F70001A7010BD20900D0010B59DF8084044EA2D
:106F8000032343EA024242EA01610423416003759C
:106F900010BD13B5CB7800938B784A780978FFF74A
:106FA000EBFF02B010BD0000014B024A1A607047AF
:106FB00014E603202C900D00002340681A46FFF7CA
:106FC000A7BA406800220221FFF7B2BA0022406847
:106FD0001146FFF7A5BA002240681146FFF7B0BA84
:106FE000002340681A461946FFF7B2BA00234068EA
:106FF0001A461946FFF7B4BA4068002281F0010131
:10700000FFF7B6BA40680022FFF7C2BA0022406814
:107010001146FFF7C5BA002240681146FFF7B0BA23
:107020002DE9F043002495B016460D460746FFF7BC
:1070300083FF214618220EA8009401F01FFC402374
:10704000CDE90C3421466B460CAA3046FFF70AF90D
:107050000446002846D1024601216868FFF770FA0D
:107060000221804622466868FFF76AFA009E814640
:107070002146002E36D0002934D17368022B03D06C
:107080000A2B0BD0F669F4E7B8F1000F04D0716950
:1070900038460431FFF77DFF4146F3E7B9F1000FB1
:1070A00001D14946EEE77469102201A801F0E6FB20
:1070B00006238DF8143001AD04F108031834186864
:1070C00059682A4603C20833A3421546F7D101A9DD
:1070D00006A807ADFFF73EFF0FCD3C1D0FC42B6880
:1070E0002370DEE70098FFF7B5F8384615B0BDE825
:1070F000F0830000024B034A1A6000225A60704776
:1071000018E6032038900D00F8B506460D468F1896
:107110000024BD420CD0336815F8011B9B68304633
:107120009847031E01DB1C44F3E7002C08BF1C46F4
:107130002046F8BD13B50446084659B1019101F047
:10714000F8FB23680199DB680246204602B0BDE8DF
:107150001040184702B010BD03689B68184730B54F
:107160008BB000238DF82430012A98BF0A2209AC85
:107170000D46B1FBF2F101FB125303F0FF03092BA3
:1071800094BF30333733DBB2AA4204F8013DEFD964
:107190002146FFF7CFFF0BB030BD10B50446FDF719
:1071A00035F8204610BD00000348044A0449002376
:1071B000836000F003BD00BF20E6032020E403202D
:1071C0009B710D0010B5044608462170FFF752F878
:1071D00000236360204610BD10B504460068FFF729
:1071E000EFF9204610BD10B50446006808B1FFF75E
:1071F000E7F90023C4E90133236010BD38B5044624
:107200000D4600680131FFF7E3F910B1C4E900054C
:10721000012038BD10B50368044623B143688B4292
:1072200001D3012010BD2046FFF7E8FF0028F9D068
:10723000A368002BF5D122681370F2E737B50D462D
:10724000114601920446FFF7E5FF019A28B920464E
:10725000FFF7C9FF204603B030BDA2602946206871
:1072600001F0E4FA2268A3680021D154F2E7002378
:1072700013B5C0E9003304468360037341B1084687
:10728000019101F056FB019902462046FFF7D6FF17
:10729000204602B010BD884210B5044605D00B68E8
:1072A0002BB18A681946FFF7C9FF204610BDFFF7CA
:1072B0009AFFFAE710B500230446C0E90033836063
:1072C0000373FFF7E8FF204610BD08B582683AB99E
:1072D00021B10878B0FA80F0400900E0012008BD33
:1072E000006809B90078F5E701F0F4FAF2E758B55B
:1072F0000E462AB121B184689C4202D800230B704B
:1073000058BDE41A013A0168944228BF1446194452
:107310002246304601F015FB00233355F0E707B550
:107320000B4600210246009101208C21FFF786F8D0
:1073300003B05DF804FB01460020FFF7F0BF00201A
:10734000FFF7F9BF10B5094B094C022200201A6063
:10735000084B2060A080A071A360FFF723F82046AF
:10736000054A0649BDE8104000F028BC3CE6032071
:1073700030E603200000FFFF20E40320A3410D00BE
:107380002DE9F041154ADFF86080D2E90032C018DB
:1073900042EB0101124AD2E90032C61841EB020762
:1073A000D8E90023BB4208BFB2428CB013D003A976
:1073B0006846CDE90067FFF74BF9089B094D03F2DA
:1073C0006C7303AC08930FCC0FC50FCC0FC5C8E985
:1073D000006723682B600CB0BDE8F08178E60320DD
:1073E00070E6032048E6032080E6032008B500206D
:1073F000FFF76EF828B1FFF743F880F00100C0B244
:1074000008BD0120FCE71FB502460B466846002177
:10741000CDE90023CDE90211FEF76CFE024610B95A
:107420000146FEF7EFFF05B05DF804FB30B50446FA
:107430001848D0E90010521840EB03031648D0E971
:107440000010521893B040EB0303CDE9002324222F
:107450000DEB0200002101F011FA002509A9684690
:10746000FFF7F6F81622294603A8029501F006FA5E
:1074700002A909A801F090F902A801F05AFA12AB8A
:10748000184402A900F8415C2046FFF7F0FE2046B0
:1074900013B030BD78E6032070E603202DE9F04FED
:1074A000A5B00746884614A811463F221D4601F0A4
:1074B00048FA002314A88DF88F3001F03AFA0446F8
:1074C0005DBB2A4903A801F00FFA14AE002504F1B0
:1074D000FF3BAB4536D9B14605F1010A19F8013B2E
:1074E000252B17D173787A2B14D103A801F021FA38
:1074F00014AB044628181844ABEB0502B11C01F08C
:1075000095F9224603A9304601F090F914A801F03C
:1075100010FA04464E465546D9E73C2195FBF1F357
:10752000002BB8BF5B42B3FBF1F201FB12330093B7
:107530000F4A4FF46163102103A895FBF3F3FFF7A3
:1075400057F8C2E700212E2208A8079101F096F90A
:10755000434614AA322107A8FFF772F807A9384654
:10756000FFF785FE384625B0BDE8F08F64900D002A
:1075700066900D00F0B58DB0CDE90023129D044654
:1075800015B9194B1D682DB1184B2846196801F023
:10759000A1F938B9DDE900232046FFF747FF20466F
:1075A0000DB0F0BD124E0099124FD6E900325B18B3
:1075B000019941EB0202D7E900011B1841EB0202DD
:1075C000CDE900320021242203A801F057F903A9D4
:1075D0006846FFF73DF832683B6803A9134420462C
:1075E0002A46FFF75BFFDAE744E60320B0E3032017
:1075F00078E6032070E6032010B50020FEF762FD58
:107600000446A0B9FEF7C6FE012810D12046FEF7B9
:10761000F1FE60B9FFF7EAFE10B9FEF729FFF9E7BE
:10762000FFF7E4FEBDE810400020FEF74BBD20460A
:1076300010BD1FB5FFF7E0FF10220021684601F0E2
:107640001DF900216846FEF74DFD009805B05DF874
:1076500004FB000008B5FFF7ECFFC117FFF790FE31
:10766000014B986808BD00BF48E6032008B5FFF746
:10767000E0FFC117FFF784FE014B586908BD00BF4A
:1076800048E60320024B1A68024B1A60704700BF9D
:10769000B0E3032044E6032070474174704708B507
:1076A000007CFEF72FFE20EAE07008BD08B5007CE4
:1076B000FEF700FE20EAE07008BD08B5007CFEF78A
:1076C00009FE40EAE07008BD08B5007CFEF7FAFD4F
:1076D00040EAE07008BD007CFEF704BE37B5457C8B
:1076E00004462DB1207C03B0BDE83040FEF7DABD82
:1076F000007C0191FEF706FE00280199F2DC284685
:1077000003B030BD10B51421044600F05CFA2046E9
:1077100010BD000010B54FF0000C0446084611469D
:107720004FF47A72C4E901C2044A22600122207433
:1077300062741A46FEF7AEFD204610BD98900D000B
:1077400013B50E4C2178BFF35B8F11F0010112D1FC
:1077500020460191FCF7B0FC019960B1084A094B41
:107760000948FFF7D7FF2046FCF7ABFC074A08495A
:10777000054800F023FA044802B010BD88E6032053
:107780008CE6032010E7032094E7032020E4032085
:1077900099760D0041747047704708B50021007C50
:1077A000FEF7D0FD40EAE07008BD08B50121007C7D
:1077B000FEF7C8FD40EAE07008BD08B5007CFEF7A2
:1077C000B9FD20EAE07008BD08B5007CFEF7AAFD0F
:1077D00020EAE07008BD13B50446007C0191FEF775
:1077E000A9FD0028019901DC607C20B1207CFEF716
:1077F000B1FD20EAE07002B010BD007CFEF7B2BD22
:1078000010B51421044600F0DEF9204610BD00003A
:1078100010B54FF47A73044608460021C4E90113F9
:10782000044B23600123207463741146FEF772FD3C
:10783000204610BDC8900D0010B51422044600214A
:1078400001F01CF8204610BD10B5104C88B003A8FC
:10785000FFF7F2FF2178BFF35B8F11F0010111D127
:1078600020460191FCF728FC019958B103AA084869
:10787000FFF7CEFF2046FCF724FC064A06490448E1
:1078800000F09CF9024808B010BD00BFA8E7032033
:10789000ACE7032020E4032099770D000022406824
:1078A0001146FEF74DBE002240681146FEF768BE45
:1078B000002240681146FEF773BE40680022FEF7C2
:1078C00067BE4068002281F00101FEF751BE00232F
:1078D00040681A461946FEF743BE002340681A4620
:1078E0001946FEF735BE002240681146FEF718BE65
:1078F000406800220221FEF71BBE002340681A46A2
:10790000FEF706BE024B04225A60024A1A60704714
:10791000C0E70320F8900D00014B1860704700BFCE
:10792000B8E3032008B50B4B43B1FFF78DFF0368A5
:107930001B699847002801DDAFF30080064B43B177
:10794000FFF7FEFE03681B699847002801DDAFF3CF
:10795000008008BD000000000000000008B5FFF72F
:10796000E1FFFEF7A7FB014B186008BDDCE7032031
:107970000248034A0349121A00F058BF00F40320DA
:1079800004FC0320C0920D0007B5002300931A46A3
:107990006FF07701FEF748FD03B05DF804FB0000CF
:1079A00007B543880A2B08D0502B0BD1094B1B6815
:1079B0004BB103B05DF804EB1847FFF7E5FF03B0E8
:1079C0005DF804FB002300931A466FF07701FEF781
:1079D0002BFDF4E7CCE7032038B5124C1248134DC9
:1079E0000021FEF725FE2368AB42114B0CBF01229C
:1079F00000221A7002D0FFF7BBFF2560FEF742FBA2
:107A0000044600F043FF0B4B13B12046AFF3008058
:107A100000210848FEF774FDBDE838400648002103
:107A2000FEF7F8BC00FC032019790D001E1C279AF4
:107A3000C8E7032000000000A1790D00232813B53A
:107A400002D9002002B010BDA0F10B03022B1AD8FE
:107A5000174C2178BFF35B8F11F001010BD1204649
:107A60000191FCF729FB019928B11248FFF7AAFB05
:107A70002046FCF726FB0F4B1878FEF703FC002886
:107A8000DFD10120DEE7012809D800F06FF80021DE
:107A9000007CFEF7AFFB80F00100C0B2D2E70938EE
:107AA0000128EED8FFF74CFE007CFEF723FCF2E73E
:107AB000D0E70320D4E70320232838B504460D4639
:107AC0000AD8FF2908D0FFF7B9FF28B12946204678
:107AD000BDE83840FEF71EBB38BD38B504460D463C
:107AE000FEF720FBFF2810D0062804D84D2323FAE8
:107AF00000F0C30709D42046FFF7A0FF28B12946AC
:107B00002046BDE83840FEF715BB38BD0D2810B53E
:107B100004469CBF0E34A4B22046FFF78FFF50B13D
:107B200003212046FEF7EEFA032804D12046BDE8E3
:107B30001040FEF717BB002010BD000038B5002331
:107B4000202543801423044603808560056106498F
:107B5000284600F03CF804496060284600F037F8F9
:107B6000E060204638BD00BF24910D0030B50F4DB8
:107B70002978BFF35B8F11F0010487B013D1284639
:107B8000FCF79AFA78B101A8FFF7D8FF01AA2146BD
:107B90000748FFF70BF92846FCF793FA054A064910
:107BA000034800F00BF8024807B030BDE0E70320BF
:107BB000E4E7032020E40320556D0D000B46014649
:107BC000184600F013BEFCF76ABAFCF764BAFCF77B
:107BD00064BA08B5FEF714FD2DE9F0432DED028BD4
:107BE0008BB055EC104B00F055F8284BB0EE408AA6
:107BF000F0EE608A93F900707B1C12D022462B466F
:107C00002046294600F062FD064650B94FF00008B4
:107C10004FF000092046294642464B4600F02EFD13
:107C200040B9B0EE480AF0EE680A0BB0BDEC028B2A
:107C3000BDE8F083164B08960122CDE90445CDE955
:107C400002450092019397B142464B464046494651
:107C500000F0CCFB022FCDE906010AD1FEF7E0FCD3
:107C600021230360089B63B99DED068BD9E7CDE91D
:107C70000689684600F0D2F80028EFD0089B002B58
:107C8000F2D0FEF7CDFC089B0360EDE7B4E30320E0
:107C900028910D002DE9F0415F4A57EC106BBA4373
:107CA00000F09880002F10EE104A3B464EDD39154B
:107CB0005BD0C3F31303CA0743F48013A1F2FF3E62
:107CC00003D45B0003EBD4736400E20F4FF0000CAD
:107CD00002EB43034FEA6E0E6400664616254FF42E
:107CE0000012B118994202DC5B1A8E1894445B00B2
:107CF000013D03EBD4734FEA52024FEA4404F0D142
:107D00002F4620204FF0004209E03ED0E10F01381D
:107D10004FEA520201EB43034FEA44043ED0B34220
:107D200002EB0501F1DD002901EB020509DBB0469C
:107D30009B1BA14288BF03F1FF33641A17444646D8
:107D4000E4E7002DF3DB06F10108F1E727F000423C
:107D5000324336D0002F4DD13946E20A1539640539
:107D60001346002AF9D0D70251D400205B00DE026E
:107D7000054600F10100F9D51A4623468440C0F1BA
:107D80002000C3401343491B93E7A142BED80029FA
:107D900001EB0205D5DB98460023CEE7234312D141
:107DA00078084FEA6C0101F17F511CF0010F01F5D9
:107DB000001118BF40F0004001EB0E53024643ECA7
:107DC000102BBDE8F0817B1C16BF781C0CF1010C58
:107DD0004008E6E710EE102A10EE100A3B4639463E
:107DE00000F0DAF932463B4600F020F841EC100B87
:107DF000BDE8F08110EE102A3046394600F014F844
:107E000002460B4600F0F2FA41EC100BD9E723468C
:107E100020204FF0FF35B4E70000F07F00207047CE
:107E200081F0004102E000BF83F0004330B54FEA2B
:107E300041044FEA430594EA050F08BF90EA020F98
:107E40001FBF54EA000C55EA020C7FEA645C7FEA2B
:107E5000655C00F0E2804FEA5454D4EB5555B8BF4E
:107E60006D420CDD2C4480EA020281EA030382EABF
:107E7000000083EA010180EA020281EA0303362D51
:107E800088BF30BD11F0004F4FEA01314FF4801C24
:107E90004CEA113102D0404261EB410113F0004F36
:107EA0004FEA03334CEA133302D0524263EB4303ED
:107EB00094EA050F00F0A780A4F10104D5F1200E8B
:107EC0000DDB02FA0EFC22FA05F2801841F10001E6
:107ED00003FA0EF2801843FA05F359410EE0A5F1BA
:107EE00020050EF1200E012A03FA0EFC28BF4CF0EB
:107EF000020C43FA05F3C01851EBE37101F00045A1
:107F000007D54FF0000EDCF1000C7EEB00006EEBAD
:107F10000101B1F5801F1BD3B1F5001F0CD3490837
:107F20005FEA30004FEA3C0C04F101044FEA44528E
:107F300012F5800F80F09A80BCF1004F08BF5FEA15
:107F4000500C50F1000041EB045141EA050130BDF5
:107F50005FEA4C0C404141EB0101013C28BFB1F507
:107F6000801FE9D291F0000F04BF01460020B1FA52
:107F700081F308BF2033A3F10B03B3F120020CDA25
:107F80000C3208DD02F1140CC2F10C0201FA0CF003
:107F900021FA02F10CE002F11402D8BFC2F1200C68
:107FA00001FA02F120FA0CFCDCBF41EA0C0190401E
:107FB000E41AA2BF01EB0451294330BD6FEA040467
:107FC0001F3C1CDA0C340EDC04F11404C4F1200252
:107FD00020FA04F001FA02F340EA030021FA04F364
:107FE00045EA030130BDC4F10C04C4F1200220FABB
:107FF00002F001FA04F340EA0300294630BD21FAF9
:1080000004F0294630BD94F0000F83F4801306BFBE
:1080100081F480110134013D4EE77FEA645C18BFB2
:108020007FEA655C29D094EA050F08BF90EA020F49
:1080300005D054EA000C04BF1946104630BD91EA41
:10804000030F1EBF0021002030BD5FEA545C05D144
:108050004000494128BF41F0004130BD14F5800483
:108060003CBF01F5801130BD01F0004545F0FE41F7
:1080700041F470014FF0000030BD7FEA645C1ABF2C
:10808000194610467FEA655C1CBF0B46024650EA63
:10809000013406BF52EA033591EA030F41F400218F
:1080A00030BD00BF90F0000F04BF0021704730B515
:1080B0004FF4806404F132044FF000054FF00001EA
:1080C00050E700BF90F0000F04BF0021704730B5AB
:1080D0004FF4806404F1320410F0004548BF404280
:1080E0004FF000013EE700BF42004FEAE2014FEAD5
:1080F00031014FEA02701FBF12F07F4393F07F4FB0
:1081000081F06051704732F07F4208BF704793F0B2
:108110007F4F04BF41F40021704730B54FF46074C5
:1081200001F0004521F000411CE700BF50EA0102C8
:1081300008BF704730B54FF000050AE050EA010271
:1081400008BF704730B511F0004502D5404261EBE1
:1081500041014FF4806404F132045FEA915C3FF422
:10816000D8AE4FF003025FEADC0C18BF03325FEABF
:10817000DC0C18BF033202EBDC02C2F1200300FA70
:1081800003FC20FA02F001FA03FE40EA0E0021FA95
:1081900002F11444BDE600BF70B54FF0FF0C4CF483
:1081A000E06C1CEA11541DBF1CEA135594EA0C0F35
:1081B00095EA0C0F00F0DEF82C4481EA030621EA70
:1081C0004C5123EA4C5350EA013518BF52EA0335AB
:1081D00041F4801143F4801338D0A0FB02CE4FF05D
:1081E0000005E1FB02E506F00042E0FB03E54FF08D
:1081F0000006E1FB03569CF0000F18BF4EF0010E85
:10820000A4F1FF04B6F5007F64F5407404D25FEA80
:108210004E0E6D4146EB060642EAC62141EA555133
:108220004FEAC52040EA5E504FEACE2EB4F1FD0C75
:1082300088BFBCF5E06F1ED8BEF1004F08BF5FEAF3
:10824000500E50F1000041EB045170BD06F00046A5
:1082500046EA010140EA020081EA0301B4EB5C0452
:10826000C2BFD4EB0C0541EA045170BD41F480114A
:108270004FF0000E013C00F3AB8014F1360FDEBF6F
:10828000002001F0004170BDC4F10004203C35DA4B
:108290000C341BDC04F11404C4F1200500FA05F3CE
:1082A00020FA04F001FA05F240EA020001F000426F
:1082B00021F0004110EBD37021FA04F642EB0601E5
:1082C0005EEA430E08BF20EAD37070BDC4F10C040F
:1082D000C4F1200500FA04F320FA05F001FA04F2D3
:1082E00040EA020001F0004110EBD37041F10001BF
:1082F0005EEA430E08BF20EAD37070BDC4F12005CA
:1083000000FA05F24EEA020E20FA04F301FA05F231
:1083100043EA020321FA04F001F0004121FA04F2D9
:1083200020EA020000EBD3705EEA430E08BF20EAA9
:10833000D37070BD94F0000F0FD101F000464000E3
:1083400041EB010111F4801F08BF013CF7D041EA65
:10835000060195F0000F18BF704703F00046520069
:1083600043EB030313F4801F08BF013DF7D043EA3A
:108370000603704794EA0C0F0CEA135518BF95EAF0
:108380000C0F0CD050EA410618BF52EA4306D1D177
:1083900081EA030101F000414FF0000070BD50EA96
:1083A000410606BF1046194652EA430619D094EA20
:1083B0000C0F02D150EA013613D195EA0C0F05D10A
:1083C00052EA03361CBF104619460AD181EA03015E
:1083D00001F0004141F0FE4141F470014FF0000016
:1083E00070BD41F0FE4141F4780170BD70B54FF0B1
:1083F000FF0C4CF4E06C1CEA11541DBF1CEA135531
:1084000094EA0C0F95EA0C0F00F0A7F8A4EB050412
:1084100081EA030E52EA03354FEA013100F0888009
:108420004FEA03334FF0805545EA131343EA1263D2
:108430004FEA022245EA111545EA10654FEA002687
:108440000EF000419D4208BF964244F1FD0404F540
:10845000407402D25B084FEA3202B61A65EB03059C
:108460005B084FEA32024FF480104FF4002CB6EB59
:10847000020E75EB030E22BFB61A754640EA0C00D9
:108480005B084FEA3202B6EB020E75EB030E22BF19
:10849000B61A754640EA5C005B084FEA3202B6EB5A
:1084A000020E75EB030E22BFB61A754640EA9C0019
:1084B0005B084FEA3202B6EB020E75EB030E22BFE9
:1084C000B61A754640EADC0055EA060E18D04FEAA7
:1084D000051545EA16754FEA06164FEAC30343EA47
:1084E00052734FEAC2025FEA1C1CC0D111F4801F14
:1084F0000BD141EA00014FF000004FF0004CB6E70D
:1085000011F4801F04BF01430020B4F1FD0C88BFAB
:10851000BCF5E06F3FF6AFAEB5EB030C04BFB6EBB6
:10852000020C5FEA500C50F1000041EB045170BDA9
:108530000EF0004E4EEA113114EB5C04C2BFD4EBD6
:108540000C0541EA045170BD41F480114FF0000E5A
:10855000013C90E645EA060E8DE60CEA135594EAD6
:108560000C0F08BF95EA0C0F3FF43BAF94EA0C0FD9
:108570000AD150EA01347FF434AF95EA0C0F7FF44E
:1085800025AF104619462CE795EA0C0F06D152EAA2
:1085900003353FF4FDAE1046194622E750EA410686
:1085A00018BF52EA43067FF4C5AE50EA41047FF497
:1085B0000DAF52EA43057FF4EBAE12E74FF0FF3CFC
:1085C00006E000BF4FF0010C02E000BF4FF0010CCD
:1085D0004DF804CD4FEA410C7FEA6C5C4FEA430C46
:1085E00018BF7FEA6C5C1BD001B050EA410C0CBF95
:1085F00052EA430C91EA030F02BF90EA020F0020F7
:10860000704710F1000F91EA030F58BF994208BF5D
:1086100090422CBFD8176FEAE37040F0010070471A
:108620004FEA410C7FEA6C5C02D150EA013C07D171
:108630004FEA430C7FEA6C5CD6D152EA033CD3D0BC
:108640005DF8040B704700BF8446104662468C46B6
:108650001946634600E000BF01B5FFF7B7FF0028E9
:1086600048BF10F1000F01BD4DF808EDFFF7F4FF12
:108670000CBF012000205DF808FB00BF4DF808ED9D
:10868000FFF7EAFF34BF012000205DF808FB00BFC0
:108690004DF808EDFFF7E0FF94BF012000205DF8E2
:1086A00008FB00BF4DF808EDFFF7CEFF94BF012097
:1086B00000205DF808FB00BF4DF808EDFFF7C4FF90
:1086C00034BF012000205DF808FB00BF4FEA410CD9
:1086D0007FEA6C5C02D150EA013C0AD14FEA430CBC
:1086E0007FEA6C5C02D152EA033C02D14FF00000F9
:1086F00070474FF0010070474FEA4102B2F1E0438A
:1087000024BFB3F5001CDCF1FE5C0DD901F0004C78
:108710004FEAC0024CEA5070B2F1004F40EB8300C8
:1087200008BF20F00100704711F0804F21D113F1F4
:108730003872BCBF01F00040704741F480114FEA2D
:108740005252C2F11802C2F1200C10FA0CF320FAB6
:1087500002F018BF40F001004FEAC1234FEAD323D3
:1087600003FA0CFC40EA0C0023FA02F34FEA43033D
:10877000CCE77FEA625307D150EA01331EBF4FF0C6
:10878000FE4040F44000704701F0004040F0FE40E1
:1087900040F40000704700BF10B50C464169036902
:1087A000826986B001F26C7104910168039141689D
:1087B000029181680191C1680091074903EB43036D
:1087C0000B44064902EB42020A4420460449FDF7E5
:1087D00007FF204606B010BD62910D004D910D00BF
:1087E0002D910D000A22002100F038B910B5054C7A
:1087F00013462CB10A4601460220AFF3008010BD9B
:108800002046FCE70000000038B5074B1D68EB6B05
:1088100004461BB92420FDF7CBFEE863E96B204634
:10882000BDE83840FDF71CBFB8E303200A4491427D
:1088300000F1FF3300D1704710B511F8014B03F878
:10884000014F9142F9D110BD884210B501EB0204ED
:1088500002D98442234607D8431EA14208D011F80A
:10886000012B03F8012FF8E7024401468A4200D1A8
:1088700010BD13F8014D02F8014DF7E7024403461D
:10888000934200D1704703F8011BF9E738B50D4B4F
:108890001D68AB6B04467BB91820FDF789FE0A4AB8
:1088A0000A4BA863C0E90023094B83600B23838133
:1088B00001220023C0E90423AB6B00221C615A6132
:1088C00038BD00BFB8E303200E33CDAB34126DE6E4
:1088D000ECDE050010F8012B11F8013B012A28BF3E
:1088E0009A42F7D0D01A7047034611F8012B03F8CB
:1088F000012B002AF9D17047024B0146186800F09D
:1089000003B800BFB8E3032037B5044608460D4658
:1089100000F00FF8421C114620460192FDF778FE48
:10892000044618B1019A2946FFF780FF204603B09C
:1089300030BD034613F8012B002AFBD1181A013869
:10894000704710B50139034632B111F8014F03F8F1
:10895000014B013A002CF7D11A440021934200D177
:1089600010BD03F8011BF9E72DE9F0473A4E8646A2
:108970008C4660461CF8014BA55D15F00805F8D142
:108980002D2C33D19CF800404FF0010800F1020C6F
:10899000002B5CD0102B0CD1302C0AD19CF800009D
:1089A00000F0DF0058284DD19CF8014010230CF155
:1089B000020C08F10047013F0026B7FBF3F93046EF
:1089C00003FB197AA4F13005092D18D82C46A342CF
:1089D00024DD751C07D081451DD301D1A2451ADBCA
:1089E00000FB034001261CF8014BEBE72B2C08BFD2
:1089F0009CF80040A84608BF00F1020CC8E7A4F1AB
:108A00004105192D01D8373CE1E7A4F16105192D85
:108A100004D8573CDBE74FF0FF36E4E7731C06D180
:108A20002223CEF80030384642B9BDE8F087B8F1CD
:108A3000000F00D04042002AF7D00EB10CF1FF31F8
:108A40001160F2E73024002BB3D10823B1E7302CBA
:108A5000A4D00A23ADE700BF87910D0013460A4654
:108A6000014602480068FFF77FBF00BFB8E303205C
:108A700021400D005D400D0085400D0089400D0036
:108A800000000000556E6B6E6F776E004E6F7420A5
:108A90004368617267696E67004368617267656405
:108AA000004469736368617267696E670046617547
:108AB0006C74004469636F6E6E6563746564003145
:108AC000002A004E6F204461746100556269646F32
:108AD000747320486F6F6B00526573706F6E7365AF
:108AE000205265636569766564005374617465003E
:108AF00053657420566572626F7365204D6F6465AF
:108B0000003000436C656172656420566572626F67
:108B10007365204D6F64650053657420746F203356
:108B200072642050617274792053696D00536574CA
:108B300020746F205061727469636C652053696D95
:108B4000004B65657020416C697665207365742003
:108B5000746F20256920736563004B656570204143
:108B60006C697665004C6F6164696E672053797338
:108B700074656D2044656661756C7473005065742E
:108B8000746564005761746368646F67007B227367
:108B9000656E736F724F6E65223A25342E31667D95
:108BA00000706F7765726D6F6E69746F72696E6752
:108BB0005F686F6F6B0046726F6D20257320746F56
:108BC000202573005374617465205472616E73695B
:108BD00074696F6E00737061726B2F646576696380
:108BE000652F73657373696F6E2F656E64004572D0
:108BF000726F72205374617465202D205265736505
:108C0000740052656C656173650074656D706572A2
:108C100061747572650068756D6964697479004284
:108C20006174746572790042617474657279436F1E
:108C30006E74657874004B65657020416C6976656B
:108C400020536563004D6561737572652D4E6F77B6
:108C500000566572626F73652D4D6F6465004572D5
:108C6000726F72202D20534854333120496E69743D
:108C700069616C697A6174696F6E005374617274B2
:108C800075700000000000000000000021420D008F
:108C900075420D000D410D000000000000000000B5
:108CA00019410D002D410D00B9590D00455B0D0016
:108CB000055B0D00E35A0D008B5C0D002B5B0D0076
:108CC000000000000000000041410D0055410D0072
:108CD000B14F0D0047500D00C9500D00848A0D00A2
:108CE0008C8A0D00908A0D00998A0D00A18A0D00D2
:108CF000AD8A0D00B38A0D005374617274757020D3
:108D00005375636365737366756C00000000000043
:108D10000000000000000000000000000000000053
:108D20000000000000000000000000000000000043
:108D3000000000000000000031362E30300000003E
:108D40000200000077726974654461746120666195
:108D5000696C656420647572696E67206572617301
:108D600065206672616D416464723D257500000086
:108D70000000000000000000D14E0D00D34E0D0099
:108D8000B14F0D0047500D00C9500D006465766964
:108D9000636552656164206661696C656420737403
:108DA00061743D2564007365742054696D652066A7
:108DB000726F6D2052544320257300646576696399
:108DC000655772697465206661696C6564207374A7
:108DD00061743D25640073657420525443206672AB
:108DE0006F6D20636C6F756420257300636C6F7505
:108DF000642074696D65206E6F742076616C69649F
:108E000000646576696365577269746545455052BB
:108E10004F4D206661696C656420737461743D25F3
:108E200064006170702E7274630000000000000026
:108E30000000000089510D009F510D0079510D0077
:108E40007D510D00C9510D00B1540D00D1560D00DA
:108E500000000000000000008D510D0091510D0038
:108E600000000000000000008B510D00AD510D000E
:108E700081510D0085510D00C9510D00EB540D00BD
:108E800011590D0000000000000000008F510D007E
:108E9000BB510D005075626C6973685175657565DD
:108EA0004173796E63007175657565696E672065DC
:108EB00076656E744E616D653D25732064617461E5
:108EC0003D25732074746C3D256420666C61677366
:108ED000313D256420666C616773323D25642073E3
:108EE000697A653D2564007075626C697368696EA6
:108EF000672025732025732074746C3D25642066DB
:108F00006C6167733D2578007075626C6973686584
:108F100064207375636365737366756C6C79007038
:108F200075626C6973686564206661696C65642C40
:108F30002077696C6C20726574727920696E2025C7
:108F40006C75206D73006170702E70756271000019
:108F50000000000000000000000000000000000011
:108F6000B9590D00A5400D00A5400D00A5400D000C
:108F7000A5400D00A5400D0000000000000000000D
:108F8000A15A0D00B55A0D00B9590D00455B0D00F1
:108F9000055B0D00E35A0D008B5C0D002B5B0D0093
:108FA00000000000000000002D670D0033670D0079
:108FB00071670D0041670D002F670D000000000074
:108FC00000000000376D0D002D6D0D00236D0D00AC
:108FD000196D0D000D6D0D00016D0D00F56C0D008E
:108FE000ED6C0D00E36C0D00D96C0D0021700D00CF
:108FF0000000000000000000556D0D009F6D0D0089
:10900000776D0D00576D0D007F6D0D00876D0D00A4
:109010008F6D0D00976D0D00000000000000000036
:10902000D56E0D00C56E0D00C76E0D00617070002D
:109030000000000000000000B96F0D00C36F0D00BC
:10904000CD6F0D00D76F0D00E16F0D00ED6F0D00BE
:10905000F96F0D0005700D000D700D0017700D00FB
:1090600021700D005A00252B3033643A25303275BB
:109070000025592D256D2D25645425483A254D3A56
:109080002553257A0061736374696D6500000000E3
:10909000000000000000000099760D0005770D002B
:1090A000DD760D0009710D00AD760D00C9760D005D
:1090B000BB760D00D7760D009B760D009F760D00D8
:1090C000000000000000000099770D0001780D00FD
:1090D000D7770D0009710D00C9770D009B770D0042
:1090E000AB770D00FB770D00BB770D0095770D007A
:1090F0000000000000000000FB780D00F1780D007A
:10910000E7780D009D780D00DB780D00CF780D001D
:10911000C3780D00BB780D00B1780D00A7780D0065
:1091200021700D00000000007371727400252E3351
:109130007320252E337325336420252E32643A257F
:109140002E32643A252E32642025640A0053756E4F
:109150004D6F6E54756557656454687546726953F2
:1091600061744A616E4665624D61724170724D6113
:10917000794A756E4A756C4175675365704F6374B3
:109180004E6F764465630020202020202020202080
:1091900028282828282020202020202020202020A7
:1091A00020202020202020881010101010101010D7
:1091B000101010101010100404040404040404041B
:1091C00004101010101010104141414141410101A3
:1091D000010101010101010101010101010101017F
:1091E000010110101010101042424242424202028D
:1091F000020202020202020202020202020202024F
:1092000002021010101020000000000000000000FA
:10921000000000000000000000000000000000004E
:10922000000000000000000000000000000000003E
:10923000000000000000000000000000000000002E
:10924000000000000000000000000000000000001E
:10925000000000000000000000000000000000000E
:1092600000000000000000000000000000000000FE
:1092700000000000000000000000000000000000EE
:109280000000000000000000614C0D0041590D007D
:109290001D5F0D0005670D00416D0D00A96F0D00EC
:1092A000F5700D00A9710D0045730D0085760D0058
:1092B00005790D0000000000000000000000000023
:1092C000000000000000000000000000000000009E
:1092D000000000000000000000000000000000008E
:1092E000000000000000000000000000000000007E
:1092F000000000000000000000000000000000006E
:049AC00000000000A2
:109AC40013000000000000000000000000806B4054
:109AD400496E697469616C697A6500000000000070
:109AE400000000000000000000004572726F720068
:109AF4000000000000000000000000000000000062
:109B04000000000049646C650000000000000000D3
:109B140000000000000000000000000000004D658F
:109B240061737572696E6700000000000000000038
:109B340000000000000000005265706F7274696ECE
:109B440067000000000000000000000000000000AA
:109B54000000526573706F6E7365205761697400FD
:109B640000000000000000000000000000000000F1
:109B740000000000000000000000000000000000E1
:109B840000000000000000000000000000000000D1
:109B940000000000000000000000000000000000C1
:109BA40085900D0001000000BCE3032000000000CC
:109BB40000000000000000000000000000000000A1
:109BC4000000000000000000000000000000000091
:109BD4000000000000000000000000000000000081
:109BE4000000000000000000000000000000000071
:109BF4000000000000000000000000000000000061
:0C9C040000000000000000000000000054
:109C1000FFFFFFFF00000102030405060708090A11
:109C20000B0C0D0E0F101112131415161718191A0C
:089C30001B1C1D1E1F20280053
:049C38007856341214
:04000003D0004020C9
:00000001FF
