:02000002D0002C
:1040000000400D0020C20D00000006000C0005015C
:084010000401DB0700000000C1
:04401800C4AB0D0028
:1040200009480A49884208B505D0094A824202D0A7
:10403000121A04F075FE0748074A0021121A04F00C
:1040400097FE014808BD00BFACDD032044BF0D0052
:1040500060E0032060E00320F0E7032070B5074E26
:10406000074C03F0F1FEA41BA4080025A54200D1D3
:1040700070BD56F8043B98470135F7E70CB70D00C3
:1040800038B70D0000F0DABD08B500F0B3FCBDE8AC
:10409000084003F09BBE02F027BC02F025BC02F0F2
:1040A0002BBC000008B5034A00210C2002F0FEFAE8
:1040B000FEE700BFDD630D000078B0FA80F0400934
:1040C0007047012303707047014B01221A7070473B
:1040D000F1E5032003681847012A03D0022A03D020
:1040E000002070470160FBE70B680360F8E7000001
:1040F00008B5044903F0D4FA18B1034B03221A702F
:10410000012008BD13AC0D00C5E50320436913B1C0
:1041100083690C301847704710B5034B03600446A1
:1041200001F018FE204610BDB0AF0D0010B50446DA
:10413000FFF7F2FF2046382103F07DFF204610BD37
:1041400010B5034B0360044601F01CF8204610BD77
:10415000D8AF0D0010B50446FFF7F2FF204610213E
:1041600003F069FF204610BD13B500210446084640
:1041700002F0BCF80023204601A9019302F0CEF81A
:10418000019C0CB1012323710021012002F0AEF843
:104190002CB1236820469B6898470023237102B006
:1041A00010BD10B50446006808B102F0A5FB20461A
:1041B00010BD00001FB5104B104A1B781278104933
:1041C00013438DF8003000223C2302A802F0AAFD20
:1041D000039C7CB16368013B63605BB92368204644
:1041E0009B689847A368013BA3601BB923682046DE
:1041F000DB68984704B010BD70E0032071E0032035
:1042000015AC0D0010B58368044613B103220146B6
:104210009847204610BD000037B5134B0360044695
:104220008068C8B100256FF00043CDE90035022158
:104230002B462A4602F07AF8A068294602F0AEF82A
:10424000237903F0FF0513B102F048F8F8E7A068FE
:10425000294602F05BF8A56004F10C00FFF7D2FFDD
:10426000204603B030BD00BF9CAF0D0010B5044622
:10427000FFF7D2FF20461C2103F0DDFE204610BDD3
:104280000246014802F049BCEF6A0D0007B508225A
:104290000023ADF800204FF47A71012201924143CE
:1042A0006A461846ADF8023002F0BEFA03B05DF877
:1042B00004FB07B580680B46002140B1CDE9002121
:1042C0000A46032102F032F8B0FA80F0400903B048
:1042D0005DF804FB37B504689DF818508DF8003080
:1042E0008DF80450E4683C23A04703B030BD0000C3
:1042F00010B50B7892B00C467BB9194902A804F0AE
:104300006DFD00238DF80030164B17491B781748B8
:1043100002AAFFF7DFFF12B010BD084604F0DBFC75
:10432000C8280ED1124902A804F058FD03F067FB1B
:10433000104B9861104B01221A70104B00221A701A
:10434000DFE7204604F0C7FCC928EBD0204604F084
:10435000C2FC0B4A0346402102A802F0E5FAD0E76E
:1043600017AC0D0071E003204EAC0D0018E50320E2
:104370001FAC0D00C8E50320F0E5032093E0032007
:1043800031AC0D0037B51649054603F089F90446EE
:1043900088B1144B144A1549154801245C72002356
:1043A0008DF80030134B1B78FFF794FF124B20461B
:1043B0001C7003B030BD1149284603F071F9002884
:1043C000F7D0084B0E4A5C720A4B8DF800401B7800
:1043D00006490748FFF77EFF074B01201870E8E702
:1043E00013AC0D00C8E503205BAC0D007EAC0D00E6
:1043F00018E5032071E00320F0E503206CAC0D000C
:104400006EAC0D0037B51C49054603F049F904466A
:1044100000B31A4C012360686370FFF737FF6368CD
:1044200017484FF47A716FF000425943FFF741FF8C
:1044300002F0C2F948B100238DF80030114B124A46
:104440001B7812491248FFF745FF124B01201870E4
:1044500003B030BD1049284603F022F90028F7D0F8
:10446000064B5C7002F0A8F90028EED0054B8DF8E1
:1044700000401B78094AE4E713AC0D00C8E50320AF
:10448000F8E4032071E0032083AC0D007EAC0D0046
:1044900018E50320F0E503206CAC0D0098AC0D008E
:1044A00010B5C4B000680A2203A905F095FBB0F569
:1044B000966F22D8124C6060FFF7E8FE63681148DF
:1044C0004FF47A7159436FF00042FFF7F2FE6368D0
:1044D0000D4A4FF4807104A802F026FA00238DF8EB
:1044E00000300A4B0A491B780A4804AAFFF7F2FE7B
:1044F000094B0120187044B010BD0020FBE700BF3D
:10450000C8E50320F8E40320ACAC0D0071E0032003
:10451000C5AC0D0018E50320F0E5032010B586B00A
:10452000044603F0CFF810EE100A04F015F80B4B18
:10453000C3E90001214602A803F056F800238DF8D4
:104540000030074B029A1B7806490748FFF7C2FE66
:1045500002A802F0DBFF012006B010BD70E50320C9
:1045600071E00320D0AC0D0018E5032010B586B033
:10457000044603F0A7F810EE100A03F0EDFF0B4B12
:10458000C3E90201214602A803F02EF800238DF8AA
:104590000030074B029A1B7806490748FFF79AFE3E
:1045A00002A802F0B3FF012006B010BD70E50320A1
:1045B00071E00320EBAC0D0018E5032010B586B0C8
:1045C000044603F07FF810EE100A03F0C5FF0B4B12
:1045D000C3E90401214602A803F006F800238DF880
:1045E0000030074B029A1B7806490748FFF772FE16
:1045F00002A802F08BFF012006B010BD70E5032079
:1046000071E0032006AD0D0018E5032010B586B05B
:10461000044603F057F810EE100A03F09DFF0B4B11
:10462000C3E90601214602A802F0DEFF00238DF84F
:104630000030074B029A1B7806490748FFF74AFEED
:1046400002A802F063FF012006B010BD70E5032050
:1046500071E0032023AD0D0018E5032010B586B0EE
:10466000044603F02FF810EE100A03F075FF0B4B11
:10467000C3E90801214602A802F0B6FF00238DF825
:104680000030074B029A1B7806490748FFF722FEC5
:1046900002A802F03BFF012006B010BD70E5032028
:1046A00071E003203FAD0D0018E5032010B586B082
:1046B000044603F007F810EE100A03F04DFF0B4B11
:1046C000C3E90A01214602A802F08EFF00238DF8FB
:1046D0000030074B029A1B7806490748FFF7FAFD9E
:1046E00002A802F013FF012006B010BD70E5032000
:1046F00071E003205BAD0D0018E5032007B502F063
:104700005BF848B100238DF800300B4B0B4A1B7847
:104710000B490C48FFF7DEFD0B4A0C487823536029
:1047200000230121537293722823118003B05DF896
:1047300004EB00F0E2BD00BF71E0032076AD0D0098
:104740007EAC0D0018E50320C8E50320E8E4032053
:1047500010B5124C237A012B04D902F02DF8D8B1F0
:10476000012323726368B3F5966F84BF4FF4167309
:104770006360637A012B84BF01236372A37A012BE8
:1047800084BF0023A3726369FF2B84BF002363618E
:10479000034B01221A7010BD2072E3E7C8E5032025
:1047A000F0E5032007B50121052003F0CEFB002131
:1047B000052003F0CAFB094A00231370084A527A05
:1047C00042B18DF80030074B074A1B78074908486B
:1047D000FFF780FD03B05DF804FB00BFF1E50320A7
:1047E000C8E5032071E003208EAD0D0095AD0D00EE
:1047F00018E5032010B51D4CADF50C7D606903F084
:10480000ABFECDE90A01206903F0A6FECDE908015F
:10481000E06803F0A1FECDE90601A06803F09CFE6C
:10482000CDE90401606803F097FECDE9020120683C
:1048300003F092FE0E4ACDE900014FF400710CA87E
:1048400002F072F800238DF800300A4B0A491B78F9
:104850000A480CAAFFF73EFD094B01221A7001F02D
:10486000C5FD084B18600DF50C7D10BDA0E50320BB
:104870009EAD0D0071E0032017AE0D0018E503207A
:1048800093E00320F4E5032030B5114D114C12499B
:104890002A7820788DB01A2303FB0212009203FBC2
:1048A00000130E4A282102A802F03EF82B7823704C
:1048B00001F082FF48B100238DF80030084B094910
:1048C0001B78094802AAFFF705FD0DB030BD00BFF7
:1048D000C5E5032014E50320B2DD03202CAE0D0056
:1048E00071E003203AAE0D0018E5032030B50D4D00
:1048F0000FCD89B001AC0FC495E807000A4B84E8DE
:1049000007001B7C094808AA02EB8303102153F817
:104910001C3C074A02F008F8064B01221A7009B045
:1049200030BD00BFECAF0D00C8E5032072E00320EE
:10493000C8B00D00F0E5032038B5264C002384F8FC
:104940002030FFF7D3FF24484FF4B96101F054FC45
:1049500051EC100B04F028F94FF4B96120601F48A6
:1049600001F04AFC51EC100B04F01EF94FF4B96150
:1049700060601B4801F040FC51EC100B04F014F98E
:104980004FF4B961A060174801F036FC51EC100BF0
:1049900004F00AF94FF4B961E060134801F02CFC0F
:1049A00051EC100B04F000F94FF4B96120610F488D
:1049B00001F022FC51EC100B04F0F6F801256061C7
:1049C00084F8205003F01BF8094BA0611D702846A5
:1049D00038BD00BFA0E5032098E0032050E103208C
:1049E00008E20320C0E2032078E3032030E4032040
:1049F000C4E5032070B5784C2378013B86B0042BC6
:104A000017D8DFE803F0C30341519000734B5B7A82
:104A10002BB1734B1B78022B01D0FFF735FF02F04F
:104A2000EEFF0A2390FBF3F202FB13030BB90323FF
:104A300023706C4801F03EF86B4B1B780BB1FFF70D
:104A4000B1FE6A4C23783BB12823644A68480121AF
:104A500000F053FC00232370664C23783BB12423E1
:104A6000654A6348A02100F048FC00232370634C92
:104A700023783BB13023624A5D48F02100F03DFCD1
:104A80000023237006B070BD544B5B7A2BB1544B9E
:104A90001B78032B01D0FFF7F7FEFFF74DFF08B996
:104AA0000223C5E70423C3E74C4B5B7A2BB14C4B85
:104AB0001B78042B01D0FFF7E7FE01F07DFE0546D1
:104AC00078B102F0ADFF0C2805D101F075FE10B1F0
:104AD000002001F091FEFFF72FFFFFF78BFE05236B
:104AE000A6E7484E484A337848498DF800004848C0
:104AF000FFF7F0FB01F060FE0A22014602A802F077
:104B000090FD3378029A434941488DF80050FFF7F1
:104B1000E1FB02A802F0FAFC0123237001F066FC1D
:104B20003D4B186085E72D4B5B7A2BB12C4B1B78E6
:104B3000052B01D0FFF7A8FE384B1B7843B902F0D4
:104B40005EFF0A2390FBF3F202FB1303002BA7D1B5
:104B500001F04CFC324B1B68C01A4AF6C8739842ED
:104B60007FF667AF01F042FC2B4D2E4A28600023F0
:104B70008DF80030234B2C491B782548FFF7AAFB02
:104B80000123237001F032FC286052E7144B1B789C
:104B9000012B01D0FFF778FE01F028FC1E4B1B68AB
:104BA00003F5922303F578738342BFF442AF01F01B
:104BB00003FE48B100238DF80030124B1B4A1B78CE
:104BC0001B491348FFF786FB4FF4FA6001F0F4FE2F
:104BD00002F09AFD2DE700BFC5E50320C8E50320DC
:104BE00014E5032054E50320F1E50320F0E503205C
:104BF000E8E40320C4E50320A0E5032092E00320BD
:104C000070E5032071E003204BAE0D0060AE0D0097
:104C100018E503206FAE0D0050E5032093E003205C
:104C2000F4E503205CB40D0089AE0D00A2AE0D00CA
:104C3000B6AE0D000023092201F0A6BD2DE9F04714
:104C400000219AB0082003F06FF90121052003F03C
:104C50006BF9FFF7A7FD0023009301224FF0FF330C
:104C6000A849082002F09EFAA74B0AAA03F11005F2
:104C7000174618685968144603C40833AB422246E5
:104C8000F7D119889B78A3702D2221800DF13B006C
:104C900000219E4C9E4D002604F06AF802A8267062
:104CA00001F092FD02A906A802F09EFC994906A80F
:104CB00002F0E1FCCDE900669749006833463246D0
:104CC00001F092FD06A802F021FC02A802F01EFCF1
:104CD000924993483346042201F056FD9149924887
:104CE0003346042201F050FD904991483346042296
:104CF00001F04AFD8F4990483346022201F044FDFD
:104D0000334601228D498E4801F03EFD8D498E4883
:104D1000FFF790FF8D498E48FFF78CFF8D498E4835
:104D20003346092201F030FD8C498D483346092273
:104D300001F02AFD334609228A498B4801F024FDFF
:104D40008A498B48FFF776FF8A498B48FFF798FA24
:104D50008A498B48FFF794FA8A498B48FFF790FA03
:104D60008A497748FFF78CFA89498A48FFF788FA19
:104D700089498A48FFF784FA89498A48FFF780FA07
:104D800089498A48FFF77CFA89498A48FFF778FA07
:104D900089498A48FFF774FA894800F085FD314651
:104DA000874800F0BEFE874800F01AFA01238548C4
:104DB00006AA314600F056FA9DF81830052B60D04F
:104DC000804800F017FA804A7E480423314600F0FC
:104DD00094FA01237B4806AA314600F043FA9DF875
:104DE0001830052B4AD001232370564EFFF7B0FC34
:104DF000764B7748197896ED000B01F0F1F9754B79
:104E00007548197896ED020B01F0EAF9734B744876
:104E1000197896ED040B01F0E3F9724B724819789A
:104E200096ED060B01F0DCF9704B7148197896EDA0
:104E3000080B01F0D5F96F4B6F48197896ED0A0B06
:104E400001F0CEF96B788BB3002001F0DFFA4FF060
:104E5000000A0646002001F0D9FAB0EB060861EB23
:104E60000A09002347F22F524B4508BF42450FD392
:104E700001F0A2FC60B901F097FCEBE7FFF73EFC04
:104E8000B3E728232A4601214E4800F0EBF9ACE7AE
:104E900001F092FC6868FFF7F9F96B6857484FF426
:104EA0007A716FF000425943FFF703FAFFF744FDB0
:104EB0006B7A4BB100238DF80030514B51491B7870
:104EC00051483A46FFF706FA01F076FC10B901F0B6
:104ED0006BFCF9E701F070FC23780BB90223237017
:104EE0000023227849498DF80030454B1A2000FBF9
:104EF00002121B7846494448FFF7ECF91AB0BDE8A6
:104F0000F08700BFC9400D0008B00D00C5E50320C3
:104F1000C8E50320BCAE0D00F1420D0048B00D0005
:104F2000E1AE0D0082E00320E9AE0D0072E0032047
:104F3000F1AE0D00CCE5032000AF0D00C9E5032064
:104F40008AAC0D0070E503202CAF0D0078E503203E
:104F50003DAF0D0080E503204EAF0D0088E5032036
:104F600061AF0D0090E5032073AF0D0098E50320BD
:104F700085AF0D00F1400D000FAF0D0085430D0012
:104F80001BAF0D00A1440D00C5AC0D0005440D0084
:104F90001D450D0028AF0D006D450D0039AF0D000A
:104FA000BD450D004AAF0D000D460D005DAF0D0073
:104FB0005D460D006FAF0D00AD460D0081AF0D00D9
:104FC00054E50320E8E4032050B00D00ACDD0320DD
:104FD00098E00320ADDD032050E10320AEDD032087
:104FE00008E20320AFDD0320C0E20320B0DD032090
:104FF00078E30320B1DD032030E40320F8E403204C
:1050000071E0032067AE0D0018E50320B2DD032038
:1050100060AE0D0000000000F0B5434B434C444E21
:1050200001271F70434B022200251A70424BA360D8
:1050300089B02560A580A571384601F04FFB324646
:105040003E49204602F0F2FF2946384601F056FB61
:105050003946042001F0AAF902F0C0FF384C01469D
:105060002B464FF40052204600F0B0F8354B236039
:1050700032463549204602F0D9FF02F0AFFF334CEB
:105080000146204600F018FB2046314C314932469B
:1050900002F0CCFF30494FF40062204600F082FF5E
:1050A0002E4B236032462E49204602F0BFFF2D4B87
:1050B000049304AF2C4C2D4B236097E8030002AA05
:1050C00004F10C0382E8030093E8030087E803007F
:1050D00092E8030083E80300254B6361A36907930B
:1050E000244BA361244A25712346A5604FF47A71AD
:1050F000CDE9005504F10800069501F0FFF83846A7
:10510000FFF780F81D493246204602F08FFF04A1C8
:10511000D1E900011A4BC3E9000109B0F0BD00BF9D
:105120000AD7A3703DBA564071E0032064E0032023
:1051300060E0032070E003200000FFFFA3410D00AA
:10514000E8E40320D8AF0D0041410D0054E50320F1
:1051500018E5032043540D0000F40320B0AF0D0008
:1051600019410D00B5410D00F8E403209CAF0D007E
:10517000D9400D00D5400D0069410D0019420D00C8
:1051800070E50320704710B51021044602F053FF6C
:10519000204610BD0368C9B29B6818470EB410B50D
:1051A0008DB00FAA016852F8044B0392002320200F
:1051B000CDE90403CDE900421E2004AA01F07EFAE5
:1051C0000DB0BDE8104003B07047000030B5034D8E
:1051D000C0E90223C0E9005130BD00BF88B00D0016
:1051E000406801F091BF10B50446006801F0CFFFA0
:1051F000204610BD2DE9F0418AB004464068019078
:1052000001F0BCFF1E22002102A8A76803F0B0FD38
:105210000026EFB123681E2FB84628BF4FF01E08A6
:10522000DD6802AA434631462046A847054658B9DC
:105230000A480B493246FFF7B1FF01A8FFF7D3FF39
:1052400028460AB0BDE8F081A7EB08074644E0E72E
:1052500001A8FFF7C8FF0125F2E700BF0CE6032015
:1052600054B00D002DE9F7430446406801900D4607
:1052700016461F4601F082FFA7B1E168606841F061
:10528000500101F074FF290A6068FFF783FF294687
:105290006068FFF77FFF6068002101F06BFF48B195
:1052A000002400E0012401A8FFF79DFF204603B081
:1052B000BDE8F083202F217B6068B84628BF4FF0FF
:1052C00020080123424641F0500101F03AFF02F06C
:1052D00085FE03681B6998474045E1DB06EB08093A
:1052E00002F07CFE03685B69984706F8010B4E45A7
:1052F000F6D14544A7EB0807BEE72DE9F74F044672
:10530000406801900E4690461D4601F037FF4FF071
:105310000109B9F1000F2AD04DB3E168606841F08E
:10532000500101F024FF310A6068FFF733FF606825
:105330003146FFF72FFFA5F11E0A4746A6EB080BE3
:10534000606817F8011B0368013D9B689847554545
:105350000BEB0706B84601D0002DF1D160680121A2
:1053600001F008FF0028D7D04FF00009D1E701A8CD
:10537000FFF739FF484603B0BDE8F08F2DE9F04351
:105380008BB00E4615468046406801901C4601F0E1
:10539000F5FEAE4229D2264425448CB11E2C274668
:1053A000D8F8003028BF1E27F61BD3F8089002AAB1
:1053B0003B4631464046ED1BC84748B9002400E053
:1053C000012401A8FFF70FFF20460BB0BDE8F083D2
:1053D000D8F8003002AAD3F80C9029463B46404644
:1053E000C8470028EAD0E41BD7E7E9D9002CE7D06A
:1053F000D8F800301E2C274628BF1E27D3F8089067
:1054000002AA3B4631464046C8470028D6D0D8F8C5
:10541000003002AAD3F80C9029463B464046C847C4
:105420000028CBD03E443D44E41BDFE740207047DA
:105430000020704780207047FF20704770477047FA
:105440007047704710B51421044602F0F4FD204661
:1054500010BD10B50821044602F0EDFD204610BD38
:1054600010B50821044602F0E6FD204610BD10B537
:105470001C21044602F0DFFD204610BD2DE9FF414E
:105480000368DB680446984710220146684603F02B
:105490006FFC236820469B689847002507462846EE
:1054A000BD420ED27E1B2368102E28BF1026D3F8D3
:1054B00018806A46334629462046C04708B135441D
:1054C000EEE704B0BDE8F0814FF48073438140F211
:1054D0000113C360002303827047000008B5064B28
:1054E0000360064B436040F204730381002343745E
:1054F000FFF7EAFF08BD00BF68B10D00000102031D
:1055000003090A2200F00F0002FB0300704708B5F0
:10551000807AFFF7F5FF00F5FA6008BDC07A00F069
:105520001F00FFF7EDBF007B00F03F00FFF7E8BF73
:1055300008B5817B4A060DD501F01F00FFF7E0FF9B
:105540008B0603D50C2800D00C3008BD0C2808BFF2
:105550000020FAE7BDE8084001F03F00FFF7D0BFA8
:10556000C07B00F07F00FFF7CBBF007C00F07F0026
:10557000FFF7C6BF10B58AB024220446002101A857
:1055800003F0F6FB2046FFF7C2FFA0F26C70069016
:105590002046FFF7C3FF013805902046FFF7C3FF01
:1055A00004902046FFF7C4FF03902046FFF7D8FF82
:1055B00002902046FFF7D9FF019001A801F0F4F90D
:1055C0000AB010BD0A2190FBF1F292FBF1F301FB4E
:1055D00013231B01DBB201FB12001843C0B270475A
:1055E000642310B5044691FBF3F000FB1310FFF7A2
:1055F000E9FFA07210BD10B504460846FFF7E2FFB0
:10560000E07210BD10B504460846FFF7DBFF237BB0
:1056100023F03F031843207310BD10B50446481C07
:10562000FFF7D0FF637B23F007031843607310BDBF
:1056300010B504460846FFF7C5FFA07310BD10B5AE
:1056400004460846FFF7BEFFE07310BD10B50446E0
:105650000846FFF7B7FF237C23F07F03184320742D
:1056600010BD37B504466846CDE9002303F046FB7C
:10567000054641692046FFF7B3FF296920460131FD
:10568000FFF7B9FFE9682046FFF7BCFFA96920468C
:10569000FFF7C3FFA9682046FFF7CAFF69682046E5
:1056A000FFF7CDFF29683B29A8BF3B212046FFF724
:1056B000CDFF03B030BD0000054A0061C0E9002104
:1056C000044A8260044AC260044A806142617047B1
:1056D0009CB10D000000010344B10D0078B10D0034
:1056E0002DE9F84F04460F469046994600260A9B3E
:1056F0009E4231D26068394601F035FD08EB060163
:105700006068FFF747FD6068002101F033FD054642
:10571000D0B90A9B60689A1B202A4FF0010328BF6A
:105720002022394601F00DFD09EB060B05460BEB77
:10573000000ADA4506D0606803685B6998470BF891
:10574000010BF6E72E44D2E7024604490448FFF76E
:1057500025FD2846BDE8F88F0025FAE79CB00D002E
:10576000F8E503202DE9F34101EB03081E46036829
:105770009B6805460C461746984780450DD820344F
:10578000686800963B46E2B26F21FFF7A9FFB0FAC6
:1057900080F0400902B0BDE8F0810020FAE72DE971
:1057A000F34101EB03081E4603689B6804460D465F
:1057B0001746984780450CD8606800963B46EAB289
:1057C0005721FFF78DFFB0FA80F0400902B0BDE825
:1057D000F0810020FAE77FB51E1E0CBF07230623C9
:1057E0000093144602AB0A466F21FFF779FF054686
:1057F000A8B99DF8083023749DF80930E3739DF82B
:105800000A30A3739DF80B3063739DF80C3023733B
:105810009DF80D30E3722EB99DF80E30A372284624
:1058200004B070BD02F008F9FFF7CCFEA072F6E7F5
:105830001FB501230A4600936F2103ABFFF750FF0A
:1058400020B99DF80C0005B05DF804FB0020FAE7D4
:1058500008B50321FFF7ECFFC0F3401008BD38B5D1
:1058600000230C460A4619460546FFF7B4FF30B937
:10587000A37A23B12846BDE83840FFF7E9BF0020EE
:1058800038BD7FB5024601A8FFF728FE01A91046E2
:10589000FFF7E5FF28B101A8FFF76CFE07B05DF840
:1058A00004FB00200146F9E7D0B5044686B0406805
:1058B00001F02AFC02F086F8E8B9E37A9B071AD5D2
:1058C0002046FFF7DEFF06460F4656EA070312D0D2
:1058D00001F07FFF0A4B0B491B68009332463B46A1
:1058E00002A802F02DF80848029A0849FFF756FC72
:1058F00002A801F00BFE0123237206B0D0BD00BF49
:1059000084DE032038E60320F8E50320B6B00D005E
:105910002DE9F84F0646884691469A4600250A9B8F
:105920009D4229D27068414601F01DFC706809EB68
:105930000501FFF72FFC0A9B5F1B1F2F28BF1F27A6
:105940000AEB050407EB040B706814F8011B0268EE
:1059500092689047A345F7D17068012101F00AFCD5
:10596000044638B1024605490548FFF717FC2046B2
:10597000BDE8F88F3D44D2E70024F8E7CBB00D0036
:10598000F8E503202DE9F34101EB03081E46036807
:105990009B6805460C461746984780450DD820342D
:1059A000686800963B46E2B26F21FFF7B1FFB0FA9C
:1059B00080F0400902B0BDE8F0810020FAE71FB591
:1059C000137C8DF80830D37B8DF80930937B8DF8EC
:1059D0000A30537B8DF80B30137B8DF80C30D37A63
:1059E0008DF80D30937A8DF80E30072300930A4618
:1059F00002AB6F21FFF78CFF05B05DF804FB10B51B
:105A000088B0044603A80193FFF768FD019B03A833
:105A1000FFF727FE9DF81C30A27A63F07F038DF814
:105A20001C309DF819306AB143F0080303AA002125
:105A300020468DF81930FFF7C2FFB0FA80F0400918
:105A400008B010BD03F0F703F0E70000F0B587B031
:105A5000054601F0B7FF0446E8B101F0D0FFC717D3
:105A6000024606463B462846FFF7C9FF0C4B0D4948
:105A70001B68009332463B46044602A801F060FFD3
:105A80000948029A0949FFF789FB02A801F03EFD87
:105A9000204607B0F0BD06490348FFF77FFBF7E754
:105AA00084DE032038E60320F8E50320E6B00D008D
:105AB000FCB00D0037B5457A04469DB901F082FF70
:105AC00080B10022002369462846CDE9002300F07A
:105AD000A3FE38B1E37ADB0702D52046FFF7B6FF15
:105AE0000123637203B030BD1FB501238DF80C2074
:105AF00000930A4603AB6F21FFF70AFF05B05DF87C
:105B000004FBF8B504460D4617461E46FFF790FE07
:105B100000EA0702324329462046BDE8F840FFF775
:105B2000E3BF012908B50CD800294FF0000314BFCA
:105B3000DF22EF220721FFF7E4FFB0FA80F04009EF
:105B400008BD0020FCE738B50446322560685721BF
:105B500001F009FB6068012101F00CFB08B1013D77
:105B6000F4D138BD2DE9F04104460F46164602EB4C
:105B70000308B04520D06068572101F0F4FA394697
:105B80006068FFF707FB606816F8011B03689B68F5
:105B900098476068012101F0EDFA0137054638B1F8
:105BA000024606490648FFF7F9FA2846BDE8F081A3
:105BB0002046FFF7C8FFDCE70025F6E711B10D002E
:105BC000F8E50320F7B5CF181E46036801929B68DD
:105BD00004460D46984787420AD8019A60683346C2
:105BE000E9B2FFF7BFFFB0FA80F0400903B0F0BDA3
:105BF0000020FBE7014B024A1A607047F8E50320DA
:105C000032B10D00012A034602D101600020704725
:105C1000022A04BFD1E90001C3E90001F6E710B58B
:105C2000012303748368044643B1C0689847012385
:105C300063740020BDE8104000F0A8BB0068002895
:105C4000F5D083680BB902F0FCF9C368EEE710B435
:105C500042680346541001EB6200D20748BF0A595C
:105C60001B685DF8044B48BFD35818470123F7B5AC
:105C700080F829300646083000F060FB0420FEF76B
:105C80000AFA054698B31B49142002F0D6F930B140
:105C90000023C0E90033C0E9023303744374286071
:105CA000A0B1154B1549C0E902364FF40063CDE9A8
:105CB00000030222124B043000F008FB30B92B68BD
:105CC0001B7CA3B9012000F081FBF8E72C680023BE
:105CD0002B6064B1276837B13846FEF793FA10217C
:105CE000384602F0A8F91421204602F0A4F97560A4
:105CF00003B0F0BD34B40D000B5F0D00A4B10D0076
:105D00001F5C0D0047F23051084AC160084902602B
:105D10000022C0E904120749C16107494260C0E995
:105D200008228161028580F82A20704768B20D0040
:105D300075600D004F5C0D00055C0D0010B5044B47
:105D4000044640F8103BFEF75DFA204610BD00BF48
:105D500068B20D0010B5034B03600446FFF7EEFF79
:105D6000204610BD90B20D0010B50446FFF7F2FFBB
:105D70002046382102F05FF9204610BD806800F00F
:105D8000E5BA806800F0EABA10B504460068FFF78B
:105D9000F8FF204610BD13B504460190FFF7EEFF53
:105DA000E36ADC88A4B20CB103F1080401A8FFF790
:105DB000EBFF204602B010BD13B504460190FFF77B
:105DC000DDFF94F8283043B9E26A0124D38001A8AA
:105DD000FFF7DAFF204602B010BD0024F7E713B545
:105DE00004460190FFF7CAFFE36A01A8DC88FFF7C9
:105DF000CBFF204602B010BD2DE9F047994686B092
:105E000090F829309DF838A09DF83C8004460F4654
:105E1000164613B903689B689847314B3846002EE5
:105E200008BF1E4602F0FFFF0546304602F0FBFFAA
:105E3000284400F10A05AB071CBF25F00305043513
:105E40003346CDE90285CDE9009A264926483A46EF
:105E5000FFF7A4F9238E083BAB4212D20024204660
:105E600006B0BDE8F087CB88012B36D005A8FFF738
:105E70008BFF236894F828109B69204698470028D8
:105E8000ECD020460594FFF779FFE16A228E636B20
:105E90000A44D21AAA42E6D348EA0A0883F80480E0
:105EA000C3F80090636B03F108083946404602F0DE
:105EB00095FF404602F0B7FF01303146404402F002
:105EC0008DFF636BE26A1D446563D3880133D38021
:105ED000012405A8FFF758FFC1E70024F9E700BF38
:105EE0005CB40D00B6B10D00FCE5032008B5044616
:105EF00000F11005A3690BB902F0A3F8E36921468C
:105F00002846984700F0EAF9F4E708B5FFF7EEFFF6
:105F100068B501F108050646284602F084FF013005
:105F20000544284602F07FFFF36A01302844C31A73
:105F300013F003031CBFC3F10403C01868BDF7B519
:105F400004460E460190FFF719FFE76AFB8807F148
:105F50000805E6B1012B22D929462046FFF7D8FFD4
:105F6000054629462046FFF7D3FF228E3A44121AEF
:105F70000146A0EB050602D0284602F0DFFE636B67
:105F80009B1B6363FB88013BFB80012601E0002B28
:105F9000E7D101A8FFF7F8FE304603B0F0BD0026B8
:105FA000F7E700002DE9F0470D4604462F46164658
:105FB000FFF7A8FE154B57F8082B2360144BE5623A
:105FC0009A422686984617D1AB889BB2B34213D12A
:105FD00005EB060A67634FF00009EB881FFA89F2A8
:105FE0009BB29A420ED2616B2046FFF791FF50455B
:105FF000606309F10109F0D90023C5F800806763E7
:10600000AE80EB802046BDE8F08700BF90B20D0067
:1060100061AB9CD110B5D1E9002386B000210446C4
:1060200004910AB9D90705D5CDE902230F4B059391
:106030000F4B049302AB93E803006A4682E8030027
:1060400094E8030083E8030092E80300049A84E8DC
:106050000300A168A260059A04911846E168E26015
:106060000591FEF7CFF8204606B010BD4F5C0D003D
:10607000055C0D0007B5054B009369460023103001
:106080000193FFF7C7FF03B05DF804FBBD600D008F
:1060900013B5044600F0AAF9636AC01AE36898428F
:1060A00008D3054B00936946002304F110000193C7
:1060B000FFF7B0FF02B010BDBD600D002DE9F0414B
:1060C00090F82A3086B00446002B64D100F074FBAF
:1060D000002860D000F08AF9636AC01A40F2F133F8
:1060E000984258D9236820465B699847054600289E
:1060F00051D000F10807012384F82830384602F017
:1061000092FE95F80480CDF8048001302B682B496D
:1061100000933E1833462A483A46FFF73FF82B686B
:106120008DF800803246394602A800F0FBFD029D42
:106130006B781BB9012000F03FFCF8E7002000F06D
:10614000E5FA20B16B7813B900F02EFBFAE72B7853
:10615000012B23D11B491A48FFF720F8236800219F
:106160009B6920469847002384F8283000F03EF9C8
:106170006062039C7CB16368013B63605BB9236828
:1061800020469B689847A368013BA3601BB923681E
:106190002046DB68984706B0BDE8F081E2680A490E
:1061A0000748FEF7FBFF094B049304A9002304F101
:1061B00010000593FFF72EFFD5E700BFF7B10D00E4
:1061C000FCE5032018B20D002FB20D0091600D0008
:1061D000014B024A1A607047FCE5032056B20D00DD
:1061E000034BC162002280ED0E0BC0E91C237047F7
:1061F0000000A040000000002DE9F74FDFF8C8B014
:106200000191044600254FF0000A019B9D422FD0CA
:10621000A08D01F0B3FED4E91C89E06402F08AF994
:1062200042464B4606460F4602F036F852465B465B
:1062300002F0EAF942464B4602F030F802460B46BD
:10624000C4E91C233046394602F026F802460B46C4
:10625000C4E9182302F0D8F902460B46C4E9242306
:10626000D4E9260102F01AF80135C4E92601CCE789
:1062700013A3D3E90023D4E90E0102F0C5F90646C1
:1062800028460F4602F046F902460B46D4E926019D
:1062900002F0E4FA41EC100B01F0D6FE32463B4628
:1062A00051EC100B02F0B0F941EC100B002200236E
:1062B000C4E90801C4E9262303B0BDE8F08F00BF9C
:1062C0006666666666664A3F0000503F08B5024B48
:1062D0001B685B68019308BD4802030008B5024BC8
:1062E0001B68DB68019308BD4802030008B5024B38
:1062F0001B68DB69019308BD4802030008B5024B27
:106300001B681B6A019308BD4802030008B5024BD5
:106310001B685B6A019308BD4802030008B5024B85
:106320001B689B6A019308BD4802030008B5024B35
:106330001B68DB6A019308BD4802030008B5024BE5
:106340001B681B6B019308BD4802030008B5024B94
:106350001B689B6B019308BD4802030008B5024B04
:106360001B681B6C019308BD4802030008B5024B73
:106370001B685B6C019308BD4802030008B5024B23
:106380001B689B6C019308BD4802030008B5024BD3
:106390001B68DB6E019308BD4802030008B5024B81
:1063A0001B681B6F019308BD4802030008B5024B30
:1063B0001B685B6E019308BD3402030008B5024BF5
:1063C0001B685B68019308BD1802030008B5024B07
:1063D0001B689B68019308BD1802030008B5024BB7
:1063E0001B68DB68019308BD1802030008B5024B67
:1063F0001B685B69019308BD1802030008B5024BD6
:106400001B689B6D019308BD1802030008B5024B81
:106410001B68DB6D019308BD1802030008B5024B31
:106420001B685B6E019308BD1802030008B5024BA0
:106430001B689B6E019308BD1802030008B5024B50
:106440001B685B68019308BD2C02030008B5024B72
:106450001B689B68019308BD2C02030008B5024B22
:106460001B68DB68019308BD2C02030008B5024BD2
:106470001B681B69019308BD2C02030008B5024B81
:106480001B689B69019308BD2C02030008B5024BF1
:106490001B68DB69019308BD2C02030008B5024BA1
:1064A0001B681B6B019308BD2C02030008B5024B4F
:1064B0001B68DB68019308BD2802030008B5024B86
:1064C0001B689B69019308BD2802030008B5024BB5
:1064D0001B68DB69019308BD2802030008B5024B65
:1064E0001B681B6A019308BD2802030008B5024B14
:1064F0001B685B6A019308BD2802030008B5024BC4
:106500001B689B6A019308BD2802030008B5024B73
:106510001B68DB6A019308BD2802030008B5024B23
:106520001B681B6B019308BD2802030008B5024BD2
:106530001B685B6B019308BD2802030008B5024B82
:106540001B681B6C019308BD2802030008B5024BB1
:106550001B689B6C019308BD2802030008B5024B21
:106560001B68DB6C019308BD2802030008B5024BD1
:106570001B681B6D019308BD2802030008B5024B80
:106580001B685B69019308BD6402030008B5024BF8
:106590001B689B68019308BD6802030008B5024BA5
:1065A0001B68DB68019308BD6802030008B5024B55
:1065B0001B68DB69019308BD3002030008B5024B7C
:1065C0001B681B6A019308BD3002030008B5024B2B
:1065D0001B681B68019308BD3C02030008B5024B11
:1065E0001B68DB68019308BD3C02030008B5024B41
:1065F0001B681B69019308BD3C02030008B5024BF0
:106600001B685B69019308BD3C02030008B5024B9F
:106610001B689B69019308BD3C02030008B5024B4F
:106620001B68DB69019308BD3C02030008B5024BFF
:106630001B681B6A019308BD3C02030008B5024BAE
:106640001B689B6A019308BD3C02030008B5024B1E
:106650001B681B68019308BD4C02030008B5024B80
:106660001B681B69019308BD4C02030008B5024B6F
:106670001B685B69019308BD4C02030008B5024B1F
:106680001B689B69019308BD4C02030008B5024BCF
:106690001B68DB69019308BD4C02030008B5024B7F
:1066A0001B681B6A019308BD4C02030008B5024B2E
:1066B0001B685B6B019308BD6002030008B5024BC9
:1066C0001B685B6D019308BD6002030008B5024BB7
:1066D0001B681B68019308BD2002030008B5024B2C
:1066E0001B685B68019308BD2002030008B5024BDC
:1066F0001B685B69019308BD2002030008B5024BCB
:106700001B68DB6A019308BD2002030008B5024B39
:106710001B68DB6C019308BD2002030008B5024B27
:106720001B685B6D019308BD2002030008B5024B96
:106730001B689B6D019308BD2002030008B5024B46
:106740001B68DB6D019308BD2002030008B5034BF5
:106750001B68D3F88830019308BD000020020300B5
:1067600008B5034B1B68D3F89430019308BD0000B3
:106770002002030008B5034B1B68D3F8AC3001932B
:1067800008BD00002002030008B5024B1B681B680F
:10679000019308BD4402030008B5024B1B685B6807
:1067A000019308BD4402030008B5024B1B689B68B7
:1067B000019308BD4402030008B5024B1B685B69E6
:1067C000019308BD4402030008B5024B1B68DB6956
:1067D000019308BD4402030008B5024B1B681B6A05
:1067E000019308BD4402030008B5024B1B685B6AB5
:1067F000019308BD4402030008B5024B1B68DB6A25
:10680000019308BD4402030008B5024B1B681B6BD3
:10681000019308BD4402030008B5024B1B685B6B83
:10682000019308BD4402030008B5024B1B689B6B33
:10683000019308BD4402030008B5024B1B68DB6BE3
:10684000019308BD4402030008B5024B1B685B6856
:10685000019308BD4002030008B5024B1B689B680A
:10686000019308BD4002030008B5024B1B68DB68BA
:10687000019308BD4002030008B5024B1B681B6969
:10688000019308BD4002030008B5024B1B685B6919
:10689000019308BD4002030008B5024B1B689B69C9
:1068A000019308BD4002030008B5024B1B68DB6979
:1068B000019308BD4002030008B5024B1B681B6A28
:1068C000019308BD4002030008B5024B1B681B6B17
:1068D000019308BD4002030008B5024B1B685B6BC7
:1068E000019308BD4002030008B5024B1B681B68FA
:1068F000019308BD1C02030008B5024B1B685B68CE
:10690000019308BD1C02030008B5024B1B689B687D
:10691000019308BD1C02030008B5024B1B681B69EC
:10692000019308BD1C02030008B5024B1B68DB691C
:10693000019308BD1C02030008B5024B1B68DB6A0B
:10694000019308BD1C02030008B5024B1B681B6BBA
:10695000019308BD1C02030008B5024B1B68DB6BEA
:10696000019308BD1C02030008B5024B1B685B6C59
:10697000019308BD1C02030008B5024B1B689B6C09
:10698000019308BD1C02030008B5024B1B68DB6CB9
:10699000019308BD1C02030008B5024B1B681B6D68
:1069A000019308BD1C02030008B5024B1B685B6D18
:1069B000019308BD1C0203000021FFF797BE10B52C
:1069C000836804460BB901F03CFBC3689847A36891
:1069D0001BB1032221462046984720461021BDE8DE
:1069E000104001F028BB10B5036804469B68984727
:1069F000A368013BA3602BB923682046DB68BDE890
:106A00001040184710BD10B50446006808B1FFF7E4
:106A1000B5FC204610BD0B68036013B15A68013203
:106A20005A60704710B50446006828B14368013BBE
:106A300043600BB9FFF7D7FF204610BD10B5064CD9
:106A4000002320462360FFF791FC2046034A0449B7
:106A5000BDE8104001F0EABA00E6032060E0032040
:106A6000076A0D0070470020704710B510210446DA
:106A700001F0E1FA204610BD08B5FFF7F6FF08BDAA
:106A800030B500224FF69C74026084808D888C8023
:106A90000C68858004600A6030BD10B5044600684B
:106AA000FFF72AFF204610BD38B5C468F4B123783B
:106AB000022B03D104F10C00FFF7EFFF656835B13D
:106AC0002846FDF79FFB1021284601F0B4FAA5687F
:106AD00035B12846FDF796FB1021284601F0ABFAA8
:106AE00020461421BDE8384001F0A5BA38BD10B5E4
:106AF00088B00446684600F054FD694604A800F0DA
:106B000073FD04A8A047044604A800F0FFFC6846F3
:106B100000F0FCFC204608B010BD1FB50023CDE9F5
:106B20000201019210241A4669461846ADF8023057
:106B3000ADF80040FFF730FE04B010BD73B50E464F
:106B4000044656F8043B00930D4601A83146FFF772
:106B500062FF019A009B6260236001A800230193F9
:106B60000093FFF75FFF3046FFF75CFF28460821E0
:106B700001F061FA204602B070BD13B50B46024623
:106B8000D0E900016C4684E8030093E8030082E842
:106B9000030094E8030083E8030002B010BD82689C
:106BA00010B50AB901F04DFABDE81040C3681847A6
:106BB00008B5006800F11001FFF7F1FF08BD826819
:106BC00010B50AB901F03DFABDE81040C368184796
:106BD00008B5006800F11001FFF7F1FF08BD0000E3
:106BE00038B500230446036010200D46FDF753FA24
:106BF00028B10123C0E90133024B0360C560206066
:106C0000204638BDB8B20D0038B5002383608B68CC
:106C100004460D462BB102229847EB68E360AB684F
:106C2000A360204638BD0000F0B589B0046868460E
:106C3000FFF726FF4FF00203D4E84F2F002A03D1BD
:106C4000C4E8413F0029F7D125D104F10C0569467C
:106C50002846FFF715FFBFF35B8F01236370002009
:106C600004F10803BFF35B8F53E8006F43E80002B1
:106C7000002AF9D1BFF35B8F6EB1FFF747FD78B102
:106C800029463046FFF78BFF3046FDF7BBFA10214F
:106C9000304601F0D0F96846FFF7FFFE09B0F0BDBD
:106CA000314602A8FFF7B0FFE068B4F9105008B110
:106CB00002F09CF806901020ADF81C50FDF7EBF99F
:106CC0000546E8B1002787601820FDF7E4F904467F
:106CD00088B10146876002A8FFF74FFF049BA268B6
:106CE000A360059B049206A9E268E36004F110002A
:106CF0000592FFF7C5FE084BEB60084B2C60AB60BC
:106D000006A8FFF7CAFE02A8FDF77CFA0022294672
:106D10000348FFF703FDB7E7B16B0D00496E0D00A7
:106D2000BF690D002DE9F0478AB005469DF84890EF
:106D30000C4617469846FFF73FFD07AE824638BB24
:106D40004FF62E73059005A93046ADF81830FFF7C1
:106D500097FE1420FDF79FF9044648B10223037003
:106D60000123C0E901AA437031460C30FFF788FEC9
:106D70002846214640F8044BFFF732FF3046FFF724
:106D80008CFE05A8FFF789FE28460AB0BDE8F0870B
:106D90000C234FF0000A1420CDE908AA0793FDF751
:106DA0007AF9014628B1C0E901AA80F800A080F86C
:106DB00001A004A80391FFF713FF224B08930820BA
:106DC000FDF769F9824628B1039B40F8043B04A90A
:106DD000FFF721FE00965FFA89F3424639462046C6
:106DE000CDF824A0FFF7F8FCB8B9039B5B7803F05B
:106DF000FF0293B94FF69C7305A903A80592ADF85D
:106E00001830FFF711FF05A8FFF747FE05A80999FD
:106E1000FFF794FE06A8FFF705FE039B059304A960
:106E200006A8FFF7F8FD059B069A2B606A60002311
:106E300006A806930593FFF7F5FD04A8FFF7F2FDFA
:106E4000A2E700BF0D6F0D00022AF8B5054607D076
:106E5000032A18D0012A01D10B6803600020F8BD75
:106E600018200E68FDF717F9044650B13146FFF7B8
:106E7000CBFE3069B6F9147008B101F0B7FF20619C
:106E8000A7822C60EAE70468002CE7D004F1100028
:106E9000FFF703FE2046FDF7B5F91821204601F063
:106EA000CAF8DBE738B5002383608B6804460D46DB
:106EB0002BB102229847EB68E360AB68A3602046E1
:106EC00038BD022A70B5044607D0032A12D0012A21
:106ED00001D10B680360002070BD14200E68FDF71F
:106EE000DAF8054620B13146FFF7DCFF337C2B741E
:106EF0002560F0E70468002CEDD02046FDF782F90C
:106F00001421204601F097F8E5E70000F0B589B0BC
:106F100004460D4601A81146FFF710FEA4B124B2A5
:106F20001DB1284601F062FF054601A803A903959B
:106F3000ADF81040FFF778FE03A8FFF7AEFD02A8FA
:106F4000FFF770FD09B0F0BD019D0123D5E84F2F7B
:106F5000002A03D1C5E8413F0029F7D1EFD12B73B7
:106F6000BFF35B8F6B702B1DBFF35B8F53E8006F1C
:106F700043E80042002AF9D1BFF35B8F002EDED038
:106F80002046FFF7C3FB074660B105F10C01304610
:106F9000FFF715FE3046FDF735F91021304601F0B8
:106FA0004AF8CCE7314603A8FFF77CFF2B7B8DF82E
:106FB0001C301020FDF76FF80546D0B18760142013
:106FC000FDF769F8044678B18760014603A8FFF72A
:106FD000D4FD059BA268A360069B0592E268E3606E
:106FE0009DF81C3006922374064BEB60064B2C6018
:106FF000AB6003A8FDF706F9002229460348FFF716
:107000008DFBC7E7D16B0D00C36E0D00BF690D008E
:10701000002240681146FFF74FBC0022406811462D
:10702000FFF75ABC40680022FFF74EBC40680022C0
:1070300081F00101FFF738BC002340681A46194669
:10704000FFF72ABC002340681A461946FFF71CBC0C
:10705000002240681146FFF70FBC0022406811462D
:10706000FFF7FABB406800220221FFF7FDBB0023B7
:1070700040681A46FFF7E8BB024B03225A60024AF7
:107080001A60704704E60320D4B20D007047F8B5CB
:10709000064615460C468F18BC4206D0336814F8D5
:1070A000011B9B6830469847F6E72846F8BD007CF0
:1070B0000022FFF713BA007C0021FFF717BA007C0B
:1070C0000021FFF71BBA007C0021FFF71FBA007CEC
:1070D0000021FFF723BA10B51421044600F0ABFFDE
:1070E000204610BD10B54FF47A73044608460021BF
:1070F000C4E90113034B236020741146FFF71EFA05
:10710000204610BD08B30D000023007C1A46194626
:10711000FFF7CCB97FB500221423CDE90122ADF8E9
:1071200004300B788DF808304B680393CB680493D8
:10713000007C0B7A059301A9FFF718FA07B05DF8F8
:1071400004FB1FB5003B8DF800104FF06401039164
:1071500018BF0123694601928DF80830FFF7DAFF66
:1071600005B05DF804FB007C0022FFF7A7B9C9B2A7
:10717000FFF7F9BF007C0022FFF7A8B908B500218E
:10718000007CFFF7E3F9B0FA80F0400908BD08B5CC
:107190000021007CFFF7E2F9B0FA80F0400908BD59
:1071A000004700002DE9FF4100241D460F46904690
:1071B0000646FFF76BF9A5424FF00403ADF80D400A
:1071C0008DF80C308DF80F40A2BF9DF828308DF857
:1071D0000E3003AC0749009443463A463046A8BFF8
:1071E0008DF80D50FFF74AF9B0FA80F0400904B06D
:1071F000BDE8F081A1710D00704710B5182104465B
:1072000000F019FF204610BDF0B5037D062B8DB0B0
:107210000E4600F104074FF0000412D000F10805FB
:1072200015F8011D0A22304600F033F9AF4204443C
:1072300019D0002CF4D02E21304600F027F9044458
:10724000EEE72F236A4639460A208DF80040FFF703
:1072500095F9684601F0E7FD33680246DB68694648
:1072600030469847044620460DB0F0BD10B5054B9A
:107270000446112240F8043B002101F079FD20462C
:1072800010BD00BF30B30D000346074A10B543F8E8
:10729000042B01F1100251F8044B43F8044B9142C6
:1072A000F9D10A781A7010BD30B30D0010B59DF8F1
:1072B000084044EA032343EA024242EA016104230C
:1072C0004160037510BD13B5CB7800938B784A7875
:1072D0000978FFF7EBFF02B010BD0000014B024A36
:1072E0001A6070470CE603203CB30D000023406891
:1072F0001A46FFF7A9BA406800220221FFF7B4BA84
:10730000002240681146FFF7A7BA002240681146E4
:10731000FFF7B2BA002340681A461946FFF7B4BA1D
:10732000002340681A461946FFF7B6BA40680022A3
:1073300081F00101FFF7B8BA40680022FFF7C4BA34
:10734000002240681146FFF7C7BA00224068114684
:10735000FFF7B2BA2DE9F043002495B016460D466A
:107360000746FFF783FF214618220EA8009401F07C
:10737000FFFC4023CDE90C3421466B460CAA304675
:10738000FFF70CF90446002846D10246012168683F
:10739000FFF772FA0221804622466868FFF76CFA0E
:1073A000009E81462146002E36D0002934D17368D4
:1073B000022B03D00A2B0BD0F669F4E7B8F1000FCB
:1073C00004D0716938460431FFF77DFF4146F3E789
:1073D000B9F1000F01D14946EEE77469102201A806
:1073E00001F0C6FC06238DF8143001AD04F108034A
:1073F0001834186859682A4603C20833A342154650
:10740000F7D101A906A807ADFFF73EFF0FCD3C1D40
:107410000FC42B682370DEE70098FFF7B7F83846F3
:1074200015B0BDE8F0830000024B034A1A60002249
:107430005A60704710E6032048B30D00F8B50646C1
:107440000D468F180024BD420CD0336815F8011B7F
:107450009B6830469847031E01DB1C44F3E7002C71
:1074600008BF1C462046F8BD13B50446084659B16E
:10747000019101F0D8FC23680199DB68024620469F
:1074800002B0BDE81040184702B010BD03689B6809
:10749000184730B58BB000238DF82430012A98BFEF
:1074A0000A2209AC0D46B1FBF2F101FB125303F0C5
:1074B000FF03092B94BF30333733DBB2AA4204F801
:1074C000013DEFD92146FFF7CFFF0BB030BD10B51E
:1074D0000446FCF797FE204610BD00000348044A0E
:1074E00004490023836000F0A1BD00BF18E603201B
:1074F00060E00320CF740D0010B5044608462170EB
:10750000FFF754F800236360204610BD10B5044611
:107510000068FFF7F1F9204610BD10B50446006879
:1075200008B1FFF7E9F90023C4E90133236010BD76
:1075300038B504460D4600680131FFF7E5F910B192
:10754000C4E90005012038BD10B50368044623B125
:1075500043688B4201D3012010BD2046FFF7E8FFAE
:107560000028F9D0A368002BF5D122681370F2E748
:1075700037B50D46114601920446FFF7E5FF019A23
:1075800028B92046FFF7C9FF204603B030BDA260EE
:107590002946206801F0C4FB2268A3680021D15469
:1075A000F2E7002313B5C0E9003304468360037398
:1075B00041B10846019101F036FC0199024620468E
:1075C000FFF7D6FF204602B010BD884210B5044632
:1075D00005D00B682BB18A681946FFF7C9FF204612
:1075E00010BDFFF79AFFFAE710B500230446C0E983
:1075F000003383600373FFF7E8FF204610BD13B527
:10760000044659B10846019101F00DFC019902466A
:107610002046FFF7ADFF204602B010BDFFF77DFF0B
:10762000F9E710B504468AB00023C4E90033A3602B
:107630002373084601A900F091FB01A92046FFF73A
:10764000DEFF20460AB010BD70B505460E4609B9EA
:10765000002070BD6AB1846814442146FFF774FFAE
:107660000028F5D02868AB683146184401F0B6FB15
:10767000AC600120EDE713B5044629B92046FFF7B9
:107680004CFF204602B010BD0846019101F0CBFB33
:10769000019902462046FFF7D7FF0028EED0F0E719
:1076A00008B582683AB921B10878B0FA80F040098B
:1076B00000E0012008BD006809B90078F5E701F095
:1076C00083FBF2E708B5006840B101F001FB51EC23
:1076D000100B01F069FA00EE100A08BD9FED010AD7
:1076E000FBE700BF0000000007B50B460021024683
:1076F000009101208C21FFF73DF803B05DF804FBF9
:1077000001460020FFF7F0BF0020FFF7F9BF00009F
:1077100010B5094B094C022200201A60084B20606A
:10772000A080A071A360FEF7D9FF2046054A064954
:10773000BDE8104000F07ABC34E6032028E60320C0
:107740000000FFFF60E00320A3410D002DE9F041A0
:10775000154ADFF86080D2E90032C01842EB01011F
:10776000124AD2E90032C61841EB0207D8E90023D9
:10777000BB4208BFB2428CB013D003A96846CDE922
:107780000067FFF701F9089B094D03F26C7303AC26
:1077900008930FCC0FC50FCC0FC5C8E9006723684D
:1077A0002B600CB0BDE8F08170E6032068E6032092
:1077B00040E6032078E6032008B50020FFF724F810
:1077C00028B1FEF7F9FF80F00100C0B208BD01202A
:1077D000FCE71FB502460B4668460021CDE90023B1
:1077E000CDE90211FEF722FE024610B90146FEF76E
:1077F000A5FF05B05DF804FB30B504461848D0E994
:107800000010521840EB03031648D0E9001052183C
:1078100093B040EB0303CDE9002324220DEB0200DB
:10782000002101F0A5FA002509A96846FFF7ACF888
:107830001622294603A8029501F09AFA02A909A87E
:1078400001F020FA02A801F0EEFA12AB184402A9E6
:1078500000F8415C2046FFF7A4FE204613B030BD7F
:1078600070E6032068E603202DE9F04FA5B0074637
:10787000884614A811463F221D4601F0EEFA002367
:1078800014A88DF88F3001F0CEFA04465DBB2A496A
:1078900003A801F0A3FA14AE002504F1FF3BAB45A9
:1078A00036D9B14605F1010A19F8013B252B17D14C
:1078B00073787A2B14D103A801F0B5FA14AB0446FF
:1078C00028181844ABEB0502B11C01F029FA224636
:1078D00003A9304601F024FA14A801F0A4FA0446E2
:1078E0004E465546D9E73C2195FBF1F3002BB8BF36
:1078F0005B42B3FBF1F201FB123300930F4A4FF4EA
:107900006163102103A895FBF3F3FFF70DF8C2E7BD
:1079100000212E2208A8079101F02AFA434614AA52
:10792000322107A8FFF728F807A93846FFF739FEE4
:10793000384625B0BDE8F08F74B30D0076B30D0066
:10794000F0B58DB0CDE90023129D044615B9194B51
:107950001D682DB1184B2846196801F035FA38B961
:10796000DDE900232046FFF747FF20460DB0F0BDBC
:10797000124E0099124FD6E900325B18019941EB83
:107980000202D7E900011B1841EB0202CDE90032E7
:107990000021242203A801F0EBF903A96846FEF7B1
:1079A000F3FF32683B6803A9134420462A46FFF7D9
:1079B0005BFFDAE73CE6032084DE032070E6032069
:1079C00068E6032010B50020FEF718FD0446A0B9B4
:1079D000FEF77CFE012810D12046FEF7A7FE60B915
:1079E000FFF7EAFE10B9FEF7DFFEF9E7FFF7E4FE66
:1079F000BDE810400020FEF701BD204610BD1FB5B8
:107A0000FFF7E0FF10220021684601F0B1F90021E4
:107A10006846FEF703FD009805B05DF804FB000022
:107A200008B5FFF7ECFFC117FFF790FE014B986810
:107A300008BD00BF40E6032008B5FFF7E0FFC1170F
:107A4000FFF784FE014B586908BD00BF40E60320E4
:107A5000024B1A68024B1A60704700BF84DE032095
:107A60003CE6032070474174704708B5007CFEF780
:107A7000E5FD20EAE07008BD08B5007CFEF7B6FD24
:107A800020EAE07008BD08B5007CFEF7BFFD40EAC3
:107A9000E07008BD08B5007CFEF7B0FD40EAE0707C
:107AA00008BD007CFEF7BABD37B5457C04462DB154
:107AB000207C03B0BDE83040FEF790BD007C019112
:107AC000FEF7BCFD00280199F2DC284603B030BD6A
:107AD00010B51421044600F0AEFA204610BD000097
:107AE00010B54FF0000C0446084611464FF47A7268
:107AF000C4E901C2044A22600122207462741A4659
:107B0000FEF764FD204610BDA8B30D0013B50E4C62
:107B10002178BFF35B8F11F0010112D12046019152
:107B2000FCF7CAFA019960B1084A094B0948FFF706
:107B3000D7FF2046FCF7C5FA074A0849054800F078
:107B400075FA044802B010BD80E6032084E60320E5
:107B500008E703208CE7032060E00320657A0D002E
:107B600041747047704708B50021007CFEF786FD20
:107B700040EAE07008BD08B50121007CFEF77EFDFB
:107B800040EAE07008BD08B5007CFEF76FFD20EA12
:107B9000E07008BD08B5007CFEF760FD20EAE070EB
:107BA00008BD13B50446007C0191FEF75FFD002877
:107BB000019901DC607C20B1207CFEF767FD20EAA2
:107BC000E07002B010BD007CFEF768BD10B5142156
:107BD000044600F030FA204610BD000010B54FF406
:107BE0007A73044608460021C4E90113044B23605C
:107BF0000123207463741146FEF728FD204610BD52
:107C0000D8B30D0010B514220446002101F0B0F8DD
:107C1000204610BD10B5104C88B003A8FFF7F2FF46
:107C20002178BFF35B8F11F0010111D12046019142
:107C3000FCF742FA019958B103AA0848FFF7CEFFB2
:107C40002046FCF73EFA064A0649044800F0EEF9E1
:107C5000024808B010BD00BFA0E70320A4E703203E
:107C600060E00320657B0D00002240681146FEF7AE
:107C700003BE002240681146FEF71EBE0022406887
:107C80001146FEF729BE40680022FEF71DBE40687F
:107C9000002281F00101FEF707BE002340681A466A
:107CA0001946FEF7F9BD002340681A461946FEF74B
:107CB000EBBD002240681146FEF7CEBD40680022B1
:107CC0000221FEF7D1BD002340681A46FEF7BCBD75
:107CD000024B04225A60024A1A607047B8E7032038
:107CE00008B40D0010B5044601F09DF801382318C2
:107CF0002046834206D90278197800F8011B03F860
:107D00000129F6E710BD70B50C46911E22290546E3
:107D100022D820466DB1B5FBF2F602FB1655E9B24A
:107D2000092D94BF30315731C9B200F8011B3546D7
:107D3000F0E7024623443021934202D902F8011BA6
:107D4000FAE71A1A834238BF0022002383542046E0
:107D5000FFF7C8FF204670BD0020FCE738B5031EC2
:107D60000C4615460EDAB3F1004F4FF02D0214BF4A
:107D70005842184601230A702A461944FFF7C3FFE8
:107D8000204638BD0123F9E7014B1860704700BF5A
:107D90008CDE032008B50B4B43B1FFF73BFF0368B4
:107DA0001B699847002801DDAFF30080064B43B103
:107DB000FFF7ACFE03681B699847002801DDAFF3AD
:107DC000008008BD000000000000000008B5FFF7BB
:107DD000E1FFFEF70BFB014B186008BDD4E7032061
:107DE0000248034A0349121A00F09ABF00F4032024
:107DF00004FC032040B70D0007B5002300931A468A
:107E00006FF07701FEF7ACFC03B05DF804FB0000F7
:107E100007B543880A2B08D0502B0BD1094B1B68A0
:107E20004BB103B05DF804EB1847FFF7E5FF03B073
:107E30005DF804FB002300931A466FF07701FEF70C
:107E40008FFCF4E7C4E7032038B5124C1248134DF9
:107E50000021FEF789FD2368AB42114B0CBF0122C4
:107E600000221A7002D0FFF7BBFF2560FEF7A6FACA
:107E7000044600F085FF0B4B13B12046AFF30080A2
:107E800000210848FEF7D8FCBDE83840064800212C
:107E9000FEF75CBC00FC0320897D0D001E1C279AA8
:107EA000C0E7032000000000117E0D00232813B559
:107EB00002D9002002B010BDA0F10B03022B1AD88A
:107EC000174C2178BFF35B8F11F001010BD12046D5
:107ED0000191FCF7F1F8019928B11248FFF70CFB6A
:107EE0002046FCF7EEF80F4B1878FEF767FB0028EA
:107EF000DFD10120DEE7012809D800F06FF800216A
:107F0000007CFEF713FB80F00100C0B2D2E7093815
:107F10000128EED8FFF7FAFD007CFEF787FBF2E7B9
:107F2000C8E70320CCE70320232838B504460D46D4
:107F30000AD8FF2908D0FFF7B9FF28B12946204603
:107F4000BDE83840FEF782BA38BD38B504460D4664
:107F5000FEF784FAFF2810D0062804D84D2323FA10
:107F600000F0C30709D42046FFF7A0FF28B1294637
:107F70002046BDE83840FEF779BA38BD0D2810B567
:107F800004469CBF0E34A4B22046FFF78FFF50B1C9
:107F900003212046FEF752FA032804D12046BDE80B
:107FA0001040FEF77BBA002010BD000038B500235A
:107FB000202543801423044603808560056106491B
:107FC000284600F03CF804496060284600F037F885
:107FD000E060204638BD00BF34B40D0030B50F4D11
:107FE0002978BFF35B8F11F0010487B013D12846C5
:107FF000FCF762F878B101A8FFF7D8FF01AA214683
:108000000748FFF76FF82846FCF75BF8054A064972
:10801000034800F00BF8024807B030BDD8E7032052
:10802000DCE7032060E003208D700D000B46014665
:10803000184600F055BEFCF732B8FCF72CB8FCF738
:108040002CB808B5FEF778FC2DE9F0432DED028B36
:108050008BB055EC104B00F055F8284BB0EE408A31
:10806000F0EE608A93F900707B1C12D022462B46FA
:108070002046294600F062FD064650B94FF0000840
:108080004FF000092046294642464B4600F02EFD9F
:1080900040B9B0EE480AF0EE680A0BB0BDEC028BB6
:1080A000BDE8F083164B08960122CDE90445CDE9E1
:1080B00002450092019397B142464B4640464946DD
:1080C00000F0CCFB022FCDE906010AD1FEF744FCFB
:1080D00021230360089B63B99DED068BD9E7CDE9A9
:1080E0000689684600F0D2F80028EFD0089B002BE4
:1080F000F2D0FEF731FC089B0360EDE788DE032039
:1081000038B40D002DE9F0415F4A57EC106BBA43CB
:1081100000F09880002F10EE104A3B464EDD3915D6
:108120005BD0C3F31303CA0743F48013A1F2FF3EED
:1081300003D45B0003EBD4736400E20F4FF0000C38
:1081400002EB43034FEA6E0E6400664616254FF4B9
:108150000012B118994202DC5B1A8E1894445B003D
:10816000013D03EBD4734FEA52024FEA4404F0D1CD
:108170002F4620204FF0004209E03ED0E10F0138A9
:108180004FEA520201EB43034FEA44043ED0B342AC
:1081900002EB0501F1DD002901EB020509DBB04628
:1081A0009B1BA14288BF03F1FF33641A1744464664
:1081B000E4E7002DF3DB06F10108F1E727F00042C8
:1081C000324336D0002F4DD13946E20A15396405C5
:1081D0001346002AF9D0D70251D400205B00DE02FA
:1081E000054600F10100F9D51A4623468440C0F146
:1081F0002000C3401343491B93E7A142BED8002986
:1082000001EB0205D5DB98460023CEE7234312D1CC
:1082100078084FEA6C0101F17F511CF0010F01F564
:10822000001118BF40F0004001EB0E53024643EC32
:10823000102BBDE8F0817B1C16BF781C0CF1010CE3
:108240004008E6E710EE102A10EE100A3B463946C9
:1082500000F0DAF932463B4600F020F841EC100B12
:10826000BDE8F08110EE102A3046394600F014F8CF
:1082700002460B4600F0F2FA41EC100BD9E7234618
:1082800020204FF0FF35B4E70000F07F002070475A
:1082900081F0004102E000BF83F0004330B54FEAB7
:1082A00041044FEA430594EA050F08BF90EA020F24
:1082B0001FBF54EA000C55EA020C7FEA645C7FEAB7
:1082C000655C00F0E2804FEA5454D4EB5555B8BFDA
:1082D0006D420CDD2C4480EA020281EA030382EA4B
:1082E000000083EA010180EA020281EA0303362DDD
:1082F00088BF30BD11F0004F4FEA01314FF4801CB0
:108300004CEA113102D0404261EB410113F0004FC1
:108310004FEA03334CEA133302D0524263EB430378
:1083200094EA050F00F0A780A4F10104D5F1200E16
:108330000DDB02FA0EFC22FA05F2801841F1000171
:1083400003FA0EF2801843FA05F359410EE0A5F145
:1083500020050EF1200E012A03FA0EFC28BF4CF076
:10836000020C43FA05F3C01851EBE37101F000452C
:1083700007D54FF0000EDCF1000C7EEB00006EEB39
:108380000101B1F5801F1BD3B1F5001F0CD34908C3
:108390005FEA30004FEA3C0C04F101044FEA44521A
:1083A00012F5800F80F09A80BCF1004F08BF5FEAA1
:1083B000500C50F1000041EB045141EA050130BD81
:1083C0005FEA4C0C404141EB0101013C28BFB1F593
:1083D000801FE9D291F0000F04BF01460020B1FADE
:1083E00081F308BF2033A3F10B03B3F120020CDAB1
:1083F0000C3208DD02F1140CC2F10C0201FA0CF08F
:1084000021FA02F10CE002F11402D8BFC2F1200CF3
:1084100001FA02F120FA0CFCDCBF41EA0C019040A9
:10842000E41AA2BF01EB0451294330BD6FEA0404F2
:108430001F3C1CDA0C340EDC04F11404C4F12002DD
:1084400020FA04F001FA02F340EA030021FA04F3EF
:1084500045EA030130BDC4F10C04C4F1200220FA46
:1084600002F001FA04F340EA0300294630BD21FA84
:1084700004F0294630BD94F0000F83F4801306BF4A
:1084800081F480110134013D4EE77FEA645C18BF3E
:108490007FEA655C29D094EA050F08BF90EA020FD5
:1084A00005D054EA000C04BF1946104630BD91EACD
:1084B000030F1EBF0021002030BD5FEA545C05D1D0
:1084C0004000494128BF41F0004130BD14F580040F
:1084D0003CBF01F5801130BD01F0004545F0FE4183
:1084E00041F470014FF0000030BD7FEA645C1ABFB8
:1084F000194610467FEA655C1CBF0B46024650EAEF
:10850000013406BF52EA033591EA030F41F400211A
:1085100030BD00BF90F0000F04BF0021704730B5A0
:108520004FF4806404F132044FF000054FF0000175
:1085300050E700BF90F0000F04BF0021704730B536
:108540004FF4806404F1320410F0004548BF40420B
:108550004FF000013EE700BF42004FEAE2014FEA60
:1085600031014FEA02701FBF12F07F4393F07F4F3B
:1085700081F06051704732F07F4208BF704793F03E
:108580007F4F04BF41F40021704730B54FF4607451
:1085900001F0004521F000411CE700BF50EA010254
:1085A00008BF704730B54FF000050AE050EA0102FD
:1085B00008BF704730B511F0004502D5404261EB6D
:1085C00041014FF4806404F132045FEA915C3FF4AE
:1085D000D8AE4FF003025FEADC0C18BF03325FEA4B
:1085E000DC0C18BF033202EBDC02C2F1200300FAFC
:1085F00003FC20FA02F001FA03FE40EA0E0021FA21
:1086000002F11444BDE600BF70B54FF0FF0C4CF40E
:10861000E06C1CEA11541DBF1CEA135594EA0C0FC0
:1086200095EA0C0F00F0DEF82C4481EA030621EAFB
:108630004C5123EA4C5350EA013518BF52EA033536
:1086400041F4801143F4801338D0A0FB02CE4FF0E8
:108650000005E1FB02E506F00042E0FB03E54FF018
:108660000006E1FB03569CF0000F18BF4EF0010E10
:10867000A4F1FF04B6F5007F64F5407404D25FEA0C
:108680004E0E6D4146EB060642EAC62141EA5551BF
:108690004FEAC52040EA5E504FEACE2EB4F1FD0C01
:1086A00088BFBCF5E06F1ED8BEF1004F08BF5FEA7F
:1086B000500E50F1000041EB045170BD06F0004631
:1086C00046EA010140EA020081EA0301B4EB5C04DE
:1086D000C2BFD4EB0C0541EA045170BD41F48011D6
:1086E0004FF0000E013C00F3AB8014F1360FDEBFFB
:1086F000002001F0004170BDC4F10004203C35DAD7
:108700000C341BDC04F11404C4F1200500FA05F359
:1087100020FA04F001FA05F240EA020001F00042FA
:1087200021F0004110EBD37021FA04F642EB060170
:108730005EEA430E08BF20EAD37070BDC4F10C049A
:10874000C4F1200500FA04F320FA05F001FA04F25E
:1087500040EA020001F0004110EBD37041F100014A
:108760005EEA430E08BF20EAD37070BDC4F1200555
:1087700000FA05F24EEA020E20FA04F301FA05F2BD
:1087800043EA020321FA04F001F0004121FA04F265
:1087900020EA020000EBD3705EEA430E08BF20EA35
:1087A000D37070BD94F0000F0FD101F0004640006F
:1087B00041EB010111F4801F08BF013CF7D041EAF1
:1087C000060195F0000F18BF704703F000465200F5
:1087D00043EB030313F4801F08BF013DF7D043EAC6
:1087E0000603704794EA0C0F0CEA135518BF95EA7C
:1087F0000C0F0CD050EA410618BF52EA4306D1D103
:1088000081EA030101F000414FF0000070BD50EA21
:10881000410606BF1046194652EA430619D094EAAB
:108820000C0F02D150EA013613D195EA0C0F05D195
:1088300052EA03361CBF104619460AD181EA0301E9
:1088400001F0004141F0FE4141F470014FF00000A1
:1088500070BD41F0FE4141F4780170BD70B54FF03C
:10886000FF0C4CF4E06C1CEA11541DBF1CEA1355BC
:1088700094EA0C0F95EA0C0F00F0A7F8A4EB05049E
:1088800081EA030E52EA03354FEA013100F0888095
:108890004FEA03334FF0805545EA131343EA12635E
:1088A0004FEA022245EA111545EA10654FEA002613
:1088B0000EF000419D4208BF964244F1FD0404F5CC
:1088C000407402D25B084FEA3202B61A65EB030528
:1088D0005B084FEA32024FF480104FF4002CB6EBE5
:1088E000020E75EB030E22BFB61A754640EA0C0065
:1088F0005B084FEA3202B6EB020E75EB030E22BFA5
:10890000B61A754640EA5C005B084FEA3202B6EBE5
:10891000020E75EB030E22BFB61A754640EA9C00A4
:108920005B084FEA3202B6EB020E75EB030E22BF74
:10893000B61A754640EADC0055EA060E18D04FEA32
:10894000051545EA16754FEA06164FEAC30343EAD2
:1089500052734FEAC2025FEA1C1CC0D111F4801F9F
:108960000BD141EA00014FF000004FF0004CB6E798
:1089700011F4801F04BF01430020B4F1FD0C88BF37
:10898000BCF5E06F3FF6AFAEB5EB030C04BFB6EB42
:10899000020C5FEA500C50F1000041EB045170BD35
:1089A0000EF0004E4EEA113114EB5C04C2BFD4EB62
:1089B0000C0541EA045170BD41F480114FF0000EE6
:1089C000013C90E645EA060E8DE60CEA135594EA62
:1089D0000C0F08BF95EA0C0F3FF43BAF94EA0C0F65
:1089E0000AD150EA01347FF434AF95EA0C0F7FF4DA
:1089F00025AF104619462CE795EA0C0F06D152EA2E
:108A000003353FF4FDAE1046194622E750EA410611
:108A100018BF52EA43067FF4C5AE50EA41047FF422
:108A20000DAF52EA43057FF4EBAE12E74FF0FF3C87
:108A300006E000BF4FF0010C02E000BF4FF0010C58
:108A40004DF804CD4FEA410C7FEA6C5C4FEA430CD1
:108A500018BF7FEA6C5C1BD001B050EA410C0CBF20
:108A600052EA430C91EA030F02BF90EA020F002082
:108A7000704710F1000F91EA030F58BF994208BFE9
:108A800090422CBFD8176FEAE37040F001007047A6
:108A90004FEA410C7FEA6C5C02D150EA013C07D1FD
:108AA0004FEA430C7FEA6C5CD6D152EA033CD3D048
:108AB0005DF8040B704700BF8446104662468C4642
:108AC0001946634600E000BF01B5FFF7B7FF002875
:108AD00048BF10F1000F01BD4DF808EDFFF7F4FF9E
:108AE0000CBF012000205DF808FB00BF4DF808ED29
:108AF000FFF7EAFF34BF012000205DF808FB00BF4C
:108B00004DF808EDFFF7E0FF94BF012000205DF86D
:108B100008FB00BF4DF808EDFFF7CEFF94BF012022
:108B200000205DF808FB00BF4DF808EDFFF7C4FF1B
:108B300034BF012000205DF808FB00BF4FEA410C64
:108B40007FEA6C5C02D150EA013C0AD14FEA430C47
:108B50007FEA6C5C02D152EA033C02D14FF0000084
:108B600070474FF0010070474A0011D212F5001211
:108B700011D20DD56FF47873B3EB62520ED44FEA75
:108B8000C12343F0004343EA505323FA02F07047F5
:108B90004FF00000704750EA013002D14FF0FF3033
:108BA00070474FF0000070474FEA4102B2F1E043D6
:108BB00024BFB3F5001CDCF1FE5C0DD901F0004CC4
:108BC0004FEAC0024CEA5070B2F1004F40EB830014
:108BD00008BF20F00100704711F0804F21D113F140
:108BE0003872BCBF01F00040704741F480114FEA79
:108BF0005252C2F11802C2F1200C10FA0CF320FA02
:108C000002F018BF40F001004FEAC1234FEAD3231E
:108C100003FA0CFC40EA0C0023FA02F34FEA430388
:108C2000CCE77FEA625307D150EA01331EBF4FF011
:108C3000FE4040F44000704701F0004040F0FE402C
:108C400040F40000704700BFD0B50C4B0022064630
:108C50000F46FFF7D9FCFFF787FF0446FFF75AFCE2
:108C6000074B0022FFF7D0FC02460B463046394640
:108C7000FFF712FBFFF778FF2146D0BD0000F03D63
:108C80000000F04110B50C4641690369826986B065
:108C900001F26C710491016803914168029181684D
:108CA0000191C1680091074903EB43030B44064956
:108CB00002EB42020A4420460449FDF72DFE2046FD
:108CC00006B010BD72B40D005DB40D003DB40D00D2
:108CD000002100F0FBBE0A22002100F07DBF000051
:108CE00010B5054C13462CB10A4601460220AFF3DD
:108CF000008010BD2046FCE70000000038B5074B9F
:108D00001D68EB6B04461BB92420FDF7EDFDE863FD
:108D1000E96B2046BDE83840FDF73EBE8CDE0320FF
:108D20000A44914200F1FF3300D1704710B511F8A9
:108D3000014B03F8014F9142F9D110BD884210B5A3
:108D400001EB020402D98442234607D8431EA14204
:108D500008D011F8012B03F8012FF8E7024401466F
:108D60008A4200D110BD13F8014D02F8014DF7E71A
:108D700002440346934200D1704703F8011BF9E710
:108D800038B50D4B1D68AB6B04467BB91820FDF759
:108D9000ABFD0A4A0A4BA863C0E90023094B836074
:108DA0000B23838101220023C0E90423AB6B002243
:108DB0001C615A6138BD00BF8CDE03200E33CDAB81
:108DC00034126DE6ECDE050010F8012B11F8013BC2
:108DD000012A28BF9A42F7D0D01A7047034611F8EB
:108DE000012B03F8012B002AF9D17047024B0146F1
:108DF000186800F003B800BF8CDE032037B50446C6
:108E000008460D4600F00FF8421C1146204601921C
:108E1000FDF79AFD044618B1019A2946FFF780FF35
:108E2000204603B030BD034613F8012B002AFBD1C6
:108E3000181A0138704710B56AB10139841810F852
:108E4000013B11F8012F934203D1A04201D0002B26
:108E5000F5D1981A10BD1046FCE710B5013903464C
:108E600032B111F8014F03F8014B013A002CF7D150
:108E70001A440021934200D110BD03F8011BF9E709
:108E800070B504460D4645EC104B164601F01AFD30
:108E900051EC100B7EB1C5F30A53C3F16B03002BE9
:108EA00009DD1B0503F17F55002405F54015224619
:108EB0002B46FFF7A9FB70BD2DE9F04FA3B01F466D
:108EC00000231E93A44B19921B680793044618466F
:108ED0008846FFF7A8FF4FF0000A05464FF0000B49
:108EE000CDF874801D9B1A782B2A4CD039D80D2AC6
:108EF00032D8082A32D8002A3CD000230E931D9E77
:108F00003378302B40F0B480737803F0DF03582BB4
:108F10006CD10E9B01931EAB029700938F4A1FAB3F
:108F20001DA9204600F0CAFE10F00707054605D02F
:108F3000062F2AD1013600231D960E93199B002B74
:108F400040F096850E9BDBB152460BF1004343EC9B
:108F5000102B23B0BDE8F08F202ACED101331D9312
:108F6000C0E72D2AC9D101220E925A1C1D925B78AE
:108F7000002BC4D1199BCDF87480002B40F076856E
:108F800052465B46E3E70022EEE71E9A3AB13521EE
:108F900020A801F096FD1E99204601F0CBF9013F73
:108FA000052F07D8DFE807F00E0B181D0E034FF052
:108FB000000BDA462807C1D54BF0004BBEE7DDE9D0
:108FC00020ABF7E7DDE920A31F9A23F4801302F218
:108FD000334243EA025BEDE7DFF884B14FF0000A69
:108FE000E8E76FF0004B4FF0FF3AE3E71D9B5A1C98
:108FF0001D925B78302BF9D0002B9FD001234FF0CE
:10900000000904931D9B0A93CDF824904F460A2231
:109010001D980678A6F13003D9B209292AD90799F3
:109020002A46FFF708FF98B3002033463D460790D5
:109030000246652B01D0452B18D11DB9049B034373
:1090400098D00025DDF8748008F101031D9398F88D
:1090500001302B2B75D02D2B7BD04FF0000CA3F1C2
:109060003001092940F28280CDF8748000269DE00D
:109070000023C4E7082FD8BF099900F10100DABF27
:1090800002FB0133099302FB093901371D90BFE749
:109090001D9B5A191D925B5D002F37D007903D46EE
:1090A000A3F13002092A12D90122C2E71D9B5A1CE2
:1090B0001D925B780130302BF8D0A3F13102082AE1
:1090C00000F2DB841D9A079000200A920546303B8F
:1090D00000F1010214D00799114407912A4600EBD0
:1090E000050E0A21724513D12A18082A05F1010537
:1090F00005441CDC09990A2202FB01330993002272
:109100001D9B591C1D915B781046C9E73846D2E774
:10911000082A04DC099E4E4309960132E2E702F177
:10912000010CBCF1100FD8BF01FB09F9F5E7102DB8
:10913000DCBF0A2202FB0939E1E700230793012281
:109140007CE74FF0000C08F102031D9398F8023001
:1091500085E74FF0010CF6E7FCB50D00A4B40D0057
:109160000000F07F1D9B591C1D915B78302BF9D0BE
:10917000A3F1310108293FF679AFA3F1300E1D9B11
:1091800008931D9B591C1D915B78A3F13006092E95
:1091900037D9089E891B082944F61F6602DC7645EC
:1091A000A8BF7646BCF1000F00D07642002D4FD10B
:1091B000049901437FF4C2AE002A7FF4DBAE692B31
:1091C00027D024DC492B24D04E2B7FF4D3AE9E49EC
:1091D0001DA800F0B9FF00283FF4CCAE1D9B1B7802
:1091E000282B2DD1994920AA1DA800F0C1FF0528E0
:1091F00026D1219BDDF880A043F0FF4B4BF4E00B20
:109200009CE60A2101FB0E3EAEF1300EB9E76E2B53
:10921000DBE78F491DA800F097FF00283FF4AAAEB6
:109220001D9B8C49013B1DA81D9300F08DFF10B9BB
:109230001D9B01331D93DFF82CB24FF0000A7DE631
:10924000854801F091FC8DED040BDDE904AB75E67A
:10925000079B0998F31A002F08BF2F46102D08937B
:10926000A846A8BF4FF01008FFF754F9092D824611
:109270008B4613DD794B03EBC80353E91223FFF749
:10928000C3F9824648468B46FFF744F902460B462F
:1092900050465946FFF702F882468B460F2D38DCC0
:1092A000089B002B3FF44AAE24DD162B0BDC6B4DE4
:1092B00005EBC305D5E9000152465B46FFF7A4F96B
:1092C00082468B463AE6089AC5F12503934220DB95
:1092D000624CC5F10F0504EBC50152465B46D1E96E
:1092E0000001FFF791F9089B5D1B04EBC504D4E96D
:1092F0000023E3E7089B16330BDB079B574A9E1BB3
:1093000002EBC606D6E9002350465946FFF7A6FAF7
:10931000D6E7089BA5EB08089844B8F1000F71DD6B
:1093200018F00F030AD04D4901EBC30152465B46CA
:10933000D1E90001FFF768F982468B4638F00F0843
:109340004DD0B8F59A7F22DD00252E460995079568
:109350002223DFF810B123604FF0000A099B002B95
:109360003FF4ECAD1E99204600F0E4FF079920463B
:1093700000F0E0FF3146204600F0DCFF099920466E
:1093800000F0D8FF2946204600F0D4FFD6E50023A0
:109390004FEA2818504659469946B8F1010F21DC8A
:1093A0000BB182468B462E4BABF1547B03EBC909C4
:1093B00052465B46D9E90001FFF726F9294B0A46D8
:1093C0000B4029498B428246BED8A1F580118B42C1
:1093D00086BFDFF898B04FF0FF3A02F1547B0023CC
:1093E000049381E018F0010F07D01D4B03EBC90374
:1093F000D3E90023FFF708F9012309F101094FEA36
:109400006808CAE7EBD0C8F1000818F00F020AD0CC
:10941000124B03EBC20350465946D3E90023FFF732
:109420001DFA82468B465FEA2818D8D0B8F11F0F84
:109430001EDD00252E460995079522234FF0000AD0
:109440004FF0000B236089E79FB40D00B8B40D0006
:1094500096B40D0099B40D005CB40D0038B60D0043
:1094600010B60D000000F07F0000A07CFFFFEF7F32
:1094700018F0100318BF6A23DFF8B4930493504622
:109480005946002318F0010F04D0D9E90023FFF753
:10949000BBF801235FEA680809F10809F2D10BB1B2
:1094A00082468B46049BBBB1CBF30A53C3F16B03DB
:1094B000002B594610DD1F2B40F32881342BDEBFD3
:1094C000203B4FF0FF3202FA03F34FF0000ACCBF0B
:1094D0004FF05C7B03EA010B002200235046594603
:1094E000FFF7FAFA0028A4D1099B00930A992B46AA
:1094F0003A46204600F073FF099000283FF424AF5D
:10950000079B9E1B089B002BB4BF33460023109380
:10951000089B002523EAE37318932E46099B2046F7
:10952000596800F0D3FE079000283FF411AF099B63
:109530001A69023203F10C0192000C30FFF7F0FBC4
:109540004BEC10AB20AA1FA92046CDE90AAB01F0D5
:1095500035FA1E9000283FF4FBAE0121204600F0B2
:10956000CCFF064600283FF4F3AE1F9B0499002B66
:10957000ABBF109A189A189FDDF84090ACBF03EB70
:109580000209D71A209AA3EB01089044A34B08F1D3
:10959000FF389845C2F1360280F2CC80A3EB080375
:1095A0001F2BA2EB03024FF0010100F3B68001FA7A
:1095B00003F3119300230C9309EB0208049BC145AC
:1095C00017441F444B46A8BF4346BB42A8BF3B4677
:1095D000002BC2BFA8EB0308FF1AA9EB0309109BDD
:1095E000002B17DD31461A46204601F02BF80646BF
:1095F00000283FF4ADAE01461E9A204600F086FFDB
:109600000F9000283FF4A4AE1E99204600F092FE71
:109610000F9B1E93B8F1000F00F39180089B002B65
:1096200008DD189A0799204601F00CF807900028E9
:109630003FF48EAE002F08DD07993A46204601F030
:109640004FF8079000283FF483AEB9F1000F08DD12
:1096500031464A46204601F043F8064600283FF4CA
:1096600077AE079A1E99204601F0B5F80546002806
:109670003FF46EAEC3680F930023C360314601F020
:109680008EF8002865DA0F9B53EA0A0340F08780C2
:10969000CBF31303002B40F082802BF000431B0D13
:1096A0001B05B3F1D66F7AD96B6913B92B69012BFE
:1096B00075DD29460122204601F012F831460546A3
:1096C00001F06DF800286ADD0499554A5B460029CF
:1096D00000F0858002EA0B01B1F1D66F7FDCB1F1B9
:1096E0005C7F7FF7AAAE4F4A0023CDE91632504681
:1096F000DDE916235946FEF787FF0B46034308BFF3
:10970000222382468B4608BF23602BE64FF0FF32B0
:1097100002FA03F303EA0A0ADEE6C8F17F4808F515
:109720007F0808F57B4808F1E20801FA08F30C937A
:10973000119141E700230C93012311933CE71E99FB
:109740004246204600F0CCFF1E9000287FF466AF12
:10975000FEE55F466ED10F9ACBF3130342B3324A54
:10976000934228D1049B5046EBB12D4A3A40B2F1C6
:10977000D46F4FF0FF3119D8120DC2F16B0301FA0B
:1097800003F3984217D1294B9F4202D101303FF495
:10979000DFAD234B3B4003F5801B4FF0000A049BD9
:1097A000002BA0D1DEE54FF0FF33EAE70B46E8E7F8
:1097B00053EA0A0388D00C9BDBB13B42EFD00F9BEE
:1097C000049A50465946C3B1FFF75AFB02460B466E
:1097D000DDE90A01FEF762FD82468B46DFE71340B2
:1097E000A3F580136FEA135B6FEA0B5B4FF0FF3A50
:1097F000D5E7119B13EA0A0FE0E7FFF741FB0246AA
:109800000B46DDE90A01FEF747FD002200238246F0
:109810008B46FFF761F90028C1D00EE602FCFFFF7E
:109820000000F07F00005039FFFF0F00FFFFEF7FC7
:10983000D0B40D003146284601F010F959EC108BD8
:1098400010EE100A00224FF080434946FFF758F906
:1098500000287CD00F9B002B4CD0954B0022CDE9EB
:109860000C23DFF84C924FF00008924B3B401193D1
:10987000119A914B9A4240F0B280DDE90A23DDE96A
:109880000C01A7F1547B4BEC10ABCDE91623CDE9CD
:109890000C0101F017F8DDE90C0153EC102BFEF779
:1098A000B3FE52465B46FEF7F9FC0B468149834AFC
:1098B0001940914282465ED90B9B02F15472934249
:1098C00003D10A9B01333FF443ADDFF8FCB14FF005
:1098D000FF3A1E99204600F02DFD0799204600F022
:1098E00029FD3146204600F025FD2946204600F09E
:1098F00021FD13E6BAF1000F1BD1CBF31303F3B92B
:109900006B4B002240464946FFF7F0F8D0B940467D
:1099100049466B4B0022FEF777FE8046894609F1E7
:109920000043CDF868801B93DDE91A23CDE90C23B1
:109930009BE7BAF1010F02D1002F3FF47EAD614BDE
:1099400000228CE7DFF878914FF00008E7E75C4BE6
:10995000404649460022FEF757FE0F9B8046894647
:1099600033B901F1004312901393DDE91223DDE7CF
:10997000CDE91289F9E703F1547B049B002BA8D1B0
:109980002BF00043119A1B0D1B059A42A1D14046B2
:10999000494601F0FFF8FEF709FE02460B46404635
:1099A0004946FEF779FC0F9ACBF3130343EA0A0307
:1099B00013438046894653D035A3D3E90023FFF7EC
:1099C00095F800287FF4CEAC33A3D3E900234046BA
:1099D0004946FFF7A9F800283FF47BAFC2E4049B97
:1099E00033B3119BB3F1D46F22D82DA3D3E9002355
:1099F00040464946FFF784F8A0B149464046FFF784
:109A0000B3F8012838BF0120FEF784FD0F9B804684
:109A1000894613BB01F1004314901593DDE914232B
:109A2000CDE90C230D9B119A03F1D6639B1A0D937C
:109A3000DDE90C019DED0A0BCDE90C0100F042FFC0
:109A4000DDE90C0153EC102BFEF7DEFDDDE90A2306
:109A5000FEF724FC82468B468FE7CDE91489DDE7CB
:109A600011A3D3E90023FFF741F8B4E700230E93D5
:109A7000199A1D9B1360FFF765BA652B3FF45DAB28
:109A8000452B3FF45AAB0122FFF792BBAFF30080A6
:109A90009535A094FFFFDF3F35E5AF350000E03F8F
:109AA0000000C0FFFFFFDF419535A094FFFFCF3FCF
:109AB0000000F03F0000F07F0000E07FFFFF9F7C90
:109AC0000000E03F0000F0BFFFFFEF7F0A460146C5
:109AD0000248034B0068FFF7EFB900BF8CDE03209C
