:02000002D0002C
:1040000000400D004CF20D00000006000C00050100
:084010000401BD0B00000000DB
:044018005CD40D0067
:1040200009480A49884208B505D0094A824202D0A7
:10403000121A07F0C1FA0748074A0021121A07F0BE
:10404000E3FA014808BD00BF20DC032064EF0D0047
:10405000DCDE0320E0DE0320F8E7032070B5074E26
:10406000074C06F025FBA41BA4080025A54200D19F
:1040700070BD56F8043B98470135F7E7E4E50D00BD
:1040800018E60D0001F06EBF08B501F0F3F9BDE8C8
:10409000084006F0CFBA04F009BD04F007BD04F0F3
:1040A0000DBD04F00BBD000008B5034A00210C2033
:1040B00004F0B6FBFEE700BF51850D000078B0FAB2
:1040C00080F040097047012303707047002070475B
:1040D000704700207047006970470120704700005A
:1040E000014B01221A707047F5E503200368184759
:1040F000012A03D0022A03D0002070470160FBE7A9
:104100000B680360F8E7012A08BF016000207047D0
:104110007047012A08BF01600020704702F084BB8D
:1041200008B5044905F0B0FE18B1034B03221A701C
:10413000012008BDABD40D00BDE5032010B5C2B011
:1041400000680A2201A908F093F9431E062B0446D1
:1041500031D801280AD1194B1949187702A807F05C
:1041600089FA184B1C70204642B010BD022804D1B9
:10417000124B154901245C77F0E7032804D10F4B5B
:10418000124901249C77E9E7042804D10B4B10491C
:104190000124DC77E2E7052805D1084B0D4901240D
:1041A00083F82040DAE7062805D1044B0A490124A8
:1041B00083F82140D2E70024D5E700BFC0E5032003
:1041C000ADD40D00F4E50320C0D40D00D3D40D0010
:1041D000E8D40D00FCD40D0010D50D00436913B1D7
:1041E00083690C301847704710B5034B03600446D1
:1041F00003F0E0FE204610BD1CDC0D0010B50446A7
:10420000FFF7F2FF2046382106F061FB204610BD83
:1042100010B5034B0360044603F0FCF8204610BDC4
:1042200044DC0D0010B50446FFF7F2FF20461021D4
:1042300006F04DFB204610BD13B50021044608468C
:1042400004F00EF90023204601A9019304F020F99F
:10425000019C0CB1012323710021012004F000F91D
:104260002CB1236820469B6898470023237102B035
:1042700010BD10B50446006808B104F01FFC2046CC
:1042800010BD0023042204F049BB10B58368044626
:1042900013B1032201469847204610BD37B5134B92
:1042A000036004468068C8B100256FF00043CDE983
:1042B000003502212B462A4604F0F2F8A068294670
:1042C00004F026F9237903F0FF0513B104F0C0F8D8
:1042D000F8E7A068294604F0D3F8A56004F10C00C3
:1042E000FFF7D3FF204603B030BD00BF08DC0D0050
:1042F00010B50446FFF7D2FF20461C2106F0E7FA6E
:10430000204610BD0246014804F0DDBC7F8C0D0044
:1043100007B508220023ADF800204FF47A7101227E
:10432000019241436A461846ADF8023004F04EFB54
:1043300003B05DF804FB07B580680B46002140B16F
:10434000CDE900210A46032104F0AAF8B0FA80F072
:10435000400903B05DF804FB13B50446084601911B
:1043600007F0ADF901990246204602B0BDE81040C1
:1043700005F03CBB13B504460846019107F09FF9D0
:1043800001990246204602B0BDE8104005F03EBB50
:104390000EB410B58DB00FAA016852F8044B039209
:1043A00000232020CDE90403CDE900421E2004AA09
:1043B00004F04EFA0DB0BDE8104003B0704737B5B9
:1043C00004689DF818508DF800308DF80450E468AA
:1043D0003C23A04703B030BDF0B50D7897B00C4634
:1043E00025BB444906A807F045F9434B5B7A002BEF
:1043F0004ED0424E8DF8005033784149414806AACC
:10440000FFF7DDFF204607F0B2F80A22014602A8B6
:1044100005F027FD8DF800503378029A3A49394863
:10442000FFF7CDFF02A805F091FC31E0084607F048
:104430009EF8C8282ED1304D344906A807F01AF945
:104440006A7AE2B12D4E2E492E4800278DF8007071
:10445000337806AAFFF7B3FF204607F088F80A2250
:10446000014602A805F0FDFC8DF800703378029A31
:1044700025492448FFF7A3FF02A805F067FC05F0D3
:10448000F2FE234BA86101221A70224B00221A70FF
:1044900017B0F0BD204607F06AF8C928CBD02046F7
:1044A00007F065F842F20F739842F1DC204607F0FE
:1044B0005EF8194A0346402106A804F017FB0E4B8C
:1044C0005B7A002BE4D00D4D0D490E4800268DF887
:1044D00000602B7806AAFFF772FF204607F047F826
:1044E0000A22014602A805F0BCFC8DF800602B787A
:1044F00093E700BF23D50D00C0E503202DDF032087
:104500002BD50D00D8E303203AD50D0048D50D007A
:10451000F4E5032055DF03205AD50D0037B51C49BB
:10452000054605F0B1FC044600B31A4C012360684F
:104530006370FFF7EDFE636817484FF47A716FF010
:1045400000425943FFF7F7FE04F008FA48B1002390
:104550008DF80030114B124A1B7812491248FFF7B0
:104560002EFF124B0120187003B030BD10492846B1
:1045700005F08AFC0028F7D0064B5C7004F0EEF9D9
:104580000028EED0054B8DF800401B78094AE4E77F
:10459000ABD40D00C0E50320B8E303202DDF0320DA
:1045A00077D50D0007D60D00D8E30320F4E50320EE
:1045B000BAE10D008CD50D0010B5C4B000680A2218
:1045C00003A907F055FFB0F5966F22D8124C606032
:1045D000FFF79EFE636811484FF47A7159436FF0FC
:1045E0000042FFF7A8FE63680D4A4FF4807104A8EB
:1045F00004F07CFA00238DF800300A4B0A491B783E
:104600000A4804AAFFF7DBFE094B0120187044B0EA
:1046100010BD0020FBE700BFC0E50320B8E3032086
:10462000A0D50D002DDF0320B9D50D00D8E3032060
:10463000F4E5032000B589B0039005F04FFC0E4B64
:104640000399BDEEC00A04A883ED090A05F0ECFB4E
:1046500000238DF80030094B049A1B78084909485B
:10466000FFF7ADFE04A805F071FB074B01201870A1
:1046700009B05DF804FB00BFC0E503202DDF032077
:10468000C4D50D00D8E30320F4E5032037B516495F
:10469000054605F0F9FB044688B1144B144A154948
:1046A000154801245C7200238DF80030134B1B78F1
:1046B000FFF785FE124B20461C7003B030BD114938
:1046C000284605F0E1FB0028F7D0084B0E4A5C7243
:1046D0000A4B8DF800401B7806490748FFF76FFE2C
:1046E000074B01201870E8E7ABD40D00C0E50320AC
:1046F000E6D50D0007D60D00D8E303202DDF0320FB
:10470000F4E50320BAE10D00F7D50D0030B5C5B0D2
:1047100000680A2203A907F0ABFE431E062B0446DD
:104720004FF0000542D8012813D1214B21491D77B4
:1047300004A806F09FFF204B8DF800501B781F49FE
:104740001F4804AAFFF73BFE1E4B1C70204645B0D5
:1047500030BD022810D1164B1B495D7704A806F026
:1047600089FF154B8DF800501B781449144804AA92
:10477000FFF725FE0124E7E7032803D10C4B13497B
:104780009D77EBE7042803D1094B1149DD77E5E775
:10479000052804D1064B0F4983F82050DEE7062890
:1047A00004D1034B0C4983F82150D7E72C46CDE7C1
:1047B000C0E503200CD60D002DDF032020D60D0010
:1047C000D8E30320F4E503202ED60D0042D60D00D9
:1047D00058D60D006DD60D0082D60D0000B5C5B0BF
:1047E00000680A2203A907F043FE042818D80D4BDD
:1047F0000D4AD8624FF48071034604A804F076F99C
:1048000000238DF80030094B09491B78094804AA98
:10481000FFF7D5FD084B0120187045B05DF804FB8B
:104820000020FAE7C0E5032096D60D002DDF032017
:1048300007D60D00D8E30320F4E503201FB50A22B4
:10484000006803A907F014FE012804464FF0000396
:1048500011D18DF80030094B094A1B7809490A48E3
:10486000FFF7ADFD41F2883004F090F905F080FBD0
:10487000204604B010BD1C46FAE700BF2DDF032020
:10488000A8D60D001DD80D00D8E3032007B504F00D
:1048900065F848B100238DF800300E4B0E4A1B78A6
:1048A0000E490F48FFF78BFD0E4A0F4878235360DF
:1048B00040F2011313800023537293724FF4167366
:1048C000536201213423D16203B05DF804EB02F09E
:1048D00044BE00BF2DDF0320BDD60D0007D60D005E
:1048E000D8E30320C0E50320A8E3032007B504F0C4
:1048F00035F848B100238DF800300B4B0B4A1B787C
:104900000B490C48FFF75BFD0B4A0C4B0C4813603E
:1049100053609360D36013615361A021182303B0E7
:104920005DF804EB02F019BE2DDF0320D5D60D0093
:1049300007D60D00D8E3032030E40320CDCCB542E8
:10494000A8E3032010B5154C237A012B04D904F0F9
:1049500005F800B3012323726368114AB3F5966F1B
:1049600084BF4FF416736360637A012B84BF012305
:104970006372A37A012B84BF0023A3726369FF2BA8
:1049800084BF00236361E36A052B4FF001031370BA
:1049900088BFE36210BD2072DEE700BFC0E50320E0
:1049A000F4E50320334BD3ED007AF5EEC07AF1EE57
:1049B00010FA06D49FED307AF4EEC77AF1EE10FAD1
:1049C00001DD2E4A1A60D3ED017AF5EEC07AF1EEE0
:1049D00010FA06D49FED287AF4EEC77AF1EE10FAB9
:1049E00001DD264A5A60D3ED027AF5EEC07AF1EE87
:1049F00010FA06D49FED207AF4EEC77AF1EE10FAA1
:104A000001DD1E4A9A60D3ED037AF5EEC07AF1EE2D
:104A100010FA06D49FED187AF4EEC77AF1EE10FA88
:104A200001DD164ADA60D3ED047AF5EEC07AF1EED4
:104A300010FA06D49FED107AF4EEC77AF1EE10FA70
:104A400001DD0E4A1A61D3ED057AF5EEC07AF1EE7A
:104A500010FA06D49FED087AF4EEC77AF1EE10FA58
:104A600001DD064A5A61034A05481823A02102F0D5
:104A700074BD00BF30E4032000803B45ECD1B5425B
:104A8000A8E3032007B50121052005F0AAFE0021B7
:104A9000052005F0A6FE094A00231370084A527A41
:104AA00042B18DF80030074B074A1B780749084888
:104AB000FFF785FC03B05DF804FB00BFF5E50320BC
:104AC000C0E503202DDF0320F4D60D00FBD60D003A
:104AD000D8E30320000000002DE9F0472DED088BFE
:104AE000CCB00CAD4FF4807403A803F03FFF3C4EF4
:104AF00022460021284606F087FD0023394A8DF81A
:104B0000203007A8CDE909540B93079204F0CBFE9F
:104B1000F36A354C012B354676D1337F63B1334987
:104B200007A8FFF719FC0646206806F061F941EC7A
:104B3000100B304604F0EEFE6B7F63B12C4907A8E2
:104B4000FFF70AFC0646606806F052F941EC100BCC
:104B5000304604F0DFFEAB7F63B1264907A8FFF7BC
:104B6000FBFB0646A06806F043F941EC100B30460B
:104B700004F0D0FEEB7F63B11F4907A8FFF7ECFB01
:104B80000646E06806F034F941EC100B304604F0BC
:104B9000C1FE95F8203063B1184907A8FFF7DCFB88
:104BA0000646206906F024F941EC100B304604F06B
:104BB000B1FE95F8213063B1114907A8FFF7CCFB8E
:104BC0000646606906F014F941EC100B304604F01B
:104BD000A1FE0C4907A8FFF7BFFBE96A6AE000BF26
:104BE000C0E50320F4E10D0048E4032004D70D00E4
:104BF0000ED70D0018D70D0024D70D002FD70D00AC
:104C00003AD70D0007D60D00022B40F02D81C64982
:104C100007A8FFF7A1FB0546A06C06F0E9F841ECF8
:104C2000100B284604F076FEC04907A8FFF794FB56
:104C30000546E06C06F0DCF841EC100B284604F069
:104C400069FEBB4907A8FFF787FB0546206D06F004
:104C5000CFF841EC100B284604F05CFEB54907A8DC
:104C6000FFF77AFB0546206F06F0C2F841EC100B07
:104C7000284604F04FFEB04907A8FFF76DFB054634
:104C8000606F06F0B5F841EC100B284604F042FEC8
:104C9000AA4907A8FFF760FB0546A06F06F0A8F831
:104CA00041EC100B284604F035FEA54907A8FFF794
:104CB00053FBF16A04F01CFE07A804F0DEFD00239C
:104CC0008DF800309F4BDFF890A21B789E499F48DB
:104CD0000CAAFFF774FBDAF8000006F089F88EA33F
:104CE000D3E900238046894606F0DAF806F0A8FBEF
:104CF000CAF83000DAF8040006F07AF802460B46EB
:104D000043EC182B84A3D3E9002306F0C9F806F07E
:104D100097FBCAF83400DAF8080006F069F8024692
:104D20000B4643EC192B7CA3D3E9002306F0B8F81B
:104D300006F086FBCAF83800DAF80C0006F058F8DE
:104D400002460B4643EC1A2B73A3D3E9002306F06B
:104D5000A7F806F075FBCAF83C00DAF8100006F078
:104D600047F802460B4643EC1B2B6BA3D3E9002309
:104D700006F096F806F064FBCAF84000DAF8140072
:104D800006F036F864A3D3E9002306460F4606F082
:104D900087F806F055FBCAF84400DAF8480006F038
:104DA00027F85DA3D3E9002304460D4606F078F802
:104DB00006F046FB5AA3D3E90023CAF8640049462B
:104DC000404606F06DF806F03BFB55A3D3E90023FF
:104DD000CAF8180051EC180B06F062F806F030FB28
:104DE0004FA3D3E90023CAF81C0051EC190B06F0BD
:104DF00057F806F025FB4AA3D3E90023CAF82000A0
:104E000051EC1A0B06F04CF806F01AFB44A3D3E958
:104E10000023CAF8240051EC1B0B06F041F806F001
:104E20000FFB3FA3D3E90023CAF8280039463046D8
:104E300006F036F806F004FB39A3D3E90023CAF8DC
:104E40002C002946204606F02BF806F0F9FA404BD4
:104E5000CAF86000012203A81A7004F077FF4CB072
:104E6000BDEC088BBDE8F087032B20D12E4907A8A5
:104E7000FFF772FA0646A06C05F0BAFF41EC100B82
:104E8000304604F047FD294907A8FFF765FA0646B2
:104E9000E06C05F0ADFF41EC100B304604F03AFD3C
:104EA000234907A8FFF758FA0646206D5BE6042B56
:104EB0007FF402AF1C4907A8FFF74EFA0646D4F864
:104EC000880005F095FF41EC100B304604F022FD00
:104ED000164907A8FFF740FA0646D4F88C0005F0FB
:104EE00087FF41EC100B304604F014FD104907A871
:104EF000FFF732FA0646D4F8900005F079FF41EC4E
:104F0000100B304604F006FD124907A8FFF724FAFB
:104F10000646D4F8940035E6333333333333E33F76
:104F2000666666666666F63F44D70D004FD70D008D
:104F30005AD70D0065D70D0070D70D007BD70D0037
:104F400007D60D002DDF032091D70D00D8E30320F5
:104F5000FCE4032086D70D0048E4032030B5114D52
:104F6000114C12492A7820788DB01A2303FB0212C3
:104F7000009203FB00130E4A282102A803F0B6FD9D
:104F80002B78237003F0EAFC48B100238DF8003041
:104F9000084B09491B78094802AAFFF710FA0DB01F
:104FA00030BD00BFBDE50320D4E3032030DC032087
:104FB000A6D70D002DDF0320B4D70D00D8E30320C2
:104FC00030B50D4D0FCD89B001AC0FC495E8070089
:104FD0000A4B84E807001B7C094808AA02EB8303FC
:104FE000102153F81C3C074A03F080FD064B0122B8
:104FF0001A7009B030BD00BFACDC0D00C0E5032065
:1050000034DF03203CDF0D00F4E503202DE9F04FF1
:105010004FEA800909F1070483B004F4FF6402AF8A
:10502000ADEB040D02ADAC464FF0000E4CF804EBB6
:10503000023800282ADADFF868B0DFF868A00C46EA
:1050400090461E46A9444D4524D0D4E902018DE87E
:105050000300584694E80C0001F0A6FA51EC100B3E
:1050600006F0EEF948F8040B45F8040B05F0C0FE15
:10507000DAE9002305F014FF084B002206F03AF8A5
:1050800006F0DEF9103446F8040BDCE74CF804EBCC
:105090000138CEE70437BD46BDE8F08F00408F40B1
:1050A000E8DE032028DC03202DE9F0472DED068BF8
:1050B0008C4C8D4B206893F800A0A8B0CDF800A0D0
:1050C00005F096FE894B41EC1A0B93F80090CDF851
:1050D0001090CDE90201606805F08AFE844B41EC36
:1050E000190B93F80080CDF82080CDE90601A06867
:1050F00005F07EFE7F4B41EC180B1D780C95CDE939
:105100000A01E06805F074FE7B4B06461B782069B7
:1051100010930F46CDE90E6705F06AFE774BCDE997
:1051200012011B786069149305F062FE744C24959B
:10513000744DCDF860A00023CDE916018DED1AABBA
:105140008DED1E9B8DED228BCDE92667CDF87090FD
:10515000CDF8808084F8B030FFF732FFE86A01288C
:105160004AD12B7F4BB168484FF4B96102F0E8F89F
:1051700051EC100B06F064F920606B7F4BB1634873
:105180004FF4B96102F0DCF851EC100B06F058F95D
:105190006060AB7F4BB15E484FF4B96102F0D0F86C
:1051A00051EC100B06F04CF9A060EB7F4BB1594865
:1051B0004FF4B96102F0C4F851EC100B06F040F95D
:1051C000E06095F820304BB153484FF4B96102F0DC
:1051D000B7F851EC100B06F033F9206195F8213047
:1051E000E3B14E484FF4B96102F0AAF851EC100B4C
:1051F00006F026F9606111E002283AD104F1540367
:1052000004F1480269460320FFF700FF04F17C0324
:1052100004F170020CA90320FFF7F8FE404E0122B2
:1052200032706A7F002A7DD0D4ED017AB7EE007A21
:10523000F4EEC77AF1EE10FA74DD94ED0D7AF4EE27
:10524000C77AF1EE10FA06D494ED077AF4EEC77A35
:10525000F1EE10FA66DD012584F8B05005F003F890
:105260003570C4F8A800284628B0BDEC068BBDE810
:10527000F087032829D104F1540304F14802694658
:10528000FFF7C4FEEB7FEBB122484FF4B96102F0A7
:1052900057F851EC100B06F0D3F8E06095F8203089
:1052A000EBB11D484FF4B96102F04AF851EC100B14
:1052B00006F0C6F8206195F82130002B91D100232B
:1052C0006361ABE70023E360E8E70428A6D104F1BB
:1052D000980304F1880218A9FFF798FEDEE700237F
:1052E0002361E8E730E4032020DC032021DC0320F5
:1052F00022DC032023DC032024DC032025DC032024
:1053000048E40320C0E5032058DF032010E0032019
:10531000C8E0032080E1032038E20320F0E203200C
:10532000FCE403202B7FBBB1D4ED007AB7EE007A0A
:10533000F4EEC77AF1EE10FA0EDD94ED0C7AF4EE8D
:10534000C77AF1EE10FA86D494ED067AF4EEC77AB5
:10535000F1EE10FA3FF77FAFAB7FC3B1D4ED027A25
:10536000B7EE007AF4EEC77AF1EE10FA0FDD94EDA5
:105370000E7AF4EEC77AF1EE10FA3FF56CAF94EDC9
:10538000087AF4EEC77AF1EE10FA3FF764AFEB7FDC
:10539000C3B1D4ED037AB7EE007AF4EEC77AF1EE3A
:1053A00010FA0FDD94ED0F7AF4EEC77AF1EE10FAF1
:1053B0003FF551AF94ED097AF4EEC77AF1EE10FAA9
:1053C0003FF749AF95F82030C3B1D4ED047AB7EE7A
:1053D000007AF4EEC77AF1EE10FA0FDD94ED107A50
:1053E000F4EEC77AF1EE10FA3FF535AF94ED0A7A94
:1053F000F4EEC77AF1EE10FA3FF72DAF95F82130B1
:10540000C3B1D4ED057AB7EE007AF4EEC77AF1EEC7
:1054100010FA0FDD94ED117AF4EEC77AF1EE10FA7E
:105420003FF519AF94ED0B7AF4EEC77AF1EE10FA6E
:105430003FF711AFEB6A023B012B18D8D4ED127A7B
:10544000B7EE007AF4EEC77AF1EE10FA0FDD94EDC4
:10545000197AF4EEC77AF1EE10FA3FF5FCAE94ED4E
:10546000187AF4EEC77AF1EE10FA3FF7F4AE0020A6
:10547000FAE600BFF0B5874C2378013B87B0052BD7
:105480001BD8DFE813F0E2000600680074004E004D
:105490009900814B5B7A2BB1804B1B78022B01D09A
:1054A000FFF75CFD04F0DFFE4FF4967390FBF3F220
:1054B00002FB13030BB90523237001F049FD01F032
:1054C00023FD01F0E7F901F000FA754802F022FC33
:1054D000744B1B780BB1FFF7D5FA734C23783BB1B3
:1054E00034236D4A7148012102F037F800232370FC
:1054F0006F4C237843B1B4236E4A6C484FF400716B
:1055000002F02BF8002323706B4C23783BB1182357
:105510006A4A6648A02102F020F80023237007B0F1
:10552000F0BD5D4D6A7A2AB15C4B1B78052B01D02A
:10553000FFF714FDFFF7B8FD08B10423BCE704F042
:1055400092FE6B6A90FBF3F202FB13030BB9032389
:10555000B2E70223B0E7504B5B7A2BB14F4B1B787D
:10556000032B01D0FFF7FAFCFFF79EFDE5E74A4B5E
:105570005B7A2BB1494B1B78042B01D0FFF7EEFC73
:1055800003F0ECF968B104F07FFE0C2805D103F0BC
:10559000E5F910B1002003F001FAFFF79DFA0623A8
:1055A0008AE703F0D3F9FFF797FA0623237002F096
:1055B000D7FF434B186080E7384B424D1B78062BD2
:1055C0000AD002F0CDFF404B186001232B70324B04
:1055D0005B7A23B1FFF7C2FC2B78002BB9D002F025
:1055E000BFFF394B1B68C01A4CF2503398427FF60C
:1055F00064AF2978354D324F00260A2202A804F004
:1056000030FC8DF800602B78029A31493148FEF762
:10561000D6FE02A804F09AFB8DF800602B782E4A83
:105620002E492C48FEF7CBFE02F09AFF8DF8006061
:105630002B782B4A2B4938602648FEF7C0FE012301
:10564000237002F08DFF386037E7144B1B78012B75
:1056500001D0FFF783FC02F083FF194B1B6803F5B1
:10566000922303F578738342BFF427AF03F076F9F2
:1056700048B100238DF80030144B1B4A1B781B499E
:105680001448FEF79CFE4FF4FA6003F07FFA04F032
:105690006FFC12E7BDE50320C0E50320D4E303203F
:1056A00014E40320F5E50320F4E50320A8E3032038
:1056B000FCE4032048E4032054DF032030E403200B
:1056C00010E4032055DF032030DF03202DDF03200B
:1056D000C5D70D00D8E30320CED70D00ECD70D00C1
:1056E00034E30D00F6D70D000FD80D0023D80D00C0
:1056F00010B5204C206805F07BFB1F4B41EC100BD4
:1057000019781E4801F012FE606805F071FB1C4B11
:1057100041EC100B19781B4801F008FEA06805F059
:1057200067FB194B41EC100B1978184801F0FEFD8E
:10573000E06805F05DFB164B41EC100B197815483D
:1057400001F0F4FD206905F053FB134B41EC100B05
:105750001978124801F0EAFD606905F049FB104B29
:1057600041EC100B19780F4801F0E0FD0E4B0122BF
:105770001A7010BD30E4032020DC032058DF032022
:1057800021DC032010E0032022DC0320C8E00320FA
:1057900023DC032080E1032024DC032038E2032003
:1057A00025DC0320F0E2032054DF032013B5224C54
:1057B000206805F01DFB214ACDE900012021204889
:1057C00003F094F9606805F013FB1E4ACDE900016F
:1057D00020211D4803F08AF9A06805F009FB1B4A47
:1057E000CDE9000120211A4803F080F9E06805F0B6
:1057F000FFFA184ACDE900012021174803F076F995
:10580000206905F0F5FA154ACDE900012021144878
:1058100003F06CF9606905F0EBFA124ACDE900017A
:105820002021114803F062F9FFF762FF0F4B0122BC
:105830001A7002B010BD00BF30E4032029D80D005B
:105840003DE5032037D80D009DE5032044D80D0029
:105850007DE5032054D80D001DE5032071D80D000F
:10586000FDE403208ED80D005DE5032054DF032006
:1058700000B589B0039004F031FB0D4B039983ED23
:10588000000A04A804F0D0FA00238DF80030094B78
:10589000049A1B7808490948FEF791FD04A804F012
:1058A00055FAFFF783FF012009B05DF804FB00BF44
:1058B00030E403202DDF0320AAD80D00D8E3032015
:1058C00000B589B0039004F009FB0D4B039983EDFB
:1058D000010A04A804F0A8FA00238DF80030094B4F
:1058E000049A1B7808490948FEF769FD04A804F0EA
:1058F0002DFAFFF75BFF012009B05DF804FB00BF44
:1059000030E403202DDF0320C5D80D00D8E30320A9
:1059100000B589B0039004F0E1FA0D4B039983EDD3
:10592000020A04A804F080FA00238DF80030094B25
:10593000049A1B7808490948FEF741FD04A804F0C1
:1059400005FAFFF733FF012009B05DF804FB00BF43
:1059500030E403202DDF0320E0D80D00D8E303203E
:1059600000B589B0039004F0B9FA0D4B039983EDAB
:10597000030A04A804F058FA00238DF80030094BFC
:10598000049A1B7808490948FEF719FD04A804F099
:10599000DDF9FFF70BFF012009B05DF804FB00BF44
:1059A00030E403202DDF0320FDD80D00D8E30320D1
:1059B00000B589B0039004F091FA0D4B039983ED83
:1059C000040A04A804F030FA00238DF80030094BD3
:1059D000049A1B7808490948FEF7F1FC04A804F072
:1059E000B5F9FFF7E3FE012009B05DF804FB00BF45
:1059F00030E403202DDF032019D90D00D8E3032064
:105A000000B589B0039004F069FA0D4B039983ED5A
:105A1000050A04A804F008FA00238DF80030094BA9
:105A2000049A1B7808490948FEF7C9FC04A804F049
:105A30008DF9FFF7BBFE012009B05DF804FB00BF44
:105A400030E403202DDF032035D90D00D8E30320F7
:105A5000F0B5ADF50D7D4FF400740CAE224600217B
:105A6000304605F0D1FD0023A84A8DF8203007A864
:105A700007920B93CDE9096403F015FFA44907A829
:105A8000FEF76AFC044601F063FA4168002900F061
:105A900097800C312046FEF76DFC9E499E4C07A86E
:105AA000FEF75AFC9D49FEF765FC9D4907A8FEF7E5
:105AB00053FCE16A05460A2203A804F0D2F9059ACC
:105AC0000399284603F0A2FF03A804F03FF9954983
:105AD00007A8FEF741FC07A803F0E5FEE36A012BE7
:105AE00070D19149914D07A8FEF736FC217F03F054
:105AF000E7FE8F4907A8FEF72FFC0746286805F048
:105B000077F941EC100B384603F004FF894907A8E8
:105B1000FEF722FC617F03F0D3FE874907A8FEF75A
:105B20001BFC0746686805F063F941EC100B38462A
:105B300003F0F0FE814907A8FEF70EFCA17F03F0F9
:105B4000BFFE7F4907A8FEF707FC0746A86805F0D7
:105B50004FF941EC100B384603F0DCFE794907A8F9
:105B6000FEF7FAFBE17F03F0ABFE774907A8FEF7EB
:105B7000F3FB0746E86805F03BF941EC100B3846AB
:105B800003F0C8FE714907A8FEF7E6FB94F8201061
:105B900003F096FE6E4907A8FEF7DEFB074628696C
:105BA00005F026F941EC100B384603F0B3FE6949C5
:105BB00007A8FEF7D1FB94F8211003F081FE70E0F6
:105BC000654967E7022B40F0D7805749574D07A832
:105BD000FEF7C2FB012103F08BFE554907A8FEF733
:105BE000BBFB0746286805F003F941EC100B38466B
:105BF00003F090FE4F4907A8FEF7AEFB012103F02A
:105C000077FE4D4907A8FEF7A7FB0746686805F031
:105C1000EFF841EC100B384603F07CFE474907A82B
:105C2000FEF79AFB012103F063FE454907A8FEF742
:105C300093FB0746A86805F0DBF841EC100B3846EB
:105C400003F068FE3F4907A8FEF786FB012103F039
:105C50004FFE3D4907A8FEF77FFB0746E86805F0C1
:105C6000C7F841EC100B384603F054FE374907A83B
:105C7000FEF772FB012103F03BFE354907A8FEF752
:105C80006BFB0746286905F0B3F841EC100B38466A
:105C900003F040FE2F4907A8FEF75EFB012103F049
:105CA00027FE2E4907A8FEF757FB0746686905F04F
:105CB0009FF841EC100B384603F02CFE07A803F0C8
:105CC000DCFD274907A8FEF747FB617803F0F8FDE4
:105CD000244907A8FEF740FB616803F009FE22494A
:105CE00007A8FEF739FB616A03F002FE07A803F07C
:105CF000C4FD00238DF800301C4B1D491B781D4846
:105D00003246FEF75CFB0DF50D7DF0BDF4E10D00B4
:105D100050D90D0055D90D00C0E5032008DD0D0058
:105D20005DD90D006CD90D0074D90D0030E403204D
:105D300087D90D0099D90D00ACD90D00BED90D0041
:105D4000D3D90D00E7D90D00FBD90D000EDA0D00F7
:105D500022DA0D0035DA0D0034E30D0048DA0D00CB
:105D60005ADA0D006ADA0D0074DA0D002DDF032017
:105D700087DA0D00D8E30320032B9FD11849194D72
:105D800007A8FEF7E9FA012103F0B2FD164907A8BA
:105D9000FEF7E2FA0746286805F02AF841EC100BF6
:105DA000384603F0B7FD114907A8FEF7D5FA0121DF
:105DB00003F09EFD0E4907A8FEF7CEFA0746686875
:105DC00005F016F841EC100B384603F0A3FD094925
:105DD00007A8FEF7C1FA012103F08AFDB1E600BF72
:105DE00074D90D0030E4032087D90D0099D90D0036
:105DF000ACD90D00BED90D0008B5044904F044F833
:105E000010B1FFF725FE012008BD00BFABD40D0087
:105E100038B5046805467CB16368013B63605BB9D3
:105E2000236820469B689847A368013BA3601BB981
:105E300023682046DB689847284638BD10B586B0F1
:105E400000F028FD4268536803939368049313B1EC
:105E5000596801315960D3680B4A059303A9684614
:105E600000F037FE04A8FFF7D3FF684603F0AEFB4F
:105E7000044601A8FFF7CCFF1CB904490448FEF70B
:105E800087FA06B010BD00BF9CDA0D00A2DA0D0043
:105E900018E60320FFF7D2BF1FB5094B094A1B784C
:105EA0001278094913438DF8003000223C2302A8E0
:105EB00002F0FCFF03A8FFF7ABFF05B05DF804FBA1
:105EC0002CDF03202DDF0320B0DA0D0010B50368AE
:105ED00088B05B6804469847019005F0F0FB019993
:105EE000024605A803F0B6FDDDE905120023CDE961
:105EF0000533636803936160A368A26004A80493F8
:105F0000FFF786FF079BE36006A8FFF781FF08B055
:105F100010BD000010B5044B044640F8043B0430AB
:105F2000FFF776FF204610BD60DC0D0010B504467B
:105F3000FFF7F0FF2046182104F0C9FC204610BDF1
:105F400013B50B460246D0E900016C4684E8030015
:105F500093E8030082E8030094E8030083E8030069
:105F600002B010BD2DE9F0470021BEB0082004F0BA
:105F700027FC0121052004F023FCFEF783FD00230C
:105F8000009301224FF0FF33B349082003F0CEF90C
:105F9000B24B0EAA03F1100517461868596814464B
:105FA00003C40833AB422246F7D119889B78A3700B
:105FB00021802D220021AA4C0DF14B00002505F077
:105FC00023FB02A8257002F0D1FC2B467D221EA9DE
:105FD00002A803F06BFF2B462A46CDE90055A149E4
:105FE0001EA802F0D3FCA049A048FEF74AF9A04938
:105FF000A048FEF746F9A049A048FEF742F92B4613
:106000009F49A048022202F089FC2B4601229E49AA
:106010009E4802F083FC9E499E48FEF732F99E4955
:106020009E48FEF72EF99E499E48FEF72AF99E49A2
:106030009E48FEF726F99E499E48FEF722F99E49A2
:106040009E48FEF71EF92B469D499E48022202F00B
:1060500065FC2B4602229C499C4802F05FFC9C494F
:106060009C48FEF74FF99C499C48FEF74BF99C4928
:106070009C48FEF747F99C499C48FEF743F99C4928
:106080008248FEF73FF99B499B48FEF73BF99B4945
:106090009B48FEF737F99B499B48FEF733F99B492C
:1060A0009B48FEF72FF99B499B48FEF72BF99B492C
:1060B0009B48FEF727F99B499B48FEF723F99B492C
:1060C0009B48FEF71FF99B499B48FEF71BF99B492C
:1060D0009B48FEF717F99B499B48FEF713F99B482D
:1060E00001F012FD2946994801F04BFE00F0D2FB69
:1060F000974B09930646974B0893022206A90AA8D4
:106100000C95FEF700F8099B0D9306F10C01089B16
:106110000C930AA8FFF714FF0C9B72690C92736131
:106120000D9BB2690D920AA8B361FEF7AEF88A4BD7
:10613000F3612C20FDF7AFFF054610B1874900F051
:10614000F7FBB5601820FDF7A6FF054630B184497E
:106150004FF4807200F05CFB824B2B603046756020
:1061600000F026FD06A8FEF790F800F0F1FE7E4B49
:106170000D930AA97D4B0C9300F006FF0AA8FEF7C9
:1061800084F800F0E5FE7A4900F068FF794801F0F4
:1061900057F9012377480AAA002101F093F99DF8E5
:1061A0002830162B4BD0734801F054F9724A7148CD
:1061B0000423002101F0D1F901236E480AAA00212D
:1061C00001F080F99DF82830162B29D00123237087
:1061D0006A4DFEF7E7FBFEF7B5FBFFF789FA6B7830
:1061E000002B00F0E580002002F0CAF94FF0000A11
:1061F0000646002002F0C4F9B0EB060861EB0A097C
:10620000002347F22F524B4508BF4245C0F0C280E1
:1062100002F0A4FB002840F0BD8002F08FFBE8E70D
:1062200000238DF80030564B564A1B785649574884
:10623000FEF7C5F8FEF72AFBFEF758FBC8E7544AFD
:106240004C481823A02101F03DF94C4A4948342319
:10625000012101F037F9BBE7E1400D00C8DC0D007A
:10626000BDE50320D9430D0008DD0D0055D90D0013
:1062700044DF0320B2DA0D0034DF0320BADA0D0068
:10628000C4E50320C9DA0D00C1E503207ED50D0069
:106290003DE5032018DB0D009DE5032029DB0D0003
:1062A0007DE503203ADB0D001DE503204DDB0D00ED
:1062B000FDE403205FDB0D005DE5032071DB0D00D5
:1062C000E4E5032074DA0D00ECE50320D8DA0D00D4
:1062D00021410D00E7DA0D00F95D0D00F3DA0D0044
:1062E0008D460D0007DB0D00B9450D00B9D50D0039
:1062F0001D450D0071580D0014DB0D00C1580D0037
:1063000025DB0D0011590D0036DB0D0061590D0024
:1063100049DB0D00B1590D005BDB0D00015A0D008A
:106320006DDB0D003D410D007EDB0D000D470D00C6
:106330008CDB0D00DD470D005DD90D0035460D00ED
:106340009BDB0D003D480D00B7DB0D0014E403207E
:10635000955E0D0007410D0080510100C5DB0D0069
:1063600000F4032088DC0D0011410D0013410D00E5
:1063700014F50320A8E3032010DD0D00C0E5032081
:106380002DDF0320DCDB0D00E7DB0D00D8E303206D
:1063900030E4032002F0E2FA6868FDF7B9FF6B68A9
:1063A00015484FF47A716FF000425943FDF7C3FF6F
:1063B000FFF7FCF9FEF778FE6B7A4BB100238DF8FE
:1063C00000300E4B0E491B780E483A46FDF7F7FF9A
:1063D00002F0C4FA10B902F0B1FAF9E702F0BEFA1D
:1063E000FFF736FB23780BB90223237002A803F0D2
:1063F000ADFC3EB0BDE8F087B8E303202DDF0320FD
:10640000F8DB0D00D8E30320F0B5504B504D514E52
:1064100001271F70504B022287B01A7004F07AF9DE
:1064200000231A4643F6451104F07CF904F072F992
:1064300000231A461221002404F07CF9474BAB607C
:106440002C60AC80AC71384602F012FA32464449F6
:10645000284604F037FA2146384602F019FA394640
:10646000042002F05DF804F005FA3E4D0146234693
:106470004FF40052284600F0D9FF3B4B2B603246C8
:106480003A49284604F01EFA04F0F4F9384D014662
:10649000284601F041FA2846364D3749324604F085
:1064A00011FA36494FF40062284601F0ABFE344B36
:1064B0002B6032463349284604F004FA324B0293EB
:1064C000324B334D0593334B0493334B2B602C717C
:1064D000AC606C6105F10C0102A8FFF731FD6A693F
:1064E000049B6B610492059BAA690592AB612B4AE0
:1064F0002B464FF47A71CDE9004405F1080001F014
:10650000B7FF02A8FDF7C1FE2846254D25493246B2
:1065100004F0D8F92146C5E91244C5E91544C5E996
:106520001C44C5E91F442C65EC65AC67C5F8844084
:10653000102205F1880005F067F81022214605F1C8
:10654000980005F061F807B0F0BD00BF2DDF032013
:1065500020DF0320E0DE03202CDF03200000FFFF0C
:1065600073420D00A8E3032044DC0D0011420D002E
:1065700014E40320D8E30320A3760D0040F50320A4
:106580001CDC0D00E9410D00995E0D00ED400D0091
:10659000B8E30320F1400D0008DC0D0039420D0086
:1065A00048E403209D420D0082B02DE9F84F0AA96E
:1065B00081E80C00344BDFF8D4B00022C0E904239A
:1065C000044640F27E654FF0000ABDF8280004F052
:1065D00021F9D4E90489206004F0F8FB42464B46D7
:1065E00006460F4604F0A4FA52465B4604F058FCF7
:1065F00042464B4604F09EFA02460B46C4E9042389
:106600003046394604F094FA02460B46C4E90223A8
:1066100004F046FC02460B46C4E90623D4E90823ED
:1066200004F088FA013D06460F46C4E90867CCD15C
:10663000DDE90C0110A3D3E9002304F031FC10A321
:10664000D3E90023804689463046394604F052FD9E
:1066500041EC100B04F044F900220023C4E90823A4
:1066600051EC100B42464B4604F01AFCBDE8F84FC3
:1066700041EC100B02B070476666666666664A3F7C
:106680000000000000F899400000A0400000303FEA
:1066900070477047006914307047012A034602D1E1
:1066A000016000207047022A04BFD1E90001C3E95C
:1066B0000001F6E710B5044B044640F80C3B03F02C
:1066C00045FB204610BD00BF74DE0D0010B504462A
:1066D000FFF7F0FF20461C2104F0F9F8204610BD1A
:1066E00010B5054B044640F81C3B03F02FFB204639
:1066F000FFF7E0FF204610BD58DE0D0010B5044640
:10670000FFF7EEFF20462C2104F0E1F8204610BDF3
:1067100013B504460846019104F0D1FF6369013BBB
:1067200083420FD920690199143004F0A3FF236834
:106730002046DB68984723681B6A204602B0BDE804
:1067400010401847002002B010BD10B44268034644
:10675000541001EB6200D20748BF0A591B685DF86C
:10676000044B48BFD3581847022A38B5044607D00F
:10677000032A11D0012A01D10B682360002038BD03
:106780000C200D68FDF787FC03460028F5D095E83E
:10679000070083E80700F0E700680028EED00C212E
:1067A00004F095F8EAE770B4036809685C689D68CE
:1067B0001B681268661005EB6400E40744BFAC591F
:1067C000E35870BC1847000010B5064B044640F86B
:1067D000243BFDF75AFD04F10C00FDF756FD204661
:1067E00010BD00BF18DE0D0010B50446FFF7ECFF2A
:1067F0002046382104F06BF8204610BD08B5036828
:106800005B6898470078003818BF012008BD000079
:1068100010B50024C0E90144C460024C0460C0E922
:10682000041210BD2CDE0D0070B504460069114D38
:106830000268AA4206D10379142B03D1C288A38A25
:106840009A4211D014263246002104F0DDFE23695D
:106850001D6023691E71D4E90432DA80D4E9040290
:106860000021304404F0D0FE23682046DB68BDE8F8
:106870007040184753DD5172054A02600022C0E99A
:106880000122C0E907224261C2624263704700BF31
:1068900018DE0D0010B5064C23683BB93820FDF713
:1068A000FAFB034608B1FFF7E7FF2360206810BD3D
:1068B000F8E5032007B50192FFF7ECFF03680199A3
:1068C0001B6803B05DF804EB184710B50446406838
:1068D00003681B699847A06810B103685B68984714
:1068E000E36A33B1236B214604F12400BDE8104074
:1068F000184710BD10B58AB0044606A8019102F0F1
:1069000035F8019B069A094902A803F0F9FA06A88E
:1069100003F01CFA029904F10C0003F090FA02A8AB
:1069200003F014FA20460AB010BD00BF14DD0D00BC
:106930004FF4FA624EF6602370B5C0E901230446B5
:106940000C4B40F80C3B0D4626460B4903F049FA28
:106950000A4B46F81C3B0849304603F042FA2946E8
:10696000304603F06CFA29462046FFF7C3FF204665
:1069700070BD00BF74DE0D0034E30D0058DE0D0065
:10698000826810B50AB903F0A8FFBDE81040C368DB
:106990001847000038B504460A460A480D460A4919
:1069A000FDF7F6FC60680223236248B103682946BC
:1069B0005B69984763691BB104F10C00FFF7E0FFC6
:1069C000012038BD18E6032029DD0D001FB504465F
:1069D000C26909490948FDF7DBFC094B094A1B78E4
:1069E000E1698DF8003002A83C2302F05FFA03A8A9
:1069F000FFF70EFA04B010BD3EDD0D0018E60320CF
:106A0000F6E5032034E30D0038B5002383608B687E
:106A100004460D462BB102229847EB68E360AB6851
:106A2000A360204638BD000070B58AB0C668044631
:106A300000250C200495FDF72EFB18B1134B846044
:106A4000C0E90035124B0290059302A9114B049343
:106A500006A8FFF7D9FF089B83B11020FDF71BFBA9
:106A6000044658B106A9FFF7CFFF0023CDE9003354
:106A7000094901232246304601F088FF06A8FDF7A8
:106A800004FC02A8FDF701FC0AB070BDB5680D005A
:106A9000A7670D0069670D00AB8C0D000B680360E4
:106AA00013B15A6801325A60704737B58D6851F892
:106AB000043B0093044601A8FFF7F0FF6A4629460D
:106AC000204602F0AFFE01A8FFF7A2F9204603B06E
:106AD00030BD70B58CB0044606A81646FFF7E5FF3A
:106AE00006A802F0B7FE00282DD0099D069B009352
:106AF00007A901A8FFF7D2FF29466A4602A802F0BB
:106B00006DFE01A8FFF784F90498314604F0A8FD52
:106B1000054603A8FFF77CF9002DE1D10A9D069BED
:106B2000029307A903A8FFF7B9FF02AA2946204646
:106B300002F03EFD03A8FFF76BF907A8FFF768F91D
:106B400020460CB070BDC4E90000A060F5E700006D
:106B500010B5D1E9002386B00021044604910AB99A
:106B6000D90705D5CDE902230F4B05930F4B0493AD
:106B700002AB93E803006A4682E8030094E803004E
:106B800083E8030092E80300049A84E80300A16804
:106B9000A260059A04911846E168E2600591FDF74C
:106BA00074FB204606B010BD4B670D009B660D00C0
:106BB00013B50446406880B103689B689847A06895
:106BC00058B103681B689847054B0093694600233A
:106BD00004F124000193FFF7BBFF02B010BD00BF1A
:106BE000E56B0D0013B504464068FFF707FE28B1BA
:106BF00063691BB104F10C00FFF7C2FE054B009363
:106C00006946002304F124000193FFF7A1FF02B0BD
:106C100010BD00BF196C0D0013B5044601F09EFEB7
:106C200090B103F003FB78B108490948FDF7B0FBC8
:106C3000084B00936946002304F124000193FFF7F9
:106C400087FF01F08DFC606302B010BD67DD0D00B1
:106C500018E60320596C0D0037B5044601F080FC9E
:106C6000636BC01AA3685B68984217D36068FFF72C
:106C7000C5FD04F1240598B1E369013310D00B4937
:106C80000B48FDF785FB01F06BFC0A4B606300933A
:106C90006946002328460193FFF75AFF03B030BD31
:106CA00005490348FDF774FB044BF0E777DD0D0061
:106CB00018E60320C16C0D0087DD0D00256D0D0069
:106CC00037B5044601F04CFC636BC01A42F20F73F7
:106CD00098421ED903F0AAFAD8B1E369002B18DD57
:106CE00003F0C1FA0546606803681B68984780682E
:106CF000E3692D1A9D420CDD07490848FDF748FB62
:106D0000074B00936946002304F124000193FFF729
:106D10001FFF03B030BD00BFA4DD0D0018E6032047
:106D2000256D0D0037B504460F491048FDF730FBBF
:106D3000606803681B689847054603F094FA0123CE
:106D4000A860236201F00CFC094B60630093694664
:106D5000002304F124000193FFF7FAFEA068036802
:106D60009B68984703B030BDBDDD0D0018E60320D9
:106D7000756D0D0013B5036A012B04461BD101F09C
:106D8000EFFB636BC01AA3689B68984211D90C494A
:106D90000C48FDF7FDFA0423236201F0E1FB0A4BE6
:106DA000606300936946002304F124000193FFF718
:106DB000CFFE02B010BD05490248FDF7E9FAECE745
:106DC000CEDD0D0018E60320C16C0D00EEDD0D00D8
:106DD000014B00221A707047F6E503207047012A24
:106DE000034602D1016000207047022A04BFD1E9A6
:106DF0000001C3E90001F6E713B50446104601920D
:106E000004F05DFC6368019902461E2A03F10C0040
:106E100006D804F02FFC012384F8353002B010BDF1
:106E20001F2204F066FC6368002283F82B20F2E73F
:106E300010B442680346541001EB6200D20748BF09
:106E40000A591B685DF8044B48BFD3581847022AFB
:106E500038B5044607D0032A11D0012A01D10B68A6
:106E60002360002038BD0C200D68FDF714F903469F
:106E70000028F5D095E8070083E80700F0E70068F0
:106E80000028EED00C2103F022FDEAE770B403687D
:106E900009685C689D681B681268661005EB6400F1
:106EA000E40744BFAC59E35870BC184710B5064B13
:106EB000044640F8203BFDF7E8F904F11000FDF727
:106EC000E4F9204610BD00BFA8DE0D0010B5044651
:106ED000FFF7ECFF2046382103F0F9FC204610BDF7
:106EE00010B5034B03600446FFF7E0FF204610BDDA
:106EF000BCDE0D0010B50446FFF7F2FF2046382136
:106F000003F0E5FC204610BD836A014613B1C36A55
:106F1000203018477047000030B5074A026000244F
:106F200000220025C0E9024542608261826202635C
:106F3000828680F8362030BDA8DE0D0008B50346F5
:106F4000FFF7EAFF014A1A60184608BDBCDE0D00D3
:106F500010B5064C23683BB93820FDF79CF8014674
:106F600008B1FFF7EBFF2160206810BD00E60320A9
:106F700007B5826801910AB903F0AFFCC36801A9A3
:106F8000984703B05DF804FB7FB5002302938B683C
:106F900004460D4600F1100633B1022268469847B8
:106FA000EB680393AB68029331466846FEF7C8FF6F
:106FB000029BA269A361039B02926846E269E361B6
:106FC0000392FDF762F9204604B070BD1FB5D1E908
:106FD00000230021044602910AB9D90705D5CDE95D
:106FE00000230B4B03930B4B029321466846FEF79D
:106FF000A7FF029BA268A360039B02926846E26817
:10700000E3600392FDF741F9204604B010BD00BFD4
:10701000316E0D00DF6D0D0073B5044640680D4DF7
:107020000268AA4202D103792C2B08D02C263246C2
:10703000002104F0E9FA63681D6063681E71064B65
:1070400000936946002304F120000193FFF7BEFF7F
:1070500002B070BDF2A2877765700D004160FFF746
:10706000DBBF000037B541680B7B044600F120050B
:1070700093B183691BB10C311030FFF779FF0A4BD4
:1070800000936946002328460193FFF79FFF01F014
:1070900067FA206303B030BD044A69462846CDE94B
:1070A0000023FFF793FFF5E701720D0089720D00D1
:1070B00013B5044601F052FC70B103F0B7F858B1B3
:1070C000064B00936946002304F120000193FFF76B
:1070D0007DFF01F045FA206302B010BDE1700D00A4
:1070E00030B5054685B001F03BFA2B6BC01AB0F500
:1070F000FA6F29D3154B16491B788DF80030002202
:1071000085F835203C2302A801F0D0FE039C7CB119
:107110006368013B63605BB9236820469B689847BE
:10712000A368013BA3601BB923682046DB6898472E
:10713000084B029302A9002305F120000393FFF7F7
:1071400045FF01F00DFA286305B030BDFCE50320D2
:1071500088DE0D0059710D0073B590F83550044666
:107160001DB34668337B00F12005DBB103F07BF8EB
:10717000B060236820469B689847A3692BB161687B
:1071800004F110000C31FFF7F3FE0F4B00930023C6
:10719000019369462846FFF719FF01F0E1F92063E2
:1071A00002B070BD094A0092F2E701F0D9F9236BF1
:1071B000C01A43F697239842F2D9044B6946CDE9A9
:1071C000003504F12000E6E701720D00D1710D00D9
:1071D00013B5044601F0C4F9236BC01A064B98425C
:1071E00008D9064B00936946002304F1200001935F
:1071F000FFF7ECFE02B010BDDF930400B1700D008C
:10720000F7B5044601F0ACF9236BC01A42F20F73D4
:1072100098421ED901F0A4F994F8365020635DB16C
:10722000184A0023CDE9002384F83630694604F17A
:107230002000FFF7CBFE0CE0D4E9022313430AD170
:10724000A36A33B104F12001032208469847C4E938
:107250000A5503B0F0BD02F0E9FF0028F9D06368D9
:10726000D4E902679B68F61847EBE37702F0FBFF6F
:10727000C117864277EB0103EBDA024BCDE900350B
:10728000D4E700BF89720D0030B590F834508BB050
:1072900004466DBB0C200495FCF7FDFE18B11A4B9B
:1072A0008460C0E90035194B0290059302A9184B80
:1072B000049306A8FFF7A8FB089B83B11020FCF7F6
:1072C000EAFE054658B106A9FFF79EFB0023CDE96B
:1072D00000331049104801232A4601F057FB06A845
:1072E000FCF7D3FF02A8FCF7D0FF012384F8343069
:1072F0000A4B069306A9002304F120000793FFF729
:1073000065FE0BB030BD00BFF96D0D008D6E0D0038
:107310004F6E0D00AB8C0D0088DE0D00B1700D00BE
:10732000014B00221A707047FCE50320034BC16239
:10733000002280ED0E0BC0E91C2370470000A04026
:107340002DE9F74FDFF8C8B00191044600254FF052
:10735000000A019B9D422FD0A08D03F05BFAD4E977
:107360001C89E06403F032FD42464B4606460F4658
:1073700003F0DEFB52465B4603F092FD42464B466D
:1073800003F0D8FB02460B46C4E91C2330463946BD
:1073900003F0CEFB02460B46C4E9182303F080FD40
:1073A00002460B46C4E92423D4E9260103F0C2FBBC
:1073B0000135C4E92601CCE713A3D3E90023D4E9BE
:1073C0000E0103F06DFD064628460F4603F0EEFC65
:1073D00002460B46D4E9260103F08CFE41EC100B6B
:1073E00003F07EFA32463B4651EC100B03F058FD99
:1073F00041EC100B00220023C4E90801C4E9262354
:1074000003B0BDE8F08F00BF6666666666664A3FF9
:107410000000303F704710B51021044603F057FAC2
:10742000204610BD0368C9B29B68184730B5034DAC
:10743000C0E90223C0E9005130BD00BFFCDE0D00F1
:10744000406801F025BF10B50446006801F063FFF5
:10745000204610BD2DE9F0418AB0044640680190F5
:1074600001F050FF1E22002102A8A76804F0CCF80A
:107470000026EFB123681E2FB84628BF4FF01E0824
:10748000DD6802AA434631462046A847054658B95A
:107490000A480B493246FCF77BFF01A8FFF7D3FFF0
:1074A00028460AB0BDE8F081A7EB08074644E0E7AC
:1074B00001A8FFF7C8FF0125F2E700BF18E6032087
:1074C000C8DE0D002DE9F7430446406801900D46E3
:1074D00016461F4601F016FFA7B1E168606841F04B
:1074E000500101F008FF290A6068FFF79BFF294659
:1074F0006068FFF797FF6068002101F0FFFE48B168
:10750000002400E0012401A8FFF79DFF204603B0FE
:10751000BDE8F083202F217B6068B84628BF4FF07C
:1075200020080123424641F0500101F0CEFE03F055
:10753000A1F903681B6998474045E1DB06EB0809A0
:1075400003F098F903685B69984706F8010B4E450C
:10755000F6D14544A7EB0807BEE72DE9F74F0446EF
:10756000406801900E4690461D4601F0CBFE4FF05C
:107570000109B9F1000F2AD04DB3E168606841F00C
:10758000500101F0B8FE310A6068FFF74BFF6068F8
:107590003146FFF747FFA5F11E0A4746A6EB080B49
:1075A000606817F8011B0368013D9B6898475545C3
:1075B0000BEB0706B84601D0002DF1D16068012120
:1075C00001F09CFE0028D7D04FF00009D1E701A8B8
:1075D000FFF739FF484603B0BDE8F08F2DE9F043CF
:1075E0008BB00E4615468046406801901C4601F05F
:1075F00089FEAE4229D2264425448CB11E2C274652
:10760000D8F8003028BF1E27F61BD3F8089002AA2E
:107610003B4631464046ED1BC84748B9002400E0D0
:10762000012401A8FFF70FFF20460BB0BDE8F0834F
:10763000D8F8003002AAD3F80C9029463B464046C1
:10764000C8470028EAD0E41BD7E7E9D9002CE7D0E7
:10765000D8F800301E2C274628BF1E27D3F80890E4
:1076600002AA3B4631464046C8470028D6D0D8F843
:10767000003002AAD3F80C9029463B464046C84742
:107680000028CBD03E443D44E41BDFE74020704758
:107690000020704780207047FF2070477047704778
:1076A0007047704710B51421044603F010F92046C6
:1076B00010BD10B50821044603F009F9204610BD9D
:1076C00010B50821044603F002F9204610BD10B59C
:1076D0001C21044603F0FBF8204610BD2DE9FF41B4
:1076E0000368DB680446984710220146684603F0A9
:1076F0008BFF236820469B6898470025074628464D
:10770000BD420ED27E1B2368102E28BF1026D3F850
:1077100018806A46334629462046C04708B135449A
:10772000EEE704B0BDE8F0814FF48073438140F28E
:107730000113C360002303827047000008B5064BA5
:107740000360064B436040F20473038100234374DB
:10775000FFF7EAFF08BD00BFDCDF0D0000010203F8
:1077600003090A2200F00F0002FB0300704708B56E
:10777000807AFFF7F5FF00F5FA6008BDC07A00F0E7
:107780001F00FFF7EDBF007B00F03F00FFF7E8BFF1
:1077900008B5817B4A060DD501F01F00FFF7E0FF19
:1077A0008B0603D50C2800D00C3008BD0C2808BF70
:1077B0000020FAE7BDE8084001F03F00FFF7D0BF26
:1077C000C07B00F07F00FFF7CBBF007C00F07F00A4
:1077D000FFF7C6BF10B58AB024220446002101A8D5
:1077E00003F012FF2046FFF7C2FFA0F26C70069074
:1077F0002046FFF7C3FF013805902046FFF7C3FF7F
:1078000004902046FFF7C4FF03902046FFF7D8FFFF
:1078100002902046FFF7D9FF019001A801F0AEF9D0
:107820000AB010BD0A2190FBF1F292FBF1F301FBCB
:1078300013231B01DBB201FB12001843C0B27047D7
:10784000642310B5044691FBF3F000FB1310FFF71F
:10785000E9FFA07210BD10B504460846FFF7E2FF2D
:10786000E07210BD10B504460846FFF7DBFF237B2E
:1078700023F03F031843207310BD10B50446481C85
:10788000FFF7D0FF637B23F007031843607310BD3D
:1078900010B504460846FFF7C5FFA07310BD10B52C
:1078A00004460846FFF7BEFFE07310BD10B504465E
:1078B0000846FFF7B7FF237C23F07F0318432074AB
:1078C00010BD37B504466846CDE9002303F062FEDB
:1078D000054641692046FFF7B3FF2969204601317B
:1078E000FFF7B9FFE9682046FFF7BCFFA96920460A
:1078F000FFF7C3FFA9682046FFF7CAFF6968204663
:10790000FFF7CDFF29683B29A8BF3B212046FFF7A1
:10791000CDFF03B030BD0000054A0061C0E9002181
:10792000044A8260044AC260044A8061426170472E
:1079300010E00D0000000103B8DF0D00ECDF0D00CA
:107940002DE9F84F04460F469046994600260A9BBB
:107950009E4231D26068394601F0C9FC08EB06014D
:107960006068FFF75FFD6068002101F0C7FC054615
:10797000D0B90A9B60689A1B202A4FF0010328BFE8
:107980002022394601F0A1FC09EB060B05460BEB62
:10799000000ADA4506D0606803685B6998470BF80F
:1079A000010BF6E72E44D2E7024604490448FCF7EF
:1079B000EFFC2846BDE8F88F0025FAE710DF0D0040
:1079C00004E603202DE9F34101EB03081E4603689A
:1079D0009B6805460C461746984780450DD82034CD
:1079E000686800963B46E2B26F21FFF7A9FFB0FA44
:1079F00080F0400902B0BDE8F0810020FAE72DE9EF
:107A0000F34101EB03081E4603689B6804460D46DC
:107A10001746984780450CD8606800963B46EAB206
:107A20005721FFF78DFFB0FA80F0400902B0BDE8A2
:107A3000F0810020FAE77FB51E1E0CBF0723062346
:107A40000093144602AB0A466F21FFF779FF054603
:107A5000A8B99DF8083023749DF80930E3739DF8A8
:107A60000A30A3739DF80B3063739DF80C302373B9
:107A70009DF80D30E3722EB99DF80E30A3722846A2
:107A800004B070BD02F00CFCFFF7CCFEA072F6E76C
:107A90001FB501230A4600936F2103ABFFF750FF88
:107AA00020B99DF80C0005B05DF804FB0020FAE752
:107AB00008B50321FFF7ECFFC0F3401008BD38B54F
:107AC00000230C460A4619460546FFF7B4FF30B9B5
:107AD000A37A23B12846BDE83840FFF7E9BF00206C
:107AE00038BD7FB5024601A8FFF728FE01A9104660
:107AF000FFF7E5FF28B101A8FFF76CFE07B05DF8BE
:107B000004FB00200146F9E7D0B5044686B0406882
:107B100001F0BEFB02F08AFBE8B9E37A9B071AD5B5
:107B20002046FFF7DEFF06460F4656EA070312D04F
:107B300002F083FA0A4B0B491B68009332463B461E
:107B400002A802F031FB0848029A0849FCF720FC21
:107B500002A802F0FBF80123237206B0D0BD00BFDB
:107B600000DD032044E6032004E603202ADF0D00A5
:107B70002DE9F84F0646884691469A4600250A9B0D
:107B80009D4229D27068414601F0B1FB706809EB53
:107B90000501FFF747FC0A9B5F1B1F2F28BF1F270C
:107BA0000AEB050407EB040B706814F8011B02686C
:107BB00092689047A345F7D17068012101F09EFBC0
:107BC000044638B1024605490548FCF7E1FB20466A
:107BD000BDE8F88F3D44D2E70024F8E73FDF0D0011
:107BE00004E603202DE9F34101EB03081E46036878
:107BF0009B6805460C461746984780450DD82034AB
:107C0000686800963B46E2B26F21FFF7B1FFB0FA19
:107C100080F0400902B0BDE8F0810020FAE71FB50E
:107C2000137C8DF80830D37B8DF80930937B8DF869
:107C30000A30537B8DF80B30137B8DF80C30D37AE0
:107C40008DF80D30937A8DF80E30072300930A4695
:107C500002AB6F21FFF78CFF05B05DF804FB10B598
:107C600088B0044603A80193FFF768FD019B03A8B1
:107C7000FFF727FE9DF81C30A27A63F07F038DF892
:107C80001C309DF819306AB143F0080303AA0021A3
:107C900020468DF81930FFF7C2FFB0FA80F0400996
:107CA00008B010BD03F0F703F0E70000F0B587B0AF
:107CB000054602F0BBFA0446E8B102F0D4FAC71751
:107CC000024606463B462846FFF7C9FF0C4B0D49C6
:107CD0001B68009332463B46044602A802F064FA51
:107CE0000948029A0949FCF753FB02A802F02EF852
:107CF000204607B0F0BD06490348FCF749FBF7E70B
:107D000000DD032044E6032004E603205ADF0D00D3
:107D100070DF0D0037B5457A04469DB902F086FA4A
:107D200080B10022002369462846CDE9002300F0F7
:107D300045FE38B1E37ADB0702D52046FFF7B6FFF0
:107D40000123637203B030BD1FB501238DF80C20F1
:107D500000930A4603AB6F21FFF70AFF05B05DF8F9
:107D600004FBF8B504460D4617461E46FFF790FE85
:107D700000EA0702324329462046BDE8F840FFF7F3
:107D8000E3BF012908B50CD800294FF0000314BF48
:107D9000DF22EF220721FFF7E4FFB0FA80F040096D
:107DA00008BD0020FCE738B504463225606857213D
:107DB00001F09DFA6068012101F0A0FA08B1013DCF
:107DC000F4D138BD2DE9F04104460F46164602EBCA
:107DD0000308B04520D06068572101F088FA394681
:107DE0006068FFF71FFB606816F8011B03689B685B
:107DF00098476068012101F081FA0137054638B1E2
:107E0000024606490648FCF7C3FA2846BDE8F08159
:107E10002046FFF7C8FFDCE70025F6E785DF0D0009
:107E200004E60320F7B5CF181E46036801929B684D
:107E300004460D46984787420AD8019A606833463F
:107E4000E9B2FFF7BFFFB0FA80F0400903B0F0BD20
:107E50000020FBE7014B024A1A60704704E603204A
:107E6000A6DF0D00012A034602D101600020704701
:107E7000022A04BFD1E90001C3E90001F6E710B509
:107E8000012303748368044643B1C0689847012303
:107E900063740020BDE8104000F032BB0068002889
:107EA000F5D083680BB902F018FDC368EEE710B493
:107EB00042680346541001EB6200D20748BF0A59DA
:107EC0001B685DF8044B48BFD35818470123F7B52A
:107ED00080F829300646083000F0EAFA0420FCF762
:107EE000DAF8054698B31B49142002F0F2FC30B1D1
:107EF0000023C0E90033C0E90233037443742860EF
:107F0000A0B1154B1549C0E902364FF40063CDE925
:107F100000030222124B043000F092FA30B92B68B1
:107F20001B7CA3B9012000F00BFBF8E72C680023B1
:107F30002B6064B1276837B13846FCF7A6F91021E9
:107F4000384602F0C4FC1421204602F0C0FC7560E3
:107F500003B0F0BD0CE30D006B810D0018E00D00C7
:107F60007F7E0D0047F23051084AC1600849026027
:107F70000022C0E904120749C16107494260C0E913
:107F800008228161028580F82A207047DCE00D001C
:107F9000D5820D00AF7E0D00657E0D0010B5044B3F
:107FA000044640F8103BFCF770F9204610BD00BFB6
:107FB000DCE00D0010B5034B03600446FFF7EEFF55
:107FC000204610BD04E10D0010B50446FFF7F2FF96
:107FD0002046382102F07BFC204610BD806800F06E
:107FE0006FBA806800F074BA10B504460068FFF7F5
:107FF000F8FF204610BD13B504460190FFF7EEFFD1
:10800000E36ADC88A4B20CB103F1080401A8FFF70D
:10801000EBFF204602B010BD13B504460190FFF7F8
:10802000DDFF94F8283043B9E26A0124D38001A827
:10803000FFF7DAFF204602B010BD0024F7E713B5C2
:1080400004460190FFF7CAFFE36A01A8DC88FFF746
:10805000CBFF204602B010BD2DE9F047994686B00F
:1080600090F829309DF838A09DF83C8004460F46D2
:10807000164613B903689B689847314B3846002E63
:1080800008BF1E4603F01BFB0546304603F017FBF6
:10809000284400F10A05AB071CBF25F00305043591
:1080A0003346CDE90285CDE9009A264926483A466D
:1080B000FCF76EF9238E083BAB4212D20024204617
:1080C00006B0BDE8F087CB88012B36D005A8FFF7B6
:1080D0008BFF236894F828109B6920469847002856
:1080E000ECD020460594FFF779FFE16A228E636B9E
:1080F0000A44D21AAA42E6D348EA0A0883F804805E
:10810000C3F80090636B03F108083946404603F05A
:10811000B1FA404603F0D3FA01303146404403F04F
:10812000A9FA636BE26A1D446563D3880133D38087
:10813000012405A8FFF758FFC1E70024F9E700BFB5
:1081400034E30D002AE00D0008E6032008B50446DC
:1081500000F11005A3690BB902F0BFFBE3692146EA
:108160002846984700F074F9F4E708B5FFF7EEFFEA
:1081700068B501F108050646284603F0A0FA01306B
:108180000544284603F09BFAF36A01302844C31AD9
:1081900013F003031CBFC3F10403C01868BDF7B597
:1081A00004460E460190FFF719FFE76AFB8807F1C6
:1081B0000805E6B1012B22D929462046FFF7D8FF52
:1081C000054629462046FFF7D3FF228E3A44121A6D
:1081D0000146A0EB050602D0284603F0FBF9636BCD
:1081E0009B1B6363FB88013BFB80012601E0002BA6
:1081F000E7D101A8FFF7F8FE304603B0F0BD002636
:10820000F7E700002DE9F0470D4604462F461646D5
:10821000FFF7A8FE154B57F8082B2360144BE562B7
:108220009A422686984617D1AB889BB2B34213D1A7
:1082300005EB060A67634FF00009EB881FFA89F225
:108240009BB29A420ED2616B2046FFF791FF5045D8
:10825000606309F10109F0D90023C5F80080676364
:10826000AE80EB802046BDE8F08700BF04E10D0042
:1082700061AB9CD110B5D1E9002386B00021044642
:1082800004910AB9D90705D5CDE902230F4B05930F
:108290000F4B049302AB93E803006A4682E80300A5
:1082A00094E8030083E8030092E80300049A84E85A
:1082B0000300A168A260059A04911846E168E26093
:1082C0000591FBF7E2FF204606B010BDAF7E0D0022
:1082D000657E0D0007B5054B0093694600231030FD
:1082E0000193FFF7C7FF03B05DF804FB1D830D008A
:1082F00013B5044600F034F9636AC01AE368984283
:1083000008D3054B00936946002304F11000019344
:10831000FFF7B0FF02B010BD1D830D002DE9F04145
:1083200090F82A3086B00446002B64D100F016FB8A
:10833000002860D000F014F9636AC01A40F2F133EB
:10834000984258D9236820465B699847054600281B
:1083500051D000F10807012384F82830384603F093
:10836000AEF995F80480CDF8048001302B682B49D4
:1083700000933E1833462A483A46FCF709F82B6822
:108380008DF800803246394602A800F08FFD029D2C
:108390006B781BB9012000F0F9FBF8E7002000F032
:1083A0007FFA20B16B7813B900F0C8FAFAE72B789E
:1083B000012B23D11B491A48FBF7EAFF2368002150
:1083C0009B6920469847002384F8283000F0C8F8BD
:1083D0006062039C7CB16368013B63605BB92368A6
:1083E00020469B689847A368013BA3601BB923689C
:1083F0002046DB68984706B0BDE8F081E2680A498C
:108400000748FBF7C5FF094B049304A9002304F1B7
:1084100010000593FFF72EFFD5E700BF6BE00D00BE
:1084200008E603208CE00D00A3E00D00F1820D00B2
:10843000014B024A1A60704708E60320CAE00D00AB
:1084400008B5024B1B685B68019308BD4802030036
:1084500008B5024B1B68DB68019308BD48020300A6
:1084600008B5024B1B68DB69019308BD4802030095
:1084700008B5024B1B681B6A019308BD4802030044
:1084800008B5024B1B685B6A019308BD48020300F4
:1084900008B5024B1B689B6A019308BD48020300A4
:1084A00008B5024B1B68DB6A019308BD4802030054
:1084B00008B5024B1B681B6B019308BD4802030003
:1084C00008B5024B1B689B6B019308BD4802030073
:1084D00008B5024B1B681B6C019308BD48020300E2
:1084E00008B5024B1B685B6C019308BD4802030092
:1084F00008B5024B1B689B6C019308BD4802030042
:1085000008B5024B1B68DB6E019308BD48020300EF
:1085100008B5024B1B681B6F019308BD480203009E
:1085200008B5024B1B685B6E019308BD3402030063
:1085300008B5024B1B685B68019308BD1802030075
:1085400008B5024B1B689B68019308BD1802030025
:1085500008B5024B1B68DB68019308BD18020300D5
:1085600008B5024B1B685B69019308BD1802030044
:1085700008B5024B1B689B6D019308BD18020300F0
:1085800008B5024B1B68DB6D019308BD18020300A0
:1085900008B5024B1B685B6E019308BD180203000F
:1085A00008B5024B1B689B6E019308BD18020300BF
:1085B00008B5024B1B685B68019308BD2C020300E1
:1085C00008B5024B1B689B68019308BD2C02030091
:1085D00008B5024B1B68DB68019308BD2C02030041
:1085E00008B5024B1B681B69019308BD2C020300F0
:1085F00008B5024B1B689B69019308BD2C02030060
:1086000008B5024B1B68DB69019308BD2C0203000F
:1086100008B5024B1B681B6B019308BD2C020300BD
:1086200008B5024B1B68DB68019308BD28020300F4
:1086300008B5024B1B689B69019308BD2802030023
:1086400008B5024B1B68DB69019308BD28020300D3
:1086500008B5024B1B681B6A019308BD2802030082
:1086600008B5024B1B685B6A019308BD2802030032
:1086700008B5024B1B689B6A019308BD28020300E2
:1086800008B5024B1B68DB6A019308BD2802030092
:1086900008B5024B1B681B6B019308BD2802030041
:1086A00008B5024B1B685B6B019308BD28020300F1
:1086B00008B5024B1B681B6C019308BD2802030020
:1086C00008B5024B1B689B6C019308BD2802030090
:1086D00008B5024B1B68DB6C019308BD2802030040
:1086E00008B5024B1B681B6D019308BD28020300EF
:1086F00008B5024B1B685B69019308BD6402030067
:1087000008B5024B1B689B68019308BD6802030013
:1087100008B5024B1B68DB68019308BD68020300C3
:1087200008B5024B1B68DB69019308BD30020300EA
:1087300008B5024B1B681B6A019308BD3002030099
:1087400008B5024B1B681B68019308BD3C0203007F
:1087500008B5024B1B68DB68019308BD3C020300AF
:1087600008B5024B1B681B69019308BD3C0203005E
:1087700008B5024B1B685B69019308BD3C0203000E
:1087800008B5024B1B689B69019308BD3C020300BE
:1087900008B5024B1B68DB69019308BD3C0203006E
:1087A00008B5024B1B681B6A019308BD3C0203001D
:1087B00008B5024B1B689B6A019308BD3C0203008D
:1087C00008B5024B1B681B68019308BD4C020300EF
:1087D00008B5024B1B681B69019308BD4C020300DE
:1087E00008B5024B1B685B69019308BD4C0203008E
:1087F00008B5024B1B689B69019308BD4C0203003E
:1088000008B5024B1B68DB69019308BD4C020300ED
:1088100008B5024B1B681B6A019308BD4C0203009C
:1088200008B5024B1B685B6B019308BD6002030037
:1088300008B5024B1B689B6B019308BD60020300E7
:1088400008B5024B1B68DB6B019308BD6002030097
:1088500008B5024B1B685B6D019308BD6002030005
:1088600008B5024B1B681B68019308BD200203007A
:1088700008B5024B1B685B68019308BD200203002A
:1088800008B5024B1B685B69019308BD2002030019
:1088900008B5024B1B68DB6A019308BD2002030088
:1088A00008B5024B1B68DB6C019308BD2002030076
:1088B00008B5024B1B685B6D019308BD20020300E5
:1088C00008B5024B1B689B6D019308BD2002030095
:1088D00008B5024B1B68DB6D019308BD2002030045
:1088E00008B5034B1B68D3F88830019308BD00001E
:1088F0002002030008B5034B1B68D3F894300193A2
:1089000008BD00002002030008B5034B1B68D3F824
:10891000AC30019308BD00002002030008B5024BF3
:108920001B681B68019308BD4402030008B5024B95
:108930001B685B68019308BD4402030008B5024B45
:108940001B689B68019308BD4402030008B5024BF5
:108950001B68DB68019308BD4402030008B5024BA5
:108960001B685B69019308BD4402030008B5024B14
:108970001B68DB69019308BD4402030008B5024B84
:108980001B681B6A019308BD4402030008B5024B33
:108990001B685B6A019308BD4402030008B5024BE3
:1089A0001B68DB6A019308BD4402030008B5024B53
:1089B0001B681B6B019308BD4402030008B5024B02
:1089C0001B685B6B019308BD4402030008B5024BB2
:1089D0001B689B6B019308BD4402030008B5024B62
:1089E0001B68DB6B019308BD4402030008B5024B12
:1089F0001B685B68019308BD4002030008B5024B89
:108A00001B689B68019308BD4002030008B5024B38
:108A10001B68DB68019308BD4002030008B5024BE8
:108A20001B681B69019308BD4002030008B5024B97
:108A30001B685B69019308BD4002030008B5024B47
:108A40001B689B69019308BD4002030008B5024BF7
:108A50001B68DB69019308BD4002030008B5024BA7
:108A60001B681B6A019308BD4002030008B5024B56
:108A70001B681B6B019308BD4002030008B5024B45
:108A80001B685B6B019308BD4002030008B5024BF5
:108A90001B681B6C019308BD4002030008B5024B24
:108AA0001B685B6C019308BD4002030008B5024BD4
:108AB0001B681B68019308BD1C02030008B5024B2C
:108AC0001B685B68019308BD1C02030008B5024BDC
:108AD0001B689B68019308BD1C02030008B5024B8C
:108AE0001B681B69019308BD1C02030008B5024BFB
:108AF0001B68DB69019308BD1C02030008B5024B2B
:108B00001B685B6A019308BD1C02030008B5024B99
:108B10001B68DB6A019308BD1C02030008B5024B09
:108B20001B681B6B019308BD1C02030008B5024BB8
:108B30001B68DB6B019308BD1C02030008B5024BE8
:108B40001B685B6C019308BD1C02030008B5024B57
:108B50001B689B6C019308BD1C02030008B5024B07
:108B60001B68DB6C019308BD1C02030008B5024BB7
:108B70001B681B6D019308BD1C02030008B5024B66
:108B80001B685B6D019308BD1C0203000021FFF709
:108B900077BE10B5836804460BB901F09EFEC3682A
:108BA0009847A3681BB103222146204698472046D8
:108BB0001021BDE8104001F08ABE10B504460068DF
:108BC00008B1FFF795FC204610BD000010B5064C1B
:108BD000002320462360FFF783FC2046034A044914
:108BE000BDE8104001F06EBE0CE60320E0DE03207D
:108BF000BB8B0D0070470020704710B51021044654
:108C000001F065FE204610BD08B5FFF7F6FF08BD70
:108C100030B500224FF69C74026084808D888C8071
:108C20000C68858004600A6030BD10B50446006899
:108C3000FFF744FF204610BD38B5C468F4B123786F
:108C4000022B03D104F10C00FFF7EFFF656835B18B
:108C50002846FBF71AFB1021284601F038FEA568CC
:108C600035B12846FBF711FB1021284601F02FFEF5
:108C700020461421BDE8384001F029BE38BD10B5AA
:108C800088B00446684601F0ACF8694604A801F0D3
:108C9000CBF804A8A047044604A801F057F868469A
:108CA00001F054F8204608B010BD07B5CDE9001218
:108CB00082680AB901F011FEC36801AA69469847A3
:108CC00003B05DF804FB1FB50023CDE9020101925A
:108CD00010241A4669461846ADF80230ADF8004037
:108CE000FFF724FE04B010BD73B50E46044656F8D7
:108CF000043B00930D4601A83146FDF7CFFE019AD3
:108D0000009B6260236001A8002301930093FDF79C
:108D10007FF83046FDF77CF82846082101F0D7FDA2
:108D2000204602B070BD826810B50AB901F0D5FDC9
:108D3000BDE81040C368184708B5006800F110018D
:108D4000FFF7F1FF08BD826810B50AB901F0C5FD53
:108D5000BDE81040C368184708B5006800F110016D
:108D6000FFF7F1FF08BD000038B50023044603609B
:108D700010200D46FBF78FF928B10123C0E901331C
:108D8000024B0360C5602060204638BD2CE10D0019
:108D900038B5002383608B6804460D462BB1022250
:108DA0009847EB68E360AB68A360204638BD0000DD
:108DB000F0B589B004686846FFF72AFF4FF0020358
:108DC000D4E84F2F002A03D1C4E8413F0029F7D14E
:108DD00025D104F10C0569462846FFF719FFBFF3BA
:108DE0005B8F01236370002004F10803BFF35B8FE6
:108DF00053E8006F43E80002002AF9D1BFF35B8F0C
:108E00006EB1FFF74DFD78B129463046FFF78BFF75
:108E10003046FBF73AFA1021304601F058FD68461B
:108E2000FFF703FF09B0F0BD314602A8FFF7B0FF1E
:108E3000E068B4F9105008B102F024FC069010204C
:108E4000ADF81C50FBF727F90546E8B1002787600D
:108E50001820FBF720F9044688B10146876002A874
:108E6000FDF76EF8049BA268A360059B049206A917
:108E7000E268E36004F110000592FFF7C9FE084BB9
:108E8000EB60084B2C60AB6006A8FFF7CEFE02A893
:108E9000FBF7FBF9002229460348FFF709FDB7E776
:108EA000398D0D00D18F0D00938B0D002DE9F0470A
:108EB0008AB005469DF848900C4617469846FFF73D
:108EC0004DFD07AE824638BB4FF62E73059005A9BF
:108ED0003046ADF81830FFF79BFE1420FBF7DBF8A7
:108EE000044648B1022303700123C0E901AA43707C
:108EF00031460C30FFF78CFE2846214640F8044BE3
:108F0000FFF732FF3046FFF790FE05A8FFF78DFE12
:108F100028460AB0BDE8F0870C234FF0000A142061
:108F2000CDE908AA0793FBF7B6F8014628B1C0E9D6
:108F300001AA80F800A080F801A004A80391FFF71F
:108F400013FF224B08930820FBF7A5F8824628B1AF
:108F5000039B40F8043B04A9FDF7A0FD00965FFACF
:108F600089F3424639462046CDF824A0FFF706FD96
:108F7000B8B9039B5B7803F0FF0293B94FF69C737B
:108F800005A903A80592ADF81830FFF711FF05A851
:108F9000FFF74BFE05A80999FFF7A6FE06A8FCF708
:108FA00037FF039B059304A906A8FDF777FD059BF2
:108FB000069A2B606A60002306A806930593FCF7C7
:108FC00027FF04A8FCF724FFA2E700BF95900D003F
:108FD000022AF8B5054607D0032A18D0012A01D184
:108FE0000B6803600020F8BD18200E68FBF753F8EB
:108FF000044650B13146FFF7CBFE3069B6F9147024
:1090000008B102F03FFB2061A7822C60EAE7046808
:10901000002CE7D004F11000FFF707FE2046FBF715
:1090200034F91821204601F052FCDBE738B5002363
:1090300083608B6804460D462BB102229847EB688B
:10904000E360AB68A360204638BD022A70B50446D1
:1090500007D0032A12D0012A01D10B680360002037
:1090600070BD14200E68FBF716F8054620B1314696
:10907000FFF7DCFF337C2B742560F0E70468002CDD
:10908000EDD02046FBF701F91421204601F01FFC2A
:10909000E5E70000F0B589B004460D4601A8114689
:1090A000FFF722FEA4B124B21DB1284602F0EAFA6D
:1090B000054601A803A90395ADF81040FFF778FE17
:1090C00003A8FFF7B2FD02A8FCF7A2FE09B0F0BDAD
:1090D000019D0123D5E84F2F002A03D1C5E8413F68
:1090E0000029F7D1EFD12B73BFF35B8F6B702B1D72
:1090F000BFF35B8F53E8006F43E80042002AF9D1C9
:10910000BFF35B8F002EDED02046FFF7C9FB07467A
:1091100060B105F10C013046FFF715FE3046FBF754
:10912000B4F81021304601F0D2FBCCE7314603A859
:10913000FFF77CFF2B7B8DF81C301020FAF7ABFF7C
:109140000546D0B187601420FAF7A5FF044678B130
:109150008760014603A8FCF7F3FE059BA268A360A5
:10916000069B0592E268E3609DF81C30069223742A
:10917000064BEB60064B2C60AB6003A8FBF785F851
:10918000002229460348FFF793FBC7E7598D0D00DE
:109190004B900D00938B0D00002240681146FFF7A5
:1091A0005DBC002240681146FFF768BC40680022A1
:1091B000FFF75CBC4068002281F00101FFF746BC6C
:1091C000002340681A461946FFF738BC0023406860
:1091D0001A461946FFF72ABC002240681146FFF7DD
:1091E0001DBC002240681146FFF708BC4068002201
:1091F0000221FFF70BBC002340681A46FFF7F6BBBD
:10920000024B03225A60024A1A60704710E603209C
:1092100048E10D007047F8B5064615460C468F1814
:10922000BC4206D0336814F8011B9B68304698474F
:10923000F6E72846F8BD007C0022FFF709BA007C5B
:109240000021FFF70DBA007C0021FFF711BA007C66
:109250000021FFF715BA007C0021FFF719BA10B5FD
:109260001421044601F033FB204610BD10B54FF425
:109270007A73044608460021C4E90113034B2360B6
:1092800020741146FFF714FA204610BD84E10D004A
:109290000023007C1A461946FFF7C2B97FB50022A9
:1092A0001423CDE90122ADF804300B788DF8083095
:1092B0004B680393CB680493007C0B7A059301A958
:1092C000FFF70EFA07B05DF804FB1FB5003B8DF801
:1092D00000104FF06401039118BF01236946019209
:1092E0008DF80830FFF7DAFF05B05DF804FB007C6D
:1092F0000022FFF79DB9C9B2FFF7F9BF007C002239
:10930000FFF79EB908B50021007CFFF7D9F9B0FA44
:1093100080F0400908BD08B50021007CFFF7D8F9AE
:10932000B0FA80F0400908BD004700002DE9FF4178
:1093300000241D460F4690460646FFF761F9A542F8
:109340004FF00403ADF80D408DF80C308DF80F4050
:10935000A2BF9DF828308DF80E3003AC0749009469
:1093600043463A463046A8BF8DF80D50FFF740F906
:10937000B0FA80F0400904B0BDE8F08129930D00F7
:10938000704710B51821044601F0A1FA204610BD1F
:10939000F0B5037D062B8DB00E4600F104074FF0AB
:1093A000000412D000F1080515F8011D0A2230460C
:1093B00000F08FFCAF42044419D0002CF4D02E21D1
:1093C000304600F083FC0444EEE72F236A4639461A
:1093D0000A208DF80040FFF78BF9684602F06FF91C
:1093E00033680246DB6869463046984704462046A3
:1093F0000DB0F0BD10B5054B0446112240F8043BFA
:10940000002102F001F9204610BD00BFACE10D00C3
:109410000346074A10B543F8042B01F1100251F836
:10942000044B43F8044B9142F9D10A781A7010BDED
:10943000ACE10D0010B59DF8084044EA032343EA6F
:10944000024242EA016104234160037510BD00003D
:1094500013B5054B0360CB7800938B784A78097875
:10946000FFF7E8FF02B010BDACE10D0000F1100302
:10947000012213F8101C0129184608D153F8041CC6
:1094800002EB4102013A03F11003F2D170470229C5
:1094900004BF53F8041C5218F4E7704770470020CB
:1094A000704710B51421044601F011FA204610BD92
:1094B00010B51021044601F00AFA204610BD08B587
:1094C000FFF7F6FF08BD10B5C4687CB1206808B18D
:1094D000FAF7E7FD237A1BB1606808B1FAF7E1FDFE
:1094E00020460C21BDE8104001F0F1B910BD38B59F
:1094F0001546D0E903239342044607D2D21A806866
:10950000AA4228BF2A46184402F056F822692A4483
:10951000226138BD0EB417B505AB044653F8042BD1
:10952000E1680193036980688B4238BFC91A184407
:1095300028BF0021019BFFF7E1FA2369184420614D
:1095400003B0BDE8104003B0704710B5036804468F
:109550009B689847A368013BA3602BB9236820460A
:10956000DB68BDE81040184710BD07B503688DF8EB
:1095700007109B6801220DF10701984703B05DF8C1
:1095800004FB38B50B6803604D6843689D42044690
:109590000CD015B16B6801336B60606828B143680B
:1095A000013B43600BB9FFF7D0FF6560204638BD33
:1095B0000B461146002210B5C0E900220446836024
:1095C0000BB9204610BDFFF7DCFFFAE78368EBB16B
:1095D0001A78032A1AD8DFE802F00417021B0520C4
:1095E000704702685B685268D05C2D2812D0A0F1E9
:1095F0003003092B0ED974280ED066280CD0A0F1A8
:109600006E0358425841704706207047002070474B
:109610000420704703207047022070472DE9F0476F
:1096200086B00746884602A80021002499461023E8
:1096300092460293FFF7FCF8CDE9004423464246E8
:10964000394602A8FFF7FCF8061E1EDD104930015E
:1096500001F041F9054690B1214602A8FFF7E8F86C
:10966000CDE900642B464246394602A8FFF7E8F8E8
:10967000A04207DDCAF800500120C9F8006006B01A
:10968000BDE8F0872846FAF70CFD2046F7E700BF53
:109690000CE30D002DE9F84F436886680B448846BB
:1096A0000E4407461C4619464FF00D094FF0090AB3
:1096B000B44263D0254615F8012B5C2A2BD1A14278
:1096C00007D0A4EB010B18465A4601F083FF03466E
:1096D0005B44B54239D06278752A2AD1A21CB21AED
:1096E000032A32DDA01D04F1050E4FF0000CAE453B
:1096F00053D015F8011FA1F130025FFA82FBBBF1D4
:10970000090F05D9A1F16102052A07D8A1F1570275
:1097100042EA0C1CEBE728460446C9E7A1F14102E6
:10972000052A12D8A1F13702F2E703F801CB01466E
:10973000F2E76E2A1CD00ED8622A13D007D82F2A3F
:1097400011D05C2A0FD0222A0DD0002023E0662AF7
:10975000FBD10C2207E0722A0DD0742AF5D183F8D0
:1097600000A001E008221A70A11C01330846D3E7CB
:109770004FF00A02F7E783F80090F5E7A14206D020
:10978000641A1846224601F025FF03462344A3EB42
:109790000803BB600120BDE8F88FBCF17F0FC4D97E
:1097A0002146B9E7F8B50446154600EB0116002737
:1097B000B44210D02378032B08D129462046FFF766
:1097C00069FF48B1A368EF541034F1E7002BFBD1D7
:1097D000A268AB54F8E70120F8BD000038B50023BB
:1097E000C0E9003304460E48C4E90203A9B10B786E
:1097F000032B06D08BB9136858684B68C35C6E2B7B
:1098000007D013684D6858688B6828445B1BA060BC
:10981000E36011462046FFF7B4FE204638BD00BF86
:1098200034E30D0038B500250B46C0E90055C0E90A
:109830000255C0E90455044611464BB11A78012A75
:1098400006D103F11002DB6882604361FFF799FEE5
:10985000204638BD10B54369044663B18068E060B6
:10986000013B1030A0602061636113B1FFF7FEFD82
:10987000A060012000E0184610BD10B57D2104460F
:10988000FFF773FE01232371204610BD08B503794D
:10989000012B02D0022B04D008BD2C21FFF765FE5E
:1098A000FAE73A21FAE710B50446FFF7EFFF204642
:1098B0007B21FFF75AFE00232371204610BD0000D4
:1098C00038B504460D46FFF7E1FF23689B683DB1BC
:1098D000054904222046984701232371204638BDBC
:1098E00002490522F6E700BFC2E10D00BCE10D0010
:1098F00013B504460191FFF7C9FF2368019ADB689D
:1099000003492046984701232046237102B010BD29
:1099100068E00D00F8B5044657EC106BFFF7B6FF92
:1099200023680549DD6820463B463246A8470123A7
:1099300023712046F8BD00BFC7E10D002DE9F041BD
:109940000D4617462221DFF8A08004462F44FFF77A
:109950000CFE2946BD422A4638D015F8016B222E4E
:1099600003D05C2E01D01F2EF4D82368521A9B68B6
:10997000204698475C212046FFF7F7FD0D2E0AD8B8
:10998000072E1CD9A6F10803052B18D8DFE803F031
:109990000D0F11171315222E01D05C2E0FD1314659
:1099A0002046FFF7E2FD2946D4E76221F8E774215B
:1099B000F6E76E21F4E76621F2E77221F0E723680B
:1099C0003246DB68414620469847ECE78D4204D09A
:1099D00023686A1A9B682046984722212046FFF791
:1099E000C4FDBDE8F08100BFCAE10D0013B5044617
:1099F000CDE90021FFF74AFF2046DDE90021FFF70E
:109A00009DFF02232046237102B010BD13B504460A
:109A1000CDE90021FFF73AFF2046DDE90021FFF7FD
:109A20008DFF01232046237102B010BD38B50023FD
:109A30000446036010200D46FAF72DFB28B10123E0
:109A4000C0E90133024B0360C5602060204638BD89
:109A5000D8E10D00F0B5044687B00E460C2027492A
:109A6000154600F036FF014618B10023C0E9003367
:109A7000037203A80291FFF7D9FF029A42B9C4E921
:109A80000022A26003A8FCF7C3F9204607B0F0BD8E
:109A900000230193294601AB3046FFF7BFFD18B9FB
:109AA000C4E90000A060EDE71449029F681C00F0C3
:109AB00012FF029B786058680028F1D02A46314690
:109AC00001F07AFD029B0199186801221A725A6806
:109AD000FFF768FE0028E3D0029B19680493039BFC
