:02000002D0002C
:1040000000400D004CF50D00000006000C000501FD
:084010000401BD0B00000000DB
:0440180034D60D008D
:1040200009480A49884208B505D0094A824202D0A7
:10403000121A07F0ADFB0748074A0021121A07F0D1
:10404000CFFB014808BD00BF00DC032064F20D0077
:10405000BCDE0320C0DE0320F8E7032070B5074E66
:10406000074C06F011FCA41BA4080025A54200D1B2
:1040700070BD56F8043B98470135F7E7ECE80D00B2
:1040800020E90D0001F0E2BF08B501F003FEBDE834
:10409000084006F0BBBB04F0EDBD04F0EBBD04F03E
:1040A000F1BD04F0EFBD000008B5034A00210C206B
:1040B00004F09AFCFEE700BF19870D000078B0FA03
:1040C00080F040097047012303707047002070475B
:1040D000704700207047006970470120704700005A
:1040E000014B01221A707047EDE503200368184761
:1040F000012A03D0022A03D0002070470160FBE7A9
:104100000B680360F8E7012A08BF016000207047D0
:104110007047012A08BF01600020704702F060BCB0
:1041200008B5044905F0A8FF18B1034B03221A7023
:10413000012008BD83D60D00ADE5032010B5C2B047
:1041400000680A2201A908F07FFA431E062B0446E4
:104150002FD801280AD1184B1849187602A807F061
:1041600075FB174B1C70204642B010BD022804D1CD
:10417000114B144901245C76F0E7032804D10E4B5F
:10418000114901249C76E9E7042804D10A4B0F4920
:104190000124DC76E2E7052804D1074B0C49012411
:1041A0001C77DBE7062804D1034B0A4901245C771E
:1041B000D4E70024D7E700BFB0E5032085D60D0083
:1041C000ECE5032098D60D00ABD60D00C0D60D004F
:1041D000D4D60D00E8D60D00436913B183690C30C5
:1041E0001847704710B5034B0360044603F0BEFF49
:1041F000204610BD28DF0D0010B50446FFF7F2FF82
:104200002046382106F04FFC204610BD10B5034B68
:104210000360044603F0DAF9204610BD50DF0D00BC
:1042200010B50446FFF7F2FF2046102106F03BFCD4
:10423000204610BD13B500210446084604F0ECF9F1
:104240000023204601A9019304F0FEF9019C0CB162
:10425000012323710021012004F0DEF92CB1236831
:1042600020469B6898470023237102B010BD10B50B
:104270000446006808B104F005FD204610BD002387
:10428000042204F037BC10B58368044613B103223E
:1042900001469847204610BD37B5134B03600446CE
:1042A0008068C8B100256FF00043CDE900350221D8
:1042B0002B462A4604F0D0F9A068294604F004FAF7
:1042C000237903F0FF0513B104F09EF9F8E7A06825
:1042D000294604F0B1F9A56004F10C00FFF7D3FF03
:1042E000204603B030BD00BF14DF0D0010B50446FA
:1042F000FFF7D2FF20461C2106F0D5FB204610BD5B
:104300000246014804F0C3BD478E0D0007B50822E0
:104310000023ADF800204FF47A710122019241434D
:104320006A461846ADF8023004F034FC03B05DF87C
:1043300004FB07B580680B46002140B1CDE90021A0
:104340000A46032104F088F9B0FA80F0400903B06E
:104350005DF804FB13B504460846019107F09BFA8B
:1043600001990246204602B0BDE8104005F036BC77
:1043700013B504460846019107F08DFA01990246EB
:10438000204602B0BDE8104005F038BC0EB410B5B0
:104390008DB00FAA016852F8044B0392002320202D
:1043A000CDE90403CDE900421E2004AA04F034FB49
:1043B0000DB0BDE8104003B0704737B504689DF8F4
:1043C00018508DF800308DF80450E4683C23A04765
:1043D00003B030BDF0B50D7897B00C4625BB44490D
:1043E00006A807F033FA434B5B7A002B4ED0424EBF
:1043F0008DF8005033784149414806AAFFF7DDFFA8
:10440000204607F0A0F90A22014602A805F021FE85
:104410008DF800503378029A3A493948FFF7CDFFBA
:1044200002A805F08BFD31E0084607F08CF9C8289A
:104430002ED1304D344906A807F008FA6A7AE2B165
:104440002D4E2E492E4800278DF80070337806AA8D
:10445000FFF7B3FF204607F076F90A22014602A8CB
:1044600005F0F7FD8DF800703378029A254924484D
:10447000FFF7A3FF02A805F061FD05F0ECFF234B59
:10448000A86201221A70224B00221A7017B0F0BDE8
:10449000204607F058F9C928CBD0204607F053F939
:1044A00042F20F739842F1DC204607F04CF9194AAA
:1044B0000346402106A804F0FDFB0E4B5B7A002B5F
:1044C000E4D00D4D0D490E4800268DF800602B7884
:1044D00006AAFFF772FF204607F035F90A220146C7
:1044E00002A805F0B6FD8DF800602B7893E700BFB9
:1044F000FBD60D00B0E503200DDF032003D70D0030
:10450000BCE3032012D70D0020D70D00ECE50320FB
:1045100035DF032032D70D0037B51C49054605F0BD
:10452000ABFD044600B31A4C012360686370FFF7CB
:10453000EDFE636817484FF47A716FF000425943FB
:10454000FFF7F7FE04F0F6FA48B100238DF80030CB
:10455000114B124A1B7812491248FFF72EFF124BDB
:104560000120187003B030BD1049284605F084FDC5
:104570000028F7D0064B5C7004F0DCFA0028EED07F
:10458000054B8DF800401B78094AE4E783D60D00FF
:10459000B0E5032098E303200DDF03204FD70D0083
:1045A000DFD70D00BCE30320ECE50320C6E40D00DB
:1045B00064D70D0010B5C4B000680A2203A908F042
:1045C00043F8B0F5966F22D8124C6060FFF79EFE5C
:1045D000636811484FF47A7159436FF00042FFF756
:1045E000A8FE63680D4A4FF4807104A804F062FBD2
:1045F00000238DF800300A4B0A491B780A4804AAA8
:10460000FFF7DBFE094B0120187044B010BD0020FD
:10461000FBE700BFB0E5032098E3032078D70D0047
:104620000DDF032091D70D00BCE30320ECE5032050
:1046300000B589B0039005F049FD0E4B0399BDEE1E
:10464000C00A04A883ED080A05F0E6FC00238DF8F3
:104650000030094B049A1B7808490948FFF7ADFE62
:1046600004A805F06BFC074B0120187009B05DF839
:1046700004FB00BFB0E503200DDF03209CD70D0035
:10468000BCE30320ECE5032037B51649054605F0E9
:10469000F3FC044688B1144B144A1549154801240B
:1046A0005C7200238DF80030134B1B78FFF785FEFA
:1046B000124B20461C7003B030BD1149284605F04E
:1046C000DBFC0028F7D0084B0E4A5C720A4B8DF8D1
:1046D00000401B7806490748FFF76FFE074B012093
:1046E0001870E8E783D60D00B0E50320BED70D00B3
:1046F000DFD70D00BCE303200DDF0320ECE5032032
:10470000C6E40D00CFD70D0030B5C5B000680A2251
:1047100003A907F099FF431E062B04464FF000053E
:1047200040D8012813D1204B20491D7604A807F05A
:104730008DF81F4B8DF800501B781E491E4804AAA7
:10474000FFF73BFE1D4B1C70204645B030BD0228D4
:1047500010D1154B1A495D7604A807F077F8144B71
:104760008DF800501B781349134804AAFFF725FE63
:104770000124E7E7032803D10B4B12499D76EBE7B1
:10478000042803D1084B1049DD76E5E7052803D15D
:10479000054B0E491D77DFE7062803D1024B0C4974
:1047A0005D77D9E72C46CFE7B0E50320E4D70D00CD
:1047B0000DDF0320F8D70D00BCE30320ECE5032058
:1047C00006D80D001AD80D0030D80D0045D80D00C0
:1047D0005AD80D0000B5C5B000680A2203A907F039
:1047E00033FF042818D80D4B0D4A58634FF48071DD
:1047F000034604A804F05EFA00238DF80030094B4C
:1048000009491B78094804AAFFF7D7FD084B012086
:10481000187045B05DF804FB0020FAE7B0E503200E
:104820006ED80D000DDF0320DFD70D00BCE30320A1
:10483000ECE503201FB50A22006803A907F004FF76
:10484000012804464FF0000311D18DF80030094BC8
:10485000094A1B7809490A48FFF7AFFD41F2883041
:1048600004F078FA05F07CFC204604B010BD1C462C
:10487000FAE700BF0DDF032080D80D0051DD0D00E9
:10488000BCE3032007B504F055F948B100238DF8C7
:1048900000300E4B0E4A1B780E490F48FFF78DFD76
:1048A0000E4A0F487823536040F20113138000230F
:1048B000537293724FF41673136201213C235163B8
:1048C00003B05DF804EB02F024BF00BF0DDF03204E
:1048D00095D80D00DFD70D00BCE30320B0E5032021
:1048E00088E3032007B504F025F948B100238DF8CB
:1048F00000300B4B0B4A1B780B490C48FFF75DFD52
:104900000B4A0C4B0C48136053609360D3601361E7
:104910005361A021182303B05DF804EB02F0F9BE47
:104920000DDF0320ADD80D00DFD70D00BCE3032061
:1049300014E40320CDCCB54288E3032010B5154C18
:10494000237A012B04D904F0F5F800B30123237274
:104950006368114AB3F5966F84BF4FF416736360B2
:10496000637A012B84BF01236372A37A012B84BF76
:104970000023A3726369FF2B84BF00236361636B11
:10498000052B4FF00103137088BF636310BD2072C5
:10499000DEE700BFB0E50320ECE50320334BD3EDA9
:1049A000007AF5EEC07AF1EE10FA06D49FED307A77
:1049B000F4EEC77AF1EE10FA01DD2E4A1A60D3ED5B
:1049C000017AF5EEC07AF1EE10FA06D49FED287A5E
:1049D000F4EEC77AF1EE10FA01DD264A5A60D3ED03
:1049E000027AF5EEC07AF1EE10FA06D49FED207A45
:1049F000F4EEC77AF1EE10FA01DD1E4A9A60D3EDAB
:104A0000037AF5EEC07AF1EE10FA06D49FED187A2B
:104A1000F4EEC77AF1EE10FA01DD164ADA60D3ED52
:104A2000047AF5EEC07AF1EE10FA06D49FED107A12
:104A3000F4EEC77AF1EE10FA01DD0E4A1A61D3EDF9
:104A4000057AF5EEC07AF1EE10FA06D49FED087AF9
:104A5000F4EEC77AF1EE10FA01DD064A5A61034A14
:104A600005481823A02102F054BE00BF14E403201F
:104A700000803B45ECD1B54288E3032007B5012116
:104A8000052005F09AFF0021052005F096FF094A50
:104A900000231370084A527A42B18DF80030074B58
:104AA000074A1B7807490848FFF787FC03B05DF801
:104AB00004FB00BFEDE50320B0E503200DDF03207C
:104AC000CCD80D00D3D80D00BCE3032000000000BB
:104AD0002DE9F0472DED088BCCB00CAD4FF4807470
:104AE00003A804F02FF83B4E22460021284606F08A
:104AF00077FE0023384A8DF8203007A8CDE9095405
:104B00000B93079204F0C7FF736B344C012B3546AF
:104B100074D1337E63B1324907A8FFF71BFC064608
:104B2000E06806F051FA41EC100B304604F0EAFF61
:104B30006B7E63B12B4907A8FFF70CFC0646206982
:104B400006F042FA41EC100B304604F0DBFFAB7E7E
:104B500063B1254907A8FFF7FDFB0646606906F02B
:104B600033FA41EC100B304604F0CCFFEB7E63B11E
:104B70001E4907A8FFF7EEFB0646A06906F024FAD7
:104B800041EC100B304604F0BDFF2B7F63B1184998
:104B900007A8FFF7DFFB0646E06906F015FA41ECCF
:104BA000100B304604F0AEFF6B7F63B1114907A8CC
:104BB000FFF7D0FB0646206A06F006FA41EC100B20
:104BC000304604F09FFF0C4907A8FFF7C3FB696B51
:104BD0006CE000BFB0E5032000E50D002CE40320ED
:104BE000DCD80D00E6D80D00F0D80D00FCD80D0083
:104BF00007D90D0012D90D00DFD70D00022B40F0B0
:104C00003581CB4907A8FFF7A5FB0546606D06F087
:104C1000DBF941EC100B284604F074FFC54907A8E6
:104C2000FFF798FB0546A06D06F0CEF941EC100B9E
:104C3000284604F067FFC04907A8FFF78BFB05462D
:104C4000E06D06F0C1F941EC100B284604F05AFF64
:104C5000BA4907A8FFF77EFB0546E06F06F0B4F9F6
:104C600041EC100B284604F04DFFB54907A8FFF7AB
:104C700071FB0546D4F8800006F0A6F941EC100B54
:104C8000284604F03FFFAF4907A8FFF763FB05463E
:104C9000D4F8840006F098F941EC100B284604F093
:104CA00031FFA94907A8FFF755FB716B04F018FF06
:104CB00007A804F0DAFE00238DF80030A34BDFF8DC
:104CC000A8A21B78A249A3480CAAFFF776FBDAF842
:104CD0000C0006F079F992A3D3E9002380468946B7
:104CE00006F0CAF906F098FCCAF83C00DAF81000A1
:104CF00006F06AF902460B4643EC182B88A3D3E969
:104D0000002306F0B9F906F087FCCAF84000DAF88B
:104D1000140006F059F902460B4643EC192B80A308
:104D2000D3E9002306F0A8F906F076FCCAF844009F
:104D3000DAF8180006F048F902460B4643EC1A2B45
:104D400077A3D3E9002306F097F906F065FCCAF8CB
:104D50004800DAF81C0006F037F902460B4643EC2F
:104D60001B2B6FA3D3E9002306F086F906F054FC51
:104D7000CAF84C00DAF8200006F026F968A3D3E957
:104D8000002306460F4606F077F906F045FCCAF800
:104D90005000DAF8540006F017F961A3D3E90023B4
:104DA00004460D4606F068F906F036FC5EA3D3E92A
:104DB0000023CAF870004946404606F05DF906F047
:104DC0002BFC59A3D3E90023CAF8240051EC180B9B
:104DD00006F052F906F020FC53A3D3E90023CAF8E9
:104DE000280051EC190B06F047F906F015FC4EA30C
:104DF000D3E90023CAF82C0051EC1A0B06F03CF959
:104E000006F00AFC48A3D3E90023CAF8300051ECAD
:104E10001B0B06F031F906F0FFFB43A3D3E9002397
:104E2000CAF834003946304606F026F906F0F4FB9D
:104E30003DA3D3E90023CAF838002946204606F0EE
:104E40001BF906F0E9FBCAF86C0003F06DFC424B5D
:104E5000424A186001231370414A03A8137005F0F9
:104E60006DF84CB0BDEC088BBDE8F087032B20D16A
:104E70002F4907A8FFF76EFA0646606D06F0A4F802
:104E800041EC100B304604F03DFE2A4907A8FFF71D
:104E900061FA0646A06D06F097F841EC100B30461B
:104EA00004F030FE244907A8FFF754FA0646E06DE7
:104EB00055E6042B7FF4FCAE1D4907A8FFF74AFA1C
:104EC0000646D4F8940006F07FF841EC100B30460B
:104ED00004F018FE174907A8FFF73CFA0646D4F875
:104EE000980006F071F841EC100B304604F00AFE11
:104EF000114907A8FFF72EFA0646D4F89C0006F0E1
:104F000063F841EC100B304604F0FCFD154907A88E
:104F1000FFF720FA0646D4F8A0002FE6AFF3008092
:104F2000333333333333E33F666666666666F63F94
:104F30001CD90D0027D90D0032D90D003DD90D0027
:104F400048D90D0053D90D00DFD70D000DDF032028
:104F500069D90D00BCE30320F0E5032035DF032011
:104F6000ECE403205ED90D002CE4032030B5114D94
:104F7000114C12492A7820788DB01A2303FB0212B3
:104F8000009203FB00130E4A282102A803F092FEB0
:104F90002B78237003F0CEFD48B100238DF800304C
:104FA000084B09491B78094802AAFFF706FA0DB019
:104FB00030BD00BFADE50320B8E3032010DC0320C3
:104FC0007ED90D000DDF03208CD90D00BCE303203A
:104FD00030B50D4D0FCD89B001AC0FC495E8070079
:104FE0000A4B84E807001B7C094808AA02EB8303EC
:104FF000102153F81C3C074A03F05CFE064B0122CB
:105000001A7009B030BD00BFB8DF0D00B0E5032055
:1050100014DF032048E20D00ECE503202DE9F04FFA
:105020004FEA800909F1070483B004F4FF6402AF7A
:10503000ADEB040D02ADAC464FF0000E4CF804EBA6
:10504000023800282ADADFF868B0DFF868A00C46DA
:1050500090461E46A9444D4524D0D4E902018DE86E
:105060000300584694E80C0001F07AFB51EC100B59
:1050700006F0D2FA48F8040B45F8040B05F0A4FF3B
:10508000DAE9002305F0F8FF084B002206F01EF9CC
:1050900006F0C2FA103446F8040BDCE74CF804EBD7
:1050A0000138CEE70437BD46BDE8F08F00408F40A1
:1050B000C8DE032008DC03202DE9F0472DED068B28
:1050C0008A4C8B4B206893F800A0A8B0CDF800A0C4
:1050D00005F07AFF874B41EC1A0B93F80090CDF85E
:1050E0001090CDE90201606805F06EFF824B41EC43
:1050F000190B93F80080CDF82080CDE90601A06857
:1051000005F062FF7D4B41EC180B1D780C95CDE945
:105110000A01E06805F058FF794B06461B782069C4
:1051200010930F46CDE90E6705F04EFF754BCDE9A4
:1051300012011B786069149305F046FF724C2495A8
:10514000724DCDF860A00023CDE916018DED1AABAC
:105150008DED1E9B8DED228BCDE92667CDF87090ED
:10516000CDF8808084F8BC30FFF732FF686B0128EF
:1051700048D12B7E4BB166484FF4B96102F0BCF9BF
:1051800051EC100B06F048FAE0606B7E4BB16148C1
:105190004FF4B96102F0B0F951EC100B06F03CFA93
:1051A0002061AB7E4BB15C484FF4B96102F0A4F9C9
:1051B00051EC100B06F030FA6061EB7E4BB15748B2
:1051C0004FF4B96102F098F951EC100B06F024FA93
:1051D000A0612B7F4BB152484FF4B96102F08CF9BA
:1051E00051EC100B06F018FAE0616B7FE3B14D480B
:1051F0004FF4B96102F080F951EC100B06F00CFA93
:10520000206211E002283AD104F1600304F1540253
:1052100069460320FFF702FF04F1880304F17C02D2
:105220000CA90320FFF7FAFE3F4E012232706A7E7E
:10523000002A7BD0D4ED047AB7EE007AF4EEC77A78
:10524000F1EE10FA72DD94ED107AF4EEC77AF1EE19
:1052500010FA06D494ED0A7AF4EEC77AF1EE10FA59
:1052600064DD012584F8BC5005F0F5F83570C4F80C
:10527000B400284628B0BDEC068BBDE8F0870328B3
:1052800027D104F1600304F154026946FFF7C6FE1A
:10529000EB7EDBB121484FF4B96102F02DF951ECFE
:1052A000100B06F0B9F9A0612B7FE3B11C484FF455
:1052B000B96102F021F951EC100B06F0ADF9E06193
:1052C0006B7F002B93D100232362ADE70023A36102
:1052D000EAE70428A8D104F1A40304F1940218A970
:1052E000FFF79CFEE0E70023E361E9E714E4032015
:1052F00000DC032001DC032002DC032003DC0320AC
:1053000004DC032005DC03202CE40320B0E50320AB
:1053100038DF0320F0DF0320A8E0032060E1032052
:1053200018E20320D0E20320ECE403202B7EB3B18B
:10533000D4ED037AB7EE007AF4EEC77AF1EE10FA04
:105340000DDD94ED0F7AF4EEC77AF1EE10FA88D401
:1053500094ED097AF4EEC77AF1EE10FA81DCAB7EB7
:10536000C3B1D4ED057AB7EE007AF4EEC77AF1EE68
:1053700010FA0FDD94ED117AF4EEC77AF1EE10FA1F
:105380003FF56FAF94ED0B7AF4EEC77AF1EE10FAB9
:105390003FF767AFEB7EC3B1D4ED067AB7EE007A84
:1053A000F4EEC77AF1EE10FA0FDD94ED127AF4EE16
:1053B000C77AF1EE10FA3FF554AF94ED0C7AF4EEA3
:1053C000C77AF1EE10FA3FF74CAF2B7FC3B1D4EDA3
:1053D000077AB7EE007AF4EEC77AF1EE10FA0FDD35
:1053E00094ED137AF4EEC77AF1EE10FA3FF539AF87
:1053F00094ED0D7AF4EEC77AF1EE10FA3FF731AF83
:105400006B7FC3B1D4ED087AB7EE007AF4EEC77AB9
:10541000F1EE10FA0FDD94ED147AF4EEC77AF1EEA6
:1054200010FA3FF51EAF94ED0E7AF4EEC77AF1EE66
:1054300010FA3FF716AF6B6B023B012B18D8D4ED77
:10544000157AB7EE007AF4EEC77AF1EE10FA0FDDB6
:1054500094ED1C7AF4EEC77AF1EE10FA3FF501AF45
:1054600094ED1B7AF4EEC77AF1EE10FA3FF7F9AE3D
:105470000020FFE610B5204C206805F0A5FD1F4B6D
:1054800041EC100B19781E4802F02CF8606805F00A
:105490009BFD1C4B41EC100B19781B4802F022F8C5
:1054A000A06805F091FD194B41EC100B19781848D4
:1054B00002F018F8E06805F087FD164B41EC100B80
:1054C0001978154802F00EF8206905F07DFD134BA0
:1054D00041EC100B1978124802F004F8606905F0ED
:1054E00073FD104B41EC100B19780F4801F0FAFFD7
:1054F0000E4B01221A7010BD14E4032000DC0320BF
:1055000038DF032001DC0320F0DF032002DC03206E
:10551000A8E0032003DC032060E1032004DC032077
:1055200018E2032005DC0320D0E2032034DF03204F
:1055300013B5224C206805F047FD214ACDE9000152
:105540002021204803F0B6FB606805F03DFD1E4AAF
:10555000CDE9000120211D4803F0ACFBA06805F057
:1055600033FD1B4ACDE9000120211A4803F0A2FBBC
:10557000E06805F029FD184ACDE90001202117480F
:1055800003F098FB206905F01FFD154ACDE90001E5
:105590002021144803F08EFB606905F015FD124AC6
:1055A000CDE900012021114803F084FBFFF762FFE1
:1055B0000F4B01221A7002B010BD00BF14E403208B
:1055C0009DD90D002DE50320ABD90D008DE50320FD
:1055D000B8D90D006DE50320C8D90D000DE50320F5
:1055E000E5D90D00EDE4032002DA0D004DE50320BE
:1055F00034DF032000B589B0039004F067FD0D4B44
:10560000039983ED000A04A804F006FD00238DF839
:105610000030094B049A1B7808490948FEF7CDFE73
:1056200004A804F08BFCFFF783FF012009B05DF8AC
:1056300004FB00BF14E403200DDF03201EDA0D007D
:10564000BCE3032000B589B0039004F03FFD0D4B8F
:10565000039983ED010A04A804F0DEFC00238DF811
:105660000030094B049A1B7808490948FEF7A5FE4B
:1056700004A804F063FCFFF75BFF012009B05DF8AC
:1056800004FB00BF14E403200DDF032039DA0D0012
:10569000BCE3032000B589B0039004F017FD0D4B67
:1056A000039983ED020A04A804F0B6FC00238DF8E8
:1056B0000030094B049A1B7808490948FEF77DFE23
:1056C00004A804F03BFCFFF733FF012009B05DF8AC
:1056D00004FB00BF14E403200DDF032054DA0D00A7
:1056E000BCE3032000B589B0039004F0EFFC0D4B40
:1056F000039983ED030A04A804F08EFC00238DF8BF
:105700000030094B049A1B7808490948FEF755FEFA
:1057100004A804F013FCFFF70BFF012009B05DF8AB
:1057200004FB00BF14E403200DDF032071DA0D0039
:10573000BCE3032000B589B0039004F0C7FC0D4B17
:10574000039983ED040A04A804F066FC00238DF895
:105750000030094B049A1B7808490948FEF72DFED2
:1057600004A804F0EBFBFFF7E3FE012009B05DF8AD
:1057700004FB00BF14E403200DDF03208DDA0D00CD
:10578000BCE3032000B589B0039004F09FFC0D4BEF
:10579000039983ED050A04A804F03EFC00238DF86C
:1057A0000030094B049A1B7808490948FEF705FEAA
:1057B00004A804F0C3FBFFF7BBFE012009B05DF8AD
:1057C00004FB00BF14E403200DDF0320A9DA0D0061
:1057D000BCE30320F0B5ADF50D7D4FF400740CAEC5
:1057E00022460021304605F0FBFF0023A74A8DF832
:1057F000203007A807920B93CDE9096404F04BF918
:10580000A34907A8FEF7A6FD044601F07DFC416808
:10581000002900F095800C312046FEF7A9FD9D4936
:105820009D4C07A8FEF796FD9C49FEF7A1FD9C49FB
:1058300007A8FEF78FFD616B05460A2203A804F056
:1058400008FC059A0399284604F0D8F903A804F047
:1058500075FB944907A8FEF77DFD07A804F01BF926
:10586000636B012B6ED19049904D07A8FEF772FD36
:10587000217E04F01DF98E4907A8FEF76BFD07464F
:10588000286805F0A1FB41EC100B384604F03AF90A
:10589000884907A8FEF75EFD617E04F009F9864994
:1058A00007A8FEF757FD0746686805F08DFB41EC39
:1058B000100B384604F026F9804907A8FEF74AFD88
:1058C000A17E04F0F5F87E4907A8FEF743FD0746E0
:1058D000A86805F079FB41EC100B384604F012F98A
:1058E000784907A8FEF736FDE17E04F0E1F8764935
:1058F00007A8FEF72FFD0746E86805F065FB41ECB9
:10590000100B384604F0FEF8704907A8FEF722FD98
:10591000217F04F0CDF86E4907A8FEF71BFD07466E
:10592000286905F051FB41EC100B384604F0EAF809
:10593000684907A8FEF70EFD617F04F0B9F870E032
:10594000654969E7022B40F0D7805749574D07A8B2
:10595000FEF700FD012104F0C3F8554907A8FEF742
:10596000F9FC0746286805F02FFB41EC100B384680
:1059700004F0C8F84F4907A8FEF7ECFC012104F039
:10598000AFF84D4907A8FEF7E5FC0746686805F043
:105990001BFB41EC100B384604F0B4F8474907A84C
:1059A000FEF7D8FC012104F09BF8454907A8FEF753
:1059B000D1FC0746A86805F007FB41EC100B384600
:1059C00004F0A0F83F4907A8FEF7C4FC012104F049
:1059D00087F83D4907A8FEF7BDFC0746E86805F0D3
:1059E000F3FA41EC100B384604F08CF8374907A85D
:1059F000FEF7B0FC012104F073F8354907A8FEF763
:105A0000A9FC0746286905F0DFFA41EC100B38467F
:105A100004F078F82F4907A8FEF79CFC012104F058
:105A20005FF82E4907A8FEF795FC0746686905F060
:105A3000CBFA41EC100B384604F064F807A804F0E8
:105A400014F8274907A8FEF785FC617804F030F8C0
:105A5000244907A8FEF77EFC616804F041F822495A
:105A600007A8FEF777FC216A04F03AF807A803F0CC
:105A7000FCFF00238DF800301C4B1D491B781D488E
:105A80003246FEF79AFC0DF50D7DF0BD00E50D00E8
:105A9000C4DA0D00C9DA0D00B0E5032014E00D00F2
:105AA000D1DA0D00E0DA0D00E8DA0D0014E403208D
:105AB000FBDA0D000DDB0D0020DB0D0032DB0D00ED
:105AC00047DB0D005BDB0D006FDB0D0082DB0D00A3
:105AD00096DB0D00A9DB0D0040E60D00BCDB0D00E0
:105AE000CEDB0D00DEDB0D00E8DB0D000DDF03205B
:105AF000FBDB0D00BCE30320032B9FD11849194D9C
:105B000007A8FEF727FC012103F0EAFF164907A8C2
:105B1000FEF720FC0746286805F056FA41EC100B0A
:105B2000384603F0EFFF114907A8FEF713FC0121E7
:105B300003F0D6FF0E4907A8FEF70CFC074668687D
:105B400005F042FA41EC100B384603F0DBFF09493F
:105B500007A8FEF7FFFB012103F0C2FFB3E600BF79
:105B6000E8DA0D0014E40320FBDA0D000DDB0D0074
:105B700020DB0D0032DB0D0008B5044904F07CFA8F
:105B800010B1FFF727FE012008BD00BF83D60D002E
:105B900038B5046805467CB16368013B63605BB956
:105BA000236820469B689847A368013BA3601BB904
:105BB00023682046DB689847284638BD10B586B074
:105BC00000F044FF4268536803939368049313B151
:105BD000596801315960D3680B4A059303A9684697
:105BE00001F053F804A8FFF7D3FF684603F0E6FD81
:105BF000044601A8FFF7CCFF1CB904490448FEF78E
:105C0000C5FB06B010BD00BF10DC0D0016DC0D009A
:105C100018E60320FFF7D2BF1FB5094B094A1B78CE
:105C20001278094913438DF8003000223C2302A862
:105C300003F034FA03A8FFF7ABFF05B05DF804FBEF
:105C40000CDF03200DDF032024DC0D0010B50368FA
:105C500088B05B6804469847019005F01CFE0199E6
:105C6000024605A803F0EEFFDDE905120023CDE9A9
:105C70000533636803936160A368A26004A804937A
:105C8000FFF786FF079BE36006A8FFF781FF08B0D8
:105C900010BD00002DE9F047A64CDFF8F482237810
:105CA000A54F013B94B0062B1CD8DFE813F075011B
:105CB00007006A007600500022018D009F4B5B7A3E
:105CC0002BB19F4B1B78022B01D0FFF74FF904F04B
:105CD000C2FB4FF4967390FBF3F202FB13030BB974
:105CE0000523237001F010FA01F0EAF900F0AEFE8E
:105CF00000F0C7FE934802F0E9F8934B1B780BB114
:105D0000FEF7BCFE98F8003043B13C238B4A8F4825
:105D1000012101F0FEFC002388F800303B7843B1FC
:105D2000C0238B4A89484FF4007101F0F2FC002334
:105D30003B70884C23783BB11823874A8348A021C5
:105D400001F0E7FC0023237014B0BDE8F0877B4D21
:105D50006A7A2AB17A4B1B78052B01D0FFF706F936
:105D6000FFF7AAF908B10423BBE704F074FB2B6A20
:105D700090FBF3F202FB1303002B40F08B80032314
:105D8000AFE76E4B5B7A2BB16D4B1B78032B01D0C9
:105D9000FFF7ECF8FFF790F9E5E7684B5B7A2BB17A
:105DA000674B1B78042B01D0FFF7E0F804F053FB9E
:105DB0006A4B1860FEF78CFE0723237002F0BAFED0
:105DC00000288FD006238CE7DFF874915B4E99F89A
:105DD00000305F4DDFF8BCA1072B12D0604961484D
:105DE000AA68FEF7D3FA604B99F800201A700023D6
:105DF0003386FFF7BBF802F097FCCAF8000002F008
:105E000091FE02F091FCDAF80030C01A4FF47A7378
:105E1000B0FBF3F0308602F08DFE00283CD0012369
:105E200088F800303B70AB68B42B0CD0B3F5967F8C
:105E3000A2BF328EB4323286B3F5D27F02BF338E28
:105E400003F596733386B423AB6004F004FB338E02
:105E5000AA88F0629A424FF04001444A38BFAB80B2
:105E600004A802F027FF3F4804A9FEF78FFA737ACF
:105E700063B13F4B3F491B788DF8003002A83C23AB
:105E800004AA03F00BF903A8FFF782FE364B1B7838
:105E9000042B97D0022324E7328EAB689A427FF717
:105EA00021AF35492F48FEF771FA01233B7023706B
:105EB000AB68B3F5967F0FD0B3F5D27F13D0B42B78
:105EC0007FF410AF4FF49673AB602C4920232B6006
:105ED0002448FEF75BFA05E74FF4D273AB6020234A
:105EE00027492B60F4E7B423AB601F2325492B60BF
:105EF000EEE7134B244D1B78062B07D002F014FC61
:105F0000224B186001232B70FFF730F82B78002B01
:105F1000C0D002F009FC1D4B1B68C01A48F6B8033C
:105F200098427FF6DFAE0A4B28221A6001233B70AD
:105F3000D7E600BFADE50320ECE40320B0E5032085
:105F4000B8E30320F8E30320EDE5032088E3032012
:105F50002CE4032034DF032014E40320B4E3032003
:105F600026DC0D0018E603200EDF032051DC0D00B7
:105F70000DDF032066DC0D006FDC0D00B9DC0D00C9
:105F8000E7DC0D0015DD0D0035DF0320F0E5032013
:105F9000ECE5032010DF0320124B1B78012B01D00E
:105FA000FEF7E4FF02F0C0FB0F4B1B6803F59223E2
:105FB00003F578738342BFF495AE02F0BBFD48B1A0
:105FC00000238DF80030094B094A1B7809490A481B
:105FD000FEF7F3F94FF4FA6002F0BCFE04F0C0F8EB
:105FE00080E600BFB8E30320F4E303200DDF0320C5
:105FF00043DD0D0057DD0D00BCE3032010B5044B5D
:10600000044640F8043B0430FFF7C2FD204610BDB3
:106010006CDF0D0010B50446FFF7F0FF2046182195
:1060200004F041FD204610BD13B50B460246D0E9F1
:1060300000016C4684E8030093E8030082E8030053
:1060400094E8030083E8030002B010BD2DE9F04F8F
:106050000021CBB0082004F09FFC0121052004F0B2
:106060009BFCFEF70BFD0023009301224FF0FF3352
:10607000B949082003F052FAB84B0AAA03F11005F7
:1060800018685968144603C40833AB422246F7D156
:1060900019889B78A37021802D220021DFF8F093CE
:1060A0000DF13B00002405F09BFB02A889F800409D
:1060B00002F048FD23467D222AA902A803F0EEFF44
:1060C00023462246CDE90044A5492AA802F04AFD0C
:1060D000A449A548FEF7D3F8A449A548FEF7CFF890
:1060E000A449A548FEF7CBF82346A449A4480222B8
:1060F00002F000FD23460122A249A34802F0FAFC67
:10610000A249A348FEF7BBF8A249A348FEF7B7F897
:10611000A249A348FEF7B3F8A249A348FEF7AFF897
:10612000A249A348FEF7ABF8A249A348FEF7A7F897
:106130002346A249A248022202F0DCFC23460222A6
:10614000A049A14802F0D6FCA049A148FEF7D8F822
:10615000A049A148FEF7D4F8A049A148FEF7D0F81D
:10616000A049A148FEF7CCF8A0498748FEF7C8F837
:106170009F49A048FEF7C4F89F49A048FEF7C0F821
:106180009F49A048FEF7BCF89F49A048FEF7B8F821
:106190009F49A048FEF7B4F89F49A048FEF7B0F821
:1061A0009F49A048FEF7ACF89F49A048FEF7A8F821
:1061B0009F49A048FEF7A4F89F49A048FEF7A0F821
:1061C0009F49A048FEF79CF8012341F288328DF8E0
:1061D00070301AA80323CDE91A3202F069FE9A48FA
:1061E00001F06EFD2146984801F0A7FE00F02EFC5C
:1061F000964B09930546964B0893022206A91AA8C6
:106200001C94FDF780FF099B1D9305F10C01089B71
:106210001C931AA8FFF708FF1C9B6A691C926B610C
:106220001D9BAA691D921AA8AB61FEF72CF8894B39
:10623000EB612C20FDF72FFF4C46804610B18649BC
:1062400000F052FCC5F808801820FDF724FF8046B6
:1062500038B182494FF4807200F0B6FB804BC8F829
:1062600000302846C5F8048000F07EFD06A8FEF741
:106270000AF800F049FF7B4B1D931AA97A4B1C9337
:1062800000F05EFF1AA8FDF7FEFF00F03DFF774922
:1062900000F0C0FF764801F0AFF90123744806AA68
:1062A000002101F0EBF99DF81830172B00F02B813D
:1062B0006F4801F0ABF96F4A6D480423002101F0EB
:1062C00028FA01236A4806AA002101F0D7F99DF8AF
:1062D0001830172B00F0088101232370002211468B
:1062E0001AA81A9202F000FA1A9B634DDFF8A481F3
:1062F000142B4FF0000240F013816B690133032B24
:106300006B6100F3178198F80630022B1BD900222D
:1063100011464FF01709012002F0A6FBC8F80090C3
:1063200004F099F8554A00904B4640211AA802F013
:10633000C1FC00238DF80030514B52491B78524864
:106340001AAAFEF73AF8D8F80820B42A00F0A88074
:1063500007234E49A0E000BFE1400D00D4DF0D004F
:10636000D5430D0014E00D00C9DA0D0024DF032031
:106370005DDD0D0014DF032065DD0D00B4E50320B5
:1063800074DD0D00B1E5032056D70D002DE5032087
:10639000C3DD0D008DE50320D4DD0D006DE5032088
:1063A000E5DD0D000DE50320F8DD0D00EDE4032033
:1063B0000ADE0D004DE503201CDE0D00D0E50320B4
:1063C000E8DB0D00E4E5032083DD0D0021410D0035
:1063D00092DD0D00795B0D009EDD0D0089460D00FC
:1063E000B2DD0D00B5450D0091D70D0019450D002A
:1063F000F5550D00BFDD0D0045560D00D0DD0D003B
:1064000095560D00E1DD0D00E5560D00F4DD0D00A3
:1064100035570D0006DE0D0085570D0018DE0D0006
:106420003D410D0029DE0D0009470D0037DE0D004E
:10643000D5470D00D1DA0D0031460D0046DE0D00C6
:1064400035480D0062DE0D00F8E30320155C0D00F9
:1064500007410D008051010070DE0D0000F40320A3
:1064600094DF0D0011410D0013410D0014F50320C0
:1064700088E303201CE00D00B0E50320A3DE0D003F
:106480000DDF0320C5DE0D00BCE30320D8DE0D00C8
:10649000ADE503202CE403203D482370FDF776FF93
:1064A000FEF77CFAFEF74AFAFEF7E4FF6B78002B62
:1064B00052D0002002F048F94FF0000B824647F21C
:1064C0002F584FF00009002002F03EF9B0EB0A0609
:1064D00061EB0B07B94508BFB0452FD302F02AFB8B
:1064E00060BB02F017FBEEE700238DF80030294B6C
:1064F000294A1B7829492A48FDF75FFFFEF7C2F9B0
:10650000FEF7F0F9EAE6274A27481823A02101F010
:10651000B5F8264A24483C23012101F0AFF8DDE616
:1065200011461AA81A9202F0DFF81A9B8C2B7FF4FE
:10653000EAAEE2E60D23C8F80030E4E602F0FAFA2B
:106540006868FDF7E3FE6B6819484FF47A716FF0E5
:1065500000425943FDF7EDFEFEF7EAFFFEF7ACFD02
:106560006B7A4BB100238DF800300A4B11491B7830
:106570000B480AAAFDF721FFFFF72CF923780BB986
:106580000223237002A803F0D9FC4BB0BDE8F08FC2
:1065900018E603200DDF032087DE0D0092DE0D00DC
:1065A000BCE3032014E4032088E30320B0E50320C8
:1065B00098E3032001DF0D00F0B5514B514D524ED1
:1065C00001271F70514B022287B01A7004F08EF918
:1065D00000231A4643F6451104F090F904F086F9B9
:1065E00000231A461221002404F090F9484BAB60B6
:1065F0002C60AC80AC71384602F01EFA3246454938
:10660000284604F04BFA2146384602F025FA39466E
:10661000042002F061F804F019FA3F4D01462346C8
:106620004FF40052284600F0DDFF3C4B2B60324611
:106630003B49284604F032FA04F008FA394D014685
:10664000284601F045FA2846374D3849324604F0CD
:1066500025FA37494FF40062284601F0AFFE354B6A
:106660002B6032463449284604F018FA334B029323
:10667000334B344D0593344B0493344B2B602C71C6
:10668000AC606C6105F10C0102A8FFF7CDFC6A69F2
:10669000049B6B610492059BAA690592AB612C4A2D
:1066A0002B464FF47A71CDE9004405F1080001F062
:1066B000BBFF02A8FDF7E7FD2846264D26493246D6
:1066C00004F0ECF92146C5E91544C5E91844C5E9CB
:1066D0001F44C5E92244AC80AC71EC65AC66C5F8DA
:1066E0008440C5F89040102205F1940005F078F838
:1066F0001022214605F1A40005F072F807B0F0BDA4
:106700000DDF032000DF0320C0DE03200CDF0320A9
:106710000000FFFF6F420D0088E3032050DF0D00F3
:106720000D420D00F8E30320BCE303205B780D006D
:1067300040F5032028DF0D00E5410D00195C0D0038
:10674000ED400D0098E30320F1400D0014DF0D0033
:1067500035420D002CE4032099420D00000000009A
:1067600082B02DE9F84F0AA981E80C00344BDFF81C
:10677000D4B00022C0E90423044640F27E654FF005
:10678000000ABDF8280004F031F9D4E9048920603A
:1067900004F008FC42464B4606460F4604F0B4FAA5
:1067A00052465B4604F068FC42464B4604F0AEFAA3
:1067B00002460B46C4E904233046394604F0A4FAE5
:1067C00002460B46C4E9022304F056FC02460B467F
:1067D000C4E90623D4E9082304F098FA013D0646EB
:1067E0000F46C4E90867CCD1DDE90C0110A3D3E959
:1067F000002304F041FC10A3D3E90023804689461E
:106800003046394604F062FD41EC100B04F054F9B7
:1068100000220023C4E9082351EC100B42464B46EA
:1068200004F02AFCBDE8F84F41EC100B02B07047B1
:106830006666666666664A3F0000000000F899409A
:106840000000A0400000303F7047704700691430DE
:106850007047012A034602D1016000207047022AD6
:1068600004BFD1E90001C3E90001F6E710B5044B0C
:10687000044640F80C3B03F061FB204610BD00BF0E
:1068800080E10D0010B50446FFF7F0FF20461C2103
:1068900004F009F9204610BD10B5054B044640F838
:1068A0001C3B03F04BFB2046FFF7E0FF204610BDEA
:1068B00064E10D0010B50446FFF7EEFF20462C21E1
:1068C00004F0F1F8204610BD13B5044608460191C6
:1068D00004F0E1FF6369013B83420FD9206901990C
:1068E000143004F0B3FF23682046DB689847236820
:1068F0001B6A204602B0BDE810401847002002B0D5
:1069000010BD10B442680346541001EB6200D20778
:1069100048BF0A591B685DF8044B48BFD358184755
:10692000022A38B5044607D0032A11D0012A01D122
:106930000B682360002038BD0C200D68FDF7ABFB11
:1069400003460028F5D095E8070083E80700F0E744
:1069500000680028EED00C2104F0A5F8EAE770B436
:10696000036809685C689D681B681268661005EB1F
:106970006400E40744BFAC59E35870BC18470000FA
:1069800010B5064B044640F8243BFDF77CFC04F1AF
:106990000C00FDF778FC204610BD00BF24E10D007F
:1069A00010B50446FFF7ECFF2046382104F07BF8D1
:1069B000204610BD08B503685B689847007800382A
:1069C00018BF012008BD000010B50024C0E9014433
:1069D000C460024C0460C0E9041210BD38E10D002F
:1069E00070B504460069114D0268AA4206D10379C8
:1069F000142B03D1C288A38A9A4211D0142632469E
:106A0000002104F0EDFE23691D6023691E71D4E9A5
:106A10000432DA80D4E904020021304404F0E0FEBC
:106A200023682046DB68BDE87040184753DD51728B
:106A3000054A02600022C0E90122C0E90722426142
:106A4000C2624263704700BF24E10D0010B5064CDE
:106A500023683BB93820FDF71EFB034608B1FFF75A
:106A6000E7FF2360206810BDF8E5032007B5019219
:106A7000FFF7ECFF036801991B6803B05DF804EBB6
:106A8000184710B50446406803681B699847A0681A
:106A900010B103685B689847E36A33B1236B214602
:106AA00004F12400BDE81040184710BD10B58AB0AD
:106AB000044606A8019102F045F8019B069A09498F
:106AC00002A803F015FB06A803F038FA029904F1B6
:106AD0000C0003F0ACFA02A803F030FA20460AB02A
:106AE00010BD00BF20E00D004FF4FA624EF66023A7
:106AF00070B5C0E9012304460C4B40F80C3B0D4631
:106B000026460B4903F065FA0A4B46F81C3B084938
:106B1000304603F05EFA2946304603F088FA2946EB
:106B20002046FFF7C3FF204670BD00BF80E10D0087
:106B300040E60D0064E10D00826810B50AB903F06B
:106B4000B8FFBDE81040C3681847000038B50446D8
:106B50000A460A480D460A49FDF718FC60680223F8
:106B6000236248B1036829465B69984763691BB192
:106B700004F10C00FFF7E0FF012038BD18E6032008
:106B800035E00D001FB50446C26909490948FDF703
:106B9000FDFB094B094A1B78E1698DF8003002A81A
:106BA0003C2302F07BFA03A8FEF7F2FF04B010BD0D
:106BB0004AE00D0018E60320F4E5032040E60D004E
:106BC00038B5002383608B6804460D462BB1022242
:106BD0009847EB68E360AB68A360204638BD0000CF
:106BE00070B58AB0C668044600250C200495FDF7F0
:106BF00052FA18B1134B8460C0E90035124B029071
:106C0000059302A9114B049306A8FFF7D9FF089B2F
:106C100083B11020FDF73FFA044658B106A9FFF7EB
:106C2000CFFF0023CDE90033094901232246304636
:106C300001F098FF06A8FDF726FB02A8FDF723FB4D
:106C40000AB070BD6D6A0D005F690D0021690D000D
:106C5000738E0D000B68036013B15A6801325A60DD
:106C6000704737B58D6851F8043B0093044601A87E
:106C7000FFF7F0FF6A462946204602F0CBFE01A846
:106C8000FEF786FF204603B030BD70B58CB00446D9
:106C900006A81646FFF7E5FF06A802F0D3FE002877
:106CA0002DD0099D069B009307A901A8FFF7D2FFED
:106CB00029466A4602A802F089FE01A8FEF768FF8D
:106CC0000498314604F0B8FD054603A8FEF760FFBE
:106CD000002DE1D10A9D069B029307A903A8FFF7A7
:106CE000B9FF02AA2946204602F05AFD03A8FEF782
:106CF0004FFF07A8FEF74CFF20460CB070BDC4E95B
:106D00000000A060F5E7000010B5D1E9002386B0CF
:106D10000021044604910AB9D90705D5CDE902231B
:106D20000F4B05930F4B049302AB93E803006A46A5
:106D300082E8030094E8030083E8030092E803007C
:106D4000049A84E80300A168A260059A0491184699
:106D5000E168E2600591FDF796FA204606B010BDA5
:106D600003690D0053680D0013B50446406880B1F7
:106D700003689B689847A06858B103681B689847E8
:106D8000054B00936946002304F124000193FFF7AB
:106D9000BBFF02B010BD00BF9D6D0D0013B50446D2
:106DA0004068FFF707FE28B163691BB104F10C00CE
:106DB000FFF7C2FE054B00936946002304F124004F
:106DC0000193FFF7A1FF02B010BD00BFD16D0D0010
:106DD00013B5044601F0AEFE90B103F01FFB78B18D
:106DE00008490948FDF7D2FA084B00936946002389
:106DF00004F124000193FFF787FF01F095FC606325
:106E000002B010BD73E00D0018E60320116E0D00F6
:106E100037B5044601F088FC636BC01AA3685B6851
:106E2000984217D36068FFF7C5FD04F1240598B1B7
:106E3000E369013310D00B490B48FDF7A7FA01F0C5
:106E400073FC0A4B60630093694600232846019354
:106E5000FFF75AFF03B030BD05490348FDF796FA26
:106E6000044BF0E783E00D0018E60320796E0D0077
:106E700093E00D00DD6E0D0037B5044601F054FCC3
:106E8000636BC01A42F20F7398421ED903F0C6FA20
:106E9000D8B1E369002B18DD03F0DDFA0546606820
:106EA00003681B6898478068E3692D1A9D420CDDD2
:106EB00007490848FDF76AFA074B00936946002323
:106EC00004F124000193FFF71FFF03B030BD00BFA2
:106ED000B0E00D0018E60320DD6E0D0037B5044666
:106EE0000F491048FDF752FA606803681B6898471D
:106EF000054603F0B0FA0123A860236201F014FCF8
:106F0000094B606300936946002304F12400019358
:106F1000FFF7FAFEA06803689B68984703B030BD8E
:106F2000C9E00D0018E603202D6F0D0013B5036AAC
:106F3000012B04461BD101F0F7FB636BC01AA36859
:106F40009B68984211D90C490C48FDF71FFA04239D
:106F5000236201F0E9FB0A4B60630093694600235A
:106F600004F124000193FFF7CFFE02B010BD0549E4
:106F70000248FDF70BFAECE7DAE00D0018E6032013
:106F8000796E0D00FAE00D00014B00221A70704777
:106F9000F4E503207047012A034602D10160002076
:106FA0007047022A04BFD1E90001C3E90001F6E7F6
:106FB00013B504461046019204F06DFC6368019914
:106FC00002461E2A03F10C0006D804F03FFC012300
:106FD00084F8353002B010BD1F2204F076FC6368DF
:106FE000002283F82B20F2E710B4426803465410C5
:106FF00001EB6200D20748BF0A591B685DF8044BD9
:1070000048BFD3581847022A38B5044607D0032A88
:1070100011D0012A01D10B682360002038BD0C205B
:107020000D68FDF738F803460028F5D095E807000D
:1070300083E80700F0E700680028EED00C2103F099
:1070400032FDEAE770B4036809685C689D681B68F4
:107050001268661005EB6400E40744BFAC59E358BE
:1070600070BC184710B5064B044640F8203BFDF7AE
:107070000AF904F11000FDF706F9204610BD00BF23
:10708000B4E10D0010B50446FFF7ECFF20463821AF
:1070900003F009FD204610BD10B5034B0360044604
:1070A000FFF7E0FF204610BDC8E10D0010B5044613
:1070B000FFF7F2FF2046382103F0F5FC204610BD13
:1070C000836A014613B1C36A203018477047000035
:1070D00030B5074A0260002400220025C0E90245BD
:1070E0004260826182620263828680F8362030BD0F
:1070F000B4E10D0008B50346FFF7EAFF014A1A6044
:10710000184608BDC8E10D0010B5064C23683BB910
:107110003820FCF7C0FF014608B1FFF7EBFF216004
:10712000206810BD00E6032007B5826801910AB906
:1071300003F0BFFCC36801A9984703B05DF804FBE6
:107140007FB5002302938B6804460D4600F11006BC
:1071500033B1022268469847EB680393AB68029309
:1071600031466846FEF760FF029BA269A361039B5C
:1071700002926846E269E3610392FDF784F82046D3
:1071800004B070BD1FB5D1E900230021044602916F
:107190000AB9D90705D5CDE900230B4B03930B4B57
:1071A000029321466846FEF73FFF029BA268A36058
:1071B000039B02926846E268E3600392FDF763F87E
:1071C000204604B010BD00BFE96F0D00976F0D00A1
:1071D00073B5044640680D4D0268AA4202D1037996
:1071E0002C2B08D02C263246002104F0F9FA6368D3
:1071F0001D6063681E71064B00936946002304F10D
:1072000020000193FFF7BEFF02B070BDF2A28777A6
:107210001D720D004160FFF7DBBF000037B541680C
:107220000B7B044600F1200593B183691BB10C313F
:107230001030FFF779FF0A4B009369460023284678
:107240000193FFF79FFF01F06FFA206303B030BD99
:10725000044A69462846CDE90023FFF793FFF5E786
:10726000B9730D0041740D0013B5044601F062FCC2
:1072700070B103F0D3F858B1064B00936946002370
:1072800004F120000193FFF77DFF01F04DFA206328
:1072900002B010BD99720D0030B5054685B001F001
:1072A00043FA2B6BC01AB0F5FA6F29D3154B164968
:1072B0001B788DF80030002285F835203C2302A889
:1072C00001F0ECFE039C7CB16368013B63605BB939
:1072D000236820469B689847A368013BA3601BB9BD
:1072E00023682046DB689847084B029302A90023D5
:1072F00005F120000393FFF745FF01F015FA28631D
:1073000005B030BDFCE5032094E10D0011730D00C4
:1073100073B590F8355004461DB34668337B00F1D1
:107320002005DBB103F097F8B060236820469B6826
:107330009847A3692BB1616804F110000C31FFF785
:10734000F3FE0F4B00930023019369462846FFF795
:1073500019FF01F0E9F9206302B070BD094A0092FB
:10736000F2E701F0E1F9236BC01A43F69723984244
:10737000F2D9044B6946CDE9003504F12000E6E777
:10738000B9730D0089730D0013B5044601F0CCF9F3
:10739000236BC01A064B984208D9064B00936946E6
:1073A000002304F120000193FFF7ECFE02B010BDB2
:1073B000DF93040069720D00F7B5044601F0B4F9DB
:1073C000236BC01A42F20F7398421ED901F0ACF938
:1073D00094F8365020635DB1184A0023CDE90023AC
:1073E00084F83630694604F12000FFF7CBFE0CE04C
:1073F000D4E9022313430AD1A36A33B104F1200173
:10740000032208469847C4E90A5503B0F0BD03F0CB
:1074100005F80028F9D06368D4E902679B68F6187C
:1074200047EBE37703F017F8C117864277EB0103C8
:10743000EBDA024BCDE90035D4E700BF41740D0013
:1074400030B590F834508BB004466DBB0C200495D9
:10745000FCF721FE18B11A4B8460C0E90035194BC6
:107460000290059302A9184B049306A8FFF7A8FB06
:10747000089B83B11020FCF70EFE054658B106A903
:10748000FFF79EFB0023CDE900331049104801238C
:107490002A4601F067FB06A8FCF7F5FE02A8FCF7F8
:1074A000F2FE012384F834300A4B069306A9002328
:1074B00004F120000793FFF765FE0BB030BD00BF5D
:1074C000B16F0D0045700D0007700D00738E0D003B
:1074D00094E10D0069720D00014B00221A70704793
:1074E000FCE50320034BC162002280ED0E0BC0E9D6
:1074F0001C2370470000A0402DE9F74FDFF8C8B00B
:107500000191044600254FF0000A019B9D422FD0B7
:10751000A08D03F06BFAD4E91C89E06403F042FD0E
:1075200042464B4606460F4603F0EEFB52465B468C
:1075300003F0A2FD42464B4603F0E8FB02460B4631
:10754000C4E91C233046394603F0DEFB02460B46F5
:10755000C4E9182303F090FD02460B46C4E9242336
:10756000D4E9260103F0D2FB0135C4E92601CCE7BA
:1075700013A3D3E90023D4E90E0103F07DFD0646F1
:1075800028460F4603F0FEFC02460B46D4E92601CE
:1075900003F09CFE41EC100B03F08EFA32463B46A2
:1075A00051EC100B03F068FD41EC100B002200239E
:1075B000C4E90801C4E9262303B0BDE8F08F00BF89
:1075C0006666666666664A3F0000303F704710B5E3
:1075D0001021044603F067FA204610BD0368C9B2C3
:1075E0009B68184730B5034DC0E90223C0E900513C
:1075F00030BD00BF08E20D00406801F041BF10B58A
:107600000446006801F07FFF204610BD2DE9F041DF
:107610008AB004464068019001F06CFF1E220021F0
:1076200002A8A76804F0DCF80026EFB123681E2F3B
:10763000B84628BF4FF01E08DD6802AA434631460F
:107640002046A847054658B90A480B493246FCF778
:107650009DFE01A8FFF7D3FF28460AB0BDE8F081E0
:10766000A7EB08074644E0E701A8FFF7C8FF01259C
:10767000F2E700BF18E60320D4E10D002DE9F7433F
:107680000446406801900D4616461F4601F032FF41
:10769000A7B1E168606841F0500101F024FF290AB8
:1076A0006068FFF79BFF29466068FFF797FF6068F7
:1076B000002101F01BFF48B1002400E0012401A8D3
:1076C000FFF79DFF204603B0BDE8F083202F217B0C
:1076D0006068B84628BF4FF020080123424641F0B9
:1076E000500101F0EAFE03F0B1F903681B69984705
:1076F0004045E1DB06EB080903F0A8F903685B6984
:10770000984706F8010B4E45F6D14544A7EB08070C
:10771000BEE72DE9F74F0446406801900E469046BB
:107720001D4601F0E7FE4FF00109B9F1000F2AD024
:107730004DB3E168606841F0500101F0D4FE310AB8
:107740006068FFF74BFF60683146FFF747FFA5F120
:107750001E0A4746A6EB080B606817F8011B036872
:10776000013D9B68984755450BEB0706B84601D08D
:10777000002DF1D16068012101F0B8FE0028D7D0BA
:107780004FF00009D1E701A8FFF739FF484603B0E1
:10779000BDE8F08F2DE9F0438BB00E4615468046CC
:1077A000406801901C4601F0A5FEAE4229D2264455
:1077B00025448CB11E2C2746D8F8003028BF1E2740
:1077C000F61BD3F8089002AA3B4631464046ED1B13
:1077D000C84748B9002400E0012401A8FFF70FFFC3
:1077E00020460BB0BDE8F083D8F8003002AAD3F8E9
:1077F0000C9029463B464046C8470028EAD0E41B87
:10780000D7E7E9D9002CE7D0D8F800301E2C27465E
:1078100028BF1E27D3F8089002AA3B4631464046AF
:10782000C8470028D6D0D8F8003002AAD3F80C9068
:1078300029463B464046C8470028CBD03E443D44FD
:10784000E41BDFE74020704700207047802070472E
:10785000FF207047704770477047704710B514217C
:10786000044603F020F9204610BD10B50821044657
:1078700003F019F9204610BD10B50821044603F0A5
:1078800012F9204610BD10B51C21044603F00BF977
:10789000204610BD2DE9FF410368DB680446984788
:1078A00010220146684603F09BFF236820469B6830
:1078B0009847002507462846BD420ED27E1B236806
:1078C000102E28BF1026D3F818806A463346294662
:1078D0002046C04708B13544EEE704B0BDE8F0816A
:1078E0004FF48073438140F20113C360002303828D
:1078F0007047000008B5064B0360064B436040F23A
:107900000473038100234374FFF7EAFF08BD00BF3F
:10791000E8E20D000001020303090A2200F00F0053
:1079200002FB0300704708B5807AFFF7F5FF00F50A
:10793000FA6008BDC07A00F01F00FFF7EDBF007BC2
:1079400000F03F00FFF7E8BF08B5817B4A060DD580
:1079500001F01F00FFF7E0FF8B0603D50C2800D0D5
:107960000C3008BD0C2808BF0020FAE7BDE808402D
:1079700001F03F00FFF7D0BFC07B00F07F00FFF7B2
:10798000CBBF007C00F07F00FFF7C6BF10B58AB008
:1079900024220446002101A803F022FF2046FFF71D
:1079A000C2FFA0F26C7006902046FFF7C3FF0138BB
:1079B00005902046FFF7C3FF04902046FFF7C4FF61
:1079C00003902046FFF7D8FF02902046FFF7D9FF2B
:1079D000019001A801F0B6F90AB010BD0A2190FB90
:1079E000F1F292FBF1F301FB13231B01DBB201FB6C
:1079F00012001843C0B27047642310B5044691FBCF
:107A0000F3F000FB1310FFF7E9FFA07210BD10B5F3
:107A100004460846FFF7E2FFE07210BD10B50446C9
:107A20000846FFF7DBFF237B23F03F031843207357
:107A300010BD10B50446481CFFF7D0FF637B23F050
:107A400007031843607310BD10B504460846FFF7DE
:107A5000C5FFA07310BD10B504460846FFF7BEFF72
:107A6000E07310BD10B504460846FFF7B7FF237C4E
:107A700023F07F031843207410BD37B504466846D1
:107A8000CDE9002303F072FE054641692046FFF769
:107A9000B3FF296920460131FFF7B9FFE9682046A5
:107AA000FFF7BCFFA9692046FFF7C3FFA96820467E
:107AB000FFF7CAFF69682046FFF7CDFF29683B2919
:107AC000A8BF3B212046FFF7CDFF03B030BD00002B
:107AD000054A0061C0E90021044A8260044AC2608C
:107AE000044A8061426170471CE30D0000000103FD
:107AF000C4E20D00F8E20D002DE9F84F04460F46F0
:107B00009046994600260A9B9E4231D260683946CB
:107B100001F0E5FC08EB06016068FFF75FFD6068B7
:107B2000002101F0E3FC0546D0B90A9B60689A1B6E
:107B3000202A4FF0010328BF2022394601F0BDFC66
:107B400009EB060B05460BEB000ADA4506D0606828
:107B500003685B6998470BF8010BF6E72E44D2E700
:107B6000024604490448FCF711FC2846BDE8F88F9A
:107B70000025FAE71CE20D0004E603202DE9F3419D
:107B800001EB03081E4603689B6805460C46174632
:107B9000984780450DD82034686800963B46E2B28D
:107BA0006F21FFF7A9FFB0FA80F0400902B0BDE8ED
:107BB000F0810020FAE72DE9F34101EB03081E46AE
:107BC00003689B6804460D461746984780450CD8C5
:107BD000606800963B46EAB25721FFF78DFFB0FA86
:107BE00080F0400902B0BDE8F0810020FAE77FB5DF
:107BF0001E1E0CBF072306230093144602AB0A4641
:107C00006F21FFF779FF0546A8B99DF80830237466
:107C10009DF80930E3739DF80A30A3739DF80B308B
:107C200063739DF80C3023739DF80D30E3722EB909
:107C30009DF80E30A372284604B070BD02F01CFC03
:107C4000FFF7CCFEA072F6E71FB501230A460093AA
:107C50006F2103ABFFF750FF20B99DF80C0005B072
:107C60005DF804FB0020FAE708B50321FFF7ECFFFD
:107C7000C0F3401008BD38B500230C460A4619462B
:107C80000546FFF7B4FF30B9A37A23B12846BDE813
:107C90003840FFF7E9BF002038BD7FB5024601A894
:107CA000FFF728FE01A91046FFF7E5FF28B101A85C
:107CB000FFF76CFE07B05DF804FB00200146F9E712
:107CC000D0B5044686B0406801F0DAFB02F0A6FBAE
:107CD000E8B9E37A9B071AD52046FFF7DEFF064690
:107CE0000F4656EA070312D002F09FFA0A4B0B49DF
:107CF0001B68009332463B4602A802F04DFB084841
:107D0000029A0849FCF742FB02A802F017F9012386
:107D1000237206B0D0BD00BFE0DC032044E60320A0
:107D200004E6032036E20D002DE9F84F06468846AA
:107D300091469A4600250A9B9D4229D27068414689
:107D400001F0CDFB706809EB0501FFF747FC0A9BCA
:107D50005F1B1F2F28BF1F270AEB050407EB040B2F
:107D6000706814F8011B026892689047A345F7D128
:107D70007068012101F0BAFB044638B1024605499A
:107D80000548FCF703FB2046BDE8F88F3D44D2E7E9
:107D90000024F8E74BE20D0004E603202DE9F3414F
:107DA00001EB03081E4603689B6805460C46174610
:107DB000984780450DD82034686800963B46E2B26B
:107DC0006F21FFF7B1FFB0FA80F0400902B0BDE8C3
:107DD000F0810020FAE71FB5137C8DF80830D37BC3
:107DE0008DF80930937B8DF80A30537B8DF80B307A
:107DF000137B8DF80C30D37A8DF80D30937A8DF893
:107E00000E30072300930A4602AB6F21FFF78CFF69
:107E100005B05DF804FB10B588B0044603A80193D3
:107E2000FFF768FD019B03A8FFF727FE9DF81C30B4
:107E3000A27A63F07F038DF81C309DF819306AB187
:107E400043F0080303AA002120468DF81930FFF7FC
:107E5000C2FFB0FA80F0400908B010BD03F0F7038C
:107E6000F0E70000F0B587B0054602F0D7FA044607
:107E7000E8B102F0F0FAC717024606463B4628462C
:107E8000FFF7C9FF0C4B0D491B68009332463B4678
:107E9000044602A802F080FA0948029A0949FCF750
:107EA00075FA02A802F04AF8204607B0F0BD06496C
:107EB0000348FCF76BFAF7E7E0DC032044E6032015
:107EC00004E6032066E20D007CE20D0037B5457A3A
:107ED00004469DB902F0A2FA80B10022002369464F
:107EE0002846CDE9002300F04DFE38B1E37ADB07E8
:107EF00002D52046FFF7B6FF0123637203B030BD01
:107F00001FB501238DF80C2000930A4603AB6F21A7
:107F1000FFF70AFF05B05DF804FBF8B504460D460F
:107F200017461E46FFF790FE00EA07023243294635
:107F30002046BDE8F840FFF7E3BF012908B50CD89B
:107F400000294FF0000314BFDF22EF220721FFF7C3
:107F5000E4FFB0FA80F0400908BD0020FCE738B526
:107F6000044632256068572101F0B9FA60680121A2
:107F700001F0BCFA08B1013DF4D138BD2DE9F04162
:107F800004460F46164602EB0308B04520D0606851
:107F9000572101F0A4FA39466068FFF71FFB6068BB
:107FA00016F8011B03689B6898476068012101F07F
:107FB0009DFA0137054638B1024606490648FCF7E6
:107FC000E5F92846BDE8F0812046FFF7C8FFDCE769
:107FD0000025F6E791E20D0004E60320F7B5CF187F
:107FE0001E46036801929B6804460D4698478742E7
:107FF0000AD8019A60683346E9B2FFF7BFFFB0FACA
:1080000080F0400903B0F0BD0020FBE7014B024ABD
:108010001A60704704E60320B2E20D00012A03460D
:1080200002D1016000207047022A04BFD1E900019B
:10803000C3E90001F6E710B5012303748368044621
:1080400043B1C0689847012363740020BDE8104025
:1080500000F032BB00680028F5D083680BB902F04D
:1080600028FDC368EEE710B442680346541001EBE4
:108070006200D20748BF0A591B685DF8044B48BF2D
:10808000D35818470123F7B580F829300646083041
:1080900000F0EAFA0420FBF7FEFF054698B31B49FF
:1080A000142002F002FD30B10023C0E90033C0E922
:1080B0000233037443742860A0B1154B1549C0E91D
:1080C00002364FF40063CDE900030222124B043064
:1080D00000F092FA30B92B681B7CA3B9012000F0A4
:1080E00013FBF8E72C6800232B6064B1276837B1D5
:1080F0003846FCF7C8F81021384602F0D4FC1421A9
:10810000204602F0D0FC756003B0F0BD18E60D000B
:1081100023830D0024E30D0037800D0047F230511A
:10812000084AC160084902600022C0E904120749F8
:10813000C16107494260C0E908228161028580F877
:108140002A207047E8E30D008D840D0067800D0044
:108150001D800D0010B5044B044640F8103BFCF7A1
:1081600092F8204610BD00BFE8E30D0010B5034BA8
:1081700003600446FFF7EEFF204610BD10E40D003B
:1081800010B50446FFF7F2FF2046382102F08BFCC1
:10819000204610BD806800F06FBA806800F074BAA5
:1081A00010B504460068FFF7F8FF204610BD13B570
:1081B00004460190FFF7EEFFE36ADC88A4B20CB13D
:1081C00003F1080401A8FFF7EBFF204602B010BD41
:1081D00013B504460190FFF7DDFF94F8283043B94A
:1081E000E26A0124D38001A8FFF7DAFF204602B03B
:1081F00010BD0024F7E713B504460190FFF7CAFF4E
:10820000E36A01A8DC88FFF7CBFF204602B010BD6F
:108210002DE9F047994686B090F829309DF838A0AE
:108220009DF83C8004460F46164613B903689B68C8
:108230009847314B3846002E08BF1E4603F02BFBF3
:108240000546304603F027FB284400F10A05AB073A
:108250001CBF25F0030504353346CDE90285CDE981
:10826000009A264926483A46FCF790F8238E083BA8
:10827000AB4212D20024204606B0BDE8F087CB887E
:10828000012B36D005A8FFF78BFF236894F8281040
:108290009B69204698470028ECD020460594FFF7BC
:1082A00079FFE16A228E636B0A44D21AAA42E6D3AE
:1082B00048EA0A0883F80480C3F80090636B03F16E
:1082C00008083946404603F0C1FA404603F0E3FA95
:1082D00001303146404403F0B9FA636BE26A1D4451
:1082E0006563D3880133D380012405A8FFF758FFC5
:1082F000C1E70024F9E700BF40E60D0036E30D00BA
:1083000008E6032008B5044600F11005A3690BB97F
:1083100002F0CFFBE36921462846984700F074F944
:10832000F4E708B5FFF7EEFF68B501F1080506466A
:10833000284603F0B0FA01300544284603F0ABFAB2
:10834000F36A01302844C31A13F003031CBFC3F1BE
:108350000403C01868BDF7B504460E460190FFF748
:1083600019FFE76AFB8807F10805E6B1012B22D95E
:1083700029462046FFF7D8FF054629462046FFF745
:10838000D3FF228E3A44121A0146A0EB050602D012
:10839000284603F00BFA636B9B1B6363FB88013B6E
:1083A000FB80012601E0002BE7D101A8FFF7F8FED2
:1083B000304603B0F0BD0026F7E700002DE9F04796
:1083C0000D4604462F461646FFF7A8FE154B57F8F4
:1083D000082B2360144BE5629A422686984617D1F3
:1083E000AB889BB2B34213D105EB060A67634FF02B
:1083F0000009EB881FFA89F29BB29A420ED2616B98
:108400002046FFF791FF5045606309F10109F0D95B
:108410000023C5F800806763AE80EB802046BDE88E
:10842000F08700BF10E40D0061AB9CD110B5D1E91D
:10843000002386B00021044604910AB9D90705D566
:10844000CDE902230F4B05930F4B049302AB93E846
:1084500003006A4682E8030094E8030083E803000F
:1084600092E80300049A84E80300A168A260059AD8
:1084700004911846E168E2600591FBF704FF20468D
:1084800006B010BD67800D001D800D0007B5054BBF
:1084900000936946002310300193FFF7C7FF03B034
:1084A0005DF804FBD5840D0013B5044600F03CF9DB
:1084B000636AC01AE368984208D3054B0093694683
:1084C000002304F110000193FFF7B0FF02B010BDCC
:1084D000D5840D002DE9F04190F82A3086B004468D
:1084E000002B64D100F026FB002860D000F01CF9BE
:1084F000636AC01A40F2F133984258D92368204683
:108500005B6998470546002851D000F10807012310
:1085100084F82830384603F0BEF995F80480CDF889
:10852000048001302B682B4900933E1833462A48BB
:108530003A46FBF72BFF2B688DF800803246394610
:1085400002A800F0ABFD029D6B781BB9012000F082
:1085500001FCF8E7002000F08FFA20B16B7813B926
:1085600000F0D8FAFAE72B78012B23D11B491A48DF
:10857000FBF70CFF236800219B69204698470023E6
:1085800084F8283000F0D0F86062039C7CB1636806
:10859000013B63605BB9236820469B689847A368EA
:1085A000013BA3601BB923682046DB68984706B0EF
:1085B000BDE8F081E2680A490748FBF7E7FE094B8E
:1085C000049304A9002304F110000593FFF72EFF84
:1085D000D5E700BF77E30D0008E6032098E30D0020
:1085E000AFE30D00A9840D00014B024A1A607047E9
:1085F00008E60320D6E30D0008B5024B1B685B6854
:10860000019308BD4802030008B5024B1B68DB68F4
:10861000019308BD4802030008B5024B1B68DB69E3
:10862000019308BD4802030008B5024B1B681B6A92
:10863000019308BD4802030008B5024B1B685B6A42
:10864000019308BD4802030008B5024B1B689B6AF2
:10865000019308BD4802030008B5024B1B68DB6AA2
:10866000019308BD4802030008B5024B1B681B6B51
:10867000019308BD4802030008B5024B1B689B6BC1
:10868000019308BD4802030008B5024B1B681B6C30
:10869000019308BD4802030008B5024B1B685B6CE0
:1086A000019308BD4802030008B5024B1B689B6C90
:1086B000019308BD4802030008B5024B1B68DB6E3E
:1086C000019308BD4802030008B5024B1B681B6FED
:1086D000019308BD4802030008B5024B1B685B6E9E
:1086E000019308BD3402030008B5024B1B68DB6E22
:1086F000019308BD3402030008B5024B1B685B6898
:10870000019308BD1802030008B5024B1B689B6863
:10871000019308BD1802030008B5024B1B68DB6813
:10872000019308BD1802030008B5024B1B685B6982
:10873000019308BD1802030008B5024B1B689B6D2E
:10874000019308BD1802030008B5024B1B68DB6DDE
:10875000019308BD1802030008B5024B1B685B6E4D
:10876000019308BD1802030008B5024B1B689B6EFD
:10877000019308BD1802030008B5024B1B685B6833
:10878000019308BD2C02030008B5024B1B689B68CF
:10879000019308BD2C02030008B5024B1B68DB687F
:1087A000019308BD2C02030008B5024B1B681B692E
:1087B000019308BD2C02030008B5024B1B689B699E
:1087C000019308BD2C02030008B5024B1B68DB694E
:1087D000019308BD2C02030008B5024B1B681B6BFC
:1087E000019308BD2C02030008B5024B1B68DB682F
:1087F000019308BD2802030008B5024B1B689B6962
:10880000019308BD2802030008B5024B1B68DB6911
:10881000019308BD2802030008B5024B1B681B6AC0
:10882000019308BD2802030008B5024B1B685B6A70
:10883000019308BD2802030008B5024B1B689B6A20
:10884000019308BD2802030008B5024B1B68DB6AD0
:10885000019308BD2802030008B5024B1B681B6B7F
:10886000019308BD2802030008B5024B1B685B6B2F
:10887000019308BD2802030008B5024B1B681B6C5E
:10888000019308BD2802030008B5024B1B689B6CCE
:10889000019308BD2802030008B5024B1B68DB6C7E
:1088A000019308BD2802030008B5024B1B681B6D2D
:1088B000019308BD2802030008B5024B1B685B69E1
:1088C000019308BD6402030008B5024B1B689B6856
:1088D000019308BD6802030008B5024B1B68DB6802
:1088E000019308BD6802030008B5024B1B68DB69F1
:1088F000019308BD3002030008B5024B1B681B6AD8
:10890000019308BD3002030008B5024B1B681B68C9
:10891000019308BD3C02030008B5024B1B68DB68ED
:10892000019308BD3C02030008B5024B1B681B699C
:10893000019308BD3C02030008B5024B1B685B694C
:10894000019308BD3C02030008B5024B1B689B69FC
:10895000019308BD3C02030008B5024B1B68DB69AC
:10896000019308BD3C02030008B5024B1B681B6A5B
:10897000019308BD3C02030008B5024B1B689B6ACB
:10898000019308BD3C02030008B5024B1B681B683D
:10899000019308BD4C02030008B5024B1B681B691C
:1089A000019308BD4C02030008B5024B1B685B69CC
:1089B000019308BD4C02030008B5024B1B689B697C
:1089C000019308BD4C02030008B5024B1B68DB692C
:1089D000019308BD4C02030008B5024B1B681B6ADB
:1089E000019308BD4C02030008B5024B1B685B6B8A
:1089F000019308BD6002030008B5024B1B689B6B26
:108A0000019308BD6002030008B5024B1B68DB6BD5
:108A1000019308BD6002030008B5024B1B685B6D43
:108A2000019308BD6002030008B5024B1B681B6878
:108A3000019308BD2002030008B5024B1B685B6868
:108A4000019308BD2002030008B5024B1B685B6957
:108A5000019308BD2002030008B5024B1B68DB6AC6
:108A6000019308BD2002030008B5024B1B689B6BF5
:108A7000019308BD2002030008B5024B1B68DB6CA4
:108A8000019308BD2002030008B5024B1B685B6D13
:108A9000019308BD2002030008B5024B1B689B6DC3
:108AA000019308BD2002030008B5024B1B68DB6D73
:108AB000019308BD2002030008B5034B1B68D3F8DF
:108AC0008830019308BD00002002030008B5034B65
:108AD0001B68D3F89430019308BD00002002030006
:108AE00008B5034B1B68D3F8AC30019308BD0000F8
:108AF0002002030008B5024B1B681B68019308BDE8
:108B00004402030008B5024B1B685B68019308BD73
:108B10004402030008B5024B1B689B68019308BD23
:108B20004402030008B5024B1B68DB68019308BDD3
:108B30004402030008B5024B1B685B69019308BD42
:108B40004402030008B5024B1B68DB69019308BDB2
:108B50004402030008B5024B1B681B6A019308BD61
:108B60004402030008B5024B1B685B6A019308BD11
:108B70004402030008B5024B1B681B6B019308BD40
:108B80004402030008B5024B1B685B6B019308BDF0
:108B90004402030008B5024B1B689B6B019308BDA0
:108BA0004402030008B5024B1B68DB6B019308BD50
:108BB0004402030008B5024B1B685B68019308BDC3
:108BC0004002030008B5024B1B689B68019308BD77
:108BD0004002030008B5024B1B68DB68019308BD27
:108BE0004002030008B5024B1B681B69019308BDD6
:108BF0004002030008B5024B1B685B69019308BD86
:108C00004002030008B5024B1B689B69019308BD35
:108C10004002030008B5024B1B68DB69019308BDE5
:108C20004002030008B5024B1B681B6A019308BD94
:108C30004002030008B5024B1B681B6B019308BD83
:108C40004002030008B5024B1B685B6B019308BD33
:108C50004002030008B5024B1B681B6C019308BD62
:108C60004002030008B5024B1B685B6C019308BD12
:108C70004002030008B5024B1B681B68019308BD46
:108C80001C02030008B5024B1B685B68019308BD1A
:108C90001C02030008B5024B1B689B68019308BDCA
:108CA0001C02030008B5024B1B681B69019308BD39
:108CB0001C02030008B5024B1B68DB69019308BD69
:108CC0001C02030008B5024B1B685B6A019308BDD8
:108CD0001C02030008B5024B1B68DB6A019308BD48
:108CE0001C02030008B5024B1B681B6B019308BDF7
:108CF0001C02030008B5024B1B68DB6B019308BD27
:108D00001C02030008B5024B1B685B6C019308BD95
:108D10001C02030008B5024B1B689B6C019308BD45
:108D20001C02030008B5024B1B68DB6C019308BDF5
:108D30001C02030008B5024B1B681B6D019308BDA4
:108D40001C02030008B5024B1B685B6D019308BD54
:108D50001C0203000021FFF777BE10B583680446AC
:108D60000BB901F0A6FEC3689847A3681BB10322A4
:108D700021462046984720461021BDE8104001F0CA
:108D800092BE10B50446006808B1FFF78DFC20467E
:108D900010BD000010B5064C002320462360FFF7ED
:108DA0007BFC2046034A0449BDE8104001F076BE32
:108DB0000CE60320C0DE0320838D0D0070470020E9
:108DC000704710B51021044601F06DFE204610BD1D
:108DD00008B5FFF7F6FF08BD30B500224FF69C74CA
:108DE000026084808D888C800C68858004600A60B5
:108DF00030BD10B504460068FFF744FF204610BDA3
:108E000038B5C468F4B12378022B03D104F10C0007
:108E1000FFF7EFFF656835B12846FBF734FA1021FC
:108E2000284601F040FEA56835B12846FBF72BFA2D
:108E30001021284601F037FE20461421BDE83840B5
:108E400001F031BE38BD10B588B00446684601F067
:108E5000C0F8694604A801F0DFF804A8A04704465A
:108E600004A801F06BF8684601F068F8204608B0E5
:108E700010BD07B5CDE9001282680AB901F019FEEC
:108E8000C36801AA6946984703B05DF804FB1FB5A3
:108E90000023CDE90201019210241A4669461846C2
:108EA000ADF80230ADF80040FFF72CFE04B010BD65
:108EB00007B50823ADF8003003688DF80230037A57
:108EC0008DF803304368019300236A461946022057
:108ED000FFF760FE03B05DF804FB73B50E46044671
:108EE00056F8043B00930D4601A83146FDF7B2FE4B
:108EF000019A009B6260236001A800230193009304
:108F0000FCF746FE3046FCF743FE2846082101F0F8
:108F1000CAFD204602B070BD826810B50AB901F0E2
:108F2000C8FDBDE81040C368184708B5006800F1E7
:108F30001001FFF7F1FF08BD826810B50AB901F012
:108F4000B8FDBDE81040C368184708B5006800F1D7
:108F50001001FFF7F1FF08BD38B500230446036098
:108F600010200D46FBF797F828B10123C0E9013323
:108F7000024B0360C5602060204638BD38E40D0018
:108F800038B5002383608B6804460D462BB102225E
:108F90009847EB68E360AB68A360204638BD0000EB
:108FA000F0B589B004686846FFF716FF4FF002037A
:108FB000D4E84F2F002A03D1C4E8413F0029F7D15C
:108FC00025D104F10C0569462846FFF705FFBFF3DC
:108FD0005B8F01236370002004F10803BFF35B8FF4
:108FE00053E8006F43E80002002AF9D1BFF35B8F1A
:108FF0006EB1FFF741FD78B129463046FFF78CFF8F
:109000003046FBF740F91021304601F04CFD684630
:10901000FFF7EFFE09B0F0BD314602A8FFF7B0FF41
:10902000E068B4F9105008B102F018FC0690102066
:10903000ADF81C50FBF72FF80546E8B10027876014
:109040001820FBF728F8044688B10146876002A87B
:10905000FCF7EAFF049BA268A360059B049206A9A3
:10906000E268E36004F110000592FFF7B5FE084BDB
:10907000EB60084B2C60AB6006A8FFF7BAFE02A8B5
:10908000FBF701F9002229460348FFF7FDFCB7E78B
:109090002B8F0D00C1910D005B8D0D002DE9F04768
:1090A0008AB005469DF848900C4617469846FFF74B
:1090B00041FD07AE824638BB4FF62E73059005A9D9
:1090C0003046ADF81830FFF787FE1420FAF7E3FFBB
:1090D000044648B1022303700123C0E901AA43708A
:1090E00031460C30FFF778FE2846214640F8044B05
:1090F000FFF732FF3046FFF77CFE05A8FFF779FE49
:1091000028460AB0BDE8F0870C234FF0000A14206F
:10911000CDE908AA0793FAF7BEFF014628B1C0E9D6
:1091200001AA80F800A080F801A004A80391FFF72D
:1091300013FF224B08930820FAF7ADFF824628B1AF
:10914000039B40F8043B04A9FDF784FD00965FFAF9
:1091500089F3424639462046CDF824A0FFF7FAFCB1
:10916000B8B9039B5B7803F0FF0293B94FF69C7389
:1091700005A903A80592ADF81830FFF711FF05A85F
:10918000FFF737FE05A80999FFF7A7FE06A8FCF729
:10919000FFFC039B059304A906A8FDF75BFD059B57
:1091A000069A2B606A60002306A806930593FCF7D5
:1091B000EFFC04A8FCF7ECFCA2E700BF85920D00D1
:1091C000022AF8B5054607D0032A18D0012A01D192
:1091D0000B6803600020F8BD18200E68FAF75BFFEB
:1091E000044650B13146FFF7CBFE3069B6F9147032
:1091F00008B102F033FB2061A7822C60EAE7046823
:10920000002CE7D004F11000FFF7F3FD2046FBF738
:109210003AF81821204601F046FCDBE738B5002378
:1092200083608B6804460D462BB102229847EB6899
:10923000E360AB68A360204638BD022A70B50446DF
:1092400007D0032A12D0012A01D10B680360002045
:1092500070BD14200E68FAF71EFF054620B1314696
:10926000FFF7DCFF337C2B742560F0E70468002CEB
:10927000EDD02046FBF707F81421204601F013FC3F
:10928000E5E70000F0B589B004460D4601A8114697
:10929000FFF723FEA4B124B21DB1284602F0DEFA86
:1092A000054601A803A90395ADF81040FFF778FE25
:1092B00003A8FFF79EFD02A8FCF76AFC09B0F0BD09
:1092C000019D0123D5E84F2F002A03D1C5E8413F76
:1092D0000029F7D1EFD12B73BFF35B8F6B702B1D80
:1092E000BFF35B8F53E8006F43E80042002AF9D1D7
:1092F000BFF35B8F002EDED02046FFF7BDFB074695
:1093000060B105F10C013046FFF716FE3046FAF762
:10931000BAFF1021304601F0C6FBCCE7314603A866
:10932000FFF77CFF2B7B8DF81C301020FAF7B3FE83
:109330000546D0B187601420FAF7ADFE044678B137
:109340008760014603A8FCF76FFE059BA268A36037
:10935000069B0592E268E3609DF81C300692237438
:10936000064BEB60064B2C60AB6003A8FAF78BFF53
:10937000002229460348FFF787FBC7E74B8F0D0004
:109380003B920D005B8D0D00002240681146FFF7F7
:1093900049BC002240681146FFF754BC40680022D7
:1093A000FFF748BC4068002281F00101FFF732BCA2
:1093B000002340681A461946FFF724BC0023406882
:1093C0001A461946FFF716BC002240681146FFF7FF
:1093D00009BC002240681146FFF7F4BB4068002238
:1093E0000221FFF7F7BB002340681A46FFF7E2BBF4
:1093F000024B03225A60024A1A60704710E60320AB
:1094000054E40D007047F8B5064615460C468F1813
:10941000BC4206D0336814F8011B9B68304698475D
:10942000F6E72846F8BD007C0022FFF7F5B9007C7E
:109430000021FFF7F9B9007C0021FFF7FDB9007C9E
:109440000021FFF701BA007C0021FFF705BA10B533
:109450001421044601F027FB204610BD10B54FF43F
:109460007A73044608460021C4E90113034B2360C4
:1094700020741146FFF700FA204610BD90E40D005D
:109480000023007C1A461946FFF7AEB97FB50022CB
:109490001423CDE90122ADF804300B788DF80830A3
:1094A0004B680393CB680493007C0B7A059301A966
:1094B000FFF7FAF907B05DF804FB1FB5003B8DF824
:1094C00000104FF06401039118BF01236946019217
:1094D0008DF80830FFF7DAFF05B05DF804FB007C7B
:1094E0000022FFF789B9C9B2FFF7F9BF007C00225B
:1094F000FFF78AB908B50021007CFFF7C5F9B0FA7B
:1095000080F0400908BD08B50021007CFFF7C4F9D0
:10951000B0FA80F0400908BD004700002DE9FF4186
:1095200000241D460F4690460646FFF74DF9A5421A
:109530004FF00403ADF80D408DF80C308DF80F405E
:10954000A2BF9DF828308DF80E3003AC0749009477
:1095500043463A463046A8BF8DF80D50FFF72CF928
:10956000B0FA80F0400904B0BDE8F08119950D0013
:10957000704710B51821044601F095FA204610BD39
:10958000F0B5037D062B8DB00E4600F104074FF0B9
:10959000000412D000F1080515F8011D0A2230461A
:1095A00000F08FFCAF42044419D0002CF4D02E21DF
:1095B000304600F083FC0444EEE72F236A46394628
:1095C0000A208DF80040FFF777F9684602F063F94A
:1095D00033680246DB6869463046984704462046B1
:1095E0000DB0F0BD10B5054B0446112240F8043B08
:1095F000002102F0F5F8204610BD00BFB8E40D00D0
:109600000346074A10B543F8042B01F1100251F844
:10961000044B43F8044B9142F9D10A781A7010BDFB
:10962000B8E40D0010B59DF8084044EA032343EA6E
:10963000024242EA016104234160037510BD00004B
:1096400013B5054B0360CB7800938B784A78097883
:10965000FFF7E8FF02B010BDB8E40D0000F1100301
:10966000012213F8101C0129184608D153F8041CD4
:1096700002EB4102013A03F11003F2D170470229D3
:1096800004BF53F8041C5218F4E7704770470020D9
:10969000704710B51421044601F005FA204610BDAC
:1096A00010B51021044601F0FEF9204610BD08B5A2
:1096B000FFF7F6FF08BD10B5C4687CB1206808B19B
:1096C000FAF7EFFC237A1BB1606808B1FAF7E9FCFE
:1096D00020460C21BDE8104001F0E5B910BD38B5B9
:1096E0001546D0E903239342044607D2D21A806874
:1096F000AA4228BF2A46184402F04AF822692A449E
:10970000226138BD0EB417B505AB044653F8042BDF
:10971000E1680193036980688B4238BFC91A184415
:1097200028BF0021019BFFF7CDFA2369184420616F
:1097300003B0BDE8104003B0704710B5036804469D
:109740009B689847A368013BA3602BB92368204618
:10975000DB68BDE81040184710BD07B503688DF8F9
:1097600007109B6801220DF10701984703B05DF8CF
:1097700004FB38B50B6803604D6843689D4204469E
:109780000CD015B16B6801336B60606828B1436819
:10979000013B43600BB9FFF7D0FF6560204638BD41
:1097A0000B461146002210B5C0E900220446836032
:1097B0000BB9204610BDFFF7DCFFFAE78368EBB179
:1097C0001A78032A1AD8DFE802F00417021B0520D2
:1097D000704702685B685268D05C2D2812D0A0F1F7
:1097E0003003092B0ED974280ED066280CD0A0F1B6
:1097F0006E0358425841704706207047002070475A
:109800000420704703207047022070472DE9F0477D
:1098100086B00746884602A80021002499461023F6
:1098200092460293FFF7E8F8CDE90044234642460A
:10983000394602A8FFF7E8F8061E1EDD1049300180
:1098400001F035F9054690B1214602A8FFF7D4F89A
:10985000CDE900642B464246394602A8FFF7D4F80A
:10986000A04207DDCAF800500120C9F8006006B028
:10987000BDE8F0872846FAF714FC2046F7E700BF5A
:1098800018E60D002DE9F84F436886680B448846BA
:109890000E4407461C4619464FF00D094FF0090AC1
:1098A000B44263D0254615F8012B5C2A2BD1A14286
:1098B00007D0A4EB010B18465A4601F077FF034688
:1098C0005B44B54239D06278752A2AD1A21CB21AFB
:1098D000032A32DDA01D04F1050E4FF0000CAE4549
:1098E00053D015F8011FA1F130025FFA82FBBBF1E2
:1098F000090F05D9A1F16102052A07D8A1F1570284
:1099000042EA0C1CEBE728460446C9E7A1F14102F4
:10991000052A12D8A1F13702F2E703F801CB01467C
:10992000F2E76E2A1CD00ED8622A13D007D82F2A4D
:1099300011D05C2A0FD0222A0DD0002023E0662A05
:10994000FBD10C2207E0722A0DD0742AF5D183F8DE
:1099500000A001E008221A70A11C01330846D3E7D9
:109960004FF00A02F7E783F80090F5E7A14206D02E
:10997000641A1846224601F019FF03462344A3EB5C
:109980000803BB600120BDE8F88FBCF17F0FC4D98C
:109990002146B9E7F8B50446154600EB0116002745
:1099A000B44210D02378032B08D129462046FFF774
:1099B00069FF48B1A368EF541034F1E7002BFBD1E5
:1099C000A268AB54F8E70120F8BD000038B50023C9
:1099D000C0E9003304460E48C4E90203A9B10B787C
:1099E000032B06D08BB9136858684B68C35C6E2B89
:1099F00007D013684D6858688B6828445B1BA060CB
:109A0000E36011462046FFF7B4FE204638BD00BF94
:109A100040E60D0038B500250B46C0E90055C0E909
:109A20000255C0E90455044611464BB11A78012A83
:109A300006D103F11002DB6882604361FFF799FEF3
:109A4000204638BD10B54369044663B18068E060C4
:109A5000013B1030A0602061636113B1FFF7FEFD90
:109A6000A060012000E0184610BD10B57D2104461D
:109A7000FFF773FE01232371204610BD08B503795B
:109A8000012B02D0022B04D008BD2C21FFF765FE6C
:109A9000FAE73A21FAE710B50446FFF7EFFF204650
:109AA0007B21FFF75AFE00232371204610BD0000E2
:109AB00038B504460D46FFF7E1FF23689B683DB1CA
:109AC000054904222046984701232371204638BDCA
:109AD00002490522F6E700BFCEE40D00C8E40D0000
