:02000002D0002C
:1040000000400D000CF50D00000006000C0005013D
:084010000401BD0B00000000DB
:04401800FCD60D00C5
:1040200009480A49884208B505D0094A824202D0A7
:10403000121A07F011FC0748074A0021121A07F06C
:1040400033FC014808BD00BF30DC032024F20D0022
:10405000ECDE0320F0DE0320F8E7032070B5074E06
:10406000074C06F075FCA41BA4080025A54200D14E
:1040700070BD56F8043B98470135F7E7A4E80D00FA
:10408000D8E80D0002F09EB808B501F019FFBDE8B0
:10409000084006F01FBC04F045BE04F043BE04F027
:1040A00049BE04F047BE000008B5034A00210C20B9
:1040B00004F0F2FCFEE700BFC9870D000078B0FAFB
:1040C00080F040097047012303707047002070475B
:1040D000704700207047006970470120704700005A
:1040E000014B01221A707047E9E503200368184765
:1040F000012A03D0022A03D0002070470160FBE7A9
:104100000B680360F8E7012A08BF016000207047D0
:104110007047012A08BF01600020704702F0C0BC50
:1041200008B5044906F018F818B1034B03221A70B9
:10413000012008BD4BD70D00B5E5032010B5C2B076
:1041400000680A2201A908F0E3FA431E062B044680
:1041500031D801280AD1194B1949187702A807F05C
:10416000D9FB184B1C70204642B010BD022804D168
:10417000124B154901245C77F0E7032804D10F4B5B
:10418000124901249C77E9E7042804D10B4B10491C
:104190000124DC77E2E7052805D1084B0D4901240D
:1041A00083F82040DAE7062805D1044B0A490124A8
:1041B00083F82140D2E70024D5E700BFB8E503200B
:1041C0004DD70D00E8E5032060D70D0073D70D0033
:1041D00088D70D009CD70D00B0D70D00436913B1EF
:1041E00083690C301847704710B5034B03600446D1
:1041F00004F01CF8204610BDDCDE0D0010B50446AE
:10420000FFF7F2FF2046382106F0B1FC204610BD32
:1042100010B5034B0360044603F038FA204610BD86
:1042200004DF0D0010B50446FFF7F2FF2046102111
:1042300006F09DFC204610BD13B50021044608463B
:1042400004F04AFA0023204601A9019304F05CFA25
:10425000019C0CB1012323710021012004F03CFAE0
:104260002CB1236820469B6898470023237102B035
:1042700010BD000010B50B7890B00C462BB9184952
:10428000684607F047FB10B010BD084607F0BFFABC
:10429000C8280ED11349684607F03CFB06F033F9F5
:1042A000114B9861114B01221A70114B00221A70A8
:1042B000E9E7204607F0ABFAC928EBD0204607F023
:1042C000A6FA42F20F739842DDDC204607F09FFA0F
:1042D000084A03464021684604F044FDD3E700BF86
:1042E000C3D70D00CBD70D00B8E50320E8E50320C8
:1042F0005FDF0320DDD70D0010B50446006808B16C
:1043000004F018FD204610BD0023042204F042BC36
:1043100010B58368044613B103220146984720462E
:1043200010BD000037B5134B036004468068C8B168
:1043300000256FF00043CDE9003502212B462A46C7
:1043400004F0EAF9A068294604F01EFA237903F084
:10435000FF0513B104F0B8F9F8E7A068294604F0A6
:10436000CBF9A56004F10C00FFF7D2FF204603B0A3
:1043700030BD00BFC8DE0D0010B50446FFF7D2FF08
:1043800020461C2106F0F3FB204610BD02460148E2
:1043900004F0D5BDF78E0D0007B508220023ADF857
:1043A00000204FF47A710122019241436A46184677
:1043B000ADF8023004F046FC03B05DF804FB07B52D
:1043C00080680B46002140B1CDE900210A46032157
:1043D00004F0A2F9B0FA80F0400903B05DF804FBE4
:1043E00013B504460846019107F0B9FA019902464F
:1043F000204602B0BDE8104005F034BC13B50446B9
:104400000846019107F0ABFA01990246204602B036
:10441000BDE8104005F036BC0EB410B58DB00FAA43
:10442000016852F8044B039200232020CDE90403D5
:10443000CDE900421E2004AA04F046FB0DB0BDE801
:10444000104003B0704737B504689DF818508DF8D8
:1044500000308DF80450E4683C23A04703B030BD21
:1044600037B51C49054605F077FE044600B31A4CE3
:10447000012360686370FFF78FFF636817484FF48C
:104480007A716FF000425943FFF799FF04F0A2FBE5
:1044900048B100238DF80030114B124A1B781249A5
:1044A0001248FFF7D0FF124B0120187003B030BD47
:1044B0001049284605F050FE0028F7D0064B5C70E6
:1044C00004F088FB0028EED0054B8DF800401B78E7
:1044D000094AE4E74BD70D00B8E50320C0E3032009
:1044E0003DDF0320FAD70D008AD80D00E0E303205A
:1044F000E8E503207AE40D000FD80D0010B5C4B034
:1045000000680A2203A908F003F9B0F5966F22D8D3
:10451000124C6060FFF740FF636811484FF47A71F6
:1045200059436FF00042FFF74AFF63680D4A4FF4AA
:10453000807104A804F016FC00238DF800300A4BAB
:104540000A491B780A4804AAFFF77DFF094B01209E
:10455000187044B010BD0020FBE700BFB8E5032091
:10456000C0E3032023D80D003DDF03203CD80D001D
:10457000E0E30320E8E5032000B589B0039005F0EF
:10458000FDFD0E4B0399BDEEC00A04A883ED090A98
:1045900005F086FD00238DF80030094B049A1B7846
:1045A00008490948FFF74FFF04A805F00BFD074B2A
:1045B0000120187009B05DF804FB00BFB8E50320C6
:1045C0003DDF032047D80D00E0E30320E8E50320AA
:1045D00037B51649054605F0BFFD044688B1144BB2
:1045E000144A1549154801245C7200238DF80030E7
:1045F000134B1B78FFF727FF124B20461C7003B0AC
:1046000030BD1149284605F0A7FD0028F7D0084B1A
:104610000E4A5C720A4B8DF800401B780649074829
:10462000FFF711FF074B01201870E8E74BD70D008B
:10463000B8E5032069D80D008AD80D00E0E3032017
:104640003DDF0320E8E503207AE40D007AD80D0071
:1046500030B5C5B000680A2203A908F059F8431E16
:10466000062B04464FF0000542D8012813D1214BF8
:1046700021491D7704A807F04DF9204B8DF8005013
:104680001B781F491F4804AAFFF7DDFE1E4B1C7054
:10469000204645B030BD022810D1164B1B495D772E
:1046A00004A807F037F9154B8DF800501B78144912
:1046B000144804AAFFF7C7FE0124E7E7032803D143
:1046C0000C4B13499D77EBE7042803D1094B1149A3
:1046D000DD77E5E7052804D1064B0F4983F8205024
:1046E000DEE7062804D1034B0C4983F82150D7E7B5
:1046F0002C46CDE7B8E503208FD80D003DDF032021
:10470000A3D80D00E0E30320E8E50320B1D80D00B5
:10471000C5D80D00DBD80D00F0D80D0005D90D006F
:1047200000B5C5B000680A2203A907F0F1FF04280C
:1047300018D80D4B0D4A98624FF48071034604A8B7
:1047400004F010FB00238DF80030094B09491B7859
:10475000094804AAFFF777FE084B0120187045B0FE
:104760005DF804FB0020FAE7B8E5032019D90D0035
:104770003DDF03208AD80D00E0E30320E8E50320B5
:104780001FB50A22006803A907F0C2FF01280446EA
:104790004FF0000311D18DF80030094B094A1B7806
:1047A00009490A48FFF74FFE41F2883004F02AFB1E
:1047B00005F02EFD204604B010BD1C46FAE700BFF0
:1047C0003DDF03202BD90D003CDD0D00E0E303208D
:1047D00007B504F0FFF948B100238DF800300E4B07
:1047E0000E4A1B780E490F48FFF72DFE0E4A0F4860
:1047F0007823536040F201131380002353729372A5
:1048000001214FF41673C2E90931302303B05DF87A
:1048100004EB02F0DEBF00BF3DDF032040D90D00F6
:104820008AD80D00E0E30320B8E50320B0E30320BD
:1048300007B504F0CFF948B100238DF800300B4BD9
:104840000B4A1B780B490C48FFF7FDFD0B4A0C4B3C
:104850000C48136053609360D36013615361A021CF
:10486000182303B05DF804EB02F0B3BF3DDF032073
:1048700058D90D008AD80D00E0E3032038E4032066
:10488000CDCCB542B0E3032010B5154C237A012BF3
:1048900004D904F09FF900B3012323726368114A1D
:1048A000B3F5966F84BF4FF416736360637A012B80
:1048B00084BF01236372A37A012B84BF0023A372F8
:1048C0006369FF2B84BF00236361A36A052B4FF04C
:1048D0000103137088BFA36210BD2072DEE700BF22
:1048E000B8E50320E8E50320334BD3ED007AF5EE7D
:1048F000C07AF1EE10FA06D49FED307AF4EEC77A62
:10490000F1EE10FA01DD2E4A1A60D3ED017AF5EED0
:10491000C07AF1EE10FA06D49FED287AF4EEC77A49
:10492000F1EE10FA01DD264A5A60D3ED027AF5EE77
:10493000C07AF1EE10FA06D49FED207AF4EEC77A31
:10494000F1EE10FA01DD1E4A9A60D3ED037AF5EE1E
:10495000C07AF1EE10FA06D49FED187AF4EEC77A19
:10496000F1EE10FA01DD164ADA60D3ED047AF5EEC5
:10497000C07AF1EE10FA06D49FED107AF4EEC77A01
:10498000F1EE10FA01DD0E4A1A61D3ED057AF5EE6B
:10499000C07AF1EE10FA06D49FED087AF4EEC77AE9
:1049A000F1EE10FA01DD064A5A61034A0548182360
:1049B000A02102F00EBF00BF38E4032000803B4579
:1049C000ECD1B542B0E3032007B50121052006F084
:1049D00058F80021052006F054F8094A0023137006
:1049E000084A527A42B18DF80030074B074A1B78CB
:1049F00007490848FFF727FD03B05DF804FB00BF37
:104A0000E9E50320B8E503203DDF032077D90D0059
:104A10007ED90D00E0E3032030B5114D114C124951
:104A20002A7820788DB01A2303FB0212009203FB30
:104A300000130E4A282102A804F094F92B78237061
:104A400004F0C8F848B100238DF80030084B09493C
:104A50001B78094802AAFFF7F6FC0DB030BD00BF75
:104A6000B5E50320DCE3032040DC032087D90D00FB
:104A70003DDF032095D90D00E0E3032030B50D4D57
:104A80000FCD89B001AC0FC495E807000A4B84E84C
:104A900007001B7C094808AA02EB8303102153F886
:104AA0001C3C074A04F05EF9064B01221A7009B05B
:104AB00030BD00BF6CDF0D00B8E503203EDF0320F2
:104AC000FCE10D00E8E503202DE9F04F4FEA8009F5
:104AD00009F1070483B004F4FF6402AFADEB040DE9
:104AE00002ADAC464FF0000E4CF804EB0238002843
:104AF0002ADADFF868B0DFF868A00C4690461E4658
:104B0000A9444D4524D0D4E902018DE8030058465C
:104B100094E80C0001F084FE51EC100B06F0E0FD6F
:104B200048F8040B45F8040B06F0B2FADAE9002362
:104B300006F006FB084B002206F02CFC06F0D0FD28
:104B4000103446F8040BDCE74CF804EB0138CEE7F0
:104B50000437BD46BDE8F08F00408F40F8DE0320EB
:104B600038DC03202DE9F0472DED068B8C4C8D4B66
:104B7000206893F800A0A8B0CDF800A006F088FA4D
:104B8000894B41EC1A0B93F80090CDF81090CDE9C9
:104B90000201606806F07CFA844B41EC190B93F833
:104BA0000080CDF82080CDE90601A06806F070FAFB
:104BB0007F4B41EC180B1D780C95CDE90A01E0689C
:104BC00006F066FA7B4B06461B78206910930F4669
:104BD000CDE90E6706F05CFA774BCDE912011B7840
:104BE0006069149306F054FA744C2495744DCDF812
:104BF00060A00023CDE916018DED1AAB8DED1E9B53
:104C00008DED228BCDE92667CDF87090CDF88080B0
:104C100084F8A030FFF732FFA86A01284AD12B7F21
:104C20004BB168484FF4B96102F0C6FC51EC100B6F
:104C300006F056FD20606B7F4BB163484FF4B961BD
:104C400002F0BAFC51EC100B06F04AFD6060AB7F3D
:104C50004BB15E484FF4B96102F0AEFC51EC100B61
:104C600006F03EFDA060EB7F4BB159484FF4B961AF
:104C700002F0A2FC51EC100B06F032FDE06095F85A
:104C800020304BB153484FF4B96102F095FC51EC20
:104C9000100B06F025FD206195F82130E3B14E4858
:104CA0004FF4B96102F088FC51EC100B06F018FDCE
:104CB000606111E002283AD104F1540304F1480282
:104CC00069460320FFF700FF04F16C0304F1600262
:104CD0000CA90320FFF7F8FE404E012232706A7FD4
:104CE000002A7DD0D4ED017AB7EE007AF4EEC77ACF
:104CF000F1EE10FA74DD94ED0D7AF4EEC77AF1EE70
:104D000010FA06D494ED077AF4EEC77AF1EE10FAB1
:104D100066DD012584F8A05005F0F5FB3570C4F878
:104D20009800284628B0BDEC068BBDE8F087032824
:104D300029D104F1540304F148026946FFF7C4FE87
:104D4000EB7FEBB122484FF4B96102F035FC51EC36
:104D5000100B06F0C5FCE06095F82030EBB11D4863
:104D60004FF4B96102F028FC51EC100B06F0B8FCCE
:104D7000206195F82130002B91D100236361ABE7CE
:104D80000023E360E8E70428A6D104F1880304F1D6
:104D9000780218A9FFF798FEDEE700232361E8E711
:104DA00038E4032030DC032031DC032032DC032034
:104DB00033DC032034DC032035DC032050E4032003
:104DC000B8E5032060DF032018E00320D0E00320D3
:104DD00088E1032040E20320F8E20320F4E403200A
:104DE0002B7FBBB1D4ED007AB7EE007AF4EEC77A30
:104DF000F1EE10FA0EDD94ED0C7AF4EEC77AF1EED6
:104E000010FA86D494ED067AF4EEC77AF1EE10FA31
:104E10003FF77FAFAB7FC3B1D4ED027AB7EE007A34
:104E2000F4EEC77AF1EE10FA0FDD94ED0E7AF4EE9F
:104E3000C77AF1EE10FA3FF56CAF94ED087AF4EE14
:104E4000C77AF1EE10FA3FF764AFEB7FC3B1D4ED50
:104E5000037AB7EE007AF4EEC77AF1EE10FA0FDDBE
:104E600094ED0F7AF4EEC77AF1EE10FA3FF551AFF8
:104E700094ED097AF4EEC77AF1EE10FA3FF749AFF4
:104E800095F82030C3B1D4ED047AB7EE007AF4EE91
:104E9000C77AF1EE10FA0FDD94ED107AF4EEC77ACE
:104EA000F1EE10FA3FF535AF94ED0A7AF4EEC77AD9
:104EB000F1EE10FA3FF72DAF95F8210000283FF4EE
:104EC00031AFD4ED057AB7EE007AF4EEC77AF1EEA1
:104ED00010FA0FDD94ED117AF4EEC77AF1EE10FAC4
:104EE0003FF517AF94ED0B7AF4EEC77AF1EE10FAB6
:104EF0003FF70FAF002015E710B5204C206806F0F3
:104F0000C7F81F4B41EC100B19781E4802F04AFB02
:104F1000606806F0BDF81C4B41EC100B19781B487B
:104F200002F040FBA06806F0B3F8194B41EC100BFF
:104F30001978184802F036FBE06806F0A9F8164B1D
:104F400041EC100B1978154802F02CFB206906F093
:104F50009FF8134B41EC100B1978124802F022FB1A
:104F6000606906F095F8104B41EC100B19780F486A
:104F700002F018FB0E4B01221A7010BD38E403201A
:104F800030DC032060DF032031DC032018E0032045
:104F900032DC0320D0E0032033DC032088E103204F
:104FA00034DC032040E2032035DC0320F8E2032058
:104FB0005EDF032013B5224C206806F069F8214A11
:104FC000CDE900012021204803F0CCFE606806F006
:104FD0005FF81E4ACDE9000120211D4803F0C2FE02
:104FE000A06806F055F81B4ACDE9000120211A48B7
:104FF00003F0B8FEE06806F04BF8184ACDE900016E
:105000002021174803F0AEFE206906F041F8154A4A
:10501000CDE900012021144803F0A4FE606906F0E8
:1050200037F8124ACDE900012021114803F09AFE19
:10503000FFF762FF0F4B01221A7002B010BD00BFD4
:1050400038E40320A6D90D0035E50320B4D90D00BE
:1050500095E50320C1D90D0075E50320D1D90D00D8
:1050600015E50320EED90D00F5E403200BDA0D0061
:1050700055E503205EDF032000B589B0039005F0FD
:105080007DF80D4B039983ED000A04A805F008F89C
:1050900000238DF80030094B049A1B780849094811
:1050A000FFF7D1F904A804F08DFFFFF783FF01207B
:1050B00009B05DF804FB00BF38E403203DDF0320A6
:1050C00027DA0D00E0E3032000B589B0039005F076
:1050D00055F80D4B039983ED010A04A804F0E0FF95
:1050E00000238DF80030094B049A1B7808490948C1
:1050F000FFF7A9F904A804F065FFFFF75BFF0120A3
:1051000009B05DF804FB00BF38E403203DDF032055
:1051100042DA0D00E0E3032000B589B0039005F00A
:105120002DF80D4B039983ED020A04A804F0B8FF93
:1051300000238DF80030094B049A1B780849094870
:10514000FFF781F904A804F03DFFFFF733FF0120CA
:1051500009B05DF804FB00BF38E403203DDF032005
:105160005DDA0D00E0E3032000B589B0039005F09F
:1051700005F80D4B039983ED030A04A804F090FF92
:1051800000238DF80030094B049A1B780849094820
:10519000FFF759F904A804F015FFFFF70BFF0120F2
:1051A00009B05DF804FB00BF38E403203DDF0320B5
:1051B0007ADA0D00E0E3032000B589B0039004F033
:1051C000DDFF0D4B039983ED040A04A804F068FF8A
:1051D00000238DF80030094B049A1B7808490948D0
:1051E000FFF731F904A804F0EDFEFFF7E3FE01201C
:1051F00009B05DF804FB00BF38E403203DDF032065
:1052000096DA0D00E0E3032000B589B0039004F0C6
:10521000B5FF0D4B039983ED050A04A804F040FF88
:1052200000238DF80030094B049A1B78084909487F
:10523000FFF709F904A804F0C5FEFFF7BBFE012043
:1052400009B05DF804FB00BF38E403203DDF032014
:10525000B2DA0D00E0E30320F0B5ADF50D7D4FF4BB
:1052600000740CAE22460021304606F01DFB0023E0
:10527000A84A8DF8203007A807920B93CDE909645E
:1052800004F04DFCA44907A8FFF7AAF8044601F072
:105290009BFF4168002900F097800C312046FFF702
:1052A000ADF89E499E4C07A8FFF79AF89D49FFF775
:1052B000A5F89D4907A8FFF793F8A16A05460A22B9
:1052C00003A804F00AFF059A0399284604F0DAFCC3
:1052D00003A804F077FE954907A8FFF781F807A80F
:1052E00004F01DFCA36A012B70D19149914D07A8D0
:1052F000FFF776F8217F04F01FFC8F4907A8FFF71E
:105300006FF80746286805F0C3FE41EC100B3846DD
:1053100004F03CFC894907A8FFF762F8617F04F0BC
:105320000BFC874907A8FFF75BF80746686805F09C
:10533000AFFE41EC100B384604F028FC814907A869
:10534000FFF74EF8A17F04F0F7FB7F4907A8FFF7AE
:1053500047F80746A86805F09BFE41EC100B38465D
:1053600004F014FC794907A8FFF73AF8E17F04F04C
:10537000E3FB774907A8FFF733F80746E86805F02D
:1053800087FE41EC100B384604F000FC714907A879
:10539000FFF726F894F8201004F0CEFB6E4907A81A
:1053A000FFF71EF80746286905F072FE41EC100B66
:1053B000384604F0EBFB694907A8FFF711F894F8A9
:1053C000211004F0B9FB70E0654967E7022B40F05B
:1053D000D7805749574D07A8FFF702F8012104F07D
:1053E000C3FB554907A8FEF7FBFF0746286805F0F1
:1053F0004FFE41EC100B384604F0C8FB4F4907A89C
:10540000FEF7EEFF012104F0AFFB4D4907A8FEF7C0
:10541000E7FF0746686805F03BFE41EC100B384695
:1054200004F0B4FB474907A8FEF7DAFF012104F0B6
:105430009BFB454907A8FEF7D3FF0746A86805F080
:1054400027FE41EC100B384604F0A0FB3F4907A8AB
:10545000FEF7C6FF012104F087FB3D4907A8FEF7D0
:10546000BFFF0746E86805F013FE41EC100B384615
:1054700004F08CFB374907A8FEF7B2FF012104F0C6
:1054800073FB354907A8FEF7ABFF0746286905F00F
:10549000FFFD41EC100B384604F078FB2F4907A8BC
:1054A000FEF79EFF012104F05FFB2E4907A8FEF7DF
:1054B00097FF0746686905F0EBFD41EC100B384695
:1054C00004F064FB07A804F014FB274907A8FEF7C3
:1054D00087FF617804F030FB244907A8FEF780FFBE
:1054E000616804F041FB224907A8FEF779FF616A71
:1054F00004F03AFB07A804F0FCFA00238DF8003012
:105500001C4B1D491B781D483246FEF79CFF0DF5CC
:105510000D7DF0BDB4E40D0051DC0D00CDDA0D00C1
:10552000B8E50320C8DF0D00D5DA0D00E4DA0D0080
:10553000ECDA0D0038E40320FFDA0D0011DB0D007A
:1055400024DB0D0036DB0D004BDB0D005FDB0D00B7
:1055500073DB0D0086DB0D009ADB0D00ADDB0D006B
:10556000F4E50D00C0DB0D00D2DB0D00E2DB0D0029
:10557000ECDB0D003DDF0320FFDB0D00E0E303204B
:10558000032B9FD11849194D07A8FEF729FF0121C8
:1055900004F0EAFA164907A8FEF722FF0746286832
:1055A00005F076FD41EC100B384604F0EFFA114996
:1055B00007A8FEF715FF012104F0D6FA0E4907A847
:1055C000FEF70EFF0746686805F062FD41EC100B20
:1055D000384604F0DBFA094907A8FEF701FF01216C
:1055E00004F0C2FAB1E600BFECDA0D0038E40320A3
:1055F000FFDA0D0011DB0D0024DB0D0036DB0D00A2
:1056000008B5044904F0A8FD10B1FFF725FE0120FC
:1056100008BD00BF4BD70D0038B5046805467CB106
:105620006368013B63605BB9236820469B689847C9
:10563000A368013BA3601BB923682046DB68984739
:10564000284638BD1FB54B6801938B68029304460A
:1056500013B1586801305860CB68039301A9204604
:1056600001F073FB02A8FFF7D7FF204604B010BD7E
:105670001FB501F04BFA094A416801A8FFF7E2FFA4
:1056800001A804F0DFF8044602A8FFF7C5FF1CB923
:1056900003490448FEF7C0FE04B010BD14DC0D0041
:1056A0001ADC0D0014E60320FFF7E2BF10B58AB044
:1056B0000A46014603A8FFF7C5FF039B0193049B1D
:1056C0000599029313B15A6801325A6001AA06A8DB
:1056D00004F0C0F902A8FFF79FFF07A8089CFFF796
:1056E0009BFF04A8FFF798FF20460AB010BD0000FA
:1056F0002DE9F0472DED068BADF5507D02A803F0A6
:1057000071FA4FF4007550AB2A460021184606F096
:10571000CBF8002410ABCDE908054FF480752A467C
:1057200018462146A24E8DF81C400A94069606F0B3
:10573000BBF8CDE90D0506A88DF830400F940B9607
:1057400004F0EDF90BA804F0EAF99A4906A8FEF76F
:1057500047FE06A804F0E3F9974906A8FEF740FEC5
:10576000044601F0D3F994494068FFF79FFF0146D2
:105770002046FEF743FE914906A8FEF731FE044697
:1057800001F0C4F98D494068FFF790FF01462046BB
:10579000FEF734FE8A4906A8FEF722FE044601F011
:1057A000B5F987494068FFF781FF01462046FEF7BB
:1057B00025FE844906A8FEF713FE044601F0A6F96B
:1057C00080494068FFF772FF01462046FEF716FE4B
:1057D0007D4906A8FEF704FE044601F097F97A49D0
:1057E0004068FFF763FF01462046FEF707FE774952
:1057F00006A8FEF7F5FD044601F0E6FC4168002925
:1058000000F0D3800C312046FEF7F8FD7049714E50
:10581000714C06A8FEF7E4FD0299FEF7EFFD06A81D
:1058200004F067F96D4906A8FEF7DAFD06A804F052
:1058300076F9B36A012B354640F0E280337FCBB175
:10584000674906A8FEF7CCFD0646206805F020FC57
:1058500041EC100B304604F099F961490BA8FEF7B2
:10586000BFFD0646206805F013FC41EC100B3046E6
:1058700004F08CF96B7FCBB15A4906A8FEF7B0FD56
:105880000646606805F004FC41EC100B304604F05D
:105890007DF954490BA8FEF7A3FD0646606805F0A4
:1058A000F7FB41EC100B304604F070F9AB7FCBB145
:1058B0004D4906A8FEF794FD0646A06805F0E8FBF2
:1058C00041EC100B304604F061F947490BA8FEF794
:1058D00087FD0646A06805F0DBFB41EC100B304667
:1058E00004F054F9EB7FCBB1404906A8FEF778FDF0
:1058F0000646E06805F0CCFB41EC100B304604F0A6
:1059000045F93A490BA8FEF76BFD0646E06805F03D
:10591000BFFB41EC100B304604F038F995F820300D
:10592000CBB1334906A8FEF75BFD0646206905F0BA
:10593000AFFB41EC100B304604F028F92C490BA8C2
:10594000FEF74EFD0646206905F0A2FB41EC100B68
:10595000304604F01BF995F82130CBB1254906A853
:10596000FEF73EFD0646606905F092FB41EC100B28
:10597000304604F00BF91F490BA8FEF731FD06462F
:10598000606905F085FB41EC100B304604F0FEF831
:10599000194906A8FEF724FDA96A04F0E5F816499E
:1059A0000BA8FEF71DFDA96AD5E014492BE700BF3F
:1059B000B4E40D0028DC0D0014DC0D002DDC0D001E
:1059C00031DC0D003BDC0D0043DC0D004ADC0D003A
:1059D00056DC0D00B8E5032050E4032060DC0D0028
:1059E00067DC0D0071DC0D007BDC0D0087DC0D0039
:1059F00092DC0D009DDC0D008AD80D00F4E50D0051
:105A0000022B40F0A181C04906A8FEF7E9FC05463B
:105A1000A06C05F03DFB41EC100B284604F0B6F8F5
:105A2000BA4906A8FEF7DCFC0546E06C05F030FB41
:105A300041EC100B284604F0A9F8B54906A8FEF77A
:105A4000CFFC0546206D05F023FB41EC100B2846EA
:105A500004F09CF8AF4906A8FEF7C2FC0546206E8C
:105A600005F016FB41EC100B284604F08FF8AA490C
:105A700006A8FEF7B5FC0546606E05F009FB41EC93
:105A8000100B284604F082F8A44906A8FEF7A8FCEB
:105A90000546A06E05F0FCFA41EC100B284604F018
:105AA00075F89F4906A8FEF79BFCB16A04F05CF804
:105AB00095490BA8FEF794FC0546A06C05F0E8FAA2
:105AC00041EC100B284604F061F890490BA8FEF752
:105AD00087FC0546E06C05F0DBFA41EC100B28462C
:105AE00004F054F88A490BA8FEF77AFC0546206DAD
:105AF00005F0CEFA41EC100B284604F047F8854932
:105B00000BA8FEF76DFC0546206E05F0C1FA41ECCE
:105B1000100B284604F03AF87F490BA8FEF760FC0A
:105B20000546606E05F0B4FA41EC100B284604F00F
:105B30002DF87A490BA8FEF753FC0546A06E05F038
:105B4000A7FA41EC100B284604F020F874490BA882
:105B5000FEF746FCB16A04F007F806A803F0C9FF97
:105B60000BA803F0C6FF6F4CDFF8D8A1002506A8EC
:105B700003F0BFFF8DF8005023786B496B4810AAE3
:105B8000FEF761FC8DF8005023786949674850AAF8
:105B9000FEF759FCDAF8000005F07AFA58A3D3E9C9
:105BA00000238046894605F0CBFA05F099FDCAF836
:105BB0003000DAF8040005F06BFA51A3D3E90023B2
:105BC00006460F4605F0BCFA05F08AFDCAF8340017
:105BD000DAF8080005F05CFA02460B4643EC182B95
:105BE00047A3D3E9002305F0ABFA05F079FDCAF825
:105BF0003800DAF80C0005F04BFA02460B4643EC8D
:105C0000192B3FA3D3E9002305F09AFA05F068FDAC
:105C1000CAF83C00DAF8100005F03AFA02460B46E2
:105C200043EC1A2B36A3D3E9002305F089FA05F0DB
:105C300057FDCAF84000DAF8140005F029FA30A33D
:105C4000D3E9002304460D4605F07AFA05F048FD35
:105C5000384BCAF844004FF033324046494605F00D
:105C60006FFA05F03DFD334BCAF818004FF03332A0
:105C70003046394605F064FA05F032FD2D4BCAF87E
:105C80001C004FF0333251EC180B05F059FA05F0B7
:105C900027FD284BCAF820004FF0333251EC190B86
:105CA00005F04EFA05F01CFD224BCAF824004FF017
:105CB000333251EC1A0B05F043FA05F011FD1D4B80
:105CC000CAF828004FF033322046294605F038FA4A
:105CD00005F006FD184ACAF82C0001231370174A74
:105CE000137002F079FD164B186002A804F06AF9EF
:105CF0000DF5507DBDEC068BBDE8F087AFF300805D
:105D00009A9999999999E93FA7DC0D00B2DC0D00A9
:105D1000BDDC0D00C8DC0D00D3DC0D00DEDC0D00A9
:105D20008AD80D003DDF0320F4DC0D00E0E3032002
:105D300009DD0D003333F33FF4E403205FDF03207C
:105D4000ECE5032050E40320032B47D1584906A873
:105D5000FEF746FB0646A06C05F09AF941EC100BE5
:105D6000304603F013FF534906A8FEF739FB0646F9
:105D7000E06C05F08DF941EC100B304603F006FFA6
:105D80004D4906A8FEF72CFB0646206D05F080F96C
:105D900041EC100B304603F0F9FE45490BA8FEF725
:105DA0001FFB0646A06C05F073F941EC100B304662
:105DB00003F0ECFE3F490BA8FEF712FB0646E06C31
:105DC00005F066F941EC100B304603F0DFFE3A496E
:105DD0000BA8FEF705FB0646206D7CE5042B7FF43F
:105DE000BCAE334906A8FEF7FBFA0646A06F05F0E5
:105DF0004FF941EC100B304603F0C8FE2D4906A8C0
:105E0000FEF7EEFA0646E06F05F042F941EC100BA2
:105E1000304603F0BBFE284906A8FEF7E1FA064625
:105E2000D4F8800005F034F941EC100B304603F053
:105E3000ADFE224906A8FEF7D3FA0646D4F8840040
:105E400005F026F941EC100B304603F09FFE18498F
:105E50000BA8FEF7C5FA0646A06F05F019F941EC4C
:105E6000100B304603F092FE12490BA8FEF7B8FA69
:105E70000646E06F05F00CF941EC100B304603F0DC
:105E800085FE0D490BA8FEF7ABFA0646D4F8800054
:105E900005F0FEF841EC100B304603F077FE0749A1
:105EA0000BA8FEF79DFA0646D4F884002FE500BF44
:105EB000A7DC0D00B2DC0D00BDDC0D00E9DC0D003F
:105EC00037B5794C2378013B052B17D8DFE803F071
:105ED000C70365714A94754B5B7A2BB1744B1B7881
:105EE000022B01D0FEF798FD04F00DFB052290FB7C
:105EF000F2F303EB8303984200D1227001F064F9BE
:105F000001F03EF900F002FE00F01BFE694802F0CD
:105F10003DF8694B1B780BB1FEF756FD674C2378B3
:105F20003BB13023614A6648012101F052FC002355
:105F30002370644C237843B1A423634A60484FF430
:105F4000007101F046FC00232370604C23783BB1C4
:105F500018235F4A5A48A02101F03BFC002323701C
:105F600003B030BD514D6A7A2AB1514B1B78052BD5
:105F700001D0FEF751FDFEF7F5FD08B1042308E05E
:105F800004F0C1FA6B6A90FBF3F202FB130313B93E
:105F900003232370B2E70223FBE7444B5B7A2BB168
:105FA000434B1B78032B01D0FEF736FDFEF7DAFDDD
:105FB000E4E73E4B5B7A2BB13D4B1B78042B01D0C1
:105FC000FEF72AFD02F006FE68B104F0ADFA0C28D7
:105FD00005D102F0FFFD10B1002002F01BFEFFF71B
:105FE00087FB0623D5E702F0EDFD0223237002F0C4
:105FF000F3FB384B186081E72C4B5B7A2BB12C4BB1
:106000001B78062B01D0FEF707FD334B1B7843B9F5
:1060100004F079FA052390FBF3F303EB8303984232
:10602000B9D002F0D9FB2D4B1B68C01A4AF6C873D1
:1060300098427FF663AF02F0CFFB264D284A2860D6
:1060400000238DF80030274B27491B782748FEF79F
:10605000FAF90123237002F0BFFB28604EE7144BCE
:106060001B78012B01D0FEF7D7FC02F0B5FB194BD2
:106070001B6803F5922303F578738342BFF43EAFA8
:1060800002F0A8FD48B100238DF80030154B184AE6
:106090001B7818491548FEF7D6F94FF4FA6002F05C
:1060A000B1FE04F0B5F829E7B5E50320B8E5032013
:1060B000DCE303201CE40320E9E50320E8E50320FA
:1060C000B0E30320F4E4032050E403205EDF032068
:1060D00038E4032018E403205FDF0320ECE503200D
:1060E000F4E50D003DDF032015DD0D00E0E30320A6
:1060F0002EDD0D0042DD0D001FB5094B094A1B784E
:106100001278094913438DF8003000223C2302A87D
:1061100003F008F803A8FFF77FFA05B05DF804FB69
:106120003CDF03203DDF032048DD0D0010B5036890
:1061300088B05B6804469847019005F010FC01990F
:10614000024605A803F0C2FDDDE905120023CDE9F2
:106150000533636803936160A368A26004A8049395
:10616000FFF75AFA079BE36006A8FFF755FA08B055
:1061700010BD000010B5044B044640F8043B043049
:10618000FFF74AFA204610BD20DF0D0010B5044687
:10619000FFF7F0FF2046182104F0E9FC204610BD6F
:1061A00013B50B460246D0E900016C4684E80300B3
:1061B00093E8030082E8030094E8030083E8030007
:1061C00002B010BD2DE9F04700219AB0082004F07C
:1061D00047FC0121052004F043FCFEF7F5FB0023FA
:1061E000009301224FF0FF33B149082003F0DAF9A0
:1061F000B04B0AAA03F110051746186859681446EF
:1062000003C40833AB422246F7D119889B78A370A8
:106210002D2221800DF13B000021A74C002605F026
:1062200043FB02A8267002F0DDFC02A906A803F0D9
:1062300037FFA24906A803F07AFFCDE9006633468E
:1062400032469F49006802F0DDFC06A803F0BAFE62
:1062500002A803F0B7FE9B499B48FEF755F89B49FF
:106260009B48FEF751F89B499B48FEF74DF8334693
:106270009A499B48022202F08DFC3346012299493B
:10628000994802F087FC99499948FEF73DF89949E9
:106290009948FEF739F899499948FEF735F8994930
:1062A0009948FEF731F899499948FEF72DF8994930
:1062B0009948FEF729F8334698499948022202F096
:1062C00069FC334602229749974802F063FC9749DC
:1062D0009748FEF75BF897499748FEF757F89749B4
:1062E0009748FEF753F897499748FEF74FF89749B4
:1062F0007D48FEF74BF896499648FEF747F89649D1
:106300009648FEF743F896499648FEF73FF89649B7
:106310009648FEF73BF896499648FEF737F89649B7
:106320009648FEF733F896499648FEF72FF89649B7
:106330009648FEF72BF896499648FEF727F89649B7
:106340009648FEF723F896499648FEF71FF89648B8
:1063500001F016FD3146944801F04FFE00F0D6FBE7
:10636000924B05930546924B0493022202A906A87C
:106370000896FDF7C8FE059B099305F10C01049BE7
:10638000089306A8FFF70CFF089B6A6908926B61E7
:10639000099BAA69099206A8AB61FDF7B9FF854B75
:1063A000EB612C20FDF777FE064610B1824900F024
:1063B000FBFBAE601820FDF76EFE064630B17F494C
:1063C0004FF4807200F060FB7D4B336028466E60B6
:1063D00000F02AFD02A8FDF79BFF00F0F5FE794BC7
:1063E000099306A9784B089300F00AFF06A8FDF769
:1063F0008FFF00F0E9FE754900F06CFF744801F072
:106400005BF90123724806AA002101F097F99DF873
:106410001830162B00F0EA806D4801F057F96D4AEC
:106420006B480423002101F0D4F90123684806AA2F
:10643000002101F083F99DF81830162B29D0012393
:106440002370654DFEF750FAFEF71EFAFEF754FD75
:106450006B78002B00F0E580002002F0CDF94FF0C2
:10646000000A0646002002F0C7F9B0EB060861EB0F
:106470000A09002347F22F524B4508BF4245C0F09E
:10648000C28002F0A7FB002840F0BD8002F092FB22
:10649000E8E700238DF80030504B514A1B785149F2
:1064A0005148FDF7D0FFFEF793F9FEF7C1F9C8E7B1
:1064B000E1400D0088DF0D00B5E503204ADD0D0049
:1064C00075420D00C8DF0D00CDDA0D004EDF032050
:1064D0006FDD0D003EDF032077DD0D00BCE50320FE
:1064E00086DD0D00B9E5032001D80D0035E5032058
:1064F000D5DD0D0095E50320E6DD0D0075E50320F3
:10650000F7DD0D0015E503200ADE0D00F5E403209C
:106510001CDE0D0055E503202EDE0D00DCE503201A
:10652000ECDB0D00E0E5032095DD0D0021410D00C1
:10653000A4DD0D0001560D00B0DD0D00D1450D00AC
:10654000C4DD0D00FD440D003CD80D0061440D007C
:1065500079500D00D1DD0D00C9500D00E2DD0D00B8
:1065600019510D00F3DD0D0069510D0006DE0D001F
:10657000B9510D0018DE0D0009520D002ADE0D0084
:106580003D410D003BDE0D0051460D0049DE0D0082
:1065900021470D00D5DA0D0079450D0058DE0D00BC
:1065A00081470D0074DE0D001CE40320A9560D0088
:1065B00007410D008051010082DE0D0000F4032030
:1065C00048DF0D0011410D0013410D0014F50320AB
:1065D000B0E30320D0DF0D00B8E503203DDF03204A
:1065E00099DE0D00A4DE0D00E0E303201D4A1E48E5
:1065F0001823A02101F0A2F81C4A1B4830230121D6
:1066000001F09CF81DE702F0E5FA6868FDF7C4FEAA
:106610006B6817484FF47A716FF000425943FDF7E9
:10662000CEFEFEF7C7FCFEF79DFA6B7A4BB1002356
:106630008DF800300F4B10491B7810483A46FDF793
:1066400002FF02F0C7FA10B902F0B4FAF9E702F05B
:10665000C1FAFEF701FE23780BB9022323701AB0AA
:10666000BDE8F08738E40320B0E30320B8E5032059
:10667000C0E303203DDF0320B5DE0D00E0E303208F
:10668000F0B54F4B4F4D504E01271F704F4B02221C
:1066900087B01A7004F08EF900231A4642F6D651DC
:1066A00004F090F904F086F900231A460D21002425
:1066B00004F090F9464BAB602C60AC80AC7138466E
:1066C00002F012FA32464349284604F04BFA2146BA
:1066D000384602F019FA3946042002F05DF804F059
:1066E00019FA3D4D014623464FF40052284600F06A
:1066F000D9FF3A4B2B6032463949284604F032FA2A
:1067000004F008FA374D0146284601F041FA2846C0
:10671000354D3649324604F025FA35494FF40062CA
:10672000284601F0ABFE334B2B60324632492846F7
:1067300004F018FA314B0293314B324D0593324B32
:106740000493324B2B602C71AC606C6105F10C0131
:1067500002A8FFF725FD6A69049B6B610492059B03
:10676000AA690592AB612A4A2B464FF47A71CDE9AA
:10677000004405F1080001F0B7FF02A8FDF7C8FDCD
:106780002846244D2449324604F0ECF92146C5E957
:106790001244C5E91544C5E91844C5E91B442C65F4
:1067A000EC65AC666C67102205F1780005F07CF8AA
:1067B0001022214605F1880005F076F807B0F0BDFB
:1067C0003DDF032030DF0320F0DE03203CDF032029
:1067D0000000FFFFF9420D00B0E3032004DF0D00CD
:1067E00011420D001CE40320E0E303201B790D009F
:1067F00040F50320DCDE0D00E9410D00F9600D00DD
:10680000ED400D00C0E30320F1400D00C8DE0D0097
:1068100039420D0050E4032025430D000000000024
:1068200082B02DE9F84F0AA981E80C00344BDFF85B
:10683000D4B00022C0E90423044640F27E654FF044
:10684000000ABDF8280004F035F9D4E90489206075
:1068500004F00CFC42464B4606460F4604F0B8FADC
:1068600052465B4604F06CFC42464B4604F0B2FADA
:1068700002460B46C4E904233046394604F0A8FA20
:1068800002460B46C4E9022304F05AFC02460B46BA
:10689000C4E90623D4E9082304F09CFA013D064626
:1068A0000F46C4E90867CCD1DDE90C0110A3D3E998
:1068B000002304F045FC10A3D3E900238046894659
:1068C0003046394604F066FD41EC100B04F058F9EF
:1068D00000220023C4E9082351EC100B42464B462A
:1068E00004F02EFCBDE8F84F41EC100B02B07047ED
:1068F0006666666666664A3F0000000000F89940DA
:106900000000A0400000303F70477047006914301D
:106910007047012A034602D1016000207047022A15
:1069200004BFD1E90001C3E90001F6E710B5044B4B
:10693000044640F80C3B03F045FB204610BD00BF69
:1069400034E10D0010B50446FFF7F0FF20461C218E
:1069500004F00DF9204610BD10B5054B044640F873
:106960001C3B03F02FFB2046FFF7E0FF204610BD45
:1069700018E10D0010B50446FFF7EEFF20462C216C
:1069800004F0F5F8204610BD13B504460846019101
:1069900004F0E5FF6369013B83420FD92069019947
:1069A000143004F0B7FF23682046DB68984723685B
:1069B0001B6A204602B0BDE810401847002002B014
:1069C00010BD10B442680346541001EB6200D207B8
:1069D00048BF0A591B685DF8044B48BFD358184795
:1069E000022A38B5044607D0032A11D0012A01D162
:1069F0000B682360002038BD0C200D68FDF74BFBB1
:106A000003460028F5D095E8070083E80700F0E783
:106A100000680028EED00C2104F0A9F8EAE770B471
:106A2000036809685C689D681B681268661005EB5E
:106A30006400E40744BFAC59E35870BC1847000039
:106A400010B5064B044640F8243BFDF761FC04F109
:106A50000C00FDF75DFC204610BD00BFD8E00D0026
:106A600010B50446FFF7ECFF2046382104F07FF80C
:106A7000204610BD08B503685B6898470078003869
:106A800018BF012008BD000010B50024C0E9014472
:106A9000C460024C0460C0E9041210BDECE00D00BB
:106AA00070B504460069114D0268AA4206D1037907
:106AB000142B03D1C288A38A9A4211D014263246DD
:106AC000002104F0F1FE23691D6023691E71D4E9E1
:106AD0000432DA80D4E904020021304404F0E4FEF8
:106AE00023682046DB68BDE87040184753DD5172CB
:106AF000054A02600022C0E90122C0E90722426182
:106B0000C2624263704700BFD8E00D0010B5064C6A
:106B100023683BB93820FDF7BEFA034608B1FFF7FA
:106B2000E7FF2360206810BDF4E5032007B501925C
:106B3000FFF7ECFF036801991B6803B05DF804EBF5
:106B4000184710B50446406803681B699847A06859
:106B500010B103685B689847E36A33B1236B214641
:106B600004F12400BDE81040184710BD10B58AB0EC
:106B7000044606A8019102F035F8019B069A0949DE
:106B800002A803F00DFB06A803F01CFA029904F119
:106B90000C0003F090FA02A803F014FA20460AB0A1
:106BA00010BD00BFD4DF0D004FF4FA624EF6602333
:106BB00070B5C0E9012304460C4B40F80C3B0D4670
:106BC00026460B4903F049FA0A4B46F81C3B084994
:106BD000304603F042FA2946304603F06CFA294663
:106BE0002046FFF7C3FF204670BD00BF34E10D0013
:106BF000F4E50D0018E10D00826810B50AB903F044
:106C0000BCFFBDE81040C3681847000038B5044613
:106C10000A460A480D460A49FDF7FEFB6068022352
:106C2000236248B1036829465B69984763691BB1D1
:106C300004F10C00FFF7E0FF012038BD14E603204B
:106C4000E9DF0D001FB50446C26909490948FDF78F
:106C5000E3FB094B094A1B78E1698DF8003002A873
:106C60003C2302F05FFA03A8FEF7D6FC04B010BD87
:106C7000FEDF0D0014E60320F0E50320F4E50D002F
:106C800038B5002383608B6804460D462BB1022281
:106C90009847EB68E360AB68A360204638BD00000E
:106CA00070B58AB0C668044600250C200495FDF72F
:106CB000F2F918B1134B8460C0E90035124B029011
:106CC000059302A9114B049306A8FFF7D9FF089B6F
:106CD00083B11020FDF7DFF9044658B106A9FFF78C
:106CE000CFFF0023CDE90033094901232246304676
:106CF00001F088FF06A8FDF70BFB02A8FDF708FBD3
:106D00000AB070BD2D6B0D001F6A0D00E1690D000A
:106D1000238F0D000B68036013B15A6801325A606B
:106D2000704737B58D6851F8043B0093044601A8BD
:106D3000FFF7F0FF6A462946204602F0AFFE01A8A1
:106D4000FEF76AFC204603B030BD70B58CB0044637
:106D500006A81646FFF7E5FF06A802F0B7FE0028D2
:106D60002DD0099D069B009307A901A8FFF7D2FF2C
:106D700029466A4602A802F06DFE01A8FEF74CFC07
:106D80000498314604F0BCFD054603A8FEF744FC18
:106D9000002DE1D10A9D069B029307A903A8FFF7E6
:106DA000B9FF02AA2946204602F03EFD03A8FEF7DD
:106DB00033FC07A8FEF730FC20460CB070BDC4E9D8
:106DC0000000A060F5E7000010B5D1E9002386B00F
:106DD0000021044604910AB9D90705D5CDE902235B
:106DE0000F4B05930F4B049302AB93E803006A46E5
:106DF00082E8030094E8030083E8030092E80300BC
:106E0000049A84E80300A168A260059A04911846D8
:106E1000E168E2600591FDF77BFA204606B010BDFF
:106E2000C3690D0013690D0013B50446406880B1B5
:106E300003689B689847A06858B103681B68984727
:106E4000054B00936946002304F124000193FFF7EA
:106E5000BBFF02B010BD00BF5D6E0D0013B5044650
:106E60004068FFF707FE28B163691BB104F10C000D
:106E7000FFF7C2FE054B00936946002304F124008E
:106E80000193FFF7A1FF02B010BD00BF916E0D008E
:106E900013B5044601F09EFE90B103F017FB78B1E4
:106EA00008490948FDF7B8FA084B009369460023E2
:106EB00004F124000193FFF787FF01F08DFC60636C
:106EC00002B010BD27E00D0014E60320D16E0D00C6
:106ED00037B5044601F080FC636BC01AA3685B6899
:106EE000984217D36068FFF7C5FD04F1240598B1F7
:106EF000E369013310D00B490B48FDF78DFA01F01F
:106F00006BFC0A4B6063009369460023284601939B
:106F1000FFF75AFF03B030BD05490348FDF77CFA7F
:106F2000044BF0E737E00D0014E60320396F0D0045
:106F300047E00D009D6F0D0037B5044601F04CFC95
:106F4000636BC01A42F20F7398421ED903F0BEFA67
:106F5000D8B1E369002B18DD03F0D5FA0546606867
:106F600003681B6898478068E3692D1A9D420CDD11
:106F700007490848FDF750FA074B0093694600237C
:106F800004F124000193FFF71FFF03B030BD00BFE1
:106F900064E00D0014E603209D6F0D0037B5044634
:106FA0000F491048FDF738FA606803681B68984776
:106FB000054603F0A8FA0123A860236201F00CFC47
:106FC000094B606300936946002304F12400019398
:106FD000FFF7FAFEA06803689B68984703B030BDCE
:106FE0007DE00D0014E60320ED6F0D0013B5036A7C
:106FF000012B04461BD101F0EFFB636BC01AA368A1
:107000009B68984211D90C490C48FDF705FA0423F6
:10701000236201F0E1FB0A4B6063009369460023A1
:1070200004F124000193FFF7CFFE02B010BD054923
:107030000248FDF7F1F9ECE78EE00D0014E60320BD
:10704000396F0D00AEE00D00014B00221A70704741
:10705000F0E503207047012A034602D101600020B9
:107060007047022A04BFD1E90001C3E90001F6E735
:1070700013B504461046019204F071FC636801994F
:1070800002461E2A03F10C0006D804F043FC01233B
:1070900084F8353002B010BD1F2204F07AFC63681A
:1070A000002283F82B20F2E710B442680346541004
:1070B00001EB6200D20748BF0A591B685DF8044B18
:1070C00048BFD3581847022A38B5044607D0032AC8
:1070D00011D0012A01D10B682360002038BD0C209B
:1070E0000D68FCF7D8FF03460028F5D095E80700A7
:1070F00083E80700F0E700680028EED00C2103F0D9
:1071000036FDEAE770B4036809685C689D681B682F
:107110001268661005EB6400E40744BFAC59E358FD
:1071200070BC184710B5064B044640F8203BFDF7ED
:10713000EFF804F11000FDF7EBF8204610BD00BF9A
:1071400068E10D0010B50446FFF7ECFF204638213A
:1071500003F00DFD204610BD10B5034B036004463F
:10716000FFF7E0FF204610BD7CE10D0010B504469E
:10717000FFF7F2FF2046382103F0F9FC204610BD4E
:10718000836A014613B1C36A203018477047000074
:1071900030B5074A0260002400220025C0E90245FC
:1071A0004260826182620263828680F8362030BD4E
:1071B00068E10D0008B50346FFF7EAFF014A1A60CF
:1071C000184608BD7CE10D0010B5064C23683BB99C
:1071D0003820FCF760FF014608B1FFF7EBFF2160A4
:1071E000206810BDFCE5032007B5826801910AB94B
:1071F00003F0C3FCC36801A9984703B05DF804FB22
:107200007FB5002302938B6804460D4600F11006FB
:1072100033B1022268469847EB680393AB68029348
:1072200031466846FEF7BCFF029BA269A361039B3F
:1072300002926846E269E3610392FDF769F820462D
:1072400004B070BD1FB5D1E90023002104460291AE
:107250000AB9D90705D5CDE900230B4B03930B4B96
:10726000029321466846FEF79BFF029BA268A3603B
:10727000039B02926846E268E3600392FDF748F8D8
:10728000204604B010BD00BFA9700D0057700D005E
:1072900073B5044640680D4D0268AA4202D10379D5
:1072A0002C2B08D02C263246002104F0FDFA63680E
:1072B0001D6063681E71064B00936946002304F14C
:1072C00020000193FFF7BEFF02B070BDF2A28777E6
:1072D000DD720D004160FFF7DBBF000037B541688C
:1072E0000B7B044600F1200593B183691BB10C317F
:1072F0001030FFF779FF0A4B0093694600232846B8
:107300000193FFF79FFF01F067FA206303B030BDE0
:10731000044A69462846CDE90023FFF793FFF5E7C5
:1073200079740D0001750D0013B5044601F052FC8F
:1073300070B103F0CBF858B1064B009369460023B7
:1073400004F120000193FFF77DFF01F045FA20636F
:1073500002B010BD59730D0030B5054685B001F07F
:107360003BFA2B6BC01AB0F5FA6F29D3154B1649AF
:107370001B788DF80030002285F835203C2302A8C8
:1073800001F0D0FE039C7CB16368013B63605BB994
:10739000236820469B689847A368013BA3601BB9FC
:1073A00023682046DB689847084B029302A9002314
:1073B00005F120000393FFF745FF01F00DFA286364
:1073C00005B030BDF8E5032048E10D00D1730D0094
:1073D00073B590F8355004461DB34668337B00F111
:1073E0002005DBB103F08FF8B060236820469B686E
:1073F0009847A3692BB1616804F110000C31FFF7C5
:10740000F3FE0F4B00930023019369462846FFF7D4
:1074100019FF01F0E1F9206302B070BD094A009242
:10742000F2E701F0D9F9236BC01A43F6972398428B
:10743000F2D9044B6946CDE9003504F12000E6E7B6
:1074400079740D0049740D0013B5044601F0C4F9B8
:10745000236BC01A064B984208D9064B0093694625
:10746000002304F120000193FFF7ECFE02B010BDF1
:10747000DF93040029730D00F7B5044601F0ACF961
:10748000236BC01A42F20F7398421ED901F0A4F97F
:1074900094F8365020635DB1184A0023CDE90023EB
:1074A00084F83630694604F12000FFF7CBFE0CE08B
:1074B000D4E9022313430AD1A36A33B104F12001B2
:1074C000032208469847C4E90A5503B0F0BD02F00C
:1074D000FDFF0028F9D06368D4E902679B68F618BD
:1074E00047EBE37703F00FF8C117864277EB010310
:1074F000EBDA024BCDE90035D4E700BF01750D0092
:1075000030B590F834508BB004466DBB0C20049518
:10751000FCF7C1FD18B11A4B8460C0E90035194B66
:107520000290059302A9184B049306A8FFF7A8FB45
:10753000089B83B11020FCF7AEFD054658B106A9A3
:10754000FFF79EFB0023CDE90033104910480123CB
:107550002A4601F057FB06A8FCF7DAFE02A8FCF762
:10756000D7FE012384F834300A4B069306A9002382
:1075700004F120000793FFF765FE0BB030BD00BF9C
:1075800071700D0005710D00C7700D00238F0D0087
:1075900048E10D0029730D00014B00221A7070475D
:1075A000F8E50320034BC162002280ED0E0BC0E919
:1075B0001C2370470000A0402DE9F74FDFF8C8B04A
:1075C0000191044600254FF0000A019B9D422FD0F7
:1075D000A08D03F06FFAD4E91C89E06403F046FD46
:1075E00042464B4606460F4603F0F2FB52465B46C8
:1075F00003F0A6FD42464B4603F0ECFB02460B4669
:10760000C4E91C233046394603F0E2FB02460B4630
:10761000C4E9182303F094FD02460B46C4E9242371
:10762000D4E9260103F0D6FB0135C4E92601CCE7F5
:1076300013A3D3E90023D4E90E0103F081FD06462C
:1076400028460F4603F002FD02460B46D4E9260108
:1076500003F0A0FE41EC100B03F092FA32463B46D9
:1076600051EC100B03F06CFD41EC100B00220023D9
:10767000C4E90801C4E9262303B0BDE8F08F00BFC8
:107680006666666666664A3F0000303F704710B522
:107690001021044603F06BFA204610BD0368C9B2FE
:1076A0009B68184730B5034DC0E90223C0E900517B
:1076B00030BD00BFBCE10D00406801F025BF10B532
:1076C0000446006801F063FF204610BD2DE9F0413B
:1076D0008AB004464068019001F050FF1E2200214C
:1076E00002A8A76804F0E0F80026EFB123681E2F77
:1076F000B84628BF4FF01E08DD6802AA434631464F
:107700002046A847054658B90A480B493246FCF7B7
:1077100083FE01A8FFF7D3FF28460AB0BDE8F08139
:10772000A7EB08074644E0E701A8FFF7C8FF0125DB
:10773000F2E700BF14E6032088E10D002DE9F743CE
:107740000446406801900D4616461F4601F016FF9C
:10775000A7B1E168606841F0500101F008FF290A13
:107760006068FFF79BFF29466068FFF797FF606836
:10777000002101F0FFFE48B1002400E0012401A82F
:10778000FFF79DFF204603B0BDE8F083202F217B4B
:107790006068B84628BF4FF020080123424641F0F8
:1077A000500101F0CEFE03F0B5F903681B6998475C
:1077B0004045E1DB06EB080903F0ACF903685B69BF
:1077C000984706F8010B4E45F6D14544A7EB08074C
:1077D000BEE72DE9F74F0446406801900E469046FB
:1077E0001D4601F0CBFE4FF00109B9F1000F2AD080
:1077F0004DB3E168606841F0500101F0B8FE310A14
:107800006068FFF74BFF60683146FFF747FFA5F15F
:107810001E0A4746A6EB080B606817F8011B0368B1
:10782000013D9B68984755450BEB0706B84601D0CC
:10783000002DF1D16068012101F09CFE0028D7D015
:107840004FF00009D1E701A8FFF739FF484603B020
:10785000BDE8F08F2DE9F0438BB00E46154680460B
:10786000406801901C4601F089FEAE4229D22644B0
:1078700025448CB11E2C2746D8F8003028BF1E277F
:10788000F61BD3F8089002AA3B4631464046ED1B52
:10789000C84748B9002400E0012401A8FFF70FFF02
:1078A00020460BB0BDE8F083D8F8003002AAD3F828
:1078B0000C9029463B464046C8470028EAD0E41BC6
:1078C000D7E7E9D9002CE7D0D8F800301E2C27469E
:1078D00028BF1E27D3F8089002AA3B4631464046EF
:1078E000C8470028D6D0D8F8003002AAD3F80C90A8
:1078F00029463B464046C8470028CBD03E443D443D
:10790000E41BDFE74020704700207047802070476D
:10791000FF207047704770477047704710B51421BB
:10792000044603F024F9204610BD10B50821044692
:1079300003F01DF9204610BD10B50821044603F0E0
:1079400016F9204610BD10B51C21044603F00FF9AE
:10795000204610BD2DE9FF410368DB6804469847C7
:1079600010220146684603F09FFF236820469B686B
:107970009847002507462846BD420ED27E1B236845
:10798000102E28BF1026D3F818806A4633462946A1
:107990002046C04708B13544EEE704B0BDE8F081A9
:1079A0004FF48073438140F20113C36000230382CC
:1079B0007047000008B5064B0360064B436040F279
:1079C0000473038100234374FFF7EAFF08BD00BF7F
:1079D0009CE20D000001020303090A2200F00F00DF
:1079E00002FB0300704708B5807AFFF7F5FF00F54A
:1079F000FA6008BDC07A00F01F00FFF7EDBF007B02
:107A000000F03F00FFF7E8BF08B5817B4A060DD5BF
:107A100001F01F00FFF7E0FF8B0603D50C2800D014
:107A20000C3008BD0C2808BF0020FAE7BDE808406C
:107A300001F03F00FFF7D0BFC07B00F07F00FFF7F1
:107A4000CBBF007C00F07F00FFF7C6BF10B58AB047
:107A500024220446002101A803F026FF2046FFF758
:107A6000C2FFA0F26C7006902046FFF7C3FF0138FA
:107A700005902046FFF7C3FF04902046FFF7C4FFA0
:107A800003902046FFF7D8FF02902046FFF7D9FF6A
:107A9000019001A801F0AEF90AB010BD0A2190FBD7
:107AA000F1F292FBF1F301FB13231B01DBB201FBAB
:107AB00012001843C0B27047642310B5044691FB0E
:107AC000F3F000FB1310FFF7E9FFA07210BD10B533
:107AD00004460846FFF7E2FFE07210BD10B5044609
:107AE0000846FFF7DBFF237B23F03F031843207397
:107AF00010BD10B50446481CFFF7D0FF637B23F090
:107B000007031843607310BD10B504460846FFF71D
:107B1000C5FFA07310BD10B504460846FFF7BEFFB1
:107B2000E07310BD10B504460846FFF7B7FF237C8D
:107B300023F07F031843207410BD37B50446684610
:107B4000CDE9002303F076FE054641692046FFF7A4
:107B5000B3FF296920460131FFF7B9FFE9682046E4
:107B6000FFF7BCFFA9692046FFF7C3FFA9682046BD
:107B7000FFF7CAFF69682046FFF7CDFF29683B2958
:107B8000A8BF3B212046FFF7CDFF03B030BD00006A
:107B9000054A0061C0E90021044A8260044AC260CB
:107BA000044A806142617047D0E20D000000010389
:107BB00078E20D00ACE20D002DE9F84F04460F46C7
:107BC0009046994600260A9B9E4231D2606839460B
:107BD00001F0C9FC08EB06016068FFF75FFD606813
:107BE000002101F0C7FC0546D0B90A9B60689A1BCA
:107BF000202A4FF0010328BF2022394601F0A1FCC2
:107C000009EB060B05460BEB000ADA4506D0606867
:107C100003685B6998470BF8010BF6E72E44D2E73F
:107C2000024604490448FCF7F7FB2846BDE8F88FF4
:107C30000025FAE7D0E10D0000E603202DE9F3412D
:107C400001EB03081E4603689B6805460C46174671
:107C5000984780450DD82034686800963B46E2B2CC
:107C60006F21FFF7A9FFB0FA80F0400902B0BDE82C
:107C7000F0810020FAE72DE9F34101EB03081E46ED
:107C800003689B6804460D461746984780450CD804
:107C9000606800963B46EAB25721FFF78DFFB0FAC5
:107CA00080F0400902B0BDE8F0810020FAE77FB51E
:107CB0001E1E0CBF072306230093144602AB0A4680
:107CC0006F21FFF779FF0546A8B99DF808302374A6
:107CD0009DF80930E3739DF80A30A3739DF80B30CB
:107CE00063739DF80C3023739DF80D30E3722EB949
:107CF0009DF80E30A372284604B070BD02F020FC3F
:107D0000FFF7CCFEA072F6E71FB501230A460093E9
:107D10006F2103ABFFF750FF20B99DF80C0005B0B1
:107D20005DF804FB0020FAE708B50321FFF7ECFF3C
:107D3000C0F3401008BD38B500230C460A4619466A
:107D40000546FFF7B4FF30B9A37A23B12846BDE852
:107D50003840FFF7E9BF002038BD7FB5024601A8D3
:107D6000FFF728FE01A91046FFF7E5FF28B101A89B
:107D7000FFF76CFE07B05DF804FB00200146F9E751
:107D8000D0B5044686B0406801F0BEFB02F09EFB11
:107D9000E8B9E37A9B071AD52046FFF7DEFF0646CF
:107DA0000F4656EA070312D002F097FA0A4B0B4926
:107DB0001B68009332463B4602A802F045FB084888
:107DC000029A0849FCF728FB02A802F0FBF80123FD
:107DD000237206B0D0BD00BF10DD032040E60320B3
:107DE00000E60320EAE10D002DE9F84F064688463B
:107DF00091469A4600250A9B9D4229D270684146C9
:107E000001F0B1FB706809EB0501FFF747FC0A9B25
:107E10005F1B1F2F28BF1F270AEB050407EB040B6E
:107E2000706814F8011B026892689047A345F7D167
:107E30007068012101F09EFB044638B102460549F5
:107E40000548FCF7E9FA2046BDE8F88F3D44D2E743
:107E50000024F8E7FFE10D0000E603202DE9F341DF
:107E600001EB03081E4603689B6805460C4617464F
:107E7000984780450DD82034686800963B46E2B2AA
:107E80006F21FFF7B1FFB0FA80F0400902B0BDE802
:107E9000F0810020FAE71FB5137C8DF80830D37B02
:107EA0008DF80930937B8DF80A30537B8DF80B30B9
:107EB000137B8DF80C30D37A8DF80D30937A8DF8D2
:107EC0000E30072300930A4602AB6F21FFF78CFFA9
:107ED00005B05DF804FB10B588B0044603A8019313
:107EE000FFF768FD019B03A8FFF727FE9DF81C30F4
:107EF000A27A63F07F038DF81C309DF819306AB1C7
:107F000043F0080303AA002120468DF81930FFF73B
:107F1000C2FFB0FA80F0400908B010BD03F0F703CB
:107F2000F0E70000F0B587B0054602F0CFFA04464E
:107F3000E8B102F0E8FAC717024606463B46284673
:107F4000FFF7C9FF0C4B0D491B68009332463B46B7
:107F5000044602A802F078FA0948029A0949FCF797
:107F60005BFA02A802F02EF8204607B0F0BD0649E1
:107F70000348FCF751FAF7E710DD032040E6032041
:107F800000E603201AE20D0030E20D0037B5457A15
:107F900004469DB902F09AFA80B100220023694696
:107FA0002846CDE9002300F045FE38B1E37ADB072F
:107FB00002D52046FFF7B6FF0123637203B030BD40
:107FC0001FB501238DF80C2000930A4603AB6F21E7
:107FD000FFF70AFF05B05DF804FBF8B504460D464F
:107FE00017461E46FFF790FE00EA07023243294675
:107FF0002046BDE8F840FFF7E3BF012908B50CD8DB
:1080000000294FF0000314BFDF22EF220721FFF702
:10801000E4FFB0FA80F0400908BD0020FCE738B565
:10802000044632256068572101F09DFA60680121FD
:1080300001F0A0FA08B1013DF4D138BD2DE9F041BD
:1080400004460F46164602EB0308B04520D0606890
:10805000572101F088FA39466068FFF71FFB606816
:1080600016F8011B03689B6898476068012101F0BE
:1080700081FA0137054638B1024606490648FCF741
:10808000CBF92846BDE8F0812046FFF7C8FFDCE7C2
:108090000025F6E745E20D0000E60320F7B5CF180E
:1080A0001E46036801929B6804460D469847874226
:1080B0000AD8019A60683346E9B2FFF7BFFFB0FA09
:1080C00080F0400903B0F0BD0020FBE7014B024AFD
:1080D0001A60704700E6032066E20D00012A03469D
:1080E00002D1016000207047022A04BFD1E90001DB
:1080F000C3E90001F6E710B5012303748368044661
:1081000043B1C0689847012363740020BDE8104064
:1081100000F032BB00680028F5D083680BB902F08C
:108120002CFDC368EEE710B442680346541001EB1F
:108130006200D20748BF0A591B685DF8044B48BF6C
:10814000D35818470123F7B580F829300646083080
:1081500000F0EAFA0420FBF79EFF054698B31B499E
:10816000142002F006FD30B10023C0E90033C0E95D
:108170000233037443742860A0B1154B1549C0E95C
:1081800002364FF40063CDE900030222124B0430A3
:1081900000F092FA30B92B681B7CA3B9012000F0E3
:1081A0000BFBF8E72C6800232B6064B1276837B11C
:1081B0003846FCF7ADF81021384602F0D8FC1421FF
:1081C000204602F0D4FC756003B0F0BDCCE50D0094
:1081D000E3830D00D8E20D00F7800D0047F2305127
:1081E000084AC160084902600022C0E90412074938
:1081F000C16107494260C0E908228161028580F8B7
:108200002A2070479CE30D004D850D0027810D004D
:10821000DD800D0010B5044B044640F8103BFCF720
:1082200077F8204610BD00BF9CE30D0010B5034B4E
:1082300003600446FFF7EEFF204610BDC4E30D00C7
:1082400010B50446FFF7F2FF2046382102F08FFCFC
:10825000204610BD806800F06FBA806800F074BAE4
:1082600010B504460068FFF7F8FF204610BD13B5AF
:1082700004460190FFF7EEFFE36ADC88A4B20CB17C
:1082800003F1080401A8FFF7EBFF204602B010BD80
:1082900013B504460190FFF7DDFF94F8283043B989
:1082A000E26A0124D38001A8FFF7DAFF204602B07A
:1082B00010BD0024F7E713B504460190FFF7CAFF8D
:1082C000E36A01A8DC88FFF7CBFF204602B010BDAF
:1082D0002DE9F047994686B090F829309DF838A0EE
:1082E0009DF83C8004460F46164613B903689B6808
:1082F0009847314B3846002E08BF1E4603F02FFB2F
:108300000546304603F02BFB284400F10A05AB0775
:108310001CBF25F0030504353346CDE90285CDE9C0
:10832000009A264926483A46FCF776F8238E083B01
:10833000AB4212D20024204606B0BDE8F087CB88BD
:10834000012B36D005A8FFF78BFF236894F828107F
:108350009B69204698470028ECD020460594FFF7FB
:1083600079FFE16A228E636B0A44D21AAA42E6D3ED
:1083700048EA0A0883F80480C3F80090636B03F1AD
:1083800008083946404603F0C5FA404603F0E7FACC
:1083900001303146404403F0BDFA636BE26A1D448C
:1083A0006563D3880133D380012405A8FFF758FF04
:1083B000C1E70024F9E700BFF4E50D00EAE20D0093
:1083C00004E6032008B5044600F11005A3690BB9C3
:1083D00002F0D3FBE36921462846984700F074F980
:1083E000F4E708B5FFF7EEFF68B501F108050646AA
:1083F000284603F0B4FA01300544284603F0AFFAEA
:10840000F36A01302844C31A13F003031CBFC3F1FD
:108410000403C01868BDF7B504460E460190FFF787
:1084200019FFE76AFB8807F10805E6B1012B22D99D
:1084300029462046FFF7D8FF054629462046FFF784
:10844000D3FF228E3A44121A0146A0EB050602D051
:10845000284603F00FFA636B9B1B6363FB88013BA9
:10846000FB80012601E0002BE7D101A8FFF7F8FE11
:10847000304603B0F0BD0026F7E700002DE9F047D5
:108480000D4604462F461646FFF7A8FE154B57F833
:10849000082B2360144BE5629A422686984617D132
:1084A000AB889BB2B34213D105EB060A67634FF06A
:1084B0000009EB881FFA89F29BB29A420ED2616BD7
:1084C0002046FFF791FF5045606309F10109F0D99B
:1084D0000023C5F800806763AE80EB802046BDE8CE
:1084E000F08700BFC4E30D0061AB9CD110B5D1E9AA
:1084F000002386B00021044604910AB9D90705D5A6
:10850000CDE902230F4B05930F4B049302AB93E885
:1085100003006A4682E8030094E8030083E803004E
:1085200092E80300049A84E80300A168A260059A17
:1085300004911846E168E2600591FBF7E9FE2046E8
:1085400006B010BD27810D00DD800D0007B5054B7D
:1085500000936946002310300193FFF7C7FF03B073
:108560005DF804FB95850D0013B5044600F034F961
:10857000636AC01AE368984208D3054B00936946C2
:10858000002304F110000193FFF7B0FF02B010BD0B
:1085900095850D002DE9F04190F82A3086B004460B
:1085A000002B64D100F016FB002860D000F014F915
:1085B000636AC01A40F2F133984258D923682046C2
:1085C0005B6998470546002851D000F10807012350
:1085D00084F82830384603F0C2F995F80480CDF8C5
:1085E000048001302B682B4900933E1833462A48FB
:1085F0003A46FBF711FF2B688DF80080324639466A
:1086000002A800F08FFD029D6B781BB9012000F0DD
:10861000F9FBF8E7002000F07FFA20B16B7813B97E
:1086200000F0C8FAFAE72B78012B23D11B491A482E
:10863000FBF7F2FE236800219B6920469847002340
:1086400084F8283000F0C8F86062039C7CB163684D
:10865000013B63605BB9236820469B689847A36829
:10866000013BA3601BB923682046DB68984706B02E
:10867000BDE8F081E2680A490748FBF7CDFE094BE7
:10868000049304A9002304F110000593FFF72EFFC3
:10869000D5E700BF2BE30D0004E603204CE30D00FB
:1086A00063E30D0069850D00014B024A1A607047B3
:1086B00004E603208AE30D0008B5024B1B685B68E3
:1086C000019308BD4802030008B5024B1B68DB6834
:1086D000019308BD4802030008B5024B1B68DB6923
:1086E000019308BD4802030008B5024B1B681B6AD2
:1086F000019308BD4802030008B5024B1B685B6A82
:10870000019308BD4802030008B5024B1B689B6A31
:10871000019308BD4802030008B5024B1B68DB6AE1
:10872000019308BD4802030008B5024B1B681B6B90
:10873000019308BD4802030008B5024B1B689B6B00
:10874000019308BD4802030008B5024B1B681B6C6F
:10875000019308BD4802030008B5024B1B685B6C1F
:10876000019308BD4802030008B5024B1B689B6CCF
:10877000019308BD4802030008B5024B1B68DB6E7D
:10878000019308BD4802030008B5024B1B681B6F2C
:10879000019308BD4802030008B5024B1B685B6EDD
:1087A000019308BD3402030008B5024B1B685B68E7
:1087B000019308BD1802030008B5024B1B689B68B3
:1087C000019308BD1802030008B5024B1B68DB6863
:1087D000019308BD1802030008B5024B1B685B69D2
:1087E000019308BD1802030008B5024B1B689B6D7E
:1087F000019308BD1802030008B5024B1B68DB6D2E
:10880000019308BD1802030008B5024B1B685B6E9C
:10881000019308BD1802030008B5024B1B689B6E4C
:10882000019308BD1802030008B5024B1B685B6882
:10883000019308BD2C02030008B5024B1B689B681E
:10884000019308BD2C02030008B5024B1B68DB68CE
:10885000019308BD2C02030008B5024B1B681B697D
:10886000019308BD2C02030008B5024B1B689B69ED
:10887000019308BD2C02030008B5024B1B68DB699D
:10888000019308BD2C02030008B5024B1B681B6B4B
:10889000019308BD2C02030008B5024B1B68DB687E
:1088A000019308BD2802030008B5024B1B689B69B1
:1088B000019308BD2802030008B5024B1B68DB6961
:1088C000019308BD2802030008B5024B1B681B6A10
:1088D000019308BD2802030008B5024B1B685B6AC0
:1088E000019308BD2802030008B5024B1B689B6A70
:1088F000019308BD2802030008B5024B1B68DB6A20
:10890000019308BD2802030008B5024B1B681B6BCE
:10891000019308BD2802030008B5024B1B685B6B7E
:10892000019308BD2802030008B5024B1B681B6CAD
:10893000019308BD2802030008B5024B1B689B6C1D
:10894000019308BD2802030008B5024B1B68DB6CCD
:10895000019308BD2802030008B5024B1B681B6D7C
:10896000019308BD2802030008B5024B1B685B6930
:10897000019308BD6402030008B5024B1B689B68A5
:10898000019308BD6802030008B5024B1B68DB6851
:10899000019308BD6802030008B5024B1B68DB6940
:1089A000019308BD3002030008B5024B1B681B6A27
:1089B000019308BD3002030008B5024B1B681B6819
:1089C000019308BD3C02030008B5024B1B68DB683D
:1089D000019308BD3C02030008B5024B1B681B69EC
:1089E000019308BD3C02030008B5024B1B685B699C
:1089F000019308BD3C02030008B5024B1B689B694C
:108A0000019308BD3C02030008B5024B1B68DB69FB
:108A1000019308BD3C02030008B5024B1B681B6AAA
:108A2000019308BD3C02030008B5024B1B689B6A1A
:108A3000019308BD3C02030008B5024B1B681B688C
:108A4000019308BD4C02030008B5024B1B681B696B
:108A5000019308BD4C02030008B5024B1B685B691B
:108A6000019308BD4C02030008B5024B1B689B69CB
:108A7000019308BD4C02030008B5024B1B68DB697B
:108A8000019308BD4C02030008B5024B1B681B6A2A
:108A9000019308BD4C02030008B5024B1B685B6BD9
:108AA000019308BD6002030008B5024B1B689B6B75
:108AB000019308BD6002030008B5024B1B68DB6B25
:108AC000019308BD6002030008B5024B1B685B6D93
:108AD000019308BD6002030008B5024B1B681B68C8
:108AE000019308BD2002030008B5024B1B685B68B8
:108AF000019308BD2002030008B5024B1B685B69A7
:108B0000019308BD2002030008B5024B1B68DB6A15
:108B1000019308BD2002030008B5024B1B68DB6C03
:108B2000019308BD2002030008B5024B1B685B6D72
:108B3000019308BD2002030008B5024B1B689B6D22
:108B4000019308BD2002030008B5024B1B68DB6DD2
:108B5000019308BD2002030008B5034B1B68D3F83E
:108B60008830019308BD00002002030008B5034BC4
:108B70001B68D3F89430019308BD00002002030065
:108B800008B5034B1B68D3F8AC30019308BD000057
:108B90002002030008B5024B1B681B68019308BD47
:108BA0004402030008B5024B1B685B68019308BDD3
:108BB0004402030008B5024B1B689B68019308BD83
:108BC0004402030008B5024B1B68DB68019308BD33
:108BD0004402030008B5024B1B685B69019308BDA2
:108BE0004402030008B5024B1B68DB69019308BD12
:108BF0004402030008B5024B1B681B6A019308BDC1
:108C00004402030008B5024B1B685B6A019308BD70
:108C10004402030008B5024B1B68DB6A019308BDE0
:108C20004402030008B5024B1B681B6B019308BD8F
:108C30004402030008B5024B1B685B6B019308BD3F
:108C40004402030008B5024B1B689B6B019308BDEF
:108C50004402030008B5024B1B68DB6B019308BD9F
:108C60004402030008B5024B1B685B68019308BD12
:108C70004002030008B5024B1B689B68019308BDC6
:108C80004002030008B5024B1B68DB68019308BD76
:108C90004002030008B5024B1B681B69019308BD25
:108CA0004002030008B5024B1B685B69019308BDD5
:108CB0004002030008B5024B1B689B69019308BD85
:108CC0004002030008B5024B1B68DB69019308BD35
:108CD0004002030008B5024B1B681B6A019308BDE4
:108CE0004002030008B5024B1B681B6B019308BDD3
:108CF0004002030008B5024B1B685B6B019308BD83
:108D00004002030008B5024B1B681B6C019308BDB1
:108D10004002030008B5024B1B685B6C019308BD61
:108D20004002030008B5024B1B681B68019308BD95
:108D30001C02030008B5024B1B685B68019308BD69
:108D40001C02030008B5024B1B689B68019308BD19
:108D50001C02030008B5024B1B681B69019308BD88
:108D60001C02030008B5024B1B68DB69019308BDB8
:108D70001C02030008B5024B1B685B6A019308BD27
:108D80001C02030008B5024B1B68DB6A019308BD97
:108D90001C02030008B5024B1B681B6B019308BD46
:108DA0001C02030008B5024B1B68DB6B019308BD76
:108DB0001C02030008B5024B1B685B6C019308BDE5
:108DC0001C02030008B5024B1B689B6C019308BD95
:108DD0001C02030008B5024B1B68DB6C019308BD45
:108DE0001C02030008B5024B1B681B6D019308BDF4
:108DF0001C02030008B5024B1B685B6D019308BDA4
:108E00001C0203000021FFF777BE10B583680446FB
:108E10000BB901F0B2FEC3689847A3681BB10322E7
:108E200021462046984720461021BDE8104001F019
:108E30009EBE10B50446006808B1FFF795FC2046B9
:108E400010BD000010B5064C002320462360FFF73C
:108E500083FC2046034A0449BDE8104001F082BE6D
:108E600008E60320F0DE0320338E0D00704700205B
:108E7000704710B51021044601F079FE204610BD60
:108E800008B5FFF7F6FF08BD30B500224FF69C7419
:108E9000026084808D888C800C68858004600A6004
:108EA00030BD10B504460068FFF744FF204610BDF2
:108EB00038B5C468F4B12378022B03D104F10C0057
:108EC000FFF7EFFF656835B12846FBF721FA10215F
:108ED000284601F04CFEA56835B12846FBF718FA84
:108EE0001021284601F043FE20461421BDE83840F9
:108EF00001F03DBE38BD10B588B00446684601F0AB
:108F0000ACF8694604A801F0CBF804A8A0470446D1
:108F100004A801F057F8684601F054F8204608B05C
:108F200010BD07B5CDE9001282680AB901F025FE2F
:108F3000C36801AA6946984703B05DF804FB1FB5F2
:108F40000023CDE90201019210241A466946184611
:108F5000ADF80230ADF80040FFF724FE04B010BDBC
:108F600073B50E46044656F8043B00930D4601A81F
:108F70003146FDF7CFFE019A009B6260236001A895
:108F8000002301930093FCF747FB3046FCF744FBBA
:108F90002846082101F0EBFD204602B070BD826832
:108FA00010B50AB901F0E9FDBDE81040C3681847E3
:108FB00008B5006800F11001FFF7F1FF08BD8268F5
:108FC00010B50AB901F0D9FDBDE81040C3681847D3
:108FD00008B5006800F11001FFF7F1FF08BD0000BF
:108FE00038B500230446036010200D46FBF753F804
:108FF00028B10123C0E90133024B0360C560206042
:10900000204638BDECE30D0038B5002383608B6843
:1090100004460D462BB102229847EB68E360AB682B
:10902000A360204638BD0000F0B589B004686846EA
:10903000FFF72AFF4FF00203D4E84F2F002A03D195
:10904000C4E8413F0029F7D125D104F10C05694658
:109050002846FFF719FFBFF35B8F012363700020E1
:1090600004F10803BFF35B8F53E8006F43E800028D
:10907000002AF9D1BFF35B8F6EB1FFF74DFD78B1D8
:1090800029463046FFF78BFF3046FBF741F91021A8
:10909000304601F06CFD6846FFF703FF09B0F0BDF4
:1090A000314602A8FFF7B0FFE068B4F9105008B1EC
:1090B00002F038FC06901020ADF81C50FAF7EBFFD8
:1090C0000546E8B1002787601820FAF7E4FF044658
:1090D00088B10146876002A8FDF762F8049BA26888
:1090E000A360059B049206A9E268E36004F1100006
:1090F0000592FFF7C9FE084BEB60084B2C60AB6094
:1091000006A8FFF7CEFE02A8FBF702F900222946C7
:109110000348FFF709FDB7E7B18F0D0049920D0035
:109120000B8E0D002DE9F0478AB005469DF848905A
:109130000C4617469846FFF74DFD07AE824638BBF2
:109140004FF62E73059005A93046ADF81830FFF79D
:109150009BFE1420FAF79FFF044648B102230370D8
:109160000123C0E901AA437031460C30FFF78CFEA1
:109170002846214640F8044BFFF732FF3046FFF700
:1091800090FE05A8FFF78DFE28460AB0BDE8F087DF
:109190000C234FF0000A1420CDE908AA0793FAF730
:1091A0007AFF014628B1C0E901AA80F800A080F842
:1091B00001A004A80391FFF713FF224B0893082096
:1091C000FAF769FF824628B1039B40F8043B04A9E3
:1091D000FDF7A0FD00965FFA89F342463946204626
:1091E000CDF824A0FFF706FDB8B9039B5B7803F028
:1091F000FF0293B94FF69C7305A903A80592ADF839
:109200001830FFF711FF05A8FFF74BFE05A80999D5
:10921000FFF7A6FE06A8FCF7FFF9039B059304A938
:1092200006A8FDF777FD059B069A2B606A60002370
:1092300006A806930593FCF7EFF904A8FCF7ECF9F0
:10924000A2E700BF0D930D00022AF8B5054607D02E
:10925000032A18D0012A01D10B6803600020F8BD51
:1092600018200E68FAF717FF044650B13146FFF791
:10927000CBFE3069B6F9147008B102F053FB2061DF
:10928000A7822C60EAE70468002CE7D004F1100004
:10929000FFF707FE2046FBF73BF81821204601F0B8
:1092A00066FCDBE738B5002383608B6804460D4617
:1092B0002BB102229847EB68E360AB68A3602046BD
:1092C00038BD022A70B5044607D0032A12D0012AFD
:1092D00001D10B680360002070BD14200E68FAF7FE
:1092E000DAFE054620B13146FFF7DCFF337C2B74F4
:1092F0002560F0E70468002CEDD02046FBF708F865
:109300001421204601F033FCE5E70000F0B589B0F8
:1093100004460D4601A81146FFF722FEA4B124B26F
:109320001DB1284602F0FEFA054601A803A90395DF
:10933000ADF81040FFF778FE03A8FFF7B2FD02A8D2
:10934000FCF76AF909B0F0BD019D0123D5E84F2F64
:10935000002A03D1C5E8413F0029F7D1EFD12B7393
:10936000BFF35B8F6B702B1DBFF35B8F53E8006FF8
:1093700043E80042002AF9D1BFF35B8F002EDED014
:109380002046FFF7C9FB074660B105F10C013046E6
:10939000FFF715FE3046FAF7BBFF1021304601F00B
:1093A000E6FBCCE7314603A8FFF77CFF2B7B8DF86B
:1093B0001C301020FAF76FFE0546D0B187601420EC
:1093C000FAF769FE044678B18760014603A8FCF706
:1093D000E7FE059BA268A360069B0592E268E36036
:1093E0009DF81C3006922374064BEB60064B2C60F4
:1093F000AB6003A8FAF78CFF002229460348FFF769
:1094000093FBC7E7D18F0D00C3920D000B8E0D00AB
:10941000002240681146FFF75DBC002240681146FB
:10942000FFF768BC40680022FFF75CBC4068002280
:1094300081F00101FFF746BC002340681A46194637
:10944000FFF738BC002340681A461946FFF72ABCCC
:10945000002240681146FFF71DBC002240681146FB
:10946000FFF708BC406800220221FFF70BBC002375
:1094700040681A46FFF7F6BB024B03225A60024AC5
:109480001A6070470CE6032008E40D007047F8B539
:10949000064615460C468F18BC4206D0336814F8B1
:1094A000011B9B6830469847F6E72846F8BD007CCC
:1094B0000022FFF709BA007C0021FFF70DBA007CFB
:1094C0000021FFF711BA007C0021FFF715BA007CDC
:1094D0000021FFF719BA10B51421044601F047FB2B
:1094E000204610BD10B54FF47A730446084600219B
:1094F000C4E90113034B236020741146FFF714FAEB
:10950000204610BD44E40D000023007C1A46194695
:10951000FFF7C2B97FB500221423CDE90122ADF8CF
:1095200004300B788DF808304B680393CB680493B4
:10953000007C0B7A059301A9FFF70EFA07B05DF8DE
:1095400004FB1FB5003B8DF800104FF06401039140
:1095500018BF0123694601928DF80830FFF7DAFF42
:1095600005B05DF804FB007C0022FFF79DB9C9B28D
:10957000FFF7F9BF007C0022FFF79EB908B5002174
:10958000007CFFF7D9F9B0FA80F0400908BD08B5B2
:109590000021007CFFF7D8F9B0FA80F0400908BD3F
:1095A000004700002DE9FF4100241D460F4690466C
:1095B0000646FFF761F9A5424FF00403ADF80D40F0
:1095C0008DF80C308DF80F40A2BF9DF828308DF833
:1095D0000E3003AC0749009443463A463046A8BFD4
:1095E0008DF80D50FFF740F9B0FA80F0400904B053
:1095F000BDE8F081A1950D00704710B51821044613
:1096000001F0B5FA204610BDF0B5037D062B8DB0F4
:109610000E4600F104074FF0000412D000F10805D7
:1096200015F8011D0A22304600F08FFCAF420444B9
:1096300019D0002CF4D02E21304600F083FC0444D5
:10964000EEE72F236A4639460A208DF80040FFF7DF
:109650008BF9684602F083F933680246DB68694695
:1096600030469847044620460DB0F0BD10B5054B76
:109670000446112240F8043B002102F015F920466F
:1096800010BD00BF6CE40D000346074A10B543F857
:10969000042B01F1100251F8044B43F8044B9142A2
:1096A000F9D10A781A7010BD6CE40D0010B59DF860
:1096B000084044EA032343EA024242EA01610423E8
:1096C0004160037510BD000013B5054B0360CB78F6
:1096D00000938B784A780978FFF7E8FF02B010BD55
:1096E0006CE40D0000F11003012213F8101C012995
:1096F000184608D153F8041C02EB4102013A03F169
:109700001003F2D17047022904BF53F8041C521809
:10971000F4E7704770470020704710B514210446E5
:1097200001F025FA204610BD10B51021044601F0C5
:109730001EFA204610BD08B5FFF7F6FF08BD10B5AC
:10974000C4687CB1206808B1FAF7ABFC237A1BB17E
:10975000606808B1FAF7A5FC20460C21BDE810406E
:1097600001F005BA10BD38B51546D0E90323934280
:10977000044607D2D21A8068AA4228BF2A46184453
:1097800002F06AF822692A44226138BD0EB417B586
:1097900005AB044653F8042BE16801930369806824
:1097A0008B4238BFC91A184428BF0021019BFFF71C
:1097B000E1FA23691844206103B0BDE8104003B00A
:1097C000704710B5036804469B689847A368013B3F
:1097D000A3602BB923682046DB68BDE8104018471A
:1097E00010BD07B503688DF807109B6801220DF1C5
:1097F0000701984703B05DF804FB38B50B680360B8
:109800004D6843689D4204460CD015B16B68013326
:109810006B60606828B14368013B43600BB9FFF798
:10982000D0FF6560204638BD0B461146002210B5BA
:10983000C0E90022044683600BB9204610BDFFF743
:10984000DCFFFAE78368EBB11A78032A1AD8DFE85D
:1098500002F00417021B0520704702685B6852681B
:10986000D05C2D2812D0A0F13003092B0ED974281A
:109870000ED066280CD0A0F16E03584258417047B4
:10988000062070470020704704207047032070476F
:10989000022070472DE9F04786B00746884602A8A7
:1098A000002100249946102392460293FFF7FCF80A
:1098B000CDE9004423464246394602A8FFF7FCF8AA
:1098C000061E1EDD1049300101F055F9054690B124
:1098D000214602A8FFF7E8F8CDE900642B4642468E
:1098E000394602A8FFF7E8F8A04207DDCAF80050A1
:1098F0000120C9F8006006B0BDE8F0872846FAF7F5
:10990000D0FB2046F7E700BFCCE50D002DE9F84F6E
:10991000436886680B4488460E4407461C46194631
:109920004FF00D094FF0090AB44263D0254615F8EF
:10993000012B5C2A2BD1A14207D0A4EB010B1846C6
:109940005A4601F097FF03465B44B54239D062782E
:10995000752A2AD1A21CB21A032A32DDA01D04F1F5
:10996000050E4FF0000CAE4553D015F8011FA1F1C4
:1099700030025FFA82FBBBF1090F05D9A1F1610248
:10998000052A07D8A1F1570242EA0C1CEBE728464A
:109990000446C9E7A1F14102052A12D8A1F1370214
:1099A000F2E703F801CB0146F2E76E2A1CD00ED88D
:1099B000622A13D007D82F2A11D05C2A0FD0222A6E
:1099C0000DD0002023E0662AFBD10C2207E0722A8A
:1099D0000DD0742AF5D183F800A001E008221A7096
:1099E000A11C01330846D3E74FF00A02F7E783F8DA
:1099F0000090F5E7A14206D0641A1846224601F00D
:109A000039FF03462344A3EB0803BB600120BDE8F4
:109A1000F88FBCF17F0FC4D92146B9E7F8B50446E9
:109A2000154600EB01160027B44210D02378032B13
:109A300008D129462046FFF769FF48B1A368EF54D3
:109A40001034F1E7002BFBD1A268AB54F8E70120FA
:109A5000F8BD000038B50023C0E9003304460E48C5
:109A6000C4E90203A9B10B78032B06D08BB91368A4
:109A700058684B68C35C6E2B07D013684D685868F4
:109A80008B6828445B1BA060E36011462046FFF70B
:109A9000B4FE204638BD00BFF4E50D0038B5002502
:109AA0000B46C0E90055C0E90255C0E9045504461B
:109AB00011464BB11A78012A06D103F11002DB6876
:109AC00082604361FFF799FE204638BD10B54369B7
:109AD000044663B18068E060013B1030A060206103
