:02000002D0002C
:1040000000400D002CD20D00000006000C00050140
:084010000401BD0B00000000DB
:04401800D4B60D000D
:1040200009480A49884208B505D0094A824202D0A7
:10403000121A05F0FBFB0748074A0021121A05F087
:104040001DFC014808BD00BF08D8032044CF0D0067
:10405000C4DA0320C8DA0320F8E7032070B5074E5E
:10406000074C04F05FFCA41BA4080025A54200D166
:1040700070BD56F8043B98470135F7E70CC70D00B3
:1040800038C70D0001F0F8BA08B500F0E5FFBDE84B
:10409000084004F009BC03F0F9B903F0F7B903F0E4
:1040A000FDB9000008B5034A00210C2003F0B8F860
:1040B000FEE700BF516F0D000078B0FA80F04009B4
:1040C0007047012303707047014B01221A7070473B
:1040D000F9E5032003681847012A03D0022A03D018
:1040E000002070470160FBE70B680360F8E7000001
:1040F00008B5044904F093F818B1034B03221A7071
:10410000012008BD23B70D00C5E5032070B5C2B07E
:1041100000680A2201A906F0E7FA431E062B0446AE
:104120002BD80128164B174E08D11877164902A82C
:1041300005F0DAFB3470204642B070BD02284FF023
:10414000010507D111495D7702A805F0CDFB2C468A
:104150003570F0E7032802D10D499D77F4E7042874
:1041600002D10C49DD77EFE705280BBF0A490B495F
:1041700083F8205083F82150E6E70024DBE700BFF6
:10418000C8E50320F8E5032025B70D0038B70D007A
:104190004BB70D0060B70D0074B70D0088B70D0068
:1041A000436913B183690C301847704710B5034B4E
:1041B0000360044602F0FEFB204610BD98BF0D00D0
:1041C00010B50446FFF7F2FF2046382104F0B9FC91
:1041D000204610BD10B5034B0360044601F002FEFB
:1041E000204610BDC0BF0D0010B50446FFF7F2FF1A
:1041F0002046102104F0A5FC204610BD13B5002177
:104200000446084602F02CFE0023204601A9019333
:1042100002F03EFE019C0CB101232371002101201C
:1042200002F01EFE2CB1236820469B6898470023AD
:10423000237102B010BD10B50446006808B103F048
:104240002DF9204610BD0023042203F057B80000CA
:104250001FB5104B104A1B781278104913438DF884
:10426000003000223C2302A803F02EFB039C7CB10B
:104270006368013B63605BB9236820469B6898478D
:10428000A368013BA3601BB923682046DB689847FD
:1042900004B010BD14DB032015DB03209BB70D0019
:1042A00010B58368044613B103220146984720469F
:1042B00010BD000037B5134B036004468068C8B1D9
:1042C00000256FF00043CDE9003502212B462A4638
:1042D00002F0E6FDA068294602F01AFE237903F0F9
:1042E000FF0513B102F0B4FDF8E7A068294602F01B
:1042F000C7FDA56004F10C00FFF7D2FF204603B014
:1043000030BD00BF84BF0D0010B50446FFF7D2FFDB
:1043100020461C2104F015FC204610BD0246014831
:1043200003F0DFB9B7760D0007B508220023ADF81A
:1043300000204FF47A710122019241436A461846E7
:10434000ADF8023003F032F803B05DF804FB07B5B6
:1043500080680B46002140B1CDE900210A460321C7
:1043600002F09EFDB0FA80F0400903B05DF804FB56
:1043700037B504689DF818508DF800308DF804505A
:10438000E4683C23A04703B030BD000010B50B78B3
:1043900092B00C467BB9194902A805F0A5FA002392
:1043A0008DF80030164B17491B78174802AAFFF703
:1043B000DFFF12B010BD084605F013FAC8280ED171
:1043C000124902A805F090FA04F0D9F8104B986150
:1043D000104B01221A70104B00221A70DFE72046A2
:1043E00005F0FFF9C928EBD0204605F0FAF90B4A91
:1043F0000346402102A803F069F8D0E79DB70D00FD
:1044000015DB0320D4B70D0008E40320A5B70D0089
:10441000C8E50320F8E5032037DB0320B7B70D001C
:1044200037B51C49054603F0FAFE044600B31A4CA2
:10443000012360686370FFF777FF636817484FF4E4
:104440007A716FF000425943FFF781FF02F076FF67
:1044500048B100238DF80030114B124A1B781249E5
:104460001248FFF785FF124B0120187003B030BDD2
:104470001049284603F0D3FE0028F7D0064B5C70A5
:1044800002F05CFF0028EED0054B8DF800401B7851
:10449000094AE4E723B70D00C8E50320E8E3032059
:1044A00015DB0320E1B70D0073B80D0008E403200D
:1044B000F8E50320F6B70D00F8B70D0010B5C4B04D
:1044C00000680A2203A906F00FF9B0F5966F22D80A
:1044D000124C6060FFF728FF636811484FF47A714F
:1044E00059436FF00042FFF732FF63680D4A4FF403
:1044F000807104A802F0EAFF00238DF800300A4B17
:104500000A491B780A4804AAFFF732FF094B012029
:10451000187044B010BD0020FBE700BFC8E50320C1
:10452000E8E303200CB80D0015DB032025B80D00CF
:1045300008E40320F8E5032000B589B0039003F0F8
:1045400081FE0E4B0399BDEEC00A04A883ED090A53
:1045500003F02EFE00238DF80030094B049A1B78DF
:1045600008490948FFF704FF04A803F0B3FD074B0F
:104570000120187009B05DF804FB00BFC8E50320F6
:1045800015DB032030B80D0008E40320F8E5032014
:1045900037B51649054603F042FE044688B1144B70
:1045A000144A1549154801245C7200238DF8003027
:1045B000134B1B78FFF7DCFE124B20461C7003B038
:1045C00030BD1149284603F02AFE0028F7D0084BD9
:1045D0000E4A5C720A4B8DF800401B78064907486A
:1045E000FFF7C6FE074B01201870E8E723B70D0060
:1045F000C8E5032052B80D0073B80D0008E403208D
:1046000015DB0320F8E50320F6B70D0063B80D00B5
:10461000F0B5C5B000680A2203A906F065F8431E8C
:10462000062B04464FF0000539D801281D4B1E4FBC
:104630001E4E10D11E491D7704A805F055F93B7890
:104640001C491D488DF8005004AAFFF791FE3470F4
:10465000204645B0F0BD02280ED118495D7704A868
:1046600005F042F93B78134913488DF8005004AA2D
:10467000FFF77EFE0124EAE7032802D110499D7767
:10468000EDE7042802D10F49DD77E8E705280BBFE5
:104690000D490E4983F8205083F82150DFE72C465E
:1046A000D6E700BFC8E5032015DB0320F8E50320AB
:1046B00078B80D008CB80D0008E403209AB80D00FE
:1046C000AEB80D00C4B80D00D9B80D00EEB80D009D
:1046D00000B5C5B000680A2203A906F005F8042851
:1046E00018D80D4B0D4A98624FF48071034604A808
:1046F00002F0ECFE00238DF80030094B09491B78CD
:10470000094804AAFFF734FE084B0120187045B091
:104710005DF804FB0020FAE7C8E5032002B90D00AC
:1047200015DB032073B80D0008E40320F8E503202F
:104730001FB50A22006803A905F0D6FF0128044628
:104740004FF0000311D18DF80030094B094A1B7856
:1047500009490A48FFF70CFE41F2883002F0FEFEDC
:1047600003F092FD204604B010BD1C46FAE700BFDE
:1047700015DB032014B90D00C4BC0D0008E40320B0
:1047800007B502F0DBFD48B100238DF800300F4B78
:104790000F4A1B780F491048FFF7EAFD0F4A1048EF
:1047A0007823536040F201131380002301215372D8
:1047B00093724FF41673C2E909313023117782F8EE
:1047C000201003B05DF804EB01F0C7BB15DB03203C
:1047D00029B90D0073B80D0008E40320C8E50320D3
:1047E000D8E3032007B502F0A9FD48B100238DF8F6
:1047F00000300C4B0C4A1B780C490D48FFF7B8FDF4
:104800000C4A0D4B0D490E48136053609360D36002
:1048100011615361A021182303B05DF804EB01F08E
:104820009CBB00BF15DB032041B90D0073B80D0020
:1048300008E4032060E40320CDCCB54200C0264448
:10484000D8E3032010B5154C237A012B04D902F0CC
:1048500075FD00B3012323726368114AB3F5966FA7
:1048600084BF4FF416736360637A012B84BF012306
:104870006372A37A012B84BF0023A3726369FF2BA9
:1048800084BF00236361A36A052B4FF001031370FB
:1048900088BFA36210BD2072DEE700BFC8E5032019
:1048A000F8E50320334BD3ED007AF5EEC07AF1EE54
:1048B00010FA06D49FED307AF4EEC77AF1EE10FAD2
:1048C00001DD2E4A1A60D3ED017AF5EEC07AF1EEE1
:1048D00010FA06D49FED287AF4EEC77AF1EE10FABA
:1048E00001DD264A5A60D3ED027AF5EEC07AF1EE88
:1048F00010FA06D49FED207AF4EEC77AF1EE10FAA2
:1049000001DD1E4A9A60D3ED037AF5EEC07AF1EE2E
:1049100010FA06D49FED187AF4EEC77AF1EE10FA89
:1049200001DD164ADA60D3ED047AF5EEC07AF1EED5
:1049300010FA06D49FED107AF4EEC77AF1EE10FA71
:1049400001DD0E4A1A61D3ED057AF5EEC07AF1EE7B
:1049500010FA06D49FED087AF4EEC77AF1EE10FA59
:1049600001DD064A5A61034A05481823A02101F0D7
:10497000F4BA00BF60E4032000803B45ECD1B542AF
:10498000D8E3032007B50121052004F064F80021D5
:10499000052004F060F8094A00231370084A527A8F
:1049A00042B18DF80030074B074A1B780749084889
:1049B000FFF7DEFC03B05DF804FB00BFF9E5032060
:1049C000C8E5032015DB032060B90D0067B90D00B1
:1049D00008E4032070B5744B744C9B6A012BADF551
:1049E000507D76D10CA802F0B1FC606904F03AFB6E
:1049F000CDE90A01206904F035FBCDE90801E06842
:104A000004F030FBCDE90601A06804F02BFBCDE9F2
:104A10000401606804F026FBCDE90201206804F07F
:104A200021FB0C9B624ACDE900014FF4007150A8B4
:104A300002F04CFD606904F015FBCDE90A01206924
:104A400004F010FBCDE90801E06804F00BFBCDE9B0
:104A50000601A06804F006FBCDE90401606804F0DB
:104A600001FBCDE90201206804F0FCFA514ACDE9CE
:104A700000014FF4807110A802F028FD0CA803F08B
:104A800029FB4D4D4D492B784D48002610AA8DF835
:104A90000060FFF76DFC2B784A498DF8006050AA42
:104AA0004748FFF765FC2368A3616368E361A36877
:104AB0002362E36863622369A3626369E362424B32
:104AC00001221A7002F04CFA404B18600DF5507D2F
:104AD00070BD022B24D1206D04F0C4FACDE90A0187
:104AE000E06C04F0BFFACDE90801A06C04F0BAFA5A
:104AF000CDE90601A06B04F0B5FACDE90401606BC5
:104B000004F0B0FACDE90201206B04F0ABFACDE974
:104B100000012F4A4FF4807110A802F0D7FCB0E7D3
:104B2000032B1FD1606904F09DFACDE90A012069C9
:104B300004F098FACDE90801E06804F093FACDE9B1
:104B40000601A06B04F08EFACDE90401606B04F05D
:104B500089FACDE90201206B04F084FA1D4ACDE9FF
:104B60000001D7E7042B8CD1606904F07BFACDE912
:104B70000A01206904F076FACDE90801E06E04F03C
:104B800071FACDE90601A06E04F06CFACDE90401DA
:104B9000606E04F067FACDE90201206E04F062FA5B
:104BA0000D4ACDE90001B5E7C8E5032078E403200C
:104BB00070B90D0050BA0D0015DB03205DBC0D006F
:104BC00008E4032072BC0D0037DB0320FCE5032062
:104BD000D3BA0D0057BB0D00DABB0D0030B5114D37
:104BE000114C12492A7820788DB01A2303FB021247
:104BF000009203FB00130E4A282102A802F066FC73
:104C00002B78237002F09AFB48B100238DF8003016
:104C1000084B09491B78094802AAFFF7A9FB0DB008
:104C200030BD00BFC5E5032004E4032018D80320ED
:104C30007EBC0D0015DB03208CBC0D0008E40320B6
:104C400030B50D4D0FCD89B001AC0FC495E807000C
:104C50000A4B84E807001B7C094808AA02EB83037F
:104C6000102153F81C3C074A02F030FC064B01228D
:104C70001A7009B030BD00BFD4BF0D00C8E50320D5
:104C800016DB0320B0C00D00F8E503202DE9F04F3E
:104C90004FEA800909F1070483B004F4FF6402AF0E
:104CA000ADEB040D02ADAC464FF0000E4CF804EB3A
:104CB000023800282ADADFF868B0DFF868A00C466E
:104CC00090461E46A9444D4524D0D4E902018DE802
:104CD0000300584694E80C0000F09AFF51EC100BCA
:104CE00004F0E8FC48F8040B45F8040B04F0BAF9AA
:104CF000DAE9002304F00EFA084B002204F034FB3A
:104D000004F0D8FC103446F8040BDCE74CF804EB54
:104D10000138CEE70437BD46BDE8F08F00408F4034
:104D2000D0DA032010D803202DE9F0472DED068BB3
:104D3000B94CBA4B206893F800A0A8B0CDF800A0F9
:104D400004F090F9B64B41EC1A0B93F80090CDF8B3
:104D50001090CDE90201606804F084F9B14B41EC98
:104D6000190B93F80080CDF82080CDE90601A068EA
:104D700004F078F9AC4B41EC180B1D780C95CDE99B
:104D80000A01E06804F06EF9A84B06461B7820691A
:104D900010930F46CDE90E6704F064F9A44BCDE9FA
:104DA00012011B786069149304F05CF9A14C2495FE
:104DB000A14DCDF860A00023CDE916018DED1AAB11
:104DC0008DED1E9B8DED228BCDE92667CDF8709081
:104DD000CDF8808084F88830FFF732FFA86A012878
:104DE0004AD12B7F4BB195484FF4B96100F090FF49
:104DF00051EC100B04F05EFC20606B7F4BB19048CF
:104E00004FF4B96100F084FF51EC100B04F052FC38
:104E10006060AB7F4BB18B484FF4B96100F078FF15
:104E200051EC100B04F046FCA060EB7F4BB18648C0
:104E30004FF4B96100F06CFF51EC100B04F03AFC38
:104E4000E06095F820304BB180484FF4B96100F034
:104E50005FFF51EC100B04F02DFC206195F8213020
:104E6000EBB17B484FF4B96100F052FF51EC100BED
:104E700004F020FC606112E0022840F08F8004F111
:104E80003C0304F1300269460320FFF7FFFE04F102
:104E9000540304F148020CA90320FFF7F7FED4EDF8
:104EA000007A94ED067A6B4EF5EEC07AF1EE10FAC8
:104EB000D8BFF1EE677A37EEC77AF7EE087AB4EE2C
:104EC000E77A0122F1EE10FA327059DA94ED017AA4
:104ED000D4ED076AB5EEC07AF1EE10FAD8BFB1EEA4
:104EE000477A37EE667AB4EEE77AF1EE10FA47DAEF
:104EF00094ED027AD4ED086AB5EEC07AF1EE10FABC
:104F0000D8BFB1EE477A37EE667AB4EEE77AF1EEC3
:104F100010FA35DA94ED037AD4ED096AB5EEC07A69
:104F2000F1EE10FAD8BFB1EE477A37EE667AB4EEFA
:104F3000E77AF1EE10FA23DA94ED047AD4ED0A6AF6
:104F4000B5EEC07AF1EE10FAD8BFB1EE477A37EE7F
:104F5000667AB4EEE77AF1EE10FA11DA94ED057A9A
:104F6000D4ED0B6AB5EEC07AF1EE10FAD8BFB1EE0F
:104F7000477A37EE667AB4EEE77AF1EE10FA48DB5C
:104F8000012584F8885003F0FAFA3570C4F88000DF
:104F9000284628B0BDEC068BBDE8F08703282AD14F
:104FA00004F13C0304F130026946FFF76FFEEB7F2A
:104FB000F3B125484FF4B96100F0AAFE51EC100B93
:104FC00004F078FBE06095F82030FBB11F484FF407
:104FD000B96100F09DFE51EC100B04F06BFB2061F9
:104FE00095F82130002B7FF43CAF0023636156E736
:104FF0000023E360E7E704287FF451AF04F1700376
:1050000004F1600218A9FFF741FEDCE700232361E9
:10501000E6E70020BDE700BF60E4032008D80320D6
:1050200009D803200AD803200BD803200CD803206A
:105030000DD8032078E40320C8E5032088DF03208F
:1050400040E00320F8E00320B0E1032068E2032001
:1050500020E3032004E5032037B5754C2378013B9A
:10506000052B17D8DFE803F0BE035C68428B714B59
:105070005B7A2BB1704B1B78022B01D0FFF7AEFD92
:1050800003F07DFA0A2390FBF3F202FB13030BB942
:1050900005232370694801F03DFB694B1B780BB178
:1050A000FFF770FC674C23783BB13023614A6648B8
:1050B000012100F052FF00232370644C237843B198
:1050C0008C23634A60484FF4007100F046FF0023D0
:1050D0002370604C23783BB118235F4A5A48A021C3
:1050E00000F03BFF0023237003B030BD514D6A7ABE
:1050F0002AB1514B1B78052B01D0FFF76FFDFFF74D
:1051000013FE08B10423C4E703F039FA6B6A90FB7D
:10511000F3F202FB13030BB90323BAE70223B8E748
:10512000444B5B7A2BB1444B1B78032B01D0FFF728
:1051300055FDFFF7F9FDE5E73E4B5B7A2BB13E4BA2
:105140001B78042B01D0FFF749FD02F0F7F868B196
:1051500003F026FA0C2805D102F0F0F810B1002077
:1051600002F00CF9FFF736FC062392E702F0DEF8B6
:105170000223237001F0F4FE384B18608AE72D4BB0
:105180005B7A2BB12C4B1B78062B01D0FFF726FD49
:10519000334B1B7843B903F0F2F90A2390FBF3F287
:1051A00002FB1303002BB9D001F0DAFE2D4B1B6874
:1051B000C01A4AF6C87398427FF66CAF01F0D0FE71
:1051C000264D294A286000238DF80030274B2849B6
:1051D0001B782848FFF7CCF80123237001F0C0FEAC
:1051E000286057E7144B1B78012B01D0FFF7F6FC22
:1051F00001F0B6FE194B1B6803F5922303F5787393
:105200008342BFF447AF02F099F848B100238DF80C
:105210000030164B184A1B7818491648FFF7A8F8B3
:105220004FF4FA6002F09AF903F02EF832E700BF6B
:10523000C5E50320C8E5032004E4032044E403207B
:10524000F9E50320F8E50320D8E3032004E5032073
:1052500078E4032036DB032060E4032040E40320ED
:1052600037DB0320FCE503205CC40D0015DB0320C5
:105270009DBC0D0008E40320B6BC0D00CABC0D00A7
:105280002DE9F84F444CDFF83CB12068DFF838A135
:10529000DFF83891DFF83881404F414E414D03F03F
:1052A000E1FE41EC100B9BF800103F4800F024FD9C
:1052B000606803F0D7FE41EC100B9AF800103B48F1
:1052C00000F01AFDA06803F0CDFE41EC100B99F838
:1052D0000010374800F010FDE06803F0C3FE41EC19
:1052E000100B98F80010334800F006FD206903F019
:1052F000B9FE41EC100B39782F4800F0FDFC6069D5
:1053000003F0B0FE41EC100B31782C4800F0F4FCB7
:10531000206803F0A7FE41EC100B9BF80010284614
:1053200000F0EAFC606803F09DFE41EC100B9AF877
:10533000001005F1B80000F0DFFCA06803F092FE59
:1053400041EC100B99F8001005F5B87000F0D4FC92
:10535000E06803F087FE41EC100B98F8001005F5AB
:105360000A7000F0C9FC206903F07CFE41EC100BD0
:10537000397805F5387000F0BFFC606903F072FE03
:1053800041EC100B317805F5667000F0B5FC0C4B64
:1053900001221A70BDE8F88F60E403200CD80320C6
:1053A0000DD8032038DB032088DF032040E00320F2
:1053B000F8E00320B0E1032068E2032020E30320AB
:1053C00036DB032008D8032009D803200AD803209D
:1053D0000BD8032013B5224C206803F043FE214A6A
:1053E000CDE900012021204802F070F8606803F048
:1053F00039FE1E4ACDE9000120211D4802F066F861
:10540000A06803F02FFE1B4ACDE9000120211A48B5
:1054100002F05CF8E06803F025FE184ACDE90001CF
:105420002021174802F052F8206903F01BFE154AAC
:10543000CDE900012021144802F048F8606903F02A
:1054400011FE124ACDE900012021114802F03EF878
:10545000FFF716FF0F4B01221A7002B010BD00BFFC
:1054600060E40320D0BC0D0045E50320DEBC0D0048
:10547000A5E50320EBBC0D0085E50320FBBC0D007A
:1054800025E5032018BD0D0005E5032035BD0D0001
:1054900065E5032036DB032000B589B0039002F0F8
:1054A000D1FE0D4B039983ED000A04A802F080FEA3
:1054B00000238DF80030094B049A1B7808490948ED
:1054C000FEF756FF04A802F005FEFFF783FF012058
:1054D00009B05DF804FB00BF60E4032015DB032086
:1054E00051BD0D0008E4032000B589B0039002F01F
:1054F000A9FE0D4B039983ED010A04A802F058FEA2
:1055000000238DF80030094B049A1B78084909489C
:10551000FEF72EFF04A802F0DDFDFFF75BFF012080
:1055200009B05DF804FB00BF60E4032015DB032035
:105530006CBD0D0008E4032000B589B0039002F0B3
:1055400081FE0D4B039983ED020A04A802F030FEA0
:1055500000238DF80030094B049A1B78084909484C
:10556000FEF706FF04A802F0B5FDFFF733FF0120A8
:1055700009B05DF804FB00BF60E4032015DB0320E5
:1055800087BD0D0008E4032000B589B0039002F048
:1055900059FE0D4B039983ED030A04A802F008FE9F
:1055A00000238DF80030094B049A1B7808490948FC
:1055B000FEF7DEFE04A802F08DFDFFF70BFF0120D1
:1055C00009B05DF804FB00BF60E4032015DB032095
:1055D000A4BD0D0008E4032000B589B0039002F0DB
:1055E00031FE0D4B039983ED040A04A802F0E0FD9F
:1055F00000238DF80030094B049A1B7808490948AC
:10560000FEF7B6FE04A802F065FDFFF7E3FE0120F9
:1056100009B05DF804FB00BF60E4032015DB032044
:10562000C0BD0D0008E4032000B589B0039002F06E
:1056300009FE0D4B039983ED050A04A802F0B8FD9D
:1056400000238DF80030094B049A1B78084909485B
:10565000FEF78EFE04A802F03DFDFFF7BBFE012021
:1056600009B05DF804FB00BF60E4032015DB0320F4
:10567000DCBD0D0008E403202DE9F04700219AB0BD
:10568000082003F0D7F90121052003F0D3F9FFF733
:1056900079F90023009301224FF0FF33A649082037
:1056A00002F052FBA54B0AAA03F110051746186831
:1056B0005968144603C40833AB422246F7D119880F
:1056C0009B78A3702D2221800DF13B0000219C4C82
:1056D0009C4D002604F0D2F802A8267001F036FE98
:1056E00002A906A802F064FD974906A802F082FD0F
:1056F000CDE90066334632469449006801F036FE33
:1057000006A802F0E7FC02A802F0E4FC90499148E8
:10571000FEF799FD90499148FEF795FD9049914813
:10572000FEF791FD904991483346022201F0E6FDD3
:10573000334601228E498F4801F0E0FD8E498F48A3
:10574000FEF781FD8E498F48FEF77DFD8E498F481B
:10575000FEF779FD8E498F48FEF775FD8E498F481B
:10576000FEF771FD8E498F48FEF76DFD8E498F481B
:105770003346022201F0C2FD334602228C498D4895
:1057800001F0BCFD8C498D48FEF7C8FD8C498D4861
:10579000FEF7C4FD8C498D48FEF7C0FD8C49754865
:1057A000FEF7BCFD8B498C48FEF7B8FD8B498C4851
:1057B000FEF7B4FD8B498C48FEF7B0FD8B498C4851
:1057C000FEF7ACFD8B498C48FEF7A8FD8B498C4851
:1057D000FEF7A4FD8B498C48FEF7A0FD8B498C4851
:1057E000FEF79CFD8B498C48FEF798FD8B498C4851
:1057F000FEF794FD8B498C48FEF790FD8B4800F036
:1058000083FE3146894800F0BCFF894800F018FB50
:105810000123874806AA314600F054FB9DF8183052
:10582000162B45D0824800F015FB824A804804239D
:10583000314600F092FB01237D4806AA314600F074
:1058400041FB9DF81830162B24D001232370FFF75D
:1058500029F8FEF7F7FFFFF713FD6B78002B4BD00D
:10586000002001F08DFB4FF0000A0646002001F0F9
:1058700087FBB0EB060861EB0A09002347F22F52C1
:105880004B4508BF424529D301F058FD30BB01F01C
:1058900045FDEBE7684B8DF800601B78674A684967
:1058A0006848FEF765FDFEF76BFFFEF79BFFCEE74E
:1058B000614B8DF800601B78604A63496148FEF7D0
:1058C00057FD624A5A481823A02100F0FBFA302302
:1058D0002A460121564800F0F5FAB8E701F02EFDFE
:1058E0006868FEF721FD6B6859484FF47A716FF0D4
:1058F00000425943FEF72BFDFFF76CFDFFF714FA4A
:105900006B7A4BB100238DF800304B4B51491B781B
:105910004C483A46FEF72CFD01F010FD10B901F09D
:10592000FDFCF9E701F00AFD23780BB9022323708F
:105930001AB0BDE8F08700BFC9400D00F0BF0D00F0
:10594000C5E50320C8E50320F7BD0D008D430D001C
:1059500030C00D001CBE0D0026DB032024BE0D0050
:1059600016DB03202CBE0D00CCE503203BBE0D0052
:10597000C9E50320E8B70D0045E5032089BE0D0009
:10598000A5E503209ABE0D0085E50320ABBE0D0002
:1059900025E50320BEBE0D0005E50320D0BE0D00A9
:1059A00065E50320E2BE0D00ECE503204ABE0D00D4
:1059B000F0E503205DBE0D00F1400D006CBE0D0052
:1059C00091450D0078BE0D00BD440D0025B80D00B9
:1059D00021440D0099540D0085BE0D00E9540D00C1
:1059E00096BE0D0039550D00A7BE0D0089550D005E
:1059F000BABE0D00D9550D00CCBE0D0029560D00C4
:105A0000DEBE0D000D410D00EFBE0D0011460D0074
:105A1000FDBE0D00D1460D000CBF0D0039450D0037
:105A20001BBF0D0031470D0037BF0D0044E40320BC
:105A3000D8E3032038C00D0015DB032045BF0D005F
:105A400050BF0D0008E4032061BF0D0060E4032097
:105A5000E8E3032073BF0D002DE9F041534B544D93
:105A6000544F01261E70544B022288B01A7002F067
:105A70008BFF00231A4642F6D65102F08DFF02F04A
:105A800083FF00231A460A21002402F08DFF4B4BAE
:105A9000AB602C60AC80AC71304601F0D9FB3A466B
:105AA0004749284603F048F82146304601F0E0FB1C
:105AB0003146042001F034FA03F016F8414D014656
:105AC00023464FF40052284600F0B0F93E4B2B60BD
:105AD0003A463E49284603F02FF803F005F83C4DBE
:105AE0000146284600F018FC28463A4D3A493A4605
:105AF00003F022F839494FF40062284601F082F899
:105B0000374B2B603A463749284603F015F8364B99
:105B100004930DF11008354D354B2B6098E80300C8
:105B200002AA05F10C0382E8030093E8030088E869
:105B3000030092E8030083E803002E4B6B61AB691E
:105B400007932D4B2C71AC60AB612C4A06942B460D
:105B50004FF47A71CDE9004405F1080001F088F9AD
:105B60004046FEF79DFB3A462549284602F0E4FFF1
:105B7000244D254BAC639E622146C5E90C44C5E922
:105B80000F44C5E91244C5E915446C642C65EC6505
:105B9000102205F1600003F071FE1022214605F18C
:105BA000700003F06BFE08B0BDE8F08115DB032048
:105BB00008DB0320C8DA032014DB03200000FFFF0A
:105BC00037420D00D8E30320C0BF0D00D5410D00C2
:105BD00044E4032008E40320A3600D0000F4032044
:105BE00098BF0D00AD410D0051420D00E8E30320C8
:105BF00084BF0D00D9400D00D5400D00FD410D00C2
:105C0000B5420D0078E40320C8E503200000000041
:105C100082B02DE9F84F0AA981E80C00344BDFF877
:105C2000D4B00022C0E90423044640F27E654FF060
:105C3000000ABDF8280002F027FFD4E9048920609B
:105C400003F0FEF942464B4606460F4603F0AAF81B
:105C500052465B4603F05EFA42464B4603F0A4F818
:105C600002460B46C4E904233046394603F09AF84D
:105C700002460B46C4E9022303F04CFA02460B46E7
:105C8000C4E90623D4E9082303F08EF8013D064653
:105C90000F46C4E90867CCD1DDE90C0110A3D3E9B4
:105CA000002303F037FA10A3D3E900238046894686
:105CB0003046394603F058FB41EC100B02F04AFF26
:105CC00000220023C4E9082351EC100B42464B4646
:105CD00003F020FABDE8F84F41EC100B02B070471A
:105CE0006666666666664A3F0000000000F89940F6
:105CF0000000A0400000303F034BC162002280ED55
:105D00000E0BC0E91C2370470000A04000000000FB
:105D10002DE9F74FDFF8C8B00191044600254FF098
:105D2000000A019B9D422FD0A08D02F0ADFED4E968
:105D30001C89E06403F084F942464B4606460F4650
:105D400003F030F852465B4603F0E4F942464B4616
:105D500003F02AF802460B46C4E91C2330463946B4
:105D600003F020F802460B46C4E9182303F0D2F9E9
:105D700002460B46C4E92423D4E9260103F014F8B3
:105D80000135C4E92601CCE713A3D3E90023D4E904
:105D90000E0103F0BFF9064628460F4603F040F90E
:105DA00002460B46D4E9260103F0DEFA41EC100B63
:105DB00002F0D0FE32463B4651EC100B03F0AAF93C
:105DC00041EC100B00220023C4E90801C4E926239A
:105DD00003B0BDE8F08F00BF6666666666664A3F40
:105DE0000000503F704710B51021044602F0A9FE94
:105DF000204610BD0368C9B29B6818470EB410B5A1
:105E00008DB00FAA016852F8044B039200232020A2
:105E1000CDE90403CDE900421E2004AA01F008FAEE
:105E20000DB0BDE8104003B07047000030B5034D21
:105E3000C0E90223C0E9005130BD00BF70C00D00B1
:105E4000406801F033BF10B50446006801F071FFEF
:105E5000204610BD2DE9F0418AB00446406801900B
:105E600001F05EFF1E22002102A8A76803F006FDD4
:105E70000026EFB123681E2FB84628BF4FF01E083A
:105E8000DD6802AA434631462046A847054658B970
:105E90000A480B493246FFF7B1FF01A8FFF7D3FFCD
:105EA00028460AB0BDE8F081A7EB08074644E0E7C2
:105EB00001A8FFF7C8FF0125F2E700BF14E60320A1
:105EC0003CC00D002DE9F7430446406801900D46A3
:105ED00016461F4601F024FFA7B1E168606841F053
:105EE000500101F016FF290A6068FFF783FF294679
:105EF0006068FFF77FFF6068002101F00DFF48B187
:105F0000002400E0012401A8FFF79DFF204603B014
:105F1000BDE8F083202F217B6068B84628BF4FF092
:105F200020080123424641F0500101F0DCFE02F05E
:105F3000DBFD03681B6998474045E1DB06EB080978
:105F400002F0D2FD03685B69984706F8010B4E45E5
:105F5000F6D14544A7EB0807BEE72DE9F74F044605
:105F6000406801900E4690461D4601F0D9FE4FF064
:105F70000109B9F1000F2AD04DB3E168606841F022
:105F8000500101F0C6FE310A6068FFF733FF606818
:105F90003146FFF72FFFA5F11E0A4746A6EB080B77
:105FA000606817F8011B0368013D9B6898475545D9
:105FB0000BEB0706B84601D0002DF1D16068012136
:105FC00001F0AAFE0028D7D04FF00009D1E701A8C0
:105FD000FFF739FF484603B0BDE8F08F2DE9F043E5
:105FE0008BB00E4615468046406801901C4601F075
:105FF00097FEAE4229D2264425448CB11E2C27465A
:10600000D8F8003028BF1E27F61BD3F8089002AA44
:106010003B4631464046ED1BC84748B9002400E0E6
:10602000012401A8FFF70FFF20460BB0BDE8F08365
:10603000D8F8003002AAD3F80C9029463B464046D7
:10604000C8470028EAD0E41BD7E7E9D9002CE7D0FD
:10605000D8F800301E2C274628BF1E27D3F80890FA
:1060600002AA3B4631464046C8470028D6D0D8F859
:10607000003002AAD3F80C9029463B464046C84758
:106080000028CBD03E443D44E41BDFE7402070476E
:106090000020704780207047FF207047704770478E
:1060A0007047704710B51421044602F04AFD20469F
:1060B00010BD10B50821044602F043FD204610BD76
:1060C00010B50821044602F03CFD204610BD10B575
:1060D0001C21044602F035FD204610BD2DE9FF418C
:1060E0000368DB680446984710220146684603F0BF
:1060F000C5FB236820469B6898470025074628462D
:10610000BD420ED27E1B2368102E28BF1026D3F866
:1061100018806A46334629462046C04708B13544B0
:10612000EEE704B0BDE8F0814FF48073438140F2A4
:106130000113C360002303827047000008B5064BBB
:106140000360064B436040F20473038100234374F1
:10615000FFF7EAFF08BD00BF50C10D0000010203B8
:1061600003090A2200F00F0002FB0300704708B584
:10617000807AFFF7F5FF00F5FA6008BDC07A00F0FD
:106180001F00FFF7EDBF007B00F03F00FFF7E8BF07
:1061900008B5817B4A060DD501F01F00FFF7E0FF2F
:1061A0008B0603D50C2800D00C3008BD0C2808BF86
:1061B0000020FAE7BDE8084001F03F00FFF7D0BF3C
:1061C000C07B00F07F00FFF7CBBF007C00F07F00BA
:1061D000FFF7C6BF10B58AB024220446002101A8EB
:1061E00003F04CFB2046FFF7C2FFA0F26C70069054
:1061F0002046FFF7C3FF013805902046FFF7C3FF95
:1062000004902046FFF7C4FF03902046FFF7D8FF15
:1062100002902046FFF7D9FF019001A801F096F9FE
:106220000AB010BD0A2190FBF1F292FBF1F301FBE1
:1062300013231B01DBB201FB12001843C0B27047ED
:10624000642310B5044691FBF3F000FB1310FFF735
:10625000E9FFA07210BD10B504460846FFF7E2FF43
:10626000E07210BD10B504460846FFF7DBFF237B44
:1062700023F03F031843207310BD10B50446481C9B
:10628000FFF7D0FF637B23F007031843607310BD53
:1062900010B504460846FFF7C5FFA07310BD10B542
:1062A00004460846FFF7BEFFE07310BD10B5044674
:1062B0000846FFF7B7FF237C23F07F0318432074C1
:1062C00010BD37B504466846CDE9002303F09CFABB
:1062D000054641692046FFF7B3FF29692046013191
:1062E000FFF7B9FFE9682046FFF7BCFFA969204620
:1062F000FFF7C3FFA9682046FFF7CAFF6968204679
:10630000FFF7CDFF29683B29A8BF3B212046FFF7B7
:10631000CDFF03B030BD0000054A0061C0E9002197
:10632000044A8260044AC260044A80614261704744
:1063300084C10D00000001032CC10D0060C10D00DF
:106340002DE9F84F04460F469046994600260A9BD1
:106350009E4231D26068394601F0D7FC08EB060155
:106360006068FFF747FD6068002101F0D5FC054635
:10637000D0B90A9B60689A1B202A4FF0010328BFFE
:106380002022394601F0AFFC09EB060B05460BEB6A
:10639000000ADA4506D0606803685B6998470BF825
:1063A000010BF6E72E44D2E7024604490448FFF702
:1063B00025FD2846BDE8F88F0025FAE784C00D00CA
:1063C00000E603202DE9F34101EB03081E460368B4
:1063D0009B6805460C461746984780450DD82034E3
:1063E000686800963B46E2B26F21FFF7A9FFB0FA5A
:1063F00080F0400902B0BDE8F0810020FAE72DE905
:10640000F34101EB03081E4603689B6804460D46F2
:106410001746984780450CD8606800963B46EAB21C
:106420005721FFF78DFFB0FA80F0400902B0BDE8B8
:10643000F0810020FAE77FB51E1E0CBF072306235C
:106440000093144602AB0A466F21FFF779FF054619
:10645000A8B99DF8083023749DF80930E3739DF8BE
:106460000A30A3739DF80B3063739DF80C302373CF
:106470009DF80D30E3722EB99DF80E30A3722846B8
:1064800004B070BD02F098F8FFF7CCFEA072F6E7FA
:106490001FB501230A4600936F2103ABFFF750FF9E
:1064A00020B99DF80C0005B05DF804FB0020FAE768
:1064B00008B50321FFF7ECFFC0F3401008BD38B565
:1064C00000230C460A4619460546FFF7B4FF30B9CB
:1064D000A37A23B12846BDE83840FFF7E9BF002082
:1064E00038BD7FB5024601A8FFF728FE01A9104676
:1064F000FFF7E5FF28B101A8FFF76CFE07B05DF8D4
:1065000004FB00200146F9E7D0B5044686B0406898
:1065100001F0CCFB02F016F8E8B9E37A9B071AD534
:106520002046FFF7DEFF06460F4656EA070312D065
:1065300001F00FFF0A4B0B491B68009332463B46A4
:1065400002A801F0BDFF0848029A0849FFF756FC6F
:1065500002A801F0BFFD0123237206B0D0BD00BF29
:10656000E8D8032040E6032000E603209EC00D008B
:106570002DE9F84F0646884691469A4600250A9B23
:106580009D4229D27068414601F0BFFB706809EB5B
:106590000501FFF72FFC0A9B5F1B1F2F28BF1F273A
:1065A0000AEB050407EB040B706814F8011B026882
:1065B00092689047A345F7D17068012101F0ACFBC8
:1065C000044638B1024605490548FFF717FC204646
:1065D000BDE8F88F3D44D2E70024F8E7B3C00D00D2
:1065E00000E603202DE9F34101EB03081E46036892
:1065F0009B6805460C461746984780450DD82034C1
:10660000686800963B46E2B26F21FFF7B1FFB0FA2F
:1066100080F0400902B0BDE8F0810020FAE71FB524
:10662000137C8DF80830D37B8DF80930937B8DF87F
:106630000A30537B8DF80B30137B8DF80C30D37AF6
:106640008DF80D30937A8DF80E30072300930A46AB
:1066500002AB6F21FFF78CFF05B05DF804FB10B5AE
:1066600088B0044603A80193FFF768FD019B03A8C7
:10667000FFF727FE9DF81C30A27A63F07F038DF8A8
:106680001C309DF819306AB143F0080303AA0021B9
:1066900020468DF81930FFF7C2FFB0FA80F04009AC
:1066A00008B010BD03F0F703F0E70000F0B587B0C5
:1066B000054601F047FF0446E8B101F060FFC71747
:1066C000024606463B462846FFF7C9FF0C4B0D49DC
:1066D0001B68009332463B46044602A801F0F0FED8
:1066E0000948029A0949FFF789FB02A801F0F2FC68
:1066F000204607B0F0BD06490348FFF77FFBF7E7E8
:10670000E8D8032040E6032000E60320CEC00D00B9
:10671000E4C00D0037B5457A04469DB901F012FF7B
:1067200080B10022002369462846CDE9002300F00D
:1067300035FE38B1E37ADB0702D52046FFF7B6FF16
:106740000123637203B030BD1FB501238DF80C2007
:1067500000930A4603AB6F21FFF70AFF05B05DF80F
:1067600004FBF8B504460D4617461E46FFF790FE9B
:1067700000EA0702324329462046BDE8F840FFF709
:10678000E3BF012908B50CD800294FF0000314BF5E
:10679000DF22EF220721FFF7E4FFB0FA80F0400983
:1067A00008BD0020FCE738B5044632256068572153
:1067B00001F0ABFA6068012101F0AEFA08B1013DC9
:1067C000F4D138BD2DE9F04104460F46164602EBE0
:1067D0000308B04520D06068572101F096FA394689
:1067E0006068FFF707FB606816F8011B03689B6889
:1067F00098476068012101F08FFA0137054638B1EA
:10680000024606490648FFF7F9FA2846BDE8F08136
:106810002046FFF7C8FFDCE70025F6E7F9C00D00CA
:1068200000E60320F7B5CF181E46036801929B6867
:1068300004460D46984787420AD8019A6068334655
:10684000E9B2FFF7BFFFB0FA80F0400903B0F0BD36
:106850000020FBE7014B024A1A60704700E6032064
:106860001AC10D00012A034602D1016000207047C1
:10687000022A04BFD1E90001C3E90001F6E710B51F
:10688000012303748368044643B1C0689847012319
:1068900063740020BDE8104000F032BB006800289F
:1068A000F5D083680BB902F052F9C368EEE710B473
:1068B00042680346541001EB6200D20748BF0A59F0
:1068C0001B685DF8044B48BFD35818470123F7B540
:1068D00080F829300646083000F0EAFA0420FDF777
:1068E000DAFB054698B31B49142002F02CF930B1AD
:1068F0000023C0E90033C0E9023303744374286005
:10690000A0B1154B1549C0E902364FF40063CDE93B
:1069100000030222124B043000F092FA30B92B68C7
:106920001B7CA3B9012000F00BFBF8E72C680023C7
:106930002B6064B1276837B13846FDF7B1FC1021F0
:10694000384602F0FEF81421204602F0FAF875608D
:1069500003B0F0BD34C40D006B6B0D008CC10D0095
:106960007F680D0047F23051084AC1600849026053
:106970000022C0E904120749C16107494260C0E929
:1069800008228161028580F82A20704750C20D00DC
:10699000D56C0D00AF680D0065680D0010B5044B97
:1069A000044640F8103BFDF77BFC204610BD00BFBD
:1069B00050C20D0010B5034B03600446FFF7EEFF15
:1069C000204610BD78C20D0010B50446FFF7F2FF57
:1069D0002046382102F0B5F8204610BD806800F04E
:1069E0006FBA806800F074BA10B504460068FFF70B
:1069F000F8FF204610BD13B504460190FFF7EEFFE7
:106A0000E36ADC88A4B20CB103F1080401A8FFF723
:106A1000EBFF204602B010BD13B504460190FFF70E
:106A2000DDFF94F8283043B9E26A0124D38001A83D
:106A3000FFF7DAFF204602B010BD0024F7E713B5D8
:106A400004460190FFF7CAFFE36A01A8DC88FFF75C
:106A5000CBFF204602B010BD2DE9F047994686B025
:106A600090F829309DF838A09DF83C8004460F46E8
:106A7000164613B903689B689847314B3846002E79
:106A800008BF1E4602F055FF0546304602F051FF92
:106A9000284400F10A05AB071CBF25F003050435A7
:106AA0003346CDE90285CDE9009A264926483A4683
:106AB000FFF7A4F9238E083BAB4212D200242046F4
:106AC00006B0BDE8F087CB88012B36D005A8FFF7CC
:106AD0008BFF236894F828109B692046984700286C
:106AE000ECD020460594FFF779FFE16A228E636BB4
:106AF0000A44D21AAA42E6D348EA0A0883F8048074
:106B0000C3F80090636B03F108083946404602F071
:106B1000EBFE404602F00DFF01303146404402F0EA
:106B2000E3FE636BE26A1D446563D3880133D3805F
:106B3000012405A8FFF758FFC1E70024F9E700BFCB
:106B40005CC40D009EC10D0004E6032008B5044698
:106B500000F11005A3690BB901F0F9FFE3692146C3
:106B60002846984700F074F9F4E708B5FFF7EEFF00
:106B700068B501F108050646284602F0DAFE013044
:106B80000544284602F0D5FEF36A01302844C31AB2
:106B900013F003031CBFC3F10403C01868BDF7B5AD
:106BA00004460E460190FFF719FFE76AFB8807F1DC
:106BB0000805E6B1012B22D929462046FFF7D8FF68
:106BC000054629462046FFF7D3FF228E3A44121A83
:106BD0000146A0EB050602D0284602F035FE636BA5
:106BE0009B1B6363FB88013BFB80012601E0002BBC
:106BF000E7D101A8FFF7F8FE304603B0F0BD00264C
:106C0000F7E700002DE9F0470D4604462F461646EB
:106C1000FFF7A8FE154B57F8082B2360144BE562CD
:106C20009A422686984617D1AB889BB2B34213D1BD
:106C300005EB060A67634FF00009EB881FFA89F23B
:106C40009BB29A420ED2616B2046FFF791FF5045EE
:106C5000606309F10109F0D90023C5F8008067637A
:106C6000AE80EB802046BDE8F08700BF78C20D0003
:106C700061AB9CD110B5D1E9002386B00021044658
:106C800004910AB9D90705D5CDE902230F4B059325
:106C90000F4B049302AB93E803006A4682E80300BB
:106CA00094E8030083E8030092E80300049A84E870
:106CB0000300A168A260059A04911846E168E260A9
:106CC0000591FDF7EDFA204606B010BDAF680D0046
:106CD00065680D0007B5054B009369460023103029
:106CE0000193FFF7C7FF03B05DF804FB1D6D0D00B6
:106CF00013B5044600F034F9636AC01AE368984299
:106D000008D3054B00936946002304F1100001935A
:106D1000FFF7B0FF02B010BD1D6D0D002DE9F04171
:106D200090F82A3086B00446002B64D100F006FBB0
:106D3000002860D000F014F9636AC01A40F2F13301
:106D4000984258D9236820465B6998470546002831
:106D500051D000F10807012384F82830384602F0AA
:106D6000E8FD95F80480CDF8048001302B682B49AC
:106D700000933E1833462A483A46FFF73FF82B68FF
:106D80008DF800803246394602A800F09DFD029D34
:106D90006B781BB9012000F0E1FBF8E7002000F060
:106DA0006FFA20B16B7813B900F0B8FAFAE72B78D4
:106DB000012B23D11B491A48FFF720F82368002133
:106DC0009B6920469847002384F8283000F0C8F8D3
:106DD0006062039C7CB16368013B63605BB92368BC
:106DE00020469B689847A368013BA3601BB92368B2
:106DF0002046DB68984706B0BDE8F081E2680A49A2
:106E00000748FEF7FBFF094B049304A9002304F194
:106E100010000593FFF72EFFD5E700BFDFC10D007F
:106E200004E6032000C20D0017C20D00F16C0D0036
:106E3000014B024A1A60704704E603203EC20D006F
:106E400008B5024B1B685B68019308BD480203004C
:106E500008B5024B1B68DB68019308BD48020300BC
:106E600008B5024B1B68DB69019308BD48020300AB
:106E700008B5024B1B681B6A019308BD480203005A
:106E800008B5024B1B685B6A019308BD480203000A
:106E900008B5024B1B689B6A019308BD48020300BA
:106EA00008B5024B1B68DB6A019308BD480203006A
:106EB00008B5024B1B681B6B019308BD4802030019
:106EC00008B5024B1B689B6B019308BD4802030089
:106ED00008B5024B1B681B6C019308BD48020300F8
:106EE00008B5024B1B685B6C019308BD48020300A8
:106EF00008B5024B1B689B6C019308BD4802030058
:106F000008B5024B1B68DB6E019308BD4802030005
:106F100008B5024B1B681B6F019308BD48020300B4
:106F200008B5024B1B685B6E019308BD3402030079
:106F300008B5024B1B685B68019308BD180203008B
:106F400008B5024B1B689B68019308BD180203003B
:106F500008B5024B1B68DB68019308BD18020300EB
:106F600008B5024B1B685B69019308BD180203005A
:106F700008B5024B1B689B6D019308BD1802030006
:106F800008B5024B1B68DB6D019308BD18020300B6
:106F900008B5024B1B685B6E019308BD1802030025
:106FA00008B5024B1B689B6E019308BD18020300D5
:106FB00008B5024B1B685B68019308BD2C020300F7
:106FC00008B5024B1B689B68019308BD2C020300A7
:106FD00008B5024B1B68DB68019308BD2C02030057
:106FE00008B5024B1B681B69019308BD2C02030006
:106FF00008B5024B1B689B69019308BD2C02030076
:1070000008B5024B1B68DB69019308BD2C02030025
:1070100008B5024B1B681B6B019308BD2C020300D3
:1070200008B5024B1B68DB68019308BD280203000A
:1070300008B5024B1B689B69019308BD2802030039
:1070400008B5024B1B68DB69019308BD28020300E9
:1070500008B5024B1B681B6A019308BD2802030098
:1070600008B5024B1B685B6A019308BD2802030048
:1070700008B5024B1B689B6A019308BD28020300F8
:1070800008B5024B1B68DB6A019308BD28020300A8
:1070900008B5024B1B681B6B019308BD2802030057
:1070A00008B5024B1B685B6B019308BD2802030007
:1070B00008B5024B1B681B6C019308BD2802030036
:1070C00008B5024B1B689B6C019308BD28020300A6
:1070D00008B5024B1B68DB6C019308BD2802030056
:1070E00008B5024B1B681B6D019308BD2802030005
:1070F00008B5024B1B685B69019308BD640203007D
:1071000008B5024B1B689B68019308BD6802030029
:1071100008B5024B1B68DB68019308BD68020300D9
:1071200008B5024B1B68DB69019308BD3002030000
:1071300008B5024B1B681B6A019308BD30020300AF
:1071400008B5024B1B681B68019308BD3C02030095
:1071500008B5024B1B68DB68019308BD3C020300C5
:1071600008B5024B1B681B69019308BD3C02030074
:1071700008B5024B1B685B69019308BD3C02030024
:1071800008B5024B1B689B69019308BD3C020300D4
:1071900008B5024B1B68DB69019308BD3C02030084
:1071A00008B5024B1B681B6A019308BD3C02030033
:1071B00008B5024B1B689B6A019308BD3C020300A3
:1071C00008B5024B1B681B68019308BD4C02030005
:1071D00008B5024B1B681B69019308BD4C020300F4
:1071E00008B5024B1B685B69019308BD4C020300A4
:1071F00008B5024B1B689B69019308BD4C02030054
:1072000008B5024B1B68DB69019308BD4C02030003
:1072100008B5024B1B681B6A019308BD4C020300B2
:1072200008B5024B1B685B6B019308BD600203004D
:1072300008B5024B1B685B6D019308BD600203003B
:1072400008B5024B1B681B68019308BD20020300B0
:1072500008B5024B1B685B68019308BD2002030060
:1072600008B5024B1B685B69019308BD200203004F
:1072700008B5024B1B68DB6A019308BD20020300BE
:1072800008B5024B1B68DB6C019308BD20020300AC
:1072900008B5024B1B685B6D019308BD200203001B
:1072A00008B5024B1B689B6D019308BD20020300CB
:1072B00008B5024B1B68DB6D019308BD200203007B
:1072C00008B5034B1B68D3F88830019308BD000054
:1072D0002002030008B5034B1B68D3F894300193D8
:1072E00008BD00002002030008B5034B1B68D3F85B
:1072F000AC30019308BD00002002030008B5024B2A
:107300001B681B68019308BD4402030008B5024BCB
:107310001B685B68019308BD4402030008B5024B7B
:107320001B689B68019308BD4402030008B5024B2B
:107330001B68DB68019308BD4402030008B5024BDB
:107340001B685B69019308BD4402030008B5024B4A
:107350001B68DB69019308BD4402030008B5024BBA
:107360001B681B6A019308BD4402030008B5024B69
:107370001B685B6A019308BD4402030008B5024B19
:107380001B68DB6A019308BD4402030008B5024B89
:107390001B681B6B019308BD4402030008B5024B38
:1073A0001B685B6B019308BD4402030008B5024BE8
:1073B0001B689B6B019308BD4402030008B5024B98
:1073C0001B68DB6B019308BD4402030008B5024B48
:1073D0001B685B68019308BD4002030008B5024BBF
:1073E0001B689B68019308BD4002030008B5024B6F
:1073F0001B68DB68019308BD4002030008B5024B1F
:107400001B681B69019308BD4002030008B5024BCD
:107410001B685B69019308BD4002030008B5024B7D
:107420001B689B69019308BD4002030008B5024B2D
:107430001B68DB69019308BD4002030008B5024BDD
:107440001B681B6A019308BD4002030008B5024B8C
:107450001B681B6B019308BD4002030008B5024B7B
:107460001B685B6B019308BD4002030008B5024B2B
:107470001B681B6C019308BD4002030008B5024B5A
:107480001B685B6C019308BD4002030008B5024B0A
:107490001B681B68019308BD1C02030008B5024B62
:1074A0001B685B68019308BD1C02030008B5024B12
:1074B0001B689B68019308BD1C02030008B5024BC2
:1074C0001B681B69019308BD1C02030008B5024B31
:1074D0001B68DB69019308BD1C02030008B5024B61
:1074E0001B68DB6A019308BD1C02030008B5024B50
:1074F0001B681B6B019308BD1C02030008B5024BFF
:107500001B68DB6B019308BD1C02030008B5024B2E
:107510001B685B6C019308BD1C02030008B5024B9D
:107520001B689B6C019308BD1C02030008B5024B4D
:107530001B68DB6C019308BD1C02030008B5024BFD
:107540001B681B6D019308BD1C02030008B5024BAC
:107550001B685B6D019308BD1C0203000021FFF74F
:107560007FBE10B5836804460BB901F0F0FAC3681A
:107570009847A3681BB1032221462046984720461E
:107580001021BDE8104001F0DCBA10B503680446D4
:107590009B689847A368013BA3602BB923682046EA
:1075A000DB68BDE81040184710BD10B50446006800
:1075B00008B1FFF79DFC204610BD0B68036013B1B6
:1075C0005A6801325A60704710B50446006828B105
:1075D0004368013B43600BB9FFF7D7FF204610BD5E
:1075E00013B50B460246D0E900016C4684E803005F
:1075F00093E8030082E8030094E8030083E80300B3
:1076000002B010BD10B5064C002320462360FFF7E2
:1076100067FC2046034A0449BDE8104001F08CBADB
:1076200008E60320C8DA0320AB750D007047002080
:10763000704710B51021044601F083FA204610BDB2
:1076400008B5FFF7F6FF08BD30B500224FF69C7471
:10765000026084808D888C800C68858004600A605C
:1076600030BD10B504460068FFF718FF204610BD76
:1076700038B5C468F4B12378022B03D104F10C00AF
:10768000FFF7EFFF656835B12846FCF709FE1021CA
:10769000284601F056FAA56835B12846FCF700FEE9
:1076A0001021284601F04DFA20461421BDE838404B
:1076B00001F047BA38BD10B588B00446684600F0FE
:1076C00054FD694604A800F073FD04A8A0470446D1
:1076D00004A800F0FFFC684600F0FCFC204608B05F
:1076E00010BD1FB50023CDE90201019210241A46F6
:1076F00069461846ADF80230ADF80040FFF706FEC7
:1077000004B010BD73B50E46044656F8043B009312
:107710000D4601A83146FFF750FF019A009B6260B9
:10772000236001A8002301930093FFF74DFF30462B
:10773000FFF74AFF2846082101F003FA204602B06D
:1077400070BD826810B50AB901F001FABDE81040B9
:10775000C368184708B5006800F11001FFF7F1FF92
:1077600008BD826810B50AB901F0F1F9BDE8104012
:10777000C368184708B5006800F11001FFF7F1FF72
:1077800008BD000038B500230446036010200D46F4
:10779000FCF781FC28B10123C0E90133024B0360EF
:1077A000C5602060204638BDA0C20D0038B500235A
:1077B00083608B6804460D462BB102229847EB6824
:1077C000E360AB68A360204638BD0000F0B589B027
:1077D00004686846FFF738FF4FF00203D4E84F2FE4
:1077E000002A03D1C4E8413F0029F7D125D104F193
:1077F0000C0569462846FFF727FFBFF35B8F01237F
:107800006370002004F10803BFF35B8F53E8006F3F
:1078100043E80002002AF9D1BFF35B8F6EB1FFF796
:107820002FFD78B129463046FFF78BFF3046FCF735
:1078300037FD1021304601F084F96846FFF711FF4B
:1078400009B0F0BD314602A8FFF7B0FFE068B4F917
:10785000105008B102F050F806901020ADF81C50FE
:10786000FCF719FC0546E8B1002787601820FCF7F3
:1078700012FC044688B10146876002A8FFF7B0FEFB
:10788000049BA268A360059B049206A9E268E360DA
:1078900004F110000592FFF7D7FE084BEB60084B90
:1078A0002C60AB6006A8FFF7DCFE02A8FCF7F8FC32
:1078B000002229460348FFF7EBFCB7E755770D0098
:1078C000ED790D0063750D002DE9F0478AB005468E
:1078D0009DF848900C4617469846FFF72FFD07AED7
:1078E000824638BB4FF62E73059005A93046ADF899
:1078F0001830FFF7A9FE1420FCF7CDFB044648B171
:10790000022303700123C0E901AA437031460C3001
:10791000FFF79AFE2846214640F8044BFFF732FF56
:107920003046FFF79EFE05A8FFF79BFE28460AB0EB
:10793000BDE8F0870C234FF0000A1420CDE908AA17
:107940000793FCF7A8FB014628B1C0E901AA80F81B
:1079500000A080F801A004A80391FFF713FF224BB9
:1079600008930820FCF797FB824628B1039B40F858
:10797000043B04A9FFF721FE00965FFA89F3424613
:1079800039462046CDF824A0FFF7E8FCB8B9039BA0
:107990005B7803F0FF0293B94FF69C7305A903A827
:1079A0000592ADF81830FFF711FF05A8FFF759FE53
:1079B00005A80999FFF7A6FE06A8FFF705FE039B99
:1079C000059304A906A8FFF7F8FD059B069A2B600E
:1079D0006A60002306A806930593FFF7F5FD04A847
:1079E000FFF7F2FDA2E700BFB17A0D00022AF8B559
:1079F000054607D0032A18D0012A01D10B6803607D
:107A00000020F8BD18200E68FCF745FB044650B175
:107A10003146FFF7CBFE3069B6F9147008B101F0BA
:107A20006BFF2061A7822C60EAE70468002CE7D096
:107A300004F11000FFF715FE2046FCF731FC182179
:107A4000204601F07EF8DBE738B5002383608B68C1
:107A500004460D462BB102229847EB68E360AB6801
:107A6000A360204638BD022A70B5044607D0032A19
:107A700012D0012A01D10B680360002070BD1420D0
:107A80000E68FCF708FB054620B13146FFF7DCFF26
:107A9000337C2B742560F0E70468002CEDD0204681
:107AA000FCF7FEFB1421204601F04BF8E5E700004F
:107AB000F0B589B004460D4601A81146FFF722FE35
:107AC000A4B124B21DB1284601F016FF054601A855
:107AD00003A90395ADF81040FFF778FE03A8FFF760
:107AE000C0FD02A8FFF770FD09B0F0BD019D0123A4
:107AF000D5E84F2F002A03D1C5E8413F0029F7D12F
:107B0000EFD12B73BFF35B8F6B702B1DBFF35B8FBC
:107B100053E8006F43E80042002AF9D1BFF35B8FBE
:107B2000002EDED02046FFF7ABFB074660B105F123
:107B30000C013046FFF715FE3046FCF7B1FB102173
:107B4000304600F0FEFFCCE7314603A8FFF77CFF8C
:107B50002B7B8DF81C301020FCF79DFA0546D0B128
:107B600087601420FCF797FA044678B187600146D5
:107B700003A8FFF735FD059BA268A360069B05924D
:107B8000E268E3609DF81C3006922374064BEB60BC
:107B9000064B2C60AB6003A8FCF782FB0022294651
:107BA0000348FFF775FBC7E775770D00677A0D008F
:107BB00063750D00002240681146FFF73FBC0022AC
:107BC00040681146FFF74ABC40680022FFF73EBC00
:107BD0004068002281F00101FFF728BC00234068C3
:107BE0001A461946FFF71ABC002340681A46194680
:107BF000FFF70CBC002240681146FFF7FFBB0022D4
:107C000040681146FFF7EABB406800220221FFF7F7
:107C1000EDBB002340681A46FFF7D8BB024B032296
:107C20005A60024A1A6070470CE60320BCC20D007D
:107C30007047F8B5064615460C468F18BC4206D06C
:107C4000336814F8011B9B6830469847F6E72846CE
:107C5000F8BD007C0022FFF7FBB9007C0021FFF794
:107C6000FFB9007C0021FFF703BA007C0021FFF779
:107C700007BA007C0021FFF70BBA10B514210446A7
:107C800000F05FFF204610BD10B54FF47A73044634
:107C900008460021C4E90113034B236020741146F8
:107CA000FFF706FA204610BDF8C20D000023007C45
:107CB0001A461946FFF7B4B97FB500221423CDE95F
:107CC0000122ADF804300B788DF808304B6803932F
:107CD000CB680493007C0B7A059301A9FFF700FAA7
:107CE00007B05DF804FB1FB5003B8DF800104FF0A6
:107CF0006401039118BF0123694601928DF8083091
:107D0000FFF7DAFF05B05DF804FB007C0022FFF707
:107D10008FB9C9B2FFF7F9BF007C0022FFF790B915
:107D200008B50021007CFFF7CBF9B0FA80F04009DC
:107D300008BD08B50021007CFFF7CAF9B0FA80F051
:107D4000400908BD004700002DE9FF4100241D4601
:107D50000F4690460646FFF753F9A5424FF004033D
:107D6000ADF80D408DF80C308DF80F40A2BF9DF896
:107D700028308DF80E3003AC0749009443463A464C
:107D80003046A8BF8DF80D50FFF732F9B0FA80F0F9
:107D9000400904B0BDE8F081457D0D00704710B585
:107DA0001821044600F0CDFE204610BDF0B5037D3D
:107DB000062B8DB00E4600F104074FF0000412D0E0
:107DC00000F1080515F8011D0A22304600F045F9BA
:107DD000AF42044419D0002CF4D02E21304600F0DC
:107DE00039F90444EEE72F236A4639460A208DF814
:107DF0000040FFF77DF9684601F09BFD33680246BD
:107E0000DB68694630469847044620460DB0F0BD11
:107E100010B5054B0446112240F8043B002101F047
:107E20002DFD204610BD00BF20C30D000346074AAC
:107E300010B543F8042B01F1100251F8044B43F83C
:107E4000044B9142F9D10A781A7010BD20C30D007D
:107E500010B59DF8084044EA032343EA024242EA8F
:107E6000016104234160037510BD000013B5054B8B
:107E70000360CB7800938B784A780978FFF7E8FFA6
:107E800002B010BD20C30D00014B024A1A607047BA
:107E900014E603202CC30D00002340681A46FFF7A8
:107EA00095BA406800220221FFF7A0BA002240687C
:107EB0001146FFF793BA002240681146FFF79EBAB9
:107EC000002340681A461946FFF7A0BA002340680D
:107ED0001A461946FFF7A2BA40680021FFF7C6BA52
:107EE00040680021FFF7CABA4068002281F0010112
:107EF000FFF79CBA40680022FFF7A8BA002240684A
:107F00001146FFF7ABBA002240681146FFF796BA58
:107F10002DE9F043002495B016460D460746FFF7BD
:107F200077FF214618220EA8009401F0A7FC4023F9
:107F3000CDE90C3421466B460CAA3046FFF7E8F831
:107F4000044600284CD1024601216868FFF756FA22
:107F50000221804622466868FFF750FA009E81465B
:107F60002146002E3CD000293AD17368022B03D061
:107F70000A2B11D0F669F4E7B8F1000F0AD0716945
:107F800006A8043107ADFFF771FF0FCD3C1D0FC4EC
:107F90002B6823704146EDE7B9F1000F01D1494646
:107FA000E8E77469102201A801F068FC06238DF847
:107FB000143001AD04F108031834186859682A46D2
:107FC00003C20833A3421546F7D101A906A807AD9D
:107FD000FFF72CFF0FCD3C1D0FC42B682370DEE78D
:107FE0000098FFF78DF8384615B0BDE8F083000023
:107FF000024B034A1A6000225A60704718E60320B9
:1080000038C30D00F8B506460D468F180024BD4252
:108010000CD0336815F8011B9B6830469847031E47
:1080200001DB1C44F3E7002C08BF1C462046F8BDCA
:1080300013B50446084659B1019101F07AFC236852
:108040000199DB680246204602B0BDE8104018479F
:1080500002B010BD03689B68184730B58BB0002391
:108060008DF82430012A98BF0A2209AC0D46B1FBD5
:10807000F2F101FB125303F0FF03092B94BF3033DD
:108080003733DBB2AA4204F8013DEFD92146FFF7AE
:10809000CFFF0BB030BD10B50446FCF701F9204608
:1080A00010BD00000348044A04490023836000F027
:1080B00043BD00BF20E60320C8DA032097800D00EF
:1080C00010B5044608462170FFF72AF800236360C4
:1080D000204610BD10B504460068FFF7DFF92046C2
:1080E00010BD10B50446006808B1FFF7D7F90023AA
:1080F000C4E90133236010BD38B504460D4600685D
:108100000131FFF7D3F910B1C4E90005012038BDF2
:1081100010B50368044623B143688B4201D30120A4
:1081200010BD2046FFF7E8FF0028F9D0A368002B18
:10813000F5D122681370F2E737B50D46114601926A
:108140000446FFF7E5FF019A28B92046FFF7C9FF6B
:10815000204603B030BDA2602946206801F066FBCE
:108160002268A3680021D154F2E7002313B5C0E9C7
:10817000003304468360037341B10846019101F066
:10818000D8FB019902462046FFF7D6FF204602B0F1
:1081900010BD884210B5044605D00B682BB18A6823
:1081A0001946FFF7C9FF204610BDFFF79AFFFAE70F
:1081B00010B500230446C0E9003383600373FFF762
:1081C000E8FF204610BD70B505460E4609B90020EF
:1081D00070BD6AB1846814442146FFF799FF0028F6
:1081E000F5D02868AB683146184401F07DFBAC60DF
:1081F0000120EDE713B5044629B92046FFF771FFCA
:10820000204602B010BD0846019101F092FB019991
:1082100002462046FFF7D7FF0028EED0F0E708B56A
:1082200082683AB921B10878B0FA80F0400900E0DC
:10823000012008BD006809B90078F5E701F04AFBA4
:10824000F2E7000008B5006840B101F0C7FA51EC50
:10825000100B01F02FFA00EE100A08BD9FED010A85
:10826000FBE700BF0000000007B50B4600210246F7
:10827000009101208C21FFF737F803B05DF804FB73
:1082800001460020FFF7F0BF0020FFF7F9BF000014
:1082900010B5094B094C022200201A60084B2060DF
:1082A000A080A071A360FEF7D3FF2046054A0649CF
:1082B000BDE8104000F040BC3CE6032030E603205F
:1082C0000000FFFFC8DA032037420D002DE9F0411E
:1082D000154ADFF86080D2E90032C01842EB010194
:1082E000124AD2E90032C61841EB0207D8E900234E
:1082F000BB4208BFB2428CB013D003A96846CDE997
:108300000067FFF713F9089B094D03F26C7303AC88
:1083100008930FCC0FC50FCC0FC5C8E900672368C1
:108320002B600CB0BDE8F08178E6032070E60320F6
:1083300048E6032080E6032008B50020FFF726F872
:1083400028B1FEF7FBFF80F00100C0B208BD01209C
:10835000FCE71FB502460B4668460021CDE9002325
:10836000CDE90211FEF71CFE024610B90146FEF7E8
:108370009FFF05B05DF804FB30B504461848D0E90E
:108380000010521840EB03031648D0E900105218B1
:1083900093B040EB0303CDE9002324220DEB020050
:1083A000002101F06BFA002509A96846FFF7BEF825
:1083B0001622294603A8029501F060FA02A909A82D
:1083C00001F0E6F902A801F0B4FA12AB184402A9D0
:1083D00000F8415C2046FFF7C8FE204613B030BDD0
:1083E00078E6032070E603202DE9F04FA5B007469C
:1083F000884614A811463F221D4601F0B4FA002316
:1084000014A88DF88F3001F094FA04465DBB2A4918
:1084100003A801F069FA14AE002504F1FF3BAB4557
:1084200036D9B14605F1010A19F8013B252B17D1C0
:1084300073787A2B14D103A801F07BFA14AB0446AD
:1084400028181844ABEB0502B11C01F0EFF92246E5
:1084500003A9304601F0EAF914A801F06AFA0446CB
:108460004E465546D9E73C2195FBF1F3002BB8BFAA
:108470005B42B3FBF1F201FB123300930F4A4FF45E
:108480006163102103A895FBF3F3FFF71FF8C2E720
:1084900000212E2208A8079101F0F0F9434614AA02
:1084A000322107A8FFF73AF807A93846FFF75DFE23
:1084B000384625B0BDE8F08F6CC30D006EC30D00CB
:1084C000F0B58DB0CDE90023129D044615B9194BC6
:1084D0001D682DB1184B2846196801F0FBF938B911
:1084E000DDE900232046FFF747FF20460DB0F0BD31
:1084F000124E0099124FD6E900325B18019941EBF8
:108500000202D7E900011B1841EB0202CDE900325B
:108510000021242203A801F0B1F903A96846FFF75E
:1085200005F832683B6803A9134420462A46FFF742
:108530005BFFDAE744E60320E8D8032078E603206F
:1085400070E6032010B50020FEF712FD0446A0B926
:10855000FEF776FE012810D12046FEF7A1FE60B995
:10856000FFF7EAFE10B9FEF7D9FEF9E7FFF7E4FEE0
:10857000BDE810400020FEF7FBBC204610BD1FB533
:10858000FFF7E0FF10220021684601F077F9002193
:108590006846FEF7FDFC009805B05DF804FB00009E
:1085A00008B5FFF7ECFFC117FFF790FE014B986885
:1085B00008BD00BF48E6032008B5FFF7E0FFC1177C
:1085C000FFF784FE014B586908BD00BF48E6032051
:1085D000024B1A68024B1A60704700BFE8D80320AC
:1085E00044E6032070474174704708B5007CFEF7ED
:1085F000DFFD20EAE07008BD08B5007CFEF7B0FDA5
:1086000020EAE07008BD08B5007CFEF7B9FD40EA3D
:10861000E07008BD08B5007CFEF7AAFD40EAE070F6
:1086200008BD007CFEF7B4BD37B5457C04462DB1CE
:10863000207C03B0BDE83040FEF78ABD007C01918C
:10864000FEF7B6FD00280199F2DC284603B030BDE4
:1086500010B51421044600F074FA204610BD000045
:1086600010B54FF0000C0446084611464FF47A72DC
:10867000C4E901C2044A22600122207462741A46CD
:10868000FEF75EFD204610BDA0C30D0013B50E4CD5
:108690002178BFF35B8F11F0010112D120460191C7
:1086A000FBF70AFD019960B1084A094B0948FFF739
:1086B000D7FF2046FBF705FD074A0849054800F0AB
:1086C0003BFA044802B010BD88E603208CE6032084
:1086D00010E7032094E70320C8DA0320E5850D00A6
:1086E00041747047704708B50021007CFEF780FD9B
:1086F00040EAE07008BD08B50121007CFEF778FD76
:1087000040EAE07008BD08B5007CFEF769FD20EA8C
:10871000E07008BD08B5007CFEF75AFD20EAE07065
:1087200008BD13B50446007C0191FEF759FD0028F1
:10873000019901DC607C20B1207CFEF761FD20EA1C
:10874000E07002B010BD007CFEF762BD10B51421D0
:10875000044600F0F6F9204610BD000010B54FF4B5
:108760007A73044608460021C4E90113044B2360D0
:108770000123207463741146FEF722FD204610BDCC
:10878000D0C30D0010B514220446002101F076F884
:10879000204610BD10B5104C88B003A8FFF7F2FFBB
:1087A0002178BFF35B8F11F0010111D120460191B7
:1087B000FBF782FC019958B103AA0848FFF7CEFFE6
:1087C0002046FBF77EFC064A0649044800F0B4F94F
:1087D000024808B010BD00BFA8E70320ACE70320A3
:1087E000C8DA0320E5860D00002240681146FEF736
:1087F00005BE002240681146FEF720BE00224068F8
:108800001146FEF72BBE40680022FEF71FBE4068EF
:10881000002281F00101FEF709BE002340681A46DC
:108820001946FEF7FBBD002340681A461946FEF7BD
:10883000EDBD002240681146FEF7D0BD4068002221
:108840000221FEF7D3BD002340681A46FEF7BEBDE5
:10885000024B04225A60024A1A607047C0E70320A4
:1088600000C40D00014B1860704700BFF0D8032012
:1088700008B50B4B43B1FFF78DFF03681B699847A1
:10888000002801DDAFF30080064B43B1FFF7FEFE89
:1088900003681B699847002801DDAFF3008008BD1D
:1088A000000000000000000008B5FFF7E1FFFEF740
:1088B00057FB014B186008BDDCE703200248034A60
:1088C0000349121A00F0B2BF00F4032004FC032095
:1088D00040C70D0007B5002300931A466FF07701DB
:1088E000FEF7F8FC03B05DF804FB000007B5438811
:1088F0000A2B08D0502B0BD1094B1B684BB103B08E
:108900005DF804EB1847FFF7E5FF03B05DF804FBE3
:10891000002300931A466FF07701FEF7DBFCF4E7C3
:10892000CCE7032038B5124C1248134D0021FEF756
:10893000EDFD2368AB42114B0CBF012200221A70DF
:1089400002D0FFF7BBFF2560FEF7F2FA044600F005
:108950009DFF0B4B13B12046AFF300800021084868
:10896000FEF72CFDBDE8384006480021FEF7A8BC04
:1089700000FC032065880D001E1C279AC8E7032011
:1089800000000000ED880D0008B5024B1B681B6855
:10899000019308BD5C02030008B5024B1B685B68CD
:1089A000019308BD5C02030008B5024B1B689B687D
:1089B000019308BD5C020300232813B502D90020EF
:1089C00002B010BDA0F10B03022B1AD8174C21786E
:1089D000BFF35B8F11F001010BD120460191FBF732
:1089E0006BFB019928B11248FFF76AFB2046FBF7A1
:1089F00068FB0F4B1878FEF79BFB0028DFD10120A6
:108A0000DEE7012809D800F06FF80021007CFEF7AE
:108A100047FB80F00100C0B2D2E709380128EED848
:108A2000FFF734FE007CFEF7BBFBF2E7D0E7032044
:108A3000D4E70320232838B504460D460AD8FF2979
:108A400008D0FFF7B9FF28B129462046BDE83840D5
:108A5000FEF7B6BA38BD38B504460D46FEF7B8FA8B
:108A6000FF2810D0062804D84D2323FA00F0C307AE
:108A700009D42046FFF7A0FF28B129462046BDE8CB
:108A80003840FEF7ADBA38BD0D2810B504469CBF7E
:108A90000E34A4B22046FFF78FFF50B103212046C9
:108AA000FEF786FA032804D12046BDE81040FEF701
:108AB000AFBA002010BD000038B500232025438048
:108AC000142304460380856005610649284600F0AA
:108AD0003CF804496060284600F037F8E060204622
:108AE00038BD00BF34C40D0030B50F4D2978BFF339
:108AF0005B8F11F0010487B013D12846FBF7DCFA35
:108B000078B101A8FFF7D8FF01AA21460748FFF76F
:108B1000BBF82846FBF7D5FA054A0649034800F09A
:108B20000BF8024807B030BDE0E70320E4E703207C
:108B3000C8DA0320317C0D000B460146184600F0D0
:108B400055BEFBF7ACBAFBF7A6BAFBF7A6BA08B559
:108B5000FEF7C4FC2DE9F0432DED028B8BB055ECF4
:108B6000104B00F055F8284BB0EE408AF0EE608ACA
:108B700093F900707B1C12D022462B4620462946D2
:108B800000F062FD064650B94FF000084FF00009B2
:108B90002046294642464B4600F02EFD40B9B0EE35
:108BA000480AF0EE680A0BB0BDEC028BBDE8F0831A
:108BB000164B08960122CDE90445CDE90245009205
:108BC000019397B142464B464046494600F0CCFBE4
:108BD000022FCDE906010AD1FEF790FC21230360A4
:108BE000089B63B99DED068BD9E7CDE906896846F8
:108BF00000F0D2F80028EFD0089B002BF2D0FEF74F
:108C00007DFC089B0360EDE7ECD8032038C40D0021
:108C10002DE9F0415F4A57EC106BBA4300F09880A1
:108C2000002F10EE104A3B464EDD39155BD0C3F3E2
:108C30001303CA0743F48013A1F2FF3E03D45B0081
:108C400003EBD4736400E20F4FF0000C02EB43031C
:108C50004FEA6E0E6400664616254FF40012B118F6
:108C6000994202DC5B1A8E1894445B00013D03EBD1
:108C7000D4734FEA52024FEA4404F0D12F46202029
:108C80004FF0004209E03ED0E10F01384FEA5202B6
:108C900001EB43034FEA44043ED0B34202EB05012B
:108CA000F1DD002901EB020509DBB0469B1BA14267
:108CB00088BF03F1FF33641A17444646E4E7002DEA
:108CC000F3DB06F10108F1E727F00042324336D02A
:108CD000002F4DD13946E20A153964051346002AA2
:108CE000F9D0D70251D400205B00DE02054600F126
:108CF0000100F9D51A4623468440C0F12000C34044
:108D00001343491B93E7A142BED8002901EB02059A
:108D1000D5DB98460023CEE7234312D178084FEAEB
:108D20006C0101F17F511CF0010F01F5001118BF1A
:108D300040F0004001EB0E53024643EC102BBDE81F
:108D4000F0817B1C16BF781C0CF1010C4008E6E793
:108D500010EE102A10EE100A3B46394600F0DAF900
:108D600032463B4600F020F841EC100BBDE8F081A4
:108D700010EE102A3046394600F014F802460B4631
:108D800000F0F2FA41EC100BD9E7234620204FF017
:108D9000FF35B4E70000F07F0020704781F000410C
:108DA00002E000BF83F0004330B54FEA41044FEAD0
:108DB000430594EA050F08BF90EA020F1FBF54EA6B
:108DC000000C55EA020C7FEA645C7FEA655C00F007
:108DD000E2804FEA5454D4EB5555B8BF6D420CDDD8
:108DE0002C4480EA020281EA030382EA000083EA5B
:108DF000010180EA020281EA0303362D88BF30BDFB
:108E000011F0004F4FEA01314FF4801C4CEA113150
:108E100002D0404261EB410113F0004F4FEA0333AF
:108E20004CEA133302D0524263EB430394EA050F3A
:108E300000F0A780A4F10104D5F1200E0DDB02FAA9
:108E40000EFC22FA05F2801841F1000103FA0EF23D
:108E5000801843FA05F359410EE0A5F120050EF103
:108E6000200E012A03FA0EFC28BF4CF0020C43FA34
:108E700005F3C01851EBE37101F0004507D54FF041
:108E8000000EDCF1000C7EEB00006EEB0101B1F591
:108E9000801F1BD3B1F5001F0CD349085FEA3000D7
:108EA0004FEA3C0C04F101044FEA445212F5800FE2
:108EB00080F09A80BCF1004F08BF5FEA500C50F17F
:108EC000000041EB045141EA050130BD5FEA4C0C62
:108ED000404141EB0101013C28BFB1F5801FE9D2BF
:108EE00091F0000F04BF01460020B1FA81F308BFE2
:108EF0002033A3F10B03B3F120020CDA0C3208DDAE
:108F000002F1140CC2F10C0201FA0CF021FA02F188
:108F10000CE002F11402D8BFC2F1200C01FA02F1F8
:108F200020FA0CFCDCBF41EA0C019040E41AA2BF1D
:108F300001EB0451294330BD6FEA04041F3C1CDAE5
:108F40000C340EDC04F11404C4F1200220FA04F005
:108F500001FA02F340EA030021FA04F345EA0301AF
:108F600030BDC4F10C04C4F1200220FA02F001FA71
:108F700004F340EA0300294630BD21FA04F02946F3
:108F800030BD94F0000F83F4801306BF81F480118C
:108F90000134013D4EE77FEA645C18BF7FEA655CFF
:108FA00029D094EA050F08BF90EA020F05D054EAD1
:108FB000000C04BF1946104630BD91EA030F1EBFD6
:108FC0000021002030BD5FEA545C05D140004941DA
:108FD00028BF41F0004130BD14F580043CBF01F5CD
:108FE000801130BD01F0004545F0FE4141F47001B3
:108FF0004FF0000030BD7FEA645C1ABF194610468E
:109000007FEA655C1CBF0B46024650EA013406BF8E
:1090100052EA033591EA030F41F4002130BD00BF4D
:1090200090F0000F04BF0021704730B54FF480640A
:1090300004F132044FF000054FF0000150E700BF8B
:1090400090F0000F04BF0021704730B54FF48064EA
:1090500004F1320410F0004548BF40424FF00001D7
:109060003EE700BF42004FEAE2014FEA31014FEA1A
:1090700002701FBF12F07F4393F07F4F81F0605169
:10908000704732F07F4208BF704793F07F4F04BFB4
:1090900041F40021704730B54FF4607401F0004591
:1090A00021F000411CE700BF50EA010208BF7047F1
:1090B00030B54FF000050AE050EA010208BF7047E2
:1090C00030B511F0004502D5404261EB41014FF44B
:1090D000806404F132045FEA915C3FF4D8AE4FF053
:1090E00003025FEADC0C18BF03325FEADC0C18BF36
:1090F000033202EBDC02C2F1200300FA03FC20FA87
:1091000002F001FA03FE40EA0E0021FA02F11444D3
:10911000BDE600BF70B54FF0FF0C4CF4E06C1CEAEC
:1091200011541DBF1CEA135594EA0C0F95EA0C0F5D
:1091300000F0DEF82C4481EA030621EA4C5123EAD0
:109140004C5350EA013518BF52EA033541F48011FF
:1091500043F4801338D0A0FB02CE4FF00005E1FBB2
:1091600002E506F00042E0FB03E54FF00006E1FBFC
:1091700003569CF0000F18BF4EF0010EA4F1FF043F
:10918000B6F5007F64F5407404D25FEA4E0E6D417F
:1091900046EB060642EAC62141EA55514FEAC52090
:1091A00040EA5E504FEACE2EB4F1FD0C88BFBCF50C
:1091B000E06F1ED8BEF1004F08BF5FEA500E50F1BD
:1091C000000041EB045170BD06F0004646EA010183
:1091D00040EA020081EA0301B4EB5C04C2BFD4EBB5
:1091E0000C0541EA045170BD41F480114FF0000EAE
:1091F000013C00F3AB8014F1360FDEBF002001F01C
:10920000004170BDC4F10004203C35DA0C341BDC95
:1092100004F11404C4F1200500FA05F320FA04F067
:1092200001FA05F240EA020001F0004221F000419B
:1092300010EBD37021FA04F642EB06015EEA430E0E
:1092400008BF20EAD37070BDC4F10C04C4F120053E
:1092500000FA04F320FA05F001FA04F240EA0200F1
:1092600001F0004110EBD37041F100015EEA430EC2
:1092700008BF20EAD37070BDC4F1200500FA05F2E2
:109280004EEA020E20FA04F301FA05F243EA020361
:1092900021FA04F001F0004121FA04F220EA020070
:1092A00000EBD3705EEA430E08BF20EAD37070BDB6
:1092B00094F0000F0FD101F00046400041EB010196
:1092C00011F4801F08BF013CF7D041EA060195F078
:1092D000000F18BF704703F00046520043EB030332
:1092E00013F4801F08BF013DF7D043EA060370471F
:1092F00094EA0C0F0CEA135518BF95EA0C0F0CD02A
:1093000050EA410618BF52EA4306D1D181EA03016F
:1093100001F000414FF0000070BD50EA410606BF69
:109320001046194652EA430619D094EA0C0F02D1AE
:1093300050EA013613D195EA0C0F05D152EA0336F3
:109340001CBF104619460AD181EA030101F0004111
:1093500041F0FE4141F470014FF0000070BD41F05A
:10936000FE4141F4780170BD70B54FF0FF0C4CF434
:10937000E06C1CEA11541DBF1CEA135594EA0C0F53
:1093800095EA0C0F00F0A7F8A4EB050481EA030EA0
:1093900052EA03354FEA013100F088804FEA033387
:1093A0004FF0805545EA131343EA12634FEA022255
:1093B00045EA111545EA10654FEA00260EF0004116
:1093C0009D4208BF964244F1FD0404F5407402D268
:1093D0005B084FEA3202B61A65EB03055B084FEAF9
:1093E00032024FF480104FF4002CB6EB020E75EBF6
:1093F000030E22BFB61A754640EA0C005B084FEA1E
:109400003202B6EB020E75EB030E22BFB61A75469A
:1094100040EA5C005B084FEA3202B6EB020E75EBE5
:10942000030E22BFB61A754640EA9C005B084FEA5D
:109430003202B6EB020E75EB030E22BFB61A75466A
:1094400040EADC0055EA060E18D04FEA051545EA59
:1094500016754FEA06164FEAC30343EA52734FEA02
:10946000C2025FEA1C1CC0D111F4801F0BD141EA7B
:1094700000014FF000004FF0004CB6E711F4801FE0
:1094800004BF01430020B4F1FD0C88BFBCF5E06FC0
:109490003FF6AFAEB5EB030C04BFB6EB020C5FEAD0
:1094A000500C50F1000041EB045170BD0EF0004E25
:1094B0004EEA113114EB5C04C2BFD4EB0C0541EA57
:1094C000045170BD41F480114FF0000E013C90E654
:1094D00045EA060E8DE60CEA135594EA0C0F08BF18
:1094E00095EA0C0F3FF43BAF94EA0C0F0AD150EA17
:1094F00001347FF434AF95EA0C0F7FF425AF1046AA
:1095000019462CE795EA0C0F06D152EA03353FF4D1
:10951000FDAE1046194622E750EA410618BF52EA4E
:1095200043067FF4C5AE50EA41047FF40DAF52EA22
:1095300043057FF4EBAE12E74FF0FF3C06E000BFBF
:109540004FF0010C02E000BF4FF0010C4DF804CDCC
:109550004FEA410C7FEA6C5C4FEA430C18BF7FEA8C
:109560006C5C1BD001B050EA410C0CBF52EA430CBA
:1095700091EA030F02BF90EA020F0020704710F13A
:10958000000F91EA030F58BF994208BF90422CBFC9
:10959000D8176FEAE37040F0010070474FEA410CC2
:1095A0007FEA6C5C02D150EA013C07D14FEA430CE0
:1095B0007FEA6C5CD6D152EA033CD3D05DF8040B51
:1095C000704700BF8446104662468C461946634683
:1095D00000E000BF01B5FFF7B7FF002848BF10F15A
:1095E000000F01BD4DF808EDFFF7F4FF0CBF01209F
:1095F00000205DF808FB00BF4DF808EDFFF7EAFF1B
:1096000034BF012000205DF808FB00BF4DF808EDD5
:10961000FFF7E0FF94BF012000205DF808FB00BFCA
:109620004DF808EDFFF7CEFF94BF012000205DF854
:1096300008FB00BF4DF808EDFFF7C4FF34BF012061
:1096400000205DF808FB00BF4FEA410C7FEA6C5C2C
:1096500002D150EA013C0AD14FEA430C7FEA6C5C2C
:1096600002D152EA033C02D14FF0000070474FF0A4
:10967000010070474A0011D212F5001211D20DD527
:109680006FF47873B3EB62520ED44FEAC12343F008
:10969000004343EA505323FA02F070474FF00000B2
:1096A000704750EA013002D14FF0FF3070474FF061
:1096B000000070474FEA4102B2F1E04324BFB3F526
:1096C000001CDCF1FE5C0DD901F0004C4FEAC00239
:1096D0004CEA5070B2F1004F40EB830008BF20F01D
:1096E0000100704711F0804F21D113F13872BCBFD7
:1096F00001F00040704741F480114FEA5252C2F12C
:109700001802C2F1200C10FA0CF320FA02F018BF74
:1097100040F001004FEAC1234FEAD32303FA0CFCC7
:1097200040EA0C0023FA02F34FEA4303CCE77FEA56
:10973000625307D150EA01331EBF4FF0FE4040F4A0
:109740004000704701F0004040F0FE4040F400004F
:10975000704700BFD0B50C4B002206460F46FFF7FE
:10976000D9FCFFF787FF0446FFF75AFC074B00229E
:10977000FFF7D0FC02460B4630463946FFF712FB96
:10978000FFF778FF2146D0BD0000F03D0000F0411A
:1097900010B50C4641690369826986B001F26C71AB
:1097A0000491016803914168029181680191C16847
:1097B0000091074903EB43030B44064902EB4202C5
:1097C0000A4420460449FDF779FE204606B010BD44
:1097D00072C40D005DC40D003DC40D00002100F0F9
:1097E000FDBE0A22002100F07FBF000010B5054C2D
:1097F00013462CB10A4601460220AFF3008010BD8B
:109800002046FCE70000000038B5074B1D68EB6BF5
:1098100004461BB92420FDF739FEE863E96B2046B6
:10982000BDE83840FDF78ABEF0D803200A449142D3
:1098300000F1FF3300D1704710B511F8014B03F868
:10984000014F9142F9D110BD884210B501EB0204DD
:1098500002D98442234607D8431EA14208D011F8FA
:10986000012B03F8012FF8E7024401468A4200D198
:1098700010BD13F8014D02F8014DF7E7024403460D
:10988000934200D1704703F8011BF9E738B50D4B3F
:109890001D68AB6B04467BB91820FDF7F7FD0A4A3B
:1098A0000A4BA863C0E90023094B83600B23838123
:1098B00001220023C0E90423AB6B00221C615A6122
:1098C00038BD00BFF0D803200E33CDAB34126DE6A7
:1098D000ECDE050010F8012B11F8013B012A28BF2E
:1098E0009A42F7D0D01A7047034611F8012B03F8BB
:1098F000012B002AF9D17047024B0146186800F08D
:1099000003B800BFF0D8032037B5044608460D461B
:1099100000F00FF8421C114620460192FDF7E6FDCB
:10992000044618B1019A2946FFF780FF204603B08C
:1099300030BD034613F8012B002AFBD1181A013859
:10994000704710B56AB10139841810F8013B11F85D
:10995000012F934203D1A04201D0002BF5D1981AD8
:1099600010BD1046FCE710B50139034632B111F8BD
:10997000014F03F8014B013A002CF7D11A440021A2
:10998000934200D110BD03F8011BF9E770B50446FE
:109990000D4645EC104B164601F01CFD51EC100B2A
:1099A0007EB1C5F30A53C3F16B03002B09DD1B0520
:1099B00003F17F55002405F5401522462B46FFF79D
:1099C000A9FB70BD000000002DE9F04FA3B01F46B9
:1099D00000231E93A44B19921B6807930446184654
:1099E0008846FFF7A6FF4FF0000A05464FF0000B30
:1099F000CDF874801D9B1A782B2A4CD039D80D2AAB
:109A000032D8082A32D8002A3CD000230E931D9E5B
:109A10003378302B40F0B480737803F0DF03582B99
:109A20006CD10E9B01931EAB029700938F4A1FAB24
:109A30001DA9204600F0CAFE10F00707054605D014
:109A4000062F2AD1013600231D960E93199B002B59
:109A500040F096850E9BDBB152460BF1004343EC80
:109A6000102B23B0BDE8F08F202ACED101331D93F7
:109A7000C0E72D2AC9D101220E925A1C1D925B7893
:109A8000002BC4D1199BCDF87480002B40F0768553
:109A900052465B46E3E70022EEE71E9A3AB13521D3
:109AA00020A801F096FD1E99204601F0CBF9013F58
:109AB000052F07D8DFE807F00E0B181D0E034FF037
:109AC000000BDA462807C1D54BF0004BBEE7DDE9B5
:109AD00020ABF7E7DDE920A31F9A23F4801302F2FD
