:02000002D0002C
:1040000000400D004CF10D00000006000C00050101
:084010000401BD0B00000000DB
:04401800A4D30D0020
:1040200009480A49884208B505D0094A824202D0A7
:10403000121A07F065FA0748074A0021121A07F01A
:1040400087FA014808BD00BF20DC032064EE0D00A4
:10405000DCDE0320E0DE0320F8E7032070B5074E26
:10406000074C06F0C9FAA41BA4080025A54200D1FC
:1040700070BD56F8043B98470135F7E7ECE40D00B6
:1040800020E50D0001F012BF08B501F0B7F9BDE859
:10409000084006F073BA04F0ADBC04F0ABBC04F009
:1040A000B1BC04F0AFBC000008B5034A00210C20ED
:1040B00004F05AFBFEE700BF99840D000078B0FAC7
:1040C00080F040097047012303707047002070475B
:1040D000704700207047006970470120704700005A
:1040E000014B01221A707047EDE503200368184761
:1040F000012A03D0022A03D0002070470160FBE7A9
:104100000B680360F8E7012A08BF016000207047D0
:104110007047012A08BF01600020704702F028BBE9
:1041200008B5044905F054FE18B1034B03221A7078
:10413000012008BDF3D30D00B5E5032010B5C2B0D2
:1041400000680A2201A908F037F9431E062B04462D
:1041500031D801280AD1194B1949187702A807F05C
:104160002DFA184B1C70204642B010BD022804D115
:10417000124B154901245C77F0E7032804D10F4B5B
:10418000124901249C77E9E7042804D10B4B10491C
:104190000124DC77E2E7052805D1084B0D4901240D
:1041A00083F82040DAE7062805D1044B0A490124A8
:1041B00083F82140D2E70024D5E700BFB8E503200B
:1041C000F5D30D00ECE5032008D40D001BD40D0041
:1041D00030D40D0044D40D0058D40D00436913B100
:1041E00083690C301847704710B5034B03600446D1
:1041F00003F084FE204610BD28DB0D0010B50446F8
:10420000FFF7F2FF2046382106F005FB204610BDDF
:1042100010B5034B0360044603F0A0F8204610BD20
:1042200050DB0D0010B50446FFF7F2FF20461021C9
:1042300006F0F1FA204610BD13B5002104460846E9
:1042400004F0B2F80023204601A9019304F0C4F859
:10425000019C0CB1012323710021012004F0A4F87A
:104260002CB1236820469B6898470023237102B035
:1042700010BD10B50446006808B104F0C3FB204629
:1042800010BD0023042204F0EDBA10B58368044683
:1042900013B1032201469847204610BD37B5134B92
:1042A000036004468068C8B100256FF00043CDE983
:1042B000003502212B462A4604F096F8A0682946CC
:1042C00004F0CAF8237903F0FF0513B104F064F891
:1042D000F8E7A068294604F077F8A56004F10C001F
:1042E000FFF7D3FF204603B030BD00BF14DB0D0045
:1042F00010B50446FFF7D2FF20461C2106F08BFACA
:10430000204610BD0246014804F081BCC78B0D0059
:1043100007B508220023ADF800204FF47A7101227E
:10432000019241436A461846ADF8023004F0F2FAB1
:1043300003B05DF804FB07B580680B46002140B16F
:10434000CDE900210A46032104F04EF8B0FA80F0CE
:10435000400903B05DF804FB13B50446084601911B
:1043600007F051F901990246204602B0BDE810401D
:1043700005F0E0BA13B504460846019107F043F989
:1043800001990246204602B0BDE8104005F0E2BAAD
:104390000EB410B58DB00FAA016852F8044B039209
:1043A00000232020CDE90403CDE900421E2004AA09
:1043B00004F0F2F90DB0BDE8104003B0704737B516
:1043C00004689DF818508DF800308DF80450E468AA
:1043D0003C23A04703B030BD30B50D7893B00C46F8
:1043E0006DB9224902A807F0E9F88DF80050204B7A
:1043F00020491B78204802AAFFF7E1FF1BE008468E
:1044000007F059F8C82818D11C4902A807F0D6F8B7
:104410000024174B8DF800401B781649164802AA55
:10442000FFF7CDFF05F0C3FE154B9861154B012238
:104430001A70154B1C7013B030BD204607F03BF8C6
:10444000C928E1D0204607F036F842F20F739842AF
:10445000F1DC204607F02FF80C4A0346402102A861
:1044600004F0E8FA00238DF80030C0E76BD40D00AB
:104470002DDF032073D40D00D0E3032082D40D0080
:10448000B8E50320ECE503204FDF032094D40D00B2
:1044900037B51C49054605F09BFC044600B31A4C91
:1044A000012360686370FFF733FF636817484FF4B8
:1044B0007A716FF000425943FFF73DFF04F0F2F9C3
:1044C00048B100238DF80030114B124A1B78124975
:1044D0001248FFF774FF124B0120187003B030BD73
:1044E0001049284605F074FC0028F7D0064B5C7094
:1044F00004F0D8F90028EED0054B8DF800401B7869
:10450000094AE4E7F3D30D00B8E50320B0E3032044
:104510002DDF0320B1D40D0041D50D00D0E30320E1
:10452000ECE50320C6E00D00C6D40D0010B5C4B004
:1045300000680A2203A907F03FFFB0F5966F22D862
:10454000124C6060FFF7E4FE636811484FF47A7123
:1045500059436FF00042FFF7EEFE63680D4A4FF4D7
:10456000807104A804F066FA00238DF800300A4B2D
:104570000A491B780A4804AAFFF721FF094B0120CA
:10458000187044B010BD0020FBE700BFB8E5032061
:10459000B0E30320DAD40D002DDF0320F3D40D00A7
:1045A000D0E30320ECE5032000B589B0039005F0CB
:1045B00039FC0E4B0399BDEEC00A04A883ED090A2D
:1045C00005F0D6FB00238DF80030094B049A1B78C8
:1045D00008490948FFF7F3FE04A805F05BFB074B09
:1045E0000120187009B05DF804FB00BFB8E5032096
:1045F0002DDF0320FED40D00D0E30320ECE50320E3
:1046000037B51649054605F0E3FB044688B1144B5F
:10461000144A1549154801245C7200238DF80030B6
:10462000134B1B78FFF7CBFE124B20461C7003B0D8
:1046300030BD1149284605F0CBFB0028F7D0084BC8
:104640000E4A5C720A4B8DF800401B7806490748F9
:10465000FFF7B5FE074B01201870E8E7F3D30D0014
:10466000B8E5032020D50D0041D50D00D0E303208F
:104670002DDF0320ECE50320C6E00D0031D50D0051
:1046800030B5C5B000680A2203A907F095FE431EA5
:10469000062B04464FF0000542D8012813D1214BC8
:1046A00021491D7704A806F089FF204B8DF80050A2
:1046B0001B781F491F4804AAFFF781FE1E4B1C7080
:1046C000204645B030BD022810D1164B1B495D77FE
:1046D00004A806F073FF154B8DF800501B781449A1
:1046E000144804AAFFF76BFE0124E7E7032803D16F
:1046F0000C4B13499D77EBE7042803D1094B114973
:10470000DD77E5E7052804D1064B0F4983F82050F3
:10471000DEE7062804D1034B0C4983F82150D7E784
:104720002C46CDE7B8E5032046D50D002DDF03204C
:104730005AD50D00D0E30320ECE5032068D50D0029
:104740007CD50D0092D50D00A7D50D00BCD50D0070
:1047500000B5C5B000680A2203A907F02DFE0428A1
:1047600018D80D4B0D4AD8624FF48071034604A847
:1047700004F060F900238DF80030094B09491B78DB
:10478000094804AAFFF71BFE084B0120187045B02A
:104790005DF804FB0020FAE7B8E50320D0D50D0052
:1047A0002DDF032041D50D00D0E30320ECE50320ED
:1047B0001FB50A22006803A907F0FEFD0128044680
:1047C0004FF0000311D18DF80030094B094A1B78D6
:1047D00009490A48FFF7F3FD41F2883004F07AF9FD
:1047E00005F06AFB204604B010BD1C46FAE700BF86
:1047F0002DDF0320E2D50D0026D70D00D0E30320E6
:1048000007B504F04FF848B100238DF800300E4B87
:104810000E4A1B780E490F48FFF7D1FD0E4A0F488C
:104820007823536040F20113138000235372937274
:104830004FF41673536201213423D16203B05DF843
:1048400004EB02F02EBE00BF2DDF0320F7D50D00D4
:1048500041D50D00D0E30320B8E50320A0E30320F9
:1048600007B504F01FF848B100238DF800300B4B5A
:104870000B4A1B780B490C48FFF7A1FD0B4A0C4B68
:104880000C48136053609360D36013615361A0219F
:10489000182303B05DF804EB02F003BE2DDF032004
:1048A0000FD60D0041D50D00D0E3032028E40320EE
:1048B000CDCCB542A0E3032010B5154C237A012BD3
:1048C00004D903F0EFFF00B3012323726368114A98
:1048D000B3F5966F84BF4FF416736360637A012B50
:1048E00084BF01236372A37A012B84BF0023A372C8
:1048F0006369FF2B84BF00236361E36A052B4FF0DC
:104900000103137088BFE36210BD2072DEE700BFB1
:10491000B8E50320ECE50320334BD3ED007AF5EE48
:10492000C07AF1EE10FA06D49FED307AF4EEC77A31
:10493000F1EE10FA01DD2E4A1A60D3ED017AF5EEA0
:10494000C07AF1EE10FA06D49FED287AF4EEC77A19
:10495000F1EE10FA01DD264A5A60D3ED027AF5EE47
:10496000C07AF1EE10FA06D49FED207AF4EEC77A01
:10497000F1EE10FA01DD1E4A9A60D3ED037AF5EEEE
:10498000C07AF1EE10FA06D49FED187AF4EEC77AE9
:10499000F1EE10FA01DD164ADA60D3ED047AF5EE95
:1049A000C07AF1EE10FA06D49FED107AF4EEC77AD1
:1049B000F1EE10FA01DD0E4A1A61D3ED057AF5EE3B
:1049C000C07AF1EE10FA06D49FED087AF4EEC77AB9
:1049D000F1EE10FA01DD064A5A61034A0548182330
:1049E000A02102F05EBD00BF28E4032000803B450B
:1049F000ECD1B542A0E3032007B50121052005F065
:104A000094FE0021052005F090FE094A0023137052
:104A1000084A527A42B18DF80030074B074A1B789A
:104A200007490848FFF7CBFC03B05DF804FB00BF63
:104A3000EDE50320B8E503202DDF03202ED60D0081
:104A400035D60D00D0E303202DE9F0472DED088B7E
:104A5000CCB00CAD4FF4807403A803F02BFF3C4E98
:104A600022460021284606F073FD0023394A8DF8BE
:104A7000203007A8CDE909540B93079204F0B7FE44
:104A8000F36A354C012B354676D1337F63B1334918
:104A900007A8FFF761FC0646206806F04DF941ECD7
:104AA000100B304604F0DAFE6B7F63B12C4907A887
:104AB000FFF752FC0646606806F03EF941EC100B29
:104AC000304604F0CBFEAB7F63B1264907A8FFF761
:104AD00043FC0646A06806F02FF941EC100B304667
:104AE00004F0BCFEEB7F63B11F4907A8FFF734FC5D
:104AF0000646E06806F020F941EC100B304604F061
:104B0000ADFE95F8203063B1184907A8FFF724FCE3
:104B10000646206906F010F941EC100B304604F00F
:104B20009DFE95F8213063B1114907A8FFF714FCE9
:104B30000646606906F000F941EC100B304604F0BF
:104B40008DFE0C4907A8FFF707FCE96A6AE000BF81
:104B5000B8E5032000E10D0040E403203ED60D003F
:104B600048D60D0052D60D005ED60D0069D60D0058
:104B700074D60D0041D50D00022B40F03381CA4997
:104B800007A8FFF7E9FB0546A06C06F0D5F841EC55
:104B9000100B284604F062FEC44907A8FFF7DCFBAF
:104BA0000546E06C06F0C8F841EC100B284604F00E
:104BB00055FEBF4907A8FFF7CFFB0546206D06F05D
:104BC000BBF841EC100B284604F048FEB94907A891
:104BD000FFF7C2FB0546206F06F0AEF841EC100B64
:104BE000284604F03BFEB44907A8FFF7B5FB05468D
:104BF000606F06F0A1F841EC100B284604F02EFE81
:104C0000AE4907A8FFF7A8FB0546A06F06F094F889
:104C100041EC100B284604F021FEA94907A8FFF734
:104C20009BFBF16A04F008FE07A804F0CAFD00230C
:104C30008DF80030A34BDFF8A8A21B78A249A34847
:104C40000CAAFFF7BCFBDAF8000006F075F892A397
:104C5000D3E900238046894606F0C6F806F094FBA7
:104C6000CAF83000DAF8040006F066F802460B468F
:104C700043EC182B88A3D3E9002306F0B5F806F01F
:104C800083FBCAF83400DAF8080006F055F802464B
:104C90000B4643EC192B80A3D3E9002306F0A4F8BC
:104CA00006F072FBCAF83800DAF80C0006F044F897
:104CB00002460B4643EC1A2B77A3D3E9002306F0F8
:104CC00093F806F061FBCAF83C00DAF8100006F031
:104CD00033F802460B4643EC1B2B6FA3D3E90023AA
:104CE00006F082F806F050FBCAF84000DAF814002B
:104CF00006F022F868A3D3E9002306460F4606F023
:104D000073F806F041FBCAF84400DAF8480006F0F0
:104D100013F861A3D3E9002304460D4606F064F8B6
:104D200006F032FB5EA3D3E90023CAF864004946CB
:104D3000404606F059F806F027FB59A3D3E90023B3
:104D4000CAF8180051EC180B06F04EF806F01CFBE0
:104D500053A3D3E90023CAF81C0051EC190B06F049
:104D600043F806F011FB4EA3D3E90023CAF8200054
:104D700051EC1A0B06F038F806F006FB48A3D3E90D
:104D80000023CAF8240051EC1B0B06F02DF806F0A6
:104D9000FBFA43A3D3E90023CAF82800394630467A
:104DA00006F022F806F0F0FA3DA3D3E90023CAF892
:104DB0002C002946204606F017F806F0E5FA444A8A
:104DC000CAF8600001231370424A137003F06CFBB1
:104DD000414B186003A804F05DFF4CB0BDEC088B9C
:104DE000BDE8F087032B20D12F4907A8FFF7B4FABD
:104DF0000646A06C05F0A0FF41EC100B304604F015
:104E00002DFD2A4907A8FFF7A7FA0646E06C05F032
:104E100093FF41EC100B304604F020FD244907A815
:104E2000FFF79AFA0646206D55E6042B7FF4FCAE98
:104E30001D4907A8FFF790FA0646D4F8880005F048
:104E40007BFF41EC100B304604F008FD174907A822
:104E5000FFF782FA0646D4F88C0005F06DFF41ECAE
:104E6000100B304604F0FAFC114907A8FFF774FA5A
:104E70000646D4F8900005F05FFF41EC100B304679
:104E800004F0ECFC154907A8FFF766FA0646D4F8CB
:104E900094002FE6AFF30080333333333333E33FF3
:104EA000666666666666F63F7ED60D0089D60D009C
:104EB00094D60D009FD60D00AAD60D00B5D60D00D4
:104EC00041D50D002DDF0320CBD60D00D0E303200C
:104ED000F4E403204FDF0320F0E50320C0D60D00EB
:104EE00040E4032030B5114D114C12492A78207846
:104EF0008DB01A2303FB0212009203FB00130E4A2B
:104F0000282102A803F096FD2B78237003F0CAFC39
:104F100048B100238DF80030084B09491B78094837
:104F200002AAFFF74CFA0DB030BD00BFB5E5032073
:104F3000CCE3032030DC0320E0D60D002DDF03207E
:104F4000EED60D00D0E3032030B50D4D0FCD89B066
:104F500001AC0FC495E807000A4B84E807001B7CEE
:104F6000094808AA02EB8303102153F81C3C074AA6
:104F700003F060FD064B01221A7009B030BD00BF7E
:104F8000B8DB0D00B8E503202EDF032048DE0D005E
:104F9000ECE503202DE9F04F4FEA800909F1070401
:104FA00083B004F4FF6402AFADEB040D02ADAC4678
:104FB0004FF0000E4CF804EB023800282ADADFF834
:104FC00068B0DFF868A00C4690461E46A9444D45DF
:104FD00024D0D4E902018DE80300584694E80C007F
:104FE00001F086FA51EC100B06F0CEF948F8040BEC
:104FF00045F8040B05F0A0FEDAE9002305F0F4FE05
:10500000084B002206F01AF806F0BEF9103446F8F4
:10501000040BDCE74CF804EB0138CEE70437BD465F
:10502000BDE8F08F00408F40E8DE032028DC03203D
:105030002DE9F0472DED068B8C4C8D4B206893F8B5
:1050400000A0A8B0CDF800A005F076FE894B41EC99
:105050001A0B93F80090CDF81090CDE9020160682A
:1050600005F06AFE844B41EC190B93F80080CDF8F3
:105070002080CDE90601A06805F05EFE7F4B41EC83
:10508000180B1D780C95CDE90A01E06805F054FE77
:105090007B4B06461B78206910930F46CDE90E67BF
:1050A00005F04AFE774BCDE912011B786069149335
:1050B00005F042FE744C2495744DCDF860A0002399
:1050C000CDE916018DED1AAB8DED1E9B8DED228B7A
:1050D000CDE92667CDF87090CDF8808084F8B030A7
:1050E000FFF732FFE86A01284AD12B7F4BB16848AD
:1050F0004FF4B96102F0C8F851EC100B06F044F916
:1051000020606B7F4BB163484FF4B96102F0BCF88B
:1051100051EC100B06F038F96060AB7F4BB15E4884
:105120004FF4B96102F0B0F851EC100B06F02CF915
:10513000A060EB7F4BB159484FF4B96102F0A4F87D
:1051400051EC100B06F020F9E06095F820304BB1DF
:1051500053484FF4B96102F097F851EC100B06F088
:1051600013F9206195F82130E3B14E484FF4B9614D
:1051700002F08AF851EC100B06F006F9606111E0BC
:1051800002283AD104F1540304F14802694603208D
:10519000FFF700FF04F17C0304F170020CA9032067
:1051A000FFF7F8FE404E012232706A7F002A7DD060
:1051B000D4ED017AB7EE007AF4EEC77AF1EE10FA88
:1051C00074DD94ED0D7AF4EEC77AF1EE10FA06D4A0
:1051D00094ED077AF4EEC77AF1EE10FA66DD012558
:1051E00084F8B05004F0E3FF3570C4F8A8002846F6
:1051F00028B0BDEC068BBDE8F087032829D104F167
:10520000540304F148026946FFF7C4FEEB7FEBB19B
:1052100022484FF4B96102F037F851EC100B06F058
:10522000B3F8E06095F82030EBB11D484FF4B96158
:1052300002F02AF851EC100B06F0A6F8206195F860
:105240002130002B91D100236361ABE70023E360A1
:10525000E8E70428A6D104F1980304F1880218A90C
:10526000FFF798FEDEE700232361E8E728E4032048
:1052700020DC032021DC032022DC032023DC0320AC
:1052800024DC032025DC032040E40320B8E50320D0
:1052900050DF032008E00320C0E0032078E1032072
:1052A00030E20320E8E20320F4E403202B7FBBB1CB
:1052B000D4ED007AB7EE007AF4EEC77AF1EE10FA88
:1052C0000EDD94ED0C7AF4EEC77AF1EE10FA86D486
:1052D00094ED067AF4EEC77AF1EE10FA3FF77FAF5D
:1052E000AB7FC3B1D4ED027AB7EE007AF4EEC77AA1
:1052F000F1EE10FA0FDD94ED0E7AF4EEC77AF1EECE
:1053000010FA3FF56CAF94ED087AF4EEC77AF1EE3F
:1053100010FA3FF764AFEB7FC3B1D4ED037AB7EE79
:10532000007AF4EEC77AF1EE10FA0FDD94ED0F7A01
:10533000F4EEC77AF1EE10FA3FF551AF94ED097A29
:10534000F4EEC77AF1EE10FA3FF749AF95F8203046
:10535000C3B1D4ED047AB7EE007AF4EEC77AF1EE79
:1053600010FA0FDD94ED107AF4EEC77AF1EE10FA30
:105370003FF535AF94ED0A7AF4EEC77AF1EE10FA04
:105380003FF72DAF95F82130C3B1D4ED057AB7EED4
:10539000007AF4EEC77AF1EE10FA0FDD94ED117A8F
:1053A000F4EEC77AF1EE10FA3FF519AF94ED0B7AEF
:1053B000F4EEC77AF1EE10FA3FF711AFEB6A023B59
:1053C000012B18D8D4ED127AB7EE007AF4EEC77A32
:1053D000F1EE10FA0FDD94ED197AF4EEC77AF1EEE2
:1053E00010FA3FF5FCAE94ED187AF4EEC77AF1EEC0
:1053F00010FA3FF7F4AE0020FAE600BF37B57A4C5A
:105400002378013B052B18D8DFE803F0C80365714A
:105410004B94764B5B7A2BB1754B1B78022B01D0EA
:10542000FFF760FD04F0C3FE4FF4967390FBF3F2B8
:1054300002FB13030BB90523237001F02DFD01F0CE
:1054400007FD01F0CBF901F0E4F96A4802F006FC2F
:10545000694B1B780BB1FFF7CFFA684C23783BB14F
:105460003423624A6648012102F01BF800232370AE
:10547000644C237843B1B423634A61484FF400710C
:1054800002F00FF800232370604C23783BB11823FF
:105490005F4A5B48A02102F004F80023237003B0A8
:1054A00030BD524D6A7A2AB1514B1B78052B01D081
:1054B000FFF718FDFFF7BCFD08B10423BCE704F0BB
:1054C00076FE6B6A90FBF3F202FB13030BB9032326
:1054D000B2E70223B0E7454B5B7A2BB1444B1B7814
:1054E000032B01D0FFF7FEFCFFF7A2FDE5E73F4BE2
:1054F0005B7A2BB13E4B1B78042B01D0FFF7F2FCFB
:1055000003F0D0F968B104F063FE0C2805D103F074
:10551000C9F910B1002003F0E5F9FFF795FA062369
:105520008AE703F0B7F90223237002F0BDFF394B7D
:10553000186082E72D4B5B7A2BB12D4B1B78062B25
:1055400001D0FFF7CFFC344B1B784BB904F02FFE92
:105550004FF4967390FBF3F202FB1303002BB8D0C9
:1055600002F0A2FF2D4B1B68C01A4AF6C87398427E
:105570007FF663AF02F098FF264D294A286000238A
:105580008DF80030274B28491B782848FEF717FF75
:105590000123237002F088FF28604EE7144B1B782C
:1055A000012B01D0FFF79EFC02F07EFF194B1B6818
:1055B00003F5922303F578738342BFF43EAF03F003
:1055C00071F948B100238DF80030164B184A1B784A
:1055D00018491648FEF7F3FE4FF4FA6003F07AFA22
:1055E00004F06AFC29E700BFB5E50320B8E5032015
:1055F000CCE303200CE40320EDE50320ECE50320DD
:10560000A0E30320F4E4032040E403204EDF032062
:1056100028E4032008E403204FDF0320F0E5032003
:1056200040E20D002DDF0320FFD60D00D0E3032064
:1056300018D70D002CD70D0010B5204C206805F0B0
:105640007BFB1F4B41EC100B19781E4801F012FE3A
:10565000606805F071FB1C4B41EC100B19781B487E
:1056600001F008FEA06805F067FB194B41EC100B38
:105670001978184801F0FEFDE06805F05DFB164B57
:1056800041EC100B1978154801F0F4FD206905F084
:1056900053FB134B41EC100B1978124801F0EAFD53
:1056A000606905F049FB104B41EC100B19780F486D
:1056B00001F0E0FD0E4B01221A7010BD28E403201A
:1056C00020DC032050DF032021DC032008E003203E
:1056D00022DC0320C0E0032023DC032078E1032048
:1056E00024DC032030E2032025DC0320E8E2032051
:1056F0004EDF032013B5224C206805F01DFB214A24
:10570000CDE900012021204803F094F9606805F0FC
:1057100013FB1E4ACDE9000120211D4803F08AF940
:10572000A06805F009FB1B4ACDE9000120211A48B9
:1057300003F080F9E06805F0FFFA184ACDE90001AE
:105740002021174803F076F9206905F0F5FA154A8B
:10575000CDE900012021144803F06CF9606905F0DF
:10576000EBFA124ACDE900012021114803F062F959
:10577000FFF762FF0F4B01221A7002B010BD00BF8D
:1057800028E4032032D70D0035E5032040D70D0073
:1057900095E503204DD70D0075E503205DD70D007D
:1057A00015E503207AD70D00F5E4032097D70D0007
:1057B00055E503204EDF032000B589B0039004F0C7
:1057C00031FB0D4B039983ED000A04A804F0D0FAD5
:1057D00000238DF80030094B049A1B7808490948CA
:1057E000FEF7EDFD04A804F055FAFFF783FF012052
:1057F00009B05DF804FB00BF28E403202DDF03207F
:10580000B3D70D00D0E3032000B589B0039004F0B6
:1058100009FB0D4B039983ED010A04A804F0A8FAD3
:1058200000238DF80030094B049A1B780849094879
:10583000FEF7C5FD04A804F02DFAFFF75BFF012079
:1058400009B05DF804FB00BF28E403202DDF03202E
:10585000CED70D00D0E3032000B589B0039004F04B
:10586000E1FA0D4B039983ED020A04A804F080FAD3
:1058700000238DF80030094B049A1B780849094829
:10588000FEF79DFD04A804F005FAFFF733FF0120A1
:1058900009B05DF804FB00BF28E403202DDF0320DE
:1058A000E9D70D00D0E3032000B589B0039004F0E0
:1058B000B9FA0D4B039983ED030A04A804F058FAD2
:1058C00000238DF80030094B049A1B7808490948D9
:1058D000FEF775FD04A804F0DDF9FFF70BFF0120CA
:1058E00009B05DF804FB00BF28E403202DDF03208E
:1058F00006D80D00D0E3032000B589B0039004F072
:1059000091FA0D4B039983ED040A04A804F030FAD0
:1059100000238DF80030094B049A1B780849094888
:10592000FEF74DFD04A804F0B5F9FFF7E3FE0120F2
:1059300009B05DF804FB00BF28E403202DDF03203D
:1059400022D80D00D0E3032000B589B0039004F005
:1059500069FA0D4B039983ED050A04A804F008FACF
:1059600000238DF80030094B049A1B780849094838
:10597000FEF725FD04A804F08DF9FFF7BBFE01201A
:1059800009B05DF804FB00BF28E403202DDF0320ED
:105990003ED80D00D0E30320F0B5ADF50D7D4FF4FA
:1059A00000740CAE22460021304605F0D1FD0023E4
:1059B000A84A8DF8203007A807920B93CDE9096417
:1059C00003F015FFA44907A8FEF7C6FC044601F042
:1059D00063FA4168002900F097800C312046FEF7F9
:1059E000C9FC9E499E4C07A8FEF7B6FC9D49FEF7F0
:1059F000C1FC9D4907A8FEF7AFFCE16A05460A22F3
:105A000003A804F0D2F9059A0399284603F0A2FFEF
:105A100003A804F03FF9954907A8FEF79DFC07A8E5
:105A200003F0E5FEE36A012B70D19149914D07A87F
:105A3000FEF792FC217F03F0E7FE8F4907A8FEF7EF
:105A40008BFC0746286805F077F941EC100B3846C7
:105A500003F004FF894907A8FEF77EFC617F03F08D
:105A6000D3FE874907A8FEF777FC0746686805F06C
:105A700063F941EC100B384603F0F0FE814907A8AA
:105A8000FEF76AFCA17F03F0BFFE7F4907A8FEF77F
:105A900063FC0746A86805F04FF941EC100B384647
:105AA00003F0DCFE794907A8FEF756FCE17F03F01E
:105AB000ABFE774907A8FEF74FFC0746E86805F0FC
:105AC0003BF941EC100B384603F0C8FE714907A8BA
:105AD000FEF742FC94F8201003F096FE6E4907A8EA
:105AE000FEF73AFC0746286905F026F941EC100B51
:105AF000384603F0B3FE694907A8FEF72DFC94F879
:105B0000211003F081FE70E0654967E7022B40F049
:105B1000D7805749574D07A8FEF71EFC012103F017
:105B20008BFE554907A8FEF717FC0746286805F0C5
:105B300003F941EC100B384603F090FE4F4907A8DB
:105B4000FEF70AFC012103F077FE4D4907A8FEF796
:105B500003FC0746686805F0EFF841EC100B384687
:105B600003F07CFE474907A8FEF7F6FB012103F08E
:105B700063FE454907A8FEF7EFFB0746A86805F056
:105B8000DBF841EC100B384603F068FE3F4907A8EC
:105B9000FEF7E2FB012103F04FFE3D4907A8FEF7A7
:105BA000DBFB0746E86805F0C7F841EC100B384608
:105BB00003F054FE374907A8FEF7CEFB012103F09E
:105BC0003BFE354907A8FEF7C7FB0746286905F0E5
:105BD000B3F841EC100B384603F040FE2F4907A8FC
:105BE000FEF7BAFB012103F027FE2E4907A8FEF7B6
:105BF000B3FB0746686905F09FF841EC100B384687
:105C000003F02CFE07A803F0DCFD274907A8FEF7E8
:105C1000A3FB617803F0F8FD244907A8FEF79CFB7D
:105C2000616803F009FE224907A8FEF795FB616A47
:105C300003F002FE07A803F0C4FD00238DF8003036
:105C40001C4B1D491B781D483246FEF7B8FB0DF56D
:105C50000D7DF0BD00E10D0059D80D005ED80D009E
:105C6000B8E5032014DC0D0066D80D0075D80D00D2
:105C70007DD80D0028E4032090D80D00A2D80D0097
:105C8000B5D80D00C7D80D00DCD80D00F0D80D0038
:105C900004D90D0017D90D002BD90D003ED90D00E8
:105CA00040E20D0051D90D0063D90D0073D90D00EC
:105CB0007DD90D002DDF032090D90D00D0E3032006
:105CC000032B9FD11849194D07A8FEF745FB012169
:105CD00003F0B2FD164907A8FEF73EFB0746286809
:105CE00005F02AF841EC100B384603F0B7FD1149D6
:105CF00007A8FEF731FB012103F09EFD0E4907A81E
:105D0000FEF72AFB0746686805F016F841EC100B11
:105D1000384603F0A3FD094907A8FEF71DFB012142
:105D200003F08AFDB1E600BF7DD80D0028E4032012
:105D300090D80D00A2D80D00B5D80D00C7D80D0021
:105D400008B5044904F044F810B1FFF725FE01201E
:105D500008BD00BFF3D30D0038B5046805467CB11B
:105D60006368013B63605BB9236820469B68984782
:105D7000A368013BA3601BB923682046DB689847F2
:105D8000284638BD10B586B000F028FD426853683B
:105D900003939368049313B1596801315960D36830
:105DA0000B4A059303A9684600F037FE04A8FFF7E5
:105DB000D3FF684603F0AEFB044601A8FFF7CCFF13
:105DC0001CB904490448FEF7E3FA06B010BD00BF51
:105DD000A5D90D00ABD90D0018E60320FFF7D2BFFF
:105DE0001FB5094B094A1B781278094913438DF8EE
:105DF000003000223C2302A802F0FCFF03A8FFF7BA
:105E0000ABFF05B05DF804FB2CDF03202DDF032082
:105E1000B9D90D0010B5036888B05B68044698478F
:105E2000019005F0F0FB0199024605A803F0B6FDCC
:105E3000DDE905120023CDE9053363680393616052
:105E4000A368A26004A80493FFF786FF079BE360A2
:105E500006A8FFF781FF08B010BD000010B5044B85
:105E6000044640F8043B0430FFF776FF204610BD9F
:105E70006CDB0D0010B50446FFF7F0FF204618213B
:105E800004F0C9FC204610BD13B50B460246D0E90C
:105E900000016C4684E8030093E8030082E80300F5
:105EA00094E8030083E8030002B010BD2DE9F04739
:105EB0000021BEB0082004F027FC0121052004F0D9
:105EC00023FCFEF799FD0023009301224FF0FF33DE
:105ED000B349082003F0CEF9B24B0EAA03F1100526
:105EE000174618685968144603C40833AB42224663
:105EF000F7D119889B78A37021802D220021AA4C0C
:105F00000DF14B00002505F023FB02A8257002F0DF
:105F1000D1FC2B467D221EA902A803F06BFF2B4665
:105F20002A46CDE90055A1491EA802F0D3FCA0499C
:105F3000A048FEF7A6F9A049A048FEF7A2F9A0499B
:105F4000A048FEF79EF92B469F49A048022202F086
:105F500089FC2B4601229E499E4802F083FC9E4903
:105F60009E48FEF78EF99E499E48FEF78AF99E49A3
:105F70009E48FEF786F99E499E48FEF782F99E49A3
:105F80009E48FEF77EF99E499E48FEF77AF92B4619
:105F90009D499E48022202F065FC2B4602229C4944
:105FA0009C4802F05FFC9C499C48FEF7ABF99C4979
:105FB0009C48FEF7A7F99C499C48FEF7A3F99C4929
:105FC0009C48FEF79FF99C498248FEF79BF99B4944
:105FD0009B48FEF797F99B499B48FEF793F99B492D
:105FE0009B48FEF78FF99B499B48FEF78BF99B492D
:105FF0009B48FEF787F99B499B48FEF783F99B492D
:106000009B48FEF77FF99B499B48FEF77BF99B492C
:106010009B48FEF777F99B499B48FEF773F99B492C
:106020009B48FEF76FF99B4801F012FD29469948FD
:1060300001F04BFE00F0D2FB974B09930646974BBD
:106040000893022206A90AA80C95FEF75CF8099BA2
:106050000D9306F10C01089B0C930AA8FFF714FF9F
:106060000C9B72690C9273610D9BB2690D920AA828
:10607000B361FEF70AF98A4BF3612C20FEF70BF8A7
:10608000054610B1874900F0F7FBB5601820FEF710
:1060900002F8054630B184494FF4807200F05CFB91
:1060A000824B2B603046756000F026FD06A8FEF797
:1060B000ECF800F0F1FE7E4B0D930AA97D4B0C939A
:1060C00000F006FF0AA8FEF7E0F800F0E5FE7A49C6
:1060D00000F068FF794801F057F9012377480AAAD0
:1060E000002101F093F99DF82830162B4BD073480E
:1060F00001F054F9724A71480423002101F0D1F9EA
:1061000001236E480AAA002101F080F99DF8283089
:10611000162B29D0012323706A4DFEF7FDFBFEF7F5
:10612000CBFBFFF789FA6B78002B00F0E5800020AD
:1061300002F0CAF94FF0000A0646002002F0C4F946
:10614000B0EB060861EB0A09002347F22F524B45DA
:1061500008BF4245C0F0C28002F0A4FB002840F016
:10616000BD8002F08FFBE8E700238DF80030564B2E
:10617000564A1B7856495748FEF721F9FEF740FB6F
:10618000FEF76EFBC8E7544A4C481823A02101F0E3
:106190003DF94C4A49483423012101F037F9BBE766
:1061A000E1400D00D4DB0D00B5E50320D9430D001F
:1061B00014DC0D005ED80D003EDF0320BBD90D00BE
:1061C0002EDF0320C3D90D00BCE50320D2D90D007A
:1061D000B9E50320B8D40D0035E5032021DA0D0020
:1061E00095E5032032DA0D0075E5032043DA0D0052
:1061F00015E5032056DA0D00F5E4032068DA0D00FA
:1062000055E503207ADA0D00DCE503207DD90D0089
:10621000E4E50320E1D90D0021410D00F0D90D0086
:10622000415D0D00FCD90D0001460D0010DA0D0096
:106230002D450D00F3D40D0091440D00B9570D000C
:106240001DDA0D0009580D002EDA0D0059580D0009
:106250003FDA0D00A9580D0052DA0D00F9580D0073
:1062600064DA0D0049590D0076DA0D003D410D004C
:1062700087DA0D0081460D0095DA0D0051470D00BB
:1062800066D80D00A9450D00A4DA0D00B1470D0038
:10629000C0DA0D000CE40320DD5D0D0007410D00A8
:1062A00080510100CEDA0D0000F4032094DB0D00D4
:1062B00011410D0013410D0014F50320A0E303204C
:1062C0001CDC0D00B8E503202DDF0320E5DA0D000E
:1062D000F0DA0D00D0E3032028E4032002F0E2FA14
:1062E0006868FEF715F86B6815484FF47A716FF01F
:1062F00000425943FEF71FF8FFF7FCF9FEF798FE3E
:106300006B7A4BB100238DF800300E4B0E491B7891
:106310000E483A46FEF753F802F0C4FA10B902F0FC
:10632000B1FAF9E702F0BEFAFFF736FB23780BB9B2
:106330000223237002A803F0ADFC3EB0BDE8F08755
:10634000B0E303202DDF032001DB0D00D0E30320A9
:10635000F0B5504B504D514E01271F70504B02224B
:1063600087B01A7004F07AF900231A4643F64511F3
:1063700004F07CF904F072F900231A460F2100247E
:1063800004F07CF9474BAB602C60AC80AC713846B4
:1063900002F012FA32464449284604F037FA214600
:1063A000384602F019FA3946042002F05DF804F08C
:1063B00005FA3E4D014623464FF40052284600F0B0
:1063C000D9FF3B4B2B6032463A49284604F01EFA6F
:1063D00004F0F4F9384D0146284601F041FA284608
:1063E000364D3749324604F011FA36494FF400620F
:1063F000284601F0ABFE344B2B6032463349284629
:1064000004F004FA324B0293324B334D0593334B75
:106410000493334B2B602C71AC606C6105F10C0163
:1064200002A8FFF731FD6A69049B6B610492059B2A
:10643000AA690592AB612B4A2B464FF47A71CDE9DC
:10644000004405F1080001F0B7FF02A8FDF71DFFA9
:106450002846254D2549324604F0D8F92146C5E99C
:106460001244C5E91544C5E91C44C5E91F442C651F
:10647000EC65AC67C5F88440102205F1880005F092
:1064800067F81022214605F1980005F061F807B081
:10649000F0BD00BF2DDF032020DF0320E0DE03205E
:1064A0002CDF03200000FFFF73420D00A0E3032058
:1064B00050DB0D0011420D000CE40320D0E303205B
:1064C000EB750D0040F5032028DB0D00E9410D00C0
:1064D000E15D0D00ED400D00B0E30320F1400D0043
:1064E00014DB0D0039420D0040E403209D420D00F5
:1064F00082B02DE9F84F0AA981E80C00344BDFF88F
:10650000D4B00022C0E90423044640F27E654FF077
:10651000000ABDF8280004F021F9D4E904892060BC
:1065200004F0F8FB42464B4606460F4604F0A4FA38
:1065300052465B4604F058FC42464B4604F09EFA35
:1065400002460B46C4E904233046394604F094FA67
:1065500002460B46C4E9022304F046FC02460B4601
:10656000C4E90623D4E9082304F088FA013D06466D
:106570000F46C4E90867CCD1DDE90C0110A3D3E9CB
:10658000002304F031FC10A3D3E9002380468946A0
:106590003046394604F052FD41EC100B04F044F94A
:1065A00000220023C4E9082351EC100B42464B465D
:1065B00004F01AFCBDE8F84F41EC100B02B0704734
:1065C0006666666666664A3F0000000000F899400D
:1065D0000000A0400000303F704770470069143051
:1065E0007047012A034602D1016000207047022A49
:1065F00004BFD1E90001C3E90001F6E710B5044B7F
:10660000044640F80C3B03F045FB204610BD00BF9C
:1066100080DD0D0010B50446FFF7F0FF20461C2179
:1066200004F0F9F8204610BD10B5054B044640F8BB
:106630001C3B03F02FFB2046FFF7E0FF204610BD78
:1066400064DD0D0010B50446FFF7EEFF20462C2157
:1066500004F0E1F8204610BD13B504460846019148
:1066600004F0D1FF6369013B83420FD9206901998E
:10667000143004F0A3FF23682046DB6898472368A2
:106680001B6A204602B0BDE810401847002002B047
:1066900010BD10B442680346541001EB6200D207EB
:1066A00048BF0A591B685DF8044B48BFD3581847C8
:1066B000022A38B5044607D0032A11D0012A01D195
:1066C0000B682360002038BD0C200D68FDF7E3FC4B
:1066D00003460028F5D095E8070083E80700F0E7B7
:1066E00000680028EED00C2104F095F8EAE770B4B9
:1066F000036809685C689D681B681268661005EB92
:106700006400E40744BFAC59E35870BC184700006C
:1067100010B5064B044640F8243BFDF7B6FD04F1E6
:106720000C00FDF7B2FD204610BD00BF24DD0D00BA
:1067300010B50446FFF7ECFF2046382104F06BF853
:10674000204610BD08B503685B689847007800389C
:1067500018BF012008BD000010B50024C0E90144A5
:10676000C460024C0460C0E9041210BD38DD0D00A5
:1067700070B504460069114D0268AA4206D103793A
:10678000142B03D1C288A38A9A4211D01426324610
:10679000002104F0DDFE23691D6023691E71D4E928
:1067A0000432DA80D4E904020021304404F0D0FE3F
:1067B00023682046DB68BDE87040184753DD5172FE
:1067C000054A02600022C0E90122C0E907224261B5
:1067D000C2624263704700BF24DD0D0010B5064C55
:1067E00023683BB93820FDF756FC034608B1FFF794
:1067F000E7FF2360206810BDF8E5032007B501928C
:10680000FFF7ECFF036801991B6803B05DF804EB28
:10681000184710B50446406803681B699847A0688C
:1068200010B103685B689847E36A33B1236B214674
:1068300004F12400BDE81040184710BD10B58AB01F
:10684000044606A8019102F035F8019B069A094911
:1068500002A803F0F9FA06A803F01CFA029904F161
:106860000C0003F090FA02A803F014FA20460AB0D4
:1068700010BD00BF20DC0D004FF4FA624EF660231D
:1068800070B5C0E9012304460C4B40F80C3B0D46A3
:1068900026460B4903F049FA0A4B46F81C3B0849C7
:1068A000304603F042FA2946304603F06CFA294696
:1068B0002046FFF7C3FF204670BD00BF80DD0D00FE
:1068C00040E20D0064DD0D00826810B50AB903F0E6
:1068D000A8FFBDE81040C3681847000038B504465B
:1068E0000A460A480D460A49FDF752FD6068022330
:1068F000236248B1036829465B69984763691BB105
:1069000004F10C00FFF7E0FF012038BD18E603207A
:1069100035DC0D001FB50446C26909490948FDF779
:1069200037FD094B094A1B78E1698DF8003002A850
:106930003C2302F05FFA03A8FFF70EFA04B010BD83
:106940004ADC0D0018E60320F4E5032040E20D00C8
:1069500038B5002383608B6804460D462BB10222B4
:106960009847EB68E360AB68A360204638BD000041
:1069700070B58AB0C668044600250C200495FDF762
:106980008AFB18B1134B8460C0E90035124B0290AA
:10699000059302A9114B049306A8FFF7D9FF089BA2
:1069A00083B11020FDF777FB044658B106A9FFF725
:1069B000CFFF0023CDE900330949012322463046A9
:1069C00001F088FF06A8FDF760FC02A8FDF75DFC5A
:1069D0000AB070BDFD670D00EF660D00B1660D00D9
:1069E000F38B0D000B68036013B15A6801325A60D3
:1069F000704737B58D6851F8043B0093044601A8F1
:106A0000FFF7F0FF6A462946204602F0AFFE01A8D4
:106A1000FFF7A2F9204603B030BD70B58CB0044634
:106A200006A81646FFF7E5FF06A802F0B7FE002805
:106A30002DD0099D069B009307A901A8FFF7D2FF5F
:106A400029466A4602A802F06DFE01A8FFF784F904
:106A50000498314604F0A8FD054603A8FFF77CF929
:106A6000002DE1D10A9D069B029307A903A8FFF719
:106A7000B9FF02AA2946204602F03EFD03A8FFF70F
:106A80006BF907A8FFF768F920460CB070BDC4E9A0
:106A90000000A060F5E7000010B5D1E9002386B042
:106AA0000021044604910AB9D90705D5CDE902238E
:106AB0000F4B05930F4B049302AB93E803006A4618
:106AC00082E8030094E8030083E8030092E80300EF
:106AD000049A84E80300A168A260059A049118460C
:106AE000E168E2600591FDF7D0FB204606B010BDDD
:106AF00093660D00E3650D0013B50446406880B150
:106B000003689B689847A06858B103681B6898475A
:106B1000054B00936946002304F124000193FFF71D
:106B2000BBFF02B010BD00BF2D6B0D0013B50446B6
:106B30004068FFF707FE28B163691BB104F10C0040
:106B4000FFF7C2FE054B00936946002304F12400C1
:106B50000193FFF7A1FF02B010BD00BF616B0D00F4
:106B600013B5044601F09EFE90B103F003FB78B12B
:106B700008490948FDF70CFC084B009369460023BF
:106B800004F124000193FFF787FF01F08DFC60639F
:106B900002B010BD73DC0D0018E60320A16B0D00E0
:106BA00037B5044601F080FC636BC01AA3685B68CC
:106BB000984217D36068FFF7C5FD04F1240598B12A
:106BC000E369013310D00B490B48FDF7E1FB01F0FD
:106BD0006BFC0A4B606300936946002328460193CF
:106BE000FFF75AFF03B030BD05490348FDF7D0FB5E
:106BF000044BF0E783DC0D0018E60320096C0D0060
:106C000093DC0D006D6C0D0037B5044601F04CFCB3
:106C1000636BC01A42F20F7398421ED903F0AAFAAE
:106C2000D8B1E369002B18DD03F0C1FA05466068AE
:106C300003681B6898478068E3692D1A9D420CDD44
:106C400007490848FDF7A4FB074B0093694600235A
:106C500004F124000193FFF71FFF03B030BD00BF14
:106C6000B0DC0D0018E603206D6C0D0037B504464E
:106C70000F491048FDF78CFB606803681B68984754
:106C8000054603F094FA0123A860236201F00CFC8E
:106C9000094B606300936946002304F124000193CB
:106CA000FFF7FAFEA06803689B68984703B030BD01
:106CB000C9DC0D0018E60320BD6C0D0013B5036A96
:106CC000012B04461BD101F0EFFB636BC01AA368D4
:106CD0009B68984211D90C490C48FDF759FB0423D5
:106CE000236201F0E1FB0A4B6063009369460023D5
:106CF00004F124000193FFF7CFFE02B010BD054957
:106D00000248FDF745FBECE7DADC0D0018E603204E
:106D1000096C0D00FADC0D00014B00221A7070475F
:106D2000F4E503207047012A034602D101600020E8
:106D30007047022A04BFD1E90001C3E90001F6E768
:106D400013B504461046019204F05DFC6368019996
:106D500002461E2A03F10C0006D804F02FFC012382
:106D600084F8353002B010BD1F2204F066FC636861
:106D7000002283F82B20F2E710B442680346541037
:106D800001EB6200D20748BF0A591B685DF8044B4B
:106D900048BFD3581847022A38B5044607D0032AFB
:106DA00011D0012A01D10B682360002038BD0C20CE
:106DB0000D68FDF770F903460028F5D095E8070047
:106DC00083E80700F0E700680028EED00C2103F00C
:106DD00022FDEAE770B4036809685C689D681B6877
:106DE0001268661005EB6400E40744BFAC59E35831
:106DF00070BC184710B5064B044640F8203BFDF721
:106E000044FA04F11000FDF740FA204610BD00BF1F
:106E1000B4DD0D0010B50446FFF7ECFF2046382125
:106E200003F0F9FC204610BD10B5034B0360044687
:106E3000FFF7E0FF204610BDC8DD0D0010B5044689
:106E4000FFF7F2FF2046382103F0E5FC204610BD95
:106E5000836A014613B1C36A2030184770470000A7
:106E600030B5074A0260002400220025C0E902452F
:106E70004260826182620263828680F8362030BD81
:106E8000B4DD0D0008B50346FFF7EAFF014A1A60BA
:106E9000184608BDC8DD0D0010B5064C23683BB987
:106EA0003820FDF7F8F8014608B1FFF7EBFF216045
:106EB000206810BD00E6032007B5826801910AB979
:106EC00003F0AFFCC36801A9984703B05DF804FB69
:106ED0007FB5002302938B6804460D4600F110062F
:106EE00033B1022268469847EB680393AB6802937C
:106EF00031466846FEF7C8FF029BA269A361039B67
:106F000002926846E269E3610392FDF7BEF920460A
:106F100004B070BD1FB5D1E90023002104460291E1
:106F20000AB9D90705D5CDE900230B4B03930B4BC9
:106F3000029321466846FEF7A7FF029BA268A36062
:106F4000039B02926846E268E3600392FDF79DF9B5
:106F5000204604B010BD00BF796D0D00276D0D00F7
:106F600073B5044640680D4D0268AA4202D1037908
:106F70002C2B08D02C263246002104F0E9FA636855
:106F80001D6063681E71064B00936946002304F17F
:106F900020000193FFF7BEFF02B070BDF2A2877719
:106FA000AD6F0D004160FFF7DBBF000037B54168F2
:106FB0000B7B044600F1200593B183691BB10C31B2
:106FC0001030FFF779FF0A4B0093694600232846EB
:106FD0000193FFF79FFF01F067FA206303B030BD14
:106FE000044A69462846CDE90023FFF793FFF5E7F9
:106FF00049710D00D1710D0013B5044601F052FC2A
:1070000070B103F0B7F858B1064B009369460023FE
:1070100004F120000193FFF77DFF01F045FA2063A2
:1070200002B010BD29700D0030B5054685B001F0E5
:107030003BFA2B6BC01AB0F5FA6F29D3154B1649E2
:107040001B788DF80030002285F835203C2302A8FB
:1070500001F0D0FE039C7CB16368013B63605BB9C7
:10706000236820469B689847A368013BA3601BB92F
:1070700023682046DB689847084B029302A9002347
:1070800005F120000393FFF745FF01F00DFA286397
:1070900005B030BDFCE5032094DD0D00A1700D00AE
:1070A00073B590F8355004461DB34668337B00F144
:1070B0002005DBB103F07BF8B060236820469B68B5
:1070C0009847A3692BB1616804F110000C31FFF7F8
:1070D000F3FE0F4B00930023019369462846FFF708
:1070E00019FF01F0E1F9206302B070BD094A009276
:1070F000F2E701F0D9F9236BC01A43F697239842BF
:10710000F2D9044B6946CDE9003504F12000E6E7E9
:1071100049710D0019710D0013B5044601F0C4F951
:10712000236BC01A064B984208D9064B0093694658
:10713000002304F120000193FFF7ECFE02B010BD24
:10714000DF930400F96F0D00F7B5044601F0ACF9C8
:10715000236BC01A42F20F7398421ED901F0A4F9B2
:1071600094F8365020635DB1184A0023CDE900231E
:1071700084F83630694604F12000FFF7CBFE0CE0BE
:10718000D4E9022313430AD1A36A33B104F12001E5
:10719000032208469847C4E90A5503B0F0BD02F03F
:1071A000E9FF0028F9D06368D4E902679B68F61804
:1071B00047EBE37702F0FBFFC117864277EB010351
:1071C000EBDA024BCDE90035D4E700BFD1710D00F9
:1071D00030B590F834508BB004466DBB0C2004954C
:1071E000FCF759FF18B11A4B8460C0E90035194B00
:1071F0000290059302A9184B049306A8FFF7A8FB79
:10720000089B83B11020FCF746FF054658B106A93C
:10721000FFF79EFB0023CDE90033104910480123FE
:107220002A4601F057FB06A8FDF72FF802A8FDF744
:107230002CF8012384F834300A4B069306A9002366
:1072400004F120000793FFF765FE0BB030BD00BFCF
:10725000416D0D00D56D0D00976D0D00F38B0D0088
:1072600094DD0D00F96F0D00014B00221A7070477C
:10727000FCE50320034BC162002280ED0E0BC0E948
:107280001C2370470000A0402DE9F74FDFF8C8B07D
:107290000191044600254FF0000A019B9D422FD02A
:1072A000A08D03F05BFAD4E91C89E06403F032FDA1
:1072B00042464B4606460F4603F0DEFB52465B460F
:1072C00003F092FD42464B4603F0D8FB02460B46C4
:1072D000C4E91C233046394603F0CEFB02460B4678
:1072E000C4E9182303F080FD02460B46C4E92423B9
:1072F000D4E9260103F0C2FB0135C4E92601CCE73D
:1073000013A3D3E90023D4E90E0103F06DFD064673
:1073100028460F4603F0EEFC02460B46D4E9260150
:1073200003F08CFE41EC100B03F07EFA32463B4634
:1073300051EC100B03F058FD41EC100B0022002320
:10734000C4E90801C4E9262303B0BDE8F08F00BFFB
:107350006666666666664A3F0000303F704710B555
:107360001021044603F057FA204610BD0368C9B245
:107370009B68184730B5034DC0E90223C0E90051AE
:1073800030BD00BF08DE0D00406801F025BF10B51C
:107390000446006801F063FF204610BD2DE9F0416E
:1073A0008AB004464068019001F050FF1E2200217F
:1073B00002A8A76804F0CCF80026EFB123681E2FBE
:1073C000B84628BF4FF01E08DD6802AA4346314682
:1073D0002046A847054658B90A480B493246FCF7EB
:1073E000D7FF01A8FFF7D3FF28460AB0BDE8F08118
:1073F000A7EB08074644E0E701A8FFF7C8FF01250F
:10740000F2E700BF18E60320D4DD0D002DE9F743B5
:107410000446406801900D4616461F4601F016FFCF
:10742000A7B1E168606841F0500101F008FF290A46
:107430006068FFF79BFF29466068FFF797FF606869
:10744000002101F0FFFE48B1002400E0012401A862
:10745000FFF79DFF204603B0BDE8F083202F217B7E
:107460006068B84628BF4FF020080123424641F02B
:10747000500101F0CEFE03F0A1F903681B699847A3
:107480004045E1DB06EB080903F098F903685B6906
:10749000984706F8010B4E45F6D14544A7EB08077F
:1074A000BEE72DE9F74F0446406801900E4690462E
:1074B0001D4601F0CBFE4FF00109B9F1000F2AD0B3
:1074C0004DB3E168606841F0500101F0B8FE310A47
:1074D0006068FFF74BFF60683146FFF747FFA5F193
:1074E0001E0A4746A6EB080B606817F8011B0368E5
:1074F000013D9B68984755450BEB0706B84601D000
:10750000002DF1D16068012101F09CFE0028D7D048
:107510004FF00009D1E701A8FFF739FF484603B053
:10752000BDE8F08F2DE9F0438BB00E46154680463E
:10753000406801901C4601F089FEAE4229D22644E3
:1075400025448CB11E2C2746D8F8003028BF1E27B2
:10755000F61BD3F8089002AA3B4631464046ED1B85
:10756000C84748B9002400E0012401A8FFF70FFF35
:1075700020460BB0BDE8F083D8F8003002AAD3F85B
:107580000C9029463B464046C8470028EAD0E41BF9
:10759000D7E7E9D9002CE7D0D8F800301E2C2746D1
:1075A00028BF1E27D3F8089002AA3B463146404622
:1075B000C8470028D6D0D8F8003002AAD3F80C90DB
:1075C00029463B464046C8470028CBD03E443D4470
:1075D000E41BDFE7402070470020704780207047A1
:1075E000FF207047704770477047704710B51421EF
:1075F000044603F010F9204610BD10B508210446DA
:1076000003F009F9204610BD10B50821044603F027
:1076100002F9204610BD10B51C21044603F0FBF80A
:10762000204610BD2DE9FF410368DB6804469847FA
:1076300010220146684603F08BFF236820469B68B2
:107640009847002507462846BD420ED27E1B236878
:10765000102E28BF1026D3F818806A4633462946D4
:107660002046C04708B13544EEE704B0BDE8F081DC
:107670004FF48073438140F20113C36000230382FF
:107680007047000008B5064B0360064B436040F2AC
:107690000473038100234374FFF7EAFF08BD00BFB2
:1076A000E8DE0D000001020303090A2200F00F00CA
:1076B00002FB0300704708B5807AFFF7F5FF00F57D
:1076C000FA6008BDC07A00F01F00FFF7EDBF007B35
:1076D00000F03F00FFF7E8BF08B5817B4A060DD5F3
:1076E00001F01F00FFF7E0FF8B0603D50C2800D048
:1076F0000C3008BD0C2808BF0020FAE7BDE80840A0
:1077000001F03F00FFF7D0BFC07B00F07F00FFF724
:10771000CBBF007C00F07F00FFF7C6BF10B58AB07A
:1077200024220446002101A803F012FF2046FFF79F
:10773000C2FFA0F26C7006902046FFF7C3FF01382D
:1077400005902046FFF7C3FF04902046FFF7C4FFD3
:1077500003902046FFF7D8FF02902046FFF7D9FF9D
:10776000019001A801F0AEF90AB010BD0A2190FB0A
:10777000F1F292FBF1F301FB13231B01DBB201FBDE
:1077800012001843C0B27047642310B5044691FB41
:10779000F3F000FB1310FFF7E9FFA07210BD10B566
:1077A00004460846FFF7E2FFE07210BD10B504463C
:1077B0000846FFF7DBFF237B23F03F0318432073CA
:1077C00010BD10B50446481CFFF7D0FF637B23F0C3
:1077D00007031843607310BD10B504460846FFF751
:1077E000C5FFA07310BD10B504460846FFF7BEFFE5
:1077F000E07310BD10B504460846FFF7B7FF237CC1
:1078000023F07F031843207410BD37B50446684643
:10781000CDE9002303F062FE054641692046FFF7EB
:10782000B3FF296920460131FFF7B9FFE968204617
:10783000FFF7BCFFA9692046FFF7C3FFA9682046F0
:10784000FFF7CAFF69682046FFF7CDFF29683B298B
:10785000A8BF3B212046FFF7CDFF03B030BD00009D
:10786000054A0061C0E90021044A8260044AC260FE
:10787000044A8061426170471CDF0D000000010373
:10788000C4DE0D00F8DE0D002DE9F84F04460F466A
:107890009046994600260A9B9E4231D2606839463E
:1078A00001F0C9FC08EB06016068FFF75FFD606846
:1078B000002101F0C7FC0546D0B90A9B60689A1BFD
:1078C000202A4FF0010328BF2022394601F0A1FCF5
:1078D00009EB060B05460BEB000ADA4506D060689B
:1078E00003685B6998470BF8010BF6E72E44D2E773
:1078F000024604490448FCF74BFD2846BDE8F88FD2
:107900000025FAE71CDE0D0004E603202DE9F34113
:1079100001EB03081E4603689B6805460C461746A4
:10792000984780450DD82034686800963B46E2B2FF
:107930006F21FFF7A9FFB0FA80F0400902B0BDE85F
:10794000F0810020FAE72DE9F34101EB03081E4620
:1079500003689B6804460D461746984780450CD837
:10796000606800963B46EAB25721FFF78DFFB0FAF8
:1079700080F0400902B0BDE8F0810020FAE77FB551
:107980001E1E0CBF072306230093144602AB0A46B3
:107990006F21FFF779FF0546A8B99DF808302374D9
:1079A0009DF80930E3739DF80A30A3739DF80B30FE
:1079B00063739DF80C3023739DF80D30E3722EB97C
:1079C0009DF80E30A372284604B070BD02F00CFC86
:1079D000FFF7CCFEA072F6E71FB501230A4600931D
:1079E0006F2103ABFFF750FF20B99DF80C0005B0E5
:1079F0005DF804FB0020FAE708B50321FFF7ECFF70
:107A0000C0F3401008BD38B500230C460A4619469D
:107A10000546FFF7B4FF30B9A37A23B12846BDE885
:107A20003840FFF7E9BF002038BD7FB5024601A806
:107A3000FFF728FE01A91046FFF7E5FF28B101A8CE
:107A4000FFF76CFE07B05DF804FB00200146F9E784
:107A5000D0B5044686B0406801F0BEFB02F08AFB58
:107A6000E8B9E37A9B071AD52046FFF7DEFF064602
:107A70000F4656EA070312D002F083FA0A4B0B496D
:107A80001B68009332463B4602A802F031FB0848CF
:107A9000029A0849FCF77CFC02A802F0FBF80123DB
:107AA000237206B0D0BD00BF00DD032044E60320F2
:107AB00004E6032036DE0D002DE9F84F0646884621
:107AC00091469A4600250A9B9D4229D270684146FC
:107AD00001F0B1FB706809EB0501FFF747FC0A9B59
:107AE0005F1B1F2F28BF1F270AEB050407EB040BA2
:107AF000706814F8011B026892689047A345F7D19B
:107B00007068012101F09EFB044638B10246054928
:107B10000548FCF73DFC2046BDE8F88F3D44D2E720
:107B20000024F8E74BDE0D0004E603202DE9F341C5
:107B300001EB03081E4603689B6805460C46174682
:107B4000984780450DD82034686800963B46E2B2DD
:107B50006F21FFF7B1FFB0FA80F0400902B0BDE835
:107B6000F0810020FAE71FB5137C8DF80830D37B35
:107B70008DF80930937B8DF80A30537B8DF80B30EC
:107B8000137B8DF80C30D37A8DF80D30937A8DF805
:107B90000E30072300930A4602AB6F21FFF78CFFDC
:107BA00005B05DF804FB10B588B0044603A8019346
:107BB000FFF768FD019B03A8FFF727FE9DF81C3027
:107BC000A27A63F07F038DF81C309DF819306AB1FA
:107BD00043F0080303AA002120468DF81930FFF76F
:107BE000C2FFB0FA80F0400908B010BD03F0F703FF
:107BF000F0E70000F0B587B0054602F0BBFA044696
:107C0000E8B102F0D4FAC717024606463B462846BA
:107C1000FFF7C9FF0C4B0D491B68009332463B46EA
:107C2000044602A802F064FA0948029A0949FCF7DE
:107C3000AFFB02A802F02EF8204607B0F0BD0649BF
:107C40000348FCF7A5FBF7E700DD032044E603202B
:107C500004E6032066DE0D007CDE0D0037B5457AB4
:107C600004469DB902F086FA80B1002200236946DD
:107C70002846CDE9002300F045FE38B1E37ADB0762
:107C800002D52046FFF7B6FF0123637203B030BD73
:107C90001FB501238DF80C2000930A4603AB6F211A
:107CA000FFF70AFF05B05DF804FBF8B504460D4682
:107CB00017461E46FFF790FE00EA070232432946A8
:107CC0002046BDE8F840FFF7E3BF012908B50CD80E
:107CD00000294FF0000314BFDF22EF220721FFF736
:107CE000E4FFB0FA80F0400908BD0020FCE738B599
:107CF000044632256068572101F09DFA6068012131
:107D000001F0A0FA08B1013DF4D138BD2DE9F041F0
:107D100004460F46164602EB0308B04520D06068C3
:107D2000572101F088FA39466068FFF71FFB606849
:107D300016F8011B03689B6898476068012101F0F1
:107D400081FA0137054638B1024606490648FCF774
:107D50001FFB2846BDE8F0812046FFF7C8FFDCE79F
:107D60000025F6E791DE0D0004E60320F7B5CF18F5
:107D70001E46036801929B6804460D469847874259
:107D80000AD8019A60683346E9B2FFF7BFFFB0FA3C
:107D900080F0400903B0F0BD0020FBE7014B024A30
:107DA0001A60704704E60320B2DE0D00012A034684
:107DB00002D1016000207047022A04BFD1E900010E
:107DC000C3E90001F6E710B5012303748368044694
:107DD00043B1C0689847012363740020BDE8104098
:107DE00000F032BB00680028F5D083680BB902F0C0
:107DF00018FDC368EEE710B442680346541001EB67
:107E00006200D20748BF0A591B685DF8044B48BF9F
:107E1000D35818470123F7B580F8293006460830B3
:107E200000F0EAFA0420FCF736F9054698B31B493E
:107E3000142002F0F2FC30B10023C0E90033C0E9A5
:107E40000233037443742860A0B1154B1549C0E98F
:107E500002364FF40063CDE900030222124B0430D6
:107E600000F092FA30B92B681B7CA3B9012000F016
:107E70000BFBF8E72C6800232B6064B1276837B14F
:107E80003846FCF702FA1021384602F0C4FC1421EF
:107E9000204602F0C0FC756003B0F0BD18E20D0092
:107EA000B3800D0024DF0D00C77D0D0047F2305177
:107EB000084AC160084902600022C0E9041207496B
:107EC000C16107494260C0E908228161028580F8EA
:107ED0002A207047E8DF0D001D820D00F77D0D00A0
:107EE000AD7D0D0010B5044B044640F8103BFCF787
:107EF000CCF9204610BD00BFE8DF0D0010B5034BE4
:107F000003600446FFF7EEFF204610BD10E00D00B1
:107F100010B50446FFF7F2FF2046382102F07BFC43
:107F2000204610BD806800F06FBA806800F074BA17
:107F300010B504460068FFF7F8FF204610BD13B5E2
:107F400004460190FFF7EEFFE36ADC88A4B20CB1AF
:107F500003F1080401A8FFF7EBFF204602B010BDB3
:107F600013B504460190FFF7DDFF94F8283043B9BC
:107F7000E26A0124D38001A8FFF7DAFF204602B0AD
:107F800010BD0024F7E713B504460190FFF7CAFFC0
:107F9000E36A01A8DC88FFF7CBFF204602B010BDE2
:107FA0002DE9F047994686B090F829309DF838A021
:107FB0009DF83C8004460F46164613B903689B683B
:107FC0009847314B3846002E08BF1E4603F01BFB76
:107FD0000546304603F017FB284400F10A05AB07BD
:107FE0001CBF25F0030504353346CDE90285CDE9F4
:107FF000009A264926483A46FCF7CAF9238E083BE0
:10800000AB4212D20024204606B0BDE8F087CB88F0
:10801000012B36D005A8FFF78BFF236894F82810B2
:108020009B69204698470028ECD020460594FFF72E
:1080300079FFE16A228E636B0A44D21AAA42E6D320
:1080400048EA0A0883F80480C3F80090636B03F1E0
:1080500008083946404603F0B1FA404603F0D3FA27
:1080600001303146404403F0A9FA636BE26A1D44D3
:108070006563D3880133D380012405A8FFF758FF37
:10808000C1E70024F9E700BF40E20D0036DF0D0034
:1080900008E6032008B5044600F11005A3690BB9F2
:1080A00002F0BFFBE36921462846984700F074F9C7
:1080B000F4E708B5FFF7EEFF68B501F108050646DD
:1080C000284603F0A0FA01300544284603F09BFA45
:1080D000F36A01302844C31A13F003031CBFC3F131
:1080E0000403C01868BDF7B504460E460190FFF7BB
:1080F00019FFE76AFB8807F10805E6B1012B22D9D1
:1081000029462046FFF7D8FF054629462046FFF7B7
:10811000D3FF228E3A44121A0146A0EB050602D084
:10812000284603F0FBF9636B9B1B6363FB88013BF1
:10813000FB80012601E0002BE7D101A8FFF7F8FE44
:10814000304603B0F0BD0026F7E700002DE9F04708
:108150000D4604462F461646FFF7A8FE154B57F866
:10816000082B2360144BE5629A422686984617D165
:10817000AB889BB2B34213D105EB060A67634FF09D
:108180000009EB881FFA89F29BB29A420ED2616B0A
:108190002046FFF791FF5045606309F10109F0D9CE
:1081A0000023C5F800806763AE80EB802046BDE801
:1081B000F08700BF10E00D0061AB9CD110B5D1E994
:1081C000002386B00021044604910AB9D90705D5D9
:1081D000CDE902230F4B05930F4B049302AB93E8B9
:1081E00003006A4682E8030094E8030083E8030082
:1081F00092E80300049A84E80300A168A260059A4B
:1082000004911846E168E2600591FCF73EF82046CB
:1082100006B010BDF77D0D00AD7D0D0007B5054B17
:1082200000936946002310300193FFF7C7FF03B0A6
:108230005DF804FB65820D0013B5044600F034F9C7
:10824000636AC01AE368984208D3054B00936946F5
:10825000002304F110000193FFF7B0FF02B010BD3E
:1082600065820D002DE9F04190F82A3086B0044671
:10827000002B64D100F016FB002860D000F014F948
:10828000636AC01A40F2F133984258D923682046F5
:108290005B6998470546002851D000F10807012383
:1082A00084F82830384603F0AEF995F80480CDF80C
:1082B000048001302B682B4900933E1833462A482E
:1082C0003A46FCF765F82B688DF80080324639464F
:1082D00002A800F08FFD029D6B781BB9012000F011
:1082E000F9FBF8E7002000F07FFA20B16B7813B9B2
:1082F00000F0C8FAFAE72B78012B23D11B491A4862
:10830000FCF746F8236800219B6920469847002324
:1083100084F8283000F0C8F86062039C7CB1636880
:10832000013B63605BB9236820469B689847A3685C
:10833000013BA3601BB923682046DB68984706B061
:10834000BDE8F081E2680A490748FCF721F8094BCB
:10835000049304A9002304F110000593FFF72EFFF6
:10836000D5E700BF77DF0D0008E6032098DF0D009A
:10837000AFDF0D0039820D00014B024A1A607047D1
:1083800008E60320D6DF0D0008B5024B1B685B68CA
:10839000019308BD4802030008B5024B1B68DB6867
:1083A000019308BD4802030008B5024B1B68DB6956
:1083B000019308BD4802030008B5024B1B681B6A05
:1083C000019308BD4802030008B5024B1B685B6AB5
:1083D000019308BD4802030008B5024B1B689B6A65
:1083E000019308BD4802030008B5024B1B68DB6A15
:1083F000019308BD4802030008B5024B1B681B6BC4
:10840000019308BD4802030008B5024B1B689B6B33
:10841000019308BD4802030008B5024B1B681B6CA2
:10842000019308BD4802030008B5024B1B685B6C52
:10843000019308BD4802030008B5024B1B689B6C02
:10844000019308BD4802030008B5024B1B68DB6EB0
:10845000019308BD4802030008B5024B1B681B6F5F
:10846000019308BD4802030008B5024B1B685B6E10
:10847000019308BD3402030008B5024B1B685B681A
:10848000019308BD1802030008B5024B1B689B68E6
:10849000019308BD1802030008B5024B1B68DB6896
:1084A000019308BD1802030008B5024B1B685B6905
:1084B000019308BD1802030008B5024B1B689B6DB1
:1084C000019308BD1802030008B5024B1B68DB6D61
:1084D000019308BD1802030008B5024B1B685B6ED0
:1084E000019308BD1802030008B5024B1B689B6E80
:1084F000019308BD1802030008B5024B1B685B68B6
:10850000019308BD2C02030008B5024B1B689B6851
:10851000019308BD2C02030008B5024B1B68DB6801
:10852000019308BD2C02030008B5024B1B681B69B0
:10853000019308BD2C02030008B5024B1B689B6920
:10854000019308BD2C02030008B5024B1B68DB69D0
:10855000019308BD2C02030008B5024B1B681B6B7E
:10856000019308BD2C02030008B5024B1B68DB68B1
:10857000019308BD2802030008B5024B1B689B69E4
:10858000019308BD2802030008B5024B1B68DB6994
:10859000019308BD2802030008B5024B1B681B6A43
:1085A000019308BD2802030008B5024B1B685B6AF3
:1085B000019308BD2802030008B5024B1B689B6AA3
:1085C000019308BD2802030008B5024B1B68DB6A53
:1085D000019308BD2802030008B5024B1B681B6B02
:1085E000019308BD2802030008B5024B1B685B6BB2
:1085F000019308BD2802030008B5024B1B681B6CE1
:10860000019308BD2802030008B5024B1B689B6C50
:10861000019308BD2802030008B5024B1B68DB6C00
:10862000019308BD2802030008B5024B1B681B6DAF
:10863000019308BD2802030008B5024B1B685B6963
:10864000019308BD6402030008B5024B1B689B68D8
:10865000019308BD6802030008B5024B1B68DB6884
:10866000019308BD6802030008B5024B1B68DB6973
:10867000019308BD3002030008B5024B1B681B6A5A
:10868000019308BD3002030008B5024B1B681B684C
:10869000019308BD3C02030008B5024B1B68DB6870
:1086A000019308BD3C02030008B5024B1B681B691F
:1086B000019308BD3C02030008B5024B1B685B69CF
:1086C000019308BD3C02030008B5024B1B689B697F
:1086D000019308BD3C02030008B5024B1B68DB692F
:1086E000019308BD3C02030008B5024B1B681B6ADE
:1086F000019308BD3C02030008B5024B1B689B6A4E
:10870000019308BD3C02030008B5024B1B681B68BF
:10871000019308BD4C02030008B5024B1B681B699E
:10872000019308BD4C02030008B5024B1B685B694E
:10873000019308BD4C02030008B5024B1B689B69FE
:10874000019308BD4C02030008B5024B1B68DB69AE
:10875000019308BD4C02030008B5024B1B681B6A5D
:10876000019308BD4C02030008B5024B1B685B6B0C
:10877000019308BD6002030008B5024B1B689B6BA8
:10878000019308BD6002030008B5024B1B68DB6B58
:10879000019308BD6002030008B5024B1B685B6DC6
:1087A000019308BD6002030008B5024B1B681B68FB
:1087B000019308BD2002030008B5024B1B685B68EB
:1087C000019308BD2002030008B5024B1B685B69DA
:1087D000019308BD2002030008B5024B1B68DB6A49
:1087E000019308BD2002030008B5024B1B68DB6C37
:1087F000019308BD2002030008B5024B1B685B6DA6
:10880000019308BD2002030008B5024B1B689B6D55
:10881000019308BD2002030008B5024B1B68DB6D05
:10882000019308BD2002030008B5034B1B68D3F871
:108830008830019308BD00002002030008B5034BF7
:108840001B68D3F89430019308BD00002002030098
:1088500008B5034B1B68D3F8AC30019308BD00008A
:108860002002030008B5024B1B681B68019308BD7A
:108870004402030008B5024B1B685B68019308BD06
:108880004402030008B5024B1B689B68019308BDB6
:108890004402030008B5024B1B68DB68019308BD66
:1088A0004402030008B5024B1B685B69019308BDD5
:1088B0004402030008B5024B1B68DB69019308BD45
:1088C0004402030008B5024B1B681B6A019308BDF4
:1088D0004402030008B5024B1B685B6A019308BDA4
:1088E0004402030008B5024B1B68DB6A019308BD14
:1088F0004402030008B5024B1B681B6B019308BDC3
:108900004402030008B5024B1B685B6B019308BD72
:108910004402030008B5024B1B689B6B019308BD22
:108920004402030008B5024B1B68DB6B019308BDD2
:108930004402030008B5024B1B685B68019308BD45
:108940004002030008B5024B1B689B68019308BDF9
:108950004002030008B5024B1B68DB68019308BDA9
:108960004002030008B5024B1B681B69019308BD58
:108970004002030008B5024B1B685B69019308BD08
:108980004002030008B5024B1B689B69019308BDB8
:108990004002030008B5024B1B68DB69019308BD68
:1089A0004002030008B5024B1B681B6A019308BD17
:1089B0004002030008B5024B1B681B6B019308BD06
:1089C0004002030008B5024B1B685B6B019308BDB6
:1089D0004002030008B5024B1B681B6C019308BDE5
:1089E0004002030008B5024B1B685B6C019308BD95
:1089F0004002030008B5024B1B681B68019308BDC9
:108A00001C02030008B5024B1B685B68019308BD9C
:108A10001C02030008B5024B1B689B68019308BD4C
:108A20001C02030008B5024B1B681B69019308BDBB
:108A30001C02030008B5024B1B68DB69019308BDEB
:108A40001C02030008B5024B1B685B6A019308BD5A
:108A50001C02030008B5024B1B68DB6A019308BDCA
:108A60001C02030008B5024B1B681B6B019308BD79
:108A70001C02030008B5024B1B68DB6B019308BDA9
:108A80001C02030008B5024B1B685B6C019308BD18
:108A90001C02030008B5024B1B689B6C019308BDC8
:108AA0001C02030008B5024B1B68DB6C019308BD78
:108AB0001C02030008B5024B1B681B6D019308BD27
:108AC0001C02030008B5024B1B685B6D019308BDD7
:108AD0001C0203000021FFF777BE10B5836804462F
:108AE0000BB901F09EFEC3689847A3681BB103222F
:108AF00021462046984720461021BDE8104001F04D
:108B00008ABE10B50446006808B1FFF795FC204600
:108B100010BD000010B5064C002320462360FFF76F
:108B200083FC2046034A0449BDE8104001F06EBEB4
:108B30000CE60320E0DE0320038B0D0070470020CD
:108B4000704710B51021044601F065FE204610BDA7
:108B500008B5FFF7F6FF08BD30B500224FF69C744C
:108B6000026084808D888C800C68858004600A6037
:108B700030BD10B504460068FFF744FF204610BD25
:108B800038B5C468F4B12378022B03D104F10C008A
:108B9000FFF7EFFF656835B12846FBF776FB10213C
:108BA000284601F038FEA56835B12846FBF76DFB75
:108BB0001021284601F02FFE20461421BDE8384040
:108BC00001F029BE38BD10B588B00446684601F0F2
:108BD000ACF8694604A801F0CBF804A8A047044605
:108BE00004A801F057F8684601F054F8204608B090
:108BF00010BD07B5CDE9001282680AB901F011FE77
:108C0000C36801AA6946984703B05DF804FB1FB525
:108C10000023CDE90201019210241A466946184644
:108C2000ADF80230ADF80040FFF724FE04B010BDEF
:108C300073B50E46044656F8043B00930D4601A852
:108C40003146FDF7CFFE019A009B6260236001A8C8
:108C5000002301930093FDF77FF83046FDF77CF881
:108C60002846082101F0D7FD204602B070BD826879
:108C700010B50AB901F0D5FDBDE81040C36818472A
:108C800008B5006800F11001FFF7F1FF08BD826828
:108C900010B50AB901F0C5FDBDE81040C36818471A
:108CA00008B5006800F11001FFF7F1FF08BD0000F2
:108CB00038B500230446036010200D46FBF7EBF99E
:108CC00028B10123C0E90133024B0360C560206075
:108CD000204638BD38E00D0038B5002383608B682E
:108CE00004460D462BB102229847EB68E360AB685F
:108CF000A360204638BD0000F0B589B0046868461E
:108D0000FFF72AFF4FF00203D4E84F2F002A03D1C8
:108D1000C4E8413F0029F7D125D104F10C0569468B
:108D20002846FFF719FFBFF35B8F01236370002014
:108D300004F10803BFF35B8F53E8006F43E80002C0
:108D4000002AF9D1BFF35B8F6EB1FFF74DFD78B10B
:108D500029463046FFF78BFF3046FBF796FA102185
:108D6000304601F058FD6846FFF703FF09B0F0BD3B
:108D7000314602A8FFF7B0FFE068B4F9105008B11F
:108D800002F024FC06901020ADF81C50FBF783F98C
:108D90000546E8B1002787601820FBF77CF90446F8
:108DA00088B10146876002A8FDF76EF8049BA268AF
:108DB000A360059B049206A9E268E36004F1100039
:108DC0000592FFF7C9FE084BEB60084B2C60AB60C7
:108DD00006A8FFF7CEFE02A8FBF757FA00222946A5
:108DE0000348FFF709FDB7E7818C0D00198F0D00CF
:108DF000DB8A0D002DE9F0478AB005469DF84890C2
:108E00000C4617469846FFF74DFD07AE824638BB25
:108E10004FF62E73059005A93046ADF81830FFF7D0
:108E20009BFE1420FBF737F9044648B10223037078
:108E30000123C0E901AA437031460C30FFF78CFED4
:108E40002846214640F8044BFFF732FF3046FFF733
:108E500090FE05A8FFF78DFE28460AB0BDE8F08712
:108E60000C234FF0000A1420CDE908AA0793FBF762
:108E700012F9014628B1C0E901AA80F800A080F8E3
:108E800001A004A80391FFF713FF224B08930820C9
:108E9000FBF701F9824628B1039B40F8043B04A983
:108EA000FDF7A0FD00965FFA89F342463946204659
:108EB000CDF824A0FFF706FDB8B9039B5B7803F05B
:108EC000FF0293B94FF69C7305A903A80592ADF86C
:108ED0001830FFF711FF05A8FFF74BFE05A8099909
:108EE000FFF7A6FE06A8FCF737FF039B059304A92E
:108EF00006A8FDF777FD059B069A2B606A600023A4
:108F000006A806930593FCF727FF04A8FCF724FFA7
:108F1000A2E700BFDD8F0D00022AF8B5054607D095
:108F2000032A18D0012A01D10B6803600020F8BD84
:108F300018200E68FBF7AFF8044650B13146FFF732
:108F4000CBFE3069B6F9147008B102F03FFB206126
:108F5000A7822C60EAE70468002CE7D004F1100037
:108F6000FFF707FE2046FBF790F91821204601F095
:108F700052FCDBE738B5002383608B6804460D465E
:108F80002BB102229847EB68E360AB68A3602046F0
:108F900038BD022A70B5044607D0032A12D0012A30
:108FA00001D10B680360002070BD14200E68FBF730
:108FB00072F8054620B13146FFF7DCFF337C2B7495
:108FC0002560F0E70468002CEDD02046FBF75DF942
:108FD0001421204601F01FFCE5E70000F0B589B040
:108FE00004460D4601A81146FFF722FEA4B124B2A3
:108FF0001DB1284602F0EAFA054601A803A9039527
:10900000ADF81040FFF778FE03A8FFF7B2FD02A805
:10901000FCF7A2FE09B0F0BD019D0123D5E84F2F5A
:10902000002A03D1C5E8413F0029F7D1EFD12B73C6
:10903000BFF35B8F6B702B1DBFF35B8F53E8006F2B
:1090400043E80042002AF9D1BFF35B8F002EDED047
:109050002046FFF7C9FB074660B105F10C01304619
:10906000FFF715FE3046FBF710F91021304601F0EE
:10907000D2FBCCE7314603A8FFF77CFF2B7B8DF8B2
:109080001C301020FBF707F80546D0B1876014208C
:10909000FBF701F8044678B18760014603A8FCF7A6
:1090A000F3FE059BA268A360069B0592E268E3605D
:1090B0009DF81C3006922374064BEB60064B2C6027
:1090C000AB6003A8FBF7E1F8002229460348FFF74D
:1090D00093FBC7E7A18C0D00938F0D00DB8A0D0079
:1090E000002240681146FFF75DBC0022406811462F
:1090F000FFF768BC40680022FFF75CBC40680022B4
:1091000081F00101FFF746BC002340681A4619466A
:10911000FFF738BC002340681A461946FFF72ABCFF
:10912000002240681146FFF71DBC0022406811462E
:10913000FFF708BC406800220221FFF70BBC0023A8
:1091400040681A46FFF7F6BB024B03225A60024AF8
:109150001A60704710E6032054E00D007047F8B520
:10916000064615460C468F18BC4206D0336814F8E4
:10917000011B9B6830469847F6E72846F8BD007CFF
:109180000022FFF709BA007C0021FFF70DBA007C2E
:109190000021FFF711BA007C0021FFF715BA007C0F
:1091A0000021FFF719BA10B51421044601F033FB72
:1091B000204610BD10B54FF47A73044608460021CE
:1091C000C4E90113034B236020741146FFF714FA1E
:1091D000204610BD90E00D000023007C1A46194681
:1091E000FFF7C2B97FB500221423CDE90122ADF803
:1091F00004300B788DF808304B680393CB680493E8
:10920000007C0B7A059301A9FFF70EFA07B05DF811
:1092100004FB1FB5003B8DF800104FF06401039173
:1092200018BF0123694601928DF80830FFF7DAFF75
:1092300005B05DF804FB007C0022FFF79DB9C9B2C0
:10924000FFF7F9BF007C0022FFF79EB908B50021A7
:10925000007CFFF7D9F9B0FA80F0400908BD08B5E5
:109260000021007CFFF7D8F9B0FA80F0400908BD72
:10927000004700002DE9FF4100241D460F4690469F
:109280000646FFF761F9A5424FF00403ADF80D4023
:109290008DF80C308DF80F40A2BF9DF828308DF866
:1092A0000E3003AC0749009443463A463046A8BF07
:1092B0008DF80D50FFF740F9B0FA80F0400904B086
:1092C000BDE8F08171920D00704710B51821044679
:1092D00001F0A1FA204610BDF0B5037D062B8DB03C
:1092E0000E4600F104074FF0000412D000F108050B
:1092F00015F8011D0A22304600F08FFCAF420444ED
:1093000019D0002CF4D02E21304600F083FC044408
:10931000EEE72F236A4639460A208DF80040FFF712
:109320008BF9684602F06FF933680246DB686946DC
:1093300030469847044620460DB0F0BD10B5054BA9
:109340000446112240F8043B002102F001F92046B6
:1093500010BD00BFB8E00D000346074A10B543F842
:10936000042B01F1100251F8044B43F8044B9142D5
:10937000F9D10A781A7010BDB8E00D0010B59DF84B
:10938000084044EA032343EA024242EA016104231B
:109390004160037510BD000013B5054B0360CB7829
:1093A00000938B784A780978FFF7E8FF02B010BD88
:1093B000B8E00D0000F11003012213F8101C012980
:1093C000184608D153F8041C02EB4102013A03F19C
:1093D0001003F2D17047022904BF53F8041C52183D
:1093E000F4E7704770470020704710B51421044619
:1093F00001F011FA204610BD10B51021044601F00D
:109400000AFA204610BD08B5FFF7F6FF08BD10B5F3
:10941000C4687CB1206808B1FAF743FE237A1BB117
:10942000606808B1FAF73DFE20460C21BDE8104007
:1094300001F0F1B910BD38B51546D0E903239342C8
:10944000044607D2D21A8068AA4228BF2A46184486
:1094500002F056F822692A44226138BD0EB417B5CD
:1094600005AB044653F8042BE16801930369806857
:109470008B4238BFC91A184428BF0021019BFFF74F
:10948000E1FA23691844206103B0BDE8104003B03D
:10949000704710B5036804469B689847A368013B72
:1094A000A3602BB923682046DB68BDE8104018474D
:1094B00010BD07B503688DF807109B6801220DF1F8
:1094C0000701984703B05DF804FB38B50B680360EB
:1094D0004D6843689D4204460CD015B16B6801335A
:1094E0006B60606828B14368013B43600BB9FFF7CC
:1094F000D0FF6560204638BD0B461146002210B5EE
:10950000C0E90022044683600BB9204610BDFFF776
:10951000DCFFFAE78368EBB11A78032A1AD8DFE890
:1095200002F00417021B0520704702685B6852684E
:10953000D05C2D2812D0A0F13003092B0ED974284D
:109540000ED066280CD0A0F16E03584258417047E7
:1095500006207047002070470420704703207047A2
:10956000022070472DE9F04786B00746884602A8DA
:10957000002100249946102392460293FFF7FCF83D
:10958000CDE9004423464246394602A8FFF7FCF8DD
:10959000061E1EDD1049300101F041F9054690B16B
:1095A000214602A8FFF7E8F8CDE900642B464246C1
:1095B000394602A8FFF7E8F8A04207DDCAF80050D4
:1095C0000120C9F8006006B0BDE8F0872846FAF728
:1095D00068FD2046F7E700BF18E20D002DE9F84FBF
:1095E000436886680B4488460E4407461C46194665
:1095F0004FF00D094FF0090AB44263D0254615F823
:10960000012B5C2A2BD1A14207D0A4EB010B1846F9
:109610005A4601F083FF03465B44B54239D0627875
:10962000752A2AD1A21CB21A032A32DDA01D04F128
:10963000050E4FF0000CAE4553D015F8011FA1F1F7
:1096400030025FFA82FBBBF1090F05D9A1F161027B
:10965000052A07D8A1F1570242EA0C1CEBE728467D
:109660000446C9E7A1F14102052A12D8A1F1370247
:10967000F2E703F801CB0146F2E76E2A1CD00ED8C0
:10968000622A13D007D82F2A11D05C2A0FD0222AA1
:109690000DD0002023E0662AFBD10C2207E0722ABD
:1096A0000DD0742AF5D183F800A001E008221A70C9
:1096B000A11C01330846D3E74FF00A02F7E783F80D
:1096C0000090F5E7A14206D0641A1846224601F040
:1096D00025FF03462344A3EB0803BB600120BDE83C
:1096E000F88FBCF17F0FC4D92146B9E7F8B504461D
:1096F000154600EB01160027B44210D02378032B47
:1097000008D129462046FFF769FF48B1A368EF5406
:109710001034F1E7002BFBD1A268AB54F8E701202D
:10972000F8BD000038B50023C0E9003304460E48F8
:10973000C4E90203A9B10B78032B06D08BB91368D7
:1097400058684B68C35C6E2B07D013684D68586827
:109750008B6828445B1BA060E36011462046FFF73E
:10976000B4FE204638BD00BF40E20D0038B50025EC
:109770000B46C0E90055C0E90255C0E9045504464E
:1097800011464BB11A78012A06D103F11002DB68A9
:1097900082604361FFF799FE204638BD10B54369EA
:1097A000044663B18068E060013B1030A060206136
:1097B000636113B1FFF7FEFDA060012000E01846D1
:1097C00010BD10B57D210446FFF773FE0123237100
:1097D000204610BD08B50379012B02D0022B04D01E
:1097E00008BD2C21FFF765FEFAE73A21FAE710B52C
:1097F0000446FFF7EFFF20467B21FFF75AFE0023C8
:109800002371204610BD000038B504460D46FFF711
:10981000E1FF23689B683DB1054904222046984733
:1098200001232371204638BD02490522F6E700BF17
:10983000CEE00D00C8E00D0013B504460191FFF71E
:10984000C9FF2368019ADB68034920469847012332
:109850002046237102B010BD74DF0D00F8B5044638
:1098600057EC106BFFF7B6FF23680549DD6820460B
:109870003B463246A847012323712046F8BD00BF6E
:10988000D3E00D002DE9F0410D4617462221DFF807
:10989000A08004462F44FFF70CFE2946BD422A460D
:1098A00038D015F8016B222E03D05C2E01D01F2E6C
:1098B000F4D82368521A9B68204698475C212046BA
:1098C000FFF7F7FD0D2E0AD8072E1CD9A6F10803C5
:1098D000052B18D8DFE803F00D0F11171315222EF2
:1098E00001D05C2E0FD131462046FFF7E2FD29461C
:1098F000D4E76221F8E77421F6E76E21F4E76621E8
:10990000F2E77221F0E723683246DB6841462046E1
:109910009847ECE78D4204D023686A1A9B6820467A
:10992000984722212046FFF7C4FDBDE8F08100BF23
:10993000D6E00D0013B50446CDE90021FFF74AFF3C
:109940002046DDE90021FFF79DFF02232046237119
:1099500002B010BD13B50446CDE90021FFF73AFF70
:109960002046DDE90021FFF78DFF0123204623710A
:1099700002B010BD38B500230446036010200D4628
:10998000FAF789FB28B10123C0E90133024B0360D8
:10999000C5602060204638BDE4E00D00F0B5044607
:1099A00087B00E460C202749154600F036FF0146C9
:1099B00018B10023C0E90033037203A80291FFF736
:1099C000D9FF029A42B9C4E90022A26003A8FCF7B9
:1099D000C3F9204607B0F0BD00230193294601AB2F
:1099E0003046FFF7BFFD18B9C4E90000A060EDE7FD
:1099F0001449029F681C00F012FF029B78605868AF
:109A00000028F1D02A46314601F07AFD029B0199E7
:109A1000186801221A725A68FFF768FE0028E3D01E
:109A2000029B19680493039B059313B15A68013292
:109A30005A6004AA2046FFF75FFD05A8FCF78CF9E1
:109A4000C4E700BF18E20D00014B024A1A607047DC
:109A500018E6032010E10D00002340681A46FEF7C7
:109A600069BF406800220221FEF774BF00224068EF
:109A70001146FEF767BF002240681146FEF772BF2D
:109A8000002340681A461946FEF774BF0023406859
:109A90001A461946FEF776BF40680021FEF79ABFC6
:109AA00040680021FEF79EBF4068002281F001015E
:109AB000FEF770BF40680022FEF77CBF00224068BE
:109AC0001146FEF77FBF002240681146FEF76ABFCD
:109AD0002DE9F043002495B016460D460746FFF7E2
