:02000002D0002C
:1040000000400D00BCEA0D00000006000C00050198
:084010000401BD0B00000000DB
:0440180084CB0D0048
:1040200009480A49884208B505D0094A824202D0A7
:10403000121A06F055FE0748074A0021121A06F028
:1040400077FE014808BD00BFF8D70320D4E70D0074
:10405000B4DA0320B8DA0320F8E7032070B5074E7E
:10406000074C05F0B9FEA41BA4080025A54200D109
:1040700070BD56F8043B98470135F7E75CDE0D004C
:1040800090DE0D0001F058BC08B501F06BFABDE8F8
:10409000084005F063BE04F007BA04F005BA04F066
:1040A0000BBA04F009BA000008B5034A00210C203D
:1040B00004F0B4F8FEE700BF4D7F0D000078B0FAC1
:1040C00080F040097047012303707047002070475B
:1040D000704700207047006970470120704700005A
:1040E000014B01221A707047E9E503200368184765
:1040F000012A03D0022A03D0002070470160FBE7A9
:104100000B680360F8E7012A08BF016000207047D0
:10411000012A08BF01600020704703F0C5BB000002
:1041200008B5044905F0ADFA18B1034B03221A7023
:10413000012008BDD3CB0D00B5E5032070B5C2B09A
:1041400000680A2201A907F027FD431E062B04463A
:104150002BD80128164B174E08D11877164902A8FC
:1041600006F01CFE3470204642B070BD02284FF0AD
:10417000010507D111495D7702A806F00FFE2C4614
:104180003570F0E7032802D10D499D77F4E7042844
:1041900002D10C49DD77EFE705280BBF0A490B492F
:1041A00083F8205083F82150E6E70024DBE700BFC6
:1041B000B8E50320E8E50320D5CB0D00E8CB0D00E2
:1041C000FBCB0D0010CC0D0024CC0D0038CC0D0025
:1041D000436913B183690C301847704710B5034B1E
:1041E0000360044603F04EF8204610BDC4D40D0011
:1041F00010B50446FFF7F2FF2046382105F0FBFE1C
:10420000204610BD10B5034B0360044602F06AFA65
:10421000204610BDECD40D0010B50446FFF7F2FFA8
:104220002046102105F0E7FE204610BD13B5002101
:104230000446084603F012FE0023204601A901931C
:1042400003F024FE019C0CB1012323710021012005
:1042500003F004FE2CB1236820469B689847002396
:10426000237102B010BD10B50446006808B104F017
:1042700023F9204610BD0023042204F04DB810B5E8
:104280008368044613B1032201469847204610BDB7
:1042900037B5134B036004468068C8B100256FF042
:1042A0000043CDE9003502212B462A4603F0F6FDF6
:1042B000A068294603F02AFE237903F0FF0513B115
:1042C00003F0C4FDF8E7A068294603F0D7FDA56018
:1042D00004F10C00FFF7D3FF204603B030BD00BF50
:1042E000B0D40D0010B50446FFF7D2FF20461C21C4
:1042F00005F081FE204610BD0246014804F0E1B9F8
:104300007B860D0007B508220023ADF800204FF48E
:104310007A710122019241436A461846ADF8023093
:1043200004F052F803B05DF804FB07B580680B4653
:10433000002140B1CDE900210A46032103F0AEFD82
:10434000B0FA80F0400903B05DF804FB0EB410B57C
:104350008DB00FAA016852F8044B0392002320206D
:10436000CDE90403CDE900421E2004AA03F06EFF4C
:104370000DB0BDE8104003B0704737B504689DF834
:1043800018508DF800308DF80450E4683C23A047A5
:1043900003B030BD10B50B7892B00C467BB919490B
:1043A00002A806F0FBFC00238DF80030164B1749DD
:1043B0001B78174802AAFFF7E0FF12B010BD0846AD
:1043C00006F069FCC8280ED1124902A806F0E6FCE6
:1043D00005F02FFB104B9861104B01221A70104B07
:1043E00000221A70DFE7204606F055FCC928EBD002
:1043F000204606F050FC0B4A0346402102A804F078
:1044000073F8D0E74BCC0D0005DB032082CC0D0008
:10441000F8E3032053CC0D00B8E50320E8E50320C2
:1044200027DB032065CC0D0037B51C49054605F098
:1044300028F9044600B31A4C012360686370FFF743
:1044400061FF636817484FF47A716FF00042594377
:10445000FFF76BFF03F080FF48B100238DF80030B9
:10446000114B124A1B7812491248FFF786FF124B74
:104470000120187003B030BD1049284605F001F93D
:104480000028F7D0064B5C7003F066FF0028EED0E2
:10449000054B8DF800401B78094AE4E7D3CB0D00AB
:1044A000B8E50320D8E3032005DB03208FCC0D0003
:1044B00021CD0D00F8E30320E8E50320A4CC0D0096
:1044C000A6CC0D0010B5C4B000680A2203A907F0FD
:1044D00063FBB0F5966F22D8124C6060FFF712FFB5
:1044E000636811484FF47A7159436FF00042FFF747
:1044F0001CFF63680D4A4FF4807104A803F0F4FFB9
:1045000000238DF800300A4B0A491B780A4804AA98
:10451000FFF733FF094B0120187044B010BD002095
:10452000FBE700BFB8E50320D8E30320BACC0D00B9
:1045300005DB0320D3CC0D00F8E30320E8E50320DE
:1045400000B589B0039005F0AFF80E4B0399BDEEAE
:10455000C00A04A883ED090A05F04AF800238DF883
:104560000030094B049A1B7808490948FFF705FFFA
:1045700004A804F0CFFF074B0120187009B05DF8C4
:1045800004FB00BFB8E5032005DB0320DECC0D00F3
:10459000F8E30320E8E5032037B51649054605F0A2
:1045A00070F8044688B1144B144A15491548012483
:1045B0005C7200238DF80030134B1B78FFF7DDFE93
:1045C000124B20461C7003B030BD1149284605F03F
:1045D00058F80028F7D0084B0E4A5C720A4B8DF849
:1045E00000401B7806490748FFF7C7FE074B01202C
:1045F0001870E8E7D3CB0D00B8E5032000CD0D001F
:1046000021CD0D00F8E3032005DB0320E8E50320BE
:10461000A4CC0D0011CD0D00F0B5C5B000680A2284
:1046200003A907F0B9FA431E062B04464FF0000514
:1046300039D801281D4B1E4F1E4E10D11E491D7723
:1046400004A806F0ABFB3B781C491D488DF80050D0
:1046500004AAFFF792FE3470204645B0F0BD022850
:104660000ED118495D7704A806F098FB3B781349F2
:1046700013488DF8005004AAFFF77FFE0124EAE7F3
:10468000032802D110499D77EDE7042802D10F4994
:10469000DD77E8E705280BBF0D490E4983F8205068
:1046A00083F82150DFE72C46D6E700BFB8E50320AA
:1046B00005DB0320E8E5032026CD0D003ACD0D00F3
:1046C000F8E3032048CD0D005CCD0D0072CD0D0048
:1046D00087CD0D009CCD0D0000B5C5B000680A2245
:1046E00003A907F059FA042818D80D4B0D4A98620F
:1046F0004FF48071034604A803F0F6FE00238DF802
:104700000030094B09491B78094804AAFFF735FE18
:10471000084B0120187045B05DF804FB0020FAE753
:10472000B8E50320B0CD0D0005DB032021CD0D0041
:10473000F8E30320E8E503201FB50A22006803A977
:1047400007F02AFA012804464FF0000311D18DF832
:104750000030094B094A1B7809490A48FFF70DFE4A
:1047600041F2883003F010FF04F0E8FF204604B067
:1047700010BD1C46FAE700BF05DB0320C2CD0D00CB
:10478000CBD20D00F8E3032007B503F0E5FD48B1F7
:1047900000238DF800300F4B0F4A1B780F4910484B
:1047A000FFF7EBFD0F4A10487823536040F20113E6
:1047B000138000230121537293724FF41673C2E9E0
:1047C00009313023117782F8201003B05DF804EB33
:1047D00002F02BB805DB0320D7CD0D0021CD0D0055
:1047E000F8E30320B8E50320C8E3032007B503F08E
:1047F000B3FD48B100238DF800300C4B0C4A1B78F8
:104800000C490D48FFF7B9FD0C4A0D4B0D490E48F8
:10481000136053609360D36011615361A02118232A
:1048200003B05DF804EB02F000B800BF05DB032025
:10483000EFCD0D0021CD0D00F8E3032050E403205F
:10484000CDCCB54200C02644C8E3032010B5154CBA
:10485000237A012B04D903F07FFD00B301232372D7
:104860006368114AB3F5966F84BF4FF416736360A3
:10487000637A012B84BF01236372A37A012B84BF67
:104880000023A3726369FF2B84BF00236361A36AC3
:10489000052B4FF00103137088BFA36210BD207277
:1048A000DEE700BFB8E50320E8E50320334BD3ED96
:1048B000007AF5EEC07AF1EE10FA06D49FED307A68
:1048C000F4EEC77AF1EE10FA01DD2E4A1A60D3ED4C
:1048D000017AF5EEC07AF1EE10FA06D49FED287A4F
:1048E000F4EEC77AF1EE10FA01DD264A5A60D3EDF4
:1048F000027AF5EEC07AF1EE10FA06D49FED207A36
:10490000F4EEC77AF1EE10FA01DD1E4A9A60D3ED9B
:10491000037AF5EEC07AF1EE10FA06D49FED187A1C
:10492000F4EEC77AF1EE10FA01DD164ADA60D3ED43
:10493000047AF5EEC07AF1EE10FA06D49FED107A03
:10494000F4EEC77AF1EE10FA01DD0E4A1A61D3EDEA
:10495000057AF5EEC07AF1EE10FA06D49FED087AEA
:10496000F4EEC77AF1EE10FA01DD064A5A61034A05
:1049700005481823A02101F058BF00BF50E40320D0
:1049800000803B45ECD1B542C8E3032007B50121C7
:10499000052005F0BAFA0021052005F0B6FA094A0B
:1049A00000231370084A527A42B18DF80030074B49
:1049B000074A1B7807490848FFF7DFFC03B05DF89A
:1049C00004FB00BFE9E50320B8E5032005DB032075
:1049D0000ECE0D0015CE0D00F8E3032030B5114DBD
:1049E000114C12492A7820788DB01A2303FB021249
:1049F000009203FB00130E4A282102A803F074FD65
:104A00002B78237003F0A8FC48B100238DF8003008
:104A1000084B09491B78094802AAFFF7AEFC0DB004
:104A200030BD00BFB5E50320F4E3032008D8032020
:104A30001ECE0D0005DB03202CCE0D00F8E3032075
:104A400030B50D4D0FCD89B001AC0FC495E807000E
:104A50000A4B84E807001B7C094808AA02EB830381
:104A6000102153F81C3C074A03F03EFD064B01227F
:104A70001A7009B030BD00BF54D50D00B8E5032051
:104A800006DB032070D60D00E8E503202DE9F04F8A
:104A90004FEA800909F1070483B004F4FF6402AF10
:104AA000ADEB040D02ADAC464FF0000E4CF804EB3C
:104AB000023800282ADADFF868B0DFF868A00C4670
:104AC00090461E46A9444D4524D0D4E902018DE804
:104AD0000300584694E80C0001F062FA51EC100B08
:104AE00006F042F848F8040B45F8040B05F014FDF5
:104AF000DAE9002305F068FD084B002205F08EFE80
:104B000006F032F8103446F8040BDCE74CF804EBFE
:104B10000138CEE70437BD46BDE8F08F00408F4036
:104B2000C0DA032000D803202DE9F0472DED068BD5
:104B3000B94CBA4B206893F800A0A8B0CDF800A0FB
:104B400005F0EAFCB64B41EC1A0B93F80090CDF857
:104B50001090CDE90201606805F0DEFCB14B41EC3C
:104B6000190B93F80080CDF82080CDE90601A068EC
:104B700005F0D2FCAC4B41EC180B1D780C95CDE93F
:104B80000A01E06805F0C8FCA84B06461B782069BE
:104B900010930F46CDE90E6705F0BEFCA44BCDE99E
:104BA00012011B786069149305F0B6FCA14C2495A2
:104BB000A14DCDF860A00023CDE916018DED1AAB13
:104BC0008DED1E9B8DED228BCDE92667CDF8709083
:104BD000CDF8808084F88830FFF732FFA86A01287A
:104BE0004AD12B7F4BB195484FF4B96101F010FDCC
:104BF00051EC100B05F0B8FF20606B7F4BB1904873
:104C00004FF4B96101F004FD51EC100B05F0ACFF5D
:104C10006060AB7F4BB18B484FF4B96101F0F8FC99
:104C200051EC100B05F0A0FFA060EB7F4BB1864864
:104C30004FF4B96101F0ECFC51EC100B05F094FF5E
:104C4000E06095F820304BB180484FF4B96101F035
:104C5000DFFC51EC100B05F087FF206195F8213047
:104C6000EBB17B484FF4B96101F0D2FC51EC100B71
:104C700005F07AFF606112E0022840F08F8004F1B5
:104C80003C0304F1300269460320FFF7FFFE04F104
:104C9000540304F148020CA90320FFF7F7FED4EDFA
:104CA000007A94ED067A6B4EF5EEC07AF1EE10FACA
:104CB000D8BFF1EE677A37EEC77AF7EE087AB4EE2E
:104CC000E77A0122F1EE10FA327059DA94ED017AA6
:104CD000D4ED076AB5EEC07AF1EE10FAD8BFB1EEA6
:104CE000477A37EE667AB4EEE77AF1EE10FA47DAF1
:104CF00094ED027AD4ED086AB5EEC07AF1EE10FABE
:104D0000D8BFB1EE477A37EE667AB4EEE77AF1EEC5
:104D100010FA35DA94ED037AD4ED096AB5EEC07A6B
:104D2000F1EE10FAD8BFB1EE477A37EE667AB4EEFC
:104D3000E77AF1EE10FA23DA94ED047AD4ED0A6AF8
:104D4000B5EEC07AF1EE10FAD8BFB1EE477A37EE81
:104D5000667AB4EEE77AF1EE10FA11DA94ED057A9C
:104D6000D4ED0B6AB5EEC07AF1EE10FAD8BFB1EE11
:104D7000477A37EE667AB4EEE77AF1EE10FA48DB5E
:104D8000012584F8885004F054FE3570C4F8800082
:104D9000284628B0BDEC068BBDE8F08703282AD151
:104DA00004F13C0304F130026946FFF76FFEEB7F2C
:104DB000F3B125484FF4B96101F02AFC51EC100B16
:104DC00005F0D2FEE06095F82030FBB11F484FF4AB
:104DD000B96101F01DFC51EC100B05F0C5FE20611E
:104DE00095F82130002B7FF43CAF0023636156E738
:104DF0000023E360E7E704287FF451AF04F1700378
:104E000004F1600218A9FFF741FEDCE700232361EB
:104E1000E6E70020BDE700BF50E40320F8D70320F9
:104E2000F9D70320FAD70320FBD70320FCD70320B0
:104E3000FDD7032068E40320B8E5032078DF0320D2
:104E400030E00320E8E00320A0E1032058E2032043
:104E500010E30320F4E403202DE9F84F444CDFF87D
:104E60003CB12068DFF838A1DFF83891DFF83881ED
:104E7000404F414E414D05F04FFB41EC100B9BF86C
:104E800000103F4801F0B8FB606805F045FB41ECBD
:104E9000100B9AF800103B4801F0AEFBA06805F03B
:104EA0003BFB41EC100B99F80010374801F0A4FBD4
:104EB000E06805F031FB41EC100B98F80010334826
:104EC00001F09AFB206905F027FB41EC100B3978C3
:104ED0002F4801F091FB606905F01EFB41EC100BBF
:104EE00031782C4801F088FB206805F015FB41EC77
:104EF000100B9BF80010284601F07EFB606805F05F
:104F00000BFB41EC100B9AF8001005F1B80001F012
:104F100073FBA06805F000FB41EC100B99F8001042
:104F200005F5B87001F068FBE06805F0F5FA41ECB2
:104F3000100B98F8001005F50A7001F05DFB206970
:104F400005F0EAFA41EC100B397805F5387001F0FC
:104F500053FB606905F0E0FA41EC100B317805F580
:104F6000667001F049FB0C4B01221A70BDE8F88F06
:104F700050E40320FCD70320FDD7032028DB0320C7
:104F800078DF032030E00320E8E00320A0E10320E5
:104F900058E2032010E3032026DB0320F8D7032088
:104FA000F9D70320FAD70320FBD7032013B5224CEF
:104FB000206805F0B1FA214ACDE9000120212048FE
:104FC00003F092FA606805F0A7FA1E4ACDE90001E5
:104FD00020211D4803F088FAA06805F09DFA1B4ABD
:104FE000CDE9000120211A4803F07EFAE06805F0BF
:104FF00093FA184ACDE900012021174803F074FA0A
:10500000206905F089FA154ACDE9000120211448EC
:1050100003F06AFA606905F07FFA124ACDE90001EF
:105020002021114803F060FAFFF716FF0F4B012211
:105030001A7002B010BD00BF50E403203DCE0D0039
:1050400035E503204BCE0D0095E5032058CE0D002D
:1050500075E5032068CE0D0015E5032085CE0D0013
:10506000F5E40320A2CE0D0055E5032026DB032046
:1050700000B589B0039004F017FB0D4B039983ED45
:10508000000A04A804F0B4FA00238DF80030094B9C
:10509000049A1B7808490948FFF76FF904A804F03F
:1050A00039FAFFF783FF012009B05DF804FB00BF68
:1050B00050E4032005DB0320BECE0D00F8E30320FF
:1050C00000B589B0039004F0EFFA0D4B039983ED1E
:1050D000010A04A804F08CFA00238DF80030094B73
:1050E000049A1B7808490948FFF747F904A804F017
:1050F00011FAFFF75BFF012009B05DF804FB00BF68
:1051000050E4032005DB0320D9CE0D00F8E3032093
:1051100000B589B0039004F0C7FA0D4B039983EDF5
:10512000020A04A804F064FA00238DF80030094B49
:10513000049A1B7808490948FFF71FF904A804F0EE
:10514000E9F9FFF733FF012009B05DF804FB00BF68
:1051500050E4032005DB0320F4CE0D00F8E3032028
:1051600000B589B0039004F09FFA0D4B039983EDCD
:10517000030A04A804F03CFA00238DF80030094B20
:10518000049A1B7808490948FFF7F7F804A804F0C7
:10519000C1F9FFF70BFF012009B05DF804FB00BF68
:1051A00050E4032005DB032011CF0D00F8E30320BA
:1051B00000B589B0039004F077FA0D4B039983EDA5
:1051C000040A04A804F014FA00238DF80030094BF7
:1051D000049A1B7808490948FFF7CFF804A804F09F
:1051E00099F9FFF7E3FE012009B05DF804FB00BF69
:1051F00050E4032005DB03202DCF0D00F8E303204E
:1052000000B589B0039004F04FFA0D4B039983ED7C
:10521000050A04A804F0ECF900238DF80030094BCE
:10522000049A1B7808490948FFF7A7F804A804F076
:1052300071F9FFF7BBFE012009B05DF804FB00BF68
:1052400050E4032005DB032049CF0D00F8E30320E1
:1052500038B5046805467CB16368013B63605BB99F
:10526000236820469B689847A368013BA3601BB94D
:1052700023682046DB689847284638BD1FB54B6831
:1052800001938B680293044613B15868013058604B
:10529000CB68039301A9204602F04BFC02A8FFF75C
:1052A000D7FF204604B010BD10B58AB00A460146AB
:1052B00003A8FFF7E3FF039B0193049B0599029367
:1052C00013B15A6801325A6001AA06A803F042FFDE
:1052D00002A8FFF7BDFF07A8089CFFF7B9FF04A8C5
:1052E000FFF7B6FF20460AB010BD00002DE9F043DD
:1052F0008A4B8B4C9B6A012BADF5577D40F0A28009
:1053000012A803F031F802F005FB86494068FFF768
:10531000CBFF064602F0FEFA83494068FFF7C4FF60
:10532000074602F0F7FA81494068FFF7BDFF804663
:1053300002F0F0FA7E494068FFF7B6FF814600F0C0
:105340005DFF4568002D7BD00C35606905F0E4F801
:10535000CDE91001206905F0DFF8CDE90E01E06824
:1053600005F0DAF8CDE90C01A06805F0D5F8CDE933
:105370000A01606805F0D0F8CDE90801206805F061
:10538000CBF8129B6B4A0097CDE90601CDE9035398
:105390004FF400713346CDE9018956A803F0A4F813
:1053A000606905F0B9F8CDE90A01206905F0B4F8A3
:1053B000CDE90801E06805F0AFF8CDE90601A06885
:1053C00005F0AAF8CDE90401606805F0A5F8CDE97B
:1053D0000201206805F0A0F8574ACDE900014FF41A
:1053E000807116A803F080F812A804F093F8534DCA
:1053F0005349544800268DF800602B7816AAFEF712
:10540000BCFF8DF800602B784F494E4856AAFEF736
:10541000B4FF2368A3616368E361A3682362E36860
:1054200063622369A3626369E362484B01221A70D5
:1054300002F094FD464B18600DF5577DBDE8F083F2
:10544000444D82E7022B24D1206D05F065F8CDE9AB
:105450000A01E06C05F060F8CDE90801A06C05F0E8
:105460005BF8CDE90601A06B05F056F8CDE9040123
:10547000606B05F051F8CDE90201206B05F04CF8A6
:10548000CDE90001344A4FF4807116A803F02CF8DE
:10549000ADE7032B1FD1606905F03EF8CDE90A01A5
:1054A000206905F039F8CDE90801E06805F034F825
:1054B000CDE90601A06B05F02FF8CDE90401606B82
:1054C00005F02AF8CDE90201206B05F025F8234A02
:1054D000CDE90001D7E7042B89D1606905F01CF8FC
:1054E000CDE90A01206905F017F8CDE90801E06E61
:1054F00005F012F8CDE90601A06E05F00DF8CDE932
:105500000401606E05F008F8CDE90201206E05F097
:1055100003F8134ACDE90001B5E700BFB8E5032061
:1055200068E4032064CF0D006ACF0D006ECF0D003C
:1055300073CF0D007BCF0D0077D00D0005DB03206E
:1055400083D20D00F8E3032098D20D0027DB03205F
:10555000ECE50320ACDB0D00F9D00D007DD10D0092
:1055600000D20D0037B5794C2378013B052B17D8B5
:10557000DFE803F0C60364704A93754B5B7A2BB186
:10558000744B1B78022B01D0FFF728FA04F051FA74
:105590000A2390FBF3F202FB13030BB905232370DC
:1055A00000F02CFE00F006FE02F0B4F902F0CDF996
:1055B000694801F017FD694B1B780BB1FFF7E6F95D
:1055C000674C23783BB13023614A6648012101F0E2
:1055D0002CF900232370644C237843B18C23634A55
:1055E00060484FF4007101F020F900232370604CF3
:1055F00023783BB118235F4A5A48A02101F015F9DE
:105600000023237003B030BD514D6A7A2AB1514B4B
:105610001B78052B01D0FFF7E1F9FFF785FA08B1F8
:105620000423BCE704F005FA6B6A90FBF3F202FB7B
:1056300013030BB90323B2E70223B0E7444B5B7AB1
:105640002BB1444B1B78032B01D0FFF7C7F9FFF7B1
:105650006BFAE5E73E4B5B7A2BB13E4B1B78042B94
:1056600001D0FFF7BBF902F077FE68B104F0F2F960
:105670000C2805D102F070FE10B1002002F08CFE63
:10568000FFF734FE06238AE702F05EFE0223237052
:1056900002F064FC384B186082E72D4B5B7A2BB12B
:1056A0002C4B1B78062B01D0FFF798F9334B1B7856
:1056B00043B904F0BEF90A2390FBF3F202FB130393
:1056C000002BB9D002F04AFC2D4B1B68C01A4AF6D9
:1056D000C87398427FF664AF02F040FC264D294A19
:1056E000286000238DF80030274B28491B78284874
:1056F000FEF743FE0123237002F030FC28604FE7E1
:10570000144B1B78012B01D0FFF768F902F026FC3F
:10571000194B1B6803F5922303F578738342BFF49A
:105720003FAF02F019FE48B100238DF80030164B50
:10573000184A1B7818491648FEF71FFE4FF4FA6006
:1057400002F022FF03F0FAFF2AE700BFB5E50320CD
:10575000B8E50320F4E3032034E40320E9E5032063
:10576000E8E50320C8E30320F4E4032068E4032011
:1057700026DB032050E4032030E4032027DB032052
:10578000ECE50320ACDB0D0005DB0320A4D20D000B
:10579000F8E30320BDD20D00D1D20D0000B589B0D1
:1057A000096804A803F001FF094B049A1B78094912
:1057B0008DF8003002A83C2303F076F803A8FFF729
:1057C00047FD04A803F0A6FE09B05DF804FB00BF86
:1057D00005DB0320D7D20D001FB5094B094A1B7802
:1057E0001278094913438DF8003000223C2302A8A7
:1057F00003F05AF803A8FFF72BFD05B05DF804FB92
:1058000004DB032005DB0320E3D20D0010B588B0D4
:1058100002F080F8164A416804A8FFF72FFD04A89B
:1058200003F090FB044605A8FFF712FDDCB102F07F
:1058300071F80F494068FFF737FD014604A803F0EF
:10584000B4FE0C4B049A1B780B498DF8003002A86B
:105850003C2303F029F803A8FFF7FAFC04A803F09F
:1058600059FE08B010BD05490548FEF76FFDF8E781
:1058700064CF0D0005DB0320E5D20D00F1D20D0051
:1058800014E6032008B504490448FEF75FFDBDE8AF
:105890000840FFF7BBBF00BFFFD20D0014E6032096
:1058A00010B5036888B05B6804469847019005F01E
:1058B0009AFA0199024605A803F0B0FCDDE9051249
:1058C0000023CDE90533636803936160A368A26098
:1058D00004A80493FFF7BCFC079BE36006A8FFF74E
:1058E000B7FC08B010BD000010B5044B044640F8EA
:1058F000043B0430FFF7ACFC204610BD08D50D007A
:1059000010B50446FFF7F0FF2046182104F073FBA2
:10591000204610BD13B50B460246D0E900016C4687
:1059200084E8030093E8030082E8030094E803009E
:1059300083E8030002B010BD2DE9F04700219AB0C2
:10594000082004F0D1FA0121052004F0CDFAFFF778
:105950001DF80023009301224FF0FF33AF490820C8
:1059600003F0E2F9AE4B0AAA03F1100517461868D6
:105970005968144603C40833AB422246F7D119884C
:105980009B78A3702D2221800DF13B000021A54CB6
:10599000002605F0CDF902A8267002F0E5FC02A968
:1059A00006A803F025FEA04906A803F055FECDE9A0
:1059B0000066334632469D49006802F0E5FC06A8C1
:1059C00003F0A8FD02A803F0A5FD99499948FEF748
:1059D00052FC99499948FEF74EFC99499948FEF7BF
:1059E0004AFC334698499948022202F095FC334616
:1059F00001229749974802F08FFC97499748FEF794
:105A00003AFC97499748FEF736FC97499748FEF7C6
:105A100032FC97499748FEF72EFC97499748FEF7C6
:105A20002AFC97499748FEF726FC33469649974843
:105A3000022202F071FC334602229549954802F099
:105A40006BFC95499548FEF757FC95499548FEF73C
:105A500053FC95499548FEF74FFC95497D48FEF764
:105A60004BFC94499448FEF747FC94499448FEF750
:105A700043FC94499448FEF73FFC94499448FEF750
:105A80003BFC94499448FEF737FC94499448FEF750
:105A900033FC94499448FEF72FFC94499448FEF750
:105AA0002BFC94499448FEF727FC94499448FEF750
:105AB00023FC94499448FEF71FFC944801F08CF9AC
:105AC0003146924801F0C5FA01F024FF904B05934E
:105AD0000546904B0493022202A906A80896FEF7F9
:105AE00012FB059B099305F10C01049B089306A882
:105AF000FFF710FF089B6A6908926B61099BAA690E
:105B0000099206A8AB61FEF7BAFB834BEB612C2030
:105B1000FEF7C1FA064610B1804901F049FFAE60B8
:105B20001820FEF7B8FA064630B17D494FF480726E
:105B300001F0AEFE7B4B336028466E6002F068F8E1
:105B400002A8FEF79CFB00F059FB774B099306A9CE
:105B5000764B089300F07DFB06A8FEF790FB00F063
:105B60004DFB734900F0E0FB724800F0D1FD0123CA
:105B7000704806AA002100F00DFE9DF81830162B83
:105B800000F0E6806B4800F0CDFD6B4A69480423C5
:105B9000002100F04AFE0123664806AA002100F019
:105BA000F9FD9DF81830162B29D001232370634D81
:105BB000FEF77CFEFEF74AFEFFF74EF96B78002BEE
:105BC00000F0EB80002002F0D9F94FF0000A064601
:105BD000002002F0D3F9B0EB060861EB0A090023BC
:105BE00047F22F524B4508BF4245C0F0C88002F033
:105BF000B3FB002840F0C38002F09EFBE8E70023DF
:105C00008DF800304E4B4F4A1B784F494F48FEF7F6
:105C1000B4FBFEF7B9FDFEF7E9FDC8E7E1400D0072
:105C200070D50D00B5E503200CD30D0095430D0094
:105C3000B0D50D0031D30D0016DB032039D30D0094
:105C400006DB032041D30D00BCE5032050D30D003B
:105C5000B9E5032096CC0D0035E503209ED30D0059
:105C600095E50320AFD30D0075E50320C0D30D00EB
:105C700015E50320D3D30D00F5E40320E5D30D0093
:105C800055E50320F7D30D00DCE503205FD30D00BD
:105C9000E0E5032072D30D0021410D0081D30D00FA
:105CA00099450D008DD30D00C5440D00D3CC0D00DA
:105CB00029440D0071500D009AD30D00C1500D0004
:105CC000ABD30D0011510D00BCD30D0061510D007F
:105CD000CFD30D00B1510D00E1D30D0001520D00E5
:105CE000F3D30D003D410D0004D40D0019460D0005
:105CF00012D40D00D9460D0021D40D0041450D00F0
:105D000030D40D0039470D004CD40D0034E403208D
:105D100085580D0007410D00805101005AD40D0037
:105D200000F4032030D50D009D570D0011410D00EA
:105D300014F50320C8E30320B8D50D00B8E503200F
:105D400005DB032071D40D007CD40D00F8E30320A3
:105D500000238DF80030204B204A1B782049214831
:105D6000FEF70BFB204A21481823A02100F012FD6A
:105D70001F4A1E483023012100F00CFD17E702F0F6
:105D8000EBFA6868FEF7BEFA6B681A484FF47A714E
:105D90006FF000425943FEF7C8FAFFF707F9FEF724
:105DA000C3FE6B7A4BB100238DF800300A4B1249C9
:105DB0001B780C483A46FEF7E0FA02F0CDFA10B92B
:105DC00002F0BAFAF9E702F0C7FA23780BB9022316
:105DD00023701AB0BDE8F08705DB032071D40D00F5
:105DE0008DD40D00F8E3032050E40320C8E3032022
:105DF000B8E50320D8E303209FD40D00F0B5504B45
:105E0000504D514F01261E70504B022287B01A7020
:105E100004F014F800231A4642F6D65104F016F89E
:105E200004F00CF800231A460B21002404F016F8A5
:105E3000474BAB602C60AC80AC71304602F016FA78
:105E40003A464449284604F0D1F82146304602F04B
:105E50001DFA3146042002F061F804F09FF83E4D2F
:105E6000014623464FF40052284600F047FC3B4BC6
:105E70002B603A463A49284604F0B8F804F08EF808
:105E8000384D0146284600F0AFFE2846364D3749CA
:105E90003A4604F0ABF836494FF40062284601F068
:105EA00019FB344B2B603A463349284604F09EF8E0
:105EB000324B0293324B334D0593334B0493334BA8
:105EC0002B602C71AC606C6105F10C0102A8FFF72E
:105ED00021FD6A69049B6B610492059BAA69059286
:105EE000AB612B4A2B464FF47A71CDE9004405F1A2
:105EF000080001F0BBFF02A8FEF7C1F93A462549A8
:105F0000284604F073F8244D244BAC639E6221466E
:105F1000C5E90C44C5E90F44C5E91244C5E9154477
:105F20006C642C65EC65102205F1600004F000FF44
:105F30001022214605F1700004F0FAFE07B0F0BD12
:105F400005DB0320F8DA0320B8DA032004DB0320A2
:105F50000000FFFF67420D00C8E30320ECD40D00F2
:105F600005420D0034E40320F8E3032073690D00BB
:105F700040F50320C4D40D00DD410D00D9570D00BC
:105F8000ED400D00D8E30320F1400D00B0D40D002A
:105F90002D420D0091420D0068E40320B8E5032076
:105FA00082B02DE9F84F0AA981E80C00344BDFF8E4
:105FB000D4B00022C0E90423044640F27E654FF0CD
:105FC000000ABDF8280003F0B9FFD4E90489206075
:105FD00004F090FA42464B4606460F4604F03CF960
:105FE00052465B4604F0F0FA42464B4604F036F95E
:105FF00002460B46C4E904233046394604F02CF926
:1060000002460B46C4E9022304F0DEFA02460B46C0
:10601000C4E90623D4E9082304F020F9013D06462B
:106020000F46C4E90867CCD1DDE90C0110A3D3E920
:10603000002304F0C9FA10A3D3E90023804689465F
:106040003046394604F0EAFB41EC100B03F0DCFF6C
:1060500000220023C4E9082351EC100B42464B46B2
:1060600004F0B2FABDE8F84F41EC100B02B07047F3
:106070006666666666664A3F0000000000F8994062
:106080000000A0400000303F7047012A034602D1C3
:10609000016000207047022A04BFD1E90001C3E972
:1060A0000001F6E713B504461046019204F09BFE8A
:1060B0006368019902461E2A03F10C0006D804F019
:1060C0006DFE012384F8353002B010BD1F2204F0AC
:1060D000A4FE6368002283F82B20F2E710B4426824
:1060E0000346541001EB6200D20748BF0A591B68EF
:1060F0005DF8044B48BFD3581847022A38B5044608
:1061000007D0032A11D0012A01D10B682360002097
:1061100038BD0C200D68FDF7BEFF03460028F5D002
:1061200095E8070083E80700F0E700680028EED054
:106130000C2103F060FFEAE770B4036809685C684B
:106140009D681B681268661005EB6400E40744BF95
:10615000AC59E35870BC184710B5064B044640F8DC
:10616000203BFEF78CF804F11000FEF788F820467B
:1061700010BD00BFDCD50D0010B50446FFF7ECFFE5
:106180002046382103F037FF204610BD10B5034BE1
:1061900003600446FFF7E0FF204610BDF0D50D0078
:1061A00010B50446FFF7F2FF2046382103F023FF25
:1061B000204610BD836A014613B1C36A20301847D8
:1061C0007047000030B5074A026000240022002515
:1061D000C0E902454260826182620263828680F881
:1061E000362030BDDCD50D0008B50346FFF7EAFFC9
:1061F000014A1A60184608BDF0D50D0010B5064CCE
:1062000023683BB93820FDF746FF014608B1FFF788
:10621000EBFF2160206810BDF4E5032038B50023B2
:1062200083608B6804460D462BB102229847EB68C9
:10623000E360AB68A360204638BD07B58268019172
:106240000AB903F0DEFEC36801A9984703B05DF800
:1062500004FB7FB5002302938B6804460D4600F1D2
:10626000100633B1022268469847EB680393AB6887
:10627000029331466846FFF74DFB029BA269A3617A
:10628000039B02926846E269E3610392FDF7F7FF20
:10629000204604B070BD00001FB5D1E900230021E5
:1062A000044602910AB9D90705D5CDE900230B4B65
:1062B00003930B4B029321466846FFF72BFB029B8F
:1062C000A268A360039B02926846E268E3600392BF
:1062D000FDF7D5FF204604B010BD00BFDD600D0006
:1062E0008B600D0073B5044640680D4D0268AA42EC
:1062F00002D103792C2B08D02C263246002104F041
:1063000017FD63681D6063681E71064B0093694644
:10631000002304F120000193FFF7BEFF02B070BD1F
:10632000F2A2877731630D004160FFF7DBBF000009
:1063300037B541680B7B044600F1200593B18369B2
:106340001BB10C311030FFF778FF0A4B0093694600
:10635000002328460193FFF79FFF01F0FFFD206314
:1063600003B030BD044A69462846CDE90023FFF753
:1063700093FFF5E7CD640D0055650D0013B5044698
:1063800001F0EAFF70B103F037FB58B1064B009300
:106390006946002304F120000193FFF77DFF01F01F
:1063A000DDFD206302B010BDAD630D0030B50546C4
:1063B00085B001F0D3FD2B6BC01AB0F5FA6F29D36D
:1063C000154B16491B788DF80030002285F83520D2
:1063D0003C2302A802F068FA039C7CB16368013B8D
:1063E00063605BB9236820469B689847A368013BBC
:1063F000A3601BB923682046DB689847084B0293CB
:1064000002A9002305F120000393FFF745FF01F0E7
:10641000A5FD286305B030BDF0E50320BCD50D0017
:1064200025640D0073B590F8355004461DB34668D9
:10643000337B00F12005DBB103F0FBFAB060236889
:1064400020469B689847A3692BB1616804F110004E
:106450000C31FFF7F2FE0F4B0093002301936946C6
:106460002846FFF719FF01F079FD206302B070BDE7
:10647000094A0092F2E701F071FD236BC01A43F65E
:1064800097239842F2D9044B6946CDE9003504F1CF
:106490002000E6E7CD640D009D640D0013B50446B1
:1064A00001F05CFD236BC01A064B984208D9064BDD
:1064B00000936946002304F120000193FFF7ECFEEE
:1064C00002B010BDDF9304007D630D00F7B50446F4
:1064D00001F044FD236BC01A42F20F7398421ED99B
:1064E00001F03CFD94F8365020635DB1184A00235A
:1064F000CDE9002384F83630694604F12000FFF727
:10650000CBFE0CE0D4E9022313430AD1A36A33B1D2
:1065100004F12001032208469847C4E90A5503B054
:10652000F0BD03F069FA0028F9D06368D4E9026786
:106530009B68F61847EBE37703F07BFAC1178642B6
:1065400077EB0103EBDA024BCDE90035D4E700BF6E
:1065500055650D0030B590F834508BB004466DBBD6
:106560000C200495FDF797FD18B11A4B8460C0E923
:106570000035194B0290059302A9184B049306A805
:10658000FFF74CFE089B83B11020FDF784FD054604
:1065900058B106A9FFF742FE0023CDE900331049A8
:1065A000104801232A4601F0EFFE06A8FDF767FE1A
:1065B00002A8FDF764FE012384F834300A4B0693E9
:1065C00006A9002304F120000793FFF765FE0BB036
:1065D00030BD00BFA5600D0039610D00FB600D00EE
:1065E000A7860D00BCD50D007D630D00014B002278
:1065F0001A707047F0E50320034BC162002280ED62
:106600000E0BC0E91C2370470000A04000000000F2
:106610002DE9F74FDFF8C8B00191044600254FF08F
:10662000000A019B9D422FD0A08D03F087FCD4E986
:106630001C89E06403F05EFF42464B4606460F4667
:1066400003F00AFE52465B4603F0BEFF42464B464D
:1066500003F004FE02460B46C4E91C2330463946CB
:1066600003F0FAFD02460B46C4E9182303F0ACFF21
:1066700002460B46C4E92423D4E9260103F0EEFDCB
:106680000135C4E92601CCE713A3D3E90023D4E9FB
:106690000E0103F099FF064628460F4603F01AFF45
:1066A00002460B46D4E9260104F0B8F841EC100B81
:1066B00003F0AAFC32463B4651EC100B03F084FF7A
:1066C00041EC100B00220023C4E90801C4E9262391
:1066D00003B0BDE8F08F00BF6666666666664A3F37
:1066E0000000503F704710B51021044603F083FCB2
:1066F000204610BD0368C9B29B68184730B5034DEA
:10670000C0E90223C0E9005130BD00BF30D60D0002
:10671000406802F0BBBA10B50446006802F0F9FA0E
:10672000204610BD2DE9F0418AB004464068019032
:1067300002F0E6FA1E22002102A8A76804F0F8FA87
:106740000026EFB123681E2FB84628BF4FF01E0861
:10675000DD6802AA434631462046A847054658B997
:106760000A480B493246FDF7F1FD01A8FFF7D3FFB8
:1067700028460AB0BDE8F081A7EB08074644E0E7E9
:1067800001A8FFF7C8FF0125F2E700BF14E60320C8
:10679000FCD50D002DE9F7430446406801900D46F5
:1067A00016461F4602F0ACFAA7B1E168606841F0F6
:1067B000500102F09EFA290A6068FFF79BFF294604
:1067C0006068FFF797FF6068002102F095FA48B112
:1067D000002400E0012401A8FFF79DFF204603B03C
:1067E000BDE8F083202F217B6068B84628BF4FF0BA
:1067F00020080123424641F0500102F064FA03F000
:10680000CDFB03681B6998474045E1DB06EB0809AF
:1068100003F0C4FB03685B69984706F8010B4E451B
:10682000F6D14544A7EB0807BEE72DE9F74F04462C
:10683000406801900E4690461D4602F061FA4FF006
:106840000109B9F1000F2AD04DB3E168606841F049
:10685000500102F04EFA310A6068FFF74BFF6068A2
:106860003146FFF747FFA5F11E0A4746A6EB080B86
:10687000606817F8011B0368013D9B689847554500
:106880000BEB0706B84601D0002DF1D1606801215D
:1068900002F032FA0028D7D04FF00009D1E701A862
:1068A000FFF739FF484603B0BDE8F08F2DE9F0430C
:1068B0008BB00E4615468046406801901C4602F09B
:1068C0001FFAAE4229D2264425448CB11E2C2746FD
:1068D000D8F8003028BF1E27F61BD3F8089002AA6C
:1068E0003B4631464046ED1BC84748B9002400E00E
:1068F000012401A8FFF70FFF20460BB0BDE8F0838D
:10690000D8F8003002AAD3F80C9029463B464046FE
:10691000C8470028EAD0E41BD7E7E9D9002CE7D024
:10692000D8F800301E2C274628BF1E27D3F8089021
:1069300002AA3B4631464046C8470028D6D0D8F880
:10694000003002AAD3F80C9029463B464046C8477F
:106950000028CBD03E443D44E41BDFE74020704795
:106960000020704780207047FF20704770477047B5
:106970007047704710B51421044603F03CFB2046D5
:1069800010BD10B50821044603F035FB204610BDAC
:1069900010B50821044603F02EFB204610BD10B5AB
:1069A0001C21044603F027FB204610BD2DE9FF41C2
:1069B0000368DB680446984710220146684604F0E5
:1069C000B7F9236820469B68984700250746284664
:1069D000BD420ED27E1B2368102E28BF1026D3F88E
:1069E00018806A46334629462046C04708B13544D8
:1069F000EEE704B0BDE8F0814FF48073438140F2CC
:106A00000113C360002303827047000008B5064BE2
:106A10000360064B436040F2047303810023437418
:106A2000FFF7EAFF08BD00BF10D70D000001020309
:106A300003090A2200F00F0002FB0300704708B5AB
:106A4000807AFFF7F5FF00F5FA6008BDC07A00F024
:106A50001F00FFF7EDBF007B00F03F00FFF7E8BF2E
:106A600008B5817B4A060DD501F01F00FFF7E0FF56
:106A70008B0603D50C2800D00C3008BD0C2808BFAD
:106A80000020FAE7BDE8084001F03F00FFF7D0BF63
:106A9000C07B00F07F00FFF7CBBF007C00F07F00E1
:106AA000FFF7C6BF10B58AB024220446002101A812
:106AB00004F03EF92046FFF7C2FFA0F26C7006908A
:106AC0002046FFF7C3FF013805902046FFF7C3FFBC
:106AD00004902046FFF7C4FF03902046FFF7D8FF3D
:106AE00002902046FFF7D9FF019001A801F044FD74
:106AF0000AB010BD0A2190FBF1F292FBF1F301FB09
:106B000013231B01DBB201FB12001843C0B2704714
:106B1000642310B5044691FBF3F000FB1310FFF75C
:106B2000E9FFA07210BD10B504460846FFF7E2FF6A
:106B3000E07210BD10B504460846FFF7DBFF237B6B
:106B400023F03F031843207310BD10B50446481CC2
:106B5000FFF7D0FF637B23F007031843607310BD7A
:106B600010B504460846FFF7C5FFA07310BD10B569
:106B700004460846FFF7BEFFE07310BD10B504469B
:106B80000846FFF7B7FF237C23F07F0318432074E8
:106B900010BD37B504466846CDE9002304F08EF8F1
:106BA000054641692046FFF7B3FF296920460131B8
:106BB000FFF7B9FFE9682046FFF7BCFFA969204647
:106BC000FFF7C3FFA9682046FFF7CAFF69682046A0
:106BD000FFF7CDFF29683B29A8BF3B212046FFF7DF
:106BE000CDFF03B030BD0000054A0061C0E90021BF
:106BF000044A8260044AC260044A8061426170476C
:106C000044D70D0000000103ECD60D0020D70D0085
:106C10002DE9F84F04460F469046994600260A9BF8
:106C20009E4231D26068394602F05FF808EB0601F7
:106C30006068FFF75FFD6068002102F05DF80546BF
:106C4000D0B90A9B60689A1B202A4FF0010328BF25
:106C50002022394602F037F809EB060B05460BEB0C
:106C6000000ADA4506D0606803685B6998470BF84C
:106C7000010BF6E72E44D2E7024604490448FDF72B
:106C800065FB2846BDE8F88F0025FAE744D60D00DD
:106C9000F8E503202DE9F34101EB03081E460368E4
:106CA0009B6805460C461746984780450DD820340A
:106CB000686800963B46E2B26F21FFF7A9FFB0FA81
:106CC00080F0400902B0BDE8F0810020FAE72DE92C
:106CD000F34101EB03081E4603689B6804460D461A
:106CE0001746984780450CD8606800963B46EAB244
:106CF0005721FFF78DFFB0FA80F0400902B0BDE8E0
:106D0000F0810020FAE77FB51E1E0CBF0723062383
:106D10000093144602AB0A466F21FFF779FF054640
:106D2000A8B99DF8083023749DF80930E3739DF8E5
:106D30000A30A3739DF80B3063739DF80C302373F6
:106D40009DF80D30E3722EB99DF80E30A3722846DF
:106D500004B070BD02F08AFEFFF7CCFEA072F6E729
:106D60001FB501230A4600936F2103ABFFF750FFC5
:106D700020B99DF80C0005B05DF804FB0020FAE78F
:106D800008B50321FFF7ECFFC0F3401008BD38B58C
:106D900000230C460A4619460546FFF7B4FF30B9F2
:106DA000A37A23B12846BDE83840FFF7E9BF0020A9
:106DB00038BD7FB5024601A8FFF728FE01A910469D
:106DC000FFF7E5FF28B101A8FFF76CFE07B05DF8FB
:106DD00004FB00200146F9E7D0B5044686B04068C0
:106DE00001F054FF02F008FEE8B9E37A9B071AD5D8
:106DF0002046FFF7DEFF06460F4656EA070312D08D
:106E000002F001FD0A4B0B491B68009332463B46DA
:106E100002A802F0AFFD0848029A0849FDF796FA69
:106E200002A802F077FB0123237206B0D0BD00BF99
:106E3000D8D8032040E60320F8E503205ED60D00F5
:106E40002DE9F84F0646884691469A4600250A9B4A
:106E50009D4229D27068414601F047FF706809EBF6
:106E60000501FFF747FC0A9B5F1B1F2F28BF1F2749
:106E70000AEB050407EB040B706814F8011B0268A9
:106E800092689047A345F7D17068012101F034FF63
:106E9000044638B1024605490548FDF757FA204631
:106EA000BDE8F88F3D44D2E70024F8E773D60D0023
:106EB000F8E503202DE9F34101EB03081E460368C2
:106EC0009B6805460C461746984780450DD82034E8
:106ED000686800963B46E2B26F21FFF7B1FFB0FA57
:106EE00080F0400902B0BDE8F0810020FAE71FB54C
:106EF000137C8DF80830D37B8DF80930937B8DF8A7
:106F00000A30537B8DF80B30137B8DF80C30D37A1D
:106F10008DF80D30937A8DF80E30072300930A46D2
:106F200002AB6F21FFF78CFF05B05DF804FB10B5D5
:106F300088B0044603A80193FFF768FD019B03A8EE
:106F4000FFF727FE9DF81C30A27A63F07F038DF8CF
:106F50001C309DF819306AB143F0080303AA0021E0
:106F600020468DF81930FFF7C2FFB0FA80F04009D3
:106F700008B010BD03F0F703F0E70000F0B587B0EC
:106F8000054602F039FD0446E8B102F052FDC7178C
:106F9000024606463B462846FFF7C9FF0C4B0D4903
:106FA0001B68009332463B46044602A802F0E2FC0E
:106FB0000948029A0949FDF7C9F902A802F0AAFA9C
:106FC000204607B0F0BD06490348FDF7BFF9F7E7D3
:106FD000D8D8032040E60320F8E503208ED60D0024
:106FE000A4D60D0037B5457A04469DB902F004FDDC
:106FF00080B10022002369462846CDE9002301F034
:10700000DBF938B1E37ADB0702D52046FFF7B6FF9C
:107010000123637203B030BD1FB501238DF80C202E
:1070200000930A4603AB6F21FFF70AFF05B05DF836
:1070300004FBF8B504460D4617461E46FFF790FEC2
:1070400000EA0702324329462046BDE8F840FFF730
:10705000E3BF012908B50CD800294FF0000314BF85
:10706000DF22EF220721FFF7E4FFB0FA80F04009AA
:1070700008BD0020FCE738B504463225606857217A
:1070800001F033FE6068012101F036FE08B1013DD8
:10709000F4D138BD2DE9F04104460F46164602EB07
:1070A0000308B04520D06068572101F01EFE394624
:1070B0006068FFF71FFB606816F8011B03689B6898
:1070C00098476068012101F017FE0137054638B185
:1070D000024606490648FDF739F92846BDE8F08121
:1070E0002046FFF7C8FFDCE70025F6E7B9D60D001C
:1070F000F8E50320F7B5CF181E46036801929B6898
:1071000004460D46984787420AD8019A606833467C
:10711000E9B2FFF7BFFFB0FA80F0400903B0F0BD5D
:107120000020FBE7014B024A1A607047F8E5032094
:10713000DAD60D00012A034602D101600020704713
:10714000022A04BFD1E90001C3E90001F6E710B546
:10715000012303748368044643B1C0689847012340
:1071600063740020BDE8104000F0C8BE006800282D
:10717000F5D083680BB902F044FFC368EEE710B4A2
:1071800042680346541001EB6200D20748BF0A5917
:107190001B685DF8044B48BFD35818470123F7B567
:1071A00080F829300646083000F080FE0420FCF705
:1071B00072FF054698B31B49142002F01EFF30B140
:1071C0000023C0E90033C0E902330374437428602C
:1071D000A0B1154B1549C0E902364FF40063CDE963
:1071E00000030222124B043000F028FE30B92B6855
:1071F0001B7CA3B9012000F0A1FEF8E72C68002356
:107200002B6064B1276837B13846FDF738F8102194
:10721000384602F0F0FE1421204602F0ECFE7560C4
:1072200003B0F0BD84DB0D003B740D004CD70D00A6
:107230004F710D0047F23051084AC16008490260A1
:107240000022C0E904120749C16107494260C0E950
:1072500008228161028580F82A20704710D80D002D
:10726000A5750D007F710D0035710D0010B5044B33
:10727000044640F8103BFDF702F8204610BD00BF61
:1072800010D80D0010B5034B03600446FFF7EEFF66
:10729000204610BD38D80D0010B50446FFF7F2FFA8
:1072A0002046382102F0A7FE204610BD806800F07D
:1072B00005BE806800F00ABE10B504460068FFF7FE
:1072C000F8FF204610BD13B504460190FFF7EEFF0E
:1072D000E36ADC88A4B20CB103F1080401A8FFF74B
:1072E000EBFF204602B010BD13B504460190FFF736
:1072F000DDFF94F8283043B9E26A0124D38001A865
:10730000FFF7DAFF204602B010BD0024F7E713B5FF
:1073100004460190FFF7CAFFE36A01A8DC88FFF783
:10732000CBFF204602B010BD2DE9F047994686B04C
:1073300090F829309DF838A09DF83C8004460F460F
:10734000164613B903689B689847314B3846002EA0
:1073500008BF1E4603F047FD0546304603F043FDD7
:10736000284400F10A05AB071CBF25F003050435CE
:107370003346CDE90285CDE9009A264926483A46AA
:10738000FCF7E4FF238E083BAB4212D200242046D8
:1073900006B0BDE8F087CB88012B36D005A8FFF7F3
:1073A0008BFF236894F828109B6920469847002893
:1073B000ECD020460594FFF779FFE16A228E636BDB
:1073C0000A44D21AAA42E6D348EA0A0883F804809B
:1073D000C3F80090636B03F108083946404603F098
:1073E000DDFC404603F0FFFC01303146404403F031
:1073F000D5FC636BE26A1D446563D3880133D38097
:10740000012405A8FFF758FFC1E70024F9E700BFF2
:10741000ACDB0D005ED70D00FCE5032008B504468B
:1074200000F11005A3690BB902F0EBFDE3692146F9
:107430002846984700F00AFDF4E708B5FFF7EEFF8D
:1074400068B501F108050646284603F0CCFC01307A
:107450000544284603F0C7FCF36A01302844C31AE8
:1074600013F003031CBFC3F10403C01868BDF7B5D4
:1074700004460E460190FFF719FFE76AFB8807F103
:107480000805E6B1012B22D929462046FFF7D8FF8F
:10749000054629462046FFF7D3FF228E3A44121AAA
:1074A0000146A0EB050602D0284603F027FC636BDB
:1074B0009B1B6363FB88013BFB80012601E0002BE3
:1074C000E7D101A8FFF7F8FE304603B0F0BD002673
:1074D000F7E700002DE9F0470D4604462F46164613
:1074E000FFF7A8FE154B57F8082B2360144BE562F5
:1074F0009A422686984617D1AB889BB2B34213D1E5
:1075000005EB060A67634FF00009EB881FFA89F262
:107510009BB29A420ED2616B2046FFF791FF504515
:10752000606309F10109F0D90023C5F800806763A1
:10753000AE80EB802046BDE8F08700BF38D80D0054
:1075400061AB9CD110B5D1E9002386B0002104467F
:1075500004910AB9D90705D5CDE902230F4B05934C
:107560000F4B049302AB93E803006A4682E80300E2
:1075700094E8030083E8030092E80300049A84E897
:107580000300A168A260059A04911846E168E260D0
:107590000591FCF774FE204606B010BD7F710D000A
:1075A00035710D0007B5054B009369460023103077
:1075B0000193FFF7C7FF03B05DF804FBED750D0005
:1075C00013B5044600F0CAFC636AC01AE368984227
:1075D00008D3054B00936946002304F11000019382
:1075E000FFF7B0FF02B010BDED750D002DE9F041C1
:1075F00090F82A3086B00446002B64D100F0ACFE2F
:10760000002860D000F0AAFC636AC01A40F2F1338F
:10761000984258D9236820465B6998470546002858
:1076200051D000F10807012384F82830384603F0D0
:10763000DAFB95F80480CDF8048001302B682B49E3
:1076400000933E1833462A483A46FCF77FFE2B68E3
:107650008DF800803246394602A801F025F9029DD6
:107660006B781BB9012000F08FFFF8E7002000F0D5
:1076700015FE20B16B7813B900F05EFEFAE72B78A7
:10768000012B23D11B491A48FCF760FE2368002117
:107690009B6920469847002384F8283000F05EFC60
:1076A0006062039C7CB16368013B63605BB92368E3
:1076B00020469B689847A368013BA3601BB92368D9
:1076C0002046DB68984706B0BDE8F081E2680A49C9
:1076D0000748FCF73BFE094B049304A9002304F17F
:1076E00010000593FFF72EFFD5E700BF9FD70D00D1
:1076F000FCE50320C0D70D00D7D70D00C1750D00E4
:10770000014B024A1A607047FCE50320FED70D00CA
:1077100070477047006914307047012A034602D150
:10772000016000207047022A04BFD1E90001C3E9CB
:107730000001F6E710B5044B044640F80C3B01F09D
:10774000E9FE204610BD00BFB8D90D0010B50446B3
:10775000FFF7F0FF20461C2102F04DFC204610BD33
:1077600010B5054B044640F81C3B01F0D3FE204603
:10777000FFF7E0FF204610BD9CD90D0010B5044670
:10778000FFF7EEFF20462C2102F035FC204610BD0D
:1077900013B504460846019103F025FB6369013BDC
:1077A00083420FD920690199143003F0F7FA236856
:1077B0002046DB68984723681B6A204602B0BDE874
:1077C00010401847002002B010BD10B442680346B4
:1077D000541001EB6200D20748BF0A591B685DF8DC
:1077E000044B48BFD3581847022A38B5044607D07F
:1077F000032A11D0012A01D10B682360002038BD73
:107800000C200D68FCF747FC03460028F5D095E8EE
:10781000070083E80700F0E700680028EED00C219D
:1078200002F0E9FBEAE770B4036809685C689D68E8
:107830001B681268661005EB6400E40744BFAC598E
:10784000E35870BC1847000010B5064B044640F8DA
:10785000243BFCF714FD04F10C00FCF710FD20465E
:1078600010BD00BF5CD90D0010B50446FFF7ECFF5A
:107870002046382102F0BFFB204610BD08B5036842
:107880005B6898470078003818BF012008BD0000E9
:1078900010B50024C0E90144C460024C0460C0E992
:1078A000041210BD70D90D0070B504460069114D69
:1078B0000268AA4206D10379142B03D1C288A38A95
:1078C0009A4211D014263246002103F031FA23697E
:1078D0001D6023691E71D4E90432DA80D4E9040200
:1078E0000021304403F024FA23682046DB68BDE819
:1078F0007040184753DD5172054A02600022C0E90A
:107900000122C0E907224261C2624263704700BFA0
:107910005CD90D0010B5064C23683BB93820FCF744
:10792000BAFB034608B1FFF7E7FF2360206810BDEC
:1079300004E6032007B50192FFF7ECFF0368019905
:107940001B6803B05DF804EB184710B504464068A7
:1079500003681B699847A06810B103685B68984783
:10796000E36A33B1236B214604F12400BDE81040E3
:10797000184710BD10B58AB0044606A8019100F062
:10798000F3FC019B069A094902A801F09FFE06A894
:1079900001F0C0FD029904F10C0001F034FE02A8D0
:1079A00001F0B8FD20460AB010BD00BF58D80D0048
:1079B0004FF4FA624EF6602370B5C0E90123044625
:1079C0000C4B40F80C3B0D4626460B4901F0EDFDF3
:1079D0000A4B46F81C3B0849304601F0E6FD2946B3
:1079E000304601F010FE29462046FFF7C3FF20462F
:1079F00070BD00BFB8D90D00ACDB0D009CD90D00E7
:107A0000826810B50AB902F0FCFABDE81040C368FC
:107A10001847000038B504460A460A480D460A4988
:107A2000FCF794FC60680223236248B1036829468E
:107A30005B69984763691BB104F10C00FFF7E0FF35
:107A4000012038BD14E603206DD80D001FB5044693
:107A5000C26909490948FCF779FC094B094A1B78B6
:107A6000E1698DF8003002A83C2300F01DFF03A857
:107A7000FDF7EEFB04B010BD82D80D0014E6032024
:107A800000E60320ACDB0D0070B58AB0C668044682
:107A900000250C200495FCF7FEFA18B1134B846006
:107AA000C0E90035124B0290059302A9114B0493D3
:107AB00006A8FEF7B3FB089B83B11020FCF7EBFA96
:107AC000044658B106A9FEF7A9FB0023CDE900330F
:107AD000094901232246304600F056FC06A8FCF76F
:107AE000CEFB02A8FCF7CBFB0AB070BD35790D00C8
:107AF00027780D00E9770D00A7860D000B6803605D
:107B000013B15A6801325A60704737B58D6851F821
:107B1000043B0093044601A8FFF7F0FF6A4629469C
:107B2000204601F03BFB01A8FDF792FB204603B085
:107B300030BD70B58CB0044606A81646FFF7E5FFC9
:107B400006A801F043FB00282DD0099D069B009359
:107B500007A901A8FFF7D2FF29466A4602A801F04B
:107B6000F9FA01A8FDF774FB0498314603F00CF90B
:107B7000054603A8FDF76CFB002DE1D10A9D069B8D
:107B8000029307A903A8FFF7B9FF02AA29462046D6
:107B900001F0CAF903A8FDF75BFB07A8FDF758FB46
:107BA00020460CB070BDC4E90000A060F5E70000FD
:107BB00010B5D1E9002386B00021044604910AB92A
:107BC000D90705D5CDE902230F4B05930F4B04933D
:107BD00002AB93E803006A4682E8030094E80300DE
:107BE00083E8030092E80300049A84E80300A16894
:107BF000A260059A04911846E168E2600591FCF7DD
:107C00003EFB204606B010BDCB770D001B770D0064
:107C100013B50446406880B103689B689847A06824
:107C200058B103681B689847054B009369460023C9
:107C300004F124000193FFF7BBFF02B010BD00BFA9
:107C4000457C0D0013B504464068FFF717FE28B1C8
:107C500063691BB104F10C00FFF7D2FE054B0093E2
:107C60006946002304F124000193FFF7A1FF02B04D
:107C700010BD00BF797C0D0013B5044600F06CFB0D
:107C800090B101F0B9FE78B108490948FCF75EFBF4
:107C9000084B00936946002304F124000193FFF789
:107CA00087FF00F05BF9606302B010BDABD80D0038
:107CB00014E60320B97C0D0037B5044600F04EF9F8
:107CC000636BC01AA3685B68984217D36068FFF7BC
:107CD000D5FD04F1240598B1E369013310D00B49B7
:107CE0000B48FCF733FB00F039F90A4B6063009353
:107CF0006946002328460193FFF75AFF03B030BDC1
:107D000005490348FCF722FB044BF0E7BBD80D0004
:107D100014E60320217D0D00CBD80D00857D0D00DC
:107D200037B5044600F01AF9636BC01A42F20F73BC
:107D300098421ED901F060FED8B1E369002B18DD2E
:107D400001F077FE0546606803681B689847806805
:107D5000E3692D1A9D420CDD07490848FCF7F6FA45
:107D6000074B00936946002304F124000193FFF7B9
:107D70001FFF03B030BD00BFE8D80D0014E603209C
:107D8000857D0D0037B504460F491048FCF7DEFA33
:107D9000606803681B689847054601F04AFE0123A6
:107DA000A860236200F0DAF8094B6063009369462B
:107DB000002304F124000193FFF7FAFEA068036892
:107DC0009B68984703B030BD01D90D0014E603202D
:107DD000D57D0D0013B5036A012B04461BD100F0BD
:107DE000BDF8636BC01AA3689B68984211D90C490F
:107DF0000C48FCF7ABFA0423236200F0AFF80A4BFF
:107E0000606300936946002304F124000193FFF7A7
:107E1000CFFE02B010BD05490248FCF797FAECE727
:107E200012D90D0014E60320217D0D0032D90D007A
:107E3000014B00221A70704700E6032008B5024B80
:107E40001B685B68019308BD4802030008B5024B3C
:107E50001B68DB68019308BD4802030008B5024BAC
:107E60001B68DB69019308BD4802030008B5024B9B
:107E70001B681B6A019308BD4802030008B5024B4A
:107E80001B685B6A019308BD4802030008B5024BFA
:107E90001B689B6A019308BD4802030008B5024BAA
:107EA0001B68DB6A019308BD4802030008B5024B5A
:107EB0001B681B6B019308BD4802030008B5024B09
:107EC0001B689B6B019308BD4802030008B5024B79
:107ED0001B681B6C019308BD4802030008B5024BE8
:107EE0001B685B6C019308BD4802030008B5024B98
:107EF0001B689B6C019308BD4802030008B5024B48
:107F00001B68DB6E019308BD4802030008B5024BF5
:107F10001B681B6F019308BD4802030008B5024BA4
:107F20001B685B6E019308BD3402030008B5024B69
:107F30001B685B68019308BD1802030008B5024B7B
:107F40001B689B68019308BD1802030008B5024B2B
:107F50001B68DB68019308BD1802030008B5024BDB
:107F60001B685B69019308BD1802030008B5024B4A
:107F70001B689B6D019308BD1802030008B5024BF6
:107F80001B68DB6D019308BD1802030008B5024BA6
:107F90001B685B6E019308BD1802030008B5024B15
:107FA0001B689B6E019308BD1802030008B5024BC5
:107FB0001B685B68019308BD2C02030008B5024BE7
:107FC0001B689B68019308BD2C02030008B5024B97
:107FD0001B68DB68019308BD2C02030008B5024B47
:107FE0001B681B69019308BD2C02030008B5024BF6
:107FF0001B689B69019308BD2C02030008B5024B66
:108000001B68DB69019308BD2C02030008B5024B15
:108010001B681B6B019308BD2C02030008B5024BC3
:108020001B68DB68019308BD2802030008B5024BFA
:108030001B689B69019308BD2802030008B5024B29
:108040001B68DB69019308BD2802030008B5024BD9
:108050001B681B6A019308BD2802030008B5024B88
:108060001B685B6A019308BD2802030008B5024B38
:108070001B689B6A019308BD2802030008B5024BE8
:108080001B68DB6A019308BD2802030008B5024B98
:108090001B681B6B019308BD2802030008B5024B47
:1080A0001B685B6B019308BD2802030008B5024BF7
:1080B0001B681B6C019308BD2802030008B5024B26
:1080C0001B689B6C019308BD2802030008B5024B96
:1080D0001B68DB6C019308BD2802030008B5024B46
:1080E0001B681B6D019308BD2802030008B5024BF5
:1080F0001B685B69019308BD6402030008B5024B6D
:108100001B689B68019308BD6802030008B5024B19
:108110001B68DB68019308BD6802030008B5024BC9
:108120001B68DB69019308BD3002030008B5024BF0
:108130001B681B6A019308BD3002030008B5024B9F
:108140001B681B68019308BD3C02030008B5024B85
:108150001B68DB68019308BD3C02030008B5024BB5
:108160001B681B69019308BD3C02030008B5024B64
:108170001B685B69019308BD3C02030008B5024B14
:108180001B689B69019308BD3C02030008B5024BC4
:108190001B68DB69019308BD3C02030008B5024B74
:1081A0001B681B6A019308BD3C02030008B5024B23
:1081B0001B689B6A019308BD3C02030008B5024B93
:1081C0001B681B68019308BD4C02030008B5024BF5
:1081D0001B681B69019308BD4C02030008B5024BE4
:1081E0001B685B69019308BD4C02030008B5024B94
:1081F0001B689B69019308BD4C02030008B5024B44
:108200001B68DB69019308BD4C02030008B5024BF3
:108210001B681B6A019308BD4C02030008B5024BA2
:108220001B685B6B019308BD6002030008B5024B3D
:108230001B689B6B019308BD6002030008B5024BED
:108240001B68DB6B019308BD6002030008B5024B9D
:108250001B685B6D019308BD6002030008B5024B0B
:108260001B681B68019308BD2002030008B5024B80
:108270001B685B68019308BD2002030008B5024B30
:108280001B685B69019308BD2002030008B5024B1F
:108290001B68DB6A019308BD2002030008B5024B8E
:1082A0001B68DB6C019308BD2002030008B5024B7C
:1082B0001B685B6D019308BD2002030008B5024BEB
:1082C0001B689B6D019308BD2002030008B5024B9B
:1082D0001B68DB6D019308BD2002030008B5034B4A
:1082E0001B68D3F88830019308BD0000200203000A
:1082F00008B5034B1B68D3F89430019308BD000008
:108300002002030008B5034B1B68D3F8AC3001937F
:1083100008BD00002002030008B5024B1B681B6863
:10832000019308BD4402030008B5024B1B685B685B
:10833000019308BD4402030008B5024B1B689B680B
:10834000019308BD4402030008B5024B1B68DB68BB
:10835000019308BD4402030008B5024B1B685B692A
:10836000019308BD4402030008B5024B1B68DB699A
:10837000019308BD4402030008B5024B1B681B6A49
:10838000019308BD4402030008B5024B1B685B6AF9
:10839000019308BD4402030008B5024B1B68DB6A69
:1083A000019308BD4402030008B5024B1B681B6B18
:1083B000019308BD4402030008B5024B1B685B6BC8
:1083C000019308BD4402030008B5024B1B689B6B78
:1083D000019308BD4402030008B5024B1B68DB6B28
:1083E000019308BD4402030008B5024B1B685B689B
:1083F000019308BD4002030008B5024B1B689B684F
:10840000019308BD4002030008B5024B1B68DB68FE
:10841000019308BD4002030008B5024B1B681B69AD
:10842000019308BD4002030008B5024B1B685B695D
:10843000019308BD4002030008B5024B1B689B690D
:10844000019308BD4002030008B5024B1B68DB69BD
:10845000019308BD4002030008B5024B1B681B6A6C
:10846000019308BD4002030008B5024B1B681B6B5B
:10847000019308BD4002030008B5024B1B685B6B0B
:10848000019308BD4002030008B5024B1B681B6C3A
:10849000019308BD4002030008B5024B1B685B6CEA
:1084A000019308BD4002030008B5024B1B681B681E
:1084B000019308BD1C02030008B5024B1B685B68F2
:1084C000019308BD1C02030008B5024B1B689B68A2
:1084D000019308BD1C02030008B5024B1B681B6911
:1084E000019308BD1C02030008B5024B1B68DB6941
:1084F000019308BD1C02030008B5024B1B685B6AB0
:10850000019308BD1C02030008B5024B1B68DB6A1F
:10851000019308BD1C02030008B5024B1B681B6BCE
:10852000019308BD1C02030008B5024B1B68DB6BFE
:10853000019308BD1C02030008B5024B1B685B6C6D
:10854000019308BD1C02030008B5024B1B689B6C1D
:10855000019308BD1C02030008B5024B1B68DB6CCD
:10856000019308BD1C02030008B5024B1B681B6D7C
:10857000019308BD1C02030008B5024B1B685B6D2C
:10858000019308BD1C0203000021FFF777BE10B560
:10859000836804460BB901F034FDC3689847A368AB
:1085A0001BB1032221462046984720461021BDE8F2
:1085B000104001F020BD10B50446006808B1FFF777
:1085C00095FC204610BD000010B5064C0023204647
:1085D0002360FFF783FC2046034A0449BDE81040AE
:1085E00001F004BD08E60320B8DA0320B7850D00CA
:1085F00070470020704710B51021044601F0FBFCC5
:10860000204610BD08B5FFF7F6FF08BD30B50022C3
:108610004FF69C74026084808D888C800C68858005
:1086200004600A6030BD10B504460068FFF744FFDF
:10863000204610BD38B5C468F4B12378022B03D1AD
:1086400004F10C00FFF7EFFF656835B12846FBF732
:1086500016FE1021284601F0CEFCA56835B128464B
:10866000FBF70DFE1021284601F0C5FC2046142121
:10867000BDE8384001F0BFBC38BD10B588B0044635
:10868000684600F092FF694604A800F0B1FF04A814
:10869000A047044604A800F03DFF684600F03AFFFA
:1086A000204608B010BD07B5CDE9001282680AB9AE
:1086B00001F0A7FCC36801AA6946984703B05DF8BA
:1086C00004FB1FB50023CDE90201019210241A46D4
:1086D00069461846ADF80230ADF80040FFF724FEB9
:1086E00004B010BD73B50E46044656F8043B009323
:1086F0000D4601A83146FFF701FA019A009B62601E
:10870000236001A8002301930093FCF7A1FD3046EC
:10871000FCF79EFD2846082101F06DFC204602B0C2
:1087200070BD826810B50AB901F06BFCBDE810405D
:10873000C368184708B5006800F11001FFF7F1FFA2
:1087400008BD826810B50AB901F05BFCBDE81040B5
:10875000C368184708B5006800F11001FFF7F1FF82
:1087600008BD000038B500230446036010200D4604
:10877000FBF791FC28B10123C0E90133024B0360F0
:10878000C5602060204638BDD4D90D0038B500231F
:1087900083608B6804460D462BB102229847EB6834
:1087A000E360AB68A360204638BD0000F0B589B037
:1087B00004686846FFF72AFF4FF00203D4E84F2F02
:1087C000002A03D1C4E8413F0029F7D125D104F1A3
:1087D0000C0569462846FFF719FFBFF35B8F01239D
:1087E0006370002004F10803BFF35B8F53E8006F50
:1087F00043E80002002AF9D1BFF35B8F6EB1FFF7A7
:108800004DFD78B129463046FFF78BFF3046FBF728
:1088100036FD1021304601F0EEFB6846FFF703FFFE
:1088200009B0F0BD314602A8FFF7B0FFE068B4F927
:10883000105008B102F0BAFA06901020ADF81C50A2
:10884000FBF729FC0546E8B1002787601820FBF7F5
:1088500022FC044688B10146876002A8FDF75AF859
:10886000049BA268A360059B049206A9E268E360EA
:1088700004F110000592FFF7C9FE084BEB60084BAE
:108880002C60AB6006A8FFF7CEFE02A8FBF7F7FC52
:10889000002229460348FFF709FDB7E735870D0099
:1088A000CD890D008F850D002DE9F0478AB0054672
:1088B0009DF848900C4617469846FFF74DFD07AEC9
:1088C000824638BB4FF62E73059005A93046ADF8A9
:1088D0001830FFF79BFE1420FBF7DDFB044648B180
:1088E000022303700123C0E901AA437031460C3012
:1088F000FFF78CFE2846214640F8044BFFF732FF75
:108900003046FFF790FE05A8FFF78DFE28460AB017
:10891000BDE8F0870C234FF0000A1420CDE908AA27
:108920000793FBF7B8FB014628B1C0E901AA80F81C
:1089300000A080F801A004A80391FFF713FF224BC9
:1089400008930820FBF7A7FB824628B1039B40F859
:10895000043B04A9FFF7D2F800965FFA89F3424678
:1089600039462046CDF824A0FFF706FDB8B9039B91
:108970005B7803F0FF0293B94FF69C7305A903A837
:108980000592ADF81830FFF711FF05A8FFF74BFE71
:1089900005A80999FFF7A6FE06A8FCF759FC039B5A
:1089A000059304A906A8FFF7A9F8059B069A2B6072
:1089B0006A60002306A806930593FCF749FC04A807
:1089C000FCF746FCA2E700BF918A0D00022AF8B529
:1089D000054607D0032A18D0012A01D10B6803608D
:1089E0000020F8BD18200E68FBF755FB044650B177
:1089F0003146FFF7CBFE3069B6F9147008B102F0CA
:108A0000D5F92061A7822C60EAE70468002CE7D042
:108A100004F11000FFF707FE2046FBF730FC182199
:108A2000204601F0E8FADBE738B5002383608B6865
:108A300004460D462BB102229847EB68E360AB6811
:108A4000A360204638BD022A70B5044607D0032A29
:108A500012D0012A01D10B680360002070BD1420E0
:108A60000E68FBF718FB054620B13146FFF7DCFF27
:108A7000337C2B742560F0E70468002CEDD0204691
:108A8000FBF7FDFB1421204601F0B5FAE5E70000F5
:108A9000F0B589B004460D4601A81146FFF722FE45
:108AA000A4B124B21DB1284602F080F9054601A800
:108AB00003A90395ADF81040FFF778FE03A8FFF770
:108AC000B2FD02A8FCF7C4FB09B0F0BD019D012373
:108AD000D5E84F2F002A03D1C5E8413F0029F7D13F
:108AE000EFD12B73BFF35B8F6B702B1DBFF35B8FCD
:108AF00053E8006F43E80042002AF9D1BFF35B8FCF
:108B0000002EDED02046FFF7C9FB074660B105F115
:108B10000C013046FFF715FE3046FBF7B0FB102185
:108B2000304601F068FACCE7314603A8FFF77CFF36
:108B30002B7B8DF81C301020FBF7ADFA0546D0B129
:108B400087601420FBF7A7FA044678B187600146D6
:108B500003A8FCF7DFFE059BA268A360069B0592B5
:108B6000E268E3609DF81C3006922374064BEB60CC
:108B7000064B2C60AB6003A8FBF781FB0022294663
:108B80000348FFF793FBC7E755870D00478A0D00A1
:108B90008F850D00002240681146FFF75DBC002262
:108BA00040681146FFF768BC40680022FFF75CBCD4
:108BB0004068002281F00101FFF746BC00234068B5
:108BC0001A461946FFF738BC002340681A46194672
:108BD000FFF72ABC002240681146FFF71DBC0022A7
:108BE00040681146FFF708BC406800220221FFF7E9
:108BF0000BBC002340681A46FFF7F6BB024B03226A
:108C00005A60024A1A6070470CE60320F0D90D0042
:108C10007047F8B5064615460C468F18BC4206D07C
:108C2000336814F8011B9B6830469847F6E72846DE
:108C3000F8BD007C0022FFF709BA007C0021FFF795
:108C40000DBA007C0021FFF711BA007C0021FFF76C
:108C500015BA007C0021FFF719BA10B5142104469B
:108C600001F0C9F9204610BD10B54FF47A730446DF
:108C700008460021C4E90113034B23602074114608
:108C8000FFF714FA204610BD2CDA0D000023007CFB
:108C90001A461946FFF7C2B97FB500221423CDE961
:108CA0000122ADF804300B788DF808304B6803933F
:108CB000CB680493007C0B7A059301A9FFF70EFAA9
:108CC00007B05DF804FB1FB5003B8DF800104FF0B6
:108CD0006401039118BF0123694601928DF80830A1
:108CE000FFF7DAFF05B05DF804FB007C0022FFF718
:108CF0009DB9C9B2FFF7F9BF007C0022FFF79EB90A
:108D000008B50021007CFFF7D9F9B0FA80F04009DE
:108D100008BD08B50021007CFFF7D8F9B0FA80F053
:108D2000400908BD004700002DE9FF4100241D4611
:108D30000F4690460646FFF761F9A5424FF004033F
:108D4000ADF80D408DF80C308DF80F40A2BF9DF8A6
:108D500028308DF80E3003AC0749009443463A465C
:108D60003046A8BF8DF80D50FFF740F9B0FA80F0FB
:108D7000400904B0BDE8F081258D0D00704710B5A5
:108D80001821044601F037F9204610BDF0B5037DE7
:108D9000062B8DB00E4600F104074FF0000412D0F0
:108DA00000F1080515F8011D0A22304600F075FB98
:108DB000AF42044419D0002CF4D02E21304600F0EC
:108DC00069FB0444EEE72F236A4639460A208DF8F2
:108DD0000040FFF78BF9684602F005F83368024659
:108DE000DB68694630469847044620460DB0F0BD22
:108DF00010B5054B0446112240F8043B002101F058
:108E000097FF204610BD00BF54DA0D000346074A05
:108E100010B543F8042B01F1100251F8044B43F84C
:108E2000044B9142F9D10A781A7010BD54DA0D0042
:108E300010B59DF8084044EA032343EA024242EA9F
:108E4000016104234160037510BD000013B5054B9B
:108E50000360CB7800938B784A780978FFF7E8FFB6
:108E600002B010BD54DA0D0000F11003012213F816
:108E7000101C0129184608D153F8041C02EB4102CA
:108E8000013A03F11003F2D17047022904BF53F8ED
:108E9000041C5218F4E770470020704710B51021E9
:108EA000044601F0A8F8204610BD08B5FFF7F6FF0C
:108EB00008BD10B5C4687CB1206808B1FBF7F1F8B3
:108EC000237A1BB1606808B1FBF7EBF820460C2150
:108ED000BDE8104001F08FB810BD10B5036804461E
:108EE0009B689847A368013BA3602BB92368204681
:108EF000DB68BDE81040184710BD38B50B6803604B
:108F00004D6843689D4204460CD015B16B6801332F
:108F10006B60606828B14368013B43600BB9FFF7A1
:108F2000DCFF6560204638BD0B461146002210B5B7
:108F3000C0E90022044683600BB9204610BDFFF74C
:108F4000DCFFFAE78368EBB11A78032A1AD8DFE866
:108F500002F00417021B0520704702685B68526824
:108F6000D05C2D2812D0A0F13003092B0ED9742823
:108F70000ED066280CD0A0F16E03584258417047BD
:108F80000620704700207047042070470320704778
:108F9000022070472DE9F04786B00746884602A8B0
:108FA000002100249946102392460293FFF73EF9D0
:108FB000CDE9004423464246394602A8FFF73EF970
:108FC000061E1EDD1049300101F019F8054690B16A
:108FD000214602A8FFF72AF9CDE900642B46424654
:108FE000394602A8FFF72AF9A04207DDCAF8005067
:108FF0000120C9F8006006B0BDE8F0872846FBF7FD
:1090000050F82046F7E700BF84DB0D002DE9F84F4C
:10901000436886680B4488460E4407461C4619463A
:109020004FF00D094FF0090AB44263D0254615F8F8
:10903000012B5C2A2BD1A14207D0A4EB010B1846CF
:109040005A4601F05BFE03465B44B54239D0627874
:10905000752A2AD1A21CB21A032A32DDA01D04F1FE
:10906000050E4FF0000CAE4553D015F8011FA1F1CD
:1090700030025FFA82FBBBF1090F05D9A1F1610251
:10908000052A07D8A1F1570242EA0C1CEBE7284653
:109090000446C9E7A1F14102052A12D8A1F137021D
:1090A000F2E703F801CB0146F2E76E2A1CD00ED896
:1090B000622A13D007D82F2A11D05C2A0FD0222A77
:1090C0000DD0002023E0662AFBD10C2207E0722A93
:1090D0000DD0742AF5D183F800A001E008221A709F
:1090E000A11C01330846D3E74FF00A02F7E783F8E3
:1090F0000090F5E7A14206D0641A1846224601F016
:10910000FDFD03462344A3EB0803BB600120BDE83B
:10911000F88FBCF17F0FC4D92146B9E7F8B50446F2
:10912000154600EB01160027B44210D02378032B1C
:1091300008D129462046FFF769FF48B1A368EF54DC
:109140001034F1E7002BFBD1A268AB54F8E7012003
:10915000F8BD000038B50023C0E9003304460E48CE
:10916000C4E90203A9B10B78032B06D08BB91368AD
:1091700058684B68C35C6E2B07D013684D685868FD
:109180008B6828445B1BA060E36011462046FFF714
:10919000B4FE204638BD00BFACDB0D0038B500255D
:1091A0000B46C0E90055C0E90255C0E90455044624
:1091B00011464BB11A78012A06D103F11002DB687F
:1091C00082604361FFF799FE204638BD10B54369C0
:1091D000044663B18068E060013B1030A06020610C
:1091E000636113B1FFF740FEA060012000E0184664
:1091F00010BD000038B500230446036010200D4662
:10920000FAF749FF28B10123C0E90133024B03609B
:10921000C5602060204638BD68DA0D00F0B5044610
:1092200087B00E460C202749154600F0E6FE0146A1
:1092300018B10023C0E90033037203A80291FFF7BD
:10924000D9FF029A42B9C4E90022A26003A8FBF741
:10925000FFFF204607B0F0BD00230193294601AB74
:109260003046FFF797FE18B9C4E90000A060EDE7AB
:109270001449029F681C00F0C2FE029B7860586887
:109280000028F1D02A46314601F02AFD029B0199BF
:10929000186801221A725A68FFF740FF0028E3D0CD
:1092A000029B19680493039B059313B15A6801321A
:1092B0005A6004AA2046FFF737FE05A8FBF7C8FF4F
:1092C000C4E700BF84DB0D00014B024A1A607047FF
:1092D00014E603207CDA0D00002340681A46FFF7ED
:1092E00083B8406800220221FFF78EB80022406850
:1092F0001146FFF781B8002240681146FFF78CB88D
:10930000002340681A461946FFF78EB800234068CC
:109310001A461946FFF790B840680021FFF7B4B825
:1093200040680021FFF7B8B84068002281F00101D1
:10933000FFF78AB840680022FFF796B8002240681D
:109340001146FFF799B8002240681146FFF784B82C
:109350002DE9F043002495B016460D460746FFF769
:1093600047FD214618220EA8009401F0E1FC40239D
:10937000CDE90C3421466B460CAA3046FEF7C6FEFA
:10938000044600284CD1024601216868FFF744F8E2
:109390000221804622466868FFF73EF8009E81461B
:1093A0002146002E3CD000293AD17368022B03D00D
:1093B0000A2B11D0F669F4E7B8F1000F0AD07169F1
:1093C00006A8043107ADFFF741FD0FCD3C1D0FC4CA
:1093D0002B6823704146EDE7B9F1000F01D14946F2
:1093E000E8E77469102201A801F0A2FC06238DF8B9
:1093F000143001AD04F108031834186859682A467E
:1094000003C20833A3421546F7D101A906A807AD48
:10941000FFF7FCFC0FCD3C1D0FC42B682370DEE76B
:109420000098FEF76BFE384615B0BDE8F0830000EB
:10943000024B034A1A6000225A60704718E6032064
:1094400088DA0D00F8B506460D468F180024BD4297
:109450000CD0336815F8011B9B6830469847031EF3
:1094600001DB1C44F3E7002C08BF1C462046F8BD76
:1094700013B50446084659B1019101F0B4FC2368C4
:109480000199DB680246204602B0BDE8104018474B
:1094900002B010BD03689B68184730B58BB000233D
:1094A0008DF82430012A98BF0A2209AC0D46B1FB81
:1094B000F2F101FB125303F0FF03092B94BF303389
:1094C0003733DBB2AA4204F8013DEFD92146FFF75A
:1094D000CFFF0BB030BD10B50446FAF7D0FE2046E2
:1094E00010BD00000348044A04490023836000F0D3
:1094F0007DBD00BF20E60320B8DA0320D7940D001D
:1095000010B5044608462170FEF708FE002363608C
:10951000204610BD10B504460068FEF7CDFF20467A
:1095200010BD10B50446006808B1FEF7C5FF002362
:10953000C4E90133236010BD38B504460D46006808
:109540000131FEF7C1FF10B1C4E90005012038BDAB
:1095500010B50368044623B143688B4201D3012050
:1095600010BD2046FFF7E8FF0028F9D0A368002BC4
:10957000F5D122681370F2E737B50D461146019216
:109580000446FFF7E5FF019A28B92046FFF7C9FF17
:10959000204603B030BDA2602946206801F0A0FB40
:1095A0002268A3680021D154F2E7002313B5C0E973
:1095B000003304468360037341B10846019101F012
:1095C00012FC019902462046FFF7D6FF204602B062
:1095D00010BD884210B5044605D00B682BB18A68CF
:1095E0001946FFF7C9FF204610BDFFF79AFFFAE7BB
:1095F00010B500230446C0E9003383600373FFF70E
:10960000E8FF204610BD13B5044659B10846019144
:1096100001F0E9FB019902462046FFF7ADFF204625
:1096200002B010BDFFF77DFFF9E770B505460E46A5
:1096300009B9002070BD6AB1846814442146FFF75F
:1096400087FF0028F5D02868AB683146184401F040
:10965000A5FBAC600120EDE713B5044629B920460F
:10966000FFF75FFF204602B010BD0846019101F0F0
:10967000BAFB019902462046FFF7D7FF0028EED03B
:10968000F0E708B582683AB921B10878B0FA80F0FD
:10969000400900E0012008BD006809B90078F5E73D
:1096A00001F072FBF2E7000008B5006840B101F07C
:1096B000EFFA51EC100B01F057FA00EE100A08BD5A
:1096C0009FED010AFBE700BF000000000EB470B57B
:1096D00087B00BAD044655F8042B01922B460521AB
:1096E00004A80395FEF708FF0B4906462046FFF73E
:1096F0005CFF31462046FFF72BFF206830B1019A0E
:1097000003952B46711CFEF7F7FEA060204607B0BC
:10971000BDE8704003B07047ACDB0D0007B50B46E9
:1097200000210246009101208C21FEF7EBFD03B0E1
:109730005DF804FB01460020FFF7F0BF0020FFF7B3
:10974000F9BF000010B5094B094C022200201A6035
:10975000084B2060A080A071A360FEF787FD204623
:10976000054A0649BDE8104000F040BC3CE6032035
:1097700030E603200000FFFFB8DA032067420D0047
:109780002DE9F041154ADFF86080D2E90032C018B7
:1097900042EB0101124AD2E90032C61841EB02073E
:1097A000D8E90023BB4208BFB2428CB013D003A952
:1097B0006846CDE90067FEF7CFFE089B094D03F22E
:1097C0006C7303AC08930FCC0FC50FCC0FC5C8E961
:1097D000006723682B600CB0BDE8F08178E60320B9
:1097E00070E6032048E6032080E6032008B5002049
:1097F000FEF7DAFD28B1FEF7AFFD80F00100C0B240
:1098000008BD0120FCE71FB502460B466846002153
:10981000CDE90023CDE90211FEF7C0FB024610B9E5
:109820000146FEF753FD05B05DF804FB30B5044674
:109830001848D0E90010521840EB03031648D0E94D
:109840000010521893B040EB0303CDE9002324220B
:109850000DEB0200002101F06BFA002509A9684612
:10986000FEF77AFE1622294603A8029501F060FA57
:1098700002A909A801F0E6F902A801F0B4FA12ABB6
:10988000184402A900F8415C2046FFF78EFE2046EE
:1098900013B030BD78E6032070E603202DE9F04FC9
:1098A000A5B00746884614A811463F221D4601F080
:1098B000B4FA002314A88DF88F3001F094FA04460E
:1098C0005DBB2A4903A801F069FA14AE002504F132
:1098D000FF3BAB4536D9B14605F1010A19F8013B0A
:1098E000252B17D173787A2B14D103A801F07BFABA
:1098F00014AB044628181844ABEB0502B11C01F068
:10990000EFF9224603A9304601F0EAF914A801F064
:109910006AFA04464E465546D9E73C2195FBF1F3D9
:10992000002BB8BF5B42B3FBF1F201FB1233009393
:109930000F4A4FF46163102103A895FBF3F3FEF780
:10994000D3FDC2E700212E2208A8079101F0F0F90B
:10995000434614AA322107A8FEF7F6FD07A93846A8
:10996000FFF723FE384625B0BDE8F08FBCDA0D00C6
:10997000BEDA0D00F0B58DB0CDE90023129D04468E
:1099800015B9194B1D682DB1184B2846196801F0FF
:10999000FBF938B9DDE900232046FFF747FF2046F1
:1099A0000DB0F0BD124E0099124FD6E900325B188F
:1099B000019941EB0202D7E900011B1841EB0202B9
:1099C000CDE900320021242203A801F0B1F903A956
:1099D0006846FEF7C1FD32683B6803A91344204680
:1099E0002A46FFF75BFFDAE744E60320D8D80320D6
:1099F00078E6032070E6032010B50020FEF7B6FAE3
:109A00000446A0B9FEF72AFC012810D12046FEF733
:109A100055FC60B9FFF7EAFE10B9FEF78DFCF9E7D7
:109A2000FFF7E4FEBDE810400020FEF79FBA204695
:109A300010BD1FB5FFF7E0FF10220021684601F0BE
:109A400077F900216846FEF7A1FA009805B05DF8A5
:109A500004FB000008B5FFF7ECFFC117FFF790FE0D
:109A6000014B986808BD00BF48E6032008B5FFF722
:109A7000E0FFC117FFF784FE014B586908BD00BF26
:109A800048E60320024B1A68024B1A60704700BF79
:109A9000D8D8032044E6032070474174704708B5C6
:109AA000007CFEF783FB20EAE07008BD08B5007C6F
:109AB000FEF754FB20EAE07008BD08B5007CFEF715
:109AC0005DFB40EAE07008BD08B5007CFEF74EFB88
:109AD00040EAE07008BD007CFEF758BB37B5457C16
