:02000002D0002C
:1040000000400D00FCF60D00000006000C0005014C
:084010000401BD0B00000000DB
:044018006CD30D0058
:1040200009480A49884208B505D0094A824202D0A7
:10403000121A07F049FA0748074A0021121A07F036
:104040006BFA014808BD00BF48DC032014F40D00E2
:1040500004DF032008DF0320F8E7032070B5074ED4
:10406000074C06F0ADFAA41BA4080025A54200D118
:1040700070BD56F8043B98470135F7E79CEA0D0000
:10408000D0EA0D0001F0E2BE08B501F01FFDBDE869
:10409000084006F057BA04F07DBC04F07BBC04F085
:1040A00081BC04F07FBC000008B5034A00210C204D
:1040B00004F02AFBFEE700BF39840D000078B0FA57
:1040C00080F040097047012303707047002070475B
:1040D000704700207047006970470120704700005A
:1040E000014B01221A707047E9E503200368184765
:1040F000012A03D0022A03D0002070470160FBE7A9
:104100000B680360F8E7012A08BF016000207047D0
:104110007047012A08BF01600020704702F0F8BA1A
:1041200008B5044905F050FE18B1034B03221A707C
:10413000012008BDBBD30D00B5E5032010B5C2B00A
:1041400000680A2201A908F01BF9431E062B044649
:1041500031D801280AD1194B1949187702A807F05C
:1041600011FA184B1C70204642B010BD022804D131
:10417000124B154901245C77F0E7032804D10F4B5B
:10418000124901249C77E9E7042804D10B4B10491C
:104190000124DC77E2E7052805D1084B0D4901240D
:1041A00083F82040DAE7062805D1044B0A490124A8
:1041B00083F82140D2E70024D5E700BFB8E503200B
:1041C000BDD30D00E8E50320D0D30D00E3D30D00EF
:1041D000F8D30D000CD40D0020D40D00436913B1A9
:1041E00083690C301847704710B5034B03600446D1
:1041F00003F054FE204610BDD8E00D0010B5044673
:10420000FFF7F2FF2046382106F0E9FA204610BDFC
:1042100010B5034B0360044603F070F8204610BD50
:1042200000E10D0010B50446FFF7F2FF2046102113
:1042300006F0D5FA204610BD13B500210446084605
:1042400004F082F80023204601A9019304F094F8B9
:10425000019C0CB1012323710021012004F074F8AA
:104260002CB1236820469B6898470023237102B035
:1042700010BD10B50446006808B104F093FB204659
:1042800010BD0023042204F0BDBA10B583680446B3
:1042900013B1032201469847204610BD37B5134B92
:1042A000036004468068C8B100256FF00043CDE983
:1042B000003502212B462A4604F066F8A0682946FC
:1042C00004F09AF8237903F0FF0513B104F034F8F1
:1042D000F8E7A068294604F047F8A56004F10C004F
:1042E000FFF7D3FF204603B030BD00BFC4E00D0090
:1042F00010B50446FFF7D2FF20461C2106F06FFAE6
:10430000204610BD0246014804F051BC678B0D00E9
:1043100007B508220023ADF800204FF47A7101227E
:10432000019241436A461846ADF8023004F0C2FAE1
:1043300003B05DF804FB07B580680B46002140B16F
:10434000CDE900210A46032104F01EF8B0FA80F0FE
:10435000400903B05DF804FB13B50446084601911B
:1043600007F035F901990246204602B0BDE8104039
:1043700005F0B0BA13B504460846019107F027F9D5
:1043800001990246204602B0BDE8104005F0B2BADD
:104390000EB410B58DB00FAA016852F8044B039209
:1043A00000232020CDE90403CDE900421E2004AA09
:1043B00004F0C2F90DB0BDE8104003B0704737B546
:1043C00004689DF818508DF800308DF80450E468AA
:1043D0003C23A04703B030BD10B50B7892B00C461B
:1043E0007BB9194902A807F0CDF800238DF80030F9
:1043F000164B17491B78174802AAFFF7E0FF12B0C7
:1044000010BD084607F03BF8C8280ED1124902A893
:1044100007F0B8F805F0AFFE104B9861104B012281
:104420001A70104B00221A70DFE7204607F027F8B9
:10443000C928EBD0204607F022F80B4A034640215A
:1044400002A804F0C7FAD0E733D40D0055DF0320EB
:104450006AD40D00F8E303203BD40D00B8E5032037
:10446000E8E5032077DF03204DD40D0037B51C4964
:10447000054605F0A9FC044600B31A4C0123606808
:104480006370FFF745FF636817484FF47A716FF068
:1044900000425943FFF74FFF04F0D4F948B100231D
:1044A0008DF80030114B124A1B7812491248FFF761
:1044B00086FF124B0120187003B030BD104928460A
:1044C00005F082FC0028F7D0064B5C7004F0BAF9C6
:1044D0000028EED0054B8DF800401B78094AE4E730
:1044E000BBD30D00B8E50320D8E3032055DF03203C
:1044F00077D40D0007D50D00F8E30320E8E503208D
:1045000076E60D008CD40D0010B5C4B000680A2208
:1045100003A907F035FFB0F5966F22D8124C606002
:10452000FFF7F6FE636811484FF47A7159436FF054
:104530000042FFF700FF63680D4A4FF4807104A842
:1045400004F048FA00238DF800300A4B0A491B7822
:104550000A4804AAFFF733FF094B0120187044B042
:1045600010BD0020FBE700BFB8E50320D8E303201F
:10457000A0D40D0055DF0320B9D40D00F8E30320CB
:10458000E8E5032000B589B0039005F02FFC0E4B41
:104590000399BDEEC00A04A883ED090A05F0B8FB33
:1045A00000238DF80030094B049A1B78084909480C
:1045B000FFF705FF04A805F03DFB074B012018702D
:1045C00009B05DF804FB00BFB8E5032055DF032008
:1045D000C4D40D00F8E30320E8E5032037B51649FD
:1045E000054605F0F1FB044688B1144B144A154901
:1045F000154801245C7200238DF80030134B1B78A2
:10460000FFF7DDFE124B20461C7003B030BD114990
:10461000284605F0D9FB0028F7D0084B0E4A5C72FB
:104620000A4B8DF800401B7806490748FFF7C7FE84
:10463000074B01201870E8E7BBD30D00B8E5032055
:10464000E6D40D0007D50D00F8E3032055DF032065
:10465000E8E5032076E60D00F7D40D0030B5C5B0CF
:1046600000680A2203A907F08BFE431E062B0446AE
:104670004FF0000542D8012813D1214B21491D7765
:1046800004A806F07FFF204B8DF800501B781F49CF
:104690001F4804AAFFF793FE1E4B1C70204645B02E
:1046A00030BD022810D1164B1B495D7704A806F0D7
:1046B00069FF154B8DF800501B781449144804AA63
:1046C000FFF77DFE0124E7E7032803D10C4B1349D4
:1046D0009D77EBE7042803D1094B1149DD77E5E726
:1046E000052804D1064B0F4983F82050DEE7062841
:1046F00004D1034B0C4983F82150D7E72C46CDE772
:10470000B8E503200CD50D0055DF032020D50D00A2
:10471000F8E30320E8E503202ED50D0042D50D0077
:1047200058D50D006DD50D0082D50D0000B5C5B072
:1047300000680A2203A907F023FE042818D80D4BAD
:104740000D4A98624FF48071034604A804F042F9C0
:1047500000238DF80030094B09491B78094804AA49
:10476000FFF72DFE084B0120187045B05DF804FBE3
:104770000020FAE7B8E5032096D50D0055DF0320A9
:1047800007D50D00F8E30320E8E503201FB50A2252
:10479000006803A907F0F4FD012804464FF0000368
:1047A00011D18DF80030094B094A1B7809490A4894
:1047B000FFF705FE41F2883004F05CF905F060FB7C
:1047C000204604B010BD1C46FAE700BF55DF0320A9
:1047D000A8D50D0020DF0D00F8E3032007B504F095
:1047E00031F848B100238DF800300E4B0E4A1B788B
:1047F0000E490F48FFF7E3FD0E4A0F487823536038
:1048000040F20113138000230121537293724FF47D
:104810001673C2E909313023117703B05DF804EB58
:1048200002F00FBE55DF0320BDD50D0007D50D00EA
:10483000F8E30320B8E50320C8E3032007B504F03C
:1048400001F848B100238DF800300B4B0B4A1B7860
:104850000B490C48FFF7B3FD0B4A0C4B0C48136097
:1048600053609360D36013615361A021182303B098
:104870005DF804EB02F0E5BD55DF0320D5D50D0052
:1048800007D50D00F8E3032050E40320CDCCB5425A
:10489000C8E3032010B5154C237A012B04D903F08B
:1048A000D1FF00B3012323726368114AB3F5966FF9
:1048B00084BF4FF416736360637A012B84BF0123B6
:1048C0006372A37A012B84BF0023A3726369FF2B59
:1048D00084BF00236361A36A052B4FF001031370AB
:1048E00088BFA36210BD2072DEE700BFB8E50320D9
:1048F000E8E50320334BD3ED007AF5EEC07AF1EE14
:1049000010FA06D49FED307AF4EEC77AF1EE10FA81
:1049100001DD2E4A1A60D3ED017AF5EEC07AF1EE90
:1049200010FA06D49FED287AF4EEC77AF1EE10FA69
:1049300001DD264A5A60D3ED027AF5EEC07AF1EE37
:1049400010FA06D49FED207AF4EEC77AF1EE10FA51
:1049500001DD1E4A9A60D3ED037AF5EEC07AF1EEDE
:1049600010FA06D49FED187AF4EEC77AF1EE10FA39
:1049700001DD164ADA60D3ED047AF5EEC07AF1EE85
:1049800010FA06D49FED107AF4EEC77AF1EE10FA21
:1049900001DD0E4A1A61D3ED057AF5EEC07AF1EE2B
:1049A00010FA06D49FED087AF4EEC77AF1EE10FA09
:1049B00001DD064A5A61034A05481823A02102F086
:1049C00040BD00BF50E4032000803B45ECD1B54220
:1049D000C8E3032007B50121052005F08AFE002168
:1049E000052005F086FE094A00231370084A527A12
:1049F00042B18DF80030074B074A1B780749084839
:104A0000FFF7DDFC03B05DF804FB00BFE9E5032020
:104A1000B8E5032055DF0320F4D50D00FBD50D00CC
:104A2000F8E3032030B5114D114C12492A78207853
:104A30008DB01A2303FB0212009203FB00130E4AEF
:104A4000282102A803F0C6FF2B78237003F0FAFE9A
:104A500048B100238DF80030084B09491B780948FC
:104A600002AAFFF7ACFC0DB030BD00BFB5E50320D6
:104A7000F4E3032058DC032004D60D0055DF0320A7
:104A800012D60D00F8E3032030B50D4D0FCD89B0DF
:104A900001AC0FC495E807000A4B84E807001B7CB3
:104AA000094808AA02EB8303102153F81C3C074A6B
:104AB00003F090FF064B01221A7009B030BD00BF11
:104AC00068E10D00B8E5032056DF0320F8E30D0090
:104AD000E8E503202DE9F04F4FEA800909F10704CA
:104AE00083B004F4FF6402AFADEB040D02ADAC463D
:104AF0004FF0000E4CF804EB023800282ADADFF8F9
:104B000068B0DFF868A00C4690461E46A9444D45A3
:104B100024D0D4E902018DE80300584694E80C0043
:104B200001F0B6FC51EC100B06F012FC48F8040B37
:104B300045F8040B06F0E4F8DAE9002306F038F94A
:104B4000084B002206F05EFA06F002FC103446F82C
:104B5000040BDCE74CF804EB0138CEE70437BD4624
:104B6000BDE8F08F00408F4010DF032050DC0320B1
:104B70002DE9F0472DED068BB94CBA4B206893F820
:104B800000A0A8B0CDF800A006F0BAF8B64B41ECF2
:104B90001A0B93F80090CDF81090CDE902016068EF
:104BA00006F0AEF8B14B41EC190B93F80080CDF84C
:104BB0002080CDE90601A06806F0A2F8AC4B41ECDC
:104BC000180B1D780C95CDE90A01E06806F098F8FD
:104BD000A84B06461B78206910930F46CDE90E6757
:104BE00006F08EF8A44BCDE912011B78606914938E
:104BF00006F086F8A14C2495A14DCDF860A00023C5
:104C0000CDE916018DED1AAB8DED1E9B8DED228B3E
:104C1000CDE92667CDF87090CDF8808084F8883093
:104C2000FFF732FFA86A01284AD12B7F4BB1954884
:104C30004FF4B96102F0F8FA51EC100B06F088FB62
:104C400020606B7F4BB190484FF4B96102F0ECFAF1
:104C500051EC100B06F07CFB6060AB7F4BB18B48D6
:104C60004FF4B96102F0E0FA51EC100B06F070FB62
:104C7000A060EB7F4BB186484FF4B96102F0D4FAE3
:104C800051EC100B06F064FBE06095F820304BB15E
:104C900080484FF4B96102F0C7FA51EC100B06F0EE
:104CA00057FB206195F82130EBB17B484FF4B96197
:104CB00002F0BAFA51EC100B06F04AFB606112E008
:104CC000022840F08F8004F13C0304F13002694671
:104CD0000320FFF7FFFE04F1540304F148020CA97E
:104CE0000320FFF7F7FED4ED007A94ED067A6B4EC1
:104CF000F5EEC07AF1EE10FAD8BFF1EE677A37EE32
:104D0000C77AF7EE087AB4EEE77A0122F1EE10FAEC
:104D1000327059DA94ED017AD4ED076AB5EEC07AB3
:104D2000F1EE10FAD8BFB1EE477A37EE667AB4EEFC
:104D3000E77AF1EE10FA47DA94ED027AD4ED086AD8
:104D4000B5EEC07AF1EE10FAD8BFB1EE477A37EE81
:104D5000667AB4EEE77AF1EE10FA35DA94ED037A7A
:104D6000D4ED096AB5EEC07AF1EE10FAD8BFB1EE13
:104D7000477A37EE667AB4EEE77AF1EE10FA23DA84
:104D800094ED047AD4ED0A6AB5EEC07AF1EE10FA29
:104D9000D8BFB1EE477A37EE667AB4EEE77AF1EE35
:104DA00010FA11DA94ED057AD4ED0B6AB5EEC07AFB
:104DB000F1EE10FAD8BFB1EE477A37EE667AB4EE6C
:104DC000E77AF1EE10FA48DB012584F8885005F007
:104DD000D2F93570C4F88000284628B0BDEC068BA7
:104DE000BDE8F08703282AD104F13C0304F1300226
:104DF0006946FFF76FFEEB7FF3B125484FF4B961C9
:104E000002F012FA51EC100B06F0A2FAE06095F8ED
:104E10002030FBB11F484FF4B96102F005FA51ECA4
:104E2000100B06F095FA206195F82130002B7FF4E5
:104E30003CAF0023636156E70023E360E7E7042803
:104E40007FF451AF04F1700304F1600218A9FFF779
:104E500041FEDCE700232361E6E70020BDE700BF59
:104E600050E4032048DC032049DC03204ADC032013
:104E70004BDC03204CDC03204DDC032068E40320E2
:104E8000B8E5032078DF032030E00320E8E00320CA
:104E9000A0E1032058E2032010E30320F4E4032000
:104EA00010B5204C206805F02BFF1F4B41EC100B78
:104EB00019781E4802F0AEF9606805F021FF1C4B1E
:104EC00041EC100B19781B4802F0A4F9A06805F01A
:104ED00017FF194B41EC100B1978184802F09AF99A
:104EE000E06805F00DFF164B41EC100B19781548E2
:104EF00002F090F9206905F003FF134B41EC100B11
:104F00001978124802F086F9606905F0F9FE104B35
:104F100041EC100B19780F4802F07CF90E4B01227E
:104F20001A7010BD50E4032048DC032078DF032012
:104F300049DC032030E003204ADC0320E8E00320C2
:104F40004BDC0320A0E103204CDC032058E20320CB
:104F50004DDC032010E3032076DF032013B5224C41
:104F6000206805F0CDFE214ACDE90001202120482E
:104F700003F030FD606805F0C3FE1E4ACDE9000174
:104F800020211D4803F026FDA06805F0B9FE1B4A4C
:104F9000CDE9000120211A4803F01CFDE06805F06E
:104FA000AFFE184ACDE900012021174803F012FD99
:104FB000206905F0A5FE154ACDE90001202114481D
:104FC00003F008FD606905F09BFE124ACDE900017F
:104FD0002021114803F0FEFCFFF762FF0F4B012276
:104FE0001A7002B010BD00BF50E4032023D60D009C
:104FF00035E5032031D60D0095E503203ED60D00A2
:1050000075E503204ED60D0015E503206BD60D0087
:10501000F5E4032088D60D0055E5032076DF032054
:1050200000B589B0039004F0E1FE0D4B039983EDC8
:10503000000A04A804F06CFE00238DF80030094B30
:10504000049A1B7808490948FFF7B9F904A804F045
:10505000F1FDFFF783FF012009B05DF804FB00BFFD
:1050600050E4032055DF0320A4D60D00F8E303200D
:1050700000B589B0039004F0B9FE0D4B039983EDA0
:10508000010A04A804F044FE00238DF80030094B07
:10509000049A1B7808490948FFF791F904A804F01D
:1050A000C9FDFFF75BFF012009B05DF804FB00BFFD
:1050B00050E4032055DF0320BFD60D00F8E30320A2
:1050C00000B589B0039004F091FE0D4B039983ED78
:1050D000020A04A804F01CFE00238DF80030094BDE
:1050E000049A1B7808490948FFF769F904A804F0F5
:1050F000A1FDFFF733FF012009B05DF804FB00BFFD
:1051000050E4032055DF0320DAD60D00F8E3032036
:1051100000B589B0039004F069FE0D4B039983ED4F
:10512000030A04A804F0F4FD00238DF80030094BB5
:10513000049A1B7808490948FFF741F904A804F0CC
:1051400079FDFFF70BFF012009B05DF804FB00BFFC
:1051500050E4032055DF0320F7D60D00F8E30320C9
:1051600000B589B0039004F041FE0D4B039983ED27
:10517000040A04A804F0CCFD00238DF80030094B8C
:10518000049A1B7808490948FFF719F904A804F0A4
:1051900051FDFFF7E3FE012009B05DF804FB00BFFD
:1051A00050E4032055DF032013D70D00F8E303205C
:1051B00000B589B0039004F019FE0D4B039983EDFF
:1051C000050A04A804F0A4FD00238DF80030094B63
:1051D000049A1B7808490948FFF7F1F804A804F07D
:1051E00029FDFFF7BBFE012009B05DF804FB00BFFD
:1051F00050E4032055DF03202FD70D00F8E30320F0
:10520000F0B5ADF50D7D4FF400740CAE22460021D3
:10521000304606F081F90023BE4A8DF8203007A8F9
:1052200007920B93CDE9096404F0B1FABA4907A8D3
:10523000FFF792F8044601F0FFFD4168002900F0F5
:1052400097800C312046FFF795F8B449B44C07A875
:10525000FFF782F8B349FFF78DF8B34907A8FFF7C6
:105260007BF8A16A05460A2203A804F06EFD059AA0
:105270000399284604F03EFB03A804F0DBFCAB498D
:1052800007A8FFF769F807A804F081FAA36A012BC1
:1052900070D1A749A74D07A8FFF75EF8217F04F05A
:1052A00083FAA54907A8FFF757F80746286805F0CD
:1052B00027FD41EC100B384604F0A0FA9F4907A8DF
:1052C000FFF74AF8617F04F06FFA9D4907A8FFF7DE
:1052D00043F80746686805F013FD41EC100B3846AB
:1052E00004F08CFA974907A8FFF736F8A17F04F07D
:1052F0005BFA954907A8FFF72FF80746A86805F05D
:10530000FFFC41EC100B384604F078FA8F4907A8EF
:10531000FFF722F8E17F04F047FA8D4907A8FFF76D
:105320001BF80746E86805F0EBFC41EC100B38462B
:1053300004F064FA874907A8FFF70EF894F82010E4
:1053400004F032FA844907A8FFF706F807462869EF
:1053500005F0D6FC41EC100B384604F04FFA7F49BB
:1053600007A8FEF7F9FF94F8211004F01DFA70E089
:105370007B4967E7022B40F09A806D496D4D07A885
:10538000FEF7EAFF012104F027FA6B4907A8FEF7B0
:10539000E3FF0746286805F0B3FC41EC100B3846E4
:1053A00004F02CFA654907A8FEF7D6FF012104F0A6
:1053B00013FA634907A8FEF7CFFF0746686805F0B0
:1053C0009FFC41EC100B384604F018FA5D4907A821
:1053D000FEF7C2FF012104F0FFF95B4907A8FEF7C1
:1053E000BBFF0746A86805F08BFC41EC100B384664
:1053F00004F004FA554907A8FEF7AEFF012104F0B6
:10540000EBF9534907A8FEF7A7FF0746E86805F040
:1054100077FC41EC100B384604F0F0F94D4907A831
:10542000FEF79AFF012104F0D7F94B4907A8FEF7D0
:1054300093FF0746286905F063FC41EC100B3846E2
:1054400004F0DCF9454907A8FEF786FF012104F0C6
:10545000C3F9444907A8FEF77FFF0746686905F0CE
:105460004FFC41EC100B384604F0C8F907A804F0D3
:1054700078F93D4907A8FEF76FFF617804F094F9C9
:105480003A4907A8FEF768FF616804F0A5F907A884
:1054900004F067F900238DF80030354B35491B784F
:1054A00035483246FEF78BFF0DF50D7DF0BD032B21
:1054B000DCD11F491F4D07A8FEF74EFF012104F064
:1054C0008BF91D4907A8FEF747FF0746286805F036
:1054D00017FC41EC100B384604F090F9174907A867
:1054E000FEF73AFF012104F077F9154907A8FEF706
:1054F00033FF0746686805F003FC41EC100B3846A3
:1055000004F07CF90F4907A8FEF726FF012104F0FB
:1055100063F9EEE6B0E60D0035DF0D004AD70D0069
:10552000B8E50320C4E10D0052D70D0061D70D008E
:1055300069D70D0050E403207CD70D008ED70D00F5
:10554000A1D70D00B3D70D00C8D70D00DCD70D00D3
:10555000F0D70D0003D80D0017D80D002AD80D0084
:10556000F0E70D003DD80D004FD80D005FD80D00BD
:1055700055DF032069D80D00F8E3032038B504682F
:1055800005467CB16368013B63605BB923682046D4
:105590009B689847A368013BA3601BB9236820461A
:1055A000DB689847284638BD1FB54B6801938B6868
:1055B0000293044613B1586801305860CB680393D6
:1055C00001A9204601F0F9F902A8FFF7D7FF20460C
:1055D00004B010BD10B58AB00A46014603A8FFF713
:1055E000E3FF039B0193049B0599029313B15A684F
:1055F00001325A6001AA06A804F064F802A8FFF775
:10560000BDFF07A8089CFFF7B9FF04A8FFF7B6FF86
:1056100020460AB010BD00002DE9F047ADF5567DDB
:1056200012A803F017F9934B934C9B6A012B40F09F
:10563000A78001F0A3F891494068FFF7CBFF064629
:1056400001F09CF88E494068FFF7C4FF074601F05F
:1056500095F88C494068FFF7BDFF804601F08EF851
:1056600089494068FFF7B6FF814601F087F887490E
:105670004068FFF7AFFF824601F0DEFB4568002D72
:105680007CD00C35606905F03BFBCDE91001206949
:1056900005F036FBCDE90E01E06805F031FBCDE900
:1056A0000C01A06805F02CFBCDE90A01606805F04B
:1056B00027FBCDE90801206805F022FB129B744A04
:1056C000CDE90601CDE904534FF400713346CDE92D
:1056D000029ACDE9007856A803F07CF9606905F0DC
:1056E0000FFBCDE90A01206905F00AFBCDE90801AD
:1056F000E06805F005FBCDE90601A06805F000FBB8
:10570000CDE90401606805F0FBFACDE902012068EB
:1057100005F0F6FACDE900015E4A4FF4807116A853
:1057200003F058F95C4D5D495D4800268DF8006036
:105730002B7816AAFEF743FE8DF8006059492B78A6
:10574000574856AAFEF73BFE2368A3616368E361EE
:10575000A3682362E36863622369A3626369E36207
:10576000514B01221A7002F06FFE504B186012A8C4
:1057700004F060FA0DF5567DBDE8F0874C4D81E7E9
:10578000022B40F09B8000F0F9FF3C494068FFF796
:1057900021FF064600F0F2FF39494068FFF71AFF83
:1057A000074600F0EBFF37494068FFF713FF8046DC
:1057B00000F0E4FF34494068FFF70CFF814600F039
:1057C000DDFF32494068FFF705FF824601F034FBF8
:1057D0004568002D4CD00C35206D05F091FACDE9CF
:1057E0001001E06C05F08CFACDE90E01A06C05F01B
:1057F00087FACDE90C01A06B05F082FACDE90A0128
:10580000606B05F07DFACDE90801206B05F078FAB0
:10581000129B284ACDE90601CDE904534FF40071EB
:105820003346CDE9029ACDE9007856A803F0D2F8C4
:10583000206D05F065FACDE90A01E06C05F060FA2B
:10584000CDE90801A06C05F05BFACDE90601A06B7B
:1058500005F056FACDE90401606B05F051FACDE987
:105860000201206B05F04CFA134ACDE9000154E720
:105870000F4DB1E7B8E5032068E403207ED80D00A2
:1058800084D80D0088D80D008DD80D0095D80D0056
:105890009CD80D00A7D90D0055DF0320D8DE0D00E0
:1058A000F8E30320EDDE0D0077DF0320ECE50320B5
:1058B000F0E70D0029DA0D0036DB0D00032B76D161
:1058C00000F05CFF77494068FFF784FE064600F071
:1058D00055FF75494068FFF77DFE074600F04EFF13
:1058E00072494068FFF776FE804600F047FF704936
:1058F0004068FFF76FFE814600F040FF6D49406849
:10590000FFF768FE824601F097FA4568002D4CD0FB
:105910000C35606905F0F4F9CDE91001206905F056
:10592000EFF9CDE90E01E06805F0EAF9CDE90C01E7
:10593000A06B05F0E5F9CDE90A01606B05F0E0F92F
:10594000CDE90801206B05F0DBF9129B5A4ACDE93D
:105950000601CDE904534FF400713346CDE9029AB4
:10596000CDE9007856A803F035F8606905F0C8F96C
:10597000CDE90A01206905F0C3F9CDE90801E06825
:1059800005F0BEF9CDE90601A06B05F0B9F9CDE946
:105990000401606B05F0B4F9CDE90201206B05F05C
:1059A000AFF9464ACDE90001B7E6454DB1E7042B12
:1059B0007FF4B8AE00F0E2FE3A494068FFF70AFE15
:1059C000064600F0DBFE38494068FFF703FE074655
:1059D00000F0D4FE35494068FFF7FCFD804600F03A
:1059E000CDFE33494068FFF7F5FD814600F0C6FE65
:1059F00030494068FFF7EEFD824601F01DFA456828
:105A0000002D4CD00C35606905F07AF9CDE9100114
:105A1000206905F075F9CDE90E01E06E05F070F929
:105A2000CDE90C01A06E05F06BF9CDE90A01606EBD
:105A300005F066F9CDE90801206E05F061F9129BC9
:105A4000204ACDE90601CDE904534FF400713346F5
:105A5000CDE9029ACDE9007856A802F0BBFF606953
:105A600005F04EF9CDE90A01206905F049F9CDE9C3
:105A70000801E06E05F044F9CDE90601A06E05F0DD
:105A80003FF9CDE90401606E05F03AF9CDE9020174
:105A9000206E05F035F90C4ACDE900013DE6084DD0
:105AA000B1E700BF7ED80D0084D80D0088D80D0066
:105AB0008DD80D0095D80D00BADB0D00C6DC0D00A9
:105AC000F0E70D0049DD0D0055DE0D0037B5794CCE
:105AD0002378013B052B17D8DFE803F0C603647079
:105AE0004A93754B5B7A2BB1744B1B78022B01D018
:105AF000FEF798FF04F03FFB0A2390FBF3F202FB52
:105B000013030BB90523237001F096F901F070F926
:105B100000F034FE00F04DFE694802F06FF8694B6A
:105B20001B780BB1FEF756FF674C23783BB130234F
:105B3000614A6648012101F084FC00232370644C13
:105B4000237843B18C23634A60484FF4007101F01D
:105B500078FC00232370604C23783BB118235F4A04
:105B60005A48A02101F06DFC0023237003B030BD22
:105B7000514D6A7A2AB1514B1B78052B01D0FEF7A3
:105B800051FFFEF7F5FF08B10423BCE704F0F3FA78
:105B90006B6A90FBF3F202FB13030BB90323B2E72A
:105BA0000223B0E7444B5B7A2BB1444B1B78032BA9
:105BB00001D0FEF737FFFEF7DBFFE5E73E4B5B7AF0
:105BC0002BB13E4B1B78042B01D0FEF72BFF02F0CC
:105BD00039FE68B104F0E0FA0C2805D102F032FE7B
:105BE00010B1002002F04EFEFFF716FD06238AE7F3
:105BF00002F020FE0223237002F026FC384B1860CE
:105C000082E72D4B5B7A2BB12C4B1B78062B01D0F6
:105C1000FEF708FF334B1B7843B904F0ACFA0A23B4
:105C200090FBF3F202FB1303002BB9D002F00CFC43
:105C30002D4B1B68C01A4AF6C87398427FF664AFB2
:105C400002F002FC264D294A286000238DF800301E
:105C5000274B28491B782848FEF7B1FB0123237006
:105C600002F0F2FB28604FE7144B1B78012B01D0A8
:105C7000FEF7D8FE02F0E8FB194B1B6803F59223F0
:105C800003F578738342BFF43FAF02F0DBFD48B108
:105C900000238DF80030164B184A1B781849164817
:105CA000FEF78DFB4FF4FA6002F0E4FE04F0E8F832
:105CB0002AE700BFB5E50320B8E50320F4E303209D
:105CC00034E40320E9E50320E8E50320C8E30320EA
:105CD000F4E4032068E4032076DF032050E403208B
:105CE00030E4032077DF0320ECE50320F0E70D002C
:105CF00055DF0320F9DE0D00F8E3032012DF0D006D
:105D000026DF0D001FB5094B094A1B781278094997
:105D100013438DF8003000223C2302A803F03AF828
:105D200003A8FFF72BFC05B05DF804FB54DF03204C
:105D300055DF03202CDF0D0010B588B000F01EFDEC
:105D4000164A416804A8FFF72FFC04A803F0B2FB31
:105D5000044605A8FFF712FCDCB100F00FFD0F4967
:105D60004068FFF737FC014604A803F0AEFF0C4B78
:105D7000049A1B780B498DF8003002A83C2303F0ED
:105D800009F803A8FFF7FAFB04A803F053FF08B0D3
:105D900010BD05490548FEF7FBFAF8E77ED80D006F
:105DA00055DF03202EDF0D003ADF0D0014E603203F
:105DB000FFF7C2BF10B5036888B05B680446984718
:105DC000019005F004FC0199024605A803F0B6FD18
:105DD000DDE905120023CDE90533636803936160B3
:105DE000A368A26004A80493FFF7C8FB079BE360C5
:105DF00006A8FFF7C3FB08B010BD000010B5044BA8
:105E0000044640F8043B0430FFF7B8FB204610BDC1
:105E10001CE10D0010B50446FFF7F0FF20461821E5
:105E200004F0DDFC204610BD13B50B460246D0E958
:105E300000016C4684E8030093E8030082E8030055
:105E400094E8030083E8030002B010BD2DE9F04799
:105E500000219AB0082004F03BFC0121052004F049
:105E600037FCFEF7B7FD0023009301224FF0FF330C
:105E7000B549082003F0CEF9B44B0AAA03F1100586
:105E8000174618685968144603C40833AB422246C3
:105E9000F7D119889B78A3702D2221800DF13B004A
:105EA0000021AB4C002605F037FB02A8267002F05B
:105EB000D1FC02A906A803F02BFFA64906A803F00F
:105EC0006EFFCDE9006633463246A349006802F012
:105ED000D1FC06A803F0AEFE02A803F0ABFE9F497A
:105EE0009F48FEF7CEF99F499F48FEF7CAF99F49A0
:105EF0009F48FEF7C6F933469E499F48022202F0AA
:105F000081FC334601229D499D4802F07BFC9D495E
:105F10009D48FEF7B6F99D499D48FEF7B2F99D49A7
:105F20009D48FEF7AEF99D499D48FEF7AAF99D49A7
:105F30009D48FEF7A6F99D499D48FEF7A2F9334614
:105F40009C499D48022202F05DFC334602229B4997
:105F50009B4802F057FC9B499B48FEF7D3F99B49AD
:105F60009B48FEF7CFF99B499B48FEF7CBF99B492D
:105F70008348FEF7C7F99A499A48FEF7C3F99A4948
:105F80009A48FEF7BFF99A499A48FEF7BBF99A4931
:105F90009A48FEF7B7F99A499A48FEF7B3F99A4931
:105FA0009A48FEF7AFF99A499A48FEF7ABF99A4931
:105FB0009A48FEF7A7F99A499A48FEF7A3F99A4931
:105FC0009A48FEF79FF99A499A48FEF79BF99A4832
:105FD00001F00EFD3146984801F047FE00F0CEFB7F
:105FE000964B05930546964B0493022202A906A8F8
:105FF0000896FEF788F8059B099305F10C01049BB0
:10600000089306A8FFF710FF089B6A6908926B6166
:10601000099BAA69099206A8AB61FEF736F9894B7C
:10602000EB612C20FEF737F8064610B1864900F0E8
:10603000F3FBAE601820FEF72EF8064630B1834918
:106040004FF4807200F058FB814B336028466E603D
:1060500000F022FD02A8FEF718F900F0EDFE7D4BDE
:10606000099306A97C4B089300F002FF06A8FEF7EF
:106070000CF900F0E1FE794900F064FF784801F086
:1060800053F90123764806AA002101F08FF99DF803
:106090001830162B4BD0724801F050F9714A7048F5
:1060A0000423002101F0CDF901236D4806AA002147
:1060B00001F07CF99DF81830162B29D001232370AC
:1060C000694DFEF717FCFEF7E5FBFEF7E9FE6B787E
:1060D000002B00F0E380002002F0C6F94FF0000A28
:1060E0000646002002F0C0F9B0EB060861EB0A0991
:1060F000002347F22F524B4508BF4245C0F0C080F5
:1061000002F0A0FB002840F0BB8002F08BFBE8E728
:1061100000238DF80030554B554A1B785549564899
:10612000FEF74DF9FEF75AFBFEF788FBC8E7534A26
:106130004B481823A02101F039F94B4A4848302335
:10614000012101F033F9BBE7E1400D0084E10D00CE
:10615000B5E5032048DF0D00D9430D00C4E10D0073
:106160004AD70D0066DF03206DDF0D0056DF0320E8
:1061700075DF0D00BCE5032084DF0D00B9E50320C9
:106180007ED40D0035E50320D2DF0D0095E5032018
:10619000E3DF0D0075E50320F4DF0D0015E50320B6
:1061A00007E00D00F5E4032019E00D0055E503209C
:1061B0002BE00D00DCE5032093DF0D00E0E503207C
:1061C000A6DF0D0021410D00B5DF0D00DD450D00FE
:1061D000C1DF0D0009450D00B9D40D006D440D005F
:1061E00021500D00CEDF0D0071500D00DFDF0D00DE
:1061F000C1500D00F0DF0D0011510D0003E00D0046
:1062000061510D0015E00D00B1510D0027E00D00AA
:106210003D410D0038E00D005D460D0046E00D00EB
:106220002D470D0052D70D0085450D0055E00D009E
:106230008D470D0071E00D0034E40320B15D0D00C9
:1062400007410D00805101007FE00D0000F40320A4
:1062500044E10D0011410D0013410D0014F5032020
:10626000C8E30320CCE10D00B8E5032055DF03208F
:1062700096E00D00A1E00D00F8E3032050E40320B8
:1062800002F0E0FA6868FEF743F86B6814484FF4D0
:106290007A716FF000425943FEF74DF8FEF75EFE4B
:1062A000FEF766FC6B7A4BB100238DF800300D4B86
:1062B0000D491B780D483A46FEF781F802F0C2FA04
:1062C00010B902F0AFFAF9E702F0BCFAFEF798FF56
:1062D00023780BB9022323701AB0BDE8F08700BF02
:1062E000D8E3032055DF0320B2E00D00F8E30320DC
:1062F000F0B54F4B4F4D504E01271F704F4B0222B0
:1063000087B01A7004F08EF900231A4642F6D6516F
:1063100004F090F904F086F900231A460C210024B9
:1063200004F090F9464BAB602C60AC80AC71384601
:1063300002F012FA32464349284604F04BFA21464D
:10634000384602F019FA3946042002F05DF804F0EC
:1063500019FA3D4D014623464FF40052284600F0FD
:10636000D9FF3A4B2B6032463949284604F032FABD
:1063700004F008FA374D0146284601F041FA284654
:10638000354D3649324604F025FA35494FF400625E
:10639000284601F0ABFE334B2B603246324928468B
:1063A00004F018FA314B0293314B324D0593324BC6
:1063B0000493324B2B602C71AC606C6105F10C01C5
:1063C00002A8FFF731FD6A69049B6B610492059B8B
:1063D000AA690592AB612A4A2B464FF47A71CDE93E
:1063E000004405F1080001F0B7FF02A8FDF74DFFDA
:1063F0002846244D2449324604F0ECF92146C5E9EB
:106400000C44C5E90F44C5E91244C5E91544AC6321
:106410006C642C65EC65102205F1600005F07CF8D9
:106420001022214605F1700005F076F807B0F0BDA6
:1064300055DF032048DF032008DF032054DF03205B
:106440000000FFFF73420D00C8E3032000E10D00D0
:1064500011420D0034E40320F8E303208B750D0096
:1064600040F50320D8E00D00E9410D00055D0D0069
:10647000ED400D00D8E30320F1400D00C4E00D0015
:1064800039420D0068E403209D420D000000000029
:1064900082B02DE9F84F0AA981E80C00344BDFF8EF
:1064A000D4B00022C0E90423044640F27E654FF0D8
:1064B000000ABDF8280004F035F9D4E90489206009
:1064C00004F00CFC42464B4606460F4604F0B8FA70
:1064D00052465B4604F06CFC42464B4604F0B2FA6E
:1064E00002460B46C4E904233046394604F0A8FAB4
:1064F00002460B46C4E9022304F05AFC02460B464E
:10650000C4E90623D4E9082304F09CFA013D0646B9
:106510000F46C4E90867CCD1DDE90C0110A3D3E92B
:10652000002304F045FC10A3D3E9002380468946EC
:106530003046394604F066FD41EC100B04F058F982
:1065400000220023C4E9082351EC100B42464B46BD
:1065500004F02EFCBDE8F84F41EC100B02B0704780
:106560006666666666664A3F0000000000F899406D
:106570000000A0400000303F7047704700691430B1
:106580007047012A034602D1016000207047022AA9
:1065900004BFD1E90001C3E90001F6E710B5044BDF
:1065A000044640F80C3B03F045FB204610BD00BFFD
:1065B00030E30D0010B50446FFF7F0FF20461C2124
:1065C00004F00DF9204610BD10B5054B044640F807
:1065D0001C3B03F02FFB2046FFF7E0FF204610BDD9
:1065E00014E30D0010B50446FFF7EEFF20462C2102
:1065F00004F0F5F8204610BD13B504460846019195
:1066000004F0E5FF6369013B83420FD920690199DA
:10661000143004F0B7FF23682046DB6898472368EE
:106620001B6A204602B0BDE810401847002002B0A7
:1066300010BD10B442680346541001EB6200D2074B
:1066400048BF0A591B685DF8044B48BFD358184728
:10665000022A38B5044607D0032A11D0012A01D1F5
:106660000B682360002038BD0C200D68FDF713FD7A
:1066700003460028F5D095E8070083E80700F0E717
:1066800000680028EED00C2104F0A9F8EAE770B405
:10669000036809685C689D681B681268661005EBF2
:1066A0006400E40744BFAC59E35870BC18470000CD
:1066B00010B5064B044640F8243BFDF7E6FD04F117
:1066C0000C00FDF7E2FD204610BD00BFD4E20D0036
:1066D00010B50446FFF7ECFF2046382104F07FF8A0
:1066E000204610BD08B503685B68984700780038FD
:1066F00018BF012008BD000010B50024C0E9014406
:10670000C460024C0460C0E9041210BDE8E20D0050
:1067100070B504460069114D0268AA4206D103799A
:10672000142B03D1C288A38A9A4211D01426324670
:10673000002104F0F1FE23691D6023691E71D4E974
:106740000432DA80D4E904020021304404F0E4FE8B
:1067500023682046DB68BDE87040184753DD51725E
:10676000054A02600022C0E90122C0E90722426115
:10677000C2624263704700BFD4E20D0010B5064C00
:1067800023683BB93820FDF786FC034608B1FFF7C4
:10679000E7FF2360206810BDF4E5032007B50192F0
:1067A000FFF7ECFF036801991B6803B05DF804EB89
:1067B000184710B50446406803681B699847A068ED
:1067C00010B103685B689847E36A33B1236B2146D5
:1067D00004F12400BDE81040184710BD10B58AB080
:1067E000044606A8019102F035F8019B069A094972
:1067F00002A803F00DFB06A803F01CFA029904F1AD
:106800000C0003F090FA02A803F014FA20460AB034
:1068100010BD00BFD0E10D004FF4FA624EF66023C8
:1068200070B5C0E9012304460C4B40F80C3B0D4603
:1068300026460B4903F049FA0A4B46F81C3B084927
:10684000304603F042FA2946304603F06CFA2946F6
:106850002046FFF7C3FF204670BD00BF30E30D00A8
:10686000F0E70D0014E30D00826810B50AB903F0DB
:10687000BCFFBDE81040C3681847000038B50446A7
:106880000A460A480D460A49FDF782FD6068022360
:10689000236248B1036829465B69984763691BB165
:1068A00004F10C00FFF7E0FF012038BD14E60320DF
:1068B000E5E10D001FB50446C26909490948FDF725
:1068C00067FD094B094A1B78E1698DF8003002A881
:1068D0003C2302F05FFA03A8FEF750FE04B010BD9F
:1068E000FAE10D0014E60320F0E50320F0E70D00C7
:1068F00038B5002383608B6804460D462BB1022215
:106900009847EB68E360AB68A360204638BD0000A1
:1069100070B58AB0C668044600250C200495FDF7C2
:10692000BAFB18B1134B8460C0E90035124B0290DA
:10693000059302A9114B049306A8FFF7D9FF089B02
:1069400083B11020FDF7A7FB044658B106A9FFF755
:10695000CFFF0023CDE90033094901232246304609
:1069600001F088FF06A8FDF790FC02A8FDF78DFC5A
:106970000AB070BD9D670D008F660D0051660D0059
:10698000938B0D000B68036013B15A6801325A6093
:10699000704737B58D6851F8043B0093044601A851
:1069A000FFF7F0FF6A462946204602F0AFFE01A835
:1069B000FEF7E4FD204603B030BD70B58CB0044650
:1069C00006A81646FFF7E5FF06A802F0B7FE002866
:1069D0002DD0099D069B009307A901A8FFF7D2FFC0
:1069E00029466A4602A802F06DFE01A8FEF7C6FD20
:1069F0000498314604F0BCFD054603A8FEF7BEFD31
:106A0000002DE1D10A9D069B029307A903A8FFF779
:106A1000B9FF02AA2946204602F03EFD03A8FEF770
:106A2000ADFD07A8FEF7AAFD20460CB070BDC4E975
:106A30000000A060F5E7000010B5D1E9002386B0A2
:106A40000021044604910AB9D90705D5CDE90223EE
:106A50000F4B05930F4B049302AB93E803006A4678
:106A600082E8030094E8030083E8030092E803004F
:106A7000049A84E80300A168A260059A049118466C
:106A8000E168E2600591FDF700FC204606B010BD0C
:106A900033660D0083650D0013B50446406880B170
:106AA00003689B689847A06858B103681B689847BB
:106AB000054B00936946002304F124000193FFF77E
:106AC000BBFF02B010BD00BFCD6A0D0013B5044678
:106AD0004068FFF707FE28B163691BB104F10C00A1
:106AE000FFF7C2FE054B00936946002304F1240022
:106AF0000193FFF7A1FF02B010BD00BF016B0D00B5
:106B000013B5044601F09EFE90B103F017FB78B177
:106B100008490948FDF73CFC084B009369460023EF
:106B200004F124000193FFF787FF01F08DFC6063FF
:106B300002B010BD23E20D0014E60320416B0D00EE
:106B400037B5044601F080FC636BC01AA3685B682C
:106B5000984217D36068FFF7C5FD04F1240598B18A
:106B6000E369013310D00B490B48FDF711FC01F02C
:106B70006BFC0A4B6063009369460023284601932F
:106B8000FFF75AFF03B030BD05490348FDF700FC8D
:106B9000044BF0E733E20D0014E60320A96B0D006F
:106BA00043E20D000D6C0D0037B5044601F04CFCBE
:106BB000636BC01A42F20F7398421ED903F0BEFAFB
:106BC000D8B1E369002B18DD03F0D5FA05466068FB
:106BD00003681B6898478068E3692D1A9D420CDDA5
:106BE00007490848FDF7D4FB074B0093694600238B
:106BF00004F124000193FFF71FFF03B030BD00BF75
:106C000060E20D0014E603200D6C0D0037B504465C
:106C10000F491048FDF7BCFB606803681B68984784
:106C2000054603F0A8FA0123A860236201F00CFCDA
:106C3000094B606300936946002304F1240001932B
:106C4000FFF7FAFEA06803689B68984703B030BD61
:106C500079E20D0014E603205D6C0D0013B5036AA4
:106C6000012B04461BD101F0EFFB636BC01AA36834
:106C70009B68984211D90C490C48FDF789FB042305
:106C8000236201F0E1FB0A4B606300936946002335
:106C900004F124000193FFF7CFFE02B010BD0549B7
:106CA0000248FDF775FBECE78AE20D0014E60320CD
:106CB000A96B0D00AAE20D00014B00221A7070476B
:106CC000F0E503207047012A034602D1016000204D
:106CD0007047022A04BFD1E90001C3E90001F6E7C9
:106CE00013B504461046019204F071FC63680199E3
:106CF00002461E2A03F10C0006D804F043FC0123CF
:106D000084F8353002B010BD1F2204F07AFC6368AD
:106D1000002283F82B20F2E710B442680346541097
:106D200001EB6200D20748BF0A591B685DF8044BAB
:106D300048BFD3581847022A38B5044607D0032A5B
:106D400011D0012A01D10B682360002038BD0C202E
:106D50000D68FDF7A0F903460028F5D095E8070077
:106D600083E80700F0E700680028EED00C2103F06C
:106D700036FDEAE770B4036809685C689D681B68C3
:106D80001268661005EB6400E40744BFAC59E35891
:106D900070BC184710B5064B044640F8203BFDF781
:106DA00074FA04F11000FDF770FA204610BD00BF20
:106DB00064E30D0010B50446FFF7ECFF20463821D0
:106DC00003F00DFD204610BD10B5034B03600446D3
:106DD000FFF7E0FF204610BD78E30D0010B5044634
:106DE000FFF7F2FF2046382103F0F9FC204610BDE2
:106DF000836A014613B1C36A203018477047000008
:106E000030B5074A0260002400220025C0E902458F
:106E10004260826182620263828680F8362030BDE1
:106E200064E30D0008B50346FFF7EAFF014A1A6064
:106E3000184608BD78E30D0010B5064C23683BB931
:106E40003820FDF728F9014608B1FFF7EBFF216074
:106E5000206810BDFCE5032007B5826801910AB9DE
:106E600003F0C3FCC36801A9984703B05DF804FBB5
:106E70007FB5002302938B6804460D4600F110068F
:106E800033B1022268469847EB680393AB680293DC
:106E900031466846FEF7C8FF029BA269A361039BC7
:106EA00002926846E269E3610392FDF7EEF920463B
:106EB00004B070BD1FB5D1E9002300210446029142
:106EC0000AB9D90705D5CDE900230B4B03930B4B2A
:106ED000029321466846FEF7A7FF029BA268A360C3
:106EE000039B02926846E268E3600392FDF7CDF9E6
:106EF000204604B010BD00BF196D0D00C76C0D0019
:106F000073B5044640680D4D0268AA4202D1037968
:106F10002C2B08D02C263246002104F0FDFA6368A1
:106F20001D6063681E71064B00936946002304F1DF
:106F300020000193FFF7BEFF02B070BDF2A2877779
:106F40004D6F0D004160FFF7DBBF000037B54168B2
:106F50000B7B044600F1200593B183691BB10C3112
:106F60001030FFF779FF0A4B00936946002328464B
:106F70000193FFF79FFF01F067FA206303B030BD74
:106F8000044A69462846CDE90023FFF793FFF5E759
:106F9000E9700D0071710D0013B5044601F052FC4B
:106FA00070B103F0CBF858B1064B0093694600234B
:106FB00004F120000193FFF77DFF01F045FA206303
:106FC00002B010BDC96F0D0030B5054685B001F0A7
:106FD0003BFA2B6BC01AB0F5FA6F29D3154B164943
:106FE0001B788DF80030002285F835203C2302A85C
:106FF00001F0D0FE039C7CB16368013B63605BB928
:10700000236820469B689847A368013BA3601BB98F
:1070100023682046DB689847084B029302A90023A7
:1070200005F120000393FFF745FF01F00DFA2863F7
:1070300005B030BDF8E5032044E30D0041700D00BC
:1070400073B590F8355004461DB34668337B00F1A4
:107050002005DBB103F08FF8B060236820469B6801
:107060009847A3692BB1616804F110000C31FFF758
:10707000F3FE0F4B00930023019369462846FFF768
:1070800019FF01F0E1F9206302B070BD094A0092D6
:10709000F2E701F0D9F9236BC01A43F6972398421F
:1070A000F2D9044B6946CDE9003504F12000E6E74A
:1070B000E9700D00B9700D0013B5044601F0C4F974
:1070C000236BC01A064B984208D9064B00936946B9
:1070D000002304F120000193FFF7ECFE02B010BD85
:1070E000DF930400996F0D00F7B5044601F0ACF989
:1070F000236BC01A42F20F7398421ED901F0A4F913
:1071000094F8365020635DB1184A0023CDE900237E
:1071100084F83630694604F12000FFF7CBFE0CE01E
:10712000D4E9022313430AD1A36A33B104F1200145
:10713000032208469847C4E90A5503B0F0BD02F09F
:10714000FDFF0028F9D06368D4E902679B68F61850
:1071500047EBE37703F00FF8C117864277EB0103A3
:10716000EBDA024BCDE90035D4E700BF71710D00B9
:1071700030B590F834508BB004466DBB0C200495AC
:10718000FCF789FF18B11A4B8460C0E90035194B30
:107190000290059302A9184B049306A8FFF7A8FBD9
:1071A000089B83B11020FCF776FF054658B106A96D
:1071B000FFF79EFB0023CDE900331049104801235F
:1071C0002A4601F057FB06A8FDF75FF802A8FDF775
:1071D0005CF8012384F834300A4B069306A9002397
:1071E00004F120000793FFF765FE0BB030BD00BF30
:1071F000E16C0D00756D0D00376D0D00938B0D006A
:1072000044E30D00996F0D00014B00221A70704786
:10721000F8E50320034BC162002280ED0E0BC0E9AC
:107220001C2370470000A0402DE9F74FDFF8C8B0DD
:107230000191044600254FF0000A019B9D422FD08A
:10724000A08D03F06FFAD4E91C89E06403F046FDD9
:1072500042464B4606460F4603F0F2FB52465B465B
:1072600003F0A6FD42464B4603F0ECFB02460B46FC
:10727000C4E91C233046394603F0E2FB02460B46C4
:10728000C4E9182303F094FD02460B46C4E9242305
:10729000D4E9260103F0D6FB0135C4E92601CCE789
:1072A00013A3D3E90023D4E90E0103F081FD0646C0
:1072B00028460F4603F002FD02460B46D4E926019C
:1072C00003F0A0FE41EC100B03F092FA32463B466D
:1072D00051EC100B03F06CFD41EC100B002200236D
:1072E000C4E90801C4E9262303B0BDE8F08F00BF5C
:1072F0006666666666664A3F0000503F704710B596
:107300001021044603F06BFA204610BD0368C9B291
:107310009B68184730B5034DC0E90223C0E900510E
:1073200030BD00BFB8E30D00406801F025BF10B5C7
:107330000446006801F063FF204610BD2DE9F041CE
:107340008AB004464068019001F050FF1E220021DF
:1073500002A8A76804F0E0F80026EFB123681E2F0A
:10736000B84628BF4FF01E08DD6802AA43463146E2
:107370002046A847054658B90A480B493246FDF74A
:1073800007F801A8FFF7D3FF28460AB0BDE8F0814F
:10739000A7EB08074644E0E701A8FFF7C8FF01256F
:1073A000F2E700BF14E6032084E30D002DE9F74364
:1073B0000446406801900D4616461F4601F016FF30
:1073C000A7B1E168606841F0500101F008FF290AA7
:1073D0006068FFF79BFF29466068FFF797FF6068CA
:1073E000002101F0FFFE48B1002400E0012401A8C3
:1073F000FFF79DFF204603B0BDE8F083202F217BDF
:107400006068B84628BF4FF020080123424641F08B
:10741000500101F0CEFE03F0B5F903681B699847EF
:107420004045E1DB06EB080903F0ACF903685B6952
:10743000984706F8010B4E45F6D14544A7EB0807DF
:10744000BEE72DE9F74F0446406801900E4690468E
:107450001D4601F0CBFE4FF00109B9F1000F2AD013
:107460004DB3E168606841F0500101F0B8FE310AA7
:107470006068FFF74BFF60683146FFF747FFA5F1F3
:107480001E0A4746A6EB080B606817F8011B036845
:10749000013D9B68984755450BEB0706B84601D060
:1074A000002DF1D16068012101F09CFE0028D7D0A9
:1074B0004FF00009D1E701A8FFF739FF484603B0B4
:1074C000BDE8F08F2DE9F0438BB00E46154680469F
:1074D000406801901C4601F089FEAE4229D2264444
:1074E00025448CB11E2C2746D8F8003028BF1E2713
:1074F000F61BD3F8089002AA3B4631464046ED1BE6
:10750000C84748B9002400E0012401A8FFF70FFF95
:1075100020460BB0BDE8F083D8F8003002AAD3F8BB
:107520000C9029463B464046C8470028EAD0E41B59
:10753000D7E7E9D9002CE7D0D8F800301E2C274631
:1075400028BF1E27D3F8089002AA3B463146404682
:10755000C8470028D6D0D8F8003002AAD3F80C903B
:1075600029463B464046C8470028CBD03E443D44D0
:10757000E41BDFE740207047002070478020704701
:10758000FF207047704770477047704710B514214F
:10759000044603F024F9204610BD10B50821044626
:1075A00003F01DF9204610BD10B50821044603F074
:1075B00016F9204610BD10B51C21044603F00FF942
:1075C000204610BD2DE9FF410368DB68044698475B
:1075D00010220146684603F09FFF236820469B68FF
:1075E0009847002507462846BD420ED27E1B2368D9
:1075F000102E28BF1026D3F818806A463346294635
:107600002046C04708B13544EEE704B0BDE8F0813C
:107610004FF48073438140F20113C360002303825F
:107620007047000008B5064B0360064B436040F20C
:107630000473038100234374FFF7EAFF08BD00BF12
:1076400098E40D000001020303090A2200F00F0074
:1076500002FB0300704708B5807AFFF7F5FF00F5DD
:10766000FA6008BDC07A00F01F00FFF7EDBF007B95
:1076700000F03F00FFF7E8BF08B5817B4A060DD553
:1076800001F01F00FFF7E0FF8B0603D50C2800D0A8
:107690000C3008BD0C2808BF0020FAE7BDE8084000
:1076A00001F03F00FFF7D0BFC07B00F07F00FFF785
:1076B000CBBF007C00F07F00FFF7C6BF10B58AB0DB
:1076C00024220446002101A803F026FF2046FFF7EC
:1076D000C2FFA0F26C7006902046FFF7C3FF01388E
:1076E00005902046FFF7C3FF04902046FFF7C4FF34
:1076F00003902046FFF7D8FF02902046FFF7D9FFFE
:10770000019001A801F0AEF90AB010BD0A2190FB6A
:10771000F1F292FBF1F301FB13231B01DBB201FB3E
:1077200012001843C0B27047642310B5044691FBA1
:10773000F3F000FB1310FFF7E9FFA07210BD10B5C6
:1077400004460846FFF7E2FFE07210BD10B504469C
:107750000846FFF7DBFF237B23F03F03184320732A
:1077600010BD10B50446481CFFF7D0FF637B23F023
:1077700007031843607310BD10B504460846FFF7B1
:10778000C5FFA07310BD10B504460846FFF7BEFF45
:10779000E07310BD10B504460846FFF7B7FF237C21
:1077A00023F07F031843207410BD37B504466846A4
:1077B000CDE9002303F076FE054641692046FFF738
:1077C000B3FF296920460131FFF7B9FFE968204678
:1077D000FFF7BCFFA9692046FFF7C3FFA968204651
:1077E000FFF7CAFF69682046FFF7CDFF29683B29EC
:1077F000A8BF3B212046FFF7CDFF03B030BD0000FE
:10780000054A0061C0E90021044A8260044AC2605E
:10781000044A806142617047CCE40D00000001031E
:1078200074E40D00A8E40D002DE9F84F04460F465E
:107830009046994600260A9B9E4231D2606839469E
:1078400001F0C9FC08EB06016068FFF75FFD6068A6
:10785000002101F0C7FC0546D0B90A9B60689A1B5D
:10786000202A4FF0010328BF2022394601F0A1FC55
:1078700009EB060B05460BEB000ADA4506D06068FB
:1078800003685B6998470BF8010BF6E72E44D2E7D3
:10789000024604490448FCF77BFD2846BDE8F88F02
:1078A0000025FAE7CCE30D0000E603202DE9F341C3
:1078B00001EB03081E4603689B6805460C46174605
:1078C000984780450DD82034686800963B46E2B260
:1078D0006F21FFF7A9FFB0FA80F0400902B0BDE8C0
:1078E000F0810020FAE72DE9F34101EB03081E4681
:1078F00003689B6804460D461746984780450CD898
:10790000606800963B46EAB25721FFF78DFFB0FA58
:1079100080F0400902B0BDE8F0810020FAE77FB5B1
:107920001E1E0CBF072306230093144602AB0A4613
:107930006F21FFF779FF0546A8B99DF80830237439
:107940009DF80930E3739DF80A30A3739DF80B305E
:1079500063739DF80C3023739DF80D30E3722EB9DC
:107960009DF80E30A372284604B070BD02F020FCD2
:10797000FFF7CCFEA072F6E71FB501230A4600937D
:107980006F2103ABFFF750FF20B99DF80C0005B045
:107990005DF804FB0020FAE708B50321FFF7ECFFD0
:1079A000C0F3401008BD38B500230C460A461946FE
:1079B0000546FFF7B4FF30B9A37A23B12846BDE8E6
:1079C0003840FFF7E9BF002038BD7FB5024601A867
:1079D000FFF728FE01A91046FFF7E5FF28B101A82F
:1079E000FFF76CFE07B05DF804FB00200146F9E7E5
:1079F000D0B5044686B0406801F0BEFB02F09EFBA5
:107A0000E8B9E37A9B071AD52046FFF7DEFF064662
:107A10000F4656EA070312D002F097FA0A4B0B49B9
:107A20001B68009332463B4602A802F045FB08481B
:107A3000029A0849FCF7ACFC02A802F0FBF801230B
:107A4000237206B0D0BD00BF28DD032040E603202E
:107A500000E60320E6E30D002DE9F84F06468846D0
:107A600091469A4600250A9B9D4229D2706841465C
:107A700001F0B1FB706809EB0501FFF747FC0A9BB9
:107A80005F1B1F2F28BF1F270AEB050407EB040B02
:107A9000706814F8011B026892689047A345F7D1FB
:107AA0007068012101F09EFB044638B10246054989
:107AB0000548FCF76DFC2046BDE8F88F3D44D2E751
:107AC0000024F8E7FBE30D0000E603202DE9F34175
:107AD00001EB03081E4603689B6805460C461746E3
:107AE000984780450DD82034686800963B46E2B23E
:107AF0006F21FFF7B1FFB0FA80F0400902B0BDE896
:107B0000F0810020FAE71FB5137C8DF80830D37B95
:107B10008DF80930937B8DF80A30537B8DF80B304C
:107B2000137B8DF80C30D37A8DF80D30937A8DF865
:107B30000E30072300930A4602AB6F21FFF78CFF3C
:107B400005B05DF804FB10B588B0044603A80193A6
:107B5000FFF768FD019B03A8FFF727FE9DF81C3087
:107B6000A27A63F07F038DF81C309DF819306AB15A
:107B700043F0080303AA002120468DF81930FFF7CF
:107B8000C2FFB0FA80F0400908B010BD03F0F7035F
:107B9000F0E70000F0B587B0054602F0CFFA0446E2
:107BA000E8B102F0E8FAC717024606463B46284607
:107BB000FFF7C9FF0C4B0D491B68009332463B464B
:107BC000044602A802F078FA0948029A0949FCF72B
:107BD000DFFB02A802F02EF8204607B0F0BD0649F0
:107BE0000348FCF7D5FBF7E728DD032040E6032038
:107BF00000E6032016E40D002CE40D0037B5457AAD
:107C000004469DB902F09AFA80B100220023694629
:107C10002846CDE9002300F045FE38B1E37ADB07C2
:107C200002D52046FFF7B6FF0123637203B030BDD3
:107C30001FB501238DF80C2000930A4603AB6F217A
:107C4000FFF70AFF05B05DF804FBF8B504460D46E2
:107C500017461E46FFF790FE00EA07023243294608
:107C60002046BDE8F840FFF7E3BF012908B50CD86E
:107C700000294FF0000314BFDF22EF220721FFF796
:107C8000E4FFB0FA80F0400908BD0020FCE738B5F9
:107C9000044632256068572101F09DFA6068012191
:107CA00001F0A0FA08B1013DF4D138BD2DE9F04151
:107CB00004460F46164602EB0308B04520D0606824
:107CC000572101F088FA39466068FFF71FFB6068AA
:107CD00016F8011B03689B6898476068012101F052
:107CE00081FA0137054638B1024606490648FCF7D5
:107CF0004FFB2846BDE8F0812046FFF7C8FFDCE7D0
:107D00000025F6E741E40D0000E60320F7B5CF18A3
:107D10001E46036801929B6804460D4698478742B9
:107D20000AD8019A60683346E9B2FFF7BFFFB0FA9C
:107D300080F0400903B0F0BD0020FBE7014B024A90
:107D40001A60704700E6032062E40D00012A034632
:107D500002D1016000207047022A04BFD1E900016E
:107D6000C3E90001F6E710B50123037483680446F4
:107D700043B1C0689847012363740020BDE81040F8
:107D800000F032BB00680028F5D083680BB902F020
:107D90002CFDC368EEE710B442680346541001EBB3
:107DA0006200D20748BF0A591B685DF8044B48BF00
:107DB000D35818470123F7B580F829300646083014
:107DC00000F0EAFA0420FCF766F9054698B31B496F
:107DD000142002F006FD30B10023C0E90033C0E9F1
:107DE0000233037443742860A0B1154B1549C0E9F0
:107DF00002364FF40063CDE900030222124B043037
:107E000000F092FA30B92B681B7CA3B9012000F076
:107E10000BFBF8E72C6800232B6064B1276837B1AF
:107E20003846FCF732FA1021384602F0D8FC14210B
:107E3000204602F0D4FC756003B0F0BDC8E70D0029
:107E400053800D00D4E40D00677D0D0047F23051E2
:107E5000084AC160084902600022C0E904120749CB
:107E6000C16107494260C0E908228161028580F84A
:107E70002A20704798E50D00BD810D00977D0D000B
:107E80004D7D0D0010B5044B044640F8103BFCF747
:107E9000FCF9204610BD00BF98E50D0010B5034B5E
:107EA00003600446FFF7EEFF204610BDC0E50D005D
:107EB00010B50446FFF7F2FF2046382102F08FFC90
:107EC000204610BD806800F06FBA806800F074BA78
:107ED00010B504460068FFF7F8FF204610BD13B543
:107EE00004460190FFF7EEFFE36ADC88A4B20CB110
:107EF00003F1080401A8FFF7EBFF204602B010BD14
:107F000013B504460190FFF7DDFF94F8283043B91C
:107F1000E26A0124D38001A8FFF7DAFF204602B00D
:107F200010BD0024F7E713B504460190FFF7CAFF20
:107F3000E36A01A8DC88FFF7CBFF204602B010BD42
:107F40002DE9F047994686B090F829309DF838A081
:107F50009DF83C8004460F46164613B903689B689B
:107F60009847314B3846002E08BF1E4603F02FFBC2
:107F70000546304603F02BFB284400F10A05AB0709
:107F80001CBF25F0030504353346CDE90285CDE954
:107F9000009A264926483A46FCF7FAF9238E083B10
:107FA000AB4212D20024204606B0BDE8F087CB8851
:107FB000012B36D005A8FFF78BFF236894F8281013
:107FC0009B69204698470028ECD020460594FFF78F
:107FD00079FFE16A228E636B0A44D21AAA42E6D381
:107FE00048EA0A0883F80480C3F80090636B03F141
:107FF00008083946404603F0C5FA404603F0E7FA60
:1080000001303146404403F0BDFA636BE26A1D441F
:108010006563D3880133D380012405A8FFF758FF97
:10802000C1E70024F9E700BFF0E70D00E6E40D002A
:1080300004E6032008B5044600F11005A3690BB956
:1080400002F0D3FBE36921462846984700F074F913
:10805000F4E708B5FFF7EEFF68B501F1080506463D
:10806000284603F0B4FA01300544284603F0AFFA7D
:10807000F36A01302844C31A13F003031CBFC3F191
:108080000403C01868BDF7B504460E460190FFF71B
:1080900019FFE76AFB8807F10805E6B1012B22D931
:1080A00029462046FFF7D8FF054629462046FFF718
:1080B000D3FF228E3A44121A0146A0EB050602D0E5
:1080C000284603F00FFA636B9B1B6363FB88013B3D
:1080D000FB80012601E0002BE7D101A8FFF7F8FEA5
:1080E000304603B0F0BD0026F7E700002DE9F04769
:1080F0000D4604462F461646FFF7A8FE154B57F8C7
:10810000082B2360144BE5629A422686984617D1C5
:10811000AB889BB2B34213D105EB060A67634FF0FD
:108120000009EB881FFA89F29BB29A420ED2616B6A
:108130002046FFF791FF5045606309F10109F0D92E
:108140000023C5F800806763AE80EB802046BDE861
:10815000F08700BFC0E50D0061AB9CD110B5D1E93F
:10816000002386B00021044604910AB9D90705D539
:10817000CDE902230F4B05930F4B049302AB93E819
:1081800003006A4682E8030094E8030083E80300E2
:1081900092E80300049A84E80300A168A260059AAB
:1081A00004911846E168E2600591FCF76EF82046FC
:1081B00006B010BD977D0D004D7D0D0007B5054B38
:1081C00000936946002310300193FFF7C7FF03B007
:1081D0005DF804FB05820D0013B5044600F034F988
:1081E000636AC01AE368984208D3054B0093694656
:1081F000002304F110000193FFF7B0FF02B010BD9F
:1082000005820D002DE9F04190F82A3086B0044631
:10821000002B64D100F016FB002860D000F014F9A8
:10822000636AC01A40F2F133984258D92368204655
:108230005B6998470546002851D000F108070123E3
:1082400084F82830384603F0C2F995F80480CDF858
:10825000048001302B682B4900933E1833462A488E
:108260003A46FCF795F82B688DF80080324639467F
:1082700002A800F08FFD029D6B781BB9012000F071
:10828000F9FBF8E7002000F07FFA20B16B7813B912
:1082900000F0C8FAFAE72B78012B23D11B491A48C2
:1082A000FCF776F8236800219B6920469847002355
:1082B00084F8283000F0C8F86062039C7CB16368E1
:1082C000013B63605BB9236820469B689847A368BD
:1082D000013BA3601BB923682046DB68984706B0C2
:1082E000BDE8F081E2680A490748FCF751F8094BFC
:1082F000049304A9002304F110000593FFF72EFF57
:10830000D5E700BF27E50D0004E6032048E50D0092
:108310005FE50D00D9810D00014B024A1A607047DC
:1083200004E6032086E50D0008B5024B1B685B6878
:10833000019308BD4802030008B5024B1B68DB68C7
:10834000019308BD4802030008B5024B1B68DB69B6
:10835000019308BD4802030008B5024B1B681B6A65
:10836000019308BD4802030008B5024B1B685B6A15
:10837000019308BD4802030008B5024B1B689B6AC5
:10838000019308BD4802030008B5024B1B68DB6A75
:10839000019308BD4802030008B5024B1B681B6B24
:1083A000019308BD4802030008B5024B1B689B6B94
:1083B000019308BD4802030008B5024B1B681B6C03
:1083C000019308BD4802030008B5024B1B685B6CB3
:1083D000019308BD4802030008B5024B1B689B6C63
:1083E000019308BD4802030008B5024B1B68DB6E11
:1083F000019308BD4802030008B5024B1B681B6FC0
:10840000019308BD4802030008B5024B1B685B6E70
:10841000019308BD3402030008B5024B1B685B687A
:10842000019308BD1802030008B5024B1B689B6846
:10843000019308BD1802030008B5024B1B68DB68F6
:10844000019308BD1802030008B5024B1B685B6965
:10845000019308BD1802030008B5024B1B689B6D11
:10846000019308BD1802030008B5024B1B68DB6DC1
:10847000019308BD1802030008B5024B1B685B6E30
:10848000019308BD1802030008B5024B1B689B6EE0
:10849000019308BD1802030008B5024B1B685B6816
:1084A000019308BD2C02030008B5024B1B689B68B2
:1084B000019308BD2C02030008B5024B1B68DB6862
:1084C000019308BD2C02030008B5024B1B681B6911
:1084D000019308BD2C02030008B5024B1B689B6981
:1084E000019308BD2C02030008B5024B1B68DB6931
:1084F000019308BD2C02030008B5024B1B681B6BDF
:10850000019308BD2C02030008B5024B1B68DB6811
:10851000019308BD2802030008B5024B1B689B6944
:10852000019308BD2802030008B5024B1B68DB69F4
:10853000019308BD2802030008B5024B1B681B6AA3
:10854000019308BD2802030008B5024B1B685B6A53
:10855000019308BD2802030008B5024B1B689B6A03
:10856000019308BD2802030008B5024B1B68DB6AB3
:10857000019308BD2802030008B5024B1B681B6B62
:10858000019308BD2802030008B5024B1B685B6B12
:10859000019308BD2802030008B5024B1B681B6C41
:1085A000019308BD2802030008B5024B1B689B6CB1
:1085B000019308BD2802030008B5024B1B68DB6C61
:1085C000019308BD2802030008B5024B1B681B6D10
:1085D000019308BD2802030008B5024B1B685B69C4
:1085E000019308BD6402030008B5024B1B689B6839
:1085F000019308BD6802030008B5024B1B68DB68E5
:10860000019308BD6802030008B5024B1B68DB69D3
:10861000019308BD3002030008B5024B1B681B6ABA
:10862000019308BD3002030008B5024B1B681B68AC
:10863000019308BD3C02030008B5024B1B68DB68D0
:10864000019308BD3C02030008B5024B1B681B697F
:10865000019308BD3C02030008B5024B1B685B692F
:10866000019308BD3C02030008B5024B1B689B69DF
:10867000019308BD3C02030008B5024B1B68DB698F
:10868000019308BD3C02030008B5024B1B681B6A3E
:10869000019308BD3C02030008B5024B1B689B6AAE
:1086A000019308BD3C02030008B5024B1B681B6820
:1086B000019308BD4C02030008B5024B1B681B69FF
:1086C000019308BD4C02030008B5024B1B685B69AF
:1086D000019308BD4C02030008B5024B1B689B695F
:1086E000019308BD4C02030008B5024B1B68DB690F
:1086F000019308BD4C02030008B5024B1B681B6ABE
:10870000019308BD4C02030008B5024B1B685B6B6C
:10871000019308BD6002030008B5024B1B689B6B08
:10872000019308BD6002030008B5024B1B68DB6BB8
:10873000019308BD6002030008B5024B1B685B6D26
:10874000019308BD6002030008B5024B1B681B685B
:10875000019308BD2002030008B5024B1B685B684B
:10876000019308BD2002030008B5024B1B685B693A
:10877000019308BD2002030008B5024B1B68DB6AA9
:10878000019308BD2002030008B5024B1B68DB6C97
:10879000019308BD2002030008B5024B1B685B6D06
:1087A000019308BD2002030008B5024B1B689B6DB6
:1087B000019308BD2002030008B5024B1B68DB6D66
:1087C000019308BD2002030008B5034B1B68D3F8D2
:1087D0008830019308BD00002002030008B5034B58
:1087E0001B68D3F89430019308BD000020020300F9
:1087F00008B5034B1B68D3F8AC30019308BD0000EB
:108800002002030008B5024B1B681B68019308BDDA
:108810004402030008B5024B1B685B68019308BD66
:108820004402030008B5024B1B689B68019308BD16
:108830004402030008B5024B1B68DB68019308BDC6
:108840004402030008B5024B1B685B69019308BD35
:108850004402030008B5024B1B68DB69019308BDA5
:108860004402030008B5024B1B681B6A019308BD54
:108870004402030008B5024B1B685B6A019308BD04
:108880004402030008B5024B1B68DB6A019308BD74
:108890004402030008B5024B1B681B6B019308BD23
:1088A0004402030008B5024B1B685B6B019308BDD3
:1088B0004402030008B5024B1B689B6B019308BD83
:1088C0004402030008B5024B1B68DB6B019308BD33
:1088D0004402030008B5024B1B685B68019308BDA6
:1088E0004002030008B5024B1B689B68019308BD5A
:1088F0004002030008B5024B1B68DB68019308BD0A
:108900004002030008B5024B1B681B69019308BDB8
:108910004002030008B5024B1B685B69019308BD68
:108920004002030008B5024B1B689B69019308BD18
:108930004002030008B5024B1B68DB69019308BDC8
:108940004002030008B5024B1B681B6A019308BD77
:108950004002030008B5024B1B681B6B019308BD66
:108960004002030008B5024B1B685B6B019308BD16
:108970004002030008B5024B1B681B6C019308BD45
:108980004002030008B5024B1B685B6C019308BDF5
:108990004002030008B5024B1B681B68019308BD29
:1089A0001C02030008B5024B1B685B68019308BDFD
:1089B0001C02030008B5024B1B689B68019308BDAD
:1089C0001C02030008B5024B1B681B69019308BD1C
:1089D0001C02030008B5024B1B68DB69019308BD4C
:1089E0001C02030008B5024B1B685B6A019308BDBB
:1089F0001C02030008B5024B1B68DB6A019308BD2B
:108A00001C02030008B5024B1B681B6B019308BDD9
:108A10001C02030008B5024B1B68DB6B019308BD09
:108A20001C02030008B5024B1B685B6C019308BD78
:108A30001C02030008B5024B1B689B6C019308BD28
:108A40001C02030008B5024B1B68DB6C019308BDD8
:108A50001C02030008B5024B1B681B6D019308BD87
:108A60001C02030008B5024B1B685B6D019308BD37
:108A70001C0203000021FFF777BE10B5836804468F
:108A80000BB901F0B2FEC3689847A3681BB103227B
:108A900021462046984720461021BDE8104001F0AD
:108AA0009EBE10B50446006808B1FFF795FC20464D
:108AB00010BD000010B5064C002320462360FFF7D0
:108AC00083FC2046034A0449BDE8104001F082BE01
:108AD00008E6032008DF0320A38A0D00704700206A
:108AE000704710B51021044601F079FE204610BDF4
:108AF00008B5FFF7F6FF08BD30B500224FF69C74AD
:108B0000026084808D888C800C68858004600A6097
:108B100030BD10B504460068FFF744FF204610BD85
:108B200038B5C468F4B12378022B03D104F10C00EA
:108B3000FFF7EFFF656835B12846FBF7A6FB10216C
:108B4000284601F04CFEA56835B12846FBF79DFB91
:108B50001021284601F043FE20461421BDE838408C
:108B600001F03DBE38BD10B588B00446684601F03E
:108B7000ACF8694604A801F0CBF804A8A047044665
:108B800004A801F057F8684601F054F8204608B0F0
:108B900010BD07B5CDE9001282680AB901F025FEC3
:108BA000C36801AA6946984703B05DF804FB1FB586
:108BB0000023CDE90201019210241A4669461846A5
:108BC000ADF80230ADF80040FFF724FE04B010BD50
:108BD00073B50E46044656F8043B00930D4601A8B3
:108BE0003146FDF7CFFE019A009B6260236001A829
:108BF000002301930093FCF7C1FC3046FCF7BEFC58
:108C00002846082101F0EBFD204602B070BD8268C5
:108C100010B50AB901F0E9FDBDE81040C368184776
:108C200008B5006800F11001FFF7F1FF08BD826888
:108C300010B50AB901F0D9FDBDE81040C368184766
:108C400008B5006800F11001FFF7F1FF08BD000052
:108C500038B500230446036010200D46FBF71BFACD
:108C600028B10123C0E90133024B0360C5602060D5
:108C7000204638BDE8E50D0038B5002383608B68D9
:108C800004460D462BB102229847EB68E360AB68BF
:108C9000A360204638BD0000F0B589B0046868467E
:108CA000FFF72AFF4FF00203D4E84F2F002A03D129
:108CB000C4E8413F0029F7D125D104F10C056946EC
:108CC0002846FFF719FFBFF35B8F01236370002075
:108CD00004F10803BFF35B8F53E8006F43E8000221
:108CE000002AF9D1BFF35B8F6EB1FFF74DFD78B16C
:108CF00029463046FFF78BFF3046FBF7C6FA1021B6
:108D0000304601F06CFD6846FFF703FF09B0F0BD87
:108D1000314602A8FFF7B0FFE068B4F9105008B17F
:108D200002F038FC06901020ADF81C50FBF7B3F9A8
:108D30000546E8B1002787601820FBF7ACF9044628
:108D400088B10146876002A8FDF76EF8049BA2680F
:108D5000A360059B049206A9E268E36004F1100099
:108D60000592FFF7C9FE084BEB60084B2C60AB6027
:108D700006A8FFF7CEFE02A8FBF787FA00222946D5
:108D80000348FFF709FDB7E7218C0D00B98E0D00F0
:108D90007B8A0D002DE9F0478AB005469DF8489082
:108DA0000C4617469846FFF74DFD07AE824638BB86
:108DB0004FF62E73059005A93046ADF81830FFF731
:108DC0009BFE1420FBF767F9044648B102230370A9
:108DD0000123C0E901AA437031460C30FFF78CFE35
:108DE0002846214640F8044BFFF732FF3046FFF794
:108DF00090FE05A8FFF78DFE28460AB0BDE8F08773
:108E00000C234FF0000A1420CDE908AA0793FBF7C2
:108E100042F9014628B1C0E901AA80F800A080F813
:108E200001A004A80391FFF713FF224B0893082029
:108E3000FBF731F9824628B1039B40F8043B04A9B3
:108E4000FDF7A0FD00965FFA89F3424639462046B9
:108E5000CDF824A0FFF706FDB8B9039B5B7803F0BB
:108E6000FF0293B94FF69C7305A903A80592ADF8CC
:108E70001830FFF711FF05A8FFF74BFE05A8099969
:108E8000FFF7A6FE06A8FCF779FB039B059304A950
:108E900006A8FDF777FD059B069A2B606A60002304
:108EA00006A806930593FCF769FB04A8FCF766FB8C
:108EB000A2E700BF7D8F0D00022AF8B5054607D056
:108EC000032A18D0012A01D10B6803600020F8BDE5
:108ED00018200E68FBF7DFF8044650B13146FFF763
:108EE000CBFE3069B6F9147008B102F053FB206173
:108EF000A7822C60EAE70468002CE7D004F1100098
:108F0000FFF707FE2046FBF7C0F91821204601F0C5
:108F100066FCDBE738B5002383608B6804460D46AA
:108F20002BB102229847EB68E360AB68A360204650
:108F300038BD022A70B5044607D0032A12D0012A90
:108F400001D10B680360002070BD14200E68FBF790
:108F5000A2F8054620B13146FFF7DCFF337C2B74C5
:108F60002560F0E70468002CEDD02046FBF78DF972
:108F70001421204601F033FCE5E70000F0B589B08C
:108F800004460D4601A81146FFF722FEA4B124B203
:108F90001DB1284602F0FEFA054601A803A9039573
:108FA000ADF81040FFF778FE03A8FFF7B2FD02A866
:108FB000FCF7E4FA09B0F0BD019D0123D5E84F2F7D
:108FC000002A03D1C5E8413F0029F7D1EFD12B7327
:108FD000BFF35B8F6B702B1DBFF35B8F53E8006F8C
:108FE00043E80042002AF9D1BFF35B8F002EDED0A8
:108FF0002046FFF7C9FB074660B105F10C0130467A
:10900000FFF715FE3046FBF740F91021304601F01E
:10901000E6FBCCE7314603A8FFF77CFF2B7B8DF8FE
:109020001C301020FBF737F80546D0B187601420BC
:10903000FBF731F8044678B18760014603A8FCF7D6
:10904000F3FE059BA268A360069B0592E268E360BD
:109050009DF81C3006922374064BEB60064B2C6087
:10906000AB6003A8FBF711F9002229460348FFF77C
:1090700093FBC7E7418C0D00338F0D007B8A0D00F9
:10908000002240681146FFF75DBC0022406811468F
:10909000FFF768BC40680022FFF75CBC4068002214
:1090A00081F00101FFF746BC002340681A461946CB
:1090B000FFF738BC002340681A461946FFF72ABC60
:1090C000002240681146FFF71DBC0022406811468F
:1090D000FFF708BC406800220221FFF70BBC002309
:1090E00040681A46FFF7F6BB024B03225A60024A59
:1090F0001A6070470CE6032004E60D007047F8B5CF
:10910000064615460C468F18BC4206D0336814F844
:10911000011B9B6830469847F6E72846F8BD007C5F
:109120000022FFF709BA007C0021FFF70DBA007C8E
:109130000021FFF711BA007C0021FFF715BA007C6F
:109140000021FFF719BA10B51421044601F047FBBE
:10915000204610BD10B54FF47A730446084600212E
:10916000C4E90113034B236020741146FFF714FA7E
:10917000204610BD40E60D000023007C1A4619462B
:10918000FFF7C2B97FB500221423CDE90122ADF863
:1091900004300B788DF808304B680393CB68049348
:1091A000007C0B7A059301A9FFF70EFA07B05DF872
:1091B00004FB1FB5003B8DF800104FF064010391D4
:1091C00018BF0123694601928DF80830FFF7DAFFD6
:1091D00005B05DF804FB007C0022FFF79DB9C9B221
:1091E000FFF7F9BF007C0022FFF79EB908B5002108
:1091F000007CFFF7D9F9B0FA80F0400908BD08B546
:109200000021007CFFF7D8F9B0FA80F0400908BDD2
:10921000004700002DE9FF4100241D460F469046FF
:109220000646FFF761F9A5424FF00403ADF80D4083
:109230008DF80C308DF80F40A2BF9DF828308DF8C6
:109240000E3003AC0749009443463A463046A8BF67
:109250008DF80D50FFF740F9B0FA80F0400904B0E6
:10926000BDE8F08111920D00704710B51821044639
:1092700001F0B5FA204610BDF0B5037D062B8DB088
:109280000E4600F104074FF0000412D000F108056B
:1092900015F8011D0A22304600F08FFCAF4204444D
:1092A00019D0002CF4D02E21304600F083FC044469
:1092B000EEE72F236A4639460A208DF80040FFF773
:1092C0008BF9684602F083F933680246DB68694629
:1092D00030469847044620460DB0F0BD10B5054B0A
:1092E0000446112240F8043B002102F015F9204603
:1092F00010BD00BF68E60D000346074A10B543F8ED
:10930000042B01F1100251F8044B43F8044B914235
:10931000F9D10A781A7010BD68E60D0010B59DF8F5
:10932000084044EA032343EA024242EA016104237B
:109330004160037510BD000013B5054B0360CB7889
:1093400000938B784A780978FFF7E8FF02B010BDE8
:1093500068E60D0000F11003012213F8101C01292A
:10936000184608D153F8041C02EB4102013A03F1FC
:109370001003F2D17047022904BF53F8041C52189D
:10938000F4E7704770470020704710B51421044679
:1093900001F025FA204610BD10B51021044601F059
:1093A0001EFA204610BD08B5FFF7F6FF08BD10B540
:1093B000C4687CB1206808B1FAF773FE237A1BB148
:1093C000606808B1FAF76DFE20460C21BDE8104038
:1093D00001F005BA10BD38B51546D0E90323934214
:1093E000044607D2D21A8068AA4228BF2A461844E7
:1093F00002F06AF822692A44226138BD0EB417B51A
:1094000005AB044653F8042BE168019303698068B7
:109410008B4238BFC91A184428BF0021019BFFF7AF
:10942000E1FA23691844206103B0BDE8104003B09D
:10943000704710B5036804469B689847A368013BD2
:10944000A3602BB923682046DB68BDE810401847AD
:1094500010BD07B503688DF807109B6801220DF158
:109460000701984703B05DF804FB38B50B6803604B
:109470004D6843689D4204460CD015B16B680133BA
:109480006B60606828B14368013B43600BB9FFF72C
:10949000D0FF6560204638BD0B461146002210B54E
:1094A000C0E90022044683600BB9204610BDFFF7D7
:1094B000DCFFFAE78368EBB11A78032A1AD8DFE8F1
:1094C00002F00417021B0520704702685B685268AF
:1094D000D05C2D2812D0A0F13003092B0ED97428AE
:1094E0000ED066280CD0A0F16E0358425841704748
:1094F0000620704700207047042070470320704703
:10950000022070472DE9F04786B00746884602A83A
:10951000002100249946102392460293FFF7FCF89D
:10952000CDE9004423464246394602A8FFF7FCF83D
:10953000061E1EDD1049300101F055F9054690B1B7
:10954000214602A8FFF7E8F8CDE900642B46424621
:10955000394602A8FFF7E8F8A04207DDCAF8005034
:109560000120C9F8006006B0BDE8F0872846FAF788
:1095700098FD2046F7E700BFC8E70D002DE9F84F3A
:10958000436886680B4488460E4407461C461946C5
:109590004FF00D094FF0090AB44263D0254615F883
:1095A000012B5C2A2BD1A14207D0A4EB010B18465A
:1095B0005A4601F097FF03465B44B54239D06278C2
:1095C000752A2AD1A21CB21A032A32DDA01D04F189
:1095D000050E4FF0000CAE4553D015F8011FA1F158
:1095E00030025FFA82FBBBF1090F05D9A1F16102DC
:1095F000052A07D8A1F1570242EA0C1CEBE72846DE
:109600000446C9E7A1F14102052A12D8A1F13702A7
:10961000F2E703F801CB0146F2E76E2A1CD00ED820
:10962000622A13D007D82F2A11D05C2A0FD0222A01
:109630000DD0002023E0662AFBD10C2207E0722A1D
:109640000DD0742AF5D183F800A001E008221A7029
:10965000A11C01330846D3E74FF00A02F7E783F86D
:109660000090F5E7A14206D0641A1846224601F0A0
:1096700039FF03462344A3EB0803BB600120BDE888
:10968000F88FBCF17F0FC4D92146B9E7F8B504467D
:10969000154600EB01160027B44210D02378032BA7
:1096A00008D129462046FFF769FF48B1A368EF5467
:1096B0001034F1E7002BFBD1A268AB54F8E701208E
:1096C000F8BD000038B50023C0E9003304460E4859
:1096D000C4E90203A9B10B78032B06D08BB9136838
:1096E00058684B68C35C6E2B07D013684D68586888
:1096F0008B6828445B1BA060E36011462046FFF79F
:10970000B4FE204638BD00BFF0E70D0038B5002597
:109710000B46C0E90055C0E90255C0E904550446AE
:1097200011464BB11A78012A06D103F11002DB6809
:1097300082604361FFF799FE204638BD10B543694A
:10974000044663B18068E060013B1030A060206196
:10975000636113B1FFF7FEFDA060012000E0184631
:1097600010BD10B57D210446FFF773FE0123237160
:10977000204610BD08B50379012B02D0022B04D07E
:1097800008BD2C21FFF765FEFAE73A21FAE710B58C
:109790000446FFF7EFFF20467B21FFF75AFE002328
:1097A0002371204610BD000038B504460D46FFF772
:1097B000E1FF23689B683DB1054904222046984794
:1097C00001232371204638BD02490522F6E700BF78
:1097D0007EE60D0078E60D0013B504460191FFF713
:1097E000C9FF2368019ADB68034920469847012393
:1097F0002046237102B010BD24E50D00F8B50446E3
:1098000057EC106BFFF7B6FF23680549DD6820466B
:109810003B463246A847012323712046F8BD00BFCE
:1098200083E60D002DE9F0410D4617462221DFF8B1
:10983000A08004462F44FFF70CFE2946BD422A466D
:1098400038D015F8016B222E03D05C2E01D01F2ECC
:10985000F4D82368521A9B68204698475C2120461A
:10986000FFF7F7FD0D2E0AD8072E1CD9A6F1080325
:10987000052B18D8DFE803F00D0F11171315222E52
:1098800001D05C2E0FD131462046FFF7E2FD29467C
:10989000D4E76221F8E77421F6E76E21F4E7662148
:1098A000F2E77221F0E723683246DB684146204642
:1098B0009847ECE78D4204D023686A1A9B682046DB
:1098C000984722212046FFF7C4FDBDE8F08100BF84
:1098D00086E60D0013B50446CDE90021FFF74AFFE7
:1098E0002046DDE90021FFF79DFF0223204623717A
:1098F00002B010BD13B50446CDE90021FFF73AFFD1
:109900002046DDE90021FFF78DFF0123204623716A
:1099100002B010BD38B500230446036010200D4688
:10992000FAF7B9FB28B10123C0E90133024B036008
:10993000C5602060204638BD94E60D00F0B50446B1
:1099400087B00E460C202749154600F04AFF014615
:1099500018B10023C0E90033037203A80291FFF796
:10996000D9FF029A42B9C4E90022A26003A8FBF71A
:1099700005FE204607B0F0BD00230193294601AB48
:109980003046FFF7BFFD18B9C4E90000A060EDE75D
:109990001449029F681C00F026FF029B78605868FB
:1099A0000028F1D02A46314601F08EFD029B019934
:1099B000186801221A725A68FFF768FE0028E3D07F
:1099C000029B19680493039B059313B15A680132F3
:1099D0005A6004AA2046FFF75FFD05A8FBF7CEFDFD
:1099E000C4E700BFC8E70D00014B024A1A60704788
:1099F00014E60320C0E60D00002340681A46FEF777
:109A000069BF406800220221FEF774BF002240684F
:109A10001146FEF767BF002240681146FEF772BF8D
:109A2000002340681A461946FEF774BF00234068B9
:109A30001A461946FEF776BF40680021FEF79ABF26
:109A400040680021FEF79EBF4068002281F00101BE
:109A5000FEF770BF40680022FEF77CBF002240681E
:109A60001146FEF77FBF002240681146FEF76ABF2D
:109A70002DE9F043002495B016460D460746FFF742
:109A80002DFC214618220EA8009401F045FD40232C
:109A9000CDE90C3421466B460CAA3046FEF7ACFDEE
:109AA000044600284CD1024601216868FEF72AFFCF
:109AB0000221804622466868FEF724FF009E814608
:109AC0002146002E3CD000293AD17368022B03D0E6
:109AD0000A2B11D0F669F4E7B8F1000F0AD07169CA
