:02000002D0002C
:1040000000400D002CF40D00000006000D0005011D
:084010000401BD0B00000000DB
:0440180014D40D00AF
:1040200009480A49884208B505D0094A824202D0A7
:10403000121A07F09DFA0748074A0021121A07F0E2
:10404000BFFA014808BD00BF20DC032044F10D0089
:10405000DCDE0320E0DE0320F8E7032070B5074E26
:10406000074C06F001FBA41BA4080025A54200D1C3
:1040700070BD56F8043B98470135F7E7C4E70D00DB
:10408000F8E70D0001F01ABF08B501F095FDBDE895
:10409000084006F0ABBA04F0C3BC04F0C1BC04F0A5
:1040A000C7BC04F0C5BC000008B5034A00210C20C1
:1040B00004F070FBFEE700BFC5840D000078B0FA85
:1040C00080F040097047012303707047002070475B
:1040D000704700207047006970470120704700005A
:1040E000014B01221A707047C1E50320036818478D
:1040F000012A03D0022A03D0002070470160FBE7A9
:104100000B680360F8E7012A08BF016000207047D0
:104110007047012A08BF01600020704703F0C8BB48
:1041200008B5044905F0E2FE18B1034B03221A70EA
:10413000012008BD63D40D008DE5032010B5C2B089
:1041400000680A2201A908F06FF9431E062B0446F5
:1041500031D801280AD1194B1949187702A807F05C
:1041600065FA184B1C70204642B010BD022804D1DD
:10417000124B154901245C77F0E7032804D10F4B5B
:10418000124901249C77E9E7042804D10B4B10491C
:104190000124DC77E2E7052805D1084B0D4901240D
:1041A00083F82040DAE7062805D1044B0A490124A8
:1041B00083F82140D2E70024D5E700BF90E5032033
:1041C00065D40D00C0E5032078D40D008BD40D001C
:1041D000A0D40D00B4D40D00C8D40D00436913B1B0
:1041E00083690C301847704710B5034B03600446D1
:1041F00003F04CF8204610BD00DE0D0010B504465B
:10420000FFF7F2FF2046382106F03DFB204610BDA7
:1042100010B5034B0360044602F068FA204610BD57
:1042200028DE0D0010B50446FFF7F2FF20461021EE
:1042300006F029FB204610BD13B5002104460846B0
:1042400004F0C8F80023204601A9019304F0DAF82D
:10425000019C0CB1012323710021012004F0BAF864
:104260002CB1236820469B6898470023237102B035
:1042700010BD000010B50B7890B00C462BB9184952
:10428000684607F0D3F910B010BD084607F04BF9A7
:10429000C8280ED11349684607F0C8F905F0FDFF9C
:1042A000114B9861114B01221A70114B00221A70A8
:1042B000E9E7204607F037F9C928EBD0204607F098
:1042C00032F942F20F739842DDDC204607F02BF9F9
:1042D000084A03464021684604F0C2FBD3E700BF0A
:1042E000DBD40D00E3D40D0090E50320C0E50320EE
:1042F0004FDF0320F5D40D0010B50446006808B167
:1043000004F096FB204610BD0023042204F0C0BA3E
:1043100010B58368044613B103220146984720462E
:1043200010BD000037B5134B036004468068C8B168
:1043300000256FF00043CDE9003502212B462A46C7
:1043400004F068F8A068294604F09CF8237903F08B
:10435000FF0513B104F036F8F8E7A068294604F029
:1043600049F8A56004F10C00FFF7D2FF204603B026
:1043700030BD00BFECDD0D0010B50446FFF7D2FFE5
:1043800020461C2106F07FFA204610BD0246014857
:1043900004F09FBC8B8C0D0007B508220023ADF8FC
:1043A00000204FF47A710122019241436A46184677
:1043B000ADF8023004F0C4FA03B05DF804FB07B5B1
:1043C00080680B46002140B1CDE900210A46032157
:1043D00004F020F8B0FA80F0400903B05DF804FB67
:1043E00013B504460846019107F045F901990246C4
:1043F000204602B0BDE8104005F0FEBA13B50446F1
:104400000846019107F037F901990246204602B0AB
:10441000BDE8104005F000BB0EB410B58DB00FAA7A
:10442000016852F8044B039200232020CDE90403D5
:10443000CDE900421E2004AA04F0C4F90DB0BDE885
:10444000104003B0704737B504689DF818508DF8D8
:1044500000308DF80450E4683C23A04703B030BD21
:1044600037B51C49054605F041FD044600B31A4C1A
:10447000012360686370FFF78FFF636817484FF48C
:104480007A716FF000425943FFF799FF04F020FA68
:1044900048B100238DF80030114B124A1B781249A5
:1044A0001248FFF7D0FF124B0120187003B030BD47
:1044B0001049284605F01AFD0028F7D0064B5C701D
:1044C00004F006FA0028EED0054B8DF800401B786A
:1044D000094AE4E763D40D0090E50320B0E303202C
:1044E0002DDF032012D50D00A2D50D00D0E303204F
:1044F000C0E50320DAE30D0027D50D0010B5C4B0E8
:1045000000680A2203A907F08FFFB0F5966F22D842
:10451000124C6060FFF740FF636811484FF47A71F6
:1045200059436FF00042FFF74AFF63680D4A4FF4AA
:10453000807104A804F094FA00238DF800300A4B2F
:104540000A491B780A4804AAFFF77DFF094B01209E
:10455000187044B010BD0020FBE700BF90E50320B9
:10456000B0E303203BD50D002DDF032054D50D0013
:10457000D0E30320C0E5032000B589B0039005F027
:10458000C7FC0E4B0399BDEEC00A04A883ED090ACF
:1045900005F050FC00238DF80030094B049A1B787D
:1045A00008490948FFF74FFF04A805F0D5FB074B62
:1045B0000120187009B05DF804FB00BF90E50320EE
:1045C0002DDF03205FD50D00D0E30320C0E50320DD
:1045D00037B51649054605F089FC044688B1144BE9
:1045E000144A1549154801245C7200238DF80030E7
:1045F000134B1B78FFF727FF124B20461C7003B0AC
:1046000030BD1149284605F071FC0028F7D0084B51
:104610000E4A5C720A4B8DF800401B780649074829
:10462000FFF711FF074B01201870E8E763D40D0076
:1046300090E5032081D50D00A2D50D00D0E3032025
:104640002DDF0320C0E50320DAE30D0092D50D0035
:1046500030B5C5B000680A2203A907F0E5FE431E85
:10466000062B04464FF0000542D8012813D1214BF8
:1046700021491D7704A806F0D9FF204B8DF8005082
:104680001B781F491F4804AAFFF7DDFE1E4B1C7054
:10469000204645B030BD022810D1164B1B495D772E
:1046A00004A806F0C3FF154B8DF800501B78144981
:1046B000144804AAFFF7C7FE0124E7E7032803D143
:1046C0000C4B13499D77EBE7042803D1094B1149A3
:1046D000DD77E5E7052804D1064B0F4983F8205024
:1046E000DEE7062804D1034B0C4983F82150D7E7B5
:1046F0002C46CDE790E50320A7D50D002DDF032044
:10470000BBD50D00D0E30320C0E50320C9D50D00C3
:10471000DDD50D00F3D50D0008D60D001DD60D001A
:1047200000B5C5B000680A2203A907F07DFE042881
:1047300018D80D4B0D4A98624FF48071034604A8B7
:1047400004F08EF900238DF80030094B09491B78DD
:10475000094804AAFFF777FE084B0120187045B0FE
:104760005DF804FB0020FAE790E5032031D60D0048
:104770002DDF0320A2D50D00D0E30320C0E50320E8
:104780001FB50A22006803A907F04EFE012804465F
:104790004FF0000311D18DF80030094B094A1B7806
:1047A00009490A48FFF74FFE41F2883004F0A8F9A2
:1047B00005F0F8FB204604B010BD1C46FAE700BF28
:1047C0002DDF032043D60D0060DC0D00D0E3032075
:1047D00007B504F07DF848B100238DF800300E4B8A
:1047E0000E4A1B780E490F48FFF72DFE0E4A0F4860
:1047F0007823536040F201131380002353729372A5
:1048000001214FF41673C2E90931302303B05DF87A
:1048100004EB02F00EB800BF2DDF032058D60D00C8
:10482000A2D50D00D0E3032090E50320A0E30320F0
:1048300007B504F04DF848B100238DF800300B4B5C
:104840000B4A1B780B490C48FFF7FDFD0B4A0C4B3C
:104850000C48136053609360D36013615361A021CF
:10486000182303B05DF804EB01F0E3BF2DDF032054
:1048700070D60D00A2D50D00D0E3032028E403205C
:10488000CDCCB542A0E3032010B5154C237A012B03
:1048900004D904F01DF800B3012323726368114AA0
:1048A000B3F5966F84BF4FF416736360637A012B80
:1048B00084BF01236372A37A012B84BF0023A372F8
:1048C0006369FF2B84BF00236361A36A052B4FF04C
:1048D0000103137088BFA36210BD2072DEE700BF22
:1048E00090E50320C0E50320334BD3ED007AF5EECD
:1048F000C07AF1EE10FA06D49FED307AF4EEC77A62
:10490000F1EE10FA01DD2E4A1A60D3ED017AF5EED0
:10491000C07AF1EE10FA06D49FED287AF4EEC77A49
:10492000F1EE10FA01DD264A5A60D3ED027AF5EE77
:10493000C07AF1EE10FA06D49FED207AF4EEC77A31
:10494000F1EE10FA01DD1E4A9A60D3ED037AF5EE1E
:10495000C07AF1EE10FA06D49FED187AF4EEC77A19
:10496000F1EE10FA01DD164ADA60D3ED047AF5EEC5
:10497000C07AF1EE10FA06D49FED107AF4EEC77A01
:10498000F1EE10FA01DD0E4A1A61D3ED057AF5EE6B
:10499000C07AF1EE10FA06D49FED087AF4EEC77AE9
:1049A000F1EE10FA01DD064A5A61034A0548182360
:1049B000A02101F03EBF00BF28E4032000803B455A
:1049C000ECD1B542A0E3032007B50121052005F095
:1049D000E4FE0021052005F0E0FE094A00231370E3
:1049E000084A527A42B18DF80030074B074A1B78CB
:1049F00007490848FFF727FD03B05DF804FB00BF37
:104A0000C1E5032090E503202DDF03208FD60D00A4
:104A100096D60D00D0E3032030B5114D114C12494C
:104A20002A7820788DB01A2303FB0212009203FB30
:104A300000130E4A282102A804F012F82B782370E4
:104A400003F046FF48B100238DF80030084B0949B8
:104A50001B78094802AAFFF7F6FC0DB030BD00BF75
:104A60008DE50320CCE3032030DC03209FD60D002E
:104A70002DDF0320ADD60D00D0E3032030B50D4D62
:104A80000FCD89B001AC0FC495E807000A4B84E84C
:104A900007001B7C094808AA02EB8303102153F886
:104AA0001C3C074A03F0DCFF064B01221A7009B0D8
:104AB00030BD00BF90DE0D0090E503202EDF032007
:104AC0006CDF0D00C0E503202DE9F04F4FEA8009AF
:104AD00009F1070483B004F4FF6402AFADEB040DE9
:104AE00002ADAC464FF0000E4CF804EB0238002843
:104AF0002ADADFF868B0DFF868A00C4690461E4658
:104B0000A9444D4524D0D4E902018DE8030058465C
:104B100094E80C0001F000FD51EC100B06F06CFC69
:104B200048F8040B45F8040B06F03EF9DAE90023D7
:104B300006F092F9084B002206F0B8FA06F05CFC89
:104B4000103446F8040BDCE74CF804EB0138CEE7F0
:104B50000437BD46BDE8F08F00408F40E8DE0320FB
:104B600028DC03202DE9F0472DED068BB94CBA4B1C
:104B7000206893F800A0A8B0CDF800A006F014F9C2
:104B8000B64B41EC1A0B93F80090CDF81090CDE99C
:104B90000201606806F008F9B14B41EC190B93F87B
:104BA0000080CDF82080CDE90601A06806F0FCF871
:104BB000AC4B41EC180B1D780C95CDE90A01E0686F
:104BC00006F0F2F8A84B06461B78206910930F46B2
:104BD000CDE90E6706F0E8F8A44BCDE912011B7889
:104BE0006069149306F0E0F8A14C2495A14DCDF82E
:104BF00060A00023CDE916018DED1AAB8DED1E9B53
:104C00008DED228BCDE92667CDF87090CDF88080B0
:104C100084F88830FFF732FFA86A01284AD12B7F39
:104C20004BB195484FF4B96101F0F6FC51EC100B13
:104C300006F0E2FB20606B7F4BB190484FF4B96106
:104C400001F0EAFC51EC100B06F0D6FB6060AB7F84
:104C50004BB18B484FF4B96101F0DEFC51EC100B05
:104C600006F0CAFBA060EB7F4BB186484FF4B961F8
:104C700001F0D2FC51EC100B06F0BEFBE06095F8A1
:104C800020304BB180484FF4B96101F0C5FC51ECC4
:104C9000100B06F0B1FB206195F82130EBB17B4899
:104CA0004FF4B96101F0B8FC51EC100B06F0A4FB15
:104CB000606112E0022840F08F8004F13C0304F1AF
:104CC000300269460320FFF7FFFE04F1540304F1AC
:104CD00048020CA90320FFF7F7FED4ED007A94ED0B
:104CE000067A6B4EF5EEC07AF1EE10FAD8BFF1EE0F
:104CF000677A37EEC77AF7EE087AB4EEE77A0122E0
:104D0000F1EE10FA327059DA94ED017AD4ED076AB7
:104D1000B5EEC07AF1EE10FAD8BFB1EE477A37EEB1
:104D2000667AB4EEE77AF1EE10FA47DA94ED027A99
:104D3000D4ED086AB5EEC07AF1EE10FAD8BFB1EE44
:104D4000477A37EE667AB4EEE77AF1EE10FA35DAA2
:104D500094ED037AD4ED096AB5EEC07AF1EE10FA5B
:104D6000D8BFB1EE477A37EE667AB4EEE77AF1EE65
:104D700010FA23DA94ED047AD4ED0A6AB5EEC07A1B
:104D8000F1EE10FAD8BFB1EE477A37EE667AB4EE9C
:104D9000E77AF1EE10FA11DA94ED057AD4ED0B6AA8
:104DA000B5EEC07AF1EE10FAD8BFB1EE477A37EE21
:104DB000667AB4EEE77AF1EE10FA48DB012584F862
:104DC000885005F06AFA3570C4F88000284628B08B
:104DD000BDEC068BBDE8F08703282AD104F13C0323
:104DE00004F130026946FFF76FFEEB7FF3B125480F
:104DF0004FF4B96101F010FC51EC100B06F0FCFA15
:104E0000E06095F82030FBB11F484FF4B96101F024
:104E100003FC51EC100B06F0EFFA206195F82130FD
:104E2000002B7FF43CAF0023636156E70023E3606F
:104E3000E7E704287FF451AF04F1700304F1600246
:104E400018A9FFF741FEDCE700232361E6E7002015
:104E5000BDE700BF28E4032020DC032021DC032081
:104E600022DC032023DC032024DC032025DC0320B8
:104E700040E4032090E5032050DF032008E00320F6
:104E8000C0E0032078E1032030E20320E8E20320C1
:104E9000CCE4032010B5204C206805F085FF1F4BA3
:104EA00041EC100B19781E4801F0AAFB606805F070
:104EB0007BFF1C4B41EC100B19781B4801F0A0FB49
:104EC000A06805F071FF194B41EC100B19781848D8
:104ED00001F096FBE06805F067FF164B41EC100B04
:104EE0001978154801F08CFB206905F05DFF134B24
:104EF00041EC100B1978124801F082FB606905F053
:104F000053FF104B41EC100B19780F4801F078FB60
:104F10000E4B01221A7010BD28E4032020DC032070
:104F200050DF032021DC032008E0032022DC0320E3
:104F3000C0E0032023DC032078E1032024DC0320ED
:104F400030E2032025DC0320E8E203204EDF0320CB
:104F500013B5224C206805F027FF214ACDE9000156
:104F60002021204803F07CFD606805F01DFF1E4AEB
:104F7000CDE9000120211D4803F072FDA06805F075
:104F800013FF1B4ACDE9000120211A4803F068FDF8
:104F9000E06805F009FF184ACDE900012021174813
:104FA00003F05EFD206905F0FFFE154ACDE9000122
:104FB0002021144803F054FD606905F0F5FE124A03
:104FC000CDE900012021114803F04AFDFFF762FFFF
:104FD0000F4B01221A7002B010BD00BF28E403205D
:104FE000BED60D000DE50320CCD60D006DE50320E7
:104FF000D9D60D004DE50320E9D60D00EDE40320E0
:1050000006D70D00CDE4032023D70D002DE50320A6
:105010004EDF032000B589B0039004F079FF0D4BFB
:10502000039983ED000A04A804F004FF00238DF81F
:105030000030094B049A1B7808490948FFF703FA26
:1050400004A804F089FEFFF783FF012009B05DF892
:1050500004FB00BF28E403202DDF03203FD70D0011
:10506000D0E3032000B589B0039004F051FF0D4B4D
:10507000039983ED010A04A804F0DCFE00238DF8F7
:105080000030094B049A1B7808490948FFF7DBF9FF
:1050900004A804F061FEFFF75BFF012009B05DF892
:1050A00004FB00BF28E403202DDF03205AD70D00A6
:1050B000D0E3032000B589B0039004F029FF0D4B25
:1050C000039983ED020A04A804F0B4FE00238DF8CE
:1050D0000030094B049A1B7808490948FFF7B3F9D7
:1050E00004A804F039FEFFF733FF012009B05DF892
:1050F00004FB00BF28E403202DDF032075D70D003B
:10510000D0E3032000B589B0039004F001FF0D4BFC
:10511000039983ED030A04A804F08CFE00238DF8A4
:105120000030094B049A1B7808490948FFF78BF9AE
:1051300004A804F011FEFFF70BFF012009B05DF891
:1051400004FB00BF28E403202DDF032092D70D00CD
:10515000D0E3032000B589B0039004F0D9FE0D4BD5
:10516000039983ED040A04A804F064FE00238DF87B
:105170000030094B049A1B7808490948FFF763F986
:1051800004A804F0E9FDFFF7E3FE012009B05DF893
:1051900004FB00BF28E403202DDF0320AED70D0061
:1051A000D0E3032000B589B0039004F0B1FE0D4BAD
:1051B000039983ED050A04A804F03CFE00238DF852
:1051C0000030094B049A1B7808490948FFF73BF95E
:1051D00004A804F0C1FDFFF7BBFE012009B05DF893
:1051E00004FB00BF28E403202DDF0320CAD70D00F5
:1051F000D0E30320F0B5ADF50D7D4FF400740CAE97
:1052000022460021304606F0DBF90023A84A8DF83B
:10521000203007A807920B93CDE9096404F049FBFD
:10522000A44907A8FFF7DCF8044602F0D5FE416860
:10523000002900F097800C312046FFF7DFF89E49E7
:105240009E4C07A8FFF7CCF89D49FFF7D7F89D497A
:1052500007A8FFF7C5F8A16A05460A2203A804F0CB
:1052600006FE059A0399284604F0D6FB03A804F02D
:1052700073FD954907A8FFF7B3F807A804F019FBD9
:10528000A36A012B70D19149914D07A8FFF7A8F8A7
:10529000217F04F01BFB8F4907A8FFF7A1F8074601
:1052A000286805F081FD41EC100B384604F038FB0E
:1052B000894907A8FFF794F8617F04F007FB874945
:1052C00007A8FFF78DF80746686805F06DFD41EC0B
:1052D000100B384604F024FB814907A8FFF780F83B
:1052E000A17F04F0F3FA7F4907A8FFF779F8074692
:1052F000A86805F059FD41EC100B384604F010FB8E
:10530000794907A8FFF76CF8E17F04F0DFFA7749E5
:1053100007A8FFF765F80746E86805F045FD41EC8A
:10532000100B384604F0FCFA714907A8FFF758F84B
:1053300094F8201004F0CAFA6E4907A8FFF750F855
:105340000746286905F030FD41EC100B384604F0A3
:10535000E7FA694907A8FFF743F894F8211004F029
:10536000B5FA70E0654967E7022B40F0D7805749EE
:10537000574D07A8FFF734F8012104F0BFFA55494B
:1053800007A8FFF72DF80746286805F00DFD41EC4A
:10539000100B384604F0C4FA4F4907A8FFF720F86D
:1053A000012104F0ABFA4D4907A8FFF719F80746A9
:1053B000686805F0F9FC41EC100B384604F0B0FACF
:1053C000474907A8FFF70CF8012104F097FA45496F
:1053D00007A8FFF705F80746A86805F0E5FC41ECCB
:1053E000100B384604F09CFA3F4907A8FEF7F8FF77
:1053F000012104F083FA3D4907A8FEF7F1FF0746B3
:10540000E86805F0D1FC41EC100B384604F088FA4E
:10541000374907A8FEF7E4FF012104F06FFA354988
:1054200007A8FEF7DDFF0746286905F0BDFC41EC43
:10543000100B384604F074FA2F4907A8FEF7D0FF86
:10544000012104F05BFA2E4907A8FEF7C9FF0746C1
:10545000686905F0A9FC41EC100B384604F060FACD
:1054600007A804F010FA274907A8FEF7B9FF6178EA
:1054700004F02CFA244907A8FEF7B2FF616804F093
:105480003DFA224907A8FEF7ABFF616A04F036FA3D
:1054900007A804F0F8F900238DF800301C4B1D49D3
:1054A0001B781D483246FEF7CEFF0DF50D7DF0BD91
:1054B00014E40D0069D90D00E5D70D0090E5032037
:1054C000ECDE0D00EDD70D00FCD70D0004D80D006B
:1054D00028E4032017D80D0029D80D003CD80D0072
:1054E0004ED80D0063D80D0077D80D008BD80D0075
:1054F0009ED80D00B2D80D00C5D80D0018E50D00DE
:10550000D8D80D00EAD80D00FAD80D0004D90D0046
:105510002DDF032017D90D00D0E30320032B9FD1EB
:105520001849194D07A8FEF75BFF012104F0E6F9C1
:10553000164907A8FEF754FF0746286805F034FC13
:1055400041EC100B384604F0EBF9114907A8FEF7BF
:1055500047FF012104F0D2F90E4907A8FEF740FFEA
:105560000746686805F020FC41EC100B384604F053
:10557000D7F9094907A8FEF733FF012104F0BEF966
:10558000B1E600BF04D80D0028E4032017D80D00B1
:1055900029D80D003CD80D004ED80D0008B504499F
:1055A00004F0A4FC10B1FFF725FE012008BD00BFE8
:1055B00063D40D0038B5046805467CB16368013BCF
:1055C00063605BB9236820469B689847A368013BEA
:1055D000A3601BB923682046DB689847284638BD7E
:1055E0001FB54B6801938B680293044613B158684A
:1055F00001305860CB68039301A9204602F0ADFA50
:1056000002A8FFF7D7FF204604B010BD1FB502F077
:1056100085F9094A416801A8FFF7E2FF01A803F0F4
:10562000DBFF044602A8FFF7C5FF1CB90349044885
:10563000FEF7F2FE04B010BD2CD90D0032D90D00DA
:105640001CE60320FFF7E2BF10B58AB00A46014608
:1056500003A8FFF7C5FF039B0193049B05990293E1
:1056600013B15A6801325A6001AA06A804F0BCF8C6
:1056700002A8FFF79FFF07A8089CFFF79BFF04A85D
:10568000FFF798FF20460AB010BD0000F0B5ADF559
:10569000577D4FF400740DA856AE03F021F9224651
:1056A0000021304605F08CFF0023654A8DF8483014
:1056B00011A811921593CDE9136404F0FAF8614929
:1056C00011A8FEF78DFE11A804F0F3F85E4911A8A9
:1056D000FEF786FE044602F021F95B494068FFF7B9
:1056E000B3FF01462046FEF789FE584911A8FEF790
:1056F00077FE044602F012F954494068FFF7A4FF10
:1057000001462046FEF77AFE514911A8FEF768FED1
:10571000044602F003F94E494068FFF795FF014641
:105720002046FEF76BFE4B4911A8FEF759FE0446D2
:1057300002F0F4F847494068FFF786FF014620462B
:10574000FEF75CFE444911A8FEF74AFE044602F04B
:10575000E5F841494068FFF777FF01462046FEF72C
:105760004DFE3E4911A8FEF73BFE044602F034FC14
:105770004168002961D00C312046FEF73FFE3849D0
:10578000384D394C11A8FEF72BFE0D99FEF736FE69
:1057900011A804F078F8354911A8FEF721FE11A8E8
:1057A00004F087F8AB6A012B70D1314911A8FEF7DC
:1057B00017FE0746206805F0F7FA41EC100B384653
:1057C00004F0AEF82B4911A8FEF70AFE0746606800
:1057D00005F0EAFA41EC100B384604F0A1F826492E
:1057E00011A8FEF7FDFD0746A06805F0DDFA41ECC3
:1057F000100B384604F094F8204911A8FEF7F0FD8C
:105800000746E06805F0D0FA41EC100B384604F08A
:1058100087F81B4911A8FEF7E3FD0746206905F04C
:10582000C3FA41EC100B384604F07AF8154911A878
:10583000FEF7D6FD0746606972E013499CE700BF9A
:1058400014E40D0040D90D002CD90D0045D90D00F0
:1058500049D90D0053D90D005BD90D0062D90D0057
:105860006ED90D0090E5032040E4032078D90D00A7
:105870007FD90D0089D90D0093D90D009FD90D0056
:10588000AAD90D00B5D90D0018E50D00022B40F086
:10589000B080A44911A8FEF7A3FD0746206B05F0D0
:1058A00083FA41EC100B384604F03AF89E4911A8EF
:1058B000FEF796FD0746606B05F076FA41EC100B9B
:1058C000384604F02DF8994911A8FEF789FD0746DE
:1058D000A06B05F069FA41EC100B384604F020F893
:1058E000934911A8FEF77CFD0746A06C05F05CFA11
:1058F00041EC100B384604F013F88E4911A8FEF75E
:105900006FFD0746E06C05F04FFA41EC100B38468E
:1059100004F006F8884911A8FEF762FD0746206DDD
:1059200005F042FA41EC100B384603F0F9FF8349C9
:1059300011A8FEF755FDA96A03F0E0FF11A803F0D6
:10594000A2FF11A803F09FFFAB6A012B40F0A580D6
:10595000606905F029FACDE90A01206905F024FA09
:10596000CDE90801E06805F01FFACDE90601A0685D
:1059700005F01AFACDE90401606805F015FACDE9E1
:105980000201206805F010FACDE900016C4A4FF4DD
:10599000807116A803F064F86A4D6B496B480027C4
:1059A0008DF800702B7816AAFEF74DFD8DF800706B
:1059B00067492B7865483246FEF745FD2368A361A9
:1059C0006368E361A3682362E36863622369A36297
:1059D000604A6369E362012313705F4A137002F047
:1059E00079FD5E4B18600DA804F0B6F90DF5577DF2
:1059F000F0BD032B20D14B4911A8FEF7F1FC07465F
:105A0000206B05F0D1F941EC100B384603F088FF0C
:105A1000454911A8FEF7E4FC0746606B05F0C4F9A0
:105A200041EC100B384603F07BFF404911A8FEF70C
:105A3000D7FC0746A06BD8E6042B7FF47FAF39492B
:105A400011A8FEF7CDFC0746206E05F0ADF941EC3C
:105A5000100B384603F064FF334911A8FEF7C0FC71
:105A60000746606E05F0A0F941EC100B384603F0D4
:105A700057FF2E4911A8FEF7B3FC0746A06E05F0AC
:105A800093F941EC100B384603F04AFF344911A852
:105A9000FEF7A6FC0746E06EB4E6022B1FD1206D90
:105AA00005F082F9CDE90A01E06C05F07DF9CDE958
:105AB0000801A06C05F078F9CDE90601A06B05F0AE
:105AC00073F9CDE90401606B05F06EF9CDE90201CF
:105AD000206B05F069F9234ACDE9000157E7032B54
:105AE00044D1606905F060F9CDE90A01206905F04B
:105AF0005BF9CDE90801E06805F056F9CDE906014A
:105B0000A06B05F051F9CDE90401606B05F04CF98B
:105B1000CDE90201206B05F047F9134ACDE90001F8
:105B200035E700BFBFD90D00CAD90D00D5D90D008A
:105B3000E0D90D00EBD90D00F6D90D00A2D50D006E
:105B40000CDA0D002DDF032018DC0D00D0E303205C
:105B50002DDC0D00CCE403204FDF0320C4E503203F
:105B600001DA0D008EDA0D0012DB0D00042B7FF43C
:105B700013AF606905F018F9CDE90A01206905F055
:105B800013F9CDE90801E06E05F00EF9CDE9060143
:105B9000A06E05F009F9CDE90401606E05F004F985
:105BA000CDE90201206E05F0FFF8024ACDE90001BF
:105BB000EDE600BF95DB0D0037B5794C2378013B4E
:105BC000052B17D8DFE803F0C60364704A93754BC2
:105BD0005B7A2BB1744B1B78022B01D0FEF71CFFB4
:105BE00004F05BFB0A2390FBF3F202FB13030BB9F7
:105BF0000523237002F0F0F902F0CAF901F08EFEDD
:105C000001F0A7FE694801F0F1F9694B1B780BB16F
:105C1000FEF7DAFE674C23783BB13023614A6648D1
:105C2000012100F006FE00232370644C237843B169
:105C30008C23634A60484FF4007100F0FAFD0023A2
:105C40002370604C23783BB118235F4A5A48A02147
:105C500000F0EFFD0023237003B030BD514D6A7A90
:105C60002AB1514B1B78052B01D0FEF7D5FEFEF76C
:105C700079FF08B10423BCE704F00FFB6B6A90FBCB
:105C8000F3F202FB13030BB90323B2E70223B0E7DD
:105C9000444B5B7A2BB1444B1B78032B01D0FEF7AE
:105CA000BBFEFEF75FFFE5E73E4B5B7A2BB13E4B59
:105CB0001B78042B01D0FEF7AFFE02F009FE68B19D
:105CC00004F0FCFA0C2805D102F002FE10B100200D
:105CD00002F01EFEFFF7DAFC06238AE702F0F0FD71
:105CE0000223237002F0F6FB384B186082E72D4B3D
:105CF0005B7A2BB12C4B1B78062B01D0FEF78CFE68
:105D0000334B1B7843B904F0C8FA0A2390FBF3F233
:105D100002FB1303002BB9D002F0DCFB2D4B1B68F8
:105D2000C01A4AF6C87398427FF664AF02F0D2FBFD
:105D3000264D294A286000238DF80030274B28493A
:105D40001B782848FEF77FFB0123237002F0C2FB7B
:105D500028604FE7144B1B78012B01D0FEF75CFE47
:105D600002F0B8FB194B1B6803F5922303F5787317
:105D70008342BFF43FAF02F0ABFD48B100238DF882
:105D80000030164B184A1B7818491648FEF75BFB83
:105D90004FF4FA6002F0B4FE04F004F92AE700BF01
:105DA0008DE5032090E50320CCE303200CE40320E1
:105DB000C1E50320C0E50320A0E30320CCE40320D9
:105DC00040E403204EDF032028E4032008E40320FE
:105DD0004FDF0320C4E5032018E50D002DDF03206D
:105DE00039DC0D00D0E3032052DC0D0066DC0D0031
:105DF0001FB5094B094A1B781278094913438DF8DE
:105E0000003000223C2302A803F056F803A8FFF755
:105E1000D1FB05B05DF804FB2CDF03202DDF032050
:105E20006CDC0D0010B5036888B05B6804469847C9
:105E3000019005F020FC0199024605A803F010FE30
:105E4000DDE905120023CDE9053363680393616042
:105E5000A368A26004A80493FFF7ACFB079BE36070
:105E600006A8FFF7A7FB08B010BD000010B5044B53
:105E7000044640F8043B0430FFF79CFB204610BD6D
:105E800044DE0D0010B50446FFF7F0FF2046182150
:105E900004F0F9FC204610BD13B50B460246D0E9CC
:105EA00000016C4684E8030093E8030082E80300E5
:105EB00094E8030083E8030002B010BD2DE9F04729
:105EC00000219AB0082004F057FC0121052004F0BD
:105ED00053FCFEF779FD0023009301224FF0FF33BE
:105EE000B149082003F028FAB04B0AAA03F11005C3
:105EF000174618685968144603C40833AB42224653
:105F0000F7D119889B78A3702D2221800DF13B00D9
:105F10000021A74C002605F053FB02A8267002F0D2
:105F2000DFFC02A906A803F085FFA24906A803F03A
:105F3000C8FFCDE90066334632469F49006802F04B
:105F4000DFFC06A803F008FF02A803F005FF9B4949
:105F50009B48FEF7D9F99B499B48FEF7D5F99B4929
:105F60009B48FEF7D1F933469A499B48022202F03A
:105F70008FFC334601229949994802F089FC9949DE
:105F80009948FEF7C1F999499948FEF7BDF9994931
:105F90009948FEF7B9F999499948FEF7B5F9994931
:105FA0009948FEF7B1F999499948FEF7ADF933469A
:105FB00098499948022202F06BFC33460222974925
:105FC000974802F065FC97499748FEF7DFF9974933
:105FD0009748FEF7DBF997499748FEF7D7F99749B5
:105FE0009748FEF7D3F997497D48FEF7CFF99649D0
:105FF0009648FEF7CBF996499648FEF7C7F99649B9
:106000009648FEF7C3F996499648FEF7BFF99649B8
:106010009648FEF7BBF996499648FEF7B7F99649B8
:106020009648FEF7B3F996499648FEF7AFF99649B8
:106030009648FEF7ABF996499648FEF7A7F99649B8
:106040009648FEF7A3F9964800F0CAFE31469448F8
:1060500001F003F801F062FC924B05930546924B68
:106060000493022202A906A80896FEF74CF8059BA5
:10607000099305F10C01049B089306A8FFF70CFF98
:10608000089B6A6908926B61099BAA69099206A834
:10609000AB61FEF73DF9854BEB612C20FDF7FBFF73
:1060A000064610B1824901F087FCAE601820FDF76A
:1060B000F2FF064630B17F494FF4807201F0ECFBED
:1060C0007D4B336028466E6001F0B6FD02A8FEF7F6
:1060D0001FF901F081FF794B099306A9784B0893CA
:1060E00001F096FF06A8FEF713F901F075FF754958
:1060F00001F0F8FF744800F00FFB0123724806AA74
:10610000002100F04BFB9DF81830162B00F0EA80C0
:106110006D4800F00BFB6D4A6B480423002100F032
:1061200088FB0123684806AA002100F037FB9DF890
:106130001830162B29D001232370654DFEF7D4FBB0
:10614000FEF7A2FBFEF7A6FE6B78002B00F0E580C1
:10615000002002F0CFF94FF0000A0646002002F0BE
:10616000C9F9B0EB060861EB0A09002347F22F5288
:106170004B4508BF4245C0F0C28002F0A9FB002891
:1061800040F0BD8002F094FBE8E700238DF800307A
:10619000504B514A1B7851495148FEF754F9FEF7CC
:1061A00017FBFEF745FBC8E7E1400D00ACDE0D0034
:1061B0008DE503206EDC0D0075420D00ECDE0D0058
:1061C000E5D70D003EDF032093DC0D002EDF03201A
:1061D0009BDC0D0094E50320AADC0D0091E5032073
:1061E00019D50D000DE50320F9DC0D006DE5032048
:1061F0000ADD0D004DE503201BDD0D00EDE403205D
:106200002EDD0D00CDE4032040DD0D002DE5032043
:1062100052DD0D00B4E5032004D90D00B8E50320DC
:10622000B9DC0D0021410D00C8DC0D009D550D00AD
:10623000D4DC0D00D1450D00E8DC0D00FD440D005F
:1062400054D50D0061440D0015500D00F5DC0D0016
:1062500065500D0006DD0D00B5500D0017DD0D0079
:1062600005510D002ADD0D0055510D003CDD0D00DE
:10627000A5510D004EDD0D003D410D005FDD0D000F
:1062800051460D006DDD0D0021470D00EDD70D00CD
:1062900079450D007CDD0D0081470D0098DD0D0076
:1062A0000CE4032045560D0007410D00805101000C
:1062B000A6DD0D0000F403206CDE0D0011410D0081
:1062C00013410D0014F50320A0E30320F4DE0D00BC
:1062D00090E503202DDF0320BDDD0D00C8DD0D009E
:1062E000D0E303201D4A1E481823A02100F056FACF
:1062F0001C4A1B483023012100F050FA1DE702F030
:10630000E7FA6868FEF748F86B6817484FF47A7147
:106310006FF000425943FEF752F8FEF719FEFEF700
:1063200021FC6B7A4BB100238DF800300F4B1049E4
:106330001B7810483A46FEF786F802F0C9FA10B901
:1063400002F0B6FAF9E702F0C3FAFEF753FF23783A
:106350000BB9022323701AB0BDE8F08728E40320AC
:10636000A0E3032090E50320B0E303202DDF03200A
:10637000D9DD0D00D0E30320F0B54F4B4F4D504E0B
:1063800001271F704F4B022287B01A7004F09EF94C
:1063900000231A4642F6D65104F0A0F904F096F90B
:1063A00000231A460C21002404F0A0F9464BAB60F0
:1063B0002C60AC80AC71384602F014FA3246434986
:1063C000284604F05BFA2146384602F01BFA3946AB
:1063D000042002F05FF804F029FA3D4D01462346FF
:1063E0004FF40052284600F08DF93A4B2B603246AC
:1063F0003949284604F042FA04F018FA374D0146AC
:10640000284600F0F5FB2846354D3649324604F063
:1064100035FA35494FF40062284601F05FF8334BF6
:106420002B6032463249284604F028FA314B029359
:10643000314B324D0593324B0493324B2B602C7110
:10644000AC606C6105F10C0102A8FFF725FD6A69DB
:10645000049B6B610492059BAA690592AB612A4A71
:106460002B464FF47A71CDE9004405F1080001F0A4
:10647000B9FF02A8FDF74CFF2846244D24493246B7
:1064800004F0FCF92146C5E90C44C5E90F44C5E90F
:106490001244C5E91544AC636C642C65EC651022AC
:1064A00005F1600005F08CF81022214605F170001E
:1064B00005F086F807B0F0BD2DDF032020DF0320B4
:1064C000E0DE03202CDF03200000FFFFF9420D0077
:1064D000A0E3032028DE0D0011420D000CE4032090
:1064E000D0E303207B690D0040F5032000DE0D00A2
:1064F000E9410D00F15D0D00ED400D00B0E303201A
:10650000F1400D00ECDD0D0039420D0040E40320A8
:1065100025430D000000000082B02DE9F84F0AA9C4
:1065200081E80C00344BDFF8D4B00022C0E904232A
:10653000044640F27E654FF0000ABDF8280004F0E2
:1065400045F9D4E90489206004F01CFC42464B461E
:1065500006460F4604F0C8FA52465B4604F07CFC3F
:1065600042464B4604F0C2FA02460B46C4E90423F5
:106570003046394604F0B8FA02460B46C4E9022315
:1065800004F06AFC02460B46C4E90623D4E908235A
:1065900004F0ACFA013D06460F46C4E90867CCD1C9
:1065A000DDE90C0110A3D3E9002304F055FC10A38E
:1065B000D3E90023804689463046394604F076FD0B
:1065C00041EC100B04F068F900220023C4E9082311
:1065D00051EC100B42464B4604F03EFCBDE8F84F30
:1065E00041EC100B02B070476666666666664A3F0D
:1065F0000000000000F899400000A0400000303F7B
:10660000034BC162002280ED0E0BC0E91C237047D2
:106610000000A040000000002DE9F74FDFF8C8B0EF
:106620000191044600254FF0000A019B9D422FD0A6
:10663000A08D04F0CBF8D4E91C89E06404F0A2FB3F
:1066400042464B4606460F4604F04EFA52465B461B
:1066500004F002FC42464B4604F048FA02460B4660
:10666000C4E91C233046394604F03EFA02460B4684
:10667000C4E9182304F0F0FB02460B46C4E92423C6
:10668000D4E9260104F032FA0135C4E92601CCE749
:1066900013A3D3E90023D4E90E0104F0DDFB064681
:1066A00028460F4604F05EFB02460B46D4E926015D
:1066B00004F0FCFC41EC100B04F0EEF832463B46D3
:1066C00051EC100B04F0C8FB41EC100B002200232E
:1066D000C4E90801C4E9262303B0BDE8F08F00BF78
:1066E0006666666666664A3F0000503F704710B5B2
:1066F0001021044604F0C7F8204610BD0368C9B253
:106700009B68184730B5034DC0E90223C0E900512A
:1067100030BD00BF2CDF0D00406802F0BFBD10B5DA
:106720000446006802F0FDFD204610BD2DE9F04151
:106730008AB004464068019002F0EAFD1E22002162
:1067400002A8A76804F03CFF0026EFB123681E2FC3
:10675000B84628BF4FF01E08DD6802AA43463146FE
:106760002046A847054658B90A480B493246FDF766
:1067700053FE01A8FFF7D3FF28460AB0BDE8F08119
:10678000A7EB08074644E0E701A8FFF7C8FF01258B
:10679000F2E700BF1CE60320F8DE0D002DE9F74309
:1067A0000446406801900D4616461F4602F0B0FDB3
:1067B000A7B1E168606841F0500102F0A2FD290A2A
:1067C0006068FFF79BFF29466068FFF797FF6068E6
:1067D000002102F099FD48B1002400E0012401A845
:1067E000FFF79DFF204603B0BDE8F083202F217BFB
:1067F0006068B84628BF4FF020080123424641F0A8
:10680000500102F068FD04F011F803681B69984715
:106810004045E1DB06EB080904F008F803685B6912
:10682000984706F8010B4E45F6D14544A7EB0807FB
:10683000BEE72DE9F74F0446406801900E469046AA
:106840001D4602F065FD4FF00109B9F1000F2AD095
:106850004DB3E168606841F0500102F052FD310A29
:106860006068FFF74BFF60683146FFF747FFA5F10F
:106870001E0A4746A6EB080B606817F8011B036861
:10688000013D9B68984755450BEB0706B84601D07C
:10689000002DF1D16068012102F036FD0028D7D02B
:1068A0004FF00009D1E701A8FFF739FF484603B0D0
:1068B000BDE8F08F2DE9F0438BB00E4615468046BB
:1068C000406801901C4602F023FDAE4229D22644C6
:1068D00025448CB11E2C2746D8F8003028BF1E272F
:1068E000F61BD3F8089002AA3B4631464046ED1B02
:1068F000C84748B9002400E0012401A8FFF70FFFB2
:1069000020460BB0BDE8F083D8F8003002AAD3F8D7
:106910000C9029463B464046C8470028EAD0E41B75
:10692000D7E7E9D9002CE7D0D8F800301E2C27464D
:1069300028BF1E27D3F8089002AA3B46314640469E
:10694000C8470028D6D0D8F8003002AAD3F80C9057
:1069500029463B464046C8470028CBD03E443D44EC
:10696000E41BDFE74020704700207047802070471D
:10697000FF207047704770477047704710B514216B
:10698000044603F080FF204610BD10B508210446E0
:1069900003F079FF204610BD10B50821044603F02E
:1069A00072FF204610BD10B51C21044603F06BFF9A
:1069B000204610BD2DE9FF410368DB680446984777
:1069C00010220146684604F0FBFD236820469B68C0
:1069D0009847002507462846BD420ED27E1B2368F5
:1069E000102E28BF1026D3F818806A463346294651
:1069F0002046C04708B13544EEE704B0BDE8F08159
:106A00004FF48073438140F20113C360002303827B
:106A10007047000008B5064B0360064B436040F228
:106A20000473038100234374FFF7EAFF08BD00BF2E
:106A30000CE00D000001020303090A2200F00F0020
:106A400002FB0300704708B5807AFFF7F5FF00F5F9
:106A5000FA6008BDC07A00F01F00FFF7EDBF007BB1
:106A600000F03F00FFF7E8BF08B5817B4A060DD56F
:106A700001F01F00FFF7E0FF8B0603D50C2800D0C4
:106A80000C3008BD0C2808BF0020FAE7BDE808401C
:106A900001F03F00FFF7D0BFC07B00F07F00FFF7A1
:106AA000CBBF007C00F07F00FFF7C6BF10B58AB0F7
:106AB00024220446002101A804F082FD2046FFF7AD
:106AC000C2FFA0F26C7006902046FFF7C3FF0138AA
:106AD00005902046FFF7C3FF04902046FFF7C4FF50
:106AE00003902046FFF7D8FF02902046FFF7D9FF1A
:106AF000019001A801F0FCFF0AB010BD0A2190FB33
:106B0000F1F292FBF1F301FB13231B01DBB201FB5A
:106B100012001843C0B27047642310B5044691FBBD
:106B2000F3F000FB1310FFF7E9FFA07210BD10B5E2
:106B300004460846FFF7E2FFE07210BD10B50446B8
:106B40000846FFF7DBFF237B23F03F031843207346
:106B500010BD10B50446481CFFF7D0FF637B23F03F
:106B600007031843607310BD10B504460846FFF7CD
:106B7000C5FFA07310BD10B504460846FFF7BEFF61
:106B8000E07310BD10B504460846FFF7B7FF237C3D
:106B900023F07F031843207410BD37B504466846C0
:106BA000CDE9002304F0D2FC054641692046FFF7F9
:106BB000B3FF296920460131FFF7B9FFE968204694
:106BC000FFF7BCFFA9692046FFF7C3FFA96820466D
:106BD000FFF7CAFF69682046FFF7CDFF29683B2908
:106BE000A8BF3B212046FFF7CDFF03B030BD00001A
:106BF000054A0061C0E90021044A8260044AC2607B
:106C0000044A80614261704740E00D0000000103CA
:106C1000E8DF0D001CE00D002DE9F84F04460F469B
:106C20009046994600260A9B9E4231D260683946BA
:106C300002F063FB08EB06016068FFF75FFD606828
:106C4000002102F061FB0546D0B90A9B60689A1BDF
:106C5000202A4FF0010328BF2022394602F03BFBD7
:106C600009EB060B05460BEB000ADA4506D0606817
:106C700003685B6998470BF8010BF6E72E44D2E7EF
:106C8000024604490448FDF7C7FB2846BDE8F88FD3
:106C90000025FAE740DF0D00C8E503202DE9F341A8
:106CA00001EB03081E4603689B6805460C46174621
:106CB000984780450DD82034686800963B46E2B27C
:106CC0006F21FFF7A9FFB0FA80F0400902B0BDE8DC
:106CD000F0810020FAE72DE9F34101EB03081E469D
:106CE00003689B6804460D461746984780450CD8B4
:106CF000606800963B46EAB25721FFF78DFFB0FA75
:106D000080F0400902B0BDE8F0810020FAE77FB5CD
:106D10001E1E0CBF072306230093144602AB0A462F
:106D20006F21FFF779FF0546A8B99DF80830237455
:106D30009DF80930E3739DF80A30A3739DF80B307A
:106D400063739DF80C3023739DF80D30E3722EB9F8
:106D50009DF80E30A372284604B070BD03F0BAFA55
:106D6000FFF7CCFEA072F6E71FB501230A46009399
:106D70006F2103ABFFF750FF20B99DF80C0005B061
:106D80005DF804FB0020FAE708B50321FFF7ECFFEC
:106D9000C0F3401008BD38B500230C460A4619461A
:106DA0000546FFF7B4FF30B9A37A23B12846BDE802
:106DB0003840FFF7E9BF002038BD7FB5024601A883
:106DC000FFF728FE01A91046FFF7E5FF28B101A84B
:106DD000FFF76CFE07B05DF804FB00200146F9E701
:106DE000D0B5044686B0406802F058FA03F038FA8D
:106DF000E8B9E37A9B071AD52046FFF7DEFF06467F
:106E00000F4656EA070312D003F031F90A4B0B493B
:106E10001B68009332463B4602A803F0DFF908489E
:106E2000029A0849FDF7F8FA02A802F095FF01233B
:106E3000237206B0D0BD00BF00DD032048E603206A
:106E4000C8E503205ADF0D002DE9F84F06468846B5
:106E500091469A4600250A9B9D4229D27068414678
:106E600002F04BFA706809EB0501FFF747FC0A9B3B
:106E70005F1B1F2F28BF1F270AEB050407EB040B1E
:106E8000706814F8011B026892689047A345F7D117
:106E90007068012102F038FA044638B1024605490B
:106EA0000548FDF7B9FA2046BDE8F88F3D44D2E722
:106EB0000024F8E76FDF0D00C8E503202DE9F3415A
:106EC00001EB03081E4603689B6805460C461746FF
:106ED000984780450DD82034686800963B46E2B25A
:106EE0006F21FFF7B1FFB0FA80F0400902B0BDE8B2
:106EF000F0810020FAE71FB5137C8DF80830D37BB2
:106F00008DF80930937B8DF80A30537B8DF80B3068
:106F1000137B8DF80C30D37A8DF80D30937A8DF881
:106F20000E30072300930A4602AB6F21FFF78CFF58
:106F300005B05DF804FB10B588B0044603A80193C2
:106F4000FFF768FD019B03A8FFF727FE9DF81C30A3
:106F5000A27A63F07F038DF81C309DF819306AB176
:106F600043F0080303AA002120468DF81930FFF7EB
:106F7000C2FFB0FA80F0400908B010BD03F0F7037B
:106F8000F0E70000F0B587B0054603F069F9044664
:106F9000E8B103F082F9C717024606463B46284689
:106FA000FFF7C9FF0C4B0D491B68009332463B4667
:106FB000044602A803F012F90948029A0949FDF7AC
:106FC0002BFA02A802F0C8FE204607B0F0BD064921
:106FD0000348FDF721FAF7E700DD032048E6032028
:106FE000C8E503208ADF0D00A0DF0D0037B5457A24
:106FF00004469DB903F034F980B1002200236946AC
:107000002846CDE9002301F093FC38B1E37ADB0791
:1070100002D52046FFF7B6FF0123637203B030BDEF
:107020001FB501238DF80C2000930A4603AB6F2196
:10703000FFF70AFF05B05DF804FBF8B504460D46FE
:1070400017461E46FFF790FE00EA07023243294624
:107050002046BDE8F840FFF7E3BF012908B50CD88A
:1070600000294FF0000314BFDF22EF220721FFF7B2
:10707000E4FFB0FA80F0400908BD0020FCE738B515
:10708000044632256068572102F037F96068012113
:1070900002F03AF908B1013DF4D138BD2DE9F041D3
:1070A00004460F46164602EB0308B04520D0606840
:1070B000572102F022F939466068FFF71FFB60682C
:1070C00016F8011B03689B6898476068012102F06D
:1070D0001BF90137054638B1024606490648FDF757
:1070E0009BF92846BDE8F0812046FFF7C8FFDCE7A2
:1070F0000025F6E7B5DF0D00C8E50320F7B5CF188A
:107100001E46036801929B6804460D4698478742D5
:107110000AD8019A60683346E9B2FFF7BFFFB0FAB8
:1071200080F0400903B0F0BD0020FBE7014B024AAC
:107130001A607047C8E50320D6DF0D00012A034618
:1071400002D1016000207047022A04BFD1E900018A
:10715000C3E90001F6E710B5012303748368044610
:1071600043B1C0689847012363740020BDE8104014
:1071700001F080B900680028F5D083680BB903F0EE
:1071800088FBC368EEE710B442680346541001EB75
:107190006200D20748BF0A591B685DF8044B48BF1C
:1071A000D35818470123F7B580F829300646083030
:1071B00001F038F90420FCF76EFF054698B31B492F
:1071C000142003F062FB30B10023C0E90033C0E9B2
:1071D0000233037443742860A0B1154B1549C0E90C
:1071E00002364FF40063CDE900030222124B043053
:1071F00001F0E0F830B92B681B7CA3B9012001F045
:1072000059F9F8E72C6800232B6064B1276837B17F
:107210003846FDF77DF81021384603F034FB142181
:10722000204603F030FB756003B0F0BDF0E40D00C4
:1072300043740D0048E00D0057710D0047F23051C6
:10724000084AC160084902600022C0E904120749E7
:10725000C16107494260C0E908228161028580F866
:107260002A2070470CE10D00AD750D0087710D00EF
:107270003D710D0010B5044B044640F8103BFDF77E
:1072800047F8204610BD00BF0CE10D0010B5034BC0
:1072900003600446FFF7EEFF204610BD34E10D0009
:1072A00010B50446FFF7F2FF2046382103F0EBFA51
:1072B000204610BD806801F0BDB8806801F0C2B8FA
:1072C00010B504460068FFF7F8FF204610BD13B55F
:1072D00004460190FFF7EEFFE36ADC88A4B20CB12C
:1072E00003F1080401A8FFF7EBFF204602B010BD30
:1072F00013B504460190FFF7DDFF94F8283043B939
:10730000E26A0124D38001A8FFF7DAFF204602B029
:1073100010BD0024F7E713B504460190FFF7CAFF3C
:10732000E36A01A8DC88FFF7CBFF204602B010BD5E
:107330002DE9F047994686B090F829309DF838A09D
:107340009DF83C8004460F46164613B903689B68B7
:107350009847314B3846002E08BF1E4604F08BF983
:107360000546304604F087F9284400F10A05AB07CA
:107370001CBF25F0030504353346CDE90285CDE970
:10738000009A264926483A46FDF746F8238E083BE0
:10739000AB4212D20024204606B0BDE8F087CB886D
:1073A000012B36D005A8FFF78BFF236894F828102F
:1073B0009B69204698470028ECD020460594FFF7AB
:1073C00079FFE16A228E636B0A44D21AAA42E6D39D
:1073D00048EA0A0883F80480C3F80090636B03F15D
:1073E00008083946404604F021F9404604F043F9C4
:1073F00001303146404404F019F9636BE26A1D44E0
:107400006563D3880133D380012405A8FFF758FFB3
:10741000C1E70024F9E700BF18E50D005AE00D00B0
:10742000CCE5032008B5044600F11005A3690BB9AB
:1074300003F02FFAE36921462846984700F0C2FF7F
:10744000F4E708B5FFF7EEFF68B501F10805064659
:10745000284604F010F901300544284604F00BF9E1
:10746000F36A01302844C31A13F003031CBFC3F1AD
:107470000403C01868BDF7B504460E460190FFF737
:1074800019FFE76AFB8807F10805E6B1012B22D94D
:1074900029462046FFF7D8FF054629462046FFF734
:1074A000D3FF228E3A44121A0146A0EB050602D001
:1074B000284604F06BF8636B9B1B6363FB88013BFE
:1074C000FB80012601E0002BE7D101A8FFF7F8FEC1
:1074D000304603B0F0BD0026F7E700002DE9F04785
:1074E0000D4604462F461646FFF7A8FE154B57F8E3
:1074F000082B2360144BE5629A422686984617D1E2
:10750000AB889BB2B34213D105EB060A67634FF019
:107510000009EB881FFA89F29BB29A420ED2616B86
:107520002046FFF791FF5045606309F10109F0D94A
:107530000023C5F800806763AE80EB802046BDE87D
:10754000F08700BF34E10D0061AB9CD110B5D1E9EB
:10755000002386B00021044604910AB9D90705D555
:10756000CDE902230F4B05930F4B049302AB93E835
:1075700003006A4682E8030094E8030083E80300FE
:1075800092E80300049A84E80300A168A260059AC7
:1075900004911846E168E2600591FCF7B9FE2046C7
:1075A00006B010BD87710D003D710D0007B5054B8C
:1075B00000936946002310300193FFF7C7FF03B023
:1075C0005DF804FBF5750D0013B5044600F082FF6D
:1075D000636AC01AE368984208D3054B0093694672
:1075E000002304F110000193FFF7B0FF02B010BDBB
:1075F000F5750D002DE9F04190F82A3086B004466B
:10760000002B64D101F064F9002860D000F062FF23
:10761000636AC01A40F2F133984258D92368204671
:107620005B6998470546002851D000F108070123FF
:1076300084F82830384604F01EF895F80480CDF818
:10764000048001302B682B4900933E1833462A48AA
:107650003A46FCF7E1FE2B688DF800803246394649
:1076600002A801F029FC029D6B781BB9012001F0F2
:1076700047FAF8E7002001F0CDF820B16B7813B994
:1076800001F016F9FAE72B78012B23D11B491A4890
:10769000FCF7C2FE236800219B692046984700231F
:1076A00084F8283000F016FF6062039C7CB16368A8
:1076B000013B63605BB9236820469B689847A368D9
:1076C000013BA3601BB923682046DB68984706B0DE
:1076D000BDE8F081E2680A490748FCF79DFE094BC6
:1076E000049304A9002304F110000593FFF72EFF73
:1076F000D5E700BF9BE00D00CCE50320BCE00D000A
:10770000D3E00D00C9750D00014B024A1A607047A5
:10771000CCE50320FAE00D00704770470069143093
:107720007047012A034602D1016000207047022AF7
:1077300004BFD1E90001C3E90001F6E710B5044B2D
:10774000044640F80C3B02F007FB204610BD00BF8A
:10775000B4E20D0010B50446FFF7F0FF20461C21EF
:1077600003F091F8204610BD10B5054B044640F8D3
:107770001C3B02F0F1FA2046FFF7E0FF204610BD67
:1077800098E20D0010B50446FFF7EEFF20462C21CD
:1077900003F079F8204610BD13B504460846019160
:1077A00003F069FF6369013B83420FD920690199A6
:1077B000143003F03BFF23682046DB6898472368BA
:1077C0001B6A204602B0BDE810401847002002B0F6
:1077D00010BD10B442680346541001EB6200D2079A
:1077E00048BF0A591B685DF8044B48BFD358184777
:1077F000022A38B5044607D0032A11D0012A01D144
:107800000B682360002038BD0C200D68FCF743FC9A
:1078100003460028F5D095E8070083E80700F0E765
:1078200000680028EED00C2103F02DF8EAE770B4D0
:10783000036809685C689D681B681268661005EB40
:107840006400E40744BFAC59E35870BC184700001B
:1078500010B5064B044640F8243BFCF759FD04F1F3
:107860000C00FCF755FD204610BD00BF58E20D008E
:1078700010B50446FFF7ECFF2046382103F003F86B
:10788000204610BD08B503685B689847007800384B
:1078900018BF012008BD000010B50024C0E9014454
:1078A000C460024C0460C0E9041210BD6CE20D001B
:1078B00070B504460069114D0268AA4206D10379E9
:1078C000142B03D1C288A38A9A4211D014263246BF
:1078D000002103F075FE23691D6023691E71D4E940
:1078E0000432DA80D4E904020021304403F068FE57
:1078F00023682046DB68BDE87040184753DD5172AD
:10790000054A02600022C0E90122C0E90722426163
:10791000C2624263704700BF58E20D0010B5064CCA
:1079200023683BB93820FCF7B6FB034608B1FFF7E4
:10793000E7FF2360206810BDD4E5032007B501925E
:10794000FFF7ECFF036801991B6803B05DF804EBD7
:10795000184710B50446406803681B699847A0683B
:1079600010B103685B689847E36A33B1236B214623
:1079700004F12400BDE81040184710BD10B58AB0CE
:10798000044606A8019100F0ABFF019B069A094945
:1079900002A802F0CFFA06A802F0DEF9029904F17B
:1079A0000C0002F052FA02A802F0D6F920460AB002
:1079B00010BD00BF54E10D004FF4FA624EF6602393
:1079C00070B5C0E9012304460C4B40F80C3B0D4652
:1079D00026460B4902F00BFA0A4B46F81C3B0849B5
:1079E000304602F004FA2946304602F02EFA2946C3
:1079F0002046FFF7C3FF204670BD00BFB4E20D0074
:107A000018E50D0098E20D00826810B50AB902F081
:107A100040FFBDE81040C3681847000038B5044671
:107A20000A460A480D460A49FCF7F6FC606802233C
:107A3000236248B1036829465B69984763691BB1B3
:107A400004F10C00FFF7E0FF012038BD1CE6032025
:107A500069E10D001FB50446C26909490948FCF7F0
:107A6000DBFC094B094A1B78E1698DF8003002A85C
:107A70003C2301F021FA03A8FDF79CFD04B010BDE2
:107A80007EE10D001CE60320D0E5032018E50D0083
:107A900038B5002383608B6804460D462BB1022263
:107AA0009847EB68E360AB68A360204638BD0000F0
:107AB00070B58AB0C668044600250C200495FCF712
:107AC000EAFA18B1134B8460C0E90035124B0290FA
:107AD000059302A9114B049306A8FFF7D9FF089B51
:107AE00083B11020FCF7D7FA044658B106A9FFF776
:107AF000CFFF0023CDE90033094901232246304658
:107B000000F0FEFE06A8FCF703FC02A8FCF700FC50
:107B10000AB070BD3D790D002F780D00F1770D0092
:107B2000B78C0D000B68036013B15A6801325A60BC
:107B3000704737B58D6851F8043B0093044601A89F
:107B4000FFF7F0FF6A462946204601F071FE01A8C2
:107B5000FDF730FD204603B030BD70B58CB0044653
:107B600006A81646FFF7E5FF06A801F079FE0028F3
:107B70002DD0099D069B009307A901A8FFF7D2FF0E
:107B800029466A4602A801F02FFE01A8FDF712FD62
:107B90000498314603F040FD054603A8FDF70AFDB1
:107BA000002DE1D10A9D069B029307A903A8FFF7C8
:107BB000B9FF02AA2946204601F000FD03A8FDF7FF
:107BC000F9FC07A8FDF7F6FC20460CB070BDC4E92F
:107BD0000000A060F5E7000010B5D1E9002386B0F1
:107BE0000021044604910AB9D90705D5CDE902233D
:107BF0000F4B05930F4B049302AB93E803006A46C7
:107C000082E8030094E8030083E8030092E803009D
:107C1000049A84E80300A168A260059A04911846BA
:107C2000E168E2600591FCF773FB204606B010BDE9
:107C3000D3770D0023770D0013B50446406880B15B
:107C400003689B689847A06858B103681B68984709
:107C5000054B00936946002304F124000193FFF7CC
:107C6000BBFF02B010BD00BF6D7C0D0013B5044614
:107C70004068FFF707FE28B163691BB104F10C00EF
:107C8000FFF7C2FE054B00936946002304F1240070
:107C90000193FFF7A1FF02B010BD00BFA17C0D0052
:107CA00013B5044600F014FE90B102F0D9FA78B191
:107CB00008490948FCF7B0FB084B009369460023CC
:107CC00004F124000193FFF787FF00F003FC6063D9
:107CD00002B010BDA7E10D001CE60320E17C0D0001
:107CE00037B5044600F0F6FB636BC01AA3685B6807
:107CF000984217D36068FFF7C5FD04F1240598B1D9
:107D0000E369013310D00B490B48FCF785FB00F009
:107D1000E1FB0A4B60630093694600232846019308
:107D2000FFF75AFF03B030BD05490348FCF774FB69
:107D3000044BF0E7B7E10D001CE60320497D0D0080
:107D4000C7E10D00AD7D0D0037B5044600F0C2FB64
:107D5000636BC01A42F20F7398421ED902F080FA88
:107D6000D8B1E369002B18DD02F097FA0546606888
:107D700003681B6898478068E3692D1A9D420CDDF3
:107D800007490848FCF748FB074B00936946002366
:107D900004F124000193FFF71FFF03B030BD00BFC3
:107DA000E4E10D001CE60320AD7D0D0037B504466F
:107DB0000F491048FCF730FB606803681B68984760
:107DC000054602F06AFA0123A860236200F082FBF4
:107DD000094B606300936946002304F1240001937A
:107DE000FFF7FAFEA06803689B68984703B030BDB0
:107DF000FDE10D001CE60320FD7D0D0013B5036AB7
:107E0000012B04461BD100F065FB636BC01AA3680D
:107E10009B68984211D90C490C48FCF7FDFA0423E1
:107E2000236200F057FB0A4B60630093694600230E
:107E300004F124000193FFF7CFFE02B010BD054905
:107E40000248FCF7E9FAECE70EE20D001CE603201D
:107E5000497D0D002EE20D00014B00221A70704783
:107E6000D0E503207047012A034602D101600020BB
:107E70007047022A04BFD1E90001C3E90001F6E717
:107E800013B504461046019203F0F5FB63680199AF
:107E900002461E2A03F10C0006D803F0C7FB01239B
:107EA00084F8353002B010BD1F2203F0FEFB63687A
:107EB000002283F82B20F2E710B4426803465410E6
:107EC00001EB6200D20748BF0A591B685DF8044BFA
:107ED00048BFD3581847022A38B5044607D0032AAA
:107EE00011D0012A01D10B682360002038BD0C207D
:107EF0000D68FCF7D0F803460028F5D095E8070098
:107F000083E80700F0E700680028EED00C2102F0BB
:107F1000BAFCEAE770B4036809685C689D681B688E
:107F20001268661005EB6400E40744BFAC59E358DF
:107F300070BC184710B5064B044640F8203BFCF7D0
:107F4000E7F904F11000FCF7E3F9204610BD00BF8B
:107F5000E8E20D0010B50446FFF7ECFF204638219B
:107F600002F091FC204610BD10B5034B036004469F
:107F7000FFF7E0FF204610BDFCE20D0010B50446FF
:107F8000FFF7F2FF2046382102F07DFC204610BDAD
:107F9000836A014613B1C36A203018477047000056
:107FA00030B5074A0260002400220025C0E90245DE
:107FB0004260826182620263828680F8362030BD30
:107FC000E8E20D0008B50346FFF7EAFF014A1A6030
:107FD000184608BDFCE20D0010B5064C23683BB9FD
:107FE0003820FCF758F8014608B1FFF7EBFF216095
:107FF000206810BDDCE5032007B5826801910AB94D
:1080000002F047FCC36801A9984703B05DF804FB80
:108010007FB5002302938B6804460D4600F11006DD
:1080200033B1022268469847EB680393AB6802932A
:1080300031466846FDF730FF029BA269A361039BAE
:1080400002926846E269E3610392FCF761F9204617
:1080500004B070BD1FB5D1E9002300210446029190
:108060000AB9D90705D5CDE900230B4B03930B4B78
:10807000029321466846FDF70FFF029BA268A360AA
:10808000039B02926846E268E3600392FCF740F9C2
:10809000204604B010BD00BFB97E0D00677E0D0004
:1080A00073B5044640680D4D0268AA4202D10379B7
:1080B0002C2B08D02C263246002103F081FA63686D
:1080C0001D6063681E71064B00936946002304F12E
:1080D00020000193FFF7BEFF02B070BDF2A28777C8
:1080E000ED800D004160FFF7DBBF000037B5416850
:1080F0000B7B044600F1200593B183691BB10C3161
:108100001030FFF779FF0A4B009369460023284699
:108110000193FFF79FFF00F0DDF9206303B030BD4E
:10812000044A69462846CDE90023FFF793FFF5E7A7
:1081300089820D0011830D0013B5044600F0C8FBC1
:1081400070B102F08DF858B1064B009369460023D8
:1081500004F120000193FFF77DFF00F0BBF92063DD
:1081600002B010BD69810D0030B5054685B000F044
:10817000B1F92B6BC01AB0F5FA6F29D3154B16491C
:108180001B788DF80030002285F835203C2302A8AA
:1081900000F092FE039C7CB16368013B63605BB9B5
:1081A000236820469B689847A368013BA3601BB9DE
:1081B00023682046DB689847084B029302A90023F6
:1081C00005F120000393FFF745FF00F083F92863D2
:1081D00005B030BDD8E50320C8E20D00E1810D00F7
:1081E00073B590F8355004461DB34668337B00F1F3
:1081F0002005DBB102F051F8B060236820469B688F
:108200009847A3692BB1616804F110000C31FFF7A6
:10821000F3FE0F4B00930023019369462846FFF7B6
:1082200019FF00F057F9206302B070BD094A0092AF
:10823000F2E700F04FF9236BC01A43F697239842F8
:10824000F2D9044B6946CDE9003504F12000E6E798
:1082500089820D0059820D0013B5044600F03AF9E9
:10826000236BC01A064B984208D9064B0093694607
:10827000002304F120000193FFF7ECFE02B010BDD3
:10828000DF93040039810D00F7B5044600F022F9B0
:10829000236BC01A42F20F7398421ED900F01AF9EC
:1082A00094F8365020635DB1184A0023CDE90023CD
:1082B00084F83630694604F12000FFF7CBFE0CE06D
:1082C000D4E9022313430AD1A36A33B104F1200194
:1082D000032208469847C4E90A5503B0F0BD01F0EF
:1082E000BFFF0028F9D06368D4E902679B68F618DD
:1082F00047EBE37701F0D1FFC117864277EB01032B
:10830000EBDA024BCDE90035D4E700BF11830D0055
:1083100030B590F834508BB004466DBB0C200495FA
:10832000FBF7B9FE18B11A4B8460C0E90035194B50
:108330000290059302A9184B049306A8FFF7A8FB27
:10834000089B83B11020FBF7A6FE054658B106A98D
:10835000FFF79EFB0023CDE90033104910480123AD
:108360002A4600F0CDFA06A8FBF7D2FF02A8FBF7D9
:10837000CFFF012384F834300A4B069306A900236B
:1083800004F120000793FFF765FE0BB030BD00BF7E
:10839000817E0D00157F0D00D77E0D00B78C0D007E
:1083A000C8E20D0039810D00014B00221A707047A0
:1083B000D8E5032008B5024B1B685B68019308BD34
:1083C0004802030008B5024B1B68DB68019308BD37
:1083D0004802030008B5024B1B68DB69019308BD26
:1083E0004802030008B5024B1B681B6A019308BDD5
:1083F0004802030008B5024B1B685B6A019308BD85
:108400004802030008B5024B1B689B6A019308BD34
:108410004802030008B5024B1B68DB6A019308BDE4
:108420004802030008B5024B1B681B6B019308BD93
:108430004802030008B5024B1B689B6B019308BD03
:108440004802030008B5024B1B681B6C019308BD72
:108450004802030008B5024B1B685B6C019308BD22
:108460004802030008B5024B1B689B6C019308BDD2
:108470004802030008B5024B1B68DB6E019308BD80
:108480004802030008B5024B1B681B6F019308BD2F
:108490004802030008B5024B1B685B6E019308BDE0
:1084A0003402030008B5024B1B685B68019308BDEA
:1084B0001802030008B5024B1B689B68019308BDB6
:1084C0001802030008B5024B1B68DB68019308BD66
:1084D0001802030008B5024B1B685B69019308BDD5
:1084E0001802030008B5024B1B689B6D019308BD81
:1084F0001802030008B5024B1B68DB6D019308BD31
:108500001802030008B5024B1B685B6E019308BD9F
:108510001802030008B5024B1B689B6E019308BD4F
:108520001802030008B5024B1B685B68019308BD85
:108530002C02030008B5024B1B689B68019308BD21
:108540002C02030008B5024B1B68DB68019308BDD1
:108550002C02030008B5024B1B681B69019308BD80
:108560002C02030008B5024B1B689B69019308BDF0
:108570002C02030008B5024B1B68DB69019308BDA0
:108580002C02030008B5024B1B681B6B019308BD4E
:108590002C02030008B5024B1B68DB68019308BD81
:1085A0002802030008B5024B1B689B69019308BDB4
:1085B0002802030008B5024B1B68DB69019308BD64
:1085C0002802030008B5024B1B681B6A019308BD13
:1085D0002802030008B5024B1B685B6A019308BDC3
:1085E0002802030008B5024B1B689B6A019308BD73
:1085F0002802030008B5024B1B68DB6A019308BD23
:108600002802030008B5024B1B681B6B019308BDD1
:108610002802030008B5024B1B685B6B019308BD81
:108620002802030008B5024B1B681B6C019308BDB0
:108630002802030008B5024B1B689B6C019308BD20
:108640002802030008B5024B1B68DB6C019308BDD0
:108650002802030008B5024B1B681B6D019308BD7F
:108660002802030008B5024B1B685B69019308BD33
:108670006402030008B5024B1B689B68019308BDA8
:108680006802030008B5024B1B68DB68019308BD54
:108690006802030008B5024B1B68DB69019308BD43
:1086A0003002030008B5024B1B681B6A019308BD2A
:1086B0003002030008B5024B1B681B68019308BD1C
:1086C0003C02030008B5024B1B68DB68019308BD40
:1086D0003C02030008B5024B1B681B69019308BDEF
:1086E0003C02030008B5024B1B685B69019308BD9F
:1086F0003C02030008B5024B1B689B69019308BD4F
:108700003C02030008B5024B1B68DB69019308BDFE
:108710003C02030008B5024B1B681B6A019308BDAD
:108720003C02030008B5024B1B689B6A019308BD1D
:108730003C02030008B5024B1B681B68019308BD8F
:108740004C02030008B5024B1B681B69019308BD6E
:108750004C02030008B5024B1B685B69019308BD1E
:108760004C02030008B5024B1B689B69019308BDCE
:108770004C02030008B5024B1B68DB69019308BD7E
:108780004C02030008B5024B1B681B6A019308BD2D
:108790004C02030008B5024B1B685B6B019308BDDC
:1087A0006002030008B5024B1B689B6B019308BD78
:1087B0006002030008B5024B1B68DB6B019308BD28
:1087C0006002030008B5024B1B685B6D019308BD96
:1087D0006002030008B5024B1B681B68019308BDCB
:1087E0002002030008B5024B1B685B68019308BDBB
:1087F0002002030008B5024B1B685B69019308BDAA
:108800002002030008B5024B1B68DB6A019308BD18
:108810002002030008B5024B1B68DB6C019308BD06
:108820002002030008B5024B1B685B6D019308BD75
:108830002002030008B5024B1B689B6D019308BD25
:108840002002030008B5024B1B68DB6D019308BDD5
:108850002002030008B5034B1B68D3F8883001934E
:1088600008BD00002002030008B5034B1B68D3F8C5
:108870009430019308BD00002002030008B5034BAB
:108880001B68D3F8B030019308BD0000200203003C
:1088900008B5024B1B681B68019308BD4402030026
:1088A00008B5024B1B685B68019308BD44020300D6
:1088B00008B5024B1B689B68019308BD4402030086
:1088C00008B5024B1B68DB68019308BD4402030036
:1088D00008B5024B1B685B69019308BD44020300A5
:1088E00008B5024B1B68DB69019308BD4402030015
:1088F00008B5024B1B681B6A019308BD44020300C4
:1089000008B5024B1B685B6A019308BD4402030073
:1089100008B5024B1B68DB6A019308BD44020300E3
:1089200008B5024B1B681B6B019308BD4402030092
:1089300008B5024B1B685B6B019308BD4402030042
:1089400008B5024B1B689B6B019308BD44020300F2
:1089500008B5024B1B68DB6B019308BD44020300A2
:1089600008B5024B1B685B68019308BD4002030019
:1089700008B5024B1B689B68019308BD40020300C9
:1089800008B5024B1B68DB68019308BD4002030079
:1089900008B5024B1B681B69019308BD4002030028
:1089A00008B5024B1B685B69019308BD40020300D8
:1089B00008B5024B1B689B69019308BD4002030088
:1089C00008B5024B1B68DB69019308BD4002030038
:1089D00008B5024B1B681B6A019308BD40020300E7
:1089E00008B5024B1B681B6B019308BD40020300D6
:1089F00008B5024B1B685B6B019308BD4002030086
:108A000008B5024B1B681B6C019308BD40020300B4
:108A100008B5024B1B685B6C019308BD4002030064
:108A200008B5024B1B681B68019308BD1C020300BC
:108A300008B5024B1B685B68019308BD1C0203006C
:108A400008B5024B1B689B68019308BD1C0203001C
:108A500008B5024B1B681B69019308BD1C0203008B
:108A600008B5024B1B68DB69019308BD1C020300BB
:108A700008B5024B1B685B6A019308BD1C0203002A
:108A800008B5024B1B68DB6A019308BD1C0203009A
:108A900008B5024B1B681B6B019308BD1C02030049
:108AA00008B5024B1B68DB6B019308BD1C02030079
:108AB00008B5024B1B685B6C019308BD1C020300E8
:108AC00008B5024B1B689B6C019308BD1C02030098
:108AD00008B5024B1B68DB6C019308BD1C02030048
:108AE00008B5024B1B681B6D019308BD1C020300F7
:108AF00008B5024B1B685B6D019308BD1C020300A7
:108B00000021FFF777BE10B5836804460BB901F06A
:108B1000C0FEC3689847A3681BB1032221462046C4
:108B2000984720461021BDE8104001F0ACBE10B5BA
:108B30000446006808B1FFF795FC204610BD000010
:108B400010B5064C002320462360FFF783FC204627
:108B5000034A0449BDE8104001F090BEE0E503205F
:108B6000E0DE03202F8B0D00002240681146FFF746
:108B70000FBF002240681146FFF72ABF002240685D
:108B80001146FFF735BF40680022FFF729BF406854
:108B9000002281F00101FFF713BF002340681A464D
:108BA0001946FFF705BF002340681A461946FFF72C
:108BB000F7BE002240681146FFF7DABE4068002287
:108BC0000221FFF7DDBE002340681A46FFF7C8BE4A
:108BD000084B10B5282422461846002102F0F0FC6C
:108BE000054B04804FF0FF32426004225A60034A72
:108BF0001A6010BDECE50320E4E5032010E30D004E
:108C000070470020704710B51021044601F03BFE6C
:108C1000204610BD08B5FFF7F6FF08BD30B50022AD
:108C20004FF69C74026084808D888C800C688580EF
:108C300004600A6030BD10B504460068FFF7F8FE16
:108C4000204610BD38B5C468F4B12378022B03D197
:108C500004F10C00FFF7EFFF656835B12846FBF71C
:108C600057FB1021284601F00EFEA56835B12846B5
:108C7000FBF74EFB1021284601F005FE204614218B
:108C8000BDE8384001F0FFBD38BD10B588B00446DE
:108C9000684601F0ACF8694604A801F0CBF804A8D6
:108CA000A047044604A801F057F8684601F054F8BC
:108CB000204608B010BD07B5CDE9001282680AB998
:108CC00001F0E7FDC36801AA6946984703B05DF863
:108CD00004FB1FB50023CDE90201019210241A46BE
:108CE00069461846ADF80230ADF80040FFF7D8FDF0
:108CF00004B010BD73B50E46044656F8043B00930D
:108D00000D4601A83146FEF70DFF019A009B6260F7
:108D1000236001A8002301930093FCF74BFC30462D
:108D2000FCF748FC2846082101F0ADFD204602B0C2
:108D300070BD826810B50AB901F0ABFDBDE8104006
:108D4000C368184708B5006800F11001FFF7F1FF8C
:108D500008BD826810B50AB901F09BFDBDE810405E
:108D6000C368184708B5006800F11001FFF7F1FF6C
:108D700008BD000038B500230446036010200D46EE
:108D8000FBF789F928B10123C0E90133024B0360E5
:108D9000C5602060204638BD4CE30D0038B5002387
:108DA00083608B6804460D462BB102229847EB681E
:108DB000E360AB68A360204638BD0000F0B589B021
:108DC00004686846FFF72AFF4FF00203D4E84F2FEC
:108DD000002A03D1C4E8413F0029F7D125D104F18D
:108DE0000C0569462846FFF719FFBFF35B8F012387
:108DF0006370002004F10803BFF35B8F53E8006F3A
:108E000043E80002002AF9D1BFF35B8F6EB1FFF790
:108E100001FD78B129463046FFF78BFF3046FBF75E
:108E200077FA1021304601F02EFD6846FFF703FF68
:108E300009B0F0BD314602A8FFF7B0FFE068B4F911
:108E4000105008B102F0FAFB06901020ADF81C504B
:108E5000FBF721F90546E8B1002787601820FBF7EA
:108E60001AF9044688B10146876002A8FDF714F894
:108E7000049BA268A360059B049206A9E268E360D4
:108E800004F110000592FFF7C9FE084BEB60084B98
:108E90002C60AB6006A8FFF7CEFE02A8FBF738FAFD
:108EA000002229460348FFF7BDFCB7E7458D0D00BA
:108EB000DD8F0D00078B0D002DE9F0478AB00546C8
:108EC0009DF848900C4617469846FFF701FD07AEFF
:108ED000824638BB4FF62E73059005A93046ADF893
:108EE0001830FFF79BFE1420FBF7D5F8044648B175
:108EF000022303700123C0E901AA437031460C30FC
:108F0000FFF78CFE2846214640F8044BFFF732FF5E
:108F10003046FFF790FE05A8FFF78DFE28460AB001
:108F2000BDE8F0870C234FF0000A1420CDE908AA11
:108F30000793FBF7B0F8014628B1C0E901AA80F811
:108F400000A080F801A004A80391FFF713FF224BB3
:108F500008930820FBF79FF8824628B1039B40F84E
:108F6000043B04A9FEF7DEFD00965FFA89F3424652
:108F700039462046CDF824A0FFF7BAFCB8B9039BC8
:108F80005B7803F0FF0293B94FF69C7305A903A821
:108F90000592ADF81830FFF711FF05A8FFF74BFE5B
:108FA00005A80999FFF7A6FE06A8FCF703FB039B9B
:108FB000059304A906A8FEF7B5FD059B069A2B604C
:108FC0006A60002306A806930593FCF7F3FA04A849
:108FD000FCF7F0FAA2E700BFA1900D00022AF8B555
:108FE000054607D0032A18D0012A01D10B68036077
:108FF0000020F8BD18200E68FBF74DF8044650B16C
:109000003146FFF7CBFE3069B6F9147008B102F0B3
:1090100015FB2061A7822C60EAE70468002CE7D0EA
:1090200004F11000FFF707FE2046FBF771F9182145
:10903000204601F028FCDBE738B5002383608B680D
:1090400004460D462BB102229847EB68E360AB68FB
:10905000A360204638BD022A70B5044607D0032A13
:1090600012D0012A01D10B680360002070BD1420CA
:109070000E68FBF710F8054620B13146FFF7DCFF1C
:10908000337C2B742560F0E70468002CEDD020467B
:10909000FBF73EF91421204601F0F5FBE5E700005F
:1090A000F0B589B004460D4601A81146FFF722FE2F
:1090B000A4B124B21DB1284602F0C0FA054601A8A9
:1090C00003A90395ADF81040FFF778FE03A8FFF75A
:1090D000B2FD02A8FCF76EFA09B0F0BD019D0123B4
:1090E000D5E84F2F002A03D1C5E8413F0029F7D129
:1090F000EFD12B73BFF35B8F6B702B1DBFF35B8FB7
:1091000053E8006F43E80042002AF9D1BFF35B8FB8
:10911000002EDED02046FFF77DFB074660B105F14B
:109120000C013046FFF715FE3046FBF7F1F8102131
:10913000304601F0A8FBCCE7314603A8FFF77CFFDF
:109140002B7B8DF81C301020FAF7A5FF0546D0B117
:1091500087601420FAF79FFF044678B187600146C4
:1091600003A8FCF799FE059BA268A360069B0592E5
:10917000E268E3609DF81C3006922374064BEB60B6
:10918000064B2C60AB6003A8FBF7C2F8002229460F
:109190000348FFF747FBC7E7658D0D0057900D00AB
:1091A000078B0D00002240681146FFF711BC00221A
:1091B00040681146FFF71CBC40680022FFF710BC56
:1091C0004068002281F00101FFF7FABB00234068EC
:1091D0001A461946FFF7ECBB002340681A461946A9
:1091E000FFF7DEBB002240681146FFF7D1BB00222B
:1091F00040681146FFF7BCBB406800220221FFF720
:10920000BFBB002340681A46FFF7AABB024B0322EC
:109210005A60024A1A60704714E6032068E30D00A2
:109220007047F8B5064615460C468F18BC4206D066
:10923000336814F8011B9B6830469847F6E72846C8
:10924000F8BD007C0022FFF7BDB9007C0021FFF7CC
:10925000C1B9007C0021FFF7C5B9007C0021FFF7F0
:10926000C9B9007C0021FFF7CDB910B5142104461F
:1092700001F009FB204610BD10B54FF47A73044687
:1092800008460021C4E90113034B236020741146F2
:10929000FFF7C8F9204610BDA4E30D000023007CB1
:1092A0001A461946FFF776B97FB500221423CDE997
:1092B0000122ADF804300B788DF808304B68039329
:1092C000CB680493007C0B7A059301A9FFF7C2F9E0
:1092D00007B05DF804FB1FB5003B8DF800104FF0A0
:1092E0006401039118BF0123694601928DF808308B
:1092F000FFF7DAFF05B05DF804FB007C0022FFF702
:1093000051B9C9B2FFF7F9BF007C0022FFF752B98B
:1093100008B50021007CFFF78DF9B0FA80F0400914
:1093200008BD08B50021007CFFF78CF9B0FA80F089
:10933000400908BD004700002DE9FF4100241D46FB
:109340000F4690460646FFF715F9A5424FF0040375
:10935000ADF80D408DF80C308DF80F40A2BF9DF890
:1093600028308DF80E3003AC0749009443463A4646
:109370003046A8BF8DF80D50FFF7F4F8B0FA80F032
:10938000400904B0BDE8F08135930D00704710B579
:109390001821044601F077FA204610BDF0B5037D90
:1093A000062B8DB00E4600F104074FF0000412D0DA
:1093B00000F1080515F8011D0A22304600F08FFC67
:1093C000AF42044419D0002CF4D02E21304600F0D6
:1093D00083FC0444EEE72F236A4639460A208DF8C1
:1093E0000040FFF73FF9684602F045F9336802464E
:1093F000DB68694630469847044620460DB0F0BD0C
:1094000010B5054B0446112240F8043B002102F040
:10941000D7F8204610BD00BFCCE30D000346074A35
:1094200010B543F8042B01F1100251F8044B43F836
:10943000044B9142F9D10A781A7010BDCCE30D00AB
:1094400010B59DF8084044EA032343EA024242EA89
:10945000016104234160037510BD000013B5054B85
:109460000360CB7800938B784A780978FFF7E8FFA0
:1094700002B010BDCCE30D0000F11003012213F87F
:10948000101C0129184608D153F8041C02EB4102B4
:10949000013A03F11003F2D17047022904BF53F8D7
:1094A000041C5218F4E7704770470020704710B54D
:1094B0001421044601F0E7F9204610BD10B5102133
:1094C000044601F0E0F9204610BD08B5FFF7F6FFAD
:1094D00008BD10B5C4687CB1206808B1FAF7E1FD99
:1094E000237A1BB1606808B1FAF7DBFD20460C2136
:1094F000BDE8104001F0C7B910BD38B51546D0E938
:1095000003239342044607D2D21A8068AA4228BF96
:109510002A46184402F02CF822692A44226138BDF8
:109520000EB417B505AB044653F8042BE16801935C
:10953000036980688B4238BFC91A184428BF0021CC
:10954000019BFFF795FA23691844206103B0BDE839
:10955000104003B0704710B5036804469B689847F5
:10956000A368013BA3602BB923682046DB68BDE8F4
:109570001040184710BD07B503688DF807109B68A9
:1095800001220DF10701984703B05DF804FB38B5DF
:109590000B6803604D6843689D4204460CD015B1CA
:1095A0006B6801336B60606828B14368013B4360BE
:1095B0000BB9FFF7D0FF6560204638BD0B4611465A
:1095C000002210B5C0E90022044683600BB9204692
:1095D00010BDFFF7DCFFFAE78368EBB11A78032AC6
:1095E0001AD8DFE802F00417021B05207047026852
:1095F0005B685268D05C2D2812D0A0F13003092B93
:109600000ED974280ED066280CD0A0F16E035842F3
:10961000584170470620704700207047042070476B
:1096200003207047022070472DE9F04786B00746B7
:10963000884602A8002100249946102392460293EE
:10964000FFF7B0F8CDE9004423464246394602A868
:10965000FFF7B0F8061E1EDD1049300101F017F9C2
:10966000054690B1214602A8FFF79CF8CDE90064B9
:109670002B464246394602A8FFF79CF8A04207DD78
:10968000CAF800500120C9F8006006B0BDE8F087B4
:109690002846FAF706FD2046F7E700BFF0E40D0084
:1096A0002DE9F84F436886680B4488460E44074608
:1096B0001C4619464FF00D094FF0090AB44263D019
:1096C000254615F8012B5C2A2BD1A14207D0A4EB2B
:1096D000010B18465A4601F059FF03465B44B54258
:1096E00039D06278752A2AD1A21CB21A032A32DD37
:1096F000A01D04F1050E4FF0000CAE4553D015F837
:10970000011FA1F130025FFA82FBBBF1090F05D9FD
:10971000A1F16102052A07D8A1F1570242EA0C1C07
:10972000EBE728460446C9E7A1F14102052A12D811
:10973000A1F13702F2E703F801CB0146F2E76E2A06
:109740001CD00ED8622A13D007D82F2A11D05C2A39
:109750000FD0222A0DD0002023E0662AFBD10C2254
:1097600007E0722A0DD0742AF5D183F800A001E039
:1097700008221A70A11C01330846D3E74FF00A02F1
:10978000F7E783F80090F5E7A14206D0641A18467F
:10979000224601F0FBFE03462344A3EB0803BB6013
:1097A0000120BDE8F88FBCF17F0FC4D92146B9E78D
:1097B000F8B50446154600EB01160027B44210D058
:1097C0002378032B08D129462046FFF769FF48B1CB
:1097D000A368EF541034F1E7002BFBD1A268AB541F
:1097E000F8E70120F8BD000038B50023C0E90033D8
:1097F00004460E48C4E90203A9B10B78032B06D036
:109800008BB9136858684B68C35C6E2B07D013681C
:109810004D6858688B6828445B1BA060E360114664
:109820002046FFF7B4FE204638BD00BF18E50D0006
:1098300038B500250B46C0E90055C0E90255C0E91E
:109840000455044611464BB11A78012A06D103F19A
:109850001002DB6882604361FFF799FE204638BD45
:1098600010B54369044663B18068E060013B103085
:10987000A0602061636113B1FFF7FEFDA0600120CD
:1098800000E0184610BD10B57D210446FFF773FEB9
:1098900001232371204610BD08B50379012B02D0A6
:1098A000022B04D008BD2C21FFF765FEFAE73A2110
:1098B000FAE710B50446FFF7EFFF20467B21FFF7DC
:1098C0005AFE00232371204610BD000038B504461F
:1098D0000D46FFF7E1FF23689B683DB1054904226F
:1098E0002046984701232371204638BD02490522AE
:1098F000F6E700BFE2E30D00DCE30D0013B504461C
:109900000191FFF7C9FF2368019ADB6803492046EC
:10991000984701232046237102B010BD98E00D0046
:10992000F8B5044657EC106BFFF7B6FF23680549FE
:10993000DD6820463B463246A84701232371204676
:10994000F8BD00BFE7E30D002DE9F0410D461746D5
:109950002221DFF8A08004462F44FFF70CFE2946A1
:10996000BD422A4638D015F8016B222E03D05C2E5A
:1099700001D01F2EF4D82368521A9B6820469847BE
:109980005C212046FFF7F7FD0D2E0AD8072E1CD9C3
:10999000A6F10803052B18D8DFE803F00D0F111707
:1099A0001315222E01D05C2E0FD131462046FFF731
:1099B000E2FD2946D4E76221F8E77421F6E76E213B
:1099C000F4E76621F2E77221F0E723683246DB68AC
:1099D000414620469847ECE78D4204D023686A1A36
:1099E0009B682046984722212046FFF7C4FDBDE82A
:1099F000F08100BFEAE30D0013B50446CDE9002174
:109A0000FFF74AFF2046DDE90021FFF79DFF022313
:109A10002046237102B010BD13B50446CDE90021E4
:109A2000FFF73AFF2046DDE90021FFF78DFF012314
:109A30002046237102B010BD38B5002304460360F0
:109A400010200D46FAF727FB28B10123C0E90133A6
:109A5000024B0360C5602060204638BDF8E30D006E
:109A6000F0B5044687B00E460C202749154600F095
:109A70000CFF014618B10023C0E90033037203A8AC
:109A80000291FFF7D9FF029A42B9C4E90022A2600D
:109A900003A8FBF78FFD204607B0F0BD002301931C
:109AA000294601AB3046FFF7BFFD18B9C4E90000F5
:109AB000A060EDE71449029F681C00F0E8FE029BDD
:109AC000786058680028F1D02A46314601F050FDF0
:109AD000029B0199186801221A725A68FFF768FE02
