:02000002D0002C
:1040000000400D006CCE0D00000006000D00050103
:084010000401BD0B00000000DB
:0440180054B40D008F
:1040200009480A49884208B505D0094A824202D0A7
:10403000121A05F0BDFA0748074A0021121A05F0C6
:10404000DFFA014808BD00BFE8DB032084CB0D0088
:10405000A4DE0320A8DE0320F8E7032070B5074E96
:10406000074C04F021FBA41BA4080025A54200D1A5
:1040700070BD56F8043B98470135F7E754C30D006F
:1040800080C30D0001F066B908B500F053FFBDE82C
:10409000084004F0CBBA03F0ADB803F0ABB803F0BE
:1040A000B1B8000008B5034A00210C2002F06CFFF3
:1040B000FEE700BFB96C0D000078B0FA80F040094F
:1040C0007047012303707047014B01221A7070473B
:1040D000D1E5032003681847012A03D0022A03D040
:1040E000002070470160FBE70B680360F8E7000001
:1040F00008B5044903F093FF18B1034B03221A706B
:10410000012008BDA3B40D009DE5032070B5C2B029
:1041100000680A2201A906F0A7F9431E062B0446EF
:104120002BD80128164B174E08D11877164902A82C
:1041300005F09CFA3470204642B070BD02284FF062
:10414000010507D111495D7702A805F08FFA2C46C9
:104150003570F0E7032802D10D499D77F4E7042874
:1041600002D10C49DD77EFE705280BBF0A490B495F
:1041700083F8205083F82150E6E70024DBE700BFF6
:10418000A0E50320D0E50320A5B40D00B8B40D00D0
:10419000CBB40D00E0B40D00F4B40D0008B50D0073
:1041A00013B50A22006801A906F05EF90128044649
:1041B00004D103F069FF204602B010BD0024FAE7E5
:1041C000436913B183690C301847704710B5034B2E
:1041D0000360044602F0A2FA204610BDE4BB0D00C5
:1041E00010B50446FFF7F2FF2046382104F06BFBC0
:1041F000204610BD10B5034B0360044601F0A6FC39
:10420000204610BD0CBC0D0010B50446FFF7F2FFB0
:104210002046102104F057FB204610BD13B50021A5
:104220000446084602F0D0FC0023204601A9019371
:1042300002F0E2FC019C0CB101232371002101205A
:1042400002F0C2FC2CB1236820469B6898470023EB
:10425000237102B010BD10B50446006808B102F029
:10426000D1FF204610BD0023042202F0FBBE000057
:104270001FB5104B104A1B781278104913438DF864
:10428000003000223C2302A803F01EFA039C7CB1FC
:104290006368013B63605BB9236820469B6898476D
:1042A000A368013BA3601BB923682046DB689847DD
:1042B00004B010BD98DF032099DF03201BB50D006B
:1042C00010B58368044613B103220146984720467F
:1042D00010BD000037B5134B036004468068C8B1B9
:1042E00000256FF00043CDE9003502212B462A4618
:1042F00002F08AFCA068294602F0BEFC237903F094
:10430000FF0513B102F058FCF8E7A068294602F057
:104310006BFCA56004F10C00FFF7D2FF204603B050
:1043200030BD00BFD0BB0D0010B50446FFF7D2FF73
:1043300020461C2104F0C7FA204610BD0246014861
:1043400003F0CFB8B7740D0007B508220023ADF80D
:1043500000204FF47A710122019241436A461846C7
:10436000ADF8023002F0D6FE03B05DF804FB07B5ED
:1043700080680B46002140B1CDE900210A460321A7
:1043800002F042FCB0FA80F0400903B05DF804FB93
:1043900037B504689DF818508DF800308DF804503A
:1043A000E4683C23A04703B030BD000010B50B7893
:1043B00092B00C467BB9194902A805F057F90023C1
:1043C0008DF80030164B17491B78174802AAFFF7E3
:1043D000DFFF12B010BD084605F0C5F8C8280ED1A1
:1043E000124902A805F042F903F0C9FF104B986189
:1043F000104B01221A70104B00221A70DFE7204682
:1044000005F0B1F8C928EBD0204605F0ACF80B4A0E
:104410000346402102A802F00DFFD0E71DB50D00B4
:1044200099DF032054B50D0040E4032025B50D00AD
:10443000A0E50320D0E50320BBDF032037B50D0046
:1044400037B51C49054603F0EAFD044600B31A4C93
:10445000012360686370FFF777FF636817484FF4C4
:104460007A716FF000425943FFF781FF02F01AFEA4
:1044700048B100238DF80030114B124A1B781249C5
:104480001248FFF785FF124B0120187003B030BDB2
:104490001049284603F0C3FD0028F7D0064B5C7096
:1044A00002F000FE0028EED0054B8DF800401B788E
:1044B000094AE4E7A3B40D00A0E5032020E40320AB
:1044C00099DF032061B50D00F3B50D0040E4032032
:1044D000D0E5032076B50D0078B50D0010B5C4B059
:1044E00000680A2203A905F0BFFFB0F5966F22D835
:1044F000124C6060FFF728FF636811484FF47A712F
:1045000059436FF00042FFF732FF63680D4A4FF4E2
:10451000807104A802F08EFE00238DF800300A4B53
:104520000A491B780A4804AAFFF732FF094B012009
:10453000187044B010BD0020FBE700BFA0E50320C9
:1045400020E403208CB50D0099DF0320A5B50D00F4
:1045500040E40320D0E5032000B589B0039003F0C8
:1045600071FD0E4B0399BDEEC00A04A883ED090A44
:1045700003F01EFD00238DF80030094B049A1B78D0
:1045800008490948FFF704FF04A803F0A3FC074B00
:104590000120187009B05DF804FB00BFA0E50320FE
:1045A00099DF0320B0B50D0040E40320D0E50320DF
:1045B00037B51649054603F032FD044688B1144B61
:1045C000144A1549154801245C7200238DF8003007
:1045D000134B1B78FFF7DCFE124B20461C7003B018
:1045E00030BD1149284603F01AFD0028F7D0084BCA
:1045F0000E4A5C720A4B8DF800401B78064907484A
:10460000FFF7C6FE074B01201870E8E7A3B40D00C2
:10461000A0E50320D2B50D00F3B50D0040E4032062
:1046200099DF0320D0E5032076B50D00E3B50D003A
:10463000F0B5C5B000680A2203A905F015FF431EB6
:10464000062B04464FF0000539D801281D4B1E4F9C
:104650001E4E10D11E491D7704A805F007F83B78BF
:104660001C491D488DF8005004AAFFF791FE3470D4
:10467000204645B0F0BD02280ED118495D7704A848
:1046800004F0F4FF3B78134913488DF8005004AA56
:10469000FFF77EFE0124EAE7032802D110499D7747
:1046A000EDE7042802D10F49DD77E8E705280BBFC5
:1046B0000D490E4983F8205083F82150DFE72C463E
:1046C000D6E700BFA0E5032099DF0320D0E5032053
:1046D000F8B50D000CB60D0040E403201AB60D002D
:1046E0002EB60D0044B60D0059B60D006EB60D0085
:1046F00000B5C5B000680A2203A905F0B5FE04287C
:1047000018D80D4B0D4A98624FF48071034604A8E7
:1047100002F090FD00238DF80030094B09491B7809
:10472000094804AAFFF734FE084B0120187045B071
:104730005DF804FB0020FAE7A0E5032082B60D0037
:1047400099DF0320F3B50D0040E40320D0E50320FA
:1047500007B502F0A7FC48B100238DF800300E4BDE
:104760000E4A1B780E490F48FFF712FE0E4A0F48FB
:104770007823536040F20113138000235372937225
:1047800001214FF41673C2E90931302303B05DF8FB
:1047900004EB01F096BA00BF99DF032094B60D0038
:1047A000F3B50D0040E40320A0E5032010E403204E
:1047B00007B502F077FC48B100238DF800300B4BB1
:1047C0000B4A1B780B490C48FFF7E2FD0B4A0C4BD8
:1047D0000C48136053609360D36013615361A02150
:1047E000182303B05DF804EB01F06BBA99DF0320E6
:1047F000ACB60D00F3B50D0040E4032098E40320AF
:10480000CDCCB54210E4032010B5154C237A012B12
:1048100004D902F047FC00B3012323726368114AF4
:10482000B3F5966F84BF4FF416736360637A012B00
:1048300084BF01236372A37A012B84BF0023A37278
:104840006369FF2B84BF00236361A36A052B4FF0CC
:104850000103137088BFA36210BD2072DEE700BFA2
:10486000A0E50320D0E5032007B50121052003F0D2
:10487000B4FF0021052003F0B0FF094A00231370A4
:10488000084A527A42B18DF80030074B074A1B782C
:1048900007490848FFF77CFD03B05DF804FB00BF43
:1048A000D1E50320A0E5032099DF0320CBB60D005E
:1048B000D2B60D0040E4032010B5584B584C9B6A0B
:1048C000012BADF50C7D43D1606904F08DFACDE983
:1048D0000A01206904F088FACDE90801E06804F0D3
:1048E00083FACDE90601A06804F07EFACDE904015F
:1048F000606804F079FACDE90201206804F074FAE6
:10490000CDE90001474A4FF400710CA802F092FC77
:1049100000238DF80030444B44491B7844480CAACE
:10492000FFF736FD2368A3616368E361A368236230
:10493000E36863622369A3626369E3623D4B01221A
:104940001A7002F0C1F93C4B18600DF50C7D10BDDA
:10495000022B1FD1206D04F047FACDE90A01E06C6B
:1049600004F042FACDE90801A06C04F03DFACDE96B
:104970000601A06B04F038FACDE90401606B04F085
:1049800033FACDE90201206B04F02EFA2B4ACDE96F
:104990000001B8E7032B1FD1606904F025FACDE9C7
:1049A0000A01206904F020FACDE90801E06804F06A
:1049B0001BFACDE90601A06B04F016FACDE904015B
:1049C000606B04F011FACDE90201206B04F00CFADF
:1049D0001B4ACDE9000196E7042B99D1606904F0E8
:1049E00003FACDE90A01206904F0FEF9CDE90801D6
:1049F000E06E04F0F9F9CDE90601A06E04F0F4F9D7
:104A0000CDE90401606E04F0EFF9CDE90201206EFA
:104A100004F0EAF90B4ACDE9000174E7A0E50320B0
:104A2000B0E40320DBB60D0099DF0320E7B80D00EA
:104A300040E40320BBDF0320D4E503205DB70D0075
:104A4000E1B70D0064B80D0030B5114D114C12499D
:104A50002A7820788DB01A2303FB0212009203FB00
:104A600000130E4A282102A802F0E4FB2B782370E1
:104A700002F018FB48B100238DF80030084B0949BB
:104A80001B78094802AAFFF783FC0DB030BD00BFB8
:104A90009DE503203CE40320F8DB0320FCB80D0077
:104AA00099DF03200AB90D0040E4032030B50D4D15
:104AB0000FCD89B001AC0FC495E807000A4B84E81C
:104AC00007001B7C094808AA02EB8303102153F856
:104AD0001C3C074A02F0AEFB064B01221A7009B0DB
:104AE00030BD00BF20BC0D00A0E503209ADF0320ED
:104AF000FCBC0D00D0E503202DE9F04F4FEA800902
:104B000009F1070483B004F4FF6402AFADEB040DB8
:104B100002ADAC464FF0000E4CF804EB0238002812
:104B20002ADADFF868B0DFF868A00C4690461E4627
:104B3000A9444D4524D0D4E902018DE8030058462C
:104B400094E80C0000F018FF51EC100B04F074FC1A
:104B500048F8040B45F8040B04F046F9DAE90023A1
:104B600004F09AF9084B002204F0C0FA04F064FC47
:104B7000103446F8040BDCE74CF804EB0138CEE7C0
:104B80000437BD46BDE8F08F00408F40B0DE032003
:104B9000F0DB032010B51F4C206804F025F91E4BF4
:104BA00041EC100B19781D4800F05AFF606804F0C2
:104BB0001BF91B4B41EC100B19781A4800F050FF01
:104BC000A06804F011F9184B41EC100B1978174844
:104BD00000F046FFE06804F007F9154B41EC100BBC
:104BE0001978144800F03CFF206904F0FDF8124BDE
:104BF00041EC100B1978114800F032FF606904F0A5
:104C0000F3F80F4B41EC100BBDE8104019780D483C
:104C100000F026BF98E40320E8DB0320C0DF032078
:104C2000E9DB032078E00320EADB032030E1032006
:104C3000EBDB0320E8E10320ECDB0320A0E2032010
:104C4000EDDB032058E3032013B5224C206804F069
:104C5000CBF8214ACDE900011021204802F0EAFA00
:104C6000606804F0C1F81E4ACDE9000110211D481A
:104C700002F0E0FAA06804F0B7F81B4ACDE90001A1
:104C800010211A4802F0D6FAE06804F0ADF8184A8C
:104C9000CDE900011021174802F0CCFA206904F098
:104CA000A3F8154ACDE900011021144802F0C2FA18
:104CB000606904F099F8124ACDE900011021114809
:104CC00002F0B8FAFFF766FF0F4B01221A7002B02C
:104CD00010BD00BF98E403201BB90D005DE5032063
:104CE0002FB90D008DE5032042B90D007DE50320AD
:104CF00058B90D004DE503206EB90D003DE50320C8
:104D000084B90D006DE50320BADF032038B57D4C72
:104D10007D4D002384F88830FFF73CFFFFF7C6FE87
:104D2000A86A01284AD12B7F4BB178484FF4B9616A
:104D300000F0A2FE51EC100B04F07EFB20606B7FB4
:104D40004BB173484FF4B96100F096FE51EC100B73
:104D500004F072FB6060AB7F4BB16E484FF4B961F9
:104D600000F08AFE51EC100B04F066FBA060EB7FB4
:104D70004BB169484FF4B96100F07EFE51EC100B65
:104D800004F05AFBE06095F820304BB163484FF4D3
:104D9000B96100F071FE51EC100B04F04DFB206185
:104DA00095F82130EBB15E484FF4B96100F064FE34
:104DB00051EC100B04F040FB606112E0022840F05F
:104DC0008980584904F13C0304F130020320FFF7C5
:104DD00093FE554904F1540304F148020320FFF700
:104DE0008BFED4ED007A94ED067AF5EEC07AF1EE02
:104DF00010FAD8BFF1EE677A37EEC77AF7EE087A85
:104E0000B4EEE77AF1EE10FA59DA94ED017AD4EDC6
:104E1000076AB5EEC07AF1EE10FAD8BFB1EE477A64
:104E200037EE667AB4EEE77AF1EE10FA47DA94EDEF
:104E3000027AD4ED086AB5EEC07AF1EE10FAD8BF66
:104E4000B1EE477A37EE667AB4EEE77AF1EE10FA11
:104E500035DA94ED037AD4ED096AB5EEC07AF1EE55
:104E600010FAD8BFB1EE477A37EE667AB4EEE77A39
:104E7000F1EE10FA23DA94ED047AD4ED0A6AB5EE75
:104E8000C07AF1EE10FAD8BFB1EE477A37EE667A03
:104E9000B4EEE77AF1EE10FA11DA94ED057AD4ED7A
:104EA0000B6AB5EEC07AF1EE10FAD8BFB1EE477AD0
:104EB00037EE667AB4EEE77AF1EE10FA1FDB0125E1
:104EC00084F8885003F05BFA184BC4F880001D701A
:104ED000284638BD032807D1124904F13C0304F1E8
:104EE0003002FFF709FE42E704287FF47AAF104949
:104EF00004F1700304F16002FFF7FEFD43E70020B8
:104F0000E7E700BFB0E40320A0E50320C0DF0320F3
:104F100078E0032030E10320E8E10320A0E2032051
:104F200058E3032038DF032068DF03203CE503203B
:104F3000F8DE032037B5754C2378013B052B17D8D5
:104F4000DFE803F0BE035C68428B714B5B7A2BB1E8
:104F5000704B1B78022B01D0FFF776FD03F00FFAA0
:104F60000A2390FBF3F202FB13030BB90523237012
:104F7000694801F083FA694B1B780BB1FFF774FCA9
:104F8000674C23783BB13023614A6648012100F029
:104F900098FE00232370644C237843B18C23634A2A
:104FA00060484FF4007100F08CFE00232370604CC9
:104FB00023783BB118235F4A5A48A02100F081FEB4
:104FC0000023237003B030BD514D6A7A2AB1514B92
:104FD0001B78052B01D0FFF737FDFFF797FE08B1CF
:104FE0000423C4E703F0CBF96B6A90FBF3F202FBF6
:104FF00013030BB90323BAE70223B8E7444B5B7AE8
:105000002BB1444B1B78032B01D0FFF71DFDFFF79D
:105010007DFEE5E73E4B5B7A2BB13E4B1B78042BC4
:1050200001D0FFF711FD02F03DF868B103F0B8F9C7
:105030000C2805D102F036F810B1002002F052F829
:10504000FFF73AFC062392E702F024F802232370CC
:1050500001F03AFE384B18608AE72D4B5B7A2BB192
:105060002C4B1B78062B01D0FFF7EEFC334B1B7843
:1050700043B903F084F90A2390FBF3F202FB130314
:10508000002BB9D001F020FE2D4B1B68C01A4AF648
:10509000C87398427FF66CAF01F016FE264D294A80
:1050A000286000238DF80030274B28491B782848BA
:1050B000FFF76EF90123237001F006FE286057E721
:1050C000144B1B78012B01D0FFF7BEFC01F0FCFD57
:1050D000194B1B6803F5922303F578738342BFF4E1
:1050E00047AF01F0DFFF48B100238DF80030164BC9
:1050F000184A1B7818491648FFF74AF94FF4FA6026
:1051000002F0E0F802F0C0FF32E700BF9DE50320A7
:10511000A0E503203CE403207CE40320D1E5032048
:10512000D0E5032010E403203CE50320B0E4032095
:10513000BADF032098E4032078E40320BBDF0320D8
:10514000D4E50320A8C00D0099DF032099B90D0014
:1051500040E40320B2B90D00C6B90D0000B589B016
:10516000039002F06FFF0E4B83ED000AFFF712FD74
:10517000039904A802F01CFF00238DF80030094BAE
:10518000049A1B7808490948FFF702F904A802F0BD
:10519000A1FEFFF759FD012009B05DF804FB00BF37
:1051A00098E4032099DF0320CCB90D0040E40320EC
:1051B00000B589B0039002F045FF0E4B83ED010A64
:1051C000FFF7E8FC039904A802F0F2FE00238DF833
:1051D0000030094B049A1B7808490948FFF7D8F8B2
:1051E00004A802F077FEFFF72FFD012009B05DF85B
:1051F00004FB00BF98E4032099DF0320E7B90D000A
:1052000040E4032000B589B0039002F01BFF0E4B71
:1052100083ED020AFFF7BEFC039904A802F0C8FE62
:1052200000238DF80030094B049A1B78084909487F
:10523000FFF7AEF804A802F04DFEFFF705FD0120D0
:1052400009B05DF804FB00BF98E4032099DF032058
:1052500002BA0D0040E4032000B589B0039002F0CB
:10526000F1FE0E4B83ED030AFFF794FC039904A8AB
:1052700002F09EFE00238DF80030094B049A1B7843
:1052800008490948FFF784F804A802F023FEFFF755
:10529000DBFC012009B05DF804FB00BF98E40320AB
:1052A00099DF03201FBA0D0040E4032000B589B048
:1052B000039002F0C7FE0E4B83ED040AFFF76AFC71
:1052C000039904A802F074FE00238DF80030094B06
:1052D000049A1B7808490948FFF75AF804A802F015
:1052E000F9FDFFF7B1FC012009B05DF804FB00BF38
:1052F00098E4032099DF03203BBA0D0040E403202B
:1053000000B589B0039002F09DFE0E4B83ED050AB7
:10531000FFF740FC039904A802F04AFE00238DF831
:105320000030094B049A1B7808490948FFF730F808
:1053300004A802F0CFFDFFF787FC012009B05DF85B
:1053400004FB00BF98E4032099DF032057BA0D0047
:1053500040E403202DE9F04700219AB0082003F033
:105360002BFA0121052003F027FAFFF77DFA00232D
:10537000009301224FF0FF339A49082002F0E4FB2A
:10538000994B0AAA03F11005174618685968144684
:1053900003C40833AB422246F7D119889B78A37027
:1053A0002D2221800DF13B000021904C904D0026D4
:1053B00004F026F902A8267001F07CFE02A906A8D6
:1053C00002F0F6FD8B4906A802F014FECDE9006656
:1053D000334632468849006801F07CFE06A802F098
:1053E00079FD02A802F076FD84498548FEF73BFF6F
:1053F00084498548FEF737FF84498548FEF733FF27
:10540000844985483346022201F02CFE33460122AE
:105410008249834801F026FE82498348FEF723FF34
:1054200082498348FEF71FFF82498348FEF71BFF2E
:1054300082498348FEF717FF82498348FEF713FF2E
:1054400082498348FEF70FFF824983483346022290
:1054500001F008FE334602228049814801F002FE35
:1054600080498148FEF76AFF80498148FEF766FF60
:1054700080498148FEF762FF80496948FEF75EFF78
:105480007F498048FEF75AFF7F498048FEF756FF64
:105490007F498048FEF752FF7F498048FEF74EFF64
:1054A0007F498048FEF74AFF7F498048FEF746FF64
:1054B0007F498048FEF742FF7F498048FEF73EFF64
:1054C0007F498048FEF73AFF7F498048FEF736FF64
:1054D0007F498048FEF732FF7F4800F0C9FE314621
:1054E0007D4801F002F87D4800F05EFB01237B4817
:1054F00006AA314600F09AFB9DF81830112B39D0DE
:10550000764800F05BFB764A74480423314600F08D
:10551000D8FB0123714806AA314600F087FB9DF8AD
:105520001830112B21D001232370FFF76DF9FFF7FD
:1055300031FB6B78CBB3002001F0D6FB4FF0000AB3
:105540000646002001F0D0FBB0EB060861EB0A092B
:10555000002347F22F524B4508BF424517D301F0B5
:10556000A1FDA0B901F08EFDEBE7FFF7F1F8FFF721
:105570001FF9DAE75B4A59481823A02100F056FBCF
:1055800030232A460121554800F050FBCDE701F0B9
:1055900089FD6868FEF7D8FE6B6853484FF47A714E
:1055A0006FF000425943FEF7E2FEFFF7AFFB6B7A64
:1055B0004BB100238DF800304C4B4D491B784D48C2
:1055C0003A46FEF7E5FE01F06DFD10B901F05AFD17
:1055D000F9E701F067FD23780BB9022323701AB0B5
:1055E000BDE8F087C9400D003CBC0D009DE50320DF
:1055F000A0E5032072BA0D00AD430D007CBC0D0088
:1056000097BA0D00AADF03209FBA0D009ADF03208E
:10561000A7BA0D00A4E50320B6BA0D00A1E503204A
:1056200068B50D005DE5032004BB0D008DE503208A
:1056300015BB0D007DE5032026BB0D004DE50320C5
:1056400039BB0D003DE503204BBB0D006DE503208C
:105650005DBB0D00C4E50320C5BA0D00C8E50320FD
:10566000D8BA0D00F1400D00E7BA0D00B1450D00AC
:10567000F3BA0D00DD440D00A5B50D0041440D0049
:105680005D510D0000BB0D00B1510D0011BB0D00AF
:1056900005520D0022BB0D0059520D0035BB0D0007
:1056A000AD520D0047BB0D0001530D0059BB0D005D
:1056B0000D410D006ABB0D0031460D0078BB0D0099
:1056C000F1460D0087BB0D0059450D0096BB0D003E
:1056D000A1410D00B2BB0D007CE4032010E40320C7
:1056E00084BC0D0098E4032020E4032099DF03200C
:1056F000C0BB0D0040E403202DE9F04F7C4B7D4DF5
:105700007D4F2DED068B01261E707C4B022289B049
:105710001A7002F0FBFF00231A4642F6D65102F03F
:10572000FDFF02F0F3FF00231A460821002402F0D7
:10573000FDFF734BAB602C60AC80AC71304601F068
:105740003BFC3A466F49284603F0B8F821463046FC
:1057500001F042FC3146042001F096FA03F086F88D
:10576000694D014623464FF40052284600F012FAD4
:10577000664B2B603A466649284603F09FF803F0D3
:1057800075F8644D0146284600F07AFC2846624DC3
:1057900062493A4603F092F861494FF400622846A4
:1057A00001F0E4F85F4B2B603A465F49284603F06E
:1057B00085F85E4B04930DF110085D4D5D4B2B6039
:1057C00098E8030002AA05F10C0382E8030093E8BD
:1057D000030088E8030092E8030083E80300564BC7
:1057E0006B61AB690793554B2C71AC60AB61544A4C
:1057F00006942B46CDE900444FF47A7105F1080078
:1058000001F0EAF94046FEF75BFD3A464D4928466D
:1058100003F054F84C4D4D4BAC639E62C5E90C440B
:10582000C5E90F44C5E91244C5E915446C642C650B
:10583000EC652146102205F1600003F0E1FE102224
:10584000214605F1700003F0DBFE414B414C424D17
:1058500093F80090C4F80090286803F0C5FA3F4B15
:1058600093F80080C4F8108041EC1A0BC4E90201DF
:10587000686803F0B9FA3A4B1F78276241EC190BBC
:10588000C4E90601A86803F0AFFA364BC4E90A017F
:10589000354C1E78266041EC180BE86803F0A4FA3A
:1058A000324B82461B7823618B46C4E902AB2869E0
:1058B00003F09AFA2E4B1B782362C4E9060168694B
:1058C00003F092FA2B4BC4E90A0183ED02AB83ED9E
:1058D000069B83ED0A8BC3E90EABC3F80090C3F8B7
:1058E00010801F621E6309B0BDEC068BBDE8F08F0F
:1058F00099DF0320E8DE0320A8DE032098DF0320E1
:105900000000FFFF57420D0010E403200CBC0D0007
:10591000F5410D007CE4032040E403200B5E0D0004
:1059200000F40320E4BB0D00CD410D0071420D00D9
:1059300020E40320D0BB0D00D9400D00D5400D0060
:105940001D420D00D5420D00B0E40320A0E5032068
:10595000E8DB032038DF032098E40320E9DB0320A1
:10596000EADB0320EBDB032068DF0320ECDB032012
:10597000EDDB0320F8DE032082B02DE9F84F0AA901
:1059800081E80C00344BDFF8D4B00022C0E90423D6
:10599000044640F27E654FF0000ABDF8280002F090
:1059A00035FFD4E90489206003F00CFA42464B46E7
:1059B00006460F4603F0B8F852465B4603F06CFA11
:1059C00042464B4603F0B2F802460B46C4E90423B4
:1059D0003046394603F0A8F802460B46C4E90223D4
:1059E00003F05AFA02460B46C4E90623D4E9082319
:1059F00003F09CF8013D06460F46C4E90867CCD188
:105A0000DDE90C0110A3D3E9002303F045FA10A34C
:105A1000D3E90023804689463046394603F066FBC9
:105A200041EC100B02F058FF00220023C4E90823C8
:105A300051EC100B42464B4603F02EFABDE8F84FEE
:105A400041EC100B02B070476666666666664A3FB8
:105A50000000000000F899400000A0400000303F26
:105A6000034BC162002280ED0E0BC0E91C2370477E
:105A70000000A040000000002DE9F74FDFF8C8B09B
:105A80000191044600254FF0000A019B9D422FD052
:105A9000A08D02F0BBFED4E91C89E06403F092F90A
:105AA00042464B4606460F4603F03EF852465B46DA
:105AB00003F0F2F942464B4603F038F802460B4633
:105AC000C4E91C233046394603F02EF802460B4643
:105AD000C4E9182303F0E0F902460B46C4E9242385
:105AE000D4E9260103F022F80135C4E92601CCE708
:105AF00013A3D3E90023D4E90E0103F0CDF9064640
:105B000028460F4603F04EF902460B46D4E926011B
:105B100003F0ECFA41EC100B02F0DEFE32463B469D
:105B200051EC100B03F0B8F941EC100B00220023EC
:105B3000C4E90801C4E9262303B0BDE8F08F00BF23
:105B40006666666666664A3F0000503F704710B55D
:105B50001021044602F0B7FE204610BD0368C9B20A
:105B60009B6818470EB410B58DB00FAA016852F8A3
:105B7000044B039200232020CDE90403CDE9004229
:105B80001E2004AA01F008FA0DB0BDE8104003B0D1
:105B90007047000030B5034DC0E90223C0E9005151
:105BA00030BD00BFBCBC0D00406801F07FBF10B528
:105BB0000446006801F0BDFF204610BD2DE9F0410C
:105BC0008AB004464068019001F0AAFF1E2200211D
:105BD00002A8A76803F014FD0026EFB123681E2F6A
:105BE000B84628BF4FF01E08DD6802AA434631467A
:105BF0002046A847054658B90A480B493246FFF7E0
:105C0000B1FF01A8FFF7D3FF28460AB0BDE8F08135
:105C1000A7EB08074644E0E701A8FFF7C8FF012506
:105C2000F2E700BF1CE6032088BC0D002DE9F74316
:105C30000446406801900D4616461F4601F070FF6D
:105C4000A7B1E168606841F0500101F062FF290AE4
:105C50006068FFF783FF29466068FFF77FFF606891
:105C6000002101F059FF48B1002400E0012401A8FF
:105C7000FFF79DFF204603B0BDE8F083202F217B76
:105C80006068B84628BF4FF020080123424641F023
:105C9000500101F028FF02F0E9FD03681B699847F5
:105CA0004045E1DB06EB080902F0E0FD03685B69B3
:105CB000984706F8010B4E45F6D14544A7EB080777
:105CC000BEE72DE9F74F0446406801900E46904626
:105CD0001D4601F025FF4FF00109B9F1000F2AD050
:105CE0004DB3E168606841F0500101F012FF310AE4
:105CF0006068FFF733FF60683146FFF72FFFA5F1BB
:105D00001E0A4746A6EB080B606817F8011B0368DC
:105D1000013D9B68984755450BEB0706B84601D0F7
:105D2000002DF1D16068012101F0F6FE0028D7D0E6
:105D30004FF00009D1E701A8FFF739FF484603B04B
:105D4000BDE8F08F2DE9F0438BB00E461546804636
:105D5000406801901C4601F0E3FEAE4229D2264481
:105D600025448CB11E2C2746D8F8003028BF1E27AA
:105D7000F61BD3F8089002AA3B4631464046ED1B7D
:105D8000C84748B9002400E0012401A8FFF70FFF2D
:105D900020460BB0BDE8F083D8F8003002AAD3F853
:105DA0000C9029463B464046C8470028EAD0E41BF1
:105DB000D7E7E9D9002CE7D0D8F800301E2C2746C9
:105DC00028BF1E27D3F8089002AA3B46314640461A
:105DD000C8470028D6D0D8F8003002AAD3F80C90D3
:105DE00029463B464046C8470028CBD03E443D4468
:105DF000E41BDFE740207047002070478020704799
:105E0000FF207047704770477047704710B51421E6
:105E1000044602F058FD204610BD10B50821044686
:105E200002F051FD204610BD10B50821044602F0D5
:105E30004AFD204610BD10B51C21044602F043FD6A
:105E4000204610BD2DE9FF410368DB6804469847F2
:105E500010220146684603F0D3FB236820469B6866
:105E60009847002507462846BD420ED27E1B236870
:105E7000102E28BF1026D3F818806A4633462946CC
:105E80002046C04708B13544EEE704B0BDE8F081D4
:105E90004FF48073438140F20113C36000230382F7
:105EA0007047000008B5064B0360064B436040F2A4
:105EB0000473038100234374FFF7EAFF08BD00BFAA
:105EC0009CBD0D000001020303090A2200F00F002F
:105ED00002FB0300704708B5807AFFF7F5FF00F575
:105EE000FA6008BDC07A00F01F00FFF7EDBF007B2D
:105EF00000F03F00FFF7E8BF08B5817B4A060DD5EB
:105F000001F01F00FFF7E0FF8B0603D50C2800D03F
:105F10000C3008BD0C2808BF0020FAE7BDE8084097
:105F200001F03F00FFF7D0BFC07B00F07F00FFF71C
:105F3000CBBF007C00F07F00FFF7C6BF10B58AB072
:105F400024220446002101A803F05AFB2046FFF753
:105F5000C2FFA0F26C7006902046FFF7C3FF013825
:105F600005902046FFF7C3FF04902046FFF7C4FFCB
:105F700003902046FFF7D8FF02902046FFF7D9FF95
:105F8000019001A801F096F90AB010BD0A2190FB1A
:105F9000F1F292FBF1F301FB13231B01DBB201FBD6
:105FA00012001843C0B27047642310B5044691FB39
:105FB000F3F000FB1310FFF7E9FFA07210BD10B55E
:105FC00004460846FFF7E2FFE07210BD10B5044634
:105FD0000846FFF7DBFF237B23F03F0318432073C2
:105FE00010BD10B50446481CFFF7D0FF637B23F0BB
:105FF00007031843607310BD10B504460846FFF749
:10600000C5FFA07310BD10B504460846FFF7BEFFDC
:10601000E07310BD10B504460846FFF7B7FF237CB8
:1060200023F07F031843207410BD37B5044668463B
:10603000CDE9002303F0AAFA054641692046FFF79F
:10604000B3FF296920460131FFF7B9FFE96820460F
:10605000FFF7BCFFA9692046FFF7C3FFA9682046E8
:10606000FFF7CAFF69682046FFF7CDFF29683B2983
:10607000A8BF3B212046FFF7CDFF03B030BD000095
:10608000054A0061C0E90021044A8260044AC260F6
:10609000044A806142617047D0BD0D0000000103D9
:1060A00078BD0D00ACBD0D002DE9F84F04460F463C
:1060B0009046994600260A9B9E4231D26068394636
:1060C00001F023FD08EB06016068FFF747FD6068FB
:1060D000002101F021FD0546D0B90A9B60689A1B9A
:1060E000202A4FF0010328BF2022394601F0FBFC93
:1060F00009EB060B05460BEB000ADA4506D0606893
:1061000003685B6998470BF8010BF6E72E44D2E76A
:10611000024604490448FFF725FD2846BDE8F88FEC
:106120000025FAE7D0BC0D00D8E503202DE9F341A6
:1061300001EB03081E4603689B6805460C4617469C
:10614000984780450DD82034686800963B46E2B2F7
:106150006F21FFF7A9FFB0FA80F0400902B0BDE857
:10616000F0810020FAE72DE9F34101EB03081E4618
:1061700003689B6804460D461746984780450CD82F
:10618000606800963B46EAB25721FFF78DFFB0FAF0
:1061900080F0400902B0BDE8F0810020FAE77FB549
:1061A0001E1E0CBF072306230093144602AB0A46AB
:1061B0006F21FFF779FF0546A8B99DF808302374D1
:1061C0009DF80930E3739DF80A30A3739DF80B30F6
:1061D00063739DF80C3023739DF80D30E3722EB974
:1061E0009DF80E30A372284604B070BD02F0E4F8AA
:1061F000FFF7CCFEA072F6E71FB501230A46009315
:106200006F2103ABFFF750FF20B99DF80C0005B0DC
:106210005DF804FB0020FAE708B50321FFF7ECFF67
:10622000C0F3401008BD38B500230C460A46194695
:106230000546FFF7B4FF30B9A37A23B12846BDE87D
:106240003840FFF7E9BF002038BD7FB5024601A8FE
:10625000FFF728FE01A91046FFF7E5FF28B101A8C6
:10626000FFF76CFE07B05DF804FB00200146F9E77C
:10627000D0B5044686B0406801F018FC02F062F820
:10628000E8B9E37A9B071AD52046FFF7DEFF0646FA
:106290000F4656EA070312D001F05BFF0A4B0B4989
:1062A0001B68009332463B4602A802F009F80848F2
:1062B000029A0849FFF756FC02A801F00BFE0123E1
:1062C000237206B0D0BD00BFC8DC032048E603201F
:1062D000D8E50320EABC0D002DE9F84F06468846B4
:1062E00091469A4600250A9B9D4229D270684146F4
:1062F00001F00BFC706809EB0501FFF72FFC0A9B0E
:106300005F1B1F2F28BF1F270AEB050407EB040B99
:10631000706814F8011B026892689047A345F7D192
:106320007068012101F0F8FB044638B102460549C6
:106330000548FFF717FC2046BDE8F88F3D44D2E73B
:106340000024F8E7FFBC0D00D8E503202DE9F34158
:1063500001EB03081E4603689B6805460C4617467A
:10636000984780450DD82034686800963B46E2B2D5
:106370006F21FFF7B1FFB0FA80F0400902B0BDE82D
:10638000F0810020FAE71FB5137C8DF80830D37B2D
:106390008DF80930937B8DF80A30537B8DF80B30E4
:1063A000137B8DF80C30D37A8DF80D30937A8DF8FD
:1063B0000E30072300930A4602AB6F21FFF78CFFD4
:1063C00005B05DF804FB10B588B0044603A801933E
:1063D000FFF768FD019B03A8FFF727FE9DF81C301F
:1063E000A27A63F07F038DF81C309DF819306AB1F2
:1063F00043F0080303AA002120468DF81930FFF767
:10640000C2FFB0FA80F0400908B010BD03F0F703F6
:10641000F0E70000F0B587B0054601F093FF0446B1
:10642000E8B101F0ACFFC717024606463B462846D6
:10643000FFF7C9FF0C4B0D491B68009332463B46E2
:10644000044602A801F03CFF0948029A0949FFF7F7
:1064500089FB02A801F03EFD204607B0F0BD0649C9
:106460000348FFF77FFBF7E7C8DC032048E603207B
:10647000D8E503201ABD0D0030BD0D0037B5457AB3
:1064800004469DB901F05EFF80B1002200236946F9
:106490002846CDE9002300F035FE38B1E37ADB076A
:1064A00002D52046FFF7B6FF0123637203B030BD6B
:1064B0001FB501238DF80C2000930A4603AB6F2112
:1064C000FFF70AFF05B05DF804FBF8B504460D467A
:1064D00017461E46FFF790FE00EA070232432946A0
:1064E0002046BDE8F840FFF7E3BF012908B50CD806
:1064F00000294FF0000314BFDF22EF220721FFF72E
:10650000E4FFB0FA80F0400908BD0020FCE738B590
:10651000044632256068572101F0F7FA60680121CE
:1065200001F0FAFA08B1013DF4D138BD2DE9F0418E
:1065300004460F46164602EB0308B04520D06068BB
:10654000572101F0E2FA39466068FFF707FB6068FF
:1065500016F8011B03689B6898476068012101F0E9
:10656000DBFA0137054638B1024606490648FFF70F
:10657000F9FA2846BDE8F0812046FFF7C8FFDCE7BE
:106580000025F6E745BD0D00D8E50320F7B5CF1887
:106590001E46036801929B6804460D469847874251
:1065A0000AD8019A60683346E9B2FFF7BFFFB0FA34
:1065B00080F0400903B0F0BD0020FBE7014B024A28
:1065C0001A607047D8E5032066BD0D00012A034616
:1065D00002D1016000207047022A04BFD1E9000106
:1065E000C3E90001F6E710B501230374836804468C
:1065F00043B1C0689847012363740020BDE8104090
:1066000000F032BB00680028F5D083680BB902F0B7
:1066100060F9C368EEE710B442680346541001EB1A
:106620006200D20748BF0A591B685DF8044B48BF97
:10663000D35818470123F7B580F8293006460830AB
:1066400000F0EAFA0420FDF726FD054698B31B4941
:10665000142002F03AF930B10023C0E90033C0E958
:106660000233037443742860A0B1154B1549C0E987
:1066700002364FF40063CDE900030222124B0430CE
:1066800000F092FA30B92B681B7CA3B9012000F00E
:106690000BFBF8E72C6800232B6064B1276837B147
:1066A0003846FDF70DFE1021384602F00CF9142192
:1066B000204602F008F9756003B0F0BD80C00D00FF
:1066C000D3680D00D8BD0D00E7650D0047F23051CD
:1066D000084AC160084902600022C0E90412074963
:1066E000C16107494260C0E908228161028580F8E2
:1066F0002A2070479CBE0D003D6A0D0017660D00F4
:10670000CD650D0010B5044B044640F8103BFDF775
:10671000D7FD204610BD00BF9CBE0D0010B5034B39
:1067200003600446FFF7EEFF204610BDC4BE0D0017
:1067300010B50446FFF7F2FF2046382102F0C3F8F7
:10674000204610BD806800F06FBA806800F074BA0F
:1067500010B504460068FFF7F8FF204610BD13B5DA
:1067600004460190FFF7EEFFE36ADC88A4B20CB1A7
:1067700003F1080401A8FFF7EBFF204602B010BDAB
:1067800013B504460190FFF7DDFF94F8283043B9B4
:10679000E26A0124D38001A8FFF7DAFF204602B0A5
:1067A00010BD0024F7E713B504460190FFF7CAFFB8
:1067B000E36A01A8DC88FFF7CBFF204602B010BDDA
:1067C0002DE9F047994686B090F829309DF838A019
:1067D0009DF83C8004460F46164613B903689B6833
:1067E0009847314B3846002E08BF1E4602F063FF23
:1067F0000546304602F05FFF284400F10A05AB076A
:106800001CBF25F0030504353346CDE90285CDE9EB
:10681000009A264926483A46FFF7A4F9238E083BFA
:10682000AB4212D20024204606B0BDE8F087CB88E8
:10683000012B36D005A8FFF78BFF236894F82810AA
:106840009B69204698470028ECD020460594FFF726
:1068500079FFE16A228E636B0A44D21AAA42E6D318
:1068600048EA0A0883F80480C3F80090636B03F1D8
:1068700008083946404602F0F9FE404602F01BFF88
:1068800001303146404402F0F1FE636BE26A1D4480
:106890006563D3880133D380012405A8FFF758FF2F
:1068A000C1E70024F9E700BFA8C00D00EABD0D0054
:1068B000DCE5032008B5044600F11005A3690BB917
:1068C00002F007F8E36921462846984700F074F97A
:1068D000F4E708B5FFF7EEFF68B501F108050646D5
:1068E000284602F0E8FE01300544284602F0E3FEA7
:1068F000F36A01302844C31A13F003031CBFC3F129
:106900000403C01868BDF7B504460E460190FFF7B2
:1069100019FFE76AFB8807F10805E6B1012B22D9C8
:1069200029462046FFF7D8FF054629462046FFF7AF
:10693000D3FF228E3A44121A0146A0EB050602D07C
:10694000284602F043FE636B9B1B6363FB88013B9D
:10695000FB80012601E0002BE7D101A8FFF7F8FE3C
:10696000304603B0F0BD0026F7E700002DE9F04700
:106970000D4604462F461646FFF7A8FE154B57F85E
:10698000082B2360144BE5629A422686984617D15D
:10699000AB889BB2B34213D105EB060A67634FF095
:1069A0000009EB881FFA89F29BB29A420ED2616B02
:1069B0002046FFF791FF5045606309F10109F0D9C6
:1069C0000023C5F800806763AE80EB802046BDE8F9
:1069D000F08700BFC4BE0D0061AB9CD110B5D1E9FA
:1069E000002386B00021044604910AB9D90705D5D1
:1069F000CDE902230F4B05930F4B049302AB93E8B1
:106A000003006A4682E8030094E8030083E8030079
:106A100092E80300049A84E80300A168A260059A42
:106A200004911846E168E2600591FDF749FC2046B3
:106A300006B010BD17660D00CD650D0007B5054BFE
:106A400000936946002310300193FFF7C7FF03B09E
:106A50005DF804FB856A0D0013B5044600F034F9B7
:106A6000636AC01AE368984208D3054B00936946ED
:106A7000002304F110000193FFF7B0FF02B010BD36
:106A8000856A0D002DE9F04190F82A3086B0044661
:106A9000002B64D100F006FB002860D000F014F950
:106AA000636AC01A40F2F133984258D923682046ED
:106AB0005B6998470546002851D000F1080701237B
:106AC00084F82830384602F0F6FD95F80480CDF8B9
:106AD000048001302B682B4900933E1833462A4826
:106AE0003A46FFF73FF82B688DF80080324639466A
:106AF00002A800F0E9FD029D6B781BB9012000F0AF
:106B0000E1FBF8E7002000F06FFA20B16B7813B9D1
:106B100000F0B8FAFAE72B78012B23D11B491A4869
:106B2000FFF720F8236800219B692046984700233F
:106B300084F8283000F0C8F86062039C7CB1636878
:106B4000013B63605BB9236820469B689847A36854
:106B5000013BA3601BB923682046DB68984706B059
:106B6000BDE8F081E2680A490748FEF7FBFF094BE0
:106B7000049304A9002304F110000593FFF72EFFEE
:106B8000D5E700BF2BBE0D00DCE503204CBE0D0099
:106B900063BE0D00596A0D00014B024A1A6070472E
:106BA000DCE503208ABE0D0008B5024B1B685B685C
:106BB000019308BD4802030008B5024B1B68DB685F
:106BC000019308BD4802030008B5024B1B68DB694E
:106BD000019308BD4802030008B5024B1B681B6AFD
:106BE000019308BD4802030008B5024B1B685B6AAD
:106BF000019308BD4802030008B5024B1B689B6A5D
:106C0000019308BD4802030008B5024B1B68DB6A0C
:106C1000019308BD4802030008B5024B1B681B6BBB
:106C2000019308BD4802030008B5024B1B689B6B2B
:106C3000019308BD4802030008B5024B1B681B6C9A
:106C4000019308BD4802030008B5024B1B685B6C4A
:106C5000019308BD4802030008B5024B1B689B6CFA
:106C6000019308BD4802030008B5024B1B68DB6EA8
:106C7000019308BD4802030008B5024B1B681B6F57
:106C8000019308BD4802030008B5024B1B685B6E08
:106C9000019308BD3402030008B5024B1B685B6812
:106CA000019308BD1802030008B5024B1B689B68DE
:106CB000019308BD1802030008B5024B1B68DB688E
:106CC000019308BD1802030008B5024B1B685B69FD
:106CD000019308BD1802030008B5024B1B689B6DA9
:106CE000019308BD1802030008B5024B1B68DB6D59
:106CF000019308BD1802030008B5024B1B685B6EC8
:106D0000019308BD1802030008B5024B1B689B6E77
:106D1000019308BD1802030008B5024B1B685B68AD
:106D2000019308BD2C02030008B5024B1B689B6849
:106D3000019308BD2C02030008B5024B1B68DB68F9
:106D4000019308BD2C02030008B5024B1B681B69A8
:106D5000019308BD2C02030008B5024B1B689B6918
:106D6000019308BD2C02030008B5024B1B68DB69C8
:106D7000019308BD2C02030008B5024B1B681B6B76
:106D8000019308BD2C02030008B5024B1B68DB68A9
:106D9000019308BD2802030008B5024B1B689B69DC
:106DA000019308BD2802030008B5024B1B68DB698C
:106DB000019308BD2802030008B5024B1B681B6A3B
:106DC000019308BD2802030008B5024B1B685B6AEB
:106DD000019308BD2802030008B5024B1B689B6A9B
:106DE000019308BD2802030008B5024B1B68DB6A4B
:106DF000019308BD2802030008B5024B1B681B6BFA
:106E0000019308BD2802030008B5024B1B685B6BA9
:106E1000019308BD2802030008B5024B1B681B6CD8
:106E2000019308BD2802030008B5024B1B689B6C48
:106E3000019308BD2802030008B5024B1B68DB6CF8
:106E4000019308BD2802030008B5024B1B681B6DA7
:106E5000019308BD2802030008B5024B1B685B695B
:106E6000019308BD6402030008B5024B1B689B68D0
:106E7000019308BD6802030008B5024B1B68DB687C
:106E8000019308BD6802030008B5024B1B68DB696B
:106E9000019308BD3002030008B5024B1B681B6A52
:106EA000019308BD3002030008B5024B1B681B6844
:106EB000019308BD3C02030008B5024B1B68DB6868
:106EC000019308BD3C02030008B5024B1B681B6917
:106ED000019308BD3C02030008B5024B1B685B69C7
:106EE000019308BD3C02030008B5024B1B689B6977
:106EF000019308BD3C02030008B5024B1B68DB6927
:106F0000019308BD3C02030008B5024B1B681B6AD5
:106F1000019308BD3C02030008B5024B1B689B6A45
:106F2000019308BD3C02030008B5024B1B681B68B7
:106F3000019308BD4C02030008B5024B1B681B6996
:106F4000019308BD4C02030008B5024B1B685B6946
:106F5000019308BD4C02030008B5024B1B689B69F6
:106F6000019308BD4C02030008B5024B1B68DB69A6
:106F7000019308BD4C02030008B5024B1B681B6A55
:106F8000019308BD4C02030008B5024B1B685B6B04
:106F9000019308BD6002030008B5024B1B685B6DDE
:106FA000019308BD6002030008B5024B1B681B6813
:106FB000019308BD2002030008B5024B1B685B6803
:106FC000019308BD2002030008B5024B1B685B69F2
:106FD000019308BD2002030008B5024B1B68DB6A61
:106FE000019308BD2002030008B5024B1B68DB6C4F
:106FF000019308BD2002030008B5024B1B685B6DBE
:10700000019308BD2002030008B5024B1B689B6D6D
:10701000019308BD2002030008B5024B1B68DB6D1D
:10702000019308BD2002030008B5034B1B68D3F889
:107030008830019308BD00002002030008B5034B0F
:107040001B68D3F89430019308BD000020020300B0
:1070500008B5034B1B68D3F8B030019308BD00009E
:107060002002030008B5024B1B681B68019308BD92
:107070004402030008B5024B1B685B68019308BD1E
:107080004402030008B5024B1B689B68019308BDCE
:107090004402030008B5024B1B68DB68019308BD7E
:1070A0004402030008B5024B1B685B69019308BDED
:1070B0004402030008B5024B1B68DB69019308BD5D
:1070C0004402030008B5024B1B681B6A019308BD0C
:1070D0004402030008B5024B1B685B6A019308BDBC
:1070E0004402030008B5024B1B68DB6A019308BD2C
:1070F0004402030008B5024B1B681B6B019308BDDB
:107100004402030008B5024B1B685B6B019308BD8A
:107110004402030008B5024B1B689B6B019308BD3A
:107120004402030008B5024B1B68DB6B019308BDEA
:107130004402030008B5024B1B685B68019308BD5D
:107140004002030008B5024B1B689B68019308BD11
:107150004002030008B5024B1B68DB68019308BDC1
:107160004002030008B5024B1B681B69019308BD70
:107170004002030008B5024B1B685B69019308BD20
:107180004002030008B5024B1B689B69019308BDD0
:107190004002030008B5024B1B68DB69019308BD80
:1071A0004002030008B5024B1B681B6A019308BD2F
:1071B0004002030008B5024B1B681B6B019308BD1E
:1071C0004002030008B5024B1B685B6B019308BDCE
:1071D0004002030008B5024B1B681B6C019308BDFD
:1071E0004002030008B5024B1B685B6C019308BDAD
:1071F0004002030008B5024B1B681B68019308BDE1
:107200001C02030008B5024B1B685B68019308BDB4
:107210001C02030008B5024B1B689B68019308BD64
:107220001C02030008B5024B1B681B69019308BDD3
:107230001C02030008B5024B1B68DB69019308BD03
:107240001C02030008B5024B1B68DB6A019308BDF2
:107250001C02030008B5024B1B681B6B019308BDA1
:107260001C02030008B5024B1B68DB6B019308BDD1
:107270001C02030008B5024B1B685B6C019308BD40
:107280001C02030008B5024B1B689B6C019308BDF0
:107290001C02030008B5024B1B68DB6C019308BDA0
:1072A0001C02030008B5024B1B681B6D019308BD4F
:1072B0001C02030008B5024B1B685B6D019308BDFF
:1072C0001C0203000021FFF77FBE10B5836804464F
:1072D0000BB901F0FEFAC3689847A3681BB10322FB
:1072E00021462046984720461021BDE8104001F075
:1072F000EABA10B5036804469B689847A368013B47
:10730000A3602BB923682046DB68BDE8104018470E
:1073100010BD10B50446006808B1FFF79DFC20467B
:1073200010BD0B68036013B15A6801325A60704790
:1073300010B50446006828B14368013B43600BB9AF
:10734000FFF7D7FF204610BD13B50B460246D0E924
:1073500000016C4684E8030093E8030082E8030020
:1073600094E8030083E8030002B010BD10B5064C9A
:10737000002320462360FFF767FC2046034A0449A8
:10738000BDE8104001F09ABAE0E50320A8DE032032
:1073900013730D00002240681146FFF7E3BE002280
:1073A00040681146FFF7FEBE002240681146FFF715
:1073B00009BF40680022FFF7FDBE4068002281F04F
:1073C0000101FFF7E7BE002340681A461946FFF7A0
:1073D000D9BE002340681A461946FFF7CBBE0022EB
:1073E00040681146FFF7AEBE406800220221FFF759
:1073F000B1BE002340681A46FFF79CBE084B10B58B
:10740000282422461846002102F0FAF8054B048091
:107410004FF0FF32426004225A60034A1A6010BDE6
:10742000ECE50320E4E50320ECBE0D0070470020EE
:10743000704710B51021044601F045FA204610BDF2
:1074400008B5FFF7F6FF08BD30B500224FF69C7473
:10745000026084808D888C800C68858004600A605E
:1074600030BD10B504460068FFF7CCFE204610BDC5
:1074700038B5C468F4B12378022B03D104F10C00B1
:10748000FFF7EFFF656835B12846FCF719FF1021BB
:10749000284601F018FAA56835B12846FCF710FF18
:1074A0001021284601F00FFA20461421BDE838408B
:1074B00001F009BA38BD10B588B00446684600F03E
:1074C00054FD694604A800F073FD04A8A0470446D3
:1074D00004A800F0FFFC684600F0FCFC204608B061
:1074E00010BD1FB50023CDE90201019210241A46F8
:1074F00069461846ADF80230ADF80040FFF7BAFD16
:1075000004B010BD73B50E46044656F8043B009314
:107510000D4601A83146FFF704FF019A009B626007
:10752000236001A8002301930093FFF701FF304679
:10753000FFF7FEFE2846082101F0C5F9204602B0FB
:1075400070BD826810B50AB901F0C3F9BDE81040FA
:10755000C368184708B5006800F11001FFF7F1FF94
:1075600008BD826810B50AB901F0B3F9BDE8104052
:10757000C368184708B5006800F11001FFF7F1FF74
:1075800008BD000038B500230446036010200D46F6
:10759000FCF781FD28B10123C0E90133024B0360F0
:1075A000C5602060204638BD28BF0D0038B50023D7
:1075B00083608B6804460D462BB102229847EB6826
:1075C000E360AB68A360204638BD0000F0B589B029
:1075D00004686846FFF738FF4FF00203D4E84F2FE6
:1075E000002A03D1C4E8413F0029F7D125D104F195
:1075F0000C0569462846FFF727FFBFF35B8F012381
:107600006370002004F10803BFF35B8F53E8006F41
:1076100043E80002002AF9D1BFF35B8F6EB1FFF798
:10762000E3FC78B129463046FFF78BFF3046FCF784
:1076300047FE1021304601F046F96846FFF711FF7A
:1076400009B0F0BD314602A8FFF7B0FFE068B4F919
:10765000105008B102F012F806901020ADF81C503E
:10766000FCF719FD0546E8B1002787601820FCF7F4
:1076700012FD044688B10146876002A8FFF764FE48
:10768000049BA268A360059B049206A9E268E360DC
:1076900004F110000592FFF7D7FE084BEB60084B92
:1076A0002C60AB6006A8FFF7DCFE02A8FCF708FE22
:1076B000002229460348FFF79FFCB7E755750D00E8
:1076C000ED770D00CB720D002DE9F0478AB005462D
:1076D0009DF848900C4617469846FFF7E3FC07AE26
:1076E000824638BB4FF62E73059005A93046ADF89B
:1076F0001830FFF7A9FE1420FCF7CDFC044648B172
:10770000022303700123C0E901AA437031460C3003
:10771000FFF79AFE2846214640F8044BFFF732FF58
:107720003046FFF79EFE05A8FFF79BFE28460AB0ED
:10773000BDE8F0870C234FF0000A1420CDE908AA19
:107740000793FCF7A8FC014628B1C0E901AA80F81C
:1077500000A080F801A004A80391FFF713FF224BBB
:1077600008930820FCF797FC824628B1039B40F859
:10777000043B04A9FFF7D5FD00965FFA89F3424662
:1077800039462046CDF824A0FFF79CFCB8B9039BEE
:107790005B7803F0FF0293B94FF69C7305A903A829
:1077A0000592ADF81830FFF711FF05A8FFF759FE55
:1077B00005A80999FFF7A6FE06A8FFF7B9FD039BE8
:1077C000059304A906A8FFF7ACFD059B069A2B605C
:1077D0006A60002306A806930593FFF7A9FD04A895
:1077E000FFF7A6FDA2E700BFB1780D00022AF8B5A9
:1077F000054607D0032A18D0012A01D10B6803607F
:107800000020F8BD18200E68FCF745FC044650B176
:107810003146FFF7CBFE3069B6F9147008B101F0BC
:107820002DFF2061A7822C60EAE70468002CE7D0D6
:1078300004F11000FFF715FE2046FCF741FD18216A
:10784000204601F040F8DBE738B5002383608B6801
:1078500004460D462BB102229847EB68E360AB6803
:10786000A360204638BD022A70B5044607D0032A1B
:1078700012D0012A01D10B680360002070BD1420D2
:107880000E68FCF708FC054620B13146FFF7DCFF27
:10789000337C2B742560F0E70468002CEDD0204683
:1078A000FCF70EFD1421204601F00DF8E5E700007D
:1078B000F0B589B004460D4601A81146FFF722FE37
:1078C000A4B124B21DB1284601F0D8FE054601A896
:1078D00003A90395ADF81040FFF778FE03A8FFF762
:1078E000C0FD02A8FFF724FD09B0F0BD019D0123F2
:1078F000D5E84F2F002A03D1C5E8413F0029F7D131
:10790000EFD12B73BFF35B8F6B702B1DBFF35B8FBE
:1079100053E8006F43E80042002AF9D1BFF35B8FC0
:10792000002EDED02046FFF75FFB074660B105F171
:107930000C013046FFF715FE3046FCF7C1FC102164
:10794000304600F0C0FFCCE7314603A8FFF77CFFCC
:107950002B7B8DF81C301020FCF79DFB0546D0B129
:1079600087601420FCF797FB044678B187600146D6
:1079700003A8FFF7E9FC059BA268A360069B05929C
:10798000E268E3609DF81C3006922374064BEB60BE
:10799000064B2C60AB6003A8FCF792FC0022294642
:1079A0000348FFF729FBC7E775750D0067780D00E1
:1079B000CB720D00002240681146FFF7F3BB002296
:1079C00040681146FFF7FEBB40680022FFF7F2BB9C
:1079D0004068002281F00101FFF7DCBB0023406812
:1079E0001A461946FFF7CEBB002340681A461946CF
:1079F000FFF7C0BB002240681146FFF7B3BB00226F
:107A000040681146FFF79EBB406800220221FFF745
:107A1000A1BB002340681A46FFF78CBB024B032230
:107A20005A60024A1A60704714E6032044BF0D00F2
:107A30007047F8B5064615460C468F18BC4206D06E
:107A4000336814F8011B9B6830469847F6E72846D0
:107A5000F8BD007C0022FFF7AFB9007C0021FFF7E2
:107A6000B3B9007C0021FFF7B7B9007C0021FFF714
:107A7000BBB9007C0021FFF7BFB910B51421044643
:107A800000F021FF204610BD10B54FF47A73044674
:107A900008460021C4E90113034B236020741146FA
:107AA000FFF7BAF9204610BD80BF0D000023007C0F
:107AB0001A461946FFF768B97FB500221423CDE9AD
:107AC0000122ADF804300B788DF808304B68039331
:107AD000CB680493007C0B7A059301A9FFF7B4F9F6
:107AE00007B05DF804FB1FB5003B8DF800104FF0A8
:107AF0006401039118BF0123694601928DF8083093
:107B0000FFF7DAFF05B05DF804FB007C0022FFF709
:107B100043B9C9B2FFF7F9BF007C0022FFF744B9AF
:107B200008B50021007CFFF77FF9B0FA80F040092A
:107B300008BD08B50021007CFFF77EF9B0FA80F09F
:107B4000400908BD004700002DE9FF4100241D4603
:107B50000F4690460646FFF707F9A5424FF004038B
:107B6000ADF80D408DF80C308DF80F40A2BF9DF898
:107B700028308DF80E3003AC0749009443463A464E
:107B80003046A8BF8DF80D50FFF7E6F8B0FA80F048
:107B9000400904B0BDE8F081457B0D00704710B589
:107BA0001821044600F08FFE204610BDF0B5037D7D
:107BB000062B8DB00E4600F104074FF0000412D0E2
:107BC00000F1080515F8011D0A22304600F045F9BC
:107BD000AF42044419D0002CF4D02E21304600F0DE
:107BE00039F90444EEE72F236A4639460A208DF816
:107BF0000040FFF731F9684601F05DFD3368024649
:107C0000DB68694630469847044620460DB0F0BD13
:107C100010B5054B0446112240F8043B002101F049
:107C2000EFFC204610BD00BFA8BF0D000346074A69
:107C300010B543F8042B01F1100251F8044B43F83E
:107C4000044B9142F9D10A781A7010BDA8BF0D00FB
:107C500010B59DF8084044EA032343EA024242EA91
:107C6000016104234160037510BD000013B5054B8D
:107C70000360CB7800938B784A780978FFF7E8FFA8
:107C800002B010BDA8BF0D00014B024A1A60704738
:107C90001CE60320B4BF0D00002340681A46FFF71E
:107CA00049BA406800220221FFF754BA0022406816
:107CB0001146FFF747BA002240681146FFF752BA53
:107CC000002340681A461946FFF754BA002340685B
:107CD0001A461946FFF756BA40680021FFF77ABAEC
:107CE00040680021FFF77EBA4068002281F0010160
:107CF000FFF750BA40680022FFF75CBA00224068E4
:107D00001146FFF75FBA002240681146FFF74ABAF2
:107D10002DE9F043002495B016460D460746FFF7BF
:107D200077FF214618220EA8009401F069FC402339
:107D3000CDE90C3421466B460CAA3046FFF79CF87F
:107D4000044600284CD1024601216868FFF70AFA70
:107D50000221804622466868FFF704FA009E8146A9
:107D60002146002E3CD000293AD17368022B03D063
:107D70000A2B11D0F669F4E7B8F1000F0AD0716947
:107D800006A8043107ADFFF771FF0FCD3C1D0FC4EE
:107D90002B6823704146EDE7B9F1000F01D1494648
:107DA000E8E77469102201A801F02AFC06238DF887
:107DB000143001AD04F108031834186859682A46D4
:107DC00003C20833A3421546F7D101A906A807AD9F
:107DD000FFF72CFF0FCD3C1D0FC42B682370DEE78F
:107DE0000098FFF741F8384615B0BDE8F083000071
:107DF000024B034A1A6000225A60704720E60320B3
:107E0000C0BF0D00F8B506460D468F180024BD42D0
:107E10000CD0336815F8011B9B6830469847031E49
:107E200001DB1C44F3E7002C08BF1C462046F8BDCC
:107E300013B50446084659B1019101F03CFC236892
:107E40000199DB680246204602B0BDE810401847A1
:107E500002B010BD03689B68184730B58BB0002393
:107E60008DF82430012A98BF0A2209AC0D46B1FBD7
:107E7000F2F101FB125303F0FF03092B94BF3033DF
:107E80003733DBB2AA4204F8013DEFD92146FFF7B0
:107E9000CFFF0BB030BD10B50446FCF711FA2046F9
:107EA00010BD00000348044A04490023836000F029
:107EB00005BD00BF28E60320A8DE0320977E0D0045
:107EC00010B5044608462170FEF7DEFF002363600C
:107ED000204610BD10B504460068FFF793F9204610
:107EE00010BD10B50446006808B1FFF78BF90023F8
:107EF000C4E90133236010BD38B504460D4600685F
:107F00000131FFF787F910B1C4E90005012038BD40
:107F100010B50368044623B143688B4201D30120A6
:107F200010BD2046FFF7E8FF0028F9D0A368002B1A
:107F3000F5D122681370F2E737B50D46114601926C
:107F40000446FFF7E5FF019A28B92046FFF7C9FF6D
:107F5000204603B030BDA2602946206801F028FB0E
:107F60002268A3680021D154F2E7002313B5C0E9C9
:107F7000003304468360037341B10846019101F068
:107F80009AFB019902462046FFF7D6FF204602B031
:107F900010BD884210B5044605D00B682BB18A6825
:107FA0001946FFF7C9FF204610BDFFF79AFFFAE711
:107FB00010B500230446C0E9003383600373FFF764
:107FC000E8FF204610BD70B505460E4609B90020F1
:107FD00070BD6AB1846814442146FFF799FF0028F8
:107FE000F5D02868AB683146184401F03FFBAC601F
:107FF0000120EDE713B5044629B92046FFF771FFCC
:10800000204602B010BD0846019101F054FB0199D1
:1080100002462046FFF7D7FF0028EED0F0E708B56C
:1080200082683AB921B10878B0FA80F0400900E0DE
:10803000012008BD006809B90078F5E701F00CFBE4
:10804000F2E7000008B5006840B101F089FA51EC90
:10805000100B01F0F1F900EE100A08BD9FED010AC6
:10806000FBE700BF0000000007B50B4600210246F9
:10807000009101208C21FEF7EBFF03B05DF804FBBB
:1080800001460020FFF7F0BF0020FFF7F9BF000016
:1080900010B5094B094C022200201A60084B2060E1
:1080A000A080A071A360FEF787FF2046054A06491D
:1080B000BDE8104000F002BC44E6032038E603208F
:1080C0000000FFFFA8DE032057420D002DE9F0411C
:1080D000154ADFF86080D2E90032C01842EB010196
:1080E000124AD2E90032C61841EB0207D8E9002350
:1080F000BB4208BFB2428CB013D003A96846CDE999
:108100000067FFF7C7F8089B094D03F26C7303ACD7
:1081100008930FCC0FC50FCC0FC5C8E900672368C3
:108120002B600CB0BDE8F08180E6032078E60320E8
:1081300050E6032088E6032008B50020FEF7DAFFAA
:1081400028B1FEF7AFFF80F00100C0B208BD0120EA
:10815000FCE71FB502460B4668460021CDE9002327
:10816000CDE90211FEF7D0FD024610B90146FEF737
:1081700053FF05B05DF804FB30B504461848D0E95C
:108180000010521840EB03031648D0E900105218B3
:1081900093B040EB0303CDE9002324220DEB020052
:1081A000002101F02DFA002509A96846FFF772F8B1
:1081B0001622294603A8029501F022FA02A909A86D
:1081C00001F0A8F902A801F076FA12AB184402A94E
:1081D00000F8415C2046FFF7C8FE204613B030BDD2
:1081E00080E6032078E603202DE9F04FA5B007468E
:1081F000884614A811463F221D4601F076FA002356
:1082000014A88DF88F3001F056FA04465DBB2A4958
:1082100003A801F02BFA14AE002504F1FF3BAB4597
:1082200036D9B14605F1010A19F8013B252B17D1C2
:1082300073787A2B14D103A801F03DFA14AB0446ED
:1082400028181844ABEB0502B11C01F0B1F9224625
:1082500003A9304601F0ACF914A801F02CFA044649
:108260004E465546D9E73C2195FBF1F3002BB8BFAC
:108270005B42B3FBF1F201FB123300930F4A4FF460
:108280006163102103A895FBF3F3FEF7D3FFC2E768
:1082900000212E2208A8079101F0B2F9434614AA42
:1082A000322107A8FEF7EEFF07A93846FFF75DFE6B
:1082B000384625B0BDE8F08FF4BF0D00F6BF0D00C5
:1082C000F0B58DB0CDE90023129D044615B9194BC8
:1082D0001D682DB1184B2846196801F0BDF938B951
:1082E000DDE900232046FFF747FF20460DB0F0BD33
:1082F000124E0099124FD6E900325B18019941EBFA
:108300000202D7E900011B1841EB0202CDE900325D
:108310000021242203A801F073F903A96846FEF79F
:10832000B9FF32683B6803A9134420462A46FFF789
:108330005BFFDAE74CE60320C8DC032080E603207D
:1083400078E6032010B50020FEF7C6FC0446A0B96D
:10835000FEF72AFE012810D12046FEF755FE60B92F
:10836000FFF7EAFE10B9FEF78DFEF9E7FFF7E4FE2E
:10837000BDE810400020FEF7AFBC204610BD1FB581
:10838000FFF7E0FF10220021684601F039F90021D3
:108390006846FEF7B1FC009805B05DF804FB0000EC
:1083A00008B5FFF7ECFFC117FFF790FE014B986887
:1083B00008BD00BF50E6032008B5FFF7E0FFC11776
:1083C000FFF784FE014B586908BD00BF50E603204B
:1083D000024B1A68024B1A60704700BFC8DC0320CA
:1083E0004CE6032070474174704708B5007CFEF7E7
:1083F00093FD20EAE07008BD08B5007CFEF764FD3F
:1084000020EAE07008BD08B5007CFEF76DFD40EA8B
:10841000E07008BD08B5007CFEF75EFD40EAE07044
:1084200008BD007CFEF768BD37B5457C04462DB11C
:10843000207C03B0BDE83040FEF73EBD007C0191DA
:10844000FEF76AFD00280199F2DC284603B030BD32
:1084500010B51421044600F036FA204610BD000085
:1084600010B54FF0000C0446084611464FF47A72DE
:10847000C4E901C2044A22600122207462741A46CF
:10848000FEF712FD204610BD28C00D0013B50E4C9E
:108490002178BFF35B8F11F0010112D120460191C9
:1084A000FBF70AFE019960B1084A094B0948FFF73A
:1084B000D7FF2046FBF705FE074A0849054800F0AC
:1084C000FDF9044802B010BD90E6032094E60320B5
:1084D00018E703209CE70320A8DE0320E5830D00B6
:1084E00041747047704708B50021007CFEF734FDE9
:1084F00040EAE07008BD08B50121007CFEF72CFDC4
:1085000040EAE07008BD08B5007CFEF71DFD20EADA
:10851000E07008BD08B5007CFEF70EFD20EAE070B3
:1085200008BD13B50446007C0191FEF70DFD00283F
:10853000019901DC607C20B1207CFEF715FD20EA6A
:10854000E07002B010BD007CFEF716BD10B514211E
:10855000044600F0B8F9204610BD000010B54FF4F5
:108560007A73044608460021C4E90113044B2360D2
:108570000123207463741146FEF7D6FC204610BD1B
:1085800058C00D0010B514220446002101F038F83F
:10859000204610BD10B5104C88B003A8FFF7F2FFBD
:1085A0002178BFF35B8F11F0010111D120460191B9
:1085B000FBF782FD019958B103AA0848FFF7CEFFE7
:1085C0002046FBF77EFD064A0649044800F076F98E
:1085D000024808B010BD00BFB0E70320B4E7032095
:1085E000A8DE0320E5840D00014B1860704700BF32
:1085F000D0DC032008B50B4B43B1FFF7CBFF03687A
:108600001B699847002801DDAFF30080064B43B19A
:10861000FFF73CFF03681B699847002801DDAFF3B3
:10862000008008BD000000000000000008B5FFF752
:10863000E1FFFEF749FB014B186008BDDCE70320B2
:108640000248034A0349121A00F0B2BF00F40320A3
:1086500004FC032080C30D0007B5002300931A46D5
:108660006FF07701FEF7EAFC03B05DF804FB000051
:1086700007B543880A2B08D0502B0BD1094B1B6838
:108680004BB103B05DF804EB1847FFF7E5FF03B00B
:108690005DF804FB002300931A466FF07701FEF7A4
:1086A000CDFCF4E7CCE7032038B5124C1248134D4B
:1086B0000021FEF7DFFD2368AB42114B0CBF012206
:1086C00000221A7002D0FFF7BBFF2560FEF7E4FA24
:1086D000044600F09DFF0B4B13B12046AFF3008022
:1086E00000210848FEF71EFDBDE83840064800217D
:1086F000FEF79ABC00FC0320E9850D001E1C279A9A
:10870000C8E703200000000071860D0008B5024B89
:108710001B681B68019308BD5C02030008B5024B8F
:108720001B685B68019308BD5C02030008B5024B3F
:108730001B689B68019308BD5C020300232813B5E6
:1087400002D9002002B010BDA0F10B03022B1AD8F1
:10875000174C2178BFF35B8F11F001010BD120463C
:108760000191FBF7A9FC019928B11248FFF7A8FB7A
:108770002046FBF7A6FC0F4B1878FEF78DFB002870
:10878000DFD10120DEE7012809D800F06FF80021D1
:10879000007CFEF739FB80F00100C0B2D2E7093857
:1087A0000128EED8FFF772FE007CFEF7ADFBF2E782
:1087B000D0E70320D4E70320232838B504460D462C
:1087C0000AD8FF2908D0FFF7B9FF28B1294620466B
:1087D000BDE83840FEF7A8BA38BD38B504460D46A6
:1087E000FEF7AAFAFF2810D0062804D84D2323FA52
:1087F00000F0C30709D42046FFF7A0FF28B129469F
:108800002046BDE83840FEF79FBA38BD0D2810B5A8
:1088100004469CBF0E34A4B22046FFF78FFF50B130
:1088200003212046FEF778FA032804D12046BDE84C
:108830001040FEF7A1BA002010BD000038B500239B
:108840002025438014230446038085600561064982
:10885000284600F03CF804496060284600F037F8EC
:10886000E060204638BD00BF80C00D0030B50F4D20
:108870002978BFF35B8F11F0010487B013D128462C
:10888000FBF71AFC78B101A8FFF7D8FF01AA21462F
:108890000748FFF7F9F82846FBF713FC054A064995
:1088A000034800F00BF8024807B030BDE0E70320B2
:1088B000E4E70320A8DE0320317A0D000B460146D1
:1088C000184600F055BEFBF7EABBFBF7E4BBFBF72D
:1088D000E4BB08B5FEF7B6FC2DE9F0432DED028BA5
:1088E0008BB055EC104B00F055F8284BB0EE408A99
:1088F000F0EE608A93F900707B1C12D022462B4662
:108900002046294600F062FD064650B94FF00008A7
:108910004FF000092046294642464B4600F02EFD06
:1089200040B9B0EE480AF0EE680A0BB0BDEC028B1D
:10893000BDE8F083164B08960122CDE90445CDE948
:1089400002450092019397B142464B464046494644
:1089500000F0CCFB022FCDE906010AD1FEF782FC24
:1089600021230360089B63B99DED068BD9E7CDE910
:108970000689684600F0D2F80028EFD0089B002B4B
:10898000F2D0FEF76FFC089B0360EDE7CCDC032020
:1089900084C00D002DE9F0415F4A57EC106BBA43DB
:1089A00000F09880002F10EE104A3B464EDD39153E
:1089B0005BD0C3F31303CA0743F48013A1F2FF3E55
:1089C00003D45B0003EBD4736400E20F4FF0000CA0
:1089D00002EB43034FEA6E0E6400664616254FF421
:1089E0000012B118994202DC5B1A8E1894445B00A5
:1089F000013D03EBD4734FEA52024FEA4404F0D135
:108A00002F4620204FF0004209E03ED0E10F013810
:108A10004FEA520201EB43034FEA44043ED0B34213
:108A200002EB0501F1DD002901EB020509DBB0468F
:108A30009B1BA14288BF03F1FF33641A17444646CB
:108A4000E4E7002DF3DB06F10108F1E727F000422F
:108A5000324336D0002F4DD13946E20A153964052C
:108A60001346002AF9D0D70251D400205B00DE0261
:108A7000054600F10100F9D51A4623468440C0F1AD
:108A80002000C3401343491B93E7A142BED80029ED
:108A900001EB0205D5DB98460023CEE7234312D134
:108AA00078084FEA6C0101F17F511CF0010F01F5CC
:108AB000001118BF40F0004001EB0E53024643EC9A
:108AC000102BBDE8F0817B1C16BF781C0CF1010C4B
:108AD0004008E6E710EE102A10EE100A3B46394631
:108AE00000F0DAF932463B4600F020F841EC100B7A
:108AF000BDE8F08110EE102A3046394600F014F837
:108B000002460B4600F0F2FA41EC100BD9E723467F
:108B100020204FF0FF35B4E70000F07F00207047C1
:108B200081F0004102E000BF83F0004330B54FEA1E
:108B300041044FEA430594EA050F08BF90EA020F8B
:108B40001FBF54EA000C55EA020C7FEA645C7FEA1E
:108B5000655C00F0E2804FEA5454D4EB5555B8BF41
:108B60006D420CDD2C4480EA020281EA030382EAB2
:108B7000000083EA010180EA020281EA0303362D44
:108B800088BF30BD11F0004F4FEA01314FF4801C17
:108B90004CEA113102D0404261EB410113F0004F29
:108BA0004FEA03334CEA133302D0524263EB4303E0
:108BB00094EA050F00F0A780A4F10104D5F1200E7E
:108BC0000DDB02FA0EFC22FA05F2801841F10001D9
:108BD00003FA0EF2801843FA05F359410EE0A5F1AD
:108BE00020050EF1200E012A03FA0EFC28BF4CF0DE
:108BF000020C43FA05F3C01851EBE37101F0004594
:108C000007D54FF0000EDCF1000C7EEB00006EEBA0
:108C10000101B1F5801F1BD3B1F5001F0CD349082A
:108C20005FEA30004FEA3C0C04F101044FEA445281
:108C300012F5800F80F09A80BCF1004F08BF5FEA08
:108C4000500C50F1000041EB045141EA050130BDE8
:108C50005FEA4C0C404141EB0101013C28BFB1F5FA
:108C6000801FE9D291F0000F04BF01460020B1FA45
:108C700081F308BF2033A3F10B03B3F120020CDA18
:108C80000C3208DD02F1140CC2F10C0201FA0CF0F6
:108C900021FA02F10CE002F11402D8BFC2F1200C5B
:108CA00001FA02F120FA0CFCDCBF41EA0C01904011
:108CB000E41AA2BF01EB0451294330BD6FEA04045A
:108CC0001F3C1CDA0C340EDC04F11404C4F1200245
:108CD00020FA04F001FA02F340EA030021FA04F357
:108CE00045EA030130BDC4F10C04C4F1200220FAAE
:108CF00002F001FA04F340EA0300294630BD21FAEC
:108D000004F0294630BD94F0000F83F4801306BFB1
:108D100081F480110134013D4EE77FEA645C18BFA5
:108D20007FEA655C29D094EA050F08BF90EA020F3C
:108D300005D054EA000C04BF1946104630BD91EA34
:108D4000030F1EBF0021002030BD5FEA545C05D137
:108D50004000494128BF41F0004130BD14F5800476
:108D60003CBF01F5801130BD01F0004545F0FE41EA
:108D700041F470014FF0000030BD7FEA645C1ABF1F
:108D8000194610467FEA655C1CBF0B46024650EA56
:108D9000013406BF52EA033591EA030F41F4002182
:108DA00030BD00BF90F0000F04BF0021704730B508
:108DB0004FF4806404F132044FF000054FF00001DD
:108DC00050E700BF90F0000F04BF0021704730B59E
:108DD0004FF4806404F1320410F0004548BF404273
:108DE0004FF000013EE700BF42004FEAE2014FEAC8
:108DF00031014FEA02701FBF12F07F4393F07F4FA3
:108E000081F06051704732F07F4208BF704793F0A5
:108E10007F4F04BF41F40021704730B54FF46074B8
:108E200001F0004521F000411CE700BF50EA0102BB
:108E300008BF704730B54FF000050AE050EA010264
:108E400008BF704730B511F0004502D5404261EBD4
:108E500041014FF4806404F132045FEA915C3FF415
:108E6000D8AE4FF003025FEADC0C18BF03325FEAB2
:108E7000DC0C18BF033202EBDC02C2F1200300FA63
:108E800003FC20FA02F001FA03FE40EA0E0021FA88
:108E900002F11444BDE600BF70B54FF0FF0C4CF476
:108EA000E06C1CEA11541DBF1CEA135594EA0C0F28
:108EB00095EA0C0F00F0DEF82C4481EA030621EA63
:108EC0004C5123EA4C5350EA013518BF52EA03359E
:108ED00041F4801143F4801338D0A0FB02CE4FF050
:108EE0000005E1FB02E506F00042E0FB03E54FF080
:108EF0000006E1FB03569CF0000F18BF4EF0010E78
:108F0000A4F1FF04B6F5007F64F5407404D25FEA73
:108F10004E0E6D4146EB060642EAC62141EA555126
:108F20004FEAC52040EA5E504FEACE2EB4F1FD0C68
:108F300088BFBCF5E06F1ED8BEF1004F08BF5FEAE6
:108F4000500E50F1000041EB045170BD06F0004698
:108F500046EA010140EA020081EA0301B4EB5C0445
:108F6000C2BFD4EB0C0541EA045170BD41F480113D
:108F70004FF0000E013C00F3AB8014F1360FDEBF62
:108F8000002001F0004170BDC4F10004203C35DA3E
:108F90000C341BDC04F11404C4F1200500FA05F3C1
:108FA00020FA04F001FA05F240EA020001F0004262
:108FB00021F0004110EBD37021FA04F642EB0601D8
:108FC0005EEA430E08BF20EAD37070BDC4F10C0402
:108FD000C4F1200500FA04F320FA05F001FA04F2C6
:108FE00040EA020001F0004110EBD37041F10001B2
:108FF0005EEA430E08BF20EAD37070BDC4F12005BD
:1090000000FA05F24EEA020E20FA04F301FA05F224
:1090100043EA020321FA04F001F0004121FA04F2CC
:1090200020EA020000EBD3705EEA430E08BF20EA9C
:10903000D37070BD94F0000F0FD101F000464000D6
:1090400041EB010111F4801F08BF013CF7D041EA58
:10905000060195F0000F18BF704703F0004652005C
:1090600043EB030313F4801F08BF013DF7D043EA2D
:109070000603704794EA0C0F0CEA135518BF95EAE3
:109080000C0F0CD050EA410618BF52EA4306D1D16A
:1090900081EA030101F000414FF0000070BD50EA89
:1090A000410606BF1046194652EA430619D094EA13
:1090B0000C0F02D150EA013613D195EA0C0F05D1FD
:1090C00052EA03361CBF104619460AD181EA030151
:1090D00001F0004141F0FE4141F470014FF0000009
:1090E00070BD41F0FE4141F4780170BD70B54FF0A4
:1090F000FF0C4CF4E06C1CEA11541DBF1CEA135524
:1091000094EA0C0F95EA0C0F00F0A7F8A4EB050405
:1091100081EA030E52EA03354FEA013100F08880FC
:109120004FEA03334FF0805545EA131343EA1263C5
:109130004FEA022245EA111545EA10654FEA00267A
:109140000EF000419D4208BF964244F1FD0404F533
:10915000407402D25B084FEA3202B61A65EB03058F
:109160005B084FEA32024FF480104FF4002CB6EB4C
:10917000020E75EB030E22BFB61A754640EA0C00CC
:109180005B084FEA3202B6EB020E75EB030E22BF0C
:10919000B61A754640EA5C005B084FEA3202B6EB4D
:1091A000020E75EB030E22BFB61A754640EA9C000C
:1091B0005B084FEA3202B6EB020E75EB030E22BFDC
:1091C000B61A754640EADC0055EA060E18D04FEA9A
:1091D000051545EA16754FEA06164FEAC30343EA3A
:1091E00052734FEAC2025FEA1C1CC0D111F4801F07
:1091F0000BD141EA00014FF000004FF0004CB6E700
:1092000011F4801F04BF01430020B4F1FD0C88BF9E
:10921000BCF5E06F3FF6AFAEB5EB030C04BFB6EBA9
:10922000020C5FEA500C50F1000041EB045170BD9C
:109230000EF0004E4EEA113114EB5C04C2BFD4EBC9
:109240000C0541EA045170BD41F480114FF0000E4D
:10925000013C90E645EA060E8DE60CEA135594EAC9
:109260000C0F08BF95EA0C0F3FF43BAF94EA0C0FCC
:109270000AD150EA01347FF434AF95EA0C0F7FF441
:1092800025AF104619462CE795EA0C0F06D152EA95
:1092900003353FF4FDAE1046194622E750EA410679
:1092A00018BF52EA43067FF4C5AE50EA41047FF48A
:1092B0000DAF52EA43057FF4EBAE12E74FF0FF3CEF
:1092C00006E000BF4FF0010C02E000BF4FF0010CC0
:1092D0004DF804CD4FEA410C7FEA6C5C4FEA430C39
:1092E00018BF7FEA6C5C1BD001B050EA410C0CBF88
:1092F00052EA430C91EA030F02BF90EA020F0020EA
:10930000704710F1000F91EA030F58BF994208BF50
:1093100090422CBFD8176FEAE37040F0010070470D
:109320004FEA410C7FEA6C5C02D150EA013C07D164
:109330004FEA430C7FEA6C5CD6D152EA033CD3D0AF
:109340005DF8040B704700BF8446104662468C46A9
:109350001946634600E000BF01B5FFF7B7FF0028DC
:1093600048BF10F1000F01BD4DF808EDFFF7F4FF05
:109370000CBF012000205DF808FB00BF4DF808ED90
:10938000FFF7EAFF34BF012000205DF808FB00BFB3
:109390004DF808EDFFF7E0FF94BF012000205DF8D5
:1093A00008FB00BF4DF808EDFFF7CEFF94BF01208A
:1093B00000205DF808FB00BF4DF808EDFFF7C4FF83
:1093C00034BF012000205DF808FB00BF4FEA410CCC
:1093D0007FEA6C5C02D150EA013C0AD14FEA430CAF
:1093E0007FEA6C5C02D152EA033C02D14FF00000EC
:1093F00070474FF0010070474A0011D212F5001279
:1094000011D20DD56FF47873B3EB62520ED44FEADC
:10941000C12343F0004343EA505323FA02F070475C
:109420004FF00000704750EA013002D14FF0FF309A
:1094300070474FF0000070474FEA4102B2F1E0433D
:1094400024BFB3F5001CDCF1FE5C0DD901F0004C2B
:109450004FEAC0024CEA5070B2F1004F40EB83007B
:1094600008BF20F00100704711F0804F21D113F1A7
:109470003872BCBF01F00040704741F480114FEAE0
:109480005252C2F11802C2F1200C10FA0CF320FA69
:1094900002F018BF40F001004FEAC1234FEAD32386
:1094A00003FA0CFC40EA0C0023FA02F34FEA4303F0
:1094B000CCE77FEA625307D150EA01331EBF4FF079
:1094C000FE4040F44000704701F0004040F0FE4094
:1094D00040F40000704700BFD0B50C4B0022064698
:1094E0000F46FFF7D9FCFFF787FF0446FFF75AFC4A
:1094F000074B0022FFF7D0FC02460B4630463946A8
:10950000FFF712FBFFF778FF2146D0BD0000F03DCA
:109510000000F04110B50C4641690369826986B0CC
:1095200001F26C71049101680391416802918168B4
:109530000191C1680091074903EB43030B440649BD
:1095400002EB42020A4420460449FDF76BFE204626
:1095500006B010BDBEC00D00A9C00D0089C00D0031
:10956000002100F0FBBE0A22002100F07DBF0000B8
:1095700010B5054C13462CB10A4601460220AFF344
:10958000008010BD2046FCE70000000038B5074B06
:109590001D68EB6B04461BB92420FDF72BFEE86326
:1095A000E96B2046BDE83840FDF77CBED0DC0320E7
:1095B0000A44914200F1FF3300D1704710B511F811
:1095C000014B03F8014F9142F9D110BD884210B50B
:1095D00001EB020402D98442234607D8431EA1426C
:1095E00008D011F8012B03F8012FF8E702440146D7
:1095F0008A4200D110BD13F8014D02F8014DF7E782
:1096000002440346934200D1704703F8011BF9E777
:1096100038B50D4B1D68AB6B04467BB91820FDF7C0
:10962000E9FD0A4A0A4BA863C0E90023094B83609D
:109630000B23838101220023C0E90423AB6B0022AA
:109640001C615A6138BD00BFD0DC03200E33CDABA6
:1096500034126DE6ECDE050010F8012B11F8013B29
:10966000012A28BF9A42F7D0D01A7047034611F852
:10967000012B03F8012B002AF9D17047024B014658
:10968000186800F003B800BFD0DC032037B50446EB
:1096900008460D4600F00FF8421C11462046019284
:1096A000FDF7D8FD044618B1019A2946FFF780FF5F
:1096B000204603B030BD034613F8012B002AFBD12E
:1096C000181A0138704710B56AB10139841810F8BA
:1096D000013B11F8012F934203D1A04201D0002B8E
:1096E000F5D1981A10BD1046FCE710B501390346B4
:1096F00032B111F8014F03F8014B013A002CF7D1B8
:109700001A440021934200D110BD03F8011BF9E770
:1097100070B504460D4645EC104B164601F01AFD97
:1097200051EC100B7EB1C5F30A53C3F16B03002B50
:1097300009DD1B0503F17F55002405F54015224680
:109740002B46FFF7A9FB70BD2DE9F04FA3B01F46D4
:1097500000231E93A44B19921B68079304461846D6
:109760008846FFF7A8FF4FF0000A05464FF0000BB0
:10977000CDF874801D9B1A782B2A4CD039D80D2A2D
:1097800032D8082A32D8002A3CD000230E931D9EDE
:109790003378302B40F0B480737803F0DF03582B1C
:1097A0006CD10E9B01931EAB029700938F4A1FABA7
:1097B0001DA9204600F0CAFE10F00707054605D097
:1097C000062F2AD1013600231D960E93199B002BDC
:1097D00040F096850E9BDBB152460BF1004343EC03
:1097E000102B23B0BDE8F08F202ACED101331D937A
:1097F000C0E72D2AC9D101220E925A1C1D925B7816
:10980000002BC4D1199BCDF87480002B40F07685D5
:1098100052465B46E3E70022EEE71E9A3AB1352155
:1098200020A801F096FD1E99204601F0CBF9013FDA
:10983000052F07D8DFE807F00E0B181D0E034FF0B9
:10984000000BDA462807C1D54BF0004BBEE7DDE937
:1098500020ABF7E7DDE920A31F9A23F4801302F27F
:10986000334243EA025BEDE7DFF884B14FF0000AD0
:10987000E8E76FF0004B4FF0FF3AE3E71D9B5A1CFF
:109880001D925B78302BF9D0002B9FD001234FF035
:10989000000904931D9B0A93CDF824904F460A2299
:1098A0001D980678A6F13003D9B209292AD907995B
:1098B0002A46FFF708FF98B3002033463D4607903D
:1098C0000246652B01D0452B18D11DB9049B0343DB
:1098D00098D00025DDF8748008F101031D9398F8F5
:1098E00001302B2B75D02D2B7BD04FF0000CA3F12A
:1098F0003001092940F28280CDF8748000269DE075
:109900000023C4E7082FD8BF099900F10100DABF8E
:1099100002FB0133099302FB093901371D90BFE7B0
:109920001D9B5A191D925B5D002F37D007903D4655
:10993000A3F13002092A12D90122C2E71D9B5A1C49
:109940001D925B780130302BF8D0A3F13102082A48
:1099500000F2DB841D9A079000200A920546303BF6
:1099600000F1010214D00799114407912A4600EB37
:10997000050E0A21724513D12A18082A05F101059E
:1099800005441CDC09990A2202FB013309930022D9
:109990001D9B591C1D915B781046C9E73846D2E7DC
:1099A000082A04DC099E4E4309960132E2E702F1DF
:1099B000010CBCF1100FD8BF01FB09F9F5E7102D20
:1099C000DCBF0A2202FB0939E1E7002307930122E9
:1099D0007CE74FF0000C08F102031D9398F8023069
:1099E00085E74FF0010CF6E744C20D00F0C00D0012
:1099F0000000F07F1D9B591C1D915B78302BF9D026
:109A0000A3F1310108293FF679AFA3F1300E1D9B78
:109A100008931D9B591C1D915B78A3F13006092EFC
:109A200037D9089E891B082944F61F6602DC764553
:109A3000A8BF7646BCF1000F00D07642002D4FD172
:109A4000049901437FF4C2AE002A7FF4DBAE692B98
:109A500027D024DC492B24D04E2B7FF4D3AE9E4953
:109A60001DA800F0B9FF00283FF4CCAE1D9B1B7869
:109A7000282B2DD1994920AA1DA800F0C1FF052847
:109A800026D1219BDDF880A043F0FF4B4BF4E00B87
:109A90009CE60A2101FB0E3EAEF1300EB9E76E2BBB
:109AA000DBE78F491DA800F097FF00283FF4AAAE1E
:109AB0001D9B8C49013B1DA81D9300F08DFF10B923
:109AC0001D9B01331D93DFF82CB24FF0000A7DE699
:109AD000854801F091FC8DED040BDDE904AB75E6E2
