:02000002D0002C
:1040000000400D00ACD00D00000006000D000501C1
:084010000401BD0B00000000DB
:0440180054B60D008D
:1040200009480A49884208B505D0094A824202D0A7
:10403000121A05F0BDFB0748074A0021121A05F0C5
:10404000DFFB014808BD00BF38D70320C4CD0D00F9
:10405000F4D90320F8D90320F8E7032070B5074E00
:10406000074C04F021FCA41BA4080025A54200D1A4
:1040700070BD56F8043B98470135F7E78CC50D0035
:10408000B8C50D0001F046BA08B500F033FFBDE831
:10409000084004F0CBBB03F0ADB903F0ABB903F0BB
:1040A000B1B9000008B5034A00210C2003F06CF8F8
:1040B000FEE700BFB96E0D000078B0FA80F040094D
:1040C0007047012303707047014B01221A7070473B
:1040D000D1E5032003681847012A03D0022A03D040
:1040E000002070470160FBE70B680360F8E7000001
:1040F00008B5044904F093F818B1034B03221A7071
:10410000012008BDA3B60D009DE5032070B5C2B027
:1041100000680A2201A906F0A7FA431E062B0446EE
:104120002BD80128164B174E08D11877164902A82C
:1041300005F09CFB3470204642B070BD02284FF061
:10414000010507D111495D7702A805F08FFB2C46C8
:104150003570F0E7032802D10D499D77F4E7042874
:1041600002D10C49DD77EFE705280BBF0A490B495F
:1041700083F8205083F82150E6E70024DBE700BFF6
:10418000A0E50320D0E50320A5B60D00B8B60D00CC
:10419000CBB60D00E0B60D00F4B60D0008B70D006B
:1041A00013B50A22006801A906F05EFA0128044648
:1041B00004D104F069F8204602B010BD0024FAE7EB
:1041C000436913B183690C301847704710B5034B2E
:1041D0000360044602F0A2FB204610BD18BE0D008D
:1041E00010B50446FFF7F2FF2046382104F06BFCBF
:1041F000204610BD10B5034B0360044601F0A6FD38
:10420000204610BD40BE0D0010B50446FFF7F2FF7A
:104210002046102104F057FC204610BD13B50021A4
:104220000446084602F0D0FD0023204601A9019370
:1042300002F0E2FD019C0CB1012323710021012059
:1042400002F0C2FD2CB1236820469B6898470023EA
:10425000237102B010BD10B50446006808B103F028
:10426000D1F8204610BD0023042202F0FBBF00005D
:104270001FB5104B104A1B781278104913438DF864
:10428000003000223C2302A803F01EFB039C7CB1FB
:104290006368013B63605BB9236820469B6898476D
:1042A000A368013BA3601BB923682046DB689847DD
:1042B00004B010BDE8DA0320E9DA03201BB70D00D3
:1042C00010B58368044613B103220146984720467F
:1042D00010BD000037B5134B036004468068C8B1B9
:1042E00000256FF00043CDE9003502212B462A4618
:1042F00002F08AFDA068294602F0BEFD237903F092
:10430000FF0513B102F058FDF8E7A068294602F056
:104310006BFDA56004F10C00FFF7D2FF204603B04F
:1043200030BD00BF04BE0D0010B50446FFF7D2FF3C
:1043300020461C2104F0C7FB204610BD0246014860
:1043400003F0CFB9B7760D0007B508220023ADF80A
:1043500000204FF47A710122019241436A461846C7
:10436000ADF8023002F0D6FF03B05DF804FB07B5EC
:1043700080680B46002140B1CDE900210A460321A7
:1043800002F042FDB0FA80F0400903B05DF804FB92
:1043900037B504689DF818508DF800308DF804503A
:1043A000E4683C23A04703B030BD000010B50B7893
:1043B00092B00C467BB9194902A805F057FA0023C0
:1043C0008DF80030164B17491B78174802AAFFF7E3
:1043D000DFFF12B010BD084605F0C5F9C8280ED1A0
:1043E000124902A805F042FA04F0C9F8104B98618E
:1043F000104B01221A70104B00221A70DFE7204682
:1044000005F0B1F9C928EBD0204605F0ACF90B4A0C
:104410000346402102A803F00DF8D0E71DB70D00B8
:10442000E9DA032054B70D00E0E3032025B70D00BF
:10443000A0E50320D0E503200BDB032037B70D00F8
:1044400037B51C49054603F0EAFE044600B31A4C92
:10445000012360686370FFF777FF636817484FF4C4
:104460007A716FF000425943FFF781FF02F01AFFA3
:1044700048B100238DF80030114B124A1B781249C5
:104480001248FFF785FF124B0120187003B030BDB2
:104490001049284603F0C3FE0028F7D0064B5C7095
:1044A00002F000FF0028EED0054B8DF800401B788D
:1044B000094AE4E7A3B60D00A0E50320C0E303200A
:1044C000E9DA032061B70D00F3B70D00E0E3032044
:1044D000D0E5032076B70D0078B70D0010B5C4B055
:1044E00000680A2203A906F0BFF8B0F5966F22D83B
:1044F000124C6060FFF728FF636811484FF47A712F
:1045000059436FF00042FFF732FF63680D4A4FF4E2
:10451000807104A802F08EFF00238DF800300A4B52
:104520000A491B780A4804AAFFF732FF094B012009
:10453000187044B010BD0020FBE700BFA0E50320C9
:10454000C0E303208CB70D00E9DA0320A5B70D0006
:10455000E0E30320D0E5032000B589B0039003F029
:1045600071FE0E4B0399BDEEC00A04A883ED090A43
:1045700003F01EFE00238DF80030094B049A1B78CF
:1045800008490948FFF704FF04A803F0A3FD074BFF
:104590000120187009B05DF804FB00BFA0E50320FE
:1045A000E9DA0320B0B70D00E0E30320D0E50320F3
:1045B00037B51649054603F032FE044688B1144B60
:1045C000144A1549154801245C7200238DF8003007
:1045D000134B1B78FFF7DCFE124B20461C7003B018
:1045E00030BD1149284603F01AFE0028F7D0084BC9
:1045F0000E4A5C720A4B8DF800401B78064907484A
:10460000FFF7C6FE074B01201870E8E7A3B60D00C0
:10461000A0E50320D2B70D00F3B70D00E0E30320BF
:10462000E9DA0320D0E5032076B70D00E3B70D00EB
:10463000F0B5C5B000680A2203A906F015F8431EBC
:10464000062B04464FF0000539D801281D4B1E4F9C
:104650001E4E10D11E491D7704A805F007F93B78BE
:104660001C491D488DF8005004AAFFF791FE3470D4
:10467000204645B0F0BD02280ED118495D7704A848
:1046800005F0F4F83B78134913488DF8005004AA5C
:10469000FFF77EFE0124EAE7032802D110499D7747
:1046A000EDE7042802D10F49DD77E8E705280BBFC5
:1046B0000D490E4983F8205083F82150DFE72C463E
:1046C000D6E700BFA0E50320E9DA0320D0E5032008
:1046D000F8B70D000CB80D00E0E303201AB80D0088
:1046E0002EB80D0044B80D0059B80D006EB80D007D
:1046F00000B5C5B000680A2203A905F0B5FF04287B
:1047000018D80D4B0D4A98624FF48071034604A8E7
:1047100002F090FE00238DF80030094B09491B7808
:10472000094804AAFFF734FE084B0120187045B071
:104730005DF804FB0020FAE7A0E5032082B80D0035
:10474000E9DA0320F3B70D00E0E30320D0E503200E
:1047500007B502F0A7FD48B100238DF800300F4BDC
:104760000F4A1B780F491048FFF712FE0F4A1048F6
:104770007823536040F20113138000230121537208
:1047800093724FF41673C2E909313023117782F81E
:10479000201003B05DF804EB01F093BBE9DA0320CD
:1047A00094B80D00F3B70D00E0E30320A0E503206B
:1047B000B0E3032007B502F075FD48B100238DF882
:1047C00000300C4B0C4A1B780C490D48FFF7E0FDFC
:1047D0000C4A0D4B0D490E48136053609360D36033
:1047E00011615361A021182303B05DF804EB01F0BF
:1047F00068BB00BFE9DA0320ACB80D00F3B70D00C9
:10480000E0E3032038E40320CDCCB54200C02644C9
:10481000B0E3032010B5154C237A012B04D902F024
:1048200041FD00B3012323726368114AB3F5966F0B
:1048300084BF4FF416736360637A012B84BF012336
:104840006372A37A012B84BF0023A3726369FF2BD9
:1048500084BF00236361A36A052B4FF0010313702B
:1048600088BFA36210BD2072DEE700BFA0E5032071
:10487000D0E50320334BD3ED007AF5EEC07AF1EEAC
:1048800010FA06D49FED307AF4EEC77AF1EE10FA02
:1048900001DD2E4A1A60D3ED017AF5EEC07AF1EE11
:1048A00010FA06D49FED287AF4EEC77AF1EE10FAEA
:1048B00001DD264A5A60D3ED027AF5EEC07AF1EEB8
:1048C00010FA06D49FED207AF4EEC77AF1EE10FAD2
:1048D00001DD1E4A9A60D3ED037AF5EEC07AF1EE5F
:1048E00010FA06D49FED187AF4EEC77AF1EE10FABA
:1048F00001DD164ADA60D3ED047AF5EEC07AF1EE06
:1049000010FA06D49FED107AF4EEC77AF1EE10FAA1
:1049100001DD0E4A1A61D3ED057AF5EEC07AF1EEAB
:1049200010FA06D49FED087AF4EEC77AF1EE10FA89
:1049300001DD064A5A61034A05481823A02101F007
:10494000C0BA00BF38E4032000803B45ECD1B5423B
:10495000B0E3032007B50121052004F03EF8002153
:10496000052004F03AF8094A00231370084A527AE5
:1049700042B18DF80030074B074A1B7807490848B9
:10498000FFF706FD03B05DF804FB00BFD1E503208F
:10499000A0E50320E9DA0320CBB80D00D2B80D0062
:1049A000E0E3032010B5584B584C9B6A012BADF542
:1049B0000C7D43D1606904F017FBCDE90A01206941
:1049C00004F012FBCDE90801E06804F00DFBCDE92D
:1049D0000601A06804F008FBCDE90401606804F05A
:1049E00003FBCDE90201206804F0FEFACDE90001E5
:1049F000474A4FF400710CA802F01CFD00238DF80B
:104A00000030444B44491B7844480CAAFFF7C0FCD3
:104A10002368A3616368E361A3682362E368636258
:104A20002369A3626369E3623D4B01221A7002F0BD
:104A30004BFA3C4B18600DF50C7D10BD022B1FD1BD
:104A4000206D04F0D1FACDE90A01E06C04F0CCFA53
:104A5000CDE90801A06C04F0C7FACDE90601A06B0E
:104A600004F0C2FACDE90401606B04F0BDFACDE9AF
:104A70000201206B04F0B8FA2B4ACDE90001B8E737
:104A8000032B1FD1606904F0AFFACDE90A01206958
:104A900004F0AAFACDE90801E06804F0A5FACDE92E
:104AA0000601A06B04F0A0FACDE90401606B04F0EC
:104AB0009BFACDE90201206B04F096FA1B4ACDE97E
:104AC000000196E7042B99D1606904F08DFACDE9D5
:104AD0000A01206904F088FACDE90801E06E04F0CB
:104AE00083FACDE90601A06E04F07EFACDE9040157
:104AF000606E04F079FACDE90201206E04F074FAD8
:104B00000B4ACDE9000174E7A0E5032050E403203F
:104B1000DBB80D00E9DA0320E7BA0D00E0E303207B
:104B20000BDB0320D4E503205DB90D00E1B90D00D6
:104B300064BA0D0030B5114D114C12492A78207815
:104B40008DB01A2303FB0212009203FB00130E4ADE
:104B5000282102A802F06EFC2B78237002F0A2FB41
:104B600048B100238DF80030084B09491B780948EB
:104B700002AAFFF70DFC0DB030BD00BF9DE503207C
:104B8000DCE3032048D70320FCBA0D00E9DA032058
:104B90000ABB0D00E0E3032030B50D4D0FCD89B009
:104BA00001AC0FC495E807000A4B84E807001B7CA2
:104BB000094808AA02EB8303102153F81C3C074A5A
:104BC00002F038FC064B01221A7009B030BD00BF5C
:104BD00054BE0D00A0E50320EADA032030BF0D002B
:104BE000D0E503202DE9F04F4FEA800909F10704D1
:104BF00083B004F4FF6402AFADEB040D02ADAC462C
:104C00004FF0000E4CF804EB023800282ADADFF8E7
:104C100068B0DFF868A00C4690461E46A9444D4592
:104C200024D0D4E902018DE80300584694E80C0032
:104C300000F0A2FF51EC100B04F0FEFC48F8040B4E
:104C400045F8040B04F0D0F9DAE9002304F024FA63
:104C5000084B002204F04AFB04F0EEFC103446F846
:104C6000040BDCE74CF804EB0138CEE70437BD4613
:104C7000BDE8F08F00408F4000DA032040D70320CA
:104C800070B5904C904D002384F88830FFF784FF76
:104C9000A86A01284AD12B7F4BB18C484FF4B961E7
:104CA00000F0EAFF51EC100B04F0C6FC20606B7FB3
:104CB0004BB187484FF4B96100F0DEFF51EC100BA7
:104CC00004F0BAFC6060AB7F4BB182484FF4B9612D
:104CD00000F0D2FF51EC100B04F0AEFCA060EB7FB3
:104CE0004BB17D484FF4B96100F0C6FF51EC100B99
:104CF00004F0A2FCE06095F820304BB177484FF407
:104D0000B96100F0B9FF51EC100B04F095FC206183
:104D100095F82130EBB172484FF4B96100F0ACFF67
:104D200051EC100B04F088FC606112E0022840F0A6
:104D30008B806C4904F13C0304F130020320FFF73F
:104D400051FF694904F1540304F148020320FFF7BD
:104D500049FFD4ED007A94ED067A644EF5EEC07A00
:104D6000F1EE10FAD8BFF1EE677A37EEC77AF7EEB8
:104D7000087AB4EEE77A0122F1EE10FA327059DACD
:104D800094ED017AD4ED076AB5EEC07AF1EE10FA2F
:104D9000D8BFB1EE477A37EE667AB4EEE77AF1EE35
:104DA00010FA47DA94ED027AD4ED086AB5EEC07ACB
:104DB000F1EE10FAD8BFB1EE477A37EE667AB4EE6C
:104DC000E77AF1EE10FA35DA94ED037AD4ED096A58
:104DD000B5EEC07AF1EE10FAD8BFB1EE477A37EEF1
:104DE000667AB4EEE77AF1EE10FA23DA94ED047AFB
:104DF000D4ED0A6AB5EEC07AF1EE10FAD8BFB1EE82
:104E0000477A37EE667AB4EEE77AF1EE10FA11DA05
:104E100094ED057AD4ED0B6AB5EEC07AF1EE10FA96
:104E2000D8BFB1EE477A37EE667AB4EEE77AF1EEA4
:104E300010FA44DB012584F8885003F0A0FB35709C
:104E4000C4F88000284670BD03282AD104F13C0331
:104E5000244904F13002FFF7C5FEEB7FF3B11E4891
:104E60004FF4B96100F008FF51EC100B04F0E4FBC3
:104E7000E06095F82030FBB118484FF4B96100F0BC
:104E8000FBFE51EC100B04F0D7FB206195F82130AC
:104E9000002B7FF440AF002363615AE70023E360F7
:104EA000E7E704287FF455AF114904F1700304F1DA
:104EB0006002FFF797FEDCE700232361E6E70020AE
:104EC000C1E700BF50E40320A0E5032060DF03201A
:104ED00018E00320D0E0032088E1032040E2032013
:104EE000F8E2032088DA0320B8DA0320DCE40320A8
:104EF00048DA032037B5754C2378013B052B17D8CA
:104F0000DFE803F0BE035C68428B714B5B7A2BB128
:104F1000704B1B78022B01D0FFF70CFE03F02FFB28
:104F20000A2390FBF3F202FB13030BB90523237052
:104F3000694801F0A3FB694B1B780BB1FFF70AFD31
:104F4000674C23783BB13023614A6648012100F069
:104F5000B8FF00232370644C237843B18C23634A49
:104F600060484FF4007100F0ACFF00232370604CE8
:104F700023783BB118235F4A5A48A02100F0A1FFD3
:104F80000023237003B030BD514D6A7A2AB1514BD2
:104F90001B78052B01D0FFF7CDFDFFF771FE08B19F
:104FA0000423C4E703F0EBFA6B6A90FBF3F202FB15
:104FB00013030BB90323BAE70223B8E7444B5B7A28
:104FC0002BB1444B1B78032B01D0FFF7B3FDFFF748
:104FD00057FEE5E73E4B5B7A2BB13E4B1B78042B2B
:104FE00001D0FFF7A7FD02F05DF968B103F0D8FA30
:104FF0000C2805D102F056F910B1002002F072F928
:10500000FFF7D0FC062392E702F044F90223237055
:1050100001F05AFF384B18608AE72D4B5B7A2BB1B1
:105020002C4B1B78062B01D0FFF784FD334B1B78EC
:1050300043B903F0A4FA0A2390FBF3F202FB130333
:10504000002BB9D001F040FF2D4B1B68C01A4AF667
:10505000C87398427FF66CAF01F036FF264D294A9F
:10506000286000238DF80030274B28491B782848FA
:10507000FFF78EF90123237001F026FF286057E720
:10508000144B1B78012B01D0FFF754FD01F01CFFDE
:10509000194B1B6803F5922303F578738342BFF421
:1050A00047AF02F0FFF848B100238DF80030164BEF
:1050B000184A1B7818491648FFF76AF94FF4FA6046
:1050C00002F000FA03F0E0F832E700BF9DE50320AC
:1050D000A0E50320DCE303201CE40320D1E503204A
:1050E000D0E50320B0E30320DCE4032050E40320F8
:1050F0000ADB032038E4032018E403200BDB032041
:10510000D4E50320DCC20D00E9DA03201BBB0D004F
:10511000E0E3032034BB0D0048BB0D002DE9F84F40
:10512000444CDFF83CB12068DFF838A1DFF8389153
:10513000DFF83881404F414E414D03F055FF41ECBF
:10514000100B9BF800103F4800F08AFD606803F0E8
:105150004BFF41EC100B9AF800103B4800F080FD2B
:10516000A06803F041FF41EC100B99F8001037489C
:1051700000F076FDE06803F037FF41EC100B98F883
:105180000010334800F06CFD206903F02DFF41EC66
:10519000100B39782F4800F063FD606903F024FF9D
:1051A00041EC100B31782C4800F05AFD206803F0D8
:1051B0001BFF41EC100B9BF80010284600F050FD3F
:1051C000606803F011FF41EC100B9AF8001005F134
:1051D000B80000F045FDA06803F006FF41EC100B9D
:1051E00099F8001005F5B87000F03AFDE06803F09A
:1051F000FBFE41EC100B98F8001005F50A7000F06A
:105200002FFD206903F0F0FE41EC100B397805F515
:10521000387000F025FD606903F0E6FE41EC100BEC
:10522000317805F5667000F01BFD0C4B01221A70F9
:10523000BDE8F88F38E403203CD703203DD7032096
:1052400010DB032060DF032018E00320D0E0032000
:1052500088E1032040E20320F8E203200ADB032078
:1052600038D7032039D703203AD703203BD7032070
:1052700013B5224C206803F0B7FE214ACDE90001A6
:105280002021204802F0D6F8606803F0ADFE1E4AE7
:10529000CDE9000120211D4802F0CCF8A06803F000
:1052A000A3FE1B4ACDE9000120211A4802F0C2F8F2
:1052B000E06803F099FE184ACDE900012021174863
:1052C00002F0B8F8206903F08FFE154ACDE900011D
:1052D0002021144802F0AEF8606903F085FE124AFE
:1052E000CDE900012021114802F0A4F8FFF716FFD4
:1052F0000F4B01221A7002B010BD00BF38E403202A
:105300004EBB0D001DE503205CBB0D007DE50320B9
:1053100069BB0D005DE5032079BB0D00FDE40320B2
:1053200096BB0D00DDE40320B3BB0D003DE503207B
:105330000ADB032000B589B0039002F083FF0D4B18
:10534000039983ED000A04A802F032FF00238DF8D0
:105350000030094B049A1B7808490948FFF718F8F0
:1053600004A802F0B7FEFFF783FF012009B05DF843
:1053700004FB00BF38E40320E9DA0320CFBB0D00B3
:10538000E0E3032000B589B0039002F05BFF0D4B12
:10539000039983ED010A04A802F00AFF00238DF8A7
:1053A0000030094B049A1B7808490948FEF7F0FFC2
:1053B00004A802F08FFEFFF75BFF012009B05DF843
:1053C00004FB00BF38E40320E9DA0320EABB0D0048
:1053D000E0E3032000B589B0039002F033FF0D4BEA
:1053E000039983ED020A04A802F0E2FE00238DF87F
:1053F0000030094B049A1B7808490948FEF7C8FF9A
:1054000004A802F067FEFFF733FF012009B05DF842
:1054100004FB00BF38E40320E9DA032005BC0D00DB
:10542000E0E3032000B589B0039002F00BFF0D4BC1
:10543000039983ED030A04A802F0BAFE00238DF855
:105440000030094B049A1B7808490948FEF7A0FF71
:1054500004A802F03FFEFFF70BFF012009B05DF842
:1054600004FB00BF38E40320E9DA032022BC0D006E
:10547000E0E3032000B589B0039002F0E3FE0D4B9A
:10548000039983ED040A04A802F092FE00238DF82C
:105490000030094B049A1B7808490948FEF778FF49
:1054A00004A802F017FEFFF7E3FE012009B05DF843
:1054B00004FB00BF38E40320E9DA03203EBC0D0002
:1054C000E0E3032000B589B0039002F0BBFE0D4B72
:1054D000039983ED050A04A802F06AFE00238DF803
:1054E0000030094B049A1B7808490948FEF750FF21
:1054F00004A802F0EFFDFFF7BBFE012009B05DF844
:1055000004FB00BF38E40320E9DA03205ABC0D0095
:10551000E0E303202DE9F04700219AB0082003F0D2
:105520004BFA0121052003F047FAFFF713FA002395
:10553000009301224FF0FF33A649082002F004FC3B
:10554000A54B0AAA03F110051746186859681446B6
:1055500003C40833AB422246F7D119889B78A37065
:105560002D2221800DF13B0000219C4C9C4D0026FA
:1055700004F046F902A8267001F09CFE02A906A8D4
:1055800002F016FE974906A802F034FECDE9006647
:10559000334632469449006801F09CFE06A802F0AA
:1055A00099FD02A802F096FD90499148FEF75BFE36
:1055B00090499148FEF757FE90499148FEF753FEF7
:1055C000904991483346022201F04CFE33460122B5
:1055D0008E498F4801F046FE8E498F48FEF743FE04
:1055E0008E498F48FEF73FFE8E498F48FEF73BFEFF
:1055F0008E498F48FEF737FE8E498F48FEF733FEFF
:105600008E498F48FEF72FFE8E498F48334602227F
:1056100001F028FE334602228C498D4801F022FE1B
:105620008C498D48FEF78AFE8C498D48FEF786FE30
:105630008C498D48FEF782FE8C497548FEF77EFE48
:105640008B498C48FEF77AFE8B498C48FEF776FE34
:105650008B498C48FEF772FE8B498C48FEF76EFE34
:105660008B498C48FEF76AFE8B498C48FEF766FE34
:105670008B498C48FEF762FE8B498C48FEF75EFE34
:105680008B498C48FEF75AFE8B498C48FEF756FE34
:105690008B498C48FEF752FE8B4800F0E9FE3146FC
:1056A000894801F022F8894800F07EFB01238748F1
:1056B00006AA314600F0BAFB9DF81830162B45D0EB
:1056C000824800F07BFB824A80480423314600F088
:1056D000F8FB01237D4806AA314600F0A7FB9DF8A0
:1056E0001830162B24D001232370FFF7C3F8FFF7DF
:1056F00091F8FFF713FD6B78002B4BD0002001F0E1
:10570000F3FB4FF0000A0646002001F0EDFBB0EB82
:10571000060861EB0A09002347F22F524B4508BFE8
:10572000424529D301F0BEFD30BB01F0ABFDEBE7F4
:10573000684B8DF800601B78674A68496848FEF737
:1057400027FEFFF705F8FFF735F8CEE7614B8DF838
:1057500000601B78604A63496148FEF719FE624A9F
:105760005A481823A02100F061FB30232A4601216A
:10577000564800F05BFBB8E701F094FD6868FEF75F
:10578000E3FD6B6859484FF47A716FF0004259435A
:10579000FEF7EDFDFFF76CFDFFF772FA6B7A4BB188
:1057A00000238DF800304B4B51491B784C483A464A
:1057B000FEF7EEFD01F076FD10B901F063FDF9E7AB
:1057C00001F070FD23780BB9022323701AB0BDE8F5
:1057D000F08700BFC9400D0070BE0D009DE503209D
:1057E000A0E5032075BC0D00AD430D00B0BE0D005B
:1057F0009ABC0D00FADA0320A2BC0D00EADA0320FD
:10580000AABC0D00A4E50320B9BC0D00A1E503204E
:1058100068B70D001DE5032007BD0D007DE50320E1
:1058200018BD0D005DE5032029BD0D00FDE403203A
:105830003CBD0D00DDE403204EBD0D003DE5032021
:1058400060BD0D00C4E50320C8BC0D00C8E5032001
:10585000DBBC0D00F1400D00EABC0D00B1450D00B0
:10586000F6BC0D00DD440D00A5B70D0041440D0050
:1058700035530D0003BD0D0085530D0014BD0D0003
:10588000D5530D0025BD0D0025540D0038BD0D006C
:1058900075540D004ABD0D00C5540D005CBD0D00D2
:1058A0000D410D006DBD0D0031460D007BBD0D009D
:1058B000F1460D008ABD0D0059450D0099BD0D0042
:1058C000A1410D00B5BD0D001CE40320B0E3032091
:1058D000B8BE0D00E9DA0320C3BD0D00CEBD0D003A
:1058E000E0E30320DFBD0D0038E40320C0E3032024
:1058F000F1BD0D002DE9F04F7C4B7D4D7D4F2DED21
:10590000068B01261E707C4B022289B01A7002F0B1
:10591000FDFF00231A4642F6D65102F0FFFF02F0C7
:10592000F5FF00231A460921002402F0FFFF734B04
:10593000AB602C60AC80AC71304601F03DFC3A4667
:105940006F49284603F0BAF82146304601F044FC7E
:105950003146042001F098FA03F088F8694D0146B9
:1059600023464FF40052284600F014FA664B2B6091
:105970003A466649284603F0A1F803F077F8644DEB
:105980000146284600F07CFC2846624D62493A46B2
:1059900003F094F861494FF40062284601F0E6F8FC
:1059A0005F4B2B603A465F49284603F087F85E4B11
:1059B00004930DF110085D4D5D4B2B6098E80300DA
:1059C00002AA05F10C0382E8030093E8030088E8CB
:1059D000030092E8030083E80300564B6B61AB6958
:1059E0000793554B2C71AC60AB61544A06942B461F
:1059F000CDE900444FF47A7105F1080001F0ECF9AB
:105A00004046FEF75DFC3A464D49284603F056F8FD
:105A10004C4D4D4BAC639E62C5E90C44C5E90F4447
:105A2000C5E91244C5E915446C642C65EC65214652
:105A3000102205F1600003F0E3FE1022214605F17B
:105A4000700003F0DDFE414B414C424D93F8009055
:105A5000C4F80090286803F0C7FA3F4B93F8008021
:105A6000C4F8108041EC1A0BC4E90201686803F025
:105A7000BBFA3A4B1F78276241EC190BC4E90601C7
:105A8000A86803F0B1FA364BC4E90A01354C1E7818
:105A9000266041EC180BE86803F0A6FA324B824608
:105AA0001B7823618B46C4E902AB286903F09CFA9A
:105AB0002E4B1B782362C4E90601686903F094FA4F
:105AC0002B4BC4E90A0183ED02AB83ED069B83ED0A
:105AD0000A8BC3E90EABC3F80090C3F810801F62B5
:105AE0001E6309B0BDEC068BBDE8F08FE9DA032038
:105AF00038DA0320F8D90320E8DA03200000FFFF9A
:105B000057420D00B0E3032040BE0D00F5410D00EB
:105B10001CE40320E0E303200B600D0000F40320ED
:105B200018BE0D00CD410D0071420D00C0E30320F1
:105B300004BE0D00D9400D00D5400D001D420D00E2
:105B4000D5420D0050E40320A0E5032038D7032000
:105B500088DA032038E4032039D703203AD703201A
:105B60003BD70320B8DA03203CD703203DD70320DE
:105B700048DA03200000000082B02DE9F84F0AA99E
:105B800081E80C00344BDFF8D4B00022C0E90423D4
:105B9000044640F27E654FF0000ABDF8280002F08E
:105BA00035FFD4E90489206003F00CFA42464B46E5
:105BB00006460F4603F0B8F852465B4603F06CFA0F
:105BC00042464B4603F0B2F802460B46C4E90423B2
:105BD0003046394603F0A8F802460B46C4E90223D2
:105BE00003F05AFA02460B46C4E90623D4E9082317
:105BF00003F09CF8013D06460F46C4E90867CCD186
:105C0000DDE90C0110A3D3E9002303F045FA10A34A
:105C1000D3E90023804689463046394603F066FBC7
:105C200041EC100B02F058FF00220023C4E90823C6
:105C300051EC100B42464B4603F02EFABDE8F84FEC
:105C400041EC100B02B070476666666666664A3FB6
:105C50000000000000F899400000A0400000303F24
:105C6000034BC162002280ED0E0BC0E91C2370477C
:105C70000000A040000000002DE9F74FDFF8C8B099
:105C80000191044600254FF0000A019B9D422FD050
:105C9000A08D02F0BBFED4E91C89E06403F092F908
:105CA00042464B4606460F4603F03EF852465B46D8
:105CB00003F0F2F942464B4603F038F802460B4631
:105CC000C4E91C233046394603F02EF802460B4641
:105CD000C4E9182303F0E0F902460B46C4E9242383
:105CE000D4E9260103F022F80135C4E92601CCE706
:105CF00013A3D3E90023D4E90E0103F0CDF906463E
:105D000028460F4603F04EF902460B46D4E9260119
:105D100003F0ECFA41EC100B02F0DEFE32463B469B
:105D200051EC100B03F0B8F941EC100B00220023EA
:105D3000C4E90801C4E9262303B0BDE8F08F00BF21
:105D40006666666666664A3F0000503F704710B55B
:105D50001021044602F0B7FE204610BD0368C9B208
:105D60009B6818470EB410B58DB00FAA016852F8A1
:105D7000044B039200232020CDE90403CDE9004227
:105D80001E2004AA01F008FA0DB0BDE8104003B0CF
:105D90007047000030B5034DC0E90223C0E900514F
:105DA00030BD00BFF0BE0D00406801F07FBF10B5F0
:105DB0000446006801F0BDFF204610BD2DE9F0410A
:105DC0008AB004464068019001F0AAFF1E2200211B
:105DD00002A8A76803F014FD0026EFB123681E2F68
:105DE000B84628BF4FF01E08DD6802AA4346314678
:105DF0002046A847054658B90A480B493246FFF7DE
:105E0000B1FF01A8FFF7D3FF28460AB0BDE8F08133
:105E1000A7EB08074644E0E701A8FFF7C8FF012504
:105E2000F2E700BF1CE60320BCBE0D002DE9F743DE
:105E30000446406801900D4616461F4601F070FF6B
:105E4000A7B1E168606841F0500101F062FF290AE2
:105E50006068FFF783FF29466068FFF77FFF60688F
:105E6000002101F059FF48B1002400E0012401A8FD
:105E7000FFF79DFF204603B0BDE8F083202F217B74
:105E80006068B84628BF4FF020080123424641F021
:105E9000500101F028FF02F0E9FD03681B699847F3
:105EA0004045E1DB06EB080902F0E0FD03685B69B1
:105EB000984706F8010B4E45F6D14544A7EB080775
:105EC000BEE72DE9F74F0446406801900E46904624
:105ED0001D4601F025FF4FF00109B9F1000F2AD04E
:105EE0004DB3E168606841F0500101F012FF310AE2
:105EF0006068FFF733FF60683146FFF72FFFA5F1B9
:105F00001E0A4746A6EB080B606817F8011B0368DA
:105F1000013D9B68984755450BEB0706B84601D0F5
:105F2000002DF1D16068012101F0F6FE0028D7D0E4
:105F30004FF00009D1E701A8FFF739FF484603B049
:105F4000BDE8F08F2DE9F0438BB00E461546804634
:105F5000406801901C4601F0E3FEAE4229D226447F
:105F600025448CB11E2C2746D8F8003028BF1E27A8
:105F7000F61BD3F8089002AA3B4631464046ED1B7B
:105F8000C84748B9002400E0012401A8FFF70FFF2B
:105F900020460BB0BDE8F083D8F8003002AAD3F851
:105FA0000C9029463B464046C8470028EAD0E41BEF
:105FB000D7E7E9D9002CE7D0D8F800301E2C2746C7
:105FC00028BF1E27D3F8089002AA3B463146404618
:105FD000C8470028D6D0D8F8003002AAD3F80C90D1
:105FE00029463B464046C8470028CBD03E443D4466
:105FF000E41BDFE740207047002070478020704797
:10600000FF207047704770477047704710B51421E4
:10601000044602F058FD204610BD10B50821044684
:1060200002F051FD204610BD10B50821044602F0D3
:106030004AFD204610BD10B51C21044602F043FD68
:10604000204610BD2DE9FF410368DB6804469847F0
:1060500010220146684603F0D3FB236820469B6864
:106060009847002507462846BD420ED27E1B23686E
:10607000102E28BF1026D3F818806A4633462946CA
:106080002046C04708B13544EEE704B0BDE8F081D2
:106090004FF48073438140F20113C36000230382F5
:1060A0007047000008B5064B0360064B436040F2A2
:1060B0000473038100234374FFF7EAFF08BD00BFA8
:1060C000D0BF0D000001020303090A2200F00F00F7
:1060D00002FB0300704708B5807AFFF7F5FF00F573
:1060E000FA6008BDC07A00F01F00FFF7EDBF007B2B
:1060F00000F03F00FFF7E8BF08B5817B4A060DD5E9
:1061000001F01F00FFF7E0FF8B0603D50C2800D03D
:106110000C3008BD0C2808BF0020FAE7BDE8084095
:1061200001F03F00FFF7D0BFC07B00F07F00FFF71A
:10613000CBBF007C00F07F00FFF7C6BF10B58AB070
:1061400024220446002101A803F05AFB2046FFF751
:10615000C2FFA0F26C7006902046FFF7C3FF013823
:1061600005902046FFF7C3FF04902046FFF7C4FFC9
:1061700003902046FFF7D8FF02902046FFF7D9FF93
:10618000019001A801F096F90AB010BD0A2190FB18
:10619000F1F292FBF1F301FB13231B01DBB201FBD4
:1061A00012001843C0B27047642310B5044691FB37
:1061B000F3F000FB1310FFF7E9FFA07210BD10B55C
:1061C00004460846FFF7E2FFE07210BD10B5044632
:1061D0000846FFF7DBFF237B23F03F0318432073C0
:1061E00010BD10B50446481CFFF7D0FF637B23F0B9
:1061F00007031843607310BD10B504460846FFF747
:10620000C5FFA07310BD10B504460846FFF7BEFFDA
:10621000E07310BD10B504460846FFF7B7FF237CB6
:1062200023F07F031843207410BD37B50446684639
:10623000CDE9002303F0AAFA054641692046FFF79D
:10624000B3FF296920460131FFF7B9FFE96820460D
:10625000FFF7BCFFA9692046FFF7C3FFA9682046E6
:10626000FFF7CAFF69682046FFF7CDFF29683B2981
:10627000A8BF3B212046FFF7CDFF03B030BD000093
:10628000054A0061C0E90021044A8260044AC260F4
:10629000044A80614261704704C00D0000000103A0
:1062A000ACBF0D00E0BF0D002DE9F84F04460F46CE
:1062B0009046994600260A9B9E4231D26068394634
:1062C00001F023FD08EB06016068FFF747FD6068F9
:1062D000002101F021FD0546D0B90A9B60689A1B98
:1062E000202A4FF0010328BF2022394601F0FBFC91
:1062F00009EB060B05460BEB000ADA4506D0606891
:1063000003685B6998470BF8010BF6E72E44D2E768
:10631000024604490448FFF725FD2846BDE8F88FEA
:106320000025FAE704BF0D00D8E503202DE9F3416D
:1063300001EB03081E4603689B6805460C4617469A
:10634000984780450DD82034686800963B46E2B2F5
:106350006F21FFF7A9FFB0FA80F0400902B0BDE855
:10636000F0810020FAE72DE9F34101EB03081E4616
:1063700003689B6804460D461746984780450CD82D
:10638000606800963B46EAB25721FFF78DFFB0FAEE
:1063900080F0400902B0BDE8F0810020FAE77FB547
:1063A0001E1E0CBF072306230093144602AB0A46A9
:1063B0006F21FFF779FF0546A8B99DF808302374CF
:1063C0009DF80930E3739DF80A30A3739DF80B30F4
:1063D00063739DF80C3023739DF80D30E3722EB972
:1063E0009DF80E30A372284604B070BD02F0E4F8A8
:1063F000FFF7CCFEA072F6E71FB501230A46009313
:106400006F2103ABFFF750FF20B99DF80C0005B0DA
:106410005DF804FB0020FAE708B50321FFF7ECFF65
:10642000C0F3401008BD38B500230C460A46194693
:106430000546FFF7B4FF30B9A37A23B12846BDE87B
:106440003840FFF7E9BF002038BD7FB5024601A8FC
:10645000FFF728FE01A91046FFF7E5FF28B101A8C4
:10646000FFF76CFE07B05DF804FB00200146F9E77A
:10647000D0B5044686B0406801F018FC02F062F81E
:10648000E8B9E37A9B071AD52046FFF7DEFF0646F8
:106490000F4656EA070312D001F05BFF0A4B0B4987
:1064A0001B68009332463B4602A802F009F80848F0
:1064B000029A0849FFF756FC02A801F00BFE0123DF
:1064C000237206B0D0BD00BF18D8032048E60320D1
:1064D000D8E503201EBF0D002DE9F84F064688467B
:1064E00091469A4600250A9B9D4229D270684146F2
:1064F00001F00BFC706809EB0501FFF72FFC0A9B0C
:106500005F1B1F2F28BF1F270AEB050407EB040B97
:10651000706814F8011B026892689047A345F7D190
:106520007068012101F0F8FB044638B102460549C4
:106530000548FFF717FC2046BDE8F88F3D44D2E739
:106540000024F8E733BF0D00D8E503202DE9F3411F
:1065500001EB03081E4603689B6805460C46174678
:10656000984780450DD82034686800963B46E2B2D3
:106570006F21FFF7B1FFB0FA80F0400902B0BDE82B
:10658000F0810020FAE71FB5137C8DF80830D37B2B
:106590008DF80930937B8DF80A30537B8DF80B30E2
:1065A000137B8DF80C30D37A8DF80D30937A8DF8FB
:1065B0000E30072300930A4602AB6F21FFF78CFFD2
:1065C00005B05DF804FB10B588B0044603A801933C
:1065D000FFF768FD019B03A8FFF727FE9DF81C301D
:1065E000A27A63F07F038DF81C309DF819306AB1F0
:1065F00043F0080303AA002120468DF81930FFF765
:10660000C2FFB0FA80F0400908B010BD03F0F703F4
:10661000F0E70000F0B587B0054601F093FF0446AF
:10662000E8B101F0ACFFC717024606463B462846D4
:10663000FFF7C9FF0C4B0D491B68009332463B46E0
:10664000044602A801F03CFF0948029A0949FFF7F5
:1066500089FB02A801F03EFD204607B0F0BD0649C7
:106660000348FFF77FFBF7E718D8032048E603202D
:10667000D8E503204EBF0D0064BF0D0037B5457A45
:1066800004469DB901F05EFF80B1002200236946F7
:106690002846CDE9002300F035FE38B1E37ADB0768
:1066A00002D52046FFF7B6FF0123637203B030BD69
:1066B0001FB501238DF80C2000930A4603AB6F2110
:1066C000FFF70AFF05B05DF804FBF8B504460D4678
:1066D00017461E46FFF790FE00EA0702324329469E
:1066E0002046BDE8F840FFF7E3BF012908B50CD804
:1066F00000294FF0000314BFDF22EF220721FFF72C
:10670000E4FFB0FA80F0400908BD0020FCE738B58E
:10671000044632256068572101F0F7FA60680121CC
:1067200001F0FAFA08B1013DF4D138BD2DE9F0418C
:1067300004460F46164602EB0308B04520D06068B9
:10674000572101F0E2FA39466068FFF707FB6068FD
:1067500016F8011B03689B6898476068012101F0E7
:10676000DBFA0137054638B1024606490648FFF70D
:10677000F9FA2846BDE8F0812046FFF7C8FFDCE7BC
:106780000025F6E779BF0D00D8E50320F7B5CF184F
:106790001E46036801929B6804460D46984787424F
:1067A0000AD8019A60683346E9B2FFF7BFFFB0FA32
:1067B00080F0400903B0F0BD0020FBE7014B024A26
:1067C0001A607047D8E503209ABF0D00012A0346DE
:1067D00002D1016000207047022A04BFD1E9000104
:1067E000C3E90001F6E710B501230374836804468A
:1067F00043B1C0689847012363740020BDE810408E
:1068000000F032BB00680028F5D083680BB902F0B5
:1068100060F9C368EEE710B442680346541001EB18
:106820006200D20748BF0A591B685DF8044B48BF95
:10683000D35818470123F7B580F8293006460830A9
:1068400000F0EAFA0420FDF726FC054698B31B4940
:10685000142002F03AF930B10023C0E90033C0E956
:106860000233037443742860A0B1154B1549C0E985
:1068700002364FF40063CDE900030222124B0430CC
:1068800000F092FA30B92B681B7CA3B9012000F00C
:106890000BFBF8E72C6800232B6064B1276837B145
:1068A0003846FDF70DFD1021384602F00CF9142191
:1068B000204602F008F9756003B0F0BDB4C20D00C7
:1068C000D36A0D000CC00D00E7670D0047F2305190
:1068D000084AC160084902600022C0E90412074961
:1068E000C16107494260C0E908228161028580F8E0
:1068F0002A207047D0C00D003D6C0D0017680D00B8
:10690000CD670D0010B5044B044640F8103BFDF771
:10691000D7FC204610BD00BFD0C00D0010B5034B02
:1069200003600446FFF7EEFF204610BDF8C00D00DF
:1069300010B50446FFF7F2FF2046382102F0C3F8F5
:10694000204610BD806800F06FBA806800F074BA0D
:1069500010B504460068FFF7F8FF204610BD13B5D8
:1069600004460190FFF7EEFFE36ADC88A4B20CB1A5
:1069700003F1080401A8FFF7EBFF204602B010BDA9
:1069800013B504460190FFF7DDFF94F8283043B9B2
:10699000E26A0124D38001A8FFF7DAFF204602B0A3
:1069A00010BD0024F7E713B504460190FFF7CAFFB6
:1069B000E36A01A8DC88FFF7CBFF204602B010BDD8
:1069C0002DE9F047994686B090F829309DF838A017
:1069D0009DF83C8004460F46164613B903689B6831
:1069E0009847314B3846002E08BF1E4602F063FF21
:1069F0000546304602F05FFF284400F10A05AB0768
:106A00001CBF25F0030504353346CDE90285CDE9E9
:106A1000009A264926483A46FFF7A4F9238E083BF8
:106A2000AB4212D20024204606B0BDE8F087CB88E6
:106A3000012B36D005A8FFF78BFF236894F82810A8
:106A40009B69204698470028ECD020460594FFF724
:106A500079FFE16A228E636B0A44D21AAA42E6D316
:106A600048EA0A0883F80480C3F80090636B03F1D6
:106A700008083946404602F0F9FE404602F01BFF86
:106A800001303146404402F0F1FE636BE26A1D447E
:106A90006563D3880133D380012405A8FFF758FF2D
:106AA000C1E70024F9E700BFDCC20D001EC00D00E5
:106AB000DCE5032008B5044600F11005A3690BB915
:106AC00002F007F8E36921462846984700F074F978
:106AD000F4E708B5FFF7EEFF68B501F108050646D3
:106AE000284602F0E8FE01300544284602F0E3FEA5
:106AF000F36A01302844C31A13F003031CBFC3F127
:106B00000403C01868BDF7B504460E460190FFF7B0
:106B100019FFE76AFB8807F10805E6B1012B22D9C6
:106B200029462046FFF7D8FF054629462046FFF7AD
:106B3000D3FF228E3A44121A0146A0EB050602D07A
:106B4000284602F043FE636B9B1B6363FB88013B9B
:106B5000FB80012601E0002BE7D101A8FFF7F8FE3A
:106B6000304603B0F0BD0026F7E700002DE9F047FE
:106B70000D4604462F461646FFF7A8FE154B57F85C
:106B8000082B2360144BE5629A422686984617D15B
:106B9000AB889BB2B34213D105EB060A67634FF093
:106BA0000009EB881FFA89F29BB29A420ED2616B00
:106BB0002046FFF791FF5045606309F10109F0D9C4
:106BC0000023C5F800806763AE80EB802046BDE8F7
:106BD000F08700BFF8C00D0061AB9CD110B5D1E9C2
:106BE000002386B00021044604910AB9D90705D5CF
:106BF000CDE902230F4B05930F4B049302AB93E8AF
:106C000003006A4682E8030094E8030083E8030077
:106C100092E80300049A84E80300A168A260059A40
:106C200004911846E168E2600591FDF749FB2046B2
:106C300006B010BD17680D00CD670D0007B5054BF8
:106C400000936946002310300193FFF7C7FF03B09C
:106C50005DF804FB856C0D0013B5044600F034F9B3
:106C6000636AC01AE368984208D3054B00936946EB
:106C7000002304F110000193FFF7B0FF02B010BD34
:106C8000856C0D002DE9F04190F82A3086B004465D
:106C9000002B64D100F006FB002860D000F014F94E
:106CA000636AC01A40F2F133984258D923682046EB
:106CB0005B6998470546002851D000F10807012379
:106CC00084F82830384602F0F6FD95F80480CDF8B7
:106CD000048001302B682B4900933E1833462A4824
:106CE0003A46FFF73FF82B688DF800803246394668
:106CF00002A800F0E9FD029D6B781BB9012000F0AD
:106D0000E1FBF8E7002000F06FFA20B16B7813B9CF
:106D100000F0B8FAFAE72B78012B23D11B491A4867
:106D2000FFF720F8236800219B692046984700233D
:106D300084F8283000F0C8F86062039C7CB1636876
:106D4000013B63605BB9236820469B689847A36852
:106D5000013BA3601BB923682046DB68984706B057
:106D6000BDE8F081E2680A490748FEF7FBFF094BDE
:106D7000049304A9002304F110000593FFF72EFFEC
:106D8000D5E700BF5FC00D00DCE5032080C00D002B
:106D900097C00D00596C0D00014B024A1A607047F4
:106DA000DCE50320BEC00D0008B5024B1B685B6824
:106DB000019308BD4802030008B5024B1B68DB685D
:106DC000019308BD4802030008B5024B1B68DB694C
:106DD000019308BD4802030008B5024B1B681B6AFB
:106DE000019308BD4802030008B5024B1B685B6AAB
:106DF000019308BD4802030008B5024B1B689B6A5B
:106E0000019308BD4802030008B5024B1B68DB6A0A
:106E1000019308BD4802030008B5024B1B681B6BB9
:106E2000019308BD4802030008B5024B1B689B6B29
:106E3000019308BD4802030008B5024B1B681B6C98
:106E4000019308BD4802030008B5024B1B685B6C48
:106E5000019308BD4802030008B5024B1B689B6CF8
:106E6000019308BD4802030008B5024B1B68DB6EA6
:106E7000019308BD4802030008B5024B1B681B6F55
:106E8000019308BD4802030008B5024B1B685B6E06
:106E9000019308BD3402030008B5024B1B685B6810
:106EA000019308BD1802030008B5024B1B689B68DC
:106EB000019308BD1802030008B5024B1B68DB688C
:106EC000019308BD1802030008B5024B1B685B69FB
:106ED000019308BD1802030008B5024B1B689B6DA7
:106EE000019308BD1802030008B5024B1B68DB6D57
:106EF000019308BD1802030008B5024B1B685B6EC6
:106F0000019308BD1802030008B5024B1B689B6E75
:106F1000019308BD1802030008B5024B1B685B68AB
:106F2000019308BD2C02030008B5024B1B689B6847
:106F3000019308BD2C02030008B5024B1B68DB68F7
:106F4000019308BD2C02030008B5024B1B681B69A6
:106F5000019308BD2C02030008B5024B1B689B6916
:106F6000019308BD2C02030008B5024B1B68DB69C6
:106F7000019308BD2C02030008B5024B1B681B6B74
:106F8000019308BD2C02030008B5024B1B68DB68A7
:106F9000019308BD2802030008B5024B1B689B69DA
:106FA000019308BD2802030008B5024B1B68DB698A
:106FB000019308BD2802030008B5024B1B681B6A39
:106FC000019308BD2802030008B5024B1B685B6AE9
:106FD000019308BD2802030008B5024B1B689B6A99
:106FE000019308BD2802030008B5024B1B68DB6A49
:106FF000019308BD2802030008B5024B1B681B6BF8
:10700000019308BD2802030008B5024B1B685B6BA7
:10701000019308BD2802030008B5024B1B681B6CD6
:10702000019308BD2802030008B5024B1B689B6C46
:10703000019308BD2802030008B5024B1B68DB6CF6
:10704000019308BD2802030008B5024B1B681B6DA5
:10705000019308BD2802030008B5024B1B685B6959
:10706000019308BD6402030008B5024B1B689B68CE
:10707000019308BD6802030008B5024B1B68DB687A
:10708000019308BD6802030008B5024B1B68DB6969
:10709000019308BD3002030008B5024B1B681B6A50
:1070A000019308BD3002030008B5024B1B681B6842
:1070B000019308BD3C02030008B5024B1B68DB6866
:1070C000019308BD3C02030008B5024B1B681B6915
:1070D000019308BD3C02030008B5024B1B685B69C5
:1070E000019308BD3C02030008B5024B1B689B6975
:1070F000019308BD3C02030008B5024B1B68DB6925
:10710000019308BD3C02030008B5024B1B681B6AD3
:10711000019308BD3C02030008B5024B1B689B6A43
:10712000019308BD3C02030008B5024B1B681B68B5
:10713000019308BD4C02030008B5024B1B681B6994
:10714000019308BD4C02030008B5024B1B685B6944
:10715000019308BD4C02030008B5024B1B689B69F4
:10716000019308BD4C02030008B5024B1B68DB69A4
:10717000019308BD4C02030008B5024B1B681B6A53
:10718000019308BD4C02030008B5024B1B685B6B02
:10719000019308BD6002030008B5024B1B685B6DDC
:1071A000019308BD6002030008B5024B1B681B6811
:1071B000019308BD2002030008B5024B1B685B6801
:1071C000019308BD2002030008B5024B1B685B69F0
:1071D000019308BD2002030008B5024B1B68DB6A5F
:1071E000019308BD2002030008B5024B1B68DB6C4D
:1071F000019308BD2002030008B5024B1B685B6DBC
:10720000019308BD2002030008B5024B1B689B6D6B
:10721000019308BD2002030008B5024B1B68DB6D1B
:10722000019308BD2002030008B5034B1B68D3F887
:107230008830019308BD00002002030008B5034B0D
:107240001B68D3F89430019308BD000020020300AE
:1072500008B5034B1B68D3F8B030019308BD00009C
:107260002002030008B5024B1B681B68019308BD90
:107270004402030008B5024B1B685B68019308BD1C
:107280004402030008B5024B1B689B68019308BDCC
:107290004402030008B5024B1B68DB68019308BD7C
:1072A0004402030008B5024B1B685B69019308BDEB
:1072B0004402030008B5024B1B68DB69019308BD5B
:1072C0004402030008B5024B1B681B6A019308BD0A
:1072D0004402030008B5024B1B685B6A019308BDBA
:1072E0004402030008B5024B1B68DB6A019308BD2A
:1072F0004402030008B5024B1B681B6B019308BDD9
:107300004402030008B5024B1B685B6B019308BD88
:107310004402030008B5024B1B689B6B019308BD38
:107320004402030008B5024B1B68DB6B019308BDE8
:107330004402030008B5024B1B685B68019308BD5B
:107340004002030008B5024B1B689B68019308BD0F
:107350004002030008B5024B1B68DB68019308BDBF
:107360004002030008B5024B1B681B69019308BD6E
:107370004002030008B5024B1B685B69019308BD1E
:107380004002030008B5024B1B689B69019308BDCE
:107390004002030008B5024B1B68DB69019308BD7E
:1073A0004002030008B5024B1B681B6A019308BD2D
:1073B0004002030008B5024B1B681B6B019308BD1C
:1073C0004002030008B5024B1B685B6B019308BDCC
:1073D0004002030008B5024B1B681B6C019308BDFB
:1073E0004002030008B5024B1B685B6C019308BDAB
:1073F0004002030008B5024B1B681B68019308BDDF
:107400001C02030008B5024B1B685B68019308BDB2
:107410001C02030008B5024B1B689B68019308BD62
:107420001C02030008B5024B1B681B69019308BDD1
:107430001C02030008B5024B1B68DB69019308BD01
:107440001C02030008B5024B1B68DB6A019308BDF0
:107450001C02030008B5024B1B681B6B019308BD9F
:107460001C02030008B5024B1B68DB6B019308BDCF
:107470001C02030008B5024B1B685B6C019308BD3E
:107480001C02030008B5024B1B689B6C019308BDEE
:107490001C02030008B5024B1B68DB6C019308BD9E
:1074A0001C02030008B5024B1B681B6D019308BD4D
:1074B0001C02030008B5024B1B685B6D019308BDFD
:1074C0001C0203000021FFF77FBE10B5836804464D
:1074D0000BB901F0FEFAC3689847A3681BB10322F9
:1074E00021462046984720461021BDE8104001F073
:1074F000EABA10B5036804469B689847A368013B45
:10750000A3602BB923682046DB68BDE8104018470C
:1075100010BD10B50446006808B1FFF79DFC204679
:1075200010BD0B68036013B15A6801325A6070478E
:1075300010B50446006828B14368013B43600BB9AD
:10754000FFF7D7FF204610BD13B50B460246D0E922
:1075500000016C4684E8030093E8030082E803001E
:1075600094E8030083E8030002B010BD10B5064C98
:10757000002320462360FFF767FC2046034A0449A6
:10758000BDE8104001F09ABAE0E50320F8D90320E5
:1075900013750D00002240681146FFF7E3BE00227C
:1075A00040681146FFF7FEBE002240681146FFF713
:1075B00009BF40680022FFF7FDBE4068002281F04D
:1075C0000101FFF7E7BE002340681A461946FFF79E
:1075D000D9BE002340681A461946FFF7CBBE0022E9
:1075E00040681146FFF7AEBE406800220221FFF757
:1075F000B1BE002340681A46FFF79CBE084B10B589
:10760000282422461846002102F0FAF8054B04808F
:107610004FF0FF32426004225A60034A1A6010BDE4
:10762000ECE50320E4E5032020C10D0070470020B5
:10763000704710B51021044601F045FA204610BDF0
:1076400008B5FFF7F6FF08BD30B500224FF69C7471
:10765000026084808D888C800C68858004600A605C
:1076600030BD10B504460068FFF7CCFE204610BDC3
:1076700038B5C468F4B12378022B03D104F10C00AF
:10768000FFF7EFFF656835B12846FCF719FE1021BA
:10769000284601F018FAA56835B12846FCF710FE17
:1076A0001021284601F00FFA20461421BDE8384089
:1076B00001F009BA38BD10B588B00446684600F03C
:1076C00054FD694604A800F073FD04A8A0470446D1
:1076D00004A800F0FFFC684600F0FCFC204608B05F
:1076E00010BD1FB50023CDE90201019210241A46F6
:1076F00069461846ADF80230ADF80040FFF7BAFD14
:1077000004B010BD73B50E46044656F8043B009312
:107710000D4601A83146FFF704FF019A009B626005
:10772000236001A8002301930093FFF701FF304677
:10773000FFF7FEFE2846082101F0C5F9204602B0F9
:1077400070BD826810B50AB901F0C3F9BDE81040F8
:10775000C368184708B5006800F11001FFF7F1FF92
:1077600008BD826810B50AB901F0B3F9BDE8104050
:10777000C368184708B5006800F11001FFF7F1FF72
:1077800008BD000038B500230446036010200D46F4
:10779000FCF781FC28B10123C0E90133024B0360EF
:1077A000C5602060204638BD5CC10D0038B500239F
:1077B00083608B6804460D462BB102229847EB6824
:1077C000E360AB68A360204638BD0000F0B589B027
:1077D00004686846FFF738FF4FF00203D4E84F2FE4
:1077E000002A03D1C4E8413F0029F7D125D104F193
:1077F0000C0569462846FFF727FFBFF35B8F01237F
:107800006370002004F10803BFF35B8F53E8006F3F
:1078100043E80002002AF9D1BFF35B8F6EB1FFF796
:10782000E3FC78B129463046FFF78BFF3046FCF782
:1078300047FD1021304601F046F96846FFF711FF79
:1078400009B0F0BD314602A8FFF7B0FFE068B4F917
:10785000105008B102F012F806901020ADF81C503C
:10786000FCF719FC0546E8B1002787601820FCF7F3
:1078700012FC044688B10146876002A8FFF764FE47
:10788000049BA268A360059B049206A9E268E360DA
:1078900004F110000592FFF7D7FE084BEB60084B90
:1078A0002C60AB6006A8FFF7DCFE02A8FCF708FD21
:1078B000002229460348FFF79FFCB7E755770D00E4
:1078C000ED790D00CB740D002DE9F0478AB0054627
:1078D0009DF848900C4617469846FFF7E3FC07AE24
:1078E000824638BB4FF62E73059005A93046ADF899
:1078F0001830FFF7A9FE1420FCF7CDFB044648B171
:10790000022303700123C0E901AA437031460C3001
:10791000FFF79AFE2846214640F8044BFFF732FF56
:107920003046FFF79EFE05A8FFF79BFE28460AB0EB
:10793000BDE8F0870C234FF0000A1420CDE908AA17
:107940000793FCF7A8FB014628B1C0E901AA80F81B
:1079500000A080F801A004A80391FFF713FF224BB9
:1079600008930820FCF797FB824628B1039B40F858
:10797000043B04A9FFF7D5FD00965FFA89F3424660
:1079800039462046CDF824A0FFF79CFCB8B9039BEC
:107990005B7803F0FF0293B94FF69C7305A903A827
:1079A0000592ADF81830FFF711FF05A8FFF759FE53
:1079B00005A80999FFF7A6FE06A8FFF7B9FD039BE6
:1079C000059304A906A8FFF7ACFD059B069A2B605A
:1079D0006A60002306A806930593FFF7A9FD04A893
:1079E000FFF7A6FDA2E700BFB17A0D00022AF8B5A5
:1079F000054607D0032A18D0012A01D10B6803607D
:107A00000020F8BD18200E68FCF745FB044650B175
:107A10003146FFF7CBFE3069B6F9147008B101F0BA
:107A20002DFF2061A7822C60EAE70468002CE7D0D4
:107A300004F11000FFF715FE2046FCF741FC182169
:107A4000204601F040F8DBE738B5002383608B68FF
:107A500004460D462BB102229847EB68E360AB6801
:107A6000A360204638BD022A70B5044607D0032A19
:107A700012D0012A01D10B680360002070BD1420D0
:107A80000E68FCF708FB054620B13146FFF7DCFF26
:107A9000337C2B742560F0E70468002CEDD0204681
:107AA000FCF70EFC1421204601F00DF8E5E700007C
:107AB000F0B589B004460D4601A81146FFF722FE35
:107AC000A4B124B21DB1284601F0D8FE054601A894
:107AD00003A90395ADF81040FFF778FE03A8FFF760
:107AE000C0FD02A8FFF724FD09B0F0BD019D0123F0
:107AF000D5E84F2F002A03D1C5E8413F0029F7D12F
:107B0000EFD12B73BFF35B8F6B702B1DBFF35B8FBC
:107B100053E8006F43E80042002AF9D1BFF35B8FBE
:107B2000002EDED02046FFF75FFB074660B105F16F
:107B30000C013046FFF715FE3046FCF7C1FB102163
:107B4000304600F0C0FFCCE7314603A8FFF77CFFCA
:107B50002B7B8DF81C301020FCF79DFA0546D0B128
:107B600087601420FCF797FA044678B187600146D5
:107B700003A8FFF7E9FC059BA268A360069B05929A
:107B8000E268E3609DF81C3006922374064BEB60BC
:107B9000064B2C60AB6003A8FCF792FB0022294641
:107BA0000348FFF729FBC7E775770D00677A0D00DB
:107BB000CB740D00002240681146FFF7F3BB002292
:107BC00040681146FFF7FEBB40680022FFF7F2BB9A
:107BD0004068002281F00101FFF7DCBB0023406810
:107BE0001A461946FFF7CEBB002340681A461946CD
:107BF000FFF7C0BB002240681146FFF7B3BB00226D
:107C000040681146FFF79EBB406800220221FFF743
:107C1000A1BB002340681A46FFF78CBB024B03222E
:107C20005A60024A1A60704714E6032078C10D00BA
:107C30007047F8B5064615460C468F18BC4206D06C
:107C4000336814F8011B9B6830469847F6E72846CE
:107C5000F8BD007C0022FFF7AFB9007C0021FFF7E0
:107C6000B3B9007C0021FFF7B7B9007C0021FFF712
:107C7000BBB9007C0021FFF7BFB910B51421044641
:107C800000F021FF204610BD10B54FF47A73044672
:107C900008460021C4E90113034B236020741146F8
:107CA000FFF7BAF9204610BDB4C10D000023007CD7
:107CB0001A461946FFF768B97FB500221423CDE9AB
:107CC0000122ADF804300B788DF808304B6803932F
:107CD000CB680493007C0B7A059301A9FFF7B4F9F4
:107CE00007B05DF804FB1FB5003B8DF800104FF0A6
:107CF0006401039118BF0123694601928DF8083091
:107D0000FFF7DAFF05B05DF804FB007C0022FFF707
:107D100043B9C9B2FFF7F9BF007C0022FFF744B9AD
:107D200008B50021007CFFF77FF9B0FA80F0400928
:107D300008BD08B50021007CFFF77EF9B0FA80F09D
:107D4000400908BD004700002DE9FF4100241D4601
:107D50000F4690460646FFF707F9A5424FF0040389
:107D6000ADF80D408DF80C308DF80F40A2BF9DF896
:107D700028308DF80E3003AC0749009443463A464C
:107D80003046A8BF8DF80D50FFF7E6F8B0FA80F046
:107D9000400904B0BDE8F081457D0D00704710B585
:107DA0001821044600F08FFE204610BDF0B5037D7B
:107DB000062B8DB00E4600F104074FF0000412D0E0
:107DC00000F1080515F8011D0A22304600F045F9BA
:107DD000AF42044419D0002CF4D02E21304600F0DC
:107DE00039F90444EEE72F236A4639460A208DF814
:107DF0000040FFF731F9684601F05DFD3368024647
:107E0000DB68694630469847044620460DB0F0BD11
:107E100010B5054B0446112240F8043B002101F047
:107E2000EFFC204610BD00BFDCC10D000346074A31
:107E300010B543F8042B01F1100251F8044B43F83C
:107E4000044B9142F9D10A781A7010BDDCC10D00C3
:107E500010B59DF8084044EA032343EA024242EA8F
:107E6000016104234160037510BD000013B5054B8B
:107E70000360CB7800938B784A780978FFF7E8FFA6
:107E800002B010BDDCC10D00014B024A1A60704700
:107E90001CE60320E8C10D00002340681A46FFF7E6
:107EA00049BA406800220221FFF754BA0022406814
:107EB0001146FFF747BA002240681146FFF752BA51
:107EC000002340681A461946FFF754BA0023406859
:107ED0001A461946FFF756BA40680021FFF77ABAEA
:107EE00040680021FFF77EBA4068002281F001015E
:107EF000FFF750BA40680022FFF75CBA00224068E2
:107F00001146FFF75FBA002240681146FFF74ABAF0
:107F10002DE9F043002495B016460D460746FFF7BD
:107F200077FF214618220EA8009401F069FC402337
:107F3000CDE90C3421466B460CAA3046FFF79CF87D
:107F4000044600284CD1024601216868FFF70AFA6E
:107F50000221804622466868FFF704FA009E8146A7
:107F60002146002E3CD000293AD17368022B03D061
:107F70000A2B11D0F669F4E7B8F1000F0AD0716945
:107F800006A8043107ADFFF771FF0FCD3C1D0FC4EC
:107F90002B6823704146EDE7B9F1000F01D1494646
:107FA000E8E77469102201A801F02AFC06238DF885
:107FB000143001AD04F108031834186859682A46D2
:107FC00003C20833A3421546F7D101A906A807AD9D
:107FD000FFF72CFF0FCD3C1D0FC42B682370DEE78D
:107FE0000098FFF741F8384615B0BDE8F08300006F
:107FF000024B034A1A6000225A60704720E60320B1
:10800000F4C10D00F8B506460D468F180024BD4298
:108010000CD0336815F8011B9B6830469847031E47
:1080200001DB1C44F3E7002C08BF1C462046F8BDCA
:1080300013B50446084659B1019101F03CFC236890
:108040000199DB680246204602B0BDE8104018479F
:1080500002B010BD03689B68184730B58BB0002391
:108060008DF82430012A98BF0A2209AC0D46B1FBD5
:10807000F2F101FB125303F0FF03092B94BF3033DD
:108080003733DBB2AA4204F8013DEFD92146FFF7AE
:10809000CFFF0BB030BD10B50446FCF711F92046F8
:1080A00010BD00000348044A04490023836000F027
:1080B00005BD00BF28E60320F8D9032097800D00F6
:1080C00010B5044608462170FEF7DEFF002363600A
:1080D000204610BD10B504460068FFF793F920460E
:1080E00010BD10B50446006808B1FFF78BF90023F6
:1080F000C4E90133236010BD38B504460D4600685D
:108100000131FFF787F910B1C4E90005012038BD3E
:1081100010B50368044623B143688B4201D30120A4
:1081200010BD2046FFF7E8FF0028F9D0A368002B18
:10813000F5D122681370F2E737B50D46114601926A
:108140000446FFF7E5FF019A28B92046FFF7C9FF6B
:10815000204603B030BDA2602946206801F028FB0C
:108160002268A3680021D154F2E7002313B5C0E9C7
:10817000003304468360037341B10846019101F066
:108180009AFB019902462046FFF7D6FF204602B02F
:1081900010BD884210B5044605D00B682BB18A6823
:1081A0001946FFF7C9FF204610BDFFF79AFFFAE70F
:1081B00010B500230446C0E9003383600373FFF762
:1081C000E8FF204610BD70B505460E4609B90020EF
:1081D00070BD6AB1846814442146FFF799FF0028F6
:1081E000F5D02868AB683146184401F03FFBAC601D
:1081F0000120EDE713B5044629B92046FFF771FFCA
:10820000204602B010BD0846019101F054FB0199CF
:1082100002462046FFF7D7FF0028EED0F0E708B56A
:1082200082683AB921B10878B0FA80F0400900E0DC
:10823000012008BD006809B90078F5E701F00CFBE2
:10824000F2E7000008B5006840B101F089FA51EC8E
:10825000100B01F0F1F900EE100A08BD9FED010AC4
:10826000FBE700BF0000000007B50B4600210246F7
:10827000009101208C21FEF7EBFF03B05DF804FBB9
:1082800001460020FFF7F0BF0020FFF7F9BF000014
:1082900010B5094B094C022200201A60084B2060DF
:1082A000A080A071A360FEF787FF2046054A06491B
:1082B000BDE8104000F002BC44E6032038E603208D
:1082C0000000FFFFF8D9032057420D002DE9F041CF
:1082D000154ADFF86080D2E90032C01842EB010194
:1082E000124AD2E90032C61841EB0207D8E900234E
:1082F000BB4208BFB2428CB013D003A96846CDE997
:108300000067FFF7C7F8089B094D03F26C7303ACD5
:1083100008930FCC0FC50FCC0FC5C8E900672368C1
:108320002B600CB0BDE8F08180E6032078E60320E6
:1083300050E6032088E6032008B50020FEF7DAFFA8
:1083400028B1FEF7AFFF80F00100C0B208BD0120E8
:10835000FCE71FB502460B4668460021CDE9002325
:10836000CDE90211FEF7D0FD024610B90146FEF735
:1083700053FF05B05DF804FB30B504461848D0E95A
:108380000010521840EB03031648D0E900105218B1
:1083900093B040EB0303CDE9002324220DEB020050
:1083A000002101F02DFA002509A96846FFF772F8AF
:1083B0001622294603A8029501F022FA02A909A86B
:1083C00001F0A8F902A801F076FA12AB184402A94C
:1083D00000F8415C2046FFF7C8FE204613B030BDD0
:1083E00080E6032078E603202DE9F04FA5B007468C
:1083F000884614A811463F221D4601F076FA002354
:1084000014A88DF88F3001F056FA04465DBB2A4956
:1084100003A801F02BFA14AE002504F1FF3BAB4595
:1084200036D9B14605F1010A19F8013B252B17D1C0
:1084300073787A2B14D103A801F03DFA14AB0446EB
:1084400028181844ABEB0502B11C01F0B1F9224623
:1084500003A9304601F0ACF914A801F02CFA044647
:108460004E465546D9E73C2195FBF1F3002BB8BFAA
:108470005B42B3FBF1F201FB123300930F4A4FF45E
:108480006163102103A895FBF3F3FEF7D3FFC2E766
:1084900000212E2208A8079101F0B2F9434614AA40
:1084A000322107A8FEF7EEFF07A93846FFF75DFE69
:1084B000384625B0BDE8F08F28C20D002AC20D0055
:1084C000F0B58DB0CDE90023129D044615B9194BC6
:1084D0001D682DB1184B2846196801F0BDF938B94F
:1084E000DDE900232046FFF747FF20460DB0F0BD31
:1084F000124E0099124FD6E900325B18019941EBF8
:108500000202D7E900011B1841EB0202CDE900325B
:108510000021242203A801F073F903A96846FEF79D
:10852000B9FF32683B6803A9134420462A46FFF787
:108530005BFFDAE74CE6032018D8032080E603202F
:1085400078E6032010B50020FEF7C6FC0446A0B96B
:10855000FEF72AFE012810D12046FEF755FE60B92D
:10856000FFF7EAFE10B9FEF78DFEF9E7FFF7E4FE2C
:10857000BDE810400020FEF7AFBC204610BD1FB57F
:10858000FFF7E0FF10220021684601F039F90021D1
:108590006846FEF7B1FC009805B05DF804FB0000EA
:1085A00008B5FFF7ECFFC117FFF790FE014B986885
:1085B00008BD00BF50E6032008B5FFF7E0FFC11774
:1085C000FFF784FE014B586908BD00BF50E6032049
:1085D000024B1A68024B1A60704700BF18D803207C
:1085E0004CE6032070474174704708B5007CFEF7E5
:1085F00093FD20EAE07008BD08B5007CFEF764FD3D
:1086000020EAE07008BD08B5007CFEF76DFD40EA89
:10861000E07008BD08B5007CFEF75EFD40EAE07042
:1086200008BD007CFEF768BD37B5457C04462DB11A
:10863000207C03B0BDE83040FEF73EBD007C0191D8
:10864000FEF76AFD00280199F2DC284603B030BD30
:1086500010B51421044600F036FA204610BD000083
:1086600010B54FF0000C0446084611464FF47A72DC
:10867000C4E901C2044A22600122207462741A46CD
:10868000FEF712FD204610BD5CC20D0013B50E4C66
:108690002178BFF35B8F11F0010112D120460191C7
:1086A000FBF70AFD019960B1084A094B0948FFF739
:1086B000D7FF2046FBF705FD074A0849054800F0AB
:1086C000FDF9044802B010BD90E6032094E60320B3
:1086D00018E703209CE70320F8D90320E5850D0067
:1086E00041747047704708B50021007CFEF734FDE7
:1086F00040EAE07008BD08B50121007CFEF72CFDC2
:1087000040EAE07008BD08B5007CFEF71DFD20EAD8
:10871000E07008BD08B5007CFEF70EFD20EAE070B1
:1087200008BD13B50446007C0191FEF70DFD00283D
:10873000019901DC607C20B1207CFEF715FD20EA68
:10874000E07002B010BD007CFEF716BD10B514211C
:10875000044600F0B8F9204610BD000010B54FF4F3
:108760007A73044608460021C4E90113044B2360D0
:108770000123207463741146FEF7D6FC204610BD19
:108780008CC20D0010B514220446002101F038F807
:10879000204610BD10B5104C88B003A8FFF7F2FFBB
:1087A0002178BFF35B8F11F0010111D120460191B7
:1087B000FBF782FC019958B103AA0848FFF7CEFFE6
:1087C0002046FBF77EFC064A0649044800F076F98D
:1087D000024808B010BD00BFB0E70320B4E7032093
:1087E000F8D90320E5860D00014B1860704700BFE3
:1087F00020D8032008B50B4B43B1FFF7CBFF03682C
:108800001B699847002801DDAFF30080064B43B198
:10881000FFF73CFF03681B699847002801DDAFF3B1
:10882000008008BD000000000000000008B5FFF750
:10883000E1FFFEF749FB014B186008BDDCE70320B0
:108840000248034A0349121A00F0B2BF00F40320A1
:1088500004FC0320C0C50D0007B5002300931A4691
:108860006FF07701FEF7EAFC03B05DF804FB00004F
:1088700007B543880A2B08D0502B0BD1094B1B6836
:108880004BB103B05DF804EB1847FFF7E5FF03B009
:108890005DF804FB002300931A466FF07701FEF7A2
:1088A000CDFCF4E7CCE7032038B5124C1248134D49
:1088B0000021FEF7DFFD2368AB42114B0CBF012204
:1088C00000221A7002D0FFF7BBFF2560FEF7E4FA22
:1088D000044600F09DFF0B4B13B12046AFF3008020
:1088E00000210848FEF71EFDBDE83840064800217B
:1088F000FEF79ABC00FC0320E9870D001E1C279A96
:10890000C8E703200000000071880D0008B5024B85
:108910001B681B68019308BD5C02030008B5024B8D
:108920001B685B68019308BD5C02030008B5024B3D
:108930001B689B68019308BD5C020300232813B5E4
:1089400002D9002002B010BDA0F10B03022B1AD8EF
:10895000174C2178BFF35B8F11F001010BD120463A
:108960000191FBF7A9FB019928B11248FFF7A8FB79
:108970002046FBF7A6FB0F4B1878FEF78DFB00286F
:10898000DFD10120DEE7012809D800F06FF80021CF
:10899000007CFEF739FB80F00100C0B2D2E7093855
:1089A0000128EED8FFF772FE007CFEF7ADFBF2E780
:1089B000D0E70320D4E70320232838B504460D462A
:1089C0000AD8FF2908D0FFF7B9FF28B12946204669
:1089D000BDE83840FEF7A8BA38BD38B504460D46A4
:1089E000FEF7AAFAFF2810D0062804D84D2323FA50
:1089F00000F0C30709D42046FFF7A0FF28B129469D
:108A00002046BDE83840FEF79FBA38BD0D2810B5A6
:108A100004469CBF0E34A4B22046FFF78FFF50B12E
:108A200003212046FEF778FA032804D12046BDE84A
:108A30001040FEF7A1BA002010BD000038B5002399
:108A40002025438014230446038085600561064980
:108A5000284600F03CF804496060284600F037F8EA
:108A6000E060204638BD00BFB4C20D0030B50F4DE8
:108A70002978BFF35B8F11F0010487B013D128462A
:108A8000FBF71AFB78B101A8FFF7D8FF01AA21462E
:108A90000748FFF7F9F82846FBF713FB054A064994
:108AA000034800F00BF8024807B030BDE0E70320B0
:108AB000E4E70320F8D90320317C0D000B46014682
:108AC000184600F055BEFBF7EABAFBF7E4BAFBF72D
:108AD000E4BA08B5FEF7B6FC2DE9F0432DED028BA4
:108AE0008BB055EC104B00F055F8284BB0EE408A97
:108AF000F0EE608A93F900707B1C12D022462B4660
:108B00002046294600F062FD064650B94FF00008A5
:108B10004FF000092046294642464B4600F02EFD04
:108B200040B9B0EE480AF0EE680A0BB0BDEC028B1B
:108B3000BDE8F083164B08960122CDE90445CDE946
:108B400002450092019397B142464B464046494642
:108B500000F0CCFB022FCDE906010AD1FEF782FC22
:108B600021230360089B63B99DED068BD9E7CDE90E
:108B70000689684600F0D2F80028EFD0089B002B49
:108B8000F2D0FEF76FFC089B0360EDE71CD80320D2
:108B9000B8C20D002DE9F0415F4A57EC106BBA43A3
:108BA00000F09880002F10EE104A3B464EDD39153C
:108BB0005BD0C3F31303CA0743F48013A1F2FF3E53
:108BC00003D45B0003EBD4736400E20F4FF0000C9E
:108BD00002EB43034FEA6E0E6400664616254FF41F
:108BE0000012B118994202DC5B1A8E1894445B00A3
:108BF000013D03EBD4734FEA52024FEA4404F0D133
:108C00002F4620204FF0004209E03ED0E10F01380E
:108C10004FEA520201EB43034FEA44043ED0B34211
:108C200002EB0501F1DD002901EB020509DBB0468D
:108C30009B1BA14288BF03F1FF33641A17444646C9
:108C4000E4E7002DF3DB06F10108F1E727F000422D
:108C5000324336D0002F4DD13946E20A153964052A
:108C60001346002AF9D0D70251D400205B00DE025F
:108C7000054600F10100F9D51A4623468440C0F1AB
:108C80002000C3401343491B93E7A142BED80029EB
:108C900001EB0205D5DB98460023CEE7234312D132
:108CA00078084FEA6C0101F17F511CF0010F01F5CA
:108CB000001118BF40F0004001EB0E53024643EC98
:108CC000102BBDE8F0817B1C16BF781C0CF1010C49
:108CD0004008E6E710EE102A10EE100A3B4639462F
:108CE00000F0DAF932463B4600F020F841EC100B78
:108CF000BDE8F08110EE102A3046394600F014F835
:108D000002460B4600F0F2FA41EC100BD9E723467D
:108D100020204FF0FF35B4E70000F07F00207047BF
:108D200081F0004102E000BF83F0004330B54FEA1C
:108D300041044FEA430594EA050F08BF90EA020F89
:108D40001FBF54EA000C55EA020C7FEA645C7FEA1C
:108D5000655C00F0E2804FEA5454D4EB5555B8BF3F
:108D60006D420CDD2C4480EA020281EA030382EAB0
:108D7000000083EA010180EA020281EA0303362D42
:108D800088BF30BD11F0004F4FEA01314FF4801C15
:108D90004CEA113102D0404261EB410113F0004F27
:108DA0004FEA03334CEA133302D0524263EB4303DE
:108DB00094EA050F00F0A780A4F10104D5F1200E7C
:108DC0000DDB02FA0EFC22FA05F2801841F10001D7
:108DD00003FA0EF2801843FA05F359410EE0A5F1AB
:108DE00020050EF1200E012A03FA0EFC28BF4CF0DC
:108DF000020C43FA05F3C01851EBE37101F0004592
:108E000007D54FF0000EDCF1000C7EEB00006EEB9E
:108E10000101B1F5801F1BD3B1F5001F0CD3490828
:108E20005FEA30004FEA3C0C04F101044FEA44527F
:108E300012F5800F80F09A80BCF1004F08BF5FEA06
:108E4000500C50F1000041EB045141EA050130BDE6
:108E50005FEA4C0C404141EB0101013C28BFB1F5F8
:108E6000801FE9D291F0000F04BF01460020B1FA43
:108E700081F308BF2033A3F10B03B3F120020CDA16
:108E80000C3208DD02F1140CC2F10C0201FA0CF0F4
:108E900021FA02F10CE002F11402D8BFC2F1200C59
:108EA00001FA02F120FA0CFCDCBF41EA0C0190400F
:108EB000E41AA2BF01EB0451294330BD6FEA040458
:108EC0001F3C1CDA0C340EDC04F11404C4F1200243
:108ED00020FA04F001FA02F340EA030021FA04F355
:108EE00045EA030130BDC4F10C04C4F1200220FAAC
:108EF00002F001FA04F340EA0300294630BD21FAEA
:108F000004F0294630BD94F0000F83F4801306BFAF
:108F100081F480110134013D4EE77FEA645C18BFA3
:108F20007FEA655C29D094EA050F08BF90EA020F3A
:108F300005D054EA000C04BF1946104630BD91EA32
:108F4000030F1EBF0021002030BD5FEA545C05D135
:108F50004000494128BF41F0004130BD14F5800474
:108F60003CBF01F5801130BD01F0004545F0FE41E8
:108F700041F470014FF0000030BD7FEA645C1ABF1D
:108F8000194610467FEA655C1CBF0B46024650EA54
:108F9000013406BF52EA033591EA030F41F4002180
:108FA00030BD00BF90F0000F04BF0021704730B506
:108FB0004FF4806404F132044FF000054FF00001DB
:108FC00050E700BF90F0000F04BF0021704730B59C
:108FD0004FF4806404F1320410F0004548BF404271
:108FE0004FF000013EE700BF42004FEAE2014FEAC6
:108FF00031014FEA02701FBF12F07F4393F07F4FA1
:1090000081F06051704732F07F4208BF704793F0A3
:109010007F4F04BF41F40021704730B54FF46074B6
:1090200001F0004521F000411CE700BF50EA0102B9
:1090300008BF704730B54FF000050AE050EA010262
:1090400008BF704730B511F0004502D5404261EBD2
:1090500041014FF4806404F132045FEA915C3FF413
:10906000D8AE4FF003025FEADC0C18BF03325FEAB0
:10907000DC0C18BF033202EBDC02C2F1200300FA61
:1090800003FC20FA02F001FA03FE40EA0E0021FA86
:1090900002F11444BDE600BF70B54FF0FF0C4CF474
:1090A000E06C1CEA11541DBF1CEA135594EA0C0F26
:1090B00095EA0C0F00F0DEF82C4481EA030621EA61
:1090C0004C5123EA4C5350EA013518BF52EA03359C
:1090D00041F4801143F4801338D0A0FB02CE4FF04E
:1090E0000005E1FB02E506F00042E0FB03E54FF07E
:1090F0000006E1FB03569CF0000F18BF4EF0010E76
:10910000A4F1FF04B6F5007F64F5407404D25FEA71
:109110004E0E6D4146EB060642EAC62141EA555124
:109120004FEAC52040EA5E504FEACE2EB4F1FD0C66
:1091300088BFBCF5E06F1ED8BEF1004F08BF5FEAE4
:10914000500E50F1000041EB045170BD06F0004696
:1091500046EA010140EA020081EA0301B4EB5C0443
:10916000C2BFD4EB0C0541EA045170BD41F480113B
:109170004FF0000E013C00F3AB8014F1360FDEBF60
:10918000002001F0004170BDC4F10004203C35DA3C
:109190000C341BDC04F11404C4F1200500FA05F3BF
:1091A00020FA04F001FA05F240EA020001F0004260
:1091B00021F0004110EBD37021FA04F642EB0601D6
:1091C0005EEA430E08BF20EAD37070BDC4F10C0400
:1091D000C4F1200500FA04F320FA05F001FA04F2C4
:1091E00040EA020001F0004110EBD37041F10001B0
:1091F0005EEA430E08BF20EAD37070BDC4F12005BB
:1092000000FA05F24EEA020E20FA04F301FA05F222
:1092100043EA020321FA04F001F0004121FA04F2CA
:1092200020EA020000EBD3705EEA430E08BF20EA9A
:10923000D37070BD94F0000F0FD101F000464000D4
:1092400041EB010111F4801F08BF013CF7D041EA56
:10925000060195F0000F18BF704703F0004652005A
:1092600043EB030313F4801F08BF013DF7D043EA2B
:109270000603704794EA0C0F0CEA135518BF95EAE1
:109280000C0F0CD050EA410618BF52EA4306D1D168
:1092900081EA030101F000414FF0000070BD50EA87
:1092A000410606BF1046194652EA430619D094EA11
:1092B0000C0F02D150EA013613D195EA0C0F05D1FB
:1092C00052EA03361CBF104619460AD181EA03014F
:1092D00001F0004141F0FE4141F470014FF0000007
:1092E00070BD41F0FE4141F4780170BD70B54FF0A2
:1092F000FF0C4CF4E06C1CEA11541DBF1CEA135522
:1093000094EA0C0F95EA0C0F00F0A7F8A4EB050403
:1093100081EA030E52EA03354FEA013100F08880FA
:109320004FEA03334FF0805545EA131343EA1263C3
:109330004FEA022245EA111545EA10654FEA002678
:109340000EF000419D4208BF964244F1FD0404F531
:10935000407402D25B084FEA3202B61A65EB03058D
:109360005B084FEA32024FF480104FF4002CB6EB4A
:10937000020E75EB030E22BFB61A754640EA0C00CA
:109380005B084FEA3202B6EB020E75EB030E22BF0A
:10939000B61A754640EA5C005B084FEA3202B6EB4B
:1093A000020E75EB030E22BFB61A754640EA9C000A
:1093B0005B084FEA3202B6EB020E75EB030E22BFDA
:1093C000B61A754640EADC0055EA060E18D04FEA98
:1093D000051545EA16754FEA06164FEAC30343EA38
:1093E00052734FEAC2025FEA1C1CC0D111F4801F05
:1093F0000BD141EA00014FF000004FF0004CB6E7FE
:1094000011F4801F04BF01430020B4F1FD0C88BF9C
:10941000BCF5E06F3FF6AFAEB5EB030C04BFB6EBA7
:10942000020C5FEA500C50F1000041EB045170BD9A
:109430000EF0004E4EEA113114EB5C04C2BFD4EBC7
:109440000C0541EA045170BD41F480114FF0000E4B
:10945000013C90E645EA060E8DE60CEA135594EAC7
:109460000C0F08BF95EA0C0F3FF43BAF94EA0C0FCA
:109470000AD150EA01347FF434AF95EA0C0F7FF43F
:1094800025AF104619462CE795EA0C0F06D152EA93
:1094900003353FF4FDAE1046194622E750EA410677
:1094A00018BF52EA43067FF4C5AE50EA41047FF488
:1094B0000DAF52EA43057FF4EBAE12E74FF0FF3CED
:1094C00006E000BF4FF0010C02E000BF4FF0010CBE
:1094D0004DF804CD4FEA410C7FEA6C5C4FEA430C37
:1094E00018BF7FEA6C5C1BD001B050EA410C0CBF86
:1094F00052EA430C91EA030F02BF90EA020F0020E8
:10950000704710F1000F91EA030F58BF994208BF4E
:1095100090422CBFD8176FEAE37040F0010070470B
:109520004FEA410C7FEA6C5C02D150EA013C07D162
:109530004FEA430C7FEA6C5CD6D152EA033CD3D0AD
:109540005DF8040B704700BF8446104662468C46A7
:109550001946634600E000BF01B5FFF7B7FF0028DA
:1095600048BF10F1000F01BD4DF808EDFFF7F4FF03
:109570000CBF012000205DF808FB00BF4DF808ED8E
:10958000FFF7EAFF34BF012000205DF808FB00BFB1
:109590004DF808EDFFF7E0FF94BF012000205DF8D3
:1095A00008FB00BF4DF808EDFFF7CEFF94BF012088
:1095B00000205DF808FB00BF4DF808EDFFF7C4FF81
:1095C00034BF012000205DF808FB00BF4FEA410CCA
:1095D0007FEA6C5C02D150EA013C0AD14FEA430CAD
:1095E0007FEA6C5C02D152EA033C02D14FF00000EA
:1095F00070474FF0010070474A0011D212F5001277
:1096000011D20DD56FF47873B3EB62520ED44FEADA
:10961000C12343F0004343EA505323FA02F070475A
:109620004FF00000704750EA013002D14FF0FF3098
:1096300070474FF0000070474FEA4102B2F1E0433B
:1096400024BFB3F5001CDCF1FE5C0DD901F0004C29
:109650004FEAC0024CEA5070B2F1004F40EB830079
:1096600008BF20F00100704711F0804F21D113F1A5
:109670003872BCBF01F00040704741F480114FEADE
:109680005252C2F11802C2F1200C10FA0CF320FA67
:1096900002F018BF40F001004FEAC1234FEAD32384
:1096A00003FA0CFC40EA0C0023FA02F34FEA4303EE
:1096B000CCE77FEA625307D150EA01331EBF4FF077
:1096C000FE4040F44000704701F0004040F0FE4092
:1096D00040F40000704700BFD0B50C4B0022064696
:1096E0000F46FFF7D9FCFFF787FF0446FFF75AFC48
:1096F000074B0022FFF7D0FC02460B4630463946A6
:10970000FFF712FBFFF778FF2146D0BD0000F03DC8
:109710000000F04110B50C4641690369826986B0CA
:1097200001F26C71049101680391416802918168B2
:109730000191C1680091074903EB43030B440649BB
:1097400002EB42020A4420460449FDF76BFE204624
:1097500006B010BDF2C20D00DDC20D00BDC20D008D
:10976000002100F0FBBE0A22002100F07DBF0000B6
:1097700010B5054C13462CB10A4601460220AFF342
:10978000008010BD2046FCE70000000038B5074B04
:109790001D68EB6B04461BB92420FDF72BFEE86324
:1097A000E96B2046BDE83840FDF77CBE20D8032099
:1097B0000A44914200F1FF3300D1704710B511F80F
:1097C000014B03F8014F9142F9D110BD884210B509
:1097D00001EB020402D98442234607D8431EA1426A
:1097E00008D011F8012B03F8012FF8E702440146D5
:1097F0008A4200D110BD13F8014D02F8014DF7E780
:1098000002440346934200D1704703F8011BF9E775
:1098100038B50D4B1D68AB6B04467BB91820FDF7BE
:10982000E9FD0A4A0A4BA863C0E90023094B83609B
:109830000B23838101220023C0E90423AB6B0022A8
:109840001C615A6138BD00BF20D803200E33CDAB58
:1098500034126DE6ECDE050010F8012B11F8013B27
:10986000012A28BF9A42F7D0D01A7047034611F850
:10987000012B03F8012B002AF9D17047024B014656
:10988000186800F003B800BF20D8032037B504469D
:1098900008460D4600F00FF8421C11462046019282
:1098A000FDF7D8FD044618B1019A2946FFF780FF5D
:1098B000204603B030BD034613F8012B002AFBD12C
:1098C000181A0138704710B56AB10139841810F8B8
:1098D000013B11F8012F934203D1A04201D0002B8C
:1098E000F5D1981A10BD1046FCE710B501390346B2
:1098F00032B111F8014F03F8014B013A002CF7D1B6
:109900001A440021934200D110BD03F8011BF9E76E
:1099100070B504460D4645EC104B164601F01AFD95
:1099200051EC100B7EB1C5F30A53C3F16B03002B4E
:1099300009DD1B0503F17F55002405F5401522467E
:109940002B46FFF7A9FB70BD2DE9F04FA3B01F46D2
:1099500000231E93A44B19921B68079304461846D4
:109960008846FFF7A8FF4FF0000A05464FF0000BAE
:10997000CDF874801D9B1A782B2A4CD039D80D2A2B
:1099800032D8082A32D8002A3CD000230E931D9EDC
:109990003378302B40F0B480737803F0DF03582B1A
:1099A0006CD10E9B01931EAB029700938F4A1FABA5
:1099B0001DA9204600F0CAFE10F00707054605D095
:1099C000062F2AD1013600231D960E93199B002BDA
:1099D00040F096850E9BDBB152460BF1004343EC01
:1099E000102B23B0BDE8F08F202ACED101331D9378
:1099F000C0E72D2AC9D101220E925A1C1D925B7814
:109A0000002BC4D1199BCDF87480002B40F07685D3
:109A100052465B46E3E70022EEE71E9A3AB1352153
:109A200020A801F096FD1E99204601F0CBF9013FD8
:109A3000052F07D8DFE807F00E0B181D0E034FF0B7
:109A4000000BDA462807C1D54BF0004BBEE7DDE935
:109A500020ABF7E7DDE920A31F9A23F4801302F27D
:109A6000334243EA025BEDE7DFF884B14FF0000ACE
:109A7000E8E76FF0004B4FF0FF3AE3E71D9B5A1CFD
:109A80001D925B78302BF9D0002B9FD001234FF033
:109A9000000904931D9B0A93CDF824904F460A2297
:109AA0001D980678A6F13003D9B209292AD9079959
:109AB0002A46FFF708FF98B3002033463D4607903B
:109AC0000246652B01D0452B18D11DB9049B0343D9
:109AD00098D00025DDF8748008F101031D9398F8F3
