:02000002D0002C
:1040000000400D009CEF0D00000006000D000501B2
:084010000401BD0B00000000DB
:044018002CCD0D009E
:1040200009480A49884208B505D0094A824202D0A7
:10403000121A06F027FF0748074A0021121A06F055
:1040400049FF014808BD00BF20DC0320B4EC0D008F
:10405000DCDE0320E0DE0320F8E7032070B5074E26
:10406000074C05F08BFFA41BA4080025A54200D136
:1040700070BD56F8043B98470135F7E734E30D006F
:1040800068E30D0001F01EBD08B501F03DFBBDE881
:10409000084005F035BF04F0CBBA04F0C9BA04F00B
:1040A000CFBA04F0CDBA000008B5034A00210C20B5
:1040B00004F078F9FEE700BFD5800D000078B0FA73
:1040C00080F040097047012303707047002070475B
:1040D000704700207047006970470120704700005A
:1040E000014B01221A707047C1E50320036818478D
:1040F000012A03D0022A03D0002070470160FBE7A9
:104100000B680360F8E7012A08BF016000207047D0
:10411000012A08BF01600020704703F0D1B90000F8
:1041200008B5044905F0BDFB18B1034B03221A7012
:10413000012008BD7BCD0D008DE5032070B5C2B018
:1041400000680A2201A907F0FBFD431E062B044666
:104150002BD80128164B174E08D11877164902A8FC
:1041600006F0EEFE3470204642B070BD02284FF0DB
:10417000010507D111495D7702A806F0E1FE2C4642
:104180003570F0E7032802D10D499D77F4E7042844
:1041900002D10C49DD77EFE705280BBF0A490B492F
:1041A00083F8205083F82150E6E70024DBE700BFC6
:1041B00090E50320C0E503207DCD0D0090CD0D00DE
:1041C000A3CD0D00B8CD0D00CCCD0D00E0CD0D0080
:1041D000436913B183690C301847704710B5034B1E
:1041E0000360044602F05AFE204610BD9CD90D0023
:1041F00010B50446FFF7F2FF2046382105F0CDFF49
:10420000204610BD10B5034B0360044602F076F85B
:10421000204610BDC4D90D0010B50446FFF7F2FFCB
:104220002046102105F0B9FF204610BD13B500212E
:104230000446084603F0D6FE0023204601A9019358
:1042400003F0E8FE019C0CB1012323710021012041
:1042500003F0C8FE2CB1236820469B6898470023D2
:10426000237102B010BD10B50446006808B104F017
:10427000E7F9204610BD0023042204F011B910B55F
:104280008368044613B1032201469847204610BDB7
:1042900037B5134B036004468068C8B100256FF042
:1042A0000043CDE9003502212B462A4603F0BAFE31
:1042B000A068294603F0EEFE237903F0FF0513B151
:1042C00003F088FEF8E7A068294603F09BFEA5608E
:1042D00004F10C00FFF7D3FF204603B030BD00BF50
:1042E00088D90D0010B50446FFF7D2FF20461C21E7
:1042F00005F053FF204610BD0246014804F0F1BA14
:104300009B880D0007B508220023ADF800204FF46C
:104310007A710122019241436A461846ADF8023093
:1043200004F016F903B05DF804FB07B580680B468E
:10433000002140B1CDE900210A46032103F072FEBD
:10434000B0FA80F0400903B05DF804FB0EB410B57C
:104350008DB00FAA016852F8044B0392002320206D
:10436000CDE90403CDE900421E2004AA04F032F88E
:104370000DB0BDE8104003B0704737B504689DF834
:1043800018508DF800308DF80450E4683C23A047A5
:1043900003B030BD10B50B7892B00C467BB919490B
:1043A00002A806F0CDFD00238DF80030164B17490A
:1043B0001B78174802AAFFF7E0FF12B010BD0846AD
:1043C00006F03BFDC8280ED1124902A806F0B8FD40
:1043D00005F03FFC104B9861104B01221A70104BF6
:1043E00000221A70DFE7204606F027FDC928EBD02F
:1043F000204606F022FD0B4A0346402102A804F0A5
:1044000037F9D0E7F3CD0D002DDF03202ACE0D00C4
:10441000D0E30320FBCD0D0090E50320C0E5032091
:104420004FDF03200DCE0D0037B51C49054605F0C2
:1044300038FA044600B31A4C012360686370FFF732
:1044400061FF636817484FF47A716FF00042594377
:10445000FFF76BFF04F044F848B100238DF80030FB
:10446000114B124A1B7812491248FFF786FF124B74
:104470000120187003B030BD1049284605F011FA2C
:104480000028F7D0064B5C7004F02AF80028EED024
:10449000054B8DF800401B78094AE4E77BCD0D0001
:1044A00090E50320B0E303202DDF032037CE0D007D
:1044B000C9CE0D00D0E30320C0E503204CCE0D0093
:1044C0004ECE0D0010B5C4B000680A2203A907F053
:1044D00037FCB0F5966F22D8124C6060FFF712FFE0
:1044E000636811484FF47A7159436FF00042FFF747
:1044F0001CFF63680D4A4FF4807104A804F0B8F8FB
:1045000000238DF800300A4B0A491B780A4804AA98
:10451000FFF733FF094B0120187044B010BD002095
:10452000FBE700BF90E50320B0E3032062CE0D005F
:104530002DDF03207BCE0D00D0E30320C0E5032058
:1045400000B589B0039005F0BFF90E4B0399BDEE9D
:10455000C00A04A883ED090A05F05AF900238DF872
:104560000030094B049A1B7808490948FFF705FFFA
:1045700004A805F0DFF8074B0120187009B05DF8BA
:1045800004FB00BF90E503202DDF032086CE0D0045
:10459000D0E30320C0E5032037B51649054605F0F2
:1045A00080F9044688B1144B144A15491548012472
:1045B0005C7200238DF80030134B1B78FFF7DDFE93
:1045C000124B20461C7003B030BD1149284605F03F
:1045D00068F90028F7D0084B0E4A5C720A4B8DF838
:1045E00000401B7806490748FFF7C7FE074B01202C
:1045F0001870E8E77BCD0D0090E50320A8CE0D00F4
:10460000C9CE0D00D0E303202DDF0320C0E5032039
:104610004CCE0D00B9CE0D00F0B5C5B000680A2231
:1046200003A907F08DFB431E062B04464FF000053F
:1046300039D801281D4B1E4F1E4E10D11E491D7723
:1046400004A806F07DFC3B781C491D488DF80050FD
:1046500004AAFFF792FE3470204645B0F0BD022850
:104660000ED118495D7704A806F06AFC3B7813491F
:1046700013488DF8005004AAFFF77FFE0124EAE7F3
:10468000032802D110499D77EDE7042802D10F4994
:10469000DD77E8E705280BBF0D490E4983F8205068
:1046A00083F82150DFE72C46D6E700BF90E50320D2
:1046B0002DDF0320C0E50320CECE0D00E2CE0D009D
:1046C000D0E30320F0CE0D0004CF0D001ACF0D0073
:1046D0002FCF0D0044CF0D0000B5C5B000680A22F1
:1046E00003A907F02DFB042818D80D4B0D4A98623A
:1046F0004FF48071034604A803F0BAFF00238DF83D
:104700000030094B09491B78094804AAFFF735FE18
:10471000084B0120187045B05DF804FB0020FAE753
:1047200090E5032058CF0D002DDF0320C9CE0D00EA
:10473000D0E30320C0E503201FB50A22006803A9C7
:1047400007F0FEFA012804464FF0000311D18DF85E
:104750000030094B094A1B7809490A48FFF70DFE4A
:1047600041F2883003F0D4FF05F0F8F8204604B099
:1047700010BD1C46FAE700BF2DDF03206ACF0D00F5
:10478000AED70D00D0E3032007B503F0A9FE48B172
:1047900000238DF800300F4B0F4A1B780F4910484B
:1047A000FFF7EBFD0F4A7823012153604FF4167099
:1047B00040F20113C2E9090113800B48117700236D
:1047C0005372937282F82030302303B05DF804EB0B
:1047D00001F037BE2DDF03207FCF0D00C9CE0D00C5
:1047E000D0E3032090E50320A0E3032007B503F006
:1047F00077FE48B100238DF800300C4B0C4A1B7833
:104800000C490D48FFF7B9FD0C4A0D4B0D490E48F8
:10481000136053609360D36011615361A02118232A
:1048200003B05DF804EB01F00CBE00BF2DDF0320E8
:1048300097CF0D00C9CE0D00D0E3032028E403205C
:10484000CDCCB54200C02644A0E3032010B5154CE2
:10485000237A012B04D903F043FE00B30123237212
:104860006368114AB3F5966F84BF4FF416736360A3
:10487000637A012B84BF01236372A37A012B84BF67
:104880000023A3726369FF2B84BF00236361A36AC3
:10489000052B4FF00103137088BFA36210BD207277
:1048A000DEE700BF90E50320C0E50320334BD3EDE6
:1048B000007AF5EEC07AF1EE10FA06D49FED307A68
:1048C000F4EEC77AF1EE10FA01DD2E4A1A60D3ED4C
:1048D000017AF5EEC07AF1EE10FA06D49FED287A4F
:1048E000F4EEC77AF1EE10FA01DD264A5A60D3EDF4
:1048F000027AF5EEC07AF1EE10FA06D49FED207A36
:10490000F4EEC77AF1EE10FA01DD1E4A9A60D3ED9B
:10491000037AF5EEC07AF1EE10FA06D49FED187A1C
:10492000F4EEC77AF1EE10FA01DD164ADA60D3ED43
:10493000047AF5EEC07AF1EE10FA06D49FED107A03
:10494000F4EEC77AF1EE10FA01DD0E4A1A61D3EDEA
:10495000057AF5EEC07AF1EE10FA06D49FED087AEA
:10496000F4EEC77AF1EE10FA01DD064A5A61034A05
:1049700005481823A02101F064BD00BF28E40320EE
:1049800000803B45ECD1B542A0E3032007B50121EF
:10499000052005F08CFB0021052005F088FB094A65
:1049A00000231370084A527A42B18DF80030074B49
:1049B000074A1B7807490848FFF7DFFC03B05DF89A
:1049C00004FB00BFC1E5032090E503202DDF032099
:1049D000B6CF0D00BDCF0D00D0E3032030B5114D93
:1049E000114C12492A7820788DB01A2303FB021249
:1049F000009203FB00130E4A282102A803F038FEA0
:104A00002B78237003F06CFD48B100238DF8003043
:104A1000084B09491B78094802AAFFF7AEFC0DB004
:104A200030BD00BF8DE50320CCE3032030DC032044
:104A3000C6CF0D002DDF0320D4CF0D00D0E303201F
:104A400030B50D4D0FCD89B001AC0FC495E807000E
:104A50000A4B84E807001B7C094808AA02EB830381
:104A6000102153F81C3C074A03F002FE064B0122BA
:104A70001A7009B030BD00BF2CDA0D0090E503209C
:104A80002EDF032008DB0D00C0E503202DE9F04FE9
:104A90004FEA800909F1070483B004F4FF6402AF10
:104AA000ADEB040D02ADAC464FF0000E4CF804EB3C
:104AB000023800282ADADFF868B0DFF868A00C4670
:104AC00090461E46A9444D4524D0D4E902018DE804
:104AD0000300584694E80C0001F026FB51EC100B43
:104AE00006F014F948F8040B45F8040B05F0E6FD50
:104AF000DAE9002305F03AFE084B002205F060FFDA
:104B000006F004F9103446F8040BDCE74CF804EB2B
:104B10000138CEE70437BD46BDE8F08F00408F4036
:104B2000E8DE032028DC03202DE9F0472DED068B7D
:104B3000B94CBA4B206893F800A0A8B0CDF800A0FB
:104B400005F0BCFDB64B41EC1A0B93F80090CDF884
:104B50001090CDE90201606805F0B0FDB14B41EC69
:104B6000190B93F80080CDF82080CDE90601A068EC
:104B700005F0A4FDAC4B41EC180B1D780C95CDE96C
:104B80000A01E06805F09AFDA84B06461B782069EB
:104B900010930F46CDE90E6705F090FDA44BCDE9CB
:104BA00012011B786069149305F088FDA14C2495CF
:104BB000A14DCDF860A00023CDE916018DED1AAB13
:104BC0008DED1E9B8DED228BCDE92667CDF8709083
:104BD000CDF8808084F88830FFF732FFA86A01287A
:104BE0004AD12B7F4BB195484FF4B96101F01CFBC2
:104BF00051EC100B06F08AF820606B7F4BB19048A7
:104C00004FF4B96101F010FB51EC100B06F07EF887
:104C10006060AB7F4BB18B484FF4B96101F004FB8E
:104C200051EC100B06F072F8A060EB7F4BB1864898
:104C30004FF4B96101F0F8FA51EC100B06F066F888
:104C4000E06095F820304BB180484FF4B96101F035
:104C5000EBFA51EC100B06F059F8206195F8213071
:104C6000EBB17B484FF4B96101F0DEFA51EC100B67
:104C700006F04CF8606112E0022840F08F8004F1E9
:104C80003C0304F1300269460320FFF7FFFE04F104
:104C9000540304F148020CA90320FFF7F7FED4EDFA
:104CA000007A94ED067A6B4EF5EEC07AF1EE10FACA
:104CB000D8BFF1EE677A37EEC77AF7EE087AB4EE2E
:104CC000E77A0122F1EE10FA327059DA94ED017AA6
:104CD000D4ED076AB5EEC07AF1EE10FAD8BFB1EEA6
:104CE000477A37EE667AB4EEE77AF1EE10FA47DAF1
:104CF00094ED027AD4ED086AB5EEC07AF1EE10FABE
:104D0000D8BFB1EE477A37EE667AB4EEE77AF1EEC5
:104D100010FA35DA94ED037AD4ED096AB5EEC07A6B
:104D2000F1EE10FAD8BFB1EE477A37EE667AB4EEFC
:104D3000E77AF1EE10FA23DA94ED047AD4ED0A6AF8
:104D4000B5EEC07AF1EE10FAD8BFB1EE477A37EE81
:104D5000667AB4EEE77AF1EE10FA11DA94ED057A9C
:104D6000D4ED0B6AB5EEC07AF1EE10FAD8BFB1EE11
:104D7000477A37EE667AB4EEE77AF1EE10FA48DB5E
:104D8000012584F8885004F064FF3570C4F8800071
:104D9000284628B0BDEC068BBDE8F08703282AD151
:104DA00004F13C0304F130026946FFF76FFEEB7F2C
:104DB000F3B125484FF4B96101F036FA51EC100B0C
:104DC00005F0A4FFE06095F82030FBB11F484FF4D8
:104DD000B96101F029FA51EC100B05F097FF206141
:104DE00095F82130002B7FF43CAF0023636156E738
:104DF0000023E360E7E704287FF451AF04F1700378
:104E000004F1600218A9FFF741FEDCE700232361EB
:104E1000E6E70020BDE700BF28E4032020DC0320F4
:104E200021DC032022DC032023DC032024DC0320FC
:104E300025DC032040E4032090E5032050DF03201D
:104E400008E00320C0E0032078E1032030E20320E3
:104E5000E8E20320CCE4032010B5204C206805F0E4
:104E60002DFC1F4B41EC100B19781E4801F0D0F9B6
:104E7000606805F023FC1C4B41EC100B19781B48B3
:104E800001F0C6F9A06805F019FC194B41EC100BB4
:104E90001978184801F0BCF9E06805F00FFC164BD2
:104EA00041EC100B1978154801F0B2F9206905F0B2
:104EB00005FC134B41EC100B1978124801F0A8F9CE
:104EC000606905F0FBFB104B41EC100B19780F48A3
:104ED00001F09EF90E4B01221A7010BD28E4032048
:104EE00020DC032050DF032021DC032008E0032026
:104EF00022DC0320C0E0032023DC032078E1032030
:104F000024DC032030E2032025DC0320E8E2032038
:104F10004EDF032013B5224C206805F0CFFB214A59
:104F2000CDE900012021204803F0A2FB606805F0D4
:104F3000C5FB1E4ACDE9000120211D4803F098FB66
:104F4000A06805F0BBFB1B4ACDE9000120211A48EF
:104F500003F08EFBE06805F0B1FB184ACDE90001D3
:104F60002021174803F084FB206905F0A7FB154AB0
:104F7000CDE900012021144803F07AFB606905F0B7
:104F80009DFB124ACDE900012021114803F070FB7E
:104F9000FFF762FF0F4B01221A7002B010BD00BF75
:104FA00028E40320E5CF0D000DE50320F3CF0D002D
:104FB0006DE5032000D00D004DE5032010D00D005D
:104FC000EDE403202DD00D00CDE403204AD00D00E8
:104FD0002DE503204EDF032000B589B0039004F0D7
:104FE00073FC0D4B039983ED000A04A804F010FC38
:104FF00000238DF80030094B049A1B7808490948B2
:10500000FFF7BBF904A804F095FBFFF783FF01202D
:1050100009B05DF804FB00BF28E403202DDF032066
:1050200066D00D00D0E3032000B589B0039004F0F2
:105030004BFC0D4B039983ED010A04A804F0E8FB37
:1050400000238DF80030094B049A1B780849094861
:10505000FFF793F904A804F06DFBFFF75BFF012055
:1050600009B05DF804FB00BF28E403202DDF032016
:1050700081D00D00D0E3032000B589B0039004F087
:1050800023FC0D4B039983ED020A04A804F0C0FB36
:1050900000238DF80030094B049A1B780849094811
:1050A000FFF76BF904A804F045FBFFF733FF01207D
:1050B00009B05DF804FB00BF28E403202DDF0320C6
:1050C0009CD00D00D0E3032000B589B0039004F01C
:1050D000FBFB0D4B039983ED030A04A804F098FB36
:1050E00000238DF80030094B049A1B7808490948C1
:1050F000FFF743F904A804F01DFBFFF70BFF0120A5
:1051000009B05DF804FB00BF28E403202DDF032075
:10511000B9D00D00D0E3032000B589B0039004F0AE
:10512000D3FB0D4B039983ED040A04A804F070FB34
:1051300000238DF80030094B049A1B780849094870
:10514000FFF71BF904A804F0F5FAFFF7E3FE0120CE
:1051500009B05DF804FB00BF28E403202DDF032025
:10516000D5D00D00D0E3032000B589B0039004F042
:10517000ABFB0D4B039983ED050A04A804F048FB33
:1051800000238DF80030094B049A1B780849094820
:10519000FFF7F3F804A804F0CDFAFFF7BBFE0120F7
:1051A00009B05DF804FB00BF28E403202DDF0320D5
:1051B000F1D00D00D0E3032038B5046805467CB17A
:1051C0006368013B63605BB9236820469B6898472E
:1051D000A368013BA3601BB923682046DB6898479E
:1051E000284638BD1FB54B6801938B68029304466F
:1051F00013B1586801305860CB68039301A9204669
:1052000002F0B3FA02A8FFF7D7FF204604B010BDA2
:1052100010B58AB00A46014603A8FFF7E3FF039BD7
:105220000193049B0599029313B15A6801325A60A5
:1052300001AA06A804F09EF802A8FFF7BDFF07A880
:10524000089CFFF7B9FF04A8FFF7B6FF20460AB095
:1052500010BD00002DE9F047ADF5567D12A803F012
:1052600047F9934B934C9B6A012B40F0A78002F0C7
:105270005DF991494068FFF7CBFF064602F056F909
:105280008E494068FFF7C4FF074602F04FF98C498A
:105290004068FFF7BDFF804602F048F98949406841
:1052A000FFF7B6FF814602F041F987494068FFF7F2
:1052B000AFFF824602F098FC4568002D7CD00C358B
:1052C000606905F0FBF9CDE91001206905F0F6F9F8
:1052D000CDE90E01E06805F0F1F9CDE90C01A06817
:1052E00005F0ECF9CDE90A01606805F0E7F9CDE9D0
:1052F0000801206805F0E2F9129B744ACDE9060125
:10530000CDE904534FF400713346CDE9029ACDE95B
:10531000007856A803F0ACF9606905F0CFF9CDE943
:105320000A01206905F0CAF9CDE90801E06805F035
:10533000C5F9CDE90601A06805F0C0F9CDE9040181
:10534000606805F0BBF9CDE90201206805F0B6F907
:10535000CDE900015E4A4FF4807116A803F088F988
:105360005C4D5D495D4800268DF800602B7816AADB
:10537000FFF703F88DF8006059492B78574856AA73
:10538000FEF7FBFF2368A3616368E361A368236200
:10539000E36863622369A3626369E362514B01229C
:1053A0001A7002F09FFE504B186012A804F0C2F968
:1053B0000DF5567DBDE8F0874C4D81E7022B40F09E
:1053C0009B8002F0B3F83C494068FFF721FF064696
:1053D00002F0ACF839494068FFF71AFF074602F0BF
:1053E000A5F837494068FFF713FF804602F09EF8A2
:1053F00034494068FFF70CFF814602F097F83249C4
:105400004068FFF705FF824602F0EEFB4568002D7D
:105410004CD00C35206D05F051F9CDE91001E06C50
:1054200005F04CF9CDE90E01A06C05F047F9CDE986
:105430000C01A06B05F042F9CDE90A01606B05F0A3
:105440003DF9CDE90801206B05F038F9129B284A97
:10545000CDE90601CDE904534FF400713346CDE99F
:10546000029ACDE9007856A803F002F9206D05F004
:1054700025F9CDE90A01E06C05F020F9CDE9080134
:10548000A06C05F01BF9CDE90601A06B05F016F93B
:10549000CDE90401606B05F011F9CDE90201206B43
:1054A00005F00CF9134ACDE9000154E70F4DB1E7BF
:1054B00090E5032040E403200CD10D0012D10D0033
:1054C00016D10D001BD10D0023D10D002AD10D00E6
:1054D00035D20D002DDF032066D70D00D0E3032069
:1054E0007BD70D004FDF0320C4E5032084E00D00CF
:1054F000B7D20D00C4D30D00032B76D102F016F8FD
:1055000077494068FFF784FE064602F00FF87549B8
:105510004068FFF77DFE074602F008F872494068D0
:10552000FFF776FE804602F001F870494068FFF709
:105530006FFE814601F0FAFF6D494068FFF768FE93
:10554000824602F051FB4568002D4CD00C35606955
:1055500005F0B4F8CDE91001206905F0AFF8CDE908
:105560000E01E06805F0AAF8CDE90C01A06B05F08A
:10557000A5F8CDE90A01606B05F0A0F8CDE90801B6
:10558000206B05F09BF8129B5A4ACDE90601CDE944
:1055900004534FF400713346CDE9029ACDE9007807
:1055A00056A803F065F8606905F088F8CDE90A01AE
:1055B000206905F083F8CDE90801E06805F07EF880
:1055C000CDE90601A06B05F079F8CDE90401606B27
:1055D00005F074F8CDE90201206B05F06FF8464A3A
:1055E000CDE90001B7E6454DB1E7042B7FF4B8AE35
:1055F00001F09CFF3A494068FFF70AFE064601F0B9
:1056000095FF38494068FFF703FE074601F08EFF1B
:1056100035494068FFF7FCFD804601F087FF3349BC
:105620004068FFF7F5FD814601F080FF3049406892
:10563000FFF7EEFD824602F0D7FA4568002D4CD008
:105640000C35606905F03AF8CDE91001206905F0E4
:1056500035F8CDE90E01E06E05F030F8CDE90C012A
:10566000A06E05F02BF8CDE90A01606E05F026F872
:10567000CDE90801206E05F021F8129B204ACDE902
:105680000601CDE904534FF400713346CDE9029A87
:10569000CDE9007856A802F0EBFF606905F00EF83E
:1056A000CDE90A01206905F009F8CDE90801E06EAD
:1056B00005F004F8CDE90601A06E04F0FFFFCDE986
:1056C0000401606E04F0FAFFCDE90201206E04F0DF
:1056D000F5FF0C4ACDE900013DE6084DB1E700BFFA
:1056E0000CD10D0012D10D0016D10D001BD10D00F3
:1056F00023D10D0048D40D0054D50D0084E00D00D9
:10570000D7D50D00E3D60D0037B5794C2378013B92
:10571000052B17D8DFE803F0C60364704A93754B76
:105720005B7A2BB1744B1B78022B01D0FFF756F933
:1057300004F08FFA0A2390FBF3F202FB13030BB978
:105740000523237002F050FA02F02AFA01F0EEFE6F
:1057500001F007FF694801F051FA694B1B780BB162
:10576000FFF714F9674C23783BB13023614A664850
:10577000012100F066FE00232370644C237843B1BE
:105780008C23634A60484FF4007100F05AFE0023F6
:105790002370604C23783BB118235F4A5A48A021FC
:1057A00000F04FFE0023237003B030BD514D6A7AE4
:1057B0002AB1514B1B78052B01D0FFF70FF9FFF7EA
:1057C000B3F908B10423BCE704F043FA6B6A90FB19
:1057D000F3F202FB13030BB90323B2E70223B0E792
:1057E000444B5B7A2BB1444B1B78032B01D0FFF762
:1057F000F5F8FFF799F9E5E73E4B5B7A2BB13E4BA5
:105800001B78042B01D0FFF7E9F802F069FE68B1BC
:1058100004F030FA0C2805D102F062FE10B100202D
:1058200002F07EFEFFF716FD06238AE702F050FE27
:105830000223237002F056FC384B186082E72D4B90
:105840005B7A2BB12C4B1B78062B01D0FFF7C6F8E7
:10585000334B1B7843B904F0FCF90A2390FBF3F2B5
:1058600002FB1303002BB9D002F03CFC2D4B1B684C
:10587000C01A4AF6C87398427FF664AF02F032FC51
:10588000264D294A286000238DF80030274B2849EF
:105890001B782848FEF771FD0123237002F022FCDB
:1058A00028604FE7144B1B78012B01D0FFF796F8C7
:1058B00002F018FC194B1B6803F5922303F578736B
:1058C0008342BFF43FAF02F00BFE48B100238DF8D6
:1058D0000030164B184A1B7818491648FEF74DFD44
:1058E0004FF4FA6002F014FF04F038F82AE700BF22
:1058F0008DE5032090E50320CCE303200CE4032096
:10590000C1E50320C0E50320A0E30320CCE403208D
:1059100040E403204EDF032028E4032008E40320B2
:105920004FDF0320C4E5032084E00D002DDF0320BA
:1059300087D70D00D0E30320A0D70D00B4D70D000A
:1059400000B589B0096804A803F03FFF094B049A29
:105950001B7809498DF8003002A83C2303F0B4F805
:1059600003A8FFF729FC04A803F0E4FE09B05DF8E2
:1059700004FB00BF2DDF0320BAD70D001FB5094B74
:10598000094A1B781278094913438DF80030002228
:105990003C2302A803F098F803A8FFF70DFC05B01C
:1059A0005DF804FB2CDF03202DDF0320C6D70D009C
:1059B00010B588B001F0BAFD164A416804A8FFF797
:1059C00011FC04A803F0CEFB044605A8FFF7F4FB86
:1059D000DCB101F0ABFD0F494068FFF719FC01464F
:1059E00004A803F0F2FE0C4B049A1B780B498DF8C7
:1059F000003002A83C2303F067F803A8FFF7DCFBA4
:105A000004A803F097FE08B010BD05490548FEF74D
:105A10009DFCF8E70CD10D002DDF0320C8D70D0049
:105A2000D4D70D001CE60320FFF7C2BF10B50368F2
:105A300088B05B6804469847019005F0A6FA019982
:105A4000024605A803F0FAFCDDE905120023CDE9C2
:105A50000533636803936160A368A26004A804939C
:105A6000FFF7AAFB079BE36006A8FFF7A5FB08B0BA
:105A700010BD000010B5044B044640F8043B043050
:105A8000FFF79AFB204610BDE0D90D0010B5044683
:105A9000FFF7F0FF2046182104F07FFB204610BDE1
:105AA00013B50B460246D0E900016C4684E80300BA
:105AB00093E8030082E8030094E8030083E803000E
:105AC00002B010BD2DE9F04700219AB0082004F083
:105AD000DDFA0121052004F0D9FAFEF757FF002373
:105AE000009301224FF0FF33AF49082003F02CFA56
:105AF000AE4B0AAA03F110051746186859681446F8
:105B000003C40833AB422246F7D119889B78A370AF
:105B10002D2221800DF13B000021A54C002605F02F
:105B2000D9F902A8267002F0E3FC02A906A803F046
:105B30006FFEA04906A803F09FFECDE9006633463C
:105B400032469D49006802F0E3FC06A803F0F2FD2E
:105B500002A803F0EFFD99499948FEF78CFB99499B
:105B60009948FEF788FB99499948FEF784FB33462C
:105B700098499948022202F093FC33460122974942
:105B8000974802F08DFC97499748FEF774FB9749B8
:105B90009748FEF770FB97499748FEF76CFB9749CB
:105BA0009748FEF768FB97499748FEF764FB9749CB
:105BB0009748FEF760FB334696499748022202F069
:105BC0006FFC334602229549954802F069FC9549DD
:105BD0009548FEF791FB95499548FEF78DFB954951
:105BE0009548FEF789FB95497D48FEF785FB94496A
:105BF0009448FEF781FB94499448FEF77DFB944955
:105C00009448FEF779FB94499448FEF775FB944954
:105C10009448FEF771FB94499448FEF76DFB944954
:105C20009448FEF769FB94499448FEF765FB944954
:105C30009448FEF761FB94499448FEF75DFB944954
:105C40009448FEF759FB944800F0D2FE3146924842
:105C500001F00BF801F06AFC904B05930546904B60
:105C60000493022202A906A80896FEF74CFA059BA7
:105C7000099305F10C01049B089306A8FFF710FF98
:105C8000089B6A6908926B61099BAA69099206A838
:105C9000AB61FEF7F4FA834BEB612C20FEF7FBF9C6
:105CA000064610B1804901F08FFCAE601820FEF767
:105CB000F2F9064630B17D494FF4807201F0F4FBF1
:105CC0007B4B336028466E6001F0BEFD02A8FEF7F4
:105CD000D6FA01F089FF774B099306A9764B089312
:105CE00001F09EFF06A8FEF7CAFA01F07DFF734996
:105CF00002F000F8724800F017FB0123704806AA72
:105D0000002100F053FB9DF81830162B00F0E680C0
:105D10006B4800F013FB6B4A69480423002100F034
:105D200090FB0123664806AA002100F03FFB9DF886
:105D30001830162B29D001232370634DFEF7B6FDD2
:105D4000FEF784FDFFF788F86B78002B00F0EB80FE
:105D5000002002F0D7F94FF0000A0646002002F0BA
:105D6000D1F9B0EB060861EB0A09002347F22F5284
:105D70004B4508BF4245C0F0C88002F0B1FB002887
:105D800040F0C38002F09CFBE8E700238DF8003070
:105D90004E4B4F4A1B784F494F48FEF7EEFAFEF73D
:105DA000F3FCFEF723FDC8E7E1400D0048DA0D00E3
:105DB0008DE50320E2D70D0095430D0088DA0D0034
:105DC00007D80D003EDF03200FD80D002EDF032083
:105DD00017D80D0094E5032026D80D0091E5032087
:105DE0003ECE0D000DE5032074D80D006DE50320B7
:105DF00085D80D004DE5032096D80D00EDE4032075
:105E0000A9D80D00CDE40320BBD80D002DE503205B
:105E1000CDD80D00B4E5032035D80D00B8E503203A
:105E200048D80D0021410D0057D80D0099450D00AF
:105E300063D80D00C5440D007BCE0D0029440D0034
:105E4000D94F0D0070D80D0029500D0081D80D00DC
:105E500079500D0092D80D00C9500D00A5D80D0045
:105E600019510D00B7D80D0069510D00C9D80D00AA
:105E70003D410D00DAD80D0019460D00E8D80D009F
:105E8000D9460D00F7D80D0041450D0006D90D008B
:105E900039470D0022D90D000CE40320295A0D00CA
:105EA00007410D008051010030D90D0000F403209E
:105EB00008DA0D0041590D0011410D0014F50320C1
:105EC000A0E3032090DA0D0090E503202DDF0320EE
:105ED00047D90D0052D90D00D0E3032000238DF8DF
:105EE0000030204B204A1B7820492148FEF745FA14
:105EF000204A21481823A02100F058FA1F4A1E48C2
:105F00003023012100F052FA17E702F0E9FA68683D
:105F1000FEF7F8F96B681A484FF47A716FF0004297
:105F20005943FEF702FAFEF7F5FFFEF7FDFD6B7A27
:105F30004BB100238DF800300A4B12491B780C48F6
:105F40003A46FEF71AFA02F0CBFA10B902F0B8FAA4
:105F5000F9E702F0C5FA23780BB9022323701AB0CF
:105F6000BDE8F0872DDF032047D90D0063D90D0070
:105F7000D0E3032028E40320A0E3032090E50320DE
:105F8000B0E3032075D90D00F0B54F4B4F4D504E87
:105F900001271F704F4B022287B01A7004F020F8BF
:105FA00000231A4642F6D65104F022F804F018F8FD
:105FB00000231A460C21002404F022F8464BAB6063
:105FC0002C60AC80AC71384602F014FA324643497A
:105FD000284604F0DDF82146384602F01BFA39461F
:105FE000042002F05FF804F0ABF83D4D0146234673
:105FF0004FF40052284600F08DF93A4B2B603246A0
:106000003949284604F0C4F804F09AF8374D01469F
:10601000284600F0F5FB2846354D3649324604F057
:10602000B7F835494FF40062284601F05FF8334B6A
:106030002B6032463249284604F0AAF8314B0293CD
:10604000314B324D0593324B0493324B2B602C7104
:10605000AC606C6105F10C0102A8FFF721FD6A69D3
:10606000049B6B610492059BAA690592AB612A4A65
:106070002B464FF47A71CDE9004405F1080001F098
:10608000B9FF02A8FEF7FBF82846244D2449324602
:1060900004F07EF82146C5E90C44C5E90F44C5E982
:1060A0001244C5E91544AC636C642C65EC651022A0
:1060B00005F1600004F00EFF1022214605F170008A
:1060C00004F008FF07B0F0BD2DDF032020DF032020
:1060D000E0DE03202CDF03200000FFFF67420D00FD
:1060E000A0E30320C4D90D0005420D000CE40320F9
:1060F000D0E303208B650D0040F503209CD90D00F3
:10610000DD410D007D590D00ED400D00B0E3032091
:10611000F1400D0088D90D002D420D0040E4032010
:1061200091420D000000000082B02DE9F84F0AA94D
:1061300081E80C00344BDFF8D4B00022C0E904231E
:10614000044640F27E654FF0000ABDF8280003F0D7
:10615000C7FFD4E90489206004F09EFA42464B460A
:1061600006460F4604F04AF952465B4604F0FEFA32
:1061700042464B4604F044F902460B46C4E9042368
:106180003046394604F03AF902460B46C4E9022388
:1061900004F0ECFA02460B46C4E90623D4E90823CE
:1061A00004F02EF9013D06460F46C4E90867CCD13C
:1061B000DDE90C0110A3D3E9002304F0D7FA10A302
:1061C000D3E90023804689463046394604F0F8FB7F
:1061D00041EC100B03F0EAFF00220023C4E908237E
:1061E00051EC100B42464B4604F0C0FABDE8F84FA4
:1061F00041EC100B02B070476666666666664A3F01
:106200000000000000F899400000A0400000303F6E
:10621000034BC162002280ED0E0BC0E91C237047C6
:106220000000A040000000002DE9F74FDFF8C8B0E3
:106230000191044600254FF0000A019B9D422FD09A
:10624000A08D03F04DFFD4E91C89E06404F024FA2A
:1062500042464B4606460F4604F0D0F852465B468F
:1062600004F084FA42464B4604F0CAF802460B4654
:10627000C4E91C233046394604F0C0F802460B46F8
:10628000C4E9182304F072FA02460B46C4E9242339
:10629000D4E9260104F0B4F80135C4E92601CCE7BD
:1062A00013A3D3E90023D4E90E0104F05FFA0646F4
:1062B00028460F4604F0E0F902460B46D4E92601D1
:1062C00004F07EFB41EC100B03F070FF32463B46BE
:1062D00051EC100B04F04AFA41EC100B00220023A1
:1062E000C4E90801C4E9262303B0BDE8F08F00BF6C
:1062F0006666666666664A3F0000503F704710B5A6
:106300001021044603F049FF204610BD0368C9B2BE
:106310009B68184730B5034DC0E90223C0E900511E
:1063200030BD00BFC8DA0D00406802F0BFBD10B537
:106330000446006802F0FDFD204610BD2DE9F04145
:106340008AB004464068019002F0EAFD1E22002156
:1063500002A8A76804F0BEFD0026EFB123681E2F37
:10636000B84628BF4FF01E08DD6802AA43463146F2
:106370002046A847054658B90A480B493246FDF75A
:10638000E5FF01A8FFF7D3FF28460AB0BDE8F0817A
:10639000A7EB08074644E0E701A8FFF7C8FF01257F
:1063A000F2E700BF1CE6032094DA0D002DE9F74365
:1063B0000446406801900D4616461F4602F0B0FDA7
:1063C000A7B1E168606841F0500102F0A2FD290A1E
:1063D0006068FFF79BFF29466068FFF797FF6068DA
:1063E000002102F099FD48B1002400E0012401A839
:1063F000FFF79DFF204603B0BDE8F083202F217BEF
:106400006068B84628BF4FF020080123424641F09B
:10641000500102F068FD03F093FE03681B69984782
:106420004045E1DB06EB080903F08AFE03685B697F
:10643000984706F8010B4E45F6D14544A7EB0807EF
:10644000BEE72DE9F74F0446406801900E4690469E
:106450001D4602F065FD4FF00109B9F1000F2AD089
:106460004DB3E168606841F0500102F052FD310A1D
:106470006068FFF74BFF60683146FFF747FFA5F103
:106480001E0A4746A6EB080B606817F8011B036855
:10649000013D9B68984755450BEB0706B84601D070
:1064A000002DF1D16068012102F036FD0028D7D01F
:1064B0004FF00009D1E701A8FFF739FF484603B0C4
:1064C000BDE8F08F2DE9F0438BB00E4615468046AF
:1064D000406801901C4602F023FDAE4229D22644BA
:1064E00025448CB11E2C2746D8F8003028BF1E2723
:1064F000F61BD3F8089002AA3B4631464046ED1BF6
:10650000C84748B9002400E0012401A8FFF70FFFA5
:1065100020460BB0BDE8F083D8F8003002AAD3F8CB
:106520000C9029463B464046C8470028EAD0E41B69
:10653000D7E7E9D9002CE7D0D8F800301E2C274641
:1065400028BF1E27D3F8089002AA3B463146404692
:10655000C8470028D6D0D8F8003002AAD3F80C904B
:1065600029463B464046C8470028CBD03E443D44E0
:10657000E41BDFE740207047002070478020704711
:10658000FF207047704770477047704710B514215F
:10659000044603F002FE204610BD10B50821044653
:1065A00003F0FBFD204610BD10B50821044603F0A2
:1065B000F4FD204610BD10B51C21044603F0EDFD8E
:1065C000204610BD2DE9FF410368DB68044698476B
:1065D00010220146684604F07DFC236820469B6833
:1065E0009847002507462846BD420ED27E1B2368E9
:1065F000102E28BF1026D3F818806A463346294645
:106600002046C04708B13544EEE704B0BDE8F0814C
:106610004FF48073438140F20113C360002303826F
:106620007047000008B5064B0360064B436040F21C
:106630000473038100234374FFF7EAFF08BD00BF22
:10664000A8DB0D000001020303090A2200F00F007D
:1066500002FB0300704708B5807AFFF7F5FF00F5ED
:10666000FA6008BDC07A00F01F00FFF7EDBF007BA5
:1066700000F03F00FFF7E8BF08B5817B4A060DD563
:1066800001F01F00FFF7E0FF8B0603D50C2800D0B8
:106690000C3008BD0C2808BF0020FAE7BDE8084010
:1066A00001F03F00FFF7D0BFC07B00F07F00FFF795
:1066B000CBBF007C00F07F00FFF7C6BF10B58AB0EB
:1066C00024220446002101A804F004FC2046FFF720
:1066D000C2FFA0F26C7006902046FFF7C3FF01389E
:1066E00005902046FFF7C3FF04902046FFF7C4FF44
:1066F00003902046FFF7D8FF02902046FFF7D9FF0E
:10670000019001A801F0FCFF0AB010BD0A2190FB26
:10671000F1F292FBF1F301FB13231B01DBB201FB4E
:1067200012001843C0B27047642310B5044691FBB1
:10673000F3F000FB1310FFF7E9FFA07210BD10B5D6
:1067400004460846FFF7E2FFE07210BD10B50446AC
:106750000846FFF7DBFF237B23F03F03184320733A
:1067600010BD10B50446481CFFF7D0FF637B23F033
:1067700007031843607310BD10B504460846FFF7C1
:10678000C5FFA07310BD10B504460846FFF7BEFF55
:10679000E07310BD10B504460846FFF7B7FF237C31
:1067A00023F07F031843207410BD37B504466846B4
:1067B000CDE9002304F054FB054641692046FFF76C
:1067C000B3FF296920460131FFF7B9FFE968204688
:1067D000FFF7BCFFA9692046FFF7C3FFA968204661
:1067E000FFF7CAFF69682046FFF7CDFF29683B29FC
:1067F000A8BF3B212046FFF7CDFF03B030BD00000E
:10680000054A0061C0E90021044A8260044AC2606E
:10681000044A806142617047DCDB0D000000010327
:1068200084DB0D00B8DB0D002DE9F84F04460F4660
:106830009046994600260A9B9E4231D260683946AE
:1068400002F063FB08EB06016068FFF75FFD60681C
:10685000002102F061FB0546D0B90A9B60689A1BD3
:10686000202A4FF0010328BF2022394602F03BFBCB
:1068700009EB060B05460BEB000ADA4506D060680B
:1068800003685B6998470BF8010BF6E72E44D2E7E3
:10689000024604490448FDF759FD2846BDE8F88F33
:1068A0000025FAE7DCDA0D00C8E503202DE9F34105
:1068B00001EB03081E4603689B6805460C46174615
:1068C000984780450DD82034686800963B46E2B270
:1068D0006F21FFF7A9FFB0FA80F0400902B0BDE8D0
:1068E000F0810020FAE72DE9F34101EB03081E4691
:1068F00003689B6804460D461746984780450CD8A8
:10690000606800963B46EAB25721FFF78DFFB0FA68
:1069100080F0400902B0BDE8F0810020FAE77FB5C1
:106920001E1E0CBF072306230093144602AB0A4623
:106930006F21FFF779FF0546A8B99DF80830237449
:106940009DF80930E3739DF80A30A3739DF80B306E
:1069500063739DF80C3023739DF80D30E3722EB9EC
:106960009DF80E30A372284604B070BD03F08EF976
:10697000FFF7CCFEA072F6E71FB501230A4600938D
:106980006F2103ABFFF750FF20B99DF80C0005B055
:106990005DF804FB0020FAE708B50321FFF7ECFFE0
:1069A000C0F3401008BD38B500230C460A4619460E
:1069B0000546FFF7B4FF30B9A37A23B12846BDE8F6
:1069C0003840FFF7E9BF002038BD7FB5024601A877
:1069D000FFF728FE01A91046FFF7E5FF28B101A83F
:1069E000FFF76CFE07B05DF804FB00200146F9E7F5
:1069F000D0B5044686B0406802F058FA03F00CF9AE
:106A0000E8B9E37A9B071AD52046FFF7DEFF064672
:106A10000F4656EA070312D003F005F80A4B0B495C
:106A20001B68009332463B4602A803F0B3F80848BF
:106A3000029A0849FDF78AFC02A802F07BFE0123B6
:106A4000237206B0D0BD00BF00DD032048E603205E
:106A5000C8E50320F6DA0D002DE9F84F0646884612
:106A600091469A4600250A9B9D4229D2706841466C
:106A700002F04BFA706809EB0501FFF747FC0A9B2F
:106A80005F1B1F2F28BF1F270AEB050407EB040B12
:106A9000706814F8011B026892689047A345F7D10B
:106AA0007068012102F038FA044638B102460549FF
:106AB0000548FDF74BFC2046BDE8F88F3D44D2E782
:106AC0000024F8E70BDB0D00C8E503202DE9F341B6
:106AD00001EB03081E4603689B6805460C461746F3
:106AE000984780450DD82034686800963B46E2B24E
:106AF0006F21FFF7B1FFB0FA80F0400902B0BDE8A6
:106B0000F0810020FAE71FB5137C8DF80830D37BA5
:106B10008DF80930937B8DF80A30537B8DF80B305C
:106B2000137B8DF80C30D37A8DF80D30937A8DF875
:106B30000E30072300930A4602AB6F21FFF78CFF4C
:106B400005B05DF804FB10B588B0044603A80193B6
:106B5000FFF768FD019B03A8FFF727FE9DF81C3097
:106B6000A27A63F07F038DF81C309DF819306AB16A
:106B700043F0080303AA002120468DF81930FFF7DF
:106B8000C2FFB0FA80F0400908B010BD03F0F7036F
:106B9000F0E70000F0B587B0054603F03DF8044685
:106BA000E8B103F056F8C717024606463B462846AA
:106BB000FFF7C9FF0C4B0D491B68009332463B465B
:106BC000044602A802F0E6FF0948029A0949FDF7C7
:106BD000BDFB02A802F0AEFD204607B0F0BD06499D
:106BE0000348FDF7B3FBF7E700DD032048E6032089
:106BF000C8E5032026DB0D003CDB0D0037B5457AE8
:106C000004469DB903F008F880B1002200236946CC
:106C10002846CDE9002301F093FC38B1E37ADB0785
:106C200002D52046FFF7B6FF0123637203B030BDE3
:106C30001FB501238DF80C2000930A4603AB6F218A
:106C4000FFF70AFF05B05DF804FBF8B504460D46F2
:106C500017461E46FFF790FE00EA07023243294618
:106C60002046BDE8F840FFF7E3BF012908B50CD87E
:106C700000294FF0000314BFDF22EF220721FFF7A6
:106C8000E4FFB0FA80F0400908BD0020FCE738B509
:106C9000044632256068572102F037F96068012107
:106CA00002F03AF908B1013DF4D138BD2DE9F041C7
:106CB00004460F46164602EB0308B04520D0606834
:106CC000572102F022F939466068FFF71FFB606820
:106CD00016F8011B03689B6898476068012102F061
:106CE0001BF90137054638B1024606490648FDF74B
:106CF0002DFB2846BDE8F0812046FFF7C8FFDCE702
:106D00000025F6E751DB0D00C8E50320F7B5CF18E5
:106D10001E46036801929B6804460D4698478742C9
:106D20000AD8019A60683346E9B2FFF7BFFFB0FAAC
:106D300080F0400903B0F0BD0020FBE7014B024AA0
:106D40001A607047C8E5032072DB0D00012A034674
:106D500002D1016000207047022A04BFD1E900017E
:106D6000C3E90001F6E710B5012303748368044604
:106D700043B1C0689847012363740020BDE8104008
:106D800001F080B900680028F5D083680BB903F0E2
:106D90000AFAC368EEE710B442680346541001EBE8
:106DA0006200D20748BF0A591B685DF8044B48BF10
:106DB000D35818470123F7B580F829300646083024
:106DC00001F038F90420FDF766F9054698B31B4930
:106DD000142003F0E4F930B10023C0E90033C0E926
:106DE0000233037443742860A0B1154B1549C0E900
:106DF00002364FF40063CDE900030222124B043047
:106E000001F0E0F830B92B681B7CA3B9012001F038
:106E100059F9F8E72C6800232B6064B1276837B173
:106E20003846FDF72CFA1021384603F0B6F9142144
:106E3000204603F0B2F9756003B0F0BD5CE00D00D0
:106E400053700D00E4DB0D00676D0D0047F230510B
:106E5000084AC160084902600022C0E904120749DB
:106E6000C16107494260C0E908228161028580F85A
:106E70002A207047A8DC0D00BD710D00976D0D0034
:106E80004D6D0D0010B5044B044640F8103BFDF766
:106E9000F6F9204610BD00BFA8DC0D0010B5034B6D
:106EA00003600446FFF7EEFF204610BDD0DC0D0066
:106EB00010B50446FFF7F2FF2046382103F06DF9C4
:106EC000204610BD806801F0BDB8806801F0C2B8EE
:106ED00010B504460068FFF7F8FF204610BD13B553
:106EE00004460190FFF7EEFFE36ADC88A4B20CB120
:106EF00003F1080401A8FFF7EBFF204602B010BD24
:106F000013B504460190FFF7DDFF94F8283043B92C
:106F1000E26A0124D38001A8FFF7DAFF204602B01D
:106F200010BD0024F7E713B504460190FFF7CAFF30
:106F3000E36A01A8DC88FFF7CBFF204602B010BD52
:106F40002DE9F047994686B090F829309DF838A091
:106F50009DF83C8004460F46164613B903689B68AB
:106F60009847314B3846002E08BF1E4604F00DF8F6
:106F70000546304604F009F8284400F10A05AB073D
:106F80001CBF25F0030504353346CDE90285CDE964
:106F9000009A264926483A46FDF7D8F9238E083B41
:106FA000AB4212D20024204606B0BDE8F087CB8861
:106FB000012B36D005A8FFF78BFF236894F8281023
:106FC0009B69204698470028ECD020460594FFF79F
:106FD00079FFE16A228E636B0A44D21AAA42E6D391
:106FE00048EA0A0883F80480C3F80090636B03F151
:106FF00008083946404603F0A3FF404603F0C5FFAA
:1070000001303146404403F09BFF636BE26A1D444C
:107010006563D3880133D380012405A8FFF758FFA7
:10702000C1E70024F9E700BF84E00D00F6DB0D00A6
:10703000CCE5032008B5044600F11005A3690BB99F
:1070400003F0B1F8E36921462846984700F0C2FFF3
:10705000F4E708B5FFF7EEFF68B501F1080506464D
:10706000284603F092FF01300544284603F08DFFC7
:10707000F36A01302844C31A13F003031CBFC3F1A1
:107080000403C01868BDF7B504460E460190FFF72B
:1070900019FFE76AFB8807F10805E6B1012B22D941
:1070A00029462046FFF7D8FF054629462046FFF728
:1070B000D3FF228E3A44121A0146A0EB050602D0F5
:1070C000284603F0EDFE636B9B1B6363FB88013B6B
:1070D000FB80012601E0002BE7D101A8FFF7F8FEB5
:1070E000304603B0F0BD0026F7E700002DE9F04779
:1070F0000D4604462F461646FFF7A8FE154B57F8D7
:10710000082B2360144BE5629A422686984617D1D5
:10711000AB889BB2B34213D105EB060A67634FF00D
:107120000009EB881FFA89F29BB29A420ED2616B7A
:107130002046FFF791FF5045606309F10109F0D93E
:107140000023C5F800806763AE80EB802046BDE871
:10715000F08700BFD0DC0D0061AB9CD110B5D1E948
:10716000002386B00021044604910AB9D90705D549
:10717000CDE902230F4B05930F4B049302AB93E829
:1071800003006A4682E8030094E8030083E80300F2
:1071900092E80300049A84E80300A168A260059ABB
:1071A00004911846E168E2600591FDF768F8204611
:1071B00006B010BD976D0D004D6D0D0007B5054B68
:1071C00000936946002310300193FFF7C7FF03B017
:1071D0005DF804FB05720D0013B5044600F082FF54
:1071E000636AC01AE368984208D3054B0093694666
:1071F000002304F110000193FFF7B0FF02B010BDAF
:1072000005720D002DE9F04190F82A3086B0044651
:10721000002B64D101F064F9002860D000F062FF17
:10722000636AC01A40F2F133984258D92368204665
:107230005B6998470546002851D000F108070123F3
:1072400084F82830384603F0A0FE95F80480CDF885
:10725000048001302B682B4900933E1833462A489E
:107260003A46FDF773F82B688DF8008032463946B0
:1072700002A801F029FC029D6B781BB9012001F0E6
:1072800047FAF8E7002001F0CDF820B16B7813B988
:1072900001F016F9FAE72B78012B23D11B491A4884
:1072A000FDF754F8236800219B6920469847002386
:1072B00084F8283000F016FF6062039C7CB163689C
:1072C000013B63605BB9236820469B689847A368CD
:1072D000013BA3601BB923682046DB68984706B0D2
:1072E000BDE8F081E2680A490748FDF72FF8094B2D
:1072F000049304A9002304F110000593FFF72EFF67
:10730000D5E700BF37DC0D00CCE5032058DC0D00CD
:107310006FDC0D00D9710D00014B024A1A607047F5
:10732000CCE5032096DC0D007047704700691430EF
:107330007047012A034602D1016000207047022AEB
:1073400004BFD1E90001C3E90001F6E710B5044B21
:10735000044640F80C3B02F0EDF9204610BD00BF9A
:1073600050DE0D0010B50446FFF7F0FF20461C214B
:1073700002F013FF204610BD10B5054B044640F83F
:107380001C3B02F0D7F92046FFF7E0FF204610BD76
:1073900034DE0D0010B50446FFF7EEFF20462C2129
:1073A00002F0FBFE204610BD13B5044608460191CD
:1073B00003F0EBFD6369013B83420FD9206901991A
:1073C000143003F0BDFD23682046DB68984723682E
:1073D0001B6A204602B0BDE810401847002002B0EA
:1073E00010BD10B442680346541001EB6200D2078E
:1073F00048BF0A591B685DF8044B48BFD35818476B
:10740000022A38B5044607D0032A11D0012A01D137
:107410000B682360002038BD0C200D68FCF73BFE94
:1074200003460028F5D095E8070083E80700F0E759
:1074300000680028EED00C2102F0AFFEEAE770B43D
:10744000036809685C689D681B681268661005EB34
:107450006400E40744BFAC59E35870BC184700000F
:1074600010B5064B044640F8243BFCF708FF04F136
:107470000C00FCF704FF204610BD00BFF4DD0D003A
:1074800010B50446FFF7ECFF2046382102F085FED8
:10749000204610BD08B503685B689847007800383F
:1074A00018BF012008BD000010B50024C0E9014448
:1074B000C460024C0460C0E9041210BD08DE0D0077
:1074C00070B504460069114D0268AA4206D10379DD
:1074D000142B03D1C288A38A9A4211D014263246B3
:1074E000002103F0F7FC23691D6023691E71D4E9B4
:1074F0000432DA80D4E904020021304403F0EAFCCB
:1075000023682046DB68BDE87040184753DD5172A0
:10751000054A02600022C0E90122C0E90722426157
:10752000C2624263704700BFF4DD0D0010B5064C27
:1075300023683BB93820FCF7AEFD034608B1FFF7DE
:10754000E7FF2360206810BDD4E5032007B5019252
:10755000FFF7ECFF036801991B6803B05DF804EBCB
:10756000184710B50446406803681B699847A0682F
:1075700010B103685B689847E36A33B1236B214617
:1075800004F12400BDE81040184710BD10B58AB0C2
:10759000044606A8019100F0ABFF019B069A094939
:1075A00002A802F0A3F906A802F0C4F8029904F1B7
:1075B0000C0002F038F902A802F0BCF820460AB02C
:1075C00010BD00BFF0DC0D004FF4FA624EF66023F0
:1075D00070B5C0E9012304460C4B40F80C3B0D4646
:1075E00026460B4902F0F1F80A4B46F81C3B0849C5
:1075F000304602F0EAF82946304602F014F92946EE
:107600002046FFF7C3FF204670BD00BF50DE0D00CF
:1076100084E00D0034DE0D00826810B50AB902F076
:10762000C2FDBDE81040C3681847000038B50446E5
:107630000A460A480D460A49FCF788FE606802239C
:10764000236248B1036829465B69984763691BB1A7
:1076500004F10C00FFF7E0FF012038BD1CE6032019
:1076600005DD0D001FB50446C26909490948FCF74C
:107670006DFE094B094A1B78E1698DF8003002A8BC
:107680003C2301F021FA03A8FDF796FD04B010BDDC
:107690001ADD0D001CE60320D0E5032084E00D0078
:1076A00038B5002383608B6804460D462BB1022257
:1076B0009847EB68E360AB68A360204638BD0000E4
:1076C00070B58AB0C668044600250C200495FCF706
:1076D000E2FC18B1134B8460C0E90035124B0290F4
:1076E000059302A9114B049306A8FFF7D9FF089B45
:1076F00083B11020FCF7CFFC044658B106A9FFF770
:10770000CFFF0023CDE9003309490123224630464B
:1077100000F0FEFE06A8FCF7B2FD02A8FCF7AFFDE4
:107720000AB070BD4D750D003F740D0001740D0061
:10773000C7880D000B68036013B15A6801325A60A4
:10774000704737B58D6851F8043B0093044601A893
:10775000FFF7F0FF6A462946204601F02FFE01A8F8
:10776000FDF72AFD204603B030BD70B58CB004464D
:1077700006A81646FFF7E5FF06A801F037FE002829
:107780002DD0099D069B009307A901A8FFF7D2FF02
:1077900029466A4602A801F0EDFD01A8FDF70CFD9F
:1077A0000498314603F0C2FB054603A8FDF704FD2B
:1077B000002DE1D10A9D069B029307A903A8FFF7BC
:1077C000B9FF02AA2946204601F0BEFC03A8FDF736
:1077D000F3FC07A8FDF7F0FC20460CB070BDC4E92F
:1077E0000000A060F5E7000010B5D1E9002386B0E5
:1077F0000021044604910AB9D90705D5CDE9022331
:107800000F4B05930F4B049302AB93E803006A46BA
:1078100082E8030094E8030083E8030092E8030091
:10782000049A84E80300A168A260059A04911846AE
:10783000E168E2600591FCF722FD204606B010BD2C
:10784000E3730D0033730D0013B50446406880B137
:1078500003689B689847A06858B103681B689847FD
:10786000054B00936946002304F124000193FFF7C0
:10787000BBFF02B010BD00BF7D780D0013B50446FC
:107880004068FFF707FE28B163691BB104F10C00E3
:10789000FFF7C2FE054B00936946002304F1240064
:1078A0000193FFF7A1FF02B010BD00BFB1780D003A
:1078B00013B5044600F014FE90B102F0ADF978B1B2
:1078C00008490948FCF742FD084B0093694600232C
:1078D00004F124000193FFF787FF00F003FC6063CD
:1078E00002B010BD43DD0D001CE60320F1780D0051
:1078F00037B5044600F0F6FB636BC01AA3685B68FB
:10790000984217D36068FFF7C5FD04F1240598B1CC
:10791000E369013310D00B490B48FCF717FD00F069
:10792000E1FB0A4B606300936946002328460193FC
:10793000FFF75AFF03B030BD05490348FCF706FDC9
:10794000044BF0E753DD0D001CE6032059790D00D0
:1079500063DD0D00BD790D0037B5044600F0C2FBB4
:10796000636BC01A42F20F7398421ED902F054F9A9
:10797000D8B1E369002B18DD02F06BF905466068A9
:1079800003681B6898478068E3692D1A9D420CDDE7
:1079900007490848FCF7DAFC074B009369460023C7
:1079A00004F124000193FFF71FFF03B030BD00BFB7
:1079B00080DD0D001CE60320BD790D0037B50446BF
:1079C0000F491048FCF7C2FC606803681B689847C1
:1079D000054602F03EF90123A860236200F082FB15
:1079E000094B606300936946002304F1240001936E
:1079F000FFF7FAFEA06803689B68984703B030BDA4
:107A000099DD0D001CE603200D7A0D0013B5036A05
:107A1000012B04461BD100F065FB636BC01AA36801
:107A20009B68984211D90C490C48FCF78FFC042341
:107A3000236200F057FB0A4B606300936946002302
:107A400004F124000193FFF7CFFE02B010BD0549F9
:107A50000248FCF77BFCECE7AADD0D001CE60320E6
:107A600059790D00CADD0D00014B00221A707047D4
:107A7000D0E503207047012A034602D101600020AF
:107A80007047022A04BFD1E90001C3E90001F6E70B
:107A900013B504461046019203F077FA6368019922
:107AA00002461E2A03F10C0006D803F049FA01230E
:107AB00084F8353002B010BD1F2203F080FA6368ED
:107AC000002283F82B20F2E710B4426803465410DA
:107AD00001EB6200D20748BF0A591B685DF8044BEE
:107AE00048BFD3581847022A38B5044607D0032A9E
:107AF00011D0012A01D10B682360002038BD0C2071
:107B00000D68FCF7C8FA03460028F5D095E8070091
:107B100083E80700F0E700680028EED00C2102F0AF
:107B20003CFBEAE770B4036809685C689D681B6801
:107B30001268661005EB6400E40744BFAC59E358D3
:107B400070BC184710B5064B044640F8203BFCF7C4
:107B500096FB04F11000FCF792FB204610BD00BF1D
:107B600084DE0D0010B50446FFF7ECFF20463821F7
:107B700002F013FB204610BD10B5034B0360044612
:107B8000FFF7E0FF204610BD98DE0D0010B504465B
:107B9000FFF7F2FF2046382102F0FFFA204610BD21
:107BA000836A014613B1C36A20301847704700004A
:107BB00030B5074A0260002400220025C0E90245D2
:107BC0004260826182620263828680F8362030BD24
:107BD00084DE0D0008B50346FFF7EAFF014A1A608C
:107BE000184608BD98DE0D0010B5064C23683BB959
:107BF0003820FCF750FA014608B1FFF7EBFF21608F
:107C0000206810BDDCE5032007B5826801910AB940
:107C100002F0C9FAC36801A9984703B05DF804FBF4
:107C20007FB5002302938B6804460D4600F11006D1
:107C300033B1022268469847EB680393AB6802931E
:107C400031466846FDF72CFF029BA269A361039BA6
:107C500002926846E269E3610392FCF710FB20465A
:107C600004B070BD1FB5D1E9002300210446029184
:107C70000AB9D90705D5CDE900230B4B03930B4B6C
:107C8000029321466846FDF70BFF029BA268A360A2
:107C9000039B02926846E268E3600392FCF7EFFA06
:107CA000204604B010BD00BFC97A0D00777A0D00E0
:107CB00073B5044640680D4D0268AA4202D10379AB
:107CC0002C2B08D02C263246002103F003F96368E0
:107CD0001D6063681E71064B00936946002304F122
:107CE00020000193FFF7BEFF02B070BDF2A28777BC
:107CF000FD7C0D004160FFF7DBBF000037B5416838
:107D00000B7B044600F1200593B183691BB10C3154
:107D10001030FFF779FF0A4B00936946002328468D
:107D20000193FFF79FFF00F0DDF9206303B030BD42
:107D3000044A69462846CDE90023FFF793FFF5E79B
:107D4000997E0D00217F0D0013B5044600F0C8FB9D
:107D500070B101F061FF58B1064B009369460023F2
:107D600004F120000193FFF77DFF00F0BBF92063D1
:107D700002B010BD797D0D0030B5054685B000F02C
:107D8000B1F92B6BC01AB0F5FA6F29D3154B164910
:107D90001B788DF80030002285F835203C2302A89E
:107DA00000F092FE039C7CB16368013B63605BB9A9
:107DB000236820469B689847A368013BA3601BB9D2
:107DC00023682046DB689847084B029302A90023EA
:107DD00005F120000393FFF745FF00F083F92863C6
:107DE00005B030BDD8E5032064DE0D00F17D0D0047
:107DF00073B590F8355004461DB34668337B00F1E7
:107E00002005DBB101F025FFB060236820469B68A8
:107E10009847A3692BB1616804F110000C31FFF79A
:107E2000F3FE0F4B00930023019369462846FFF7AA
:107E300019FF00F057F9206302B070BD094A0092A3
:107E4000F2E700F04FF9236BC01A43F697239842EC
:107E5000F2D9044B6946CDE9003504F12000E6E78C
:107E6000997E0D00697E0D0013B5044600F03AF9C5
:107E7000236BC01A064B984208D9064B00936946FB
:107E8000002304F120000193FFF7ECFE02B010BDC7
:107E9000DF930400497D0D00F7B5044600F022F998
:107EA000236BC01A42F20F7398421ED900F01AF9E0
:107EB00094F8365020635DB1184A0023CDE90023C1
:107EC00084F83630694604F12000FFF7CBFE0CE061
:107ED000D4E9022313430AD1A36A33B104F1200188
:107EE000032208469847C4E90A5503B0F0BD01F0E3
:107EF00093FE0028F9D06368D4E902679B68F618FE
:107F000047EBE37701F0A5FEC117864277EB01034B
:107F1000EBDA024BCDE90035D4E700BF217F0D003D
:107F200030B590F834508BB004466DBB0C200495EE
:107F3000FCF7B1F818B11A4B8460C0E90035194B51
:107F40000290059302A9184B049306A8FFF7A8FB1B
:107F5000089B83B11020FCF79EF8054658B106A98E
:107F6000FFF79EFB0023CDE90033104910480123A1
:107F70002A4600F0CDFA06A8FCF781F902A8FCF722
:107F80007EF9012384F834300A4B069306A90023B6
:107F900004F120000793FFF765FE0BB030BD00BF72
:107FA000917A0D00257B0D00E77A0D00C7880D0042
:107FB00064DE0D00497D0D00014B00221A707047F0
:107FC000D8E5032008B5024B1B685B68019308BD28
:107FD0004802030008B5024B1B68DB68019308BD2B
:107FE0004802030008B5024B1B68DB69019308BD1A
:107FF0004802030008B5024B1B681B6A019308BDC9
:108000004802030008B5024B1B685B6A019308BD78
:108010004802030008B5024B1B689B6A019308BD28
:108020004802030008B5024B1B68DB6A019308BDD8
:108030004802030008B5024B1B681B6B019308BD87
:108040004802030008B5024B1B689B6B019308BDF7
:108050004802030008B5024B1B681B6C019308BD66
:108060004802030008B5024B1B685B6C019308BD16
:108070004802030008B5024B1B689B6C019308BDC6
:108080004802030008B5024B1B68DB6E019308BD74
:108090004802030008B5024B1B681B6F019308BD23
:1080A0004802030008B5024B1B685B6E019308BDD4
:1080B0003402030008B5024B1B685B68019308BDDE
:1080C0001802030008B5024B1B689B68019308BDAA
:1080D0001802030008B5024B1B68DB68019308BD5A
:1080E0001802030008B5024B1B685B69019308BDC9
:1080F0001802030008B5024B1B689B6D019308BD75
:108100001802030008B5024B1B68DB6D019308BD24
:108110001802030008B5024B1B685B6E019308BD93
:108120001802030008B5024B1B689B6E019308BD43
:108130001802030008B5024B1B685B68019308BD79
:108140002C02030008B5024B1B689B68019308BD15
:108150002C02030008B5024B1B68DB68019308BDC5
:108160002C02030008B5024B1B681B69019308BD74
:108170002C02030008B5024B1B689B69019308BDE4
:108180002C02030008B5024B1B68DB69019308BD94
:108190002C02030008B5024B1B681B6B019308BD42
:1081A0002C02030008B5024B1B68DB68019308BD75
:1081B0002802030008B5024B1B689B69019308BDA8
:1081C0002802030008B5024B1B68DB69019308BD58
:1081D0002802030008B5024B1B681B6A019308BD07
:1081E0002802030008B5024B1B685B6A019308BDB7
:1081F0002802030008B5024B1B689B6A019308BD67
:108200002802030008B5024B1B68DB6A019308BD16
:108210002802030008B5024B1B681B6B019308BDC5
:108220002802030008B5024B1B685B6B019308BD75
:108230002802030008B5024B1B681B6C019308BDA4
:108240002802030008B5024B1B689B6C019308BD14
:108250002802030008B5024B1B68DB6C019308BDC4
:108260002802030008B5024B1B681B6D019308BD73
:108270002802030008B5024B1B685B69019308BD27
:108280006402030008B5024B1B689B68019308BD9C
:108290006802030008B5024B1B68DB68019308BD48
:1082A0006802030008B5024B1B68DB69019308BD37
:1082B0003002030008B5024B1B681B6A019308BD1E
:1082C0003002030008B5024B1B681B68019308BD10
:1082D0003C02030008B5024B1B68DB68019308BD34
:1082E0003C02030008B5024B1B681B69019308BDE3
:1082F0003C02030008B5024B1B685B69019308BD93
:108300003C02030008B5024B1B689B69019308BD42
:108310003C02030008B5024B1B68DB69019308BDF2
:108320003C02030008B5024B1B681B6A019308BDA1
:108330003C02030008B5024B1B689B6A019308BD11
:108340003C02030008B5024B1B681B68019308BD83
:108350004C02030008B5024B1B681B69019308BD62
:108360004C02030008B5024B1B685B69019308BD12
:108370004C02030008B5024B1B689B69019308BDC2
:108380004C02030008B5024B1B68DB69019308BD72
:108390004C02030008B5024B1B681B6A019308BD21
:1083A0004C02030008B5024B1B685B6B019308BDD0
:1083B0006002030008B5024B1B689B6B019308BD6C
:1083C0006002030008B5024B1B68DB6B019308BD1C
:1083D0006002030008B5024B1B685B6D019308BD8A
:1083E0006002030008B5024B1B681B68019308BDBF
:1083F0002002030008B5024B1B685B68019308BDAF
:108400002002030008B5024B1B685B69019308BD9D
:108410002002030008B5024B1B68DB6A019308BD0C
:108420002002030008B5024B1B68DB6C019308BDFA
:108430002002030008B5024B1B685B6D019308BD69
:108440002002030008B5024B1B689B6D019308BD19
:108450002002030008B5024B1B68DB6D019308BDC9
:108460002002030008B5034B1B68D3F88830019342
:1084700008BD00002002030008B5034B1B68D3F8B9
:108480009430019308BD00002002030008B5034B9F
:108490001B68D3F8B030019308BD00002002030030
:1084A00008B5024B1B681B68019308BD440203001A
:1084B00008B5024B1B685B68019308BD44020300CA
:1084C00008B5024B1B689B68019308BD440203007A
:1084D00008B5024B1B68DB68019308BD440203002A
:1084E00008B5024B1B685B69019308BD4402030099
:1084F00008B5024B1B68DB69019308BD4402030009
:1085000008B5024B1B681B6A019308BD44020300B7
:1085100008B5024B1B685B6A019308BD4402030067
:1085200008B5024B1B68DB6A019308BD44020300D7
:1085300008B5024B1B681B6B019308BD4402030086
:1085400008B5024B1B685B6B019308BD4402030036
:1085500008B5024B1B689B6B019308BD44020300E6
:1085600008B5024B1B68DB6B019308BD4402030096
:1085700008B5024B1B685B68019308BD400203000D
:1085800008B5024B1B689B68019308BD40020300BD
:1085900008B5024B1B68DB68019308BD400203006D
:1085A00008B5024B1B681B69019308BD400203001C
:1085B00008B5024B1B685B69019308BD40020300CC
:1085C00008B5024B1B689B69019308BD400203007C
:1085D00008B5024B1B68DB69019308BD400203002C
:1085E00008B5024B1B681B6A019308BD40020300DB
:1085F00008B5024B1B681B6B019308BD40020300CA
:1086000008B5024B1B685B6B019308BD4002030079
:1086100008B5024B1B681B6C019308BD40020300A8
:1086200008B5024B1B685B6C019308BD4002030058
:1086300008B5024B1B681B68019308BD1C020300B0
:1086400008B5024B1B685B68019308BD1C02030060
:1086500008B5024B1B689B68019308BD1C02030010
:1086600008B5024B1B681B69019308BD1C0203007F
:1086700008B5024B1B68DB69019308BD1C020300AF
:1086800008B5024B1B685B6A019308BD1C0203001E
:1086900008B5024B1B68DB6A019308BD1C0203008E
:1086A00008B5024B1B681B6B019308BD1C0203003D
:1086B00008B5024B1B68DB6B019308BD1C0203006D
:1086C00008B5024B1B685B6C019308BD1C020300DC
:1086D00008B5024B1B689B6C019308BD1C0203008C
:1086E00008B5024B1B68DB6C019308BD1C0203003C
:1086F00008B5024B1B681B6D019308BD1C020300EB
:1087000008B5024B1B685B6D019308BD1C0203009A
:108710000021FFF777BE10B5836804460BB901F05E
:1087200042FDC3689847A3681BB103222146204637
:10873000984720461021BDE8104001F02EBD10B52D
:108740000446006808B1FFF795FC204610BD000004
:1087500010B5064C002320462360FFF783FC20461B
:10876000034A0449BDE8104001F012BDE0E50320D2
:10877000E0DE03203F870D00002240681146FFF72E
:108780000FBF002240681146FFF72ABF0022406851
:108790001146FFF735BF40680022FFF729BF406848
:1087A000002281F00101FFF713BF002340681A4641
:1087B0001946FFF705BF002340681A461946FFF720
:1087C000F7BE002240681146FFF7DABE406800227B
:1087D0000221FFF7DDBE002340681A46FFF7C8BE3E
:1087E000084B10B5282422461846002102F072FBDF
:1087F000054B04804FF0FF32426004225A60034A66
:108800001A6010BDECE50320E4E50320ACDE0D00AA
:1088100070470020704710B51021044601F0BDFCE0
:10882000204610BD08B5FFF7F6FF08BD30B50022A1
:108830004FF69C74026084808D888C800C688580E3
:1088400004600A6030BD10B504460068FFF7F8FE0A
:10885000204610BD38B5C468F4B12378022B03D18B
:1088600004F10C00FFF7EFFF656835B12846FBF710
:1088700006FD1021284601F090FCA56835B1284678
:10888000FBF7FDFC1021284601F087FC204614214F
:10889000BDE8384001F081BC38BD10B588B0044651
:1088A000684600F092FF694604A800F0B1FF04A8F2
:1088B000A047044604A800F03DFF684600F03AFFD8
:1088C000204608B010BD07B5CDE9001282680AB98C
:1088D00001F069FCC36801AA6946984703B05DF8D6
:1088E00004FB1FB50023CDE90201019210241A46B2
:1088F00069461846ADF80230ADF80040FFF7D8FDE4
:1089000004B010BD73B50E46044656F8043B009300
:108910000D4601A83146FEF70DFF019A009B6260EB
:10892000236001A8002301930093FCF745FC304627
:10893000FCF742FC2846082101F02FFC204602B03B
:1089400070BD826810B50AB901F02DFCBDE8104079
:10895000C368184708B5006800F11001FFF7F1FF80
:1089600008BD826810B50AB901F01DFCBDE81040D1
:10897000C368184708B5006800F11001FFF7F1FF60
:1089800008BD000038B500230446036010200D46E2
:10899000FBF781FB28B10123C0E90133024B0360DF
:1089A000C5602060204638BDE8DE0D0038B50023E4
:1089B00083608B6804460D462BB102229847EB6812
:1089C000E360AB68A360204638BD0000F0B589B015
:1089D00004686846FFF72AFF4FF00203D4E84F2FE0
:1089E000002A03D1C4E8413F0029F7D125D104F181
:1089F0000C0569462846FFF719FFBFF35B8F01237B
:108A00006370002004F10803BFF35B8F53E8006F2D
:108A100043E80002002AF9D1BFF35B8F6EB1FFF784
:108A200001FD78B129463046FFF78BFF3046FBF752
:108A300026FC1021304601F0B0FB6846FFF703FF2B
:108A400009B0F0BD314602A8FFF7B0FFE068B4F905
:108A5000105008B102F07CFA06901020ADF81C50BE
:108A6000FBF719FB0546E8B1002787601820FBF7E4
:108A700012FB044688B10146876002A8FDF710F892
:108A8000049BA268A360059B049206A9E268E360C8
:108A900004F110000592FFF7C9FE084BEB60084B8C
:108AA0002C60AB6006A8FFF7CEFE02A8FBF7E7FB41
:108AB000002229460348FFF7BDFCB7E755890D00A2
:108AC000ED8B0D0017870D002DE9F0478AB00546A4
:108AD0009DF848900C4617469846FFF701FD07AEF3
:108AE000824638BB4FF62E73059005A93046ADF887
:108AF0001830FFF79BFE1420FBF7CDFA044648B16F
:108B0000022303700123C0E901AA437031460C30EF
:108B1000FFF78CFE2846214640F8044BFFF732FF52
:108B20003046FFF790FE05A8FFF78DFE28460AB0F5
:108B3000BDE8F0870C234FF0000A1420CDE908AA05
:108B40000793FBF7A8FA014628B1C0E901AA80F80B
:108B500000A080F801A004A80391FFF713FF224BA7
:108B600008930820FBF797FA824628B1039B40F848
:108B7000043B04A9FEF7DEFD00965FFA89F3424646
:108B800039462046CDF824A0FFF7BAFCB8B9039BBC
:108B90005B7803F0FF0293B94FF69C7305A903A815
:108BA0000592ADF81830FFF711FF05A8FFF74BFE4F
:108BB00005A80999FFF7A6FE06A8FCF7FDFA039B96
:108BC000059304A906A8FEF7B5FD059B069A2B6040
:108BD0006A60002306A806930593FCF7EDFA04A843
:108BE000FCF7EAFAA2E700BFB18C0D00022AF8B543
:108BF000054607D0032A18D0012A01D10B6803606B
:108C00000020F8BD18200E68FBF745FA044650B165
:108C10003146FFF7CBFE3069B6F9147008B102F0A7
:108C200097F92061A7822C60EAE70468002CE7D05E
:108C300004F11000FFF707FE2046FBF720FB182188
:108C4000204601F0AAFADBE738B5002383608B6881
:108C500004460D462BB102229847EB68E360AB68EF
:108C6000A360204638BD022A70B5044607D0032A07
:108C700012D0012A01D10B680360002070BD1420BE
:108C80000E68FBF708FA054620B13146FFF7DCFF16
:108C9000337C2B742560F0E70468002CEDD020466F
:108CA000FBF7EDFA1421204601F077FAE5E7000022
:108CB000F0B589B004460D4601A81146FFF722FE23
:108CC000A4B124B21DB1284602F042F9054601A81C
:108CD00003A90395ADF81040FFF778FE03A8FFF74E
:108CE000B2FD02A8FCF768FA09B0F0BD019D0123AE
:108CF000D5E84F2F002A03D1C5E8413F0029F7D11D
:108D0000EFD12B73BFF35B8F6B702B1DBFF35B8FAA
:108D100053E8006F43E80042002AF9D1BFF35B8FAC
:108D2000002EDED02046FFF77DFB074660B105F13F
:108D30000C013046FFF715FE3046FBF7A0FA102174
:108D4000304601F02AFACCE7314603A8FFF77CFF52
:108D50002B7B8DF81C301020FBF79DF90546D0B118
:108D600087601420FBF797F9044678B187600146C5
:108D700003A8FCF795FE059BA268A360069B0592DD
:108D8000E268E3609DF81C3006922374064BEB60AA
:108D9000064B2C60AB6003A8FBF771FA0022294652
:108DA0000348FFF747FBC7E775890D00678C0D0087
:108DB00017870D00002240681146FFF711BC002202
:108DC00040681146FFF71CBC40680022FFF710BC4A
:108DD0004068002281F00101FFF7FABB00234068E0
:108DE0001A461946FFF7ECBB002340681A4619469D
:108DF000FFF7DEBB002240681146FFF7D1BB00221F
:108E000040681146FFF7BCBB406800220221FFF713
:108E1000BFBB002340681A46FFF7AABB024B0322E0
:108E20005A60024A1A60704714E6032004DF0D00FE
:108E30007047F8B5064615460C468F18BC4206D05A
:108E4000336814F8011B9B6830469847F6E72846BC
:108E5000F8BD007C0022FFF7BDB9007C0021FFF7C0
:108E6000C1B9007C0021FFF7C5B9007C0021FFF7E4
:108E7000C9B9007C0021FFF7CDB910B51421044613
:108E800001F08BF9204610BD10B54FF47A730446FB
:108E900008460021C4E90113034B236020741146E6
:108EA000FFF7C8F9204610BD40DF0D000023007C0D
:108EB0001A461946FFF776B97FB500221423CDE98B
:108EC0000122ADF804300B788DF808304B6803931D
:108ED000CB680493007C0B7A059301A9FFF7C2F9D4
:108EE00007B05DF804FB1FB5003B8DF800104FF094
:108EF0006401039118BF0123694601928DF808307F
:108F0000FFF7DAFF05B05DF804FB007C0022FFF7F5
:108F100051B9C9B2FFF7F9BF007C0022FFF752B97F
:108F200008B50021007CFFF78DF9B0FA80F0400908
:108F300008BD08B50021007CFFF78CF9B0FA80F07D
:108F4000400908BD004700002DE9FF4100241D46EF
:108F50000F4690460646FFF715F9A5424FF0040369
:108F6000ADF80D408DF80C308DF80F40A2BF9DF884
:108F700028308DF80E3003AC0749009443463A463A
:108F80003046A8BF8DF80D50FFF7F4F8B0FA80F026
:108F9000400904B0BDE8F081458F0D00704710B561
:108FA0001821044601F0F9F8204610BDF0B5037D04
:108FB000062B8DB00E4600F104074FF0000412D0CE
:108FC00000F1080515F8011D0A22304600F075FB76
:108FD000AF42044419D0002CF4D02E21304600F0CA
:108FE00069FB0444EEE72F236A4639460A208DF8D0
:108FF0000040FFF73FF9684601F0C7FF33680246BB
:10900000DB68694630469847044620460DB0F0BDFF
:1090100010B5054B0446112240F8043B002101F035
:1090200059FF204610BD00BF68DF0D000346074A08
:1090300010B543F8042B01F1100251F8044B43F82A
:10904000044B9142F9D10A781A7010BD68DF0D0007
:1090500010B59DF8084044EA032343EA024242EA7D
:10906000016104234160037510BD000013B5054B79
:109070000360CB7800938B784A780978FFF7E8FF94
:1090800002B010BD68DF0D0000F11003012213F8DB
:10909000101C0129184608D153F8041C02EB4102A8
:1090A000013A03F11003F2D17047022904BF53F8CB
:1090B000041C5218F4E770470020704710B51021C7
:1090C000044601F06AF8204610BD08B5FFF7F6FF28
:1090D00008BD10B5C4687CB1206808B1FAF7E1FF9B
:1090E000237A1BB1606808B1FAF7DBFF20460C2138
:1090F000BDE8104001F051B810BD10B5036804463A
:109100009B689847A368013BA3602BB9236820465E
:10911000DB68BDE81040184710BD38B50B68036028
:109120004D6843689D4204460CD015B16B6801330D
:109130006B60606828B14368013B43600BB9FFF77F
:10914000DCFF6560204638BD0B461146002210B595
:10915000C0E90022044683600BB9204610BDFFF72A
:10916000DCFFFAE78368EBB11A78032A1AD8DFE844
:1091700002F00417021B0520704702685B68526802
:10918000D05C2D2812D0A0F13003092B0ED9742801
:109190000ED066280CD0A0F16E035842584170479B
:1091A0000620704700207047042070470320704756
:1091B000022070472DE9F04786B00746884602A88E
:1091C000002100249946102392460293FFF7F2F8FB
:1091D000CDE9004423464246394602A8FFF7F2F89B
:1091E000061E1EDD1049300100F0DBFF054690B180
:1091F000214602A8FFF7DEF8CDE900642B4642467F
:10920000394602A8FFF7DEF8A04207DDCAF8005091
:109210000120C9F8006006B0BDE8F0872846FAF7DB
:1092200040FF2046F7E700BF5CE00D002DE9F84F56
:10923000436886680B4488460E4407461C46194618
:109240004FF00D094FF0090AB44263D0254615F8D6
:10925000012B5C2A2BD1A14207D0A4EB010B1846AD
:109260005A4601F01DFE03465B44B54239D0627890
:10927000752A2AD1A21CB21A032A32DDA01D04F1DC
:10928000050E4FF0000CAE4553D015F8011FA1F1AB
:1092900030025FFA82FBBBF1090F05D9A1F161022F
:1092A000052A07D8A1F1570242EA0C1CEBE7284631
:1092B0000446C9E7A1F14102052A12D8A1F13702FB
:1092C000F2E703F801CB0146F2E76E2A1CD00ED874
:1092D000622A13D007D82F2A11D05C2A0FD0222A55
:1092E0000DD0002023E0662AFBD10C2207E0722A71
:1092F0000DD0742AF5D183F800A001E008221A707D
:10930000A11C01330846D3E74FF00A02F7E783F8C0
:109310000090F5E7A14206D0641A1846224601F0F3
:10932000BFFD03462344A3EB0803BB600120BDE857
:10933000F88FBCF17F0FC4D92146B9E7F8B50446D0
:10934000154600EB01160027B44210D02378032BFA
:1093500008D129462046FFF769FF48B1A368EF54BA
:109360001034F1E7002BFBD1A268AB54F8E70120E1
:10937000F8BD000038B50023C0E9003304460E48AC
:10938000C4E90203A9B10B78032B06D08BB913688B
:1093900058684B68C35C6E2B07D013684D685868DB
:1093A0008B6828445B1BA060E36011462046FFF7F2
:1093B000B4FE204638BD00BF84E00D0038B500255E
:1093C0000B46C0E90055C0E90255C0E90455044602
:1093D00011464BB11A78012A06D103F11002DB685D
:1093E00082604361FFF799FE204638BD10B543699E
:1093F000044663B18068E060013B1030A0602061EA
:10940000636113B1FFF740FEA060012000E0184641
:1094100010BD000038B500230446036010200D463F
:10942000FAF739FE28B10123C0E90133024B03608A
:10943000C5602060204638BD7CDF0D00F0B50446D5
:1094400087B00E460C202749154600F0A8FE0146BD
:1094500018B10023C0E90033037203A80291FFF79B
:10946000D9FF029A42B9C4E90022A26003A8FBF71F
:10947000A3FE204607B0F0BD00230193294601ABAF
:109480003046FFF797FE18B9C4E90000A060EDE789
:109490001449029F681C00F084FE029B78605868A3
:1094A0000028F1D02A46314601F0ECFC029B0199DC
:1094B000186801221A725A68FFF740FF0028E3D0AB
:1094C000029B19680493039B059313B15A680132F8
:1094D0005A6004AA2046FFF737FE05A8FBF76CFE8A
:1094E000C4E700BF5CE00D00014B024A1A60704700
:1094F0001CE6032090DF0D00002340681A46FFF7AA
:1095000037B8406800220221FFF742B800224068C5
:109510001146FFF735B8002240681146FFF740B802
:10952000002340681A461946FFF742B800234068F6
:109530001A461946FFF744B840680021FFF768B89B
:1095400040680021FFF76CB84068002281F00101FB
:10955000FFF73EB840680022FFF74AB80022406893
:109560001146FFF74DB8002240681146FFF738B8A2
:109570002DE9F043002495B016460D460746FFF747
:1095800047FD214618220EA8009401F0A3FC4023B9
:10959000CDE90C3421466B460CAA3046FEF77AFE24
:1095A000044600284CD1024601216868FEF7F8FF06
:1095B0000221804622466868FEF7F2FF009E81463F
:1095C0002146002E3CD000293AD17368022B03D0EB
:1095D0000A2B11D0F669F4E7B8F1000F0AD07169CF
:1095E00006A8043107ADFFF741FD0FCD3C1D0FC4A8
:1095F0002B6823704146EDE7B9F1000F01D14946D0
:10960000E8E77469102201A801F064FC06238DF8D4
:10961000143001AD04F108031834186859682A465B
:1096200003C20833A3421546F7D101A906A807AD26
:10963000FFF7FCFC0FCD3C1D0FC42B682370DEE749
:109640000098FEF71FFE384615B0BDE8F083000015
:10965000024B034A1A6000225A60704720E603203A
:109660009CDF0D00F8B506460D468F180024BD425C
:109670000CD0336815F8011B9B6830469847031ED1
:1096800001DB1C44F3E7002C08BF1C462046F8BD54
:1096900013B50446084659B1019101F076FC2368E0
:1096A0000199DB680246204602B0BDE81040184729
:1096B00002B010BD03689B68184730B58BB000231B
:1096C0008DF82430012A98BF0A2209AC0D46B1FB5F
:1096D000F2F101FB125303F0FF03092B94BF303367
:1096E0003733DBB2AA4204F8013DEFD92146FFF738
:1096F000CFFF0BB030BD10B50446FAF7C0FD2046D1
:1097000010BD00000348044A04490023836000F0B0
:109710003FBD00BF28E60320E0DE0320F7960D00E2
:1097200010B5044608462170FEF7BCFD00236360B7
:10973000204610BD10B504460068FEF781FF2046A4
:1097400010BD10B50446006808B1FEF779FF00238C
:10975000C4E90133236010BD38B504460D460068E6
:109760000131FEF775FF10B1C4E90005012038BDD5
:1097700010B50368044623B143688B4201D301202E
:1097800010BD2046FFF7E8FF0028F9D0A368002BA2
:10979000F5D122681370F2E737B50D4611460192F4
:1097A0000446FFF7E5FF019A28B92046FFF7C9FFF5
:1097B000204603B030BDA2602946206801F062FB5C
:1097C0002268A3680021D154F2E7002313B5C0E951
:1097D000003304468360037341B10846019101F0F0
:1097E000D4FB019902462046FFF7D6FF204602B07F
:1097F00010BD884210B5044605D00B682BB18A68AD
:109800001946FFF7C9FF204610BDFFF79AFFFAE798
:1098100010B500230446C0E9003383600373FFF7EB
:10982000E8FF204610BD13B5044659B10846019122
:1098300001F0ABFB019902462046FFF7ADFF204641
:1098400002B010BDFFF77DFFF9E770B505460E4683
:1098500009B9002070BD6AB1846814442146FFF73D
:1098600087FF0028F5D02868AB683146184401F01E
:1098700067FBAC600120EDE713B5044629B920462B
:10988000FFF75FFF204602B010BD0846019101F0CE
:109890007CFB019902462046FFF7D7FF0028EED057
:1098A000F0E708B582683AB921B10878B0FA80F0DB
:1098B000400900E0012008BD006809B90078F5E71B
:1098C00001F034FBF2E7000008B5006840B101F098
:1098D000B1FA51EC100B01F019FA00EE100A08BDB4
:1098E0009FED010AFBE700BF000000000EB470B559
:1098F00087B00BAD044655F8042B01922B46052189
:1099000004A80395FEF7BCFE0B4906462046FFF768
:109910005CFF31462046FFF72BFF206830B1019AEB
:1099200003952B46711CFEF7ABFEA060204607B0E6
:10993000BDE8704003B0704784E00D0007B50B46EA
:1099400000210246009101208C21FEF79FFD03B00B
:109950005DF804FB01460020FFF7F0BF0020FFF791
:10996000F9BF000010B5094B094C022200201A6013
:10997000084B2060A080A071A360FEF73BFD20464D
:10998000054A0649BDE8104000F002BC44E6032049
:1099900038E603200000FFFFE0DE032067420D00F1
:1099A0002DE9F041154ADFF86080D2E90032C01895
:1099B00042EB0101124AD2E90032C61841EB02071C
:1099C000D8E90023BB4208BFB2428CB013D003A930
:1099D0006846CDE90067FEF783FE089B094D03F258
:1099E0006C7303AC08930FCC0FC50FCC0FC5C8E93F
:1099F000006723682B600CB0BDE8F08180E603208F
:109A000078E6032050E6032088E6032008B500200E
:109A1000FEF78EFD28B1FEF763FD80F00100C0B2B5
:109A200008BD0120FCE71FB502460B466846002131
:109A3000CDE90023CDE90211FEF774FB024610B90F
:109A40000146FEF707FD05B05DF804FB30B504469E
:109A50001848D0E90010521840EB03031648D0E92B
:109A60000010521893B040EB0303CDE900232422E9
:109A70000DEB0200002101F02DFA002509A968462E
:109A8000FEF72EFE1622294603A8029501F022FABF
:109A900002A909A801F0A8F902A801F076FA12AB10
:109AA000184402A900F8415C2046FFF78EFE2046CC
:109AB00013B030BD80E6032078E603202DE9F04F97
:109AC000A5B00746884614A811463F221D4601F05E
:109AD00076FA002314A88DF88F3001F056FA044668
